:1000000005C1000034C1000032C1000030C1000051
:100010002EC100002CC100002AC1000028C1000030
:1000200026C1000024C1000022C1000020C1000040
:100030001EC100001CC100001AC1000018C1000050
:1000400016C1000014C1000012C1000010C1000060
:100050000EC100000CC100000AC100000C9454281D
:1000600006C100000C949F2B0C94D52B00C10000FE
:10007000FEC00000FCC00000FAC00000F8C0000094
:10008000F6C00000F4C00000F2C00000F0C00000A4
:100090000C942B2C0C94612CEAC00000E8C00000EA
:1000A000E6C00000E4C00000E2C00000E0C00000C4
:1000B000DEC00000DCC00000DAC00000D8C00000D4
:1000C000D6C00000D4C000000C945D240C94B72C62
:1000D0000C94ED2CCCC000000C94432D0C94792D85
:1000E000C6C0000000000A0B02090C0D0E08070331
:1000F00004010000000000000000000000000000FB
:1001000000000000000000000000000000000000EF
:1001100012111000000000000000000000000000AC
:100120000000000000000000000001021020200874
:100130000810204010204080020102010804020142
:1001400001020408102040808040201008040201B1
:10015000800402018040201008040201080402010A
:100160000102040810204080010204081020408091
:1001700005050505070508080808020202020A0A23
:100180000808040404040101010101010101030341
:10019000030303030303040707070C0C0C0C0C0CEC
:1001A0000C0C0202020206060606060606060B0BE9
:1001B0000B0B0B0B0B0B000020002300260029006B
:1001C0002C002F003200000100000301060109018C
:1001D00000002200250028002B002E0031003400F2
:1001E00002010000050108010B01000021002400AC
:1001F00027002A002D003000330001010000040117
:1002000007010A01FE2B8A2C162DA22D11241FBED8
:10021000CFEFD1E2DEBFCDBF00E00CBF12E0A0E027
:10022000B2E0EAEEFCE500E00BBF02C007900D92E1
:10023000AC3DB107D9F729E0ACEDB2E001C01D92A9
:10024000A732B207E1F711E0C6E0D1E000E006C056
:1002500021970109802FFE010E94422EC230D10752
:1002600080E00807A9F70E94B8250C94732EC8CE29
:10027000CF93DF93882349F0EB0181500E945B29E3
:1002800099838883DF91CF910895FB0111821082B9
:10029000F9CF0F931F938B019C0183E0369527952F
:1002A000179507958A95D1F704521D4F462F477031
:1002B00021E030E0F90102C0EE0FFF1F4A95E2F79E
:1002C000AF01F80120812423CB010196211102C046
:1002D00090E080E01F910F9108950F931F938B0181
:1002E0009C0183E036952795179507958A95D1F758
:1002F000677081E090E001C0880F6A95EAF7F80125
:10030000E452FD4F2081452B31F480958223808378
:100310001F910F910895822BFACFCF92DF92EF9227
:10032000FF92CF93DF936B017C0160E086E3C816F8
:10033000D104E104F10490F486E38C0D0E94E429D9
:10034000E6012196AE01C701B601C7DFCE01DF91FC
:10035000CF91FF90EF90DF90CF9008958C2DEECF4E
:10036000882341F08150682F70E090E080E050E0F9
:1003700040E0B3CF0895611102C00C94E4296130CC
:10038000E1F362E0FACF662319F061E00C94202AD1
:1003900060E0FCCF0E944D2A21E0019709F020E0A7
:1003A000822F089590E080E008950F931F930097A7
:1003B00009F48BC06115710509F487C000911E0214
:1003C00010911F0220912002309121020E3F1F4FF9
:1003D0002F4F3F4F09F06AC04FEF5FEFBA014093D4
:1003E0001E0250931F0260932002709321024091DD
:1003F0001E0250911F026091200270912102DC01C7
:100400001296ED91FC9180819181A281B3818093BC
:100410005B0390935C03A0935D03B0935E038481C0
:100420009581A681B7818093570390935803A09339
:100430005903B0935A0380859185A285B385809333
:10044000530390935403A0935503B09356038485AC
:100450009585A685B78580934F0390935003A0930D
:100460005103B093520310924B0310924C0310921D
:100470004D0310924E032AD68BE898E09093E60243
:100480008093E5029093E8028093E7029093EA025A
:100490008093E9020AD5009731F421E030E03093EF
:1004A000600320935F031F910F91089500911E0236
:1004B00010911F022091200230912102DB010D9347
:1004C0001D932D933C93139792CF8FEF9FEFEBCF1C
:1004D0008F929F92AF92BF92CF92DF92EF92FF9254
:1004E0001F93CF93DF934B015C011091620382E075
:1004F00090E09093600380935F0381149104A104C2
:10050000B10441F480916203811104C080916103C0
:10051000C1E08111C0E0C12CD12C76018091620331
:10052000811106C080916103811102C0CC23D9F0F2
:1005300083E090E09093600380935F03CC2379F194
:10054000CCE9DFEF111102C00E94EF0BCE01DF9169
:10055000CF911F91FF90EF90DF90CF90BF90AF9021
:100560009F908F9008956AE070E080E090E00E9494
:10057000C32880E1C80E87E2D81EE11CF11C8FEF72
:1005800088169806A806B80631F0C1E08C149D04C0
:10059000AE04BF0408F0C0E080E0BBD4BFCFD0E021
:1005A000C0E0D0CFCF92DF92EF92FF920F931F93D4
:1005B000CF93DF938F3F910511F008F050C0209149
:1005C0005F03309160032330310539F020915F03E0
:1005D000309160032130310531F424E030E0309374
:1005E000600320935F036A017B01EC018330910576
:1005F000A0F011E0AE01C701B60156D4AB01BC01B9
:10060000CE011123F9F0DF91CF911F910F91FF904F
:10061000EF90DF90CF900C94180E8C01000F111FFB
:100620000B511D4FD8018D919C91892B11F30E9484
:10063000220E0297F1F6D801ED91FC91CE011995A9
:10064000182FD8CF0E943A0E90E080E0DF91CF9132
:100650001F910F91FF90EF90DF90CF9008958FEF53
:100660009FEFF4CF80E055C4CF93DF9386E090E016
:100670009093600380935F03A5D4EC01E5EEF2E074
:1006800086E0DF011D928A95E9F70E94870B1092A0
:10069000600310925F03CE01DF91CF9108958091A6
:1006A0006103089580914A03089560931E02709338
:1006B0001F02809320029093210290E080E0089531
:1006C000FC0191E080912803811190E091830895CD
:1006D000CF92DF92EF92FF926B017C019F7720E037
:1006E00030E040E859E50E94B82687FF2BC020E0A3
:1006F00030E040E05FE3C701B6010E94ED2787FDCF
:100700000EC020E030E040E05FE3C701B6010E9488
:100710004126FF90EF90DF90CF900C94252720E0AA
:1007200030E040E05FEBC701B6010E94ED271816EC
:1007300084F420E030E0A901C701B6010E94F1274E
:100740006B017C01C701B601FF90EF90DF90CF9065
:10075000089520E030E040E05FE3C701B6010E9469
:100760004026FF90EF90DF90CF900C94A526CF927B
:10077000DF92EF92FF92CF93DF931F921F92CDB73C
:10078000DEB7809128038F5F843108F0C6C0809364
:100790002803C0900002D0900102E0900202F09085
:1007A0000302A70196016091FF08709100098091F2
:1007B0000109909102090E94B826882341F0C09255
:1007C000FF08D0920009E0920109F092020966E365
:1007D00070E080E090E05DDD9093FE088093FD087E
:1007E00043E050E0BE016F5F7F4F42DD20911C026D
:1007F00030911D02A981BA810E944A2E21E196956D
:100800008795779567952A95D1F76093E908C09009
:100810000402D0900502E0900602F0900702A701C2
:1008200096016091F3087091F4088091F508909119
:10083000F6080E94B826882341F0C092F308D092AF
:10084000F408E092F508F092F60867E370E080E0C3
:1008500090E01FDD9093F2088093F10843E050E0B0
:1008600067EE78E005DDC0900802D0900902E090C4
:100870000A02F0900B02A701960160910B0970919A
:100880000C0980910D0990910E090E94B8268823C9
:1008900041F0C0920B09D0920C09E0920D09F09240
:1008A0000E0983E077DD61E0811160E06093EA0882
:1008B0008CE069DD60911D0370911E0380911F0320
:1008C000909120036F5F7F4F8F4F9F4F60931D0369
:1008D00070931E0380931F03909320030E94E826C9
:1008E0009B01AC016091210370912203809123034D
:1008F000909124030E94F1276093190370931A03C7
:1009000080931B0390931C030F900F90DF91CF9166
:10091000FF90EF90DF90CF9008951092280339CF89
:100920004F925F926F927F928F929F92AF92BF92FF
:10093000CF92DF92EF92FF92C0902109D0902209CE
:10094000E0902309F0902409C701B6010E94EA262D
:100950002B013C01209114023091150240911602A6
:10096000509117020E94B82687FF64C0F7FC62C04E
:1009700080900C0290900D02A0900E02B0900F0299
:100980008092E3089092E408A092E508B092E6080D
:1009900020E030E040E85FE36091100270911102C6
:1009A00080911202909113020E9440269B01AC019B
:1009B000C301B2010E94ED2787FD40C010922109BA
:1009C000109222091092230910922409C501B40142
:1009D0007FDE6B017C0120E030E040E853E40E94C0
:1009E000B8266FEF87FF0EC020E030E0A901C701F5
:1009F000B6010E94ED2760E087FD04C0C701B60183
:100A00000E94BC268DE0BFDC8091250390912603D7
:100A100001969093260380932503FF90EF90DF903B
:100A2000CF90BF90AF909F908F907F906F905F908E
:100A30004F900895812C912C5401A2CF8FEFC81AAA
:100A4000D80AE80AF80AC0922109D0922209E09255
:100A50002309F0922409BACFAF92BF92CF92DF92CE
:100A6000EF92FF921F93CF93DF93E3E0F3E080E0F8
:100A700090E0A0E8BFEB86A397A3A0A7B1A78DEC59
:100A80009CECACECBDE3868F978FA0A3B1A38FE263
:100A900098E0AEEBBBE684839583A683B78380EBB7
:100AA0009CEAA4E3B0EE80879187A287B38788E1B0
:100AB0009EECADE8B7E484879587A687B78782E088
:100AC00092ECA4EAB5EA808B918BA28BB38BA7EF53
:100AD000B2E0B383A283EBEEF2E01196FC93EE93C7
:100AE00088E492E0918380839383828395838483D7
:100AF00097838683918780879387828787E193E0B6
:100B000015969C938E93149787E093E013969C938D
:100B10008E93129789E193E017969C938E93169784
:100B2000CBEED8E01C8680E0A82E82E0B82EF5013E
:100B300080819181A281B3818C8B9D8BAE8BBF8B89
:100B4000C12CD12C7601C394CD86DE86EF86F88A3F
:100B500066E370E080E090E0E0DB9B8B8A8B11E045
:100B6000198B1882F50184819581A681B7818887C8
:100B70009987AA87BB87C982DA82EB82FC8267E306
:100B800070E080E090E0C9DB9F838E831D83188E28
:100B9000F50180859185A285B38588A399A3AAA331
:100BA000BBA3C98EDA8EEB8EFC8E60E083E0E3DBC4
:100BB0001D8F1CA2CDA2DEA2EFA2F8A661E08CE000
:100BC000DADB19A71CA6CDA6DEA6EFA6F8AA61E07F
:100BD0008DE0D1DB19ABDF91CF911F91FF90EF90AA
:100BE000DF90CF90BF90AF9008958091F70881116A
:100BF0001DC081E08093F7088091F8089091F90872
:100C0000A091FA08B091FB080197A105B10571F414
:100C10008091FC08882351F066E370E080E090E06A
:100C200038DB9093FE088093FD089ADB8091EB08F7
:100C300081111DC081E08093EB088091EC089091B8
:100C4000ED08A091EE08B091EF080197A105B1055C
:100C500071F48091F008882351F067E370E080E040
:100C600090E017DB9093F2088093F10879DB809194
:100C70000309811103C081E08093030980910F096A
:100C8000811103C081E080930F09809117098111C0
:100C900003C081E08093170908954F925F926F928D
:100CA0007F928F929F92AF92BF92CF92DF92EF92FC
:100CB000FF920F931F93F89440903A0350903B0398
:100CC00060903C0370903D03C0902E03D0902F03A2
:100CD000E0903003F0903103452B09F0A6C09B0152
:100CE000AC01241935094609570929013A01009137
:100CF00036031091370320913803309139034801AE
:100D00005901840C951CA61CB71C80169106A206DE
:100D1000B306A0F400913203109133032091340301
:100D2000309135030F5F1F4F2F4F3F4F009332031A
:100D300010933303209334033093350380923603AA
:100D400090923703A0923803B09239030091320396
:100D500010913303209134033091350380923E0388
:100D600090923F03A0924003B0924103009342034C
:100D700010934303209344033093450360933A0355
:100D800070933B0380933C0390933D03A301920136
:100D900060EA76E881E090E00E94FD2D6C0D7D1DFB
:100DA0008E1D9F1D60932E0370932F03809330033D
:100DB0009093310300911E0210911F022091200296
:100DC000309121020F3F1F4F2F4F3F4FF1F0009105
:100DD0001E0210911F0220912002309121020E3F2D
:100DE0001F4F2F4F3F4F89F0C0901E02D0901F021F
:100DF000E0902002F090210221E08C149D04AE04CA
:100E0000BF0408F420E020934A0378941F910F91C7
:100E1000FF90EF90DF90CF90BF90AF909F908F901A
:100E20007F906F905F904F9008954B015C01841804
:100E30009508A608B708A3019201261B370B480B9B
:100E4000590B6415750586059705E0F08216930623
:100E5000A406B50640F420E030E0A9018114910415
:100E6000A104B104A1F460EA76E881E090E00E9478
:100E7000FD2DA7019601261B370B480B590BCA0104
:100E8000B901C3CF82169306A406B50660F7A50183
:100E9000940160EA76E881E090E00E94FD2D6C0DFF
:100EA0007D1D8E1D9F1DB1CFF8CECF93DF9300D057
:100EB0001F92CDB7DEB71C821B821A821982109254
:100EC0004603109247031092480310924903BE0153
:100ED0006F5F7F4FCE0103960E942E2469817A8135
:100EE0008B819C810E94511D009761F4BE016F5F50
:100EF0007F4FCE0103960E943A2469817A818B81CB
:100F00009C812ED50F900F900F900F90DF91CF9175
:100F10000895FF920F931F93CF93DF93082F60E004
:100F200070E0CB010E94C328FF24F3940E943A1C76
:100F3000EC01892B89F010E0CE3F8FEFD80769F0E4
:100F4000002361F160E070E0CB010E94C32881E0E2
:100F500090E0892B59F322C011E025D5EC01892BB3
:100F600021F0CE3F8FEFD80759F711111EC011E0C5
:100F7000229609F410E00E94EA1BEC01892B21F073
:100F8000CE3F8FEFD807E1F6111111C011E0CE3F2F
:100F90008FEFD80709F410E001110BC0CE01DF91EB
:100FA000CF911F910F91FF90089511E0E4CF11E0D0
:100FB000F3CF60E070E0CB010E94C3281F25812F92
:100FC00090E0C7CFCF93DF9380914A03882321F02D
:100FD00060E070E0CB014CD635D6D0E0C0E0892B84
:100FE00071F06AE070E080E090E00E94C32881E048
:100FF00090DF28D62196C03D27E0D20781F727D67B
:101000000E94A51D109262031092610310925B036F
:1010100010925C0310925D0310925E0310925703CE
:10102000109258031092590310925A0310925303CE
:1010300010925403109255031092560310924F03CE
:1010400010925003109251031092520310924B03CE
:1010500010924C0310924D0310924E034EEF5FEF2F
:101060006FEF7FEF40931E0250931F0260932002A8
:101070007093210210924A03EEE3F3E028E0DF01CF
:101080001D922A95E9F710923A0310923B031092B1
:101090003C0310923D0310923603109237031092D6
:1010A00038031092390310923203109233031092D6
:1010B00034031092350310922E0310922F031092D6
:1010C000300310923103DF91CF91089510926E0397
:1010D00010926F03109270031092710310926D03BF
:1010E000809176039091770390936C0380936B03C8
:1010F00010926A03109269031092650310926603BE
:101100001092670310926803109273031092720397
:1011100090E080E00895CF92DF92EF92FF920F93DC
:101120001F93CF938C01892B09F055C02091760332
:101130003091770380916B0390916C03409176031B
:101140005091770350936C0340936B032817390732
:1011500081F010926A031092690310926503109255
:101160006603109267031092680310927303109243
:1011700072038091760390917703019761F58091D6
:10118000720390917303892B21F4809122028111C3
:1011900012C080917203909173030197E1F48091E2
:1011A000650390916603A0916703B091680301976E
:1011B000A105B10581F410926503109266031092A7
:1011C0006703109268031092220282E090E09093ED
:1011D0007303809372038091760390917703019754
:1011E00009F01CC180918C0390918D0380179107A9
:1011F00009F014C18091880390918903A0918A031A
:10120000B0918B03009709F409C120918703211144
:101210000DC0409188035091890360918A037091B9
:101220008B03452B462B472B09F4F8C02091720302
:10123000309173032230310509F0F0C02091690329
:101240002111ECC0FC01C080D180E280F38080914C
:101250006D03882309F4D3C08091790390917A03B8
:10126000892B09F4FDC02091790330917A0381E044
:101270002230310509F080E02091790330917A0322
:10128000C1E02130310549F02091790330917A0392
:10129000C1E02230310509F0C0E0882309F456C0CE
:1012A00020918303309184034091850350918603FC
:1012B000C701B6010E94ED2787FD14C0209183036A
:1012C00030918403409185035091860360916E03B1
:1012D00070916F0380917003909171030E94B82602
:1012E00087FD22C0209183033091840340918503C0
:1012F00050918603C701B6010E94ED27181634F5F8
:10130000209183033091840340918503509186039B
:1013100060916E0370916F038091700390917103DF
:101320000E94B826811112C080917B0390917C03AA
:10133000A0917D03B0917E03892B8A2B8B2B19F40E
:1013400081E080936A0381E080936903CC2309F4F0
:1013500056C02091830330918403409185035091BE
:101360008603C701B6010E94B82687FF14C02091EA
:1013700083033091840340918503509186036091EB
:101380006E0370916F0380917003909171030E94BE
:10139000ED2787FF22C02091830330918403409181
:1013A000850350918603C701B6010E94B8268111BA
:1013B00026C020918303309184034091850350918E
:1013C000860360916E0370916F038091700390911A
:1013D00071030E94ED27181694F480917B0390917D
:1013E0007C03A0917D03B0917E03892B8A2B8B2BEC
:1013F00019F481E080936A0381E08093690381E0BE
:1014000090916903911180E080936D03C0926E0307
:10141000D0926F03E0927003F0927103012B09F0F8
:1014200067C18091720390917303892BD9F4109254
:1014300078031092690380912202882379F082E078
:1014400090E0909373038093720310922202209194
:1014500076033091770381E0232BE9F080E01BC015
:1014600081E00ACF1092220280917803882349F00C
:1014700010926A0310927303109272031092780311
:10148000EDCF8091760390917703892BE1F08091E5
:101490006903109269032091720330917303223023
:1014A000310509F45EC088F42115310509F448C0FE
:1014B0002130310509F4F3C010926A0310926903D8
:1014C0001092780338C081E0E6CF2330310509F46B
:1014D000B1C02430310581F7409165035091660316
:1014E00060916703709168034115510561057105AD
:1014F00061F04150510961097109409365035093AE
:10150000660360936703709368034091650350918D
:1015100066036091670370916803452B462B472B48
:10152000D9F420917403309175032130310509F00D
:1015300046C010926A0310927303109272030CC09B
:1015400080912202882341F082E090E0909373031F
:1015500080937203109222021092630380916A03B7
:10156000CEC08823C9F380917B0390917C03A09126
:101570007D03B0917E03181619061A061B060CF09F
:101580007DC08091760390917703019709F076C032
:1015900080917B0390917C03A0917D03B0917E03A9
:1015A0008093650390936603A0936703B0936803E9
:1015B00083E090E09093730380937203CDCF4091CA
:1015C0007F03509180036091810370918203452BCA
:1015D000462B472BA9F010926A0380917F039091CC
:1015E0008003A0918103B09182038093650390935F
:1015F0006603A0936703B093680381E090E0DACFBD
:10160000882399F08091230290912402A0912502D1
:10161000B09126028093650390936603A0936703BD
:10162000B093680384E090E0C5CF10926A0382E033
:1016300090E0C0CF8091650390916603A09167030D
:10164000B09168030097A105B10559F00197A10970
:10165000B1098093650390936603A0936703B093E9
:1016600068038091650390916603A0916703B09130
:101670006803892B8A2B8B2B09F06ECF8091230274
:1016800090912402A0912502B0912602892B8A2BE9
:101690008B2B09F44ECF81E080936A03B3CF409146
:1016A000650350916603609167037091680341156B
:1016B00051056105710561F04150510961097109D8
:1016C00040936503509366036093670370936803C8
:1016D00040916503509166036091670370916803C0
:1016E000452B462B472B09F037CF8111C7CF9FCF12
:1016F00080916303882309F431CF80916403CF91F3
:101700001F910F91FF90EF90DF90CF90089510926E
:101710006E0310926F031092700310927103109277
:101720006D03109273031092720310926C03109267
:101730006B0310928D0310928C0310926A03109227
:10174000690310926503109266031092670310926A
:10175000680310926403109263031092880310923E
:10176000890310928A0310928B03109287031092C0
:10177000830310928403109285031092860388EEEF
:1017800093E0A0E0B0E08093230290932402A09322
:101790002502B093260210927F03109280031092CC
:1017A00081031092820310927B0310927C031092AB
:1017B0007D0310927E0310927A031092790381E0E8
:1017C000809322021092780310927703109276038E
:1017D000109275031092740390E080E00895809158
:1017E000760390917703892B19F580912202882343
:1017F00051F080917803811106C081E080936403E9
:10180000809363030895209178033091220281E050
:1018100090E0332311F090E080E030E082239323C6
:10182000892B21F01092640381E0EACF10926303C8
:10183000089582E090E0FA01918380838FEF9FEF1B
:101840000895CF93DF93EA01009711F00E94BF1E25
:101850001982188290E080E0DF91CF910895DB013A
:10186000009719F48FEF8C9308952EEF2C93FC01C1
:101870003F96EF30F10508F034C08827ED5BF34F59
:101880008F4F0C94422E6F0C6D0C6B0C690C670C17
:10189000630C650C610C5F0C5D0C5A0C560C520C01
:1018A000580C710C80E311968C93089589E2FBCF5C
:1018B00082E2F9CF11961C92089583E2F4CF81E27F
:1018C000F2CF81E1F0CF87E2EECF8AE2ECCF80E188
:1018D000EACF84E2E8CF88E2E6CF86E2E4CF81E394
:1018E000E2CF80E2E0CF80919A0390919B0308952C
:1018F00090939B0380939A03089580919903089590
:1019000090919903892B809399030895982F90952E
:101910008091990389238093990308958091980376
:10192000089580919603909197030895611571052C
:1019300059F0FB0130E020E070E060E0241735074B
:1019400019F06115710511F0CB010895A081B181E5
:10195000A817B90709F4BF012F5F3F4F3696EECFA6
:1019600080919C0381111CC060D266D290938F033A
:1019700080938E030E94C1160E94D3169093930306
:10198000809392030E94521B0E94591B90939103D3
:101990008093900381E080939C0390E080E0089521
:1019A00084EF9FEF08958F929F92AF92BF92CF9254
:1019B000DF92EF92FF920F931F93CF93DF9300D0AC
:1019C00000D000D01F92CDB7DEB71A8619861886D0
:1019D0001F821E821D821C821B821A8219828091A4
:1019E0009C0307EF1FEF882309F49CC08E010D5F55
:1019F0001F4F9E012B5F3F4FAE01495F5F4FBE01FE
:101A0000675F7F4F90E080E00E94D61C8C010097BA
:101A100021F00596029708F0DBC029853A8521154B
:101A2000310509F402C1ED80FE804B815C81B70174
:101A3000640F751F8F8198858617970708F4F5C086
:101A4000E20EF31ED7019C91903C09F07FC042301A
:101A5000510508F47BC011968C9140919A035091E6
:101A60009B03452B09F49CC0913F08F071C02CE109
:101A7000290F2D3008F48BC02DE2290F203108F4F6
:101A800089C0903C21F48150823008F483C088E3FF
:101A9000890F8B3008F481C09FE2C92E9CE0D92EBB
:101AA000E9E1FCE06D817E81AE014F5F5F4F89858A
:101AB0009A8519955C01C114D104A1F189809A809D
:101AC0008114910479F18B819C818815990508F422
:101AD00087C010E000E04B815C8170E060E0C701EE
:101AE0000E946C2E01151105E9F449815A8169851E
:101AF0007A858D819E81680F791FC501F601199540
:101B0000E980FA800D811E812F81388549855A85AB
:101B10006FEF7FEF81E090E00E94711C8C01892BB8
:101B200009F056C0C8012A960FB6F894DEBF0FBE62
:101B3000CDBFDF91CF911F910F91FF90EF90DF907C
:101B4000CF90BF90AF909F908F90089580E085CF09
:101B500030E020E0220F331FF901E257FC4F0190E3
:101B6000F081E02D309709F497CF892F90E01995F7
:101B7000009709F491CFDC011296ED91FC91139737
:101B80001496CD90DC90309709F08CCF1FC021E0E7
:101B900030E0E0CF22E030E0DDCF23E030E0DACF0C
:101BA000D12CC12CE1E2FCE09F3F09F07BCFE0911A
:101BB0008E03F0918F03309721F4C90104EF1FEFDA
:101BC0000CC08FEF90E019950097A9F604EF1FEF76
:101BD00089859A85009709F4A5CF0E94BF1EA2CFE0
:101BE0000E94A01D8C0189859A850E94BF1E70E00D
:101BF00060E0C4010E94391D98878F830E946E1C8B
:101C00009E838D836F8178856115710559F0C801B8
:101C10000E941E209A87898706EF1FEF892B09F003
:101C200058CF59CF08EF1FEF56CF08EF1FEFD0CF97
:101C300020919C03222319F020E00C94D81687EF02
:101C40009FEF089580919A0390919B0308950E94BD
:101C50005E1B0E94B81AF5D0EEE8F3E088E0DF01E1
:101C60001D928A95E9F710929C0390E080E0089518
:101C70000C94151921E040E050E0BA010C94D816FC
:101C800086E090E0FA019183808390E080E00895FF
:101C900047E050E06BE472E049CEDF92EF92FF92B2
:101CA0000F931F93CF93DF938A01EC01C60FD71FC9
:101CB000E090A003F090A103D9800E94881DD8165F
:101CC000190678F082E090E0F801918380838EEF2E
:101CD0009FEFDF91CF911F910F91FF90EF90DF90D9
:101CE0000895EF2841F482E090E0F8019183808329
:101CF00084EF9FEFEECF898180939F0390E0019660
:101D0000F8019183808390E080E0E3CFCF93DF936D
:101D1000EA010E94C619882321F00E94951D0E94A5
:101D2000C71982E090E0998388838BEF9FEFDF9162
:101D3000CF910895CF93DF93EB0186E0FB011192E1
:101D40008A95E9F78FEF8883D8DD8983E7DD8A8379
:101D5000E8DD9D838C83DF91CF910895CF93DF934E
:101D6000EA010E94C919811109C082E090E09983BB
:101D7000888385EF9FEFDF91CF91089590E080E019
:101D8000B7DD81E090E09983888390E080E0F3CF35
:101D90000F931F93CF93DF93EA018C01060F171F58
:101DA0000E94C91981110BC082E090E09983888359
:101DB00085EF9FEFDF91CF911F910F910895F8016B
:101DC0008181823038F082E090E0998388838EEFC1
:101DD0009FEFF0CF81E090E08BDD88E090E0998389
:101DE000888390E080E0E6CFCF93DF930097D1F433
:101DF000EB01FB01329686E0DF011D928A95E9F73F
:101E00008FEF888385E089831A820E94881D8B83E7
:101E10000E94871D9D838C8381E08E838F83DF9159
:101E2000CF910895DF91CF911ACD88E49EE09093F1
:101E30009E0380939D03089580919D0390919E033E
:101E4000089510929E0310929D0308958091A0031F
:101E50009091A1030895411105C061157105810597
:101E6000910561F06093A0037093A1038093A20396
:101E70009093A3034093A40381E0089580E0089524
:101E8000FF920F931F93CF93DF938A01EC01C60F4C
:101E9000D71FF9800E94881DF816190668F082E0A5
:101EA00090E0F801918380838EEF9FEFDF91CF91D7
:101EB0001F910F91FF9008956C817D818E819F818C
:101EC0004B81C9DF811108C082E090E0F801918365
:101ED000808384EF9FEFEACF898180939F0390E016
:101EE0000196F8019183808390E080E0DFCFCF936B
:101EF000DF93EA01FC01E60FF71F6481758186819B
:101F000097814381A8DF811109C082E090E0998325
:101F1000888384EF9FEFDF91CF91089581E090E077
:101F20009983888390E080E0F6CFE0EAF3E0408197
:101F3000518162817381480F511D611D711D408364
:101F40005183628373830895CF93C0919F034C2F75
:101F500050E06091A0037091A10301960E94632E4E
:101F60008C2FE3DF10929F03CF910895009799F48F
:101F70008091A0039091A1032FEFFB012083892B77
:101F800059F020919F0330E02F5F3F4F2417350712
:101F900019F4CB01D9CF63CC0895009799F48091BF
:101FA000A0039091A1032FEFFB012083892B59F00F
:101FB00020919F0330E02F5F3F4F2417350719F41E
:101FC000CB01C2CF4CCC089523E1AC01249FC001CA
:101FD000259F900D1124E091A903F091AA03E80F29
:101FE000F91F238134812250310981E022303105EB
:101FF00008F080E008950F931F93CF93DF93009133
:10200000AB031091AC03D0E0C0E080E00C171D07DB
:1020100049F491E0811190E0892FDF91CF911F91D8
:102020000F9108958111F5CFCE01CEDF2196EECF2D
:10203000A091A903B091AA03109729F12091AB03B5
:102040003091AC0382179307F0F453E1589F90014D
:10205000599F300D1124A20FB31FED91FC911197E0
:10206000309789F012968C91681768F48DE0689F1C
:10207000E00DF11D112480819181892B21F081E0F7
:102080009281491708F080E008959C0143E1429F46
:10209000C001439F900D1124E091A903F091AA0380
:1020A000E80FF91F8385823099F481E090E0658123
:1020B000768140912702509128026417750711F428
:1020C00090E080E0892B21F081E02230310508F09A
:1020D00080E00895FC01A081B1818DE0689FA00D92
:1020E000B11D112413964D915C9185859685489F6D
:1020F0009001499F300D589F300D1124C901019660
:10210000611103C0478144FD04960895EF92FF9248
:102110000F931F93CF93DF93EA01FC01E60FF71FA4
:1021200002811381E480F5804F2D6E2DC80180DF80
:1021300081110DC082E090E0998388838EEF9FEF3C
:10214000DF91CF911F910F91FF90EF900895C801FB
:102150003BDF882339F082E090E09983888388EF21
:102160009FEFEECF10932E0200932D02E0922F02EC
:10217000F092300281E090E09983888390E080E0E3
:10218000DFCFCF92DF92EF92FF920F931F93CF9307
:10219000DF937A01EC01C60FD71FC0902D02D090BB
:1021A0002E0200912F0210913002412F602FC601A4
:1021B0003FDF811110C082E090E0F70191838083BE
:1021C0008AEF9FEFDF91CF911F910F91FF90EF90DA
:1021D000DF90CF900895C601F7DE882341F082E0BA
:1021E00090E0F7019183808388EF9FEFEBCF4C81E4
:1021F0005D816E817F819A8189818F3F41F082E08C
:1022000090E0F701918380838EEF9FEFDBCFE3E1D6
:10221000EC9D9001ED9D300D1124E091A903F0910A
:10222000AA03E20FF31F0190F081E02D2DE0029F41
:10223000E00DF11D11240190F081E02D27E0129FA7
:10224000E00DF11D1124808391838B818283438370
:102250005483658376831F5F1093300281E090E0A2
:10226000F7019183808390E080E0ACCFEF92FF9202
:102270000F931F93CF93DF937A018C01060F171FE3
:10228000C091A903D091AA03209781F021E030E00A
:10229000F801828193814091AB035091AC03841784
:1022A000950710F030E020E0232B71F482E090E0FD
:1022B000F701918380838EEF9FEFDF91CF911F9184
:1022C0000F91FF90EF90089543E1489F9001499F3F
:1022D000300D1124C20FD31F77DE882341F082E036
:1022E00090E0F7019183808388EF9FEFE6CFF801BC
:1022F0002481358120383105C8F687818111D6CFF8
:102300004181842F90E08F7E009741F082E090E041
:10231000F7019183808386EF9FEFCFCF4F833E837A
:102320002D83268128871986223010F421E0288702
:1023300021E030E0F70131832083BFCF88E090E0D7
:10234000FA019183808390E080E00895FB018FEF94
:10235000808381E181838FEF9FEF9383828380E885
:1023600090E095838483168217820895FB018FEF96
:10237000808391E0918382839383848384E3858344
:1023800081E090E0978386830895BF92CF92DF9299
:10239000EF92FF920F931F93CF93DF93DA01FC012B
:1023A000E60FF71F8181813081F082E090E08D930C
:1023B0009C938FEF9FEFDF91CF911F910F91FF9033
:1023C000EF90DF90CF90BF900895C281D381B48009
:1023D000858106811781E090A903F090AA03E1149A
:1023E000F10439F482E090E08D939C938CEF9FEFA1
:1023F000E2CF2091AB033091AC03C217D30738F082
:1024000082E090E08D939C938EEF9FEFD4CFC2300B
:10241000D10538F082E090E08D939C9386EF9FEF9A
:10242000CACF9B2D9D7FB1F78130A1F7B11005C0B8
:102430000130110531F080E004C081E00230110567
:10244000D0F3882339F36D01CE01BEDD882341F03E
:1024500082E090E0F6019183808388EF9FEFABCF1D
:1024600083E18C9FF0018D9FF00D1124EE0DFF1D77
:10247000B38681E0848716870587108A178681E0F6
:1024800090E0F6019183808390E080E094CF4CE06F
:1024900050E065E772E04ACA8F929F92BF92CF9256
:1024A000DF92EF92FF920F931F93CF93DF93EA0196
:1024B000FC01E60FF71F828193810481B580E091D2
:1024C000A903F091AA03309791F482E090E09983F8
:1024D00088838CEF9FEFDF91CF911F910F91FF9039
:1024E000EF90DF90CF90BF909F908F9008952091B4
:1024F000AB033091AC038217930738F082E090E091
:10250000998388838EEF9FEFE6CF23E1289F6001B8
:10251000299FD00C1124EC0DFD1DE080F180E11409
:10252000F10499F28281081748F78DE0089F800135
:102530001124E00EF11EF70180819181892B29F68B
:10254000BB20E1F2F7E0BF9E40011124C4010E94CC
:10255000861EF70191838083E091A903F091AA037D
:10256000EC0DFD1D0190F081E02DE00FF11F808149
:102570009181009739F482E090E0998388838DEF10
:102580009FEFA9CFA40170E060E00E946C2E8091C3
:10259000A9039091AA03C80ED91EF60180819181EA
:1025A000080F191FF801B28281E090E099838883B7
:1025B00090E080E090CFAF92BF92CF92DF92FF92F7
:1025C0000F931F93CF93DF93EA01FC01E60FF71FF0
:1025D00082819381F4800091A9031091AA030115CF
:1025E000110581F482E090E0998388838CEF9FEF5E
:1025F000DF91CF911F910F91FF90DF90CF90BF900F
:10260000AF9008952091AB033091AC0382179307EC
:1026100038F082E090E0998388838EEF9FEFE8CFD7
:102620002FEF2F0D2C3FA8F723E1289F6001299F52
:10263000D00C11240C0D1D1DF80180819181892B76
:1026400089F6FDE0FF9E50011124C5010E94861EFF
:10265000F80191838083E091A903F091AA03EC0D26
:10266000FD1D80819181009739F482E090E099838B
:1026700088838DEF9FEFBCCFA50170E060E00E94E2
:102680006C2EE091A903F091AA03EC0DFD1DF282DE
:1026900081E090E09983888390E080E0A9CFCF9299
:1026A000DF92EF92FF920F931F93CF93DF93860FEA
:1026B000971FFC01028113818091A9039091AA03C5
:1026C000892B81F082E090E0FA01918380838CEF86
:1026D0009FEFDF91CF911F910F91FF90EF90DF90CF
:1026E000CF900895C801B0E0A0E00197A109B10919
:1026F0008F3F9F4FA105B10540F082E090E0FA01C5
:10270000918380838EEF9FEFE4CF7A0183E1809FF6
:102710006001819FD00C1124C6010E94861EEC012D
:10272000009741F482E090E0F701918380838DEF80
:102730009FEFCFCFA60170E060E00E946C2ED09397
:10274000AA03C093A9031093AC030093AB0390E0DA
:1027500080E02FEF3FEF41E061E070E080179107EC
:1027600041F481E090E0F7019183808390E080E084
:10277000B0CF3A8B298B1B864C877E876D87188A52
:102780001F8601966396EACFEF92FF921F93CF9335
:10279000DF93EC0110E0F12CE12C6A811617B0F008
:1027A00083E0689FB0011124AE014F5E5F4FC70107
:1027B0000E94EB1E009721F02FEF3FEF3A8B298B01
:1027C000DF91CF911F91FF90EF900895612FCE017F
:1027D00081DC61E070E00E94391DE816F90608F41A
:1027E0007C011F5FDACFF8942091A7033091A803F2
:1027F00081E02115310509F080E0232B09F0789460
:1028000008952F923F924F925F926F927F928F9294
:102810009F92AF92BF92CF92DF92EF92FF920F936F
:102820001F93CF93DF933C01660E771EF3018281E5
:1028300093814C01B12CA12CC091A903D091AA0382
:10284000209769F021E030E06091AB037091AC0318
:102850008617970710F030E020E0232BD1F482E0B8
:1028600090E0FA01918380838EEF9FEFDF91CF910B
:102870001F910F91FF90EF90DF90CF90BF90AF909E
:102880009F908F907F906F905F904F903F902F9090
:1028900008958092310290923202A0923302B09257
:1028A000340263E1689F9001699F300D1124C20FCB
:1028B000D31FF3018181833040F082E090E0FA0180
:1028C0009183808386EF9FEFD1CF2A012B813C81BA
:1028D000232BF1F4288139819F8191FF2EC0232B76
:1028E00009F46FC02091AE039A81422F490F5527FA
:1028F000551FBA0141E050E06138710514F050E015
:1029000040E0452B09F45DC02A87920F9093AE03F7
:102910008150823008F481C066DF882309F4DAC070
:10292000F3018181813009F48DC008F47BC08230CD
:1029300009F4C8C090E080E0ADC0232B09F441C089
:102940002091AD039A81E22FE90FFF27FF1F41E09D
:1029500050E0ED3FF10514F050E040E0452B89F1E7
:102960002A87920F9093AD03D3CFA081B181A20F9C
:10297000B31F11966C91060F111D0196295F3F4FF1
:102980008417950794F38D859E85089F1001099FF4
:10299000300C189F300C1124C114D104D1F48F8154
:1029A00084FF17C00E94871DF5E02F0E311C21E027
:1029B0008215930508F420E0A701435F5F4F2111C2
:1029C0000EC082E090E0F2019183808387EF9FEF59
:1029D0004DCF0E94871D2FEF221A320AE8CF88813F
:1029E0009981E80EF91EF70114830383FFEFCF1AD4
:1029F000DF0A7A018A818C151D0409F00CF48CCF52
:102A0000E881F981EE0DFF1D428150E030E020E0C9
:102A100010E000E090E080E0B3CFF12CE12CD12C6D
:102A2000C12CE8CF81E090E09C838B83E4DA88239B
:102A300009F480CF81E090E00E94780C80E40E944D
:102A4000860C78CF89899A89019661F083E090E0BD
:102A50009C838B8382E090E00E94780C80E40E944B
:102A6000800C68CF8D819E812091270230912802B1
:102A700082179307D1F460912B0270912C02AE0162
:102A80004F5E5F4F8091290290912A020E94DD1FC4
:102A90000097E1F2789422E030E0F2013183208364
:102AA000892BA9F08DEF9FEFE1CE22E082169104F1
:102AB000A104B1045CF6029748F6CE0165DE188ADF
:102AC0001F86E6CF82E090E09C838B8333CF90E03B
:102AD00080E0CCCE82E090E0F2019183808385EFAC
:102AE0009FEFC4CE8F929F92AF92BF92CF92DF9210
:102AF000EF92FF920F931F93CF93DF93EA018C0124
:102B0000060F171FF8018181833098F082E090E072
:102B10009983888386EF9FEFDF91CF911F910F916B
:102B2000FF90EF90DF90CF90BF90AF909F908F90ED
:102B300008958091A9039091AA03892B61F081E007
:102B400090E02091AB033091AC03232B11F490E083
:102B500080E0892B39F482E090E0998388838EEFBE
:102B60009FEFDACF40DE882309F4E1C0F8018181CC
:102B7000813009F497C0E8F0823099F42091AB03DA
:102B80003091AC03E091A903F091AA0390E080E0BA
:102B900041E050E02817390709F0BFC02CDA811155
:102BA00017C0789481E090E09983888390E080E07A
:102BB000B3CF2091AB033091AC03E091A903F09126
:102BC000AA0390E080E041E050E02817390741F483
:102BD00081E090E00E94780C80E40E94860CE1CFB6
:102BE00063817481672B11F054834383019673963C
:102BF000ECCFE091A903F091AA03E00FF11F23812C
:102C0000348122303105D9F4218932892F3F3F4F59
:102C1000B1F4258136814091270250912802241772
:102C2000350761F5AF014F5E5F4F60912B027091E8
:102C30002C028091290290912A020E94DD1FEFEF61
:102C4000CE1ADE0AEE0AFE0A0D5E1F4F4091AB035C
:102C50005091AC0370E060E0C416D506E606F706B6
:102C60004CF5009731F27894892B09F49BCF82E0E0
:102C700090E0998388838DEF9FEF4ECF42E0C4169A
:102C8000D104E104F104DCF622303105C0F6CF01B5
:102C90007BDDE091A903F091AA03E00FF11F108AF8
:102CA0001786CDCF10E000E090E080E0C12CD12C61
:102CB0007601CCCF0097B9F610E000E0812C912C82
:102CC000540183E0E82EF12C1AC0E091A903F091A1
:102CD000AA03E00FF11F83819481029749F4F482E3
:102CE000E38282E090E00E94780C80E40E94800CF5
:102CF000FFEF8F1A9F0AAF0ABF0A0D5E1F4F809128
:102D0000AB039091AC03B0E0A0E088169906AA0648
:102D1000BB06DCF290E080E0A6CF63817481623074
:102D2000710511F4548343830196739633CF82E087
:102D300090E09983888385EF9FEFEECE0097B9F4FA
:102D40008FEFFB018083209131023091320243E109
:102D5000429FC001439F900D1124E091A903F0917F
:102D6000AA03E80FF91F8285FB01818308950C9463
:102D70002F0C88E090E0FA019183808390E080E05E
:102D800008951092A8031092A703E9EAF3E086E001
:102D9000DF011D928A95E9F787E492E19093A603FB
:102DA0008093A50308958091A5039091A6030895AB
:102DB0002F923F924F925F926F927F928F929F924B
:102DC000AF92BF92CF92DF92EF92FF920F931F9339
:102DD000CF93DF93CDB7DEB72F970FB6F894DEBF52
:102DE0000FBECDBFF894E091A703F091A8033196F0
:102DF000F093A803E093A70378944090A903509020
:102E0000AA034114510409F40DC2E091AB03F091FF
:102E1000AC03EF2B09F406C22D8749875A876B87CD
:102E20007C8798878F831201B12CA12C10E000E0E1
:102E30008091AB039091AC03A816B90618F4011564
:102E4000110529F1F8948091A7039091A8030197A7
:102E50009093A8038093A7037894C8012F960FB688
:102E6000F894DEBF0FBECDBFDF91CF911F910F91C0
:102E7000FF90EF90DF90CF90BF90AF909F908F909A
:102E80007F906F905F904F903F902F9008957101C9
:102E9000E418F508D10117968C91179781FD54C05D
:102EA00013968D919C911497039709F04DC0159638
:102EB0008D919C91EF81F8858E179F0709F044C092
:102EC000B50190E080E081D48A832091A9033091FC
:102ED000AA033D832C833D85332309F44CC04C81E8
:102EE0005D81452B09F49BC18091AB039091AC03AC
:102EF000A816B90608F093C1C501C7D88823E9F020
:102F00006C817D816E0D7F1D7D836C83DB011F963F
:102F10008D919C91892B89F0D12CC12CF12CE12C25
:102F2000AC81BD8112968C9112978E151F0409F009
:102F300094F450961C921E921F972A81222321F00E
:102F4000B50190E080E043D43FEFA31AB30A43E118
:102F5000240E311C6DCFAC81BD81ED91FC91EC0D47
:102F6000FD1D858196810BD7BFEFEB1AFB0AEDE0C3
:102F7000CE0ED11CD5CFEC81FD81309709F44FC125
:102F80008091AB039091AC03A816B90608F047C135
:102F9000EE0DFF1DFF87EE87C50177D88B83882351
:102FA00039F1AE85BF851F968D919C915097019602
:102FB00021E01D964D915C918417950709F020E062
:102FC0002E831982712C10E000E0AE85BF85129629
:102FD0008C91781608F45DC0EE85FF858785908911
:102FE0000196658576850E940C2E908B8787A5CFEC
:102FF000B1E0BE83E6CF992493946BC087D6F601E7
:103000009683858383C0D601ED90FC90B7E06B9EDC
:10301000E00CF11C1124F7016381748180818F3FE2
:1030200061F121E030E002C0220F331F8A95E2F700
:10303000C901092E000CAA0BBB0BFB014081518179
:103040006281738184239523A623B72321E0892BF2
:103050008A2B8B2B09F420E0D4012C93D7011196F5
:103060008C91F60123853485820F932F911D880E54
:10307000991E1486138663949CC0418150E0C4015C
:103080000E94632EEBCF998206EF1FEFC6C0198214
:10309000C4C0F981F111A0CFEDE07E9E7001112432
:1030A000AE85BF85CD90DC90CE0CDF1C17D49D8300
:1030B0008C83BB81BB2309F49ECF81E0EE85FF8525
:1030C00027853089232B09F080E0982E882309F486
:1030D00059C0672D8E859F850E946A10D60118966B
:1030E0009C938E93179761E070E0C3D4EE85FF85C3
:1030F000218932892F3F320709F480CFBC01C901F1
:103100009DD7D60116969C938E931597D60115964A
:103110008D919C911697009709F4B5CFEC81FD81B4
:103120008E0F9F1F1A969C938E931997AE85BF851D
:10313000ED91FC911197EE0EFF1EF701218532856E
:10314000148613861A968C91870DD9018D93711070
:1031500016C0EE85FF85878184FF11C049855A8599
:103160006B857C85F9014183528363837483F70106
:10317000838594850496A80FB91F14861386F701DA
:10318000B287A187D60115968D919C911697892BB0
:1031900009F443C0EE85FF852581368180912702A1
:1031A000909128022817390779F019968D909C90F4
:1031B000612CD60112968C911297681608F423CFD1
:1031C0001A969C928E921997BE81BB2309F45FCF09
:1031D00061E070E0F601878190854BD4D6011796A7
:1031E000ED90FC90189715964D915C91E1E0F0E020
:1031F000BA81BB2311F0F0E0E0E00C811D819C015D
:10320000B501882799278E1B9F0B6BD38C01892BC7
:1032100021F0F60185819681B2D57394D6CE0FEF59
:103220001FEF8BCE10E000E00DCE2F923F924F9219
:103230005F926F927F928F929F92AF92BF92CF9246
:10324000DF92EF92FF920F931F93CF93DF938091C2
:10325000A9039091AA0310E000E0892BA9F0C3DA3A
:103260000AEF1FEF882381F02090AB033090AC036E
:10327000C091A903D091AA03D12CC12C10E000E089
:103280002C143D04A9F47894C801DF91CF911F91CB
:103290000F91FF90EF90DF90CF90BF90AF909F90F5
:1032A0008F907F906F905F904F903F902F900895F8
:1032B000C6010E944510882309F18B819C810397E8
:1032C000E9F48F859889892BC9F0B60190E080E0F8
:1032D0007CD221E030E0882311F030E020E044246B
:1032E0005524421A530AB12CA12C912C812C8A818D
:1032F0008815190409F038F4188A1F864FEFC41A8C
:10330000D40A6396BDCFE881F981EA0DFB1D858162
:103310009681892BA1F161E070E087819085A9D326
:103320003C01DCD28C01E881F981EA0DFB1D81852D
:10333000928525813681200F311FAC01421B530B32
:103340009A0147815085421B530B70E060E00E9458
:103350006C2EE881F981EA0DFB1DE780F084458140
:1033600056819301B601C201BCD28C01892B39F080
:10337000E881F981EA0DFB1D8581968100D55FEF1B
:10338000851A950A8DE0A80EB11CB1CF2CCA78948D
:1033900008952F923F924F925F926F927F929F92E9
:1033A000AF92BF92CF92DF92EF92FF920F931F9353
:1033B000CF93DF9300D000D0CDB7DEB70091A90343
:1033C0001091AA03992493940115110509F43EC0A4
:1033D000A090AB03B090AC0306DA982E8823B1F12D
:1033E0001092AA031092A9031092AC031092AB039F
:1033F0001092AD031092AE038FEF9FEFDC0180932C
:10340000310290933202A0933302B0933402789445
:1034100080D31E830D83C12CD12C7601C501B0E071
:10342000A0E089839A83AB83BC8322242A94322C24
:1034300089819A81AB81BC81C816D906EA06FB0650
:10344000F4F0C8019CD480E40E94860C892D269655
:103450000FB6F894DEBF0FBECDBFDF91CF911F91A5
:103460000F91FF90EF90DF90CF90BF90AF909F9023
:103470007F906F905F904F903F902F900895AD8117
:10348000BE8115968D919C911697209127023091BF
:10349000280282179307D1F451968D919C91BCD547
:1034A000ED81FE8180819181B12CA12C412C512C88
:1034B0003201892B91F5BFEFCB1ADB0AEB0AFB0A2D
:1034C000ED81FE817396FE83ED83B2CFB2E0CB1621
:1034D000D104E104F10424F7029710F7ED81FE8195
:1034E000818992898F3F980709F011D5AD81BE81FE
:1034F00052963C922E925197D3CF8A0D9B1DDC01A0
:103500008D919C91009709F03AD4BFEF4B1A5B0A5A
:103510006B0A7B0AEDE0AE0EB11CAD81BE818D91D0
:103520009C91119712964C9150E070E060E0441627
:103530005506660677060CF322D4BDCFCF93DF93F2
:10354000EA0127DF811109C082E090E09983888336
:1035500085EF9FEFDF91CF91089581E090E00E9489
:10356000780C81E090E09983888390E080E0F2CF4E
:1035700010DF1092A6031092A503089542E050E0D8
:103580006DEB72E00C94960CFF920F931F93CF9308
:10359000DF938A01EC01C60FD71FF980B9D20897D3
:1035A000F816190671F068F082E090E0F801918356
:1035B00080838EEF9FEFDF91CF911F910F91FF904E
:1035C00008956C817D818E819F814B810E942B0F9C
:1035D000811108C082E090E0F8019183808384EF3C
:1035E0009FEFE9CFF9800E94260F4F2D50E0BE01DA
:1035F000685F7F4F0E94632E89810E94950F81E052
:1036000090E0F8019183808390E080E0D4CFDF9256
:10361000EF92FF920F931F93CF93DF938A01EC01F8
:10362000C60FD71F0E94260F7C01D98071D2DD20E2
:1036300059F0029721E030E0D816190619F010F081
:1036400030E020E0232B79F482E090E0F8019183D0
:1036500080838EEF9FEFDF91CF911F910F91FF90AD
:10366000EF90DF900895EF2841F482E090E0F801B8
:103670009183808384EF9FEFEECFF9800E94260F25
:103680004F2D50E0BE016E5F7F4F0E94632E8981F7
:103690000E94950F81E090E0F8019183808390E093
:1036A00080E0D9CF8EEB9AE19093B0038093AF0383
:1036B00008958091AF039091B00308950895FC019F
:1036C00011821082938382830895DB011D921C92E4
:1036D000DC011296ED91FC91139771836083139630
:1036E0007C936E9312970895FC0180819181DB0198
:1036F0008D939C93A081B181109741F08D919C9105
:1037000091838083892B11F4F383E2830895FC0174
:1037100080819181DB018D939C93892B11F47383BC
:103720006283718360830895FC0111821082938308
:1037300082830895CF93DF931F921F92CDB7DEB798
:103740001A821982F894BE016F5F7F4F86EB93E077
:10375000CBDF89819A81009709F011D389819A8101
:10376000892B89F7BE016F5F7F4F8AEB93E0BCDF47
:1037700089819A81009709F002D389819A81892BE6
:1037800089F778940F900F90DF91CF910895CF93A0
:10379000DF931F921F92CDB7DEB71A821982F89479
:1037A000BE016F5F7F4F82EB93E09EDF89819A813C
:1037B000009709F0E4D289819A81892B89F778945E
:1037C0000F900F90DF91CF91089581E0089590E0E0
:1037D00080E00895EF92FF920F931F93CF93DF93B2
:1037E0001F921F92CDB7DEB71A8219828091B10362
:1037F00007EF1FEF8823A1F1F894BE016F5F7F4FA1
:103800008AEB93E071DF789489819A81EE24E394C6
:10381000F12C892B51F4F894BE016F5F7F4F86EB3A
:1038200093E062DF7894F12CE12C89819A810EEF8C
:103830001FEF0097A9F0FC014281538164E070E022
:1038400041D68C01892B61F0F89469817A81C70196
:10385000880F991F880F991F8A549C4F58DF7894BE
:10386000C8010F900F90DF91CF911F910F91FF90A2
:10387000EF9008950F931F93CF93DF9300D01F9283
:10388000CDB7DEB71C821B821A8219828091B103E8
:1038900007EF1FEF8823C1F0AE014D5F5F4F64E07B
:1038A00070E0CE01019681D68C01892B69F4E98103
:1038B000FA818B819C8193838283F89469817A81D8
:1038C00082EB93E002DF7894C8010F900F900F9085
:1038D0000F90DF91CF911F910F91089586D7049695
:1038E00008958F929F92AF92BF92CF92DF92EF9204
:1038F000FF920F931F93CF93DF931F921F92CDB729
:10390000DEB71A821982BC016F5F7F4F6330710589
:1039100098F0AA24AA94BA2CC5010F900F90DF91B9
:10392000CF911F910F91FF90EF90DF90CF90BF90BC
:10393000AF909F908F9008954115510551F3480124
:1039400059018A016C01CADF8815990511F7E11444
:10395000F104F9F28E0D9F1DA816B906D0F28091E0
:10396000B1038823F1F0F894B5016450710997010F
:10397000AE014F5F5F4FC8010496ACD65C01892B46
:1039800071F489819A81F80193838283C601880F3B
:10399000991F880F991FB8018A549C4F96DE78941E
:1039A000BBCF87EFA82EBB24BA94B6CFAF92BF92FD
:1039B000CF92DF92EF92FF920F931F93CF93DF93FB
:1039C0001F921F92CDB7DEB71A821982892B09F098
:1039D00047C06115710509F443C04115510509F44B
:1039E0003FC02115310509F43BC001151105C1F196
:1039F0008091B1038823B9F179016A015B01F894E0
:103A0000BE016F5F7F4F82EB93E06EDE7894898119
:103A10009A81009759F1DC0112966D917C91A80171
:103A2000049671D68C01E981FA81D501ED93FC935E
:103A3000828193810496F601918380834FDFD701C1
:103A40008D939C93C8010F900F90DF91CF911F91A0
:103A50000F91FF90EF90DF90CF90BF90AF900895BF
:103A60000FEF1FEFEFCF07EF1FEFECCF0EEF1FEFC2
:103A7000E9CFCF93DF93EC01672B71F4BFD68C179E
:103A80009D0760F0B2D62496C80FD91FB1D68C0F0F
:103A90009D1FDF91CF910895AED6F1CF90E080E0E9
:103AA000F8CF0F931F93CF93DF932091B103211190
:103AB0002BC08B01EC0186EB93E001DE8AEB93E0F7
:103AC000FEDD82EB93E0FBDD97D00097C1F496D644
:103AD00070E060E0CEDF45E352E062E070E07BD171
:103AE000009769F4809135029091360299D6B80119
:103AF000CE01CED4009719F421E02093B103DF91D9
:103B0000CF911F910F91089584EF9FEFF8CF73C667
:103B100075C6CF93DF9375D6EC01892B11F40ADEBD
:103B200036DECE01DF91CF910895CF93DF9369D632
:103B3000EC01892B09F4FEDDCE01DF91CF910895D0
:103B400080913502909136020895CF93DF93809152
:103B5000B103D0E0C0E08823D1F067D6EC01892B17
:103B6000B1F4E8DD14DE8091350290913602CFD1B8
:103B7000B5D2EC01892B59F486EB93E0D5DD8AEBC5
:103B800093E0D2DD82EB93E0CFDD1092B103CE0162
:103B9000DF91CF910895EF92FF920F931F93CF93F0
:103BA000DF93EC017A018B010F5F1F4F0E9DA00187
:103BB0000F9D500D1E9D500D112470E060E00E947D
:103BC0006C2E90E080E0F0E0E0E02FEFE816F906E0
:103BD00039F4DF91CF911F910F91FF90EF900895ED
:103BE0001A8219822883309711F0D283C1830196FB
:103BF000FE01C00FD11FEACFAF92BF92CF92DF92EA
:103C0000EF92FF920F931F93CF93DF9382E395E0A0
:103C10007C012CEFE22243E050E067E372E08DE3A9
:103C200092E0E3D387E3C82E82E0D82E9DE3A92E4D
:103C300092E0B92ECBE1D6E08E01D6014D915D9197
:103C40006D01F501619171915F01D8011196FC92AE
:103C5000EE9215965C934E93149713965C934E9345
:103C6000129717967C936E9316979B012F5F3F4F89
:103C7000249FC001259F900D349F900D112419960B
:103C80009C938E931897E114F10411F0C70183DF20
:103C9000F80180859185E80EF91E065F1F4FFDE350
:103CA000CF16F2E0DF0649F6E0ECF3E08FE691E0B4
:103CB000DF019C011D9221503040E1F71092BF03BB
:103CC0001092BE031F8E1E8E1BA21AA219A218A24A
:103CD0001DA21CA21FA21EA22A9636E0C933D3073A
:103CE00089F7109218061092170610921A06109271
:103CF000190690E080E0DF91CF911F910F91FF9026
:103D0000EF90DF90CF90BF90AF9008950097F1F0C3
:103D1000F894ADE3B2E0EBE1F6E030E020E04D9165
:103D20005D9148175907A8F042815381411551050B
:103D300081F08AE0829FF001839FF00D1124E55EFF
:103D4000F94F80819181009759F4789490E080E058
:103D500008952F5F3F4F3A962330310501F7F5CF95
:103D6000DC0111966D917C91718360834150510902
:103D700053834283FC012193CF01789408950097E7
:103D800049F1DC018E91863041F4E0911906F09101
:103D90001A063097F9F0CD0119948630D8F4282FFF
:103DA00030E0F8948FEF8C938AE0829FF001839F3C
:103DB000F00D1124E55EF94F8081918112969C935C
:103DC0008E931197B183A08382819381019693830F
:103DD000828378940895CF92DF92EF92FF920F93AF
:103DE0001F93CF93DF939C0183EC93E08C7F41156D
:103DF000510509F489C02115310509F485C0611503
:103E0000710509F481C08A01AB01B9016D5F7F4F73
:103E10006C7F9B012F5F3F4F249F7001259FF00C0B
:103E2000349FF00C1124F894EBE1F6E023E030E04D
:103E3000E901A6A1B7A1C68CD78CCD2809F058C03E
:103E4000109709F03EC0C090BE03D090BF032CE68F
:103E500031E02C193D092E153F0530F47894CFEF51
:103E6000DFEF86EF9FEF21C02AE02C9FF0012D9F0E
:103E7000F00D1124E55EF94F9183808355834483CF
:103E80005383428377836683F186E086009709F047
:103E900082DEEC0CFD1CF092BF03E092BE0378942E
:103EA000CF3FDC07F1F290E080E0F801D183C083DE
:103EB000DF91CF911F910F91FF90EF90DF90CF9006
:103EC0000895AE15BF05A0F02AE02C9FF0012D9FAC
:103ED000F00D1124E55EF94F91838083558344836F
:103EE00053834283778366830097C9F254DED7CF2A
:103EF0008A0F9B1F2F5F3F4F3A962630310509F0FE
:103F000097CFCFEFDFEFCBCF8FEF9FEFD1CF9C01DC
:103F10000397039708F04EC0F89485E09AE0482F85
:103F200050E0241735079CF191E08AE0829FF00170
:103F3000839FF00D1124E55EF94F118210821582E6
:103F4000148213821282178216829923E1F08091E3
:103F5000BE039091BF03EBE1F6E0268D378D232B56
:103F600049F426A137A12115310521F0821B930BBD
:103F700017A216A23A9626E0E933F20771F790935A
:103F8000BF038093BE03789490E080E00895949FEF
:103F9000F001959FF00D1124E55EF94F40815181AC
:103FA000452B31F440855185452B11F48150B7CF15
:103FB00090E0BBCF8FEF9FEF08954115510549F178
:103FC000009739F16115710521F1F89420911706D8
:103FD00030911806232BB9F42091190630911A0656
:103FE000232B89F4909318068093170670931A0672
:103FF00060931906789426E030E090E080E0FA01C2
:1040000031832083089578942FEF3FEF86EF9FEF61
:10401000F6CF8FEF9FEF0895069769F4F89410920A
:1040200018061092170610921A0610921906789424
:1040300090E080E008958FEF9FEF0895611571057E
:1040400019F4F0E0E0E011C08630910581F4E091D0
:104050001706F09118063097A1F3CB010196199538
:10406000009779F3FC0186E08193CF0108959C01CC
:10407000235031092330310520F72AE0289FD00151
:10408000299FB00D1124A55EB94F2D913C91119738
:10409000232BB9F216962D913C91179726173707C7
:1040A00080F2F89412962D913C91139721153105C9
:1040B00029F0ED91FC911197309711F47894C1CFCC
:1040C0004181528111965C934E9321503109139690
:1040D0003C932E93129781937894C7CFEFE2F5E04B
:1040E00088EEDF011D928A95E9F7E0ECF3E08FE6B8
:1040F00091E0DF019C011D9221503040E1F71092C8
:10410000BF031092BE03EBE1F6E08CE3DF011D92EA
:104110008A95E9F7E7E1F6E084E0DF011D928A95F0
:10412000E9F790E080E00895CF93DF93C0914302D8
:10413000D0914402CF3FDC0759F420D4909344023D
:104140008093430297FF09C0D0934402C093430277
:1041500084EF9FEFDF91CF91089590E080E0FACF58
:104160008230910528F48093570690E080E008950E
:104170008FEF9FEF08954F925F926F927F92AF9271
:10418000BF92CF92DF92EF92FF920F931F93CF9344
:10419000DF931F921F92CDB7DEB71A821982009764
:1041A00009F478C06115710509F474C020914302C7
:1041B0003091440207EF1FEF2F3F3F4F09F444C0F7
:1041C0006B015C01412C512C3201F12CE12C10E0EF
:1041D00000E09E012F5F3F4FA6014E195F09B50118
:1041E0006E0D7F1D809143029091440226D4892B4D
:1041F00009F04AC089819A81009741F4E114F104E1
:1042000029F420915706222309F441C0E80EF91E33
:10421000EC14FD04C8F480E8481684E858068EE1E2
:104220006806710418F560E070E0CB01ACD72AE0B5
:10423000420E511C611C711C0A3F4FEF140721F004
:10424000043F8FEF1807A1F4C8010F900F90DF9182
:10425000CF911F910F91FF90EF90DF90CF90BF9083
:10426000AF907F906F905F904F90089501EF1FEF98
:1042700081E090E0013F2FEF120711F090E080E025
:10428000892B09F4A6CFE0CF04EF1FEFDDCF0AEFB3
:104290001FEFDACF0FEF1FEFD7CF4F925F926F92E2
:1042A0007F92AF92BF92CF92DF92EF92FF920F93E5
:1042B0001F93CF93DF931F921F92CDB7DEB71A8261
:1042C0001982009709F478C06115710509F474C06A
:1042D000209143023091440207EF1FEF2F3F3F4FE1
:1042E00009F444C06B015C01412C512C3201F12CCA
:1042F000E12C10E000E09E012F5F3F4FA6014E1918
:104300005F09B5016E0D7F1D8091430290914402BB
:104310004AD3892B09F04AC089819A81009741F4D8
:10432000E114F10429F420915706222309F441C035
:10433000E80EF91EEC14FD04C8F480E4481682E48B
:1043400058068FE06806710418F560E070E0CB0154
:104350001AD72AE0420E511C611C711C0E3F4FEF10
:10436000140721F0043F8FEF1807A1F4C8010F9044
:104370000F90DF91CF911F910F91FF90EF90DF9001
:10438000CF90BF90AF907F906F905F904F900895C7
:1043900002EF1FEF81E090E0023F2FEF120711F0D4
:1043A00090E080E0892B09F4A6CFE0CF04EF1FEF67
:1043B000DDCF0EEF1FEFDACF0FEF1FEFD7CF8091DA
:1043C0004302909144028F3F980749F0CFD2892B46
:1043D00049F48FEF9FEF909344028093430290E063
:1043E00080E0089584EF9FEF0895CF92DF92EF92DF
:1043F000FF920F931F93CF93DF9321E04115510557
:1044000009F020E04150510921112CC0DC01FB01D1
:10441000D12CC12C21E022C03FEFC31AD30A7D0169
:104420000D911D91E701EA80FB80E016F106A8F4EA
:1044300020813181E280F380F182E0823383228324
:10444000ED90FC9011979D0122503109E901F9820C
:10445000E88211961C930E9320E03296C416D5067E
:10446000D8F2D2CFDF91CF911F910F91FF90EF90B3
:10447000DF90CF900895FC01680F791F90E080E0F5
:10448000E617F70709F408952191820F911DF8CFDF
:1044900020915806211113C047DE009791F4109225
:1044A0005E0610925D0610925C0610925B061092FA
:1044B0005A061092590621E020935806089584EF79
:1044C0009FEF0895AF92BF92CF92DF92EF92FF924B
:1044D0000F931F93CF93DF93009709F460C046308A
:1044E000510508F45CC020915806C7EFDFEF222386
:1044F00009F449C08C01060F171FF801C080D18054
:10450000C114D10409F44EC096012A5F3F4F4217EF
:10451000530708F447C07C0180915D0690915E06C8
:1045200093838283B6016C5F7F4F5801A60EB71E3E
:10453000C801A1DFF5019183808364E070E0C801C8
:104540001ADEEC01892BF9F481E090E009DEB60176
:10455000C801049610DEEC01892B91F462E070E052
:10456000C50109DEEC01892B59F4C70108DC8091F3
:104570005D0690915E06019690935E0680935D06BF
:1045800090E080E0EDDDCE01DF91CF911F910F91A2
:10459000FF90EF90DF90CF90BF90AF900895CFEF56
:1045A000DFEFF1CFC9EFDFEFEECF6F927F928F9207
:1045B0009F92AF92BF92CF92DF92EF92FF920F93B2
:1045C0001F93CF93DF9300D01F92CDB7DEB7009734
:1045D00009F47AC04115510509F476C020915806B6
:1045E00007EF1FEF222309F44DC03A017B015C0164
:1045F00064E070E0CE01019650DE8C01892B09F059
:1046000041C009811A810115110509F45AC04801F8
:1046100086E0880E911CB701680D791D80914502D6
:10462000909146020BDD6C01009709F450C0A70180
:1046300070E060E00E946C2E89819A81AB81BC8120
:10464000EC0CFD1CF70181939193A193B1937F0131
:1046500081E090E085DDB801C7011FDE892B31F5CF
:1046600062E070E0C701800F911F17DE8C01892B7B
:10467000E9F490E080E074DDF501D182C082F301BD
:1046800091828082C8010F900F900F900F90DF9160
:10469000CF911F910F91FF90EF90DF90CF90BF903F
:1046A000AF909F908F907F906F90089590E080E002
:1046B00057DDF50111821082F30111821082C601CB
:1046C0005EDB09EF1FEFDECF0FEF1FEFDBCF06EF53
:1046D0001FEFD8CF0097A1F04115510589F02115A2
:1046E000310571F0F90136966E177F0748F0DC014D
:1046F0002D933C93DA01ED93FC9390E080E00895D4
:104700008FEF9FEF0895AF92BF92CF92DF92EF921B
:10471000FF920F931F93CF93DF93009709F45FC02D
:104720004115510509F45BC06530710508F457C0A7
:1047300020915806C7EFDFEF222391F1DC01CD90E5
:10474000DC9011971296ED91FC9196012A5F3F4FF4
:10475000C9EFDFEF2617370719F5C0915906D09139
:104760005A06209749F521E030E030935A0620930D
:1047700059067A018C01F0935C06E0935B065601C2
:10478000B4E0AB0EB11CB50176DE0A0D1B1DF801BD
:10479000208131818217930729F5D701CD92DC92D0
:1047A000CE01DF91CF911F910F91FF90EF90DF909D
:1047B000CF90BF90AF90089520915B0630915C063A
:1047C0002F5F3F4FCCEFDFEFE217F30790F2CBEF15
:1047D000DFEF2E173F0768F2D0E0C0E0CACFCFEF7F
:1047E000DFEFDECFC3EFDFEFDBCF84E090E00895B3
:1047F00082E090E008958CEF9FEF089580E290E0D2
:10480000089510925E0610925D0610925C0610925A
:104810005B0610925A061092590690E080E00895C7
:10482000909346028093450208958091580688230C
:1048300091F0C5DD009789F410925E0610925D0636
:1048400010925C0610925B0610925A06109259065E
:1048500010925806089590E080E00895009749F07E
:104860006115710531F0FC0111821082FB0111828A
:1048700010820895F3CF26E030E040E855E260E092
:1048800070E090E080E000C08130910569F01CF498
:10489000892B39F008958230910549F0039751F042
:1048A00008958FE696E0EBC68CE097E0FCCF89EAAE
:1048B00097E0F9CF86E498E0F6CF1F920F920FB6FB
:1048C0000F9211240BB60F922F933F934F935F9348
:1048D0006F937F938F939F93AF93BF93EF93FF93C8
:1048E00086E997EE9093250180932401BAD0FF9139
:1048F000EF91BF91AF919F918F917F916F915F9158
:104900004F913F912F910F900BBE0F900FBE0F90C4
:104910001F90189586E997EE9093250180932401C6
:10492000A3E7B0E08C918E7F8C93E0E2F1E0808190
:104930008C7F8083E1E2F1E08081877E80838081CB
:104940008460808380818C7F80838C9181608C9354
:104950000895E3E7F0E0808190819E7F90838170ED
:10496000089581E0089510925F06089568EE73E05F
:1049700080E090E008D490E080E0089526E030E008
:1049800040E050E16EE070E090E080E07DDF8FE697
:1049900096E0ABD5892B21F08FE696E0C0D5F7CF16
:1049A00090E080E00895CF92DF92EF92FF920F9314
:1049B0001F93CF93DF936B017A01E901198218826B
:1049C0008FE696E092D5892B69F18601CC24C394B9
:1049D00082E0D82E80915F06811110C08FE696E0AC
:1049E0009ED50297B9F7C0925F06F801D1928F0168
:1049F00088819981019699838883ECCF88819981F8
:104A00008E159F0578F48FE696E089D58F3F98073D
:104A1000A9F3F80181938F01888199810196998387
:104A20008883ECCF90E080E0DF91CF911F910F91D0
:104A3000FF90EF90DF90CF9008950F931F93CF9347
:104A4000DF93EA0189018FE696E00E94CF2DF801FD
:104A5000D183C08390E080E0DF91CF911F910F91CF
:104A600008958F929F92AF92BF92CF92DF92EF9272
:104A7000FF92CF93DF931F921F92CDB7DEB7809145
:104A8000620691E0980F909362068823A9F021E0D6
:104A900030E03093650620936406809362060F90A1
:104AA0000F90DF91CF91FF90EF90DF90CF90BF906C
:104AB000AF909F908F900895CE0101960E94600361
:104AC0007894E0904902F0904A02F701828C938C2E
:104AD000A48CB58C0E94B703B501A40190E080E0DE
:104AE0000E94D202F89480916206815080936206FF
:104AF0008A81882389F08091610691E0980F9093D4
:104B00006106882349F021E030E030936506209368
:104B1000640680936106C3CF80916106882309F4FF
:104B2000BECF809163068111BACF81E08093630686
:104B30007894F70182A193A124E1289F6001299F25
:104B4000D00C1124F12CE12C0E949004B701A60195
:104B500081E090E00E94D202F89480916106815039
:104B6000809361068091630681508093630697CF9E
:104B70000F931F93CF93DF9310922609109225096C
:104B800038D379DEC0914902D0914A021982188245
:104B90006FEF7FEFCB010E94550370E060E090E083
:104BA00080E00E94D201009709F03AC00E942C05D3
:104BB000F8947894BE016A5D7F4F8A819B810E9440
:104BC000D501892B59F46FEF7FEFCB010E9468026A
:104BD0000E944F03882311F081E08AA7F8949ADE9F
:104BE0000E945203882311F080E008C00E944F0306
:104BF0008111FACF81E09AA59111F6CF8093250912
:104C000078940E94730C8C0178948091250981110D
:104C10000CC00E94F5050E943403F89490E080E0F7
:104C2000DF91CF911F910F9108950E9432030E944E
:104C300052038823D9F081E08093260990912609B8
:104C400081E0911180E080932509809126098111EE
:104C500080DE0130110529F40E94730C892B09F4C0
:104C600082DE0E94730C8C017CDECFCF0E944F034A
:104C70008111E1CF81E09AA59111DECF80E0DCCFF8
:104C80005058BB27AA270ED057C148D130F04DD17C
:104C900020F031F49F3F11F41EF43DC10EF4E09575
:104CA000E7FB0AC1E92F59D180F3BA1762077307EE
:104CB0008407950718F071F49EF588C10EF4E0950D
:104CC0000B2EBA2FA02D0B01B90190010C01CA01C6
:104CD000A0011124FF27591B99F0593F50F4503E71
:104CE00068F11A16F040A22F232F342F4427585F63
:104CF000F3CF469537952795A795F0405395C9F77B
:104D00007EF41F16BA0B620B730B840BBAF0915032
:104D1000A1F0FF0FBB1F661F771F881FC2F70EC0D1
:104D2000BA0F621F731F841F48F4879577956795A4
:104D3000B795F7959E3F08F0B3CF9395880F08F08D
:104D40009927EE0F97958795089529D180F09F3781
:104D500040F491110EF43BC160E070E080E89FE305
:104D6000089526F01B16611D711D811DABC0C5C0C5
:104D70007FD008F481E00895F8D088F09F5790F034
:104D8000B92F9927B751A0F0D1F0660F771F881F70
:104D9000991F1AF0BA95C9F712C0B13081F016D137
:104DA000B1E0089513C1672F782F8827B85F39F0D5
:104DB000B93FCCF3869577956795B395D9F73EF4CF
:104DC00090958095709561957F4F8F4F9F4F089577
:104DD000E89409C097FB3EF4909580957095619595
:104DE0007F4F8F4F9F4F9923A9F0F92F96E9BB274B
:104DF0009395F695879577956795B795F111F8CFC7
:104E0000FAF4BB0F11F460FF1BC06F5F7F4F8F4F31
:104E10009F4F16C0882311F096E911C0772321F027
:104E20009EE8872F762F05C0662371F096E8862FBF
:104E300070E060E02AF09A95660F771F881FDAF716
:104E4000880F9695879597F90895A9D080F09F3798
:104E500040F491110EF0BBC060E070E080E89FEB81
:104E6000089526F41B16611D711D811D2BC045C0C0
:104E7000990F0008550FAA0BE0E8FEEF161617066B
:104E8000E807F907C0F012161306E407F50798F0D3
:104E9000621B730B840B950B39F40A2661F0232BEC
:104EA000242B252B21F408950A2609F4A140A69568
:104EB0008FEF811D811D089597F99F6780E870E04D
:104EC00060E00895882371F4772321F09850872BB0
:104ED000762F07C0662311F499270DC09051862BB9
:104EE00070E060E02AF09A95660F771F881FDAF766
:104EF000880F9695879597F908959F3F31F09150C7
:104F000020F4879577956795B795880F911D9695AD
:104F1000879597F908959FEF80EC089500240A94EF
:104F20001616170618060906089500240A94121684
:104F30001306140605060895092E0394000C11F4B7
:104F4000882352F0BB0F40F4BF2B11F460FF04C064
:104F50006F5F7F4F8F4F9F4F089557FD9058440FBD
:104F6000551F59F05F3F71F04795880F97FB991FC8
:104F700061F09F3F79F08795089512161306140685
:104F8000551FF2CF4695F1DF08C016161706180612
:104F9000991FF1CF86957105610508940895E5DFA5
:104FA000A0F0BEE7B91788F4BB279F3860F4161647
:104FB000B11D672F782F8827985FF7CF8695779553
:104FC0006795B11D93959639C8F30895E894BB276A
:104FD00066277727CB0197F908954ADF08F48FEF0A
:104FE00008950BD0A9CF9ADF28F09FDF18F0952302
:104FF00009F062CF90CF1124EACFAFDFA0F3959FE5
:10500000D1F3950F50E0551F629FF001729FBB27AF
:10501000F00DB11D639FAA27F00DB11DAA1F649F5B
:105020006627B00DA11D661F829F2227B00DA11D0E
:10503000621F739FB00DA11D621F839FA00D611D94
:10504000221F749F3327A00D611D231F849F600DB5
:10505000211D822F762F6A2F11249F5750408AF0EE
:10506000E1F088234AF0EE0FFF1FBB1F661F771F7A
:10507000881F91505040A9F79E3F510570F01CCFFA
:10508000A6CF5F3FECF3983EDCF386957795679566
:10509000B795F795E7959F5FC1F7FE2B880F911D98
:1050A0009695879597F908951F920F920FB60F92D4
:1050B00011242F933F938F939F93AF93BF9380912E
:1050C000670690916806A0916906B0916A063091D2
:1050D000660623E0230F2D3758F50196A11DB11D5B
:1050E000209366068093670690936806A0936906EE
:1050F000B0936A0680916B0690916C06A0916D0644
:10510000B0916E060196A11DB11D80936B06909320
:105110006C06A0936D06B0936E06BF91AF919F9100
:105120008F913F912F910F900FBE0F901F90189568
:1051300026E8230F0296A11DB11DD2CF3FB7F894E8
:1051400080916B0690916C06A0916D06B0916E06F1
:1051500026B5A89B05C02F3F19F00196A11DB11DD2
:105160003FBFBA2FA92F982F8827BC01CD01620F0E
:10517000711D811D911D42E0660F771F881F991FC9
:105180004A95D1F708958F929F92AF92BF92CF9296
:10519000DF92EF92FF926B017C01D0DF4B015C014B
:1051A000C114D104E104F104D9F026D5C7DF681990
:1051B00079098A099B09683E73408105910580F34E
:1051C00021E0C21AD108E108F10888EE880E83E0D8
:1051D000981EA11CB11CC114D104E104F10431F7E3
:1051E000FF90EF90DF90CF90BF90AF909F908F9007
:1051F0000895789484B5826084BD84B5816084BD4F
:1052000085B5826085BD85B5816085BDEEE6F0E03F
:10521000808181608083E1E8F0E01082808182609B
:105220008083808181608083E0E8F0E0808181601C
:105230008083E1EBF0E0808184608083E0EBF0E04C
:10524000808181608083E1E9F0E0808182608083F9
:10525000808181608083E0E9F0E0808181608083EB
:10526000E1EAF0E0808182608083808181608083D8
:10527000E0EAF0E0808181608083E1E2F1E080811A
:1052800082608083808181608083E0E2F1E08081C0
:1052900081608083EAE7F0E08081846080838081A0
:1052A0008260808380818160808380818068808348
:1052B0001092C1000895863308F0865320917B0038
:1052C000982F9870277F922B90937B002091470214
:1052D00090E4299F900111248770822B80937C0099
:1052E00080917A00806480937A0080917A0086FDB4
:1052F000FCCF80917800909179000895815082319F
:1053000008F059C0E82FF0E08827E757F64D8F4F97
:10531000B9C4A929AD299B29A129A529DB29B0292F
:10532000B629BA29C029C429C829CE29D229DB29FE
:10533000D629DC29E029809180008F778093800036
:105340000895809180008F7DF9CF80918000877FC4
:10535000F5CF84B58F7784BD089584B58F7DFBCF5D
:105360008091B0008F778093B00008958091B00055
:105370008F7DF9CF809190008F7780939000089572
:10538000809190008F7DF9CF80919000877FF5CF3D
:105390008091A0008F778093A00008958091A00055
:1053A0008F7DF9CF8091A000877FF5CF809120017C
:1053B0008F77809320010895809120018F7DF9CF10
:1053C00080912001877FF5CFCF93DF9390E0FC01A0
:1053D000E65DFE4F249180599E4FFC018491882305
:1053E000C9F090E0880F991FFC01E651FE4FA5918E
:1053F000B491FC01E053FE4FC591D49161110DC0F1
:105400009FB7F8948C91209582238C9388812823D0
:1054100028839FBFDF91CF910895623051F49FB7E9
:10542000F8943C91822F809583238C93E8812E2BD6
:10543000EFCF8FB7F894EC912E2B2C938FBFEACF40
:105440001F93CF93DF93282F30E0F901EC51FF4FEA
:105450008491F901E65DFE4FD491F901E059FE4FC8
:10546000C491CC23A1F0162F811148DFEC2FF0E07E
:10547000EE0FFF1FE053FE4FA591B4918FB7F89444
:10548000EC91111108C0D095DE23DC938FBFDF9122
:10549000CF911F910895DE2BF8CFCF93DF93282F64
:1054A00030E0F901EC51FF4F8491F901E65DFE4FC8
:1054B000D491F901E059FE4FC491CC2399F08111A8
:1054C0001DDFEC2FF0E0EE0FFF1FEA54FE4FA59119
:1054D000B491EC91ED2381E090E009F480E0DF915C
:1054E000CF91089580E090E0FACFFC01918D228D5C
:1054F000892F90E0805C9F4F821B91098F739927C1
:105500000895FC01918D828D981731F0828DE80FFE
:10551000F11D858D90E008958FEF9FEF0895FC01B8
:10552000918D828D981761F0A28DAE0FBF2FB11DA6
:105530005D968C91928D9F5F9F73928F90E00895FE
:105540008FEF9FEF0895FC01538D448D252F30E0A0
:10555000842F90E0821B930B541710F0CF96089580
:1055600001970895FC01A48DA80FB92FB11DA35A6E
:10557000BF4F2C91848D90E001968F739927848F73
:10558000A689B7892C93A089B1898C918370806496
:105590008C93938D848D981306C00288F389E02D37
:1055A00080818F7D80830895CF93DF93EC01888D78
:1055B0008823B1F0AA89BB89E889F9898C9185FD96
:1055C00003C0808186FD0CC00FB607FCF7CF8C911D
:1055D00085FFF2CF808185FFEDCFCE01C3DFEACF1B
:1055E000DF91CF910895EF92FF920F931F93CF9386
:1055F000DF93EC0181E0888F9B8D8C8D98131AC00E
:10560000E889F989808185FF15C09FB7F894EE89F4
:10561000FF896083E889F989808183708064808351
:105620009FBF81E090E0DF91CF911F910F91FF909C
:10563000EF900895F62E0B8D10E00F5F1F4F0F7344
:105640001127E02E8C8D8E110BC00FB607FCFACF00
:10565000E889F989808185FFF5CFCE0183DFF2CF1C
:10566000EB8DEC0FFD2FF11DE35AFF4FF0829FB73A
:10567000F8940B8FEA89FB8980818062D0CFCF922A
:10568000DF92EF92FF921F93CF93DF93EC016A01B9
:105690007B01122FE889F98982E08083C11481EEB1
:1056A000D806E104F10499F060E079E08DE390E040
:1056B000A7019601C5D221503109410951095695DA
:1056C000479537952795211580E1380790F0E889AF
:1056D000F989108260E874E88EE190E0A7019601F4
:1056E000AFD2215031094109510956954795379557
:1056F0002795EC85FD853083EE85FF852083188E08
:10570000EC89FD891083EA89FB898081806180832F
:10571000EA89FB89808188608083EA89FB898081AE
:1057200080688083EA89FB8980818F7D8083DF9117
:10573000CF911F91FF90EF90DF90CF9008951F922F
:105740000F920FB60F9211240BB60F922F938F93D7
:105750009F93EF93FF93E0917F06F0918006808105
:10576000E0918506F091860682FD1DC090818091B2
:1057700088068F5F8F7320918906821741F0E09130
:105780008806F0E0E159F94F958F80938806FF91E4
:10579000EF919F918F912F910F900BBE0F900FBEA5
:1057A0000F901F9018958081F2CF1F920F920FB625
:1057B0000F9211240BB60F922F933F934F935F9349
:1057C0006F937F938F939F93AF93BF93EF93FF93C9
:1057D0008FE696E0C7DEFF91EF91BF91AF919F9169
:1057E0008F917F916F915F914F913F912F910F908A
:1057F0000BBE0F900FBE0F901F901895EFE6F6E0CE
:105800001382128288EE93E0A0E0B0E08483958357
:10581000A683B7838DEC92E09183808385EC90E042
:105820009587848784EC90E09787868780EC90E06A
:10583000918B808B81EC90E0938B828B82EC90E05B
:10584000958B848B86EC90E0978B868B118E128ED5
:10585000138E148E08951F920F920FB60F9211247B
:105860000BB60F922F938F939F93EF93FF93E0913B
:105870001C07F0911D078081E0912207F09123071A
:1058800082FD1DC09081809125078F5F8F732091CD
:105890002607821741F0E0912507F0E0E45FF84F1A
:1058A000958F80932507FF91EF919F918F912F9175
:1058B0000F900BBE0F900FBE0F901F901895808118
:1058C000F2CF1F920F920FB60F9211240BB60F92C8
:1058D0002F933F934F935F936F937F938F939F93F8
:1058E000AF93BF93EF93FF938CE097E03BDEFF9184
:1058F000EF91BF91AF919F918F917F916F915F9148
:105900004F913F912F910F900BBE0F900FBE0F90B4
:105910001F901895ECE0F7E01382128288EE93E076
:10592000A0E0B0E084839583A683B7838DEC92E0FA
:10593000918380838DEC90E0958784878CEC90E058
:105940009787868788EC90E0918B808B89EC90E03C
:10595000938B828B8AEC90E0958B848B8EEC90E01D
:10596000978B868B118E128E138E148E08951F9234
:105970000F920FB60F9211240BB60F922F938F93A5
:105980009F93EF93FF93E091B907F091BA0780815D
:10599000E091BF07F091C00782FD1DC0908180910A
:1059A000C2078F5F8F732091C307821741F0E09188
:1059B000C207F0E0E755F84F958F8093C207FF913B
:1059C000EF919F918F912F910F900BBE0F900FBE73
:1059D0000F901F9018958081F2CF1F920F920FB6F3
:1059E0000F9211240BB60F922F933F934F935F9317
:1059F0006F937F938F939F93AF93BF93EF93FF9397
:105A000089EA97E0AFDDFF91EF91BF91AF919F9150
:105A10008F917F916F915F914F913F912F910F9057
:105A20000BBE0F900FBE0F901F901895E9EAF7E09C
:105A30001382128288EE93E0A0E0B0E08483958325
:105A4000A683B7838DEC92E09183808385ED90E00F
:105A50009587848784ED90E09787868780ED90E036
:105A6000918B808B81ED90E0938B828B82ED90E027
:105A7000958B848B86ED90E0978B868B118E128EA2
:105A8000138E148E08951F920F920FB60F92112449
:105A90000BB60F922F938F939F93EF93FF93E09109
:105AA0005608F09157088081E0915C08F0915D08FC
:105AB00082FD1DC0908180915F088F5F8F73209160
:105AC0006008821741F0E0915F08F0E0EA5BF74F71
:105AD000958F80935F08FF91EF919F918F912F9108
