:1000000005C1000034C1000032C1000030C1000051
:100010002EC100002CC100002AC1000028C1000030
:1000200026C1000024C1000022C1000020C1000040
:100030001EC100001CC100001AC1000018C1000050
:1000400016C1000014C1000012C1000010C1000060
:100050000EC100000CC100000AC100000C94E5268E
:1000600006C100000C940D2A0C94432A00C1000024
:10007000FEC00000FCC00000FAC00000F8C0000094
:10008000F6C00000F4C00000F2C00000F0C00000A4
:100090000C94992A0C94CF2AEAC00000E8C0000012
:1000A000E6C00000E4C00000E2C00000E0C00000C4
:1000B000DEC00000DCC00000DAC00000D8C00000D4
:1000C000D6C00000D4C000000C94EE220C94252B66
:1000D0000C945B2BCCC000000C94B12B0C94E72B40
:1000E000C6C0000000000A0B02090C0D0E08070331
:1000F00004010000000000000000000000000000FB
:1001000000000000000000000000000000000000EF
:1001100012111000000000000000000000000000AC
:100120000000000000000000000001021020200874
:100130000810204010204080020102010804020142
:1001400001020408102040808040201008040201B1
:10015000800402018040201008040201080402010A
:100160000102040810204080010204081020408091
:1001700005050505070508080808020202020A0A23
:100180000808040404040101010101010101030341
:10019000030303030303040707070C0C0C0C0C0CEC
:1001A0000C0C0202020206060606060606060B0BE9
:1001B0000B0B0B0B0B0B000020002300260029006B
:1001C0002C002F003200000100000301060109018C
:1001D00000002200250028002B002E0031003400F2
:1001E00002010000050108010B01000021002400AC
:1001F00027002A002D003000330001010000040117
:1002000007010A016C2AF82A842B102C11241FBE26
:10021000CFEFD1E2DEBFCDBF00E00CBF12E0A0E027
:10022000B2E0E6ECF9E500E00BBF02C007900D92EA
:10023000A03DB107D9F728E0A0EDB2E001C01D92C2
:10024000A13CB207E1F711E0C6E0D1E000E006C052
:1002500021970109802FFE010E94B02CC230D107E6
:1002600080E00807A9F70E9449240C94E12CC8CE2D
:10027000611102C00C9452286130E1F362E0FACFC0
:10028000662319F061E00C948E2860E0FCCF0E9498
:10029000BB2821E0019709F020E0822F089590E02B
:1002A00080E008950F931F93009709F48BC06115A8
:1002B000710509F487C00091140210911502209174
:1002C0001602309117020E3F1F4F2F4F3F4F09F07C
:1002D0006AC04FEF5FEFBA014093140250931502CA
:1002E0006093160270931702409114025091150208
:1002F0006091160270911702DC011296ED91FC914B
:1003000080819181A281B3818093420390934303C2
:10031000A0934403B093450384819581A681B7815E
:1003200080933E0390933F03A0934003B093410317
:1003300080859185A285B38580933A0390933B0392
:10034000A0933C03B0933D0384859585A685B7852E
:100350008093360390933703A0933803B093390307
:10036000109232031092330310923403109235032B
:100370003ED58CE197E09093D1028093D002909388
:10038000D3028093D2029093D5028093D4021ED4DC
:10039000009731F421E030E0309347032093460387
:1003A0001F910F9108950091140210911502209150
:1003B000160230911702DB010D931D932D933C9390
:1003C000139792CF8FEF9FEFEBCF8F929F92AF92C9
:1003D000BF92CF92DF92EF92FF921F93CF93DF9362
:1003E0004B015C011091490382E090E09093470338
:1003F0008093460381149104A104B10441F48091D7
:100400004903811104C080914803C1E08111C0E01B
:10041000C12CD12C760180914903811106C08091B5
:100420004803811102C0CC23D9F083E090E090937F
:10043000470380934603CC2379F1CCE9DFEF111118
:1004400002C00E94800ACE01DF91CF911F91FF90E0
:10045000EF90DF90CF90BF90AF909F908F900895D6
:100460006AE070E080E090E00E94542780E1C80ECE
:1004700087E2D81EE11CF11C8FEF88169806A806AB
:10048000B80631F0C1E08C149D04AE04BF0408F03E
:10049000C0E080E0CFD3BFCFD0E0C0E0D0CFCF92DC
:1004A000DF92EF92FF920F931F93CF93DF938F3FD3
:1004B000910511F008F050C0209146033091470398
:1004C0002330310539F02091460330914703213024
:1004D000310531F424E030E03093470320934603A4
:1004E0006A017B01EC0183309105A0F011E0AE01BF
:1004F000C701B6016AD3AB01BC01CE011123F9F0EB
:10050000DF91CF911F910F91FF90EF90DF90CF90EF
:100510000C94A90C8C01000F111F00531D4FD80122
:100520008D919C91892B11F30E94B30C0297F1F6E7
:10053000D801ED91FC91CE011995182FD8CF0E94CA
:10054000CB0C90E080E0DF91CF911F910F91FF9055
:10055000EF90DF90CF9008958FEF9FEFF4CF80E082
:1005600069C3CF93DF9386E090E090934703809335
:100570004603B9D3EC01E0EDF2E086E0DF011D9225
:100580008A95E9F755D71092470310924603CE019A
:10059000DF91CF91089580914803089580913103B0
:1005A000089560931402709315028093160290933D
:1005B000170290E080E00895FC0191E080910F0324
:1005C000811190E091830895CF92DF92EF92FF9294
:1005D0006B017C019F7720E030E040E859E50E9404
:1005E000492587FF2BC020E030E040E05FE3C701F2
:1005F000B6010E947E2687FD0EC020E030E040E07C
:100600005FE3C701B6010E94D224FF90EF90DF9014
:10061000CF900C94B62520E030E040E05FEBC701BE
:10062000B6010E947E26181684F420E030E0A9016D
:10063000C701B6010E9482266B017C01C701B60189
:10064000FF90EF90DF90CF90089520E030E040E001
:100650005FE3C701B6010E94D124FF90EF90DF90C5
:10066000CF900C943625CF92DF92EF92FF9280913B
:100670000F038F5F843108F058C080930F03C09040
:100680000002D0900102E0900202F0900302A70164
:1006900096016091A5087091A6088091A708909195
:1006A000A8080E944925882341F0C092A508D0924D
:1006B000A608E092A708F092A80883E0E8DD61E0D0
:1006C000811160E060939C088CE0DADD60910403A6
:1006D0007091050380910603909107036F5F7F4F30
:1006E0008F4F9F4F6093040370930503809306031D
:1006F000909307030E9479259B01AC016091080348
:100700007091090380910A0390910B030E94822645
:10071000609300037093010380930203909303039B
:10072000FF90EF90DF90CF90089510920F03A7CF26
:100730004F925F926F927F928F929F92AF92BF92F1
:10074000CF92DF92EF92FF92C090BB08D090BC088E
:10075000E090BD08F090BE08C701B6010E947B255D
:100760002B013C0120910C0230910D0240910E02B0
:1007700050910F020E94492587FF64C0F7FC62C0B8
:100780008090040290900502A0900602B0900702AB
:100790008092980890929908A0929A08B0929B082B
:1007A00020E030E040E85FE36091080270910902C8
:1007B00080910A0290910B020E94D1249B01AC010E
:1007C000C301B2010E947E2687FD40C01092BB0883
:1007D0001092BC081092BD081092BE08C501B40169
:1007E000F3DE6B017C0120E030E040E853E40E943E
:1007F00049256FEF87FF0EC020E030E0A901C70157
:10080000B6010E947E2660E087FD04C0C701B601E4
:100810000E944D258DE034DD80910C0390910D03F5
:10082000019690930D0380930C03FF90EF90DF905F
:10083000CF90BF90AF909F908F907F906F905F9080
:100840004F900895812C912C5401A2CF8FEFC81A9C
:10085000D80AE80AF80AC092BB08D092BC08E09215
:10086000BD08F092BE08BACFCF92DF92EF92FF920E
:100870001F93CF93DF93EAEEF2E080E090E0A0E8F0
:10088000BFEB86A397A3A0A7B1A78DEC9CECACEC23
:10089000BDE3868F978FA0A3B1A384E19CEDAAE46A
:1008A000BBE384839583A683B7838DEB96E5A9E8A4
:1008B000B1EB80879187A287B3878AE09CE6A5E6A3
:1008C000B4EB84879587A687B78787E293E6AAE685
:1008D000B0E7808B918BA28BB38BAEEDB2E0B3838C
:1008E000A283E6EDF2E01196FC93EE938DE392E0A5
:1008F0009183808393838283958384839783868384
:100900008EEF92E015969C938E9314978EEE92E064
:1009100013969C938E93129780E093E017969C9386
:100920008E931697CDE9D8E01882809100029091BD
:100930000102A0910202B091030288879987AA87D9
:10094000BB87C12CD12C7601C394C982DA82EB8299
:10095000FC8260E083E08CDC11E01D831C86CD8688
:10096000DE86EF86F88A61E08CE082DC198B1C8AD7
:10097000CD8ADE8AEF8AF88E61E08DE079DC198F0E
:10098000DF91CF911F91FF90EF90DF90CF9008956E
:1009900080919D08811103C081E080939D08809122
:1009A000A908811103C081E08093A9088091B10852
:1009B000811103C081E08093B10808954F925F9246
:1009C0006F927F928F929F92AF92BF92CF92DF925F
:1009D000EF92FF920F931F93F89440902103509051
:1009E00022036090230370902403C0901503D090DD
:1009F0001603E0901703F0901803452B09F0A6C0EA
:100A00009B01AC01241935094609570929013A010E
:100A100000911D0310911E0320911F0330912003AC
:100A200048015901840C951CA61CB71C8016910620
:100A3000A206B306A0F40091190310911A032091A5
:100A40001B0330911C030F5F1F4F2F4F3F4F00932D
:100A5000190310931A0320931B0330931C038092F5
:100A60001D0390921E03A0921F03B09220030091D9
:100A7000190310911A0320911B0330911C038092DB
:100A8000250390922603A0922703B0922803009397
:100A9000290310932A0320932B0330932C03609394
:100AA0002103709322038093230390932403A301D3
:100AB000920160EA76E881E090E00E946B2C6C0D78
:100AC0007D1D8E1D9F1D60931503709316038093EB
:100AD00017039093180300911402109115022091AE
:100AE0001602309117020F3F1F4F2F4F3F4FF1F06B
:100AF00000911402109115022091160230911702F4
:100B00000E3F1F4F2F4F3F4F89F0C0901402D090DF
:100B10001502E0901602F090170221E08C149D045B
:100B2000AE04BF0408F420E02093310378941F91B1
:100B30000F91FF90EF90DF90CF90BF90AF909F907C
:100B40008F907F906F905F904F9008954B015C0164
:100B500084189508A608B708A3019201261B370B35
:100B6000480B590B6415750586059705E0F082164C
:100B70009306A406B50640F420E030E0A9018114F4
:100B80009104A104B104A1F460EA76E881E090E068
:100B90000E946B2CA7019601261B370B480B590BA3
:100BA000CA01B901C3CF82169306A406B50660F741
:100BB000A501940160EA76E881E090E00E946B2C48
:100BC0006C0D7D1D8E1D9F1DB1CFF8CECF93DF9391
:100BD00000D01F92CDB7DEB71C821B821A82198209
:100BE00010922D0310922E0310922F0310923003B7
:100BF000BE016F5F7F4FCE0103960E94BF226981C5
:100C00007A818B819C810E94E21B009761F4BE0176
:100C10006F5F7F4FCE0103960E94CB2269817A815C
:100C20008B819C812ED50F900F900F900F90DF91AC
:100C3000CF910895FF920F931F93CF93DF93082FC7
:100C400060E070E0CB010E945427FF24F3940E94DF
:100C5000CB1AEC01892B89F010E0CE3F8FEFD8073B
:100C600069F0002361F160E070E0CB010E9454273D
:100C700081E090E0892B59F322C011E025D5EC01E9
:100C8000892B21F0CE3F8FEFD80759F711111EC0E5
:100C900011E0229609F410E00E947B1AEC01892BE6
:100CA00021F0CE3F8FEFD807E1F6111111C011E00E
:100CB000CE3F8FEFD80709F410E001110BC0CE0131
:100CC000DF91CF911F910F91FF90089511E0E4CF34
:100CD00011E0F3CF60E070E0CB010E9454271F25A4
:100CE000812F90E0C7CFCF93DF938091310388238A
:100CF00021F060E070E0CB014CD635D6D0E0C0E00A
:100D0000892B71F06AE070E080E090E00E94542747
:100D100081E090DF28D62196C03D27E0D20781F7F9
:100D200027D60E94361C1092490310924803109255
:100D30004203109243031092440310924503109211
:100D40003E0310923F031092400310924103109211
:100D50003A0310923B0310923C0310923D03109211
:100D60003603109237031092380310923903109211
:100D700032031092330310923403109235034EEF76
:100D80005FEF6FEF7FEF4093140250931502609373
:100D900016027093170210923103E5E2F3E028E0A7
:100DA000DF011D922A95E9F7109221031092220388
:100DB000109223031092240310921D0310921E031D
:100DC00010921F03109220031092190310921A031D
:100DD00010921B0310921C0310921503109216031D
:100DE0001092170310921803DF91CF91089510927B
:100DF0005503109256031092570310925803109205
:100E0000540380915D0390915E039093530380930C
:100E10005203109251031092500310924C031092FF
:100E20004D0310924E0310924F0310925A031092EA
:100E3000590390E080E00895CF92DF92EF92FF9205
:100E40000F931F93CF938C01892B09F055C02091EC
:100E50005D0330915E038091520390915303409162
:100E60005D0350915E035093530340935203281740
:100E7000390781F0109251031092500310924C03E5
:100E800010924D0310924E0310924F0310925A038A
:100E90001092590380915D0390915E03019761F573
:100EA0008091590390915A03892B21F48091180263
:100EB000811112C08091590390915A030197E1F476
:100EC00080914C0390914D03A0914E03B0914F033C
:100ED0000197A105B10581F410924C0310924D03C6
:100EE00010924E0310924F031092180282E090E08D
:100EF00090935A038093590380915D0390915E0310
:100F0000019709F01CC180917303909174038017BD
:100F1000910709F014C180916F0390917003A09123
:100F20007103B0917203009709F409C120916E0317
:100F300021110DC040916F035091700360917103B6
:100F400070917203452B462B472B09F4F8C0209172
:100F5000590330915A032230310509F0F0C0209135
:100F600050032111ECC0FC01C080D180E280F380ED
:100F700080915403882309F4D3C080916003909139
:100F80006103892B09F4FDC0209160033091610356
:100F900081E02230310509F080E02091600330913A
:100FA0006103C1E02130310549F0209160033091A7
:100FB0006103C1E02230310509F0C0E0882309F463
:100FC00056C020916A0330916B0340916C0350919D
:100FD0006D03C701B6010E947E2687FD14C02091D3
:100FE0006A0330916B0340916C0350916D036091E3
:100FF00055037091560380915703909158030E94B6
:10100000492587FD22C020916A0330916B034091EE
:101010006C0350916D03C701B6010E947E2618161D
:1010200034F520916A0330916B0340916C03509129
:101030006D03609155037091560380915703909111
:1010400058030E944925811112C08091620390913A
:101050006303A0916403B0916503892B8A2B8B2BCA
:1010600019F481E08093510381E080935003CC23F5
:1010700009F456C020916A0330916B0340916C03D0
:1010800050916D03C701B6010E94492587FF14C026
:1010900020916A0330916B0340916C0350916D0372
:1010A00060915503709156038091570390915803B6
:1010B0000E947E2687FF22C020916A0330916B0335
:1010C00040916C0350916D03C701B6010E94492500
:1010D000811126C020916A0330916B0340916C030B
:1010E00050916D03609155037091560380915703A1
:1010F000909158030E947E26181694F48091620302
:1011000090916303A0916403B0916503892B8A2BAE
:101110008B2B19F481E08093510381E0809350037D
:1011200081E090915003911180E080935403C0922C
:101130005503D0925603E0925703F0925803012BC7
:1011400009F067C18091590390915A03892BD9F412
:1011500010925F031092500380911802882379F057
:1011600082E090E090935A03809359031092180202
:1011700020915D0330915E0381E0232BE9F080E054
:101180001BC081E00ACF1092180280915F03882370
:1011900049F01092510310925A0310925903109281
:1011A0005F03EDCF80915D0390915E03892BE1F0A9
:1011B00080915003109250032091590330915A03AB
:1011C0002230310509F45EC088F42115310509F497
:1011D00048C02130310509F4F3C010925103109238
:1011E000500310925F0338C081E0E6CF2330310511
:1011F00009F4B1C02430310581F740914C0350917E
:101200004D0360914E0370914F03411551056105E7
:10121000710561F0415051096109710940934C0316
:1012200050934D0360934E0370934F0340914C03D2
:1012300050914D0360914E0370914F03452B462B07
:10124000472BD9F420915B0330915C0321303105A9
:1012500009F046C01092510310925A03109259039C
:101260000CC080911802882341F082E090E09093B6
:101270005A03809359031092180210924A038091E6
:101280005103CEC08823C9F3809162039091630318
:10129000A0916403B0916503181619061A061B067F
:1012A0000CF07DC080915D0390915E03019709F081
:1012B00076C08091620390916303A0916403B09122
:1012C000650380934C0390934D03A0934E03B0931A
:1012D0004F0383E090E090935A0380935903CDCF5E
:1012E00040916603509167036091680370916903B0
:1012F000452B462B472BA9F0109251038091660392
:1013000090916703A0916803B091690380934C03A7
:1013100090934D03A0934E03B0934F0381E090E070
:10132000DACF882399F08091190290911A02A09146
:101330001B02B0911C0280934C0390934D03A09329
:101340004E03B0934F0384E090E0C5CF1092510359
:1013500082E090E0C0CF80914C0390914D03A0912A
:101360004E03B0914F030097A105B10559F00197C5
:10137000A109B10980934C0390934D03A0934E03B0
:10138000B0934F0380914C0390914D03A0914E0375
:10139000B0914F03892B8A2B8B2B09F06ECF809154
:1013A000190290911A02A0911B02B0911C02892B84
:1013B0008A2B8B2B09F44ECF81E080935103B3CF5E
:1013C00040914C0350914D0360914E0370914F0337
:1013D000411551056105710561F0415051096109DF
:1013E000710940934C0350934D0360934E037093E7
:1013F0004F0340914C0350914D0360914E03709107
:101400004F03452B462B472B09F037CF8111C7CF10
:101410009FCF80914A03882309F431CF80914B03F9
:10142000CF911F910F91FF90EF90DF90CF90089593
:1014300010925503109256031092570310925803BE
:101440001092540310925A031092590310925303AE
:10145000109252031092740310927303109251036E
:101460001092500310924C0310924D0310924E03B1
:1014700010924F0310924B0310924A0310926F0385
:1014800010927003109271031092720310926E0307
:1014900010926A0310926B0310926C0310926D030A
:1014A00088EE93E0A0E0B0E08093190290931A02D6
:1014B000A0931B02B0931C02109266031092670364
:1014C00010926803109269031092620310926303F2
:1014D00010926403109265031092610310926003EE
:1014E00081E08093180210925F0310925E031092C5
:1014F0005D0310925C0310925B0390E080E008951E
:1015000080915D0390915E03892B19F580911802FB
:10151000882351F080915F03811106C081E08093A0
:101520004B0380934A03089520915F033091180282
:1015300081E090E0332311F090E080E030E08223FE
:101540009323892B21F010924B0381E0EACF109274
:101550004A03089582E090E0FA01918380838FEF3F
:101560009FEF0895CF93DF93EA01009711F00E9457
:10157000501D1982188290E080E0DF91CF9108958C
:10158000DB01009719F48FEF8C9308952EEF2C93C5
:10159000FC013F96EF30F10508F034C08827EC528B
:1015A000F54F8F4F0C94B02C000BFE0AFC0AFA0A80
:1015B000F80AF40AF60AF20AF00AEE0AEB0AE70A57
:1015C000E30AE90A020B80E311968C93089589E2FD
:1015D000FBCF82E2F9CF11961C92089583E2F4CFFB
:1015E00081E2F2CF81E1F0CF87E2EECF8AE2ECCF69
:1015F00080E1EACF84E2E8CF88E2E6CF86E2E4CF7A
:1016000081E3E2CF80E2E0CF809181039091820379
:1016100008959093820380938103089580918003BD
:10162000089590918003892B809380030895982FCB
:101630009095809180038923809380030895809101
:101640007F03089580917D0390917E030895611535
:10165000710559F0FB0130E020E070E060E02417F4
:10166000350719F06115710511F0CB010895A081BE
:10167000B181A817B90709F4BF012F5F3F4F369614
:10168000EECF8091830381111CC060D266D290930B
:101690007603809375030E9452150E9464159093FF
:1016A0007A03809379030E94E3190E94EA199093C8
:1016B00078038093770381E08093830390E080E058
:1016C000089584EF9FEF08958F929F92AF92BF92FB
:1016D000CF92DF92EF92FF920F931F93CF93DF93FE
:1016E00000D000D000D01F92CDB7DEB71A86198681
:1016F00018861F821E821D821C821B821A821982FA
:101700008091830307EF1FEF882309F49CC08E01AB
:101710000D5F1F4F9E012B5F3F4FAE01495F5F4F33
:10172000BE01675F7F4F90E080E00E94671B8C01E5
:10173000009721F00596029708F0DBC029853A85CD
:101740002115310509F402C1ED80FE804B815C81D9
:10175000B701640F751F8F8198858617970708F466
:10176000F5C0E20EF31ED7019C91903C09F07FC0BA
:101770004230510508F47BC011968C914091810351
:1017800050918203452B09F49CC0913F08F071C031
:101790002CE1290F2D3008F48BC02DE2290F2031C8
:1017A00008F489C0903C21F48150823008F483C051
:1017B00088E3890F8B3008F481C090ECC92E9AE041
:1017C000D92EEAEAFAE06D817E81AE014F5F5F4F6C
:1017D00089859A8519955C01C114D104A1F189808C
:1017E0009A808114910479F18B819C8188159905E7
:1017F00008F487C010E000E04B815C8170E060E09D
:10180000C7010E94DA2C01151105E9F449815A81BA
:1018100069857A858D819E81680F791FC501F601E2
:101820001995E980FA800D811E812F8138854985BF
:101830005A856FEF7FEF81E090E00E94021B8C01E0
:10184000892B09F056C0C8012A960FB6F894DEBF5E
:101850000FBECDBFDF91CF911F910F91FF90EF9001
:10186000DF90CF90BF90AF909F908F90089580E0D1
:1018700085CF30E020E0220F331FF901EB58FC4FF9
:101880000190F081E02D309709F497CF892F90E0F7
:101890001995009709F491CFDC011296ED91FC9116
:1018A00013971496CD90DC90309709F08CCF1FC021
:1018B00021E030E0E0CF22E030E0DDCF23E030E097
:1018C000DACFD12CC12CE2EBFAE09F3F09F07BCFBD
:1018D000E0917503F0917603309721F4C90104EF8C
:1018E0001FEF0CC08FEF90E019950097A9F604EF59
:1018F0001FEF89859A85009709F4A5CF0E94501D96
:10190000A2CF0E94311C8C0189859A850E94501DAE
:1019100070E060E0C4010E94CA1B98878F830E9418
:10192000FF1A9E838D836F8178856115710559F04B
:10193000C8010E94AF1E9A87898706EF1FEF892B87
:1019400009F058CF59CF08EF1FEF56CF08EF1FEF20
:10195000D0CF20918303222319F020E00C94691545
:1019600087EF9FEF089580918103909182030895FE
:101970000E94EF190E944919F5D0E5E7F3E088E0ED
:10198000DF011D928A95E9F71092830390E080E0D1
:1019900008950C94A61721E040E050E0BA010C94A1
:1019A000691586E090E0FA019183808390E080E001
:1019B000089547E050E060E472E049CEDF92EF9294
:1019C000FF920F931F93CF93DF938A01EC01C60F11
:1019D000D71FE0908703F0908803D9800E94191CDC
:1019E000D816190678F082E090E0F80191838083A0
:1019F0008EEF9FEFDF91CF911F910F91FF90EF90AE
:101A0000DF900895EF2841F482E090E0F80191839F
:101A1000808384EF9FEFEECF89818093860390E0EF
:101A20000196F8019183808390E080E0E3CFCF932B
:101A3000DF93EA010E945718882321F00E94261C98
:101A40000E94581882E090E0998388838BEF9FEF83
:101A5000DF91CF910895CF93DF93EB0186E0FB01F7
:101A600011928A95E9F78FEF8883D8DD8983E7DDC6
:101A70008A83E8DD9D838C83DF91CF910895CF9396
:101A8000DF93EA010E945A18811109C082E090E0B8
:101A90009983888385EF9FEFDF91CF91089590E040
:101AA00080E0B7DD81E090E09983888390E080E07A
:101AB000F3CF0F931F93CF93DF93EA018C01060FAF
:101AC000171F0E945A1881110BC082E090E0998381
:101AD000888385EF9FEFDF91CF911F910F9108953C
:101AE000F8018181823038F082E090E09983888328
:101AF0008EEF9FEFF0CF81E090E08BDD88E090E00B
:101B00009983888390E080E0E6CFCF93DF930097BE
:101B1000D1F4EB01FB01329686E0DF011D928A953C
:101B2000E9F78FEF888385E089831A820E94191C68
:101B30008B830E94181C9D838C8381E08E838F830E
:101B4000DF91CF910895DF91CF911ACD89ED9CE07F
:101B500090938503809384030895809184039091EA
:101B6000850308951092850310928403089580914F
:101B70008703909188030895411105C0611571058F
:101B80008105910561F060938703709388038093CA
:101B9000890390938A0340938B0381E0089580E04A
:101BA0000895FF920F931F93CF93DF938A01EC0167
:101BB000C60FD71FF9800E94191CF816190668F085
:101BC00082E090E0F801918380838EEF9FEFDF91B8
:101BD000CF911F910F91FF9008956C817D818E812F
:101BE0009F814B81C9DF811108C082E090E0F8013C
:101BF0009183808384EF9FEFEACF8981809386036E
:101C000090E00196F8019183808390E080E0DFCF3F
:101C1000CF93DF93EA01FC01E60FF71F6481758122
:101C2000868197814381A8DF811109C082E090E01D
:101C30009983888384EF9FEFDF91CF91089581E0AE
:101C400090E09983888390E080E0F6CFE7E8F3E0C6
:101C50004081518162817381480F511D611D711D49
:101C600040835183628373830895CF93C091860329
:101C70004C2F50E0609187037091880301960E9479
:101C8000D12C8C2FE3DF10928603CF91089500971B
:101C900099F480918703909188032FEFFB012083B3
:101CA000892B59F02091860330E02F5F3F4F241796
:101CB000350719F4CB01D9CF63CC0895009799F477
:101CC00080918703909188032FEFFB012083892B5C
:101CD00059F02091860330E02F5F3F4F24173507DE
:101CE00019F4CB01C2CF4CCC089523E1AC01249F61
:101CF000C001259F900D1124E0919003F091910374
:101D0000E80FF91F238134812250310981E022300C
:101D1000310508F080E008950F931F93CF93DF9370
:101D20000091920310919303D0E0C0E080E00C1783
:101D30001D0749F491E0811190E0892FDF91CF9147
:101D40001F910F9108958111F5CFCE01CEDF21961D
:101D5000EECFA0919003B0919103109729F12091BB
:101D600092033091930382179307F0F453E1589F45
:101D70009001599F300D1124A20FB31FED91FC91DA
:101D80001197309789F012968C91681768F48DE05E
:101D9000689FE00DF11D112480819181892B21F034
:101DA00081E09281491708F080E008959C0143E1A9
:101DB000429FC001439F900D1124E0919003F09148
:101DC0009103E80FF91F8385823099F481E090E058
:101DD0006581768140911D0250911E02641775073E
:101DE00011F490E080E0892B21F081E02230310570
:101DF00008F080E00895FC01A081B1818DE0689F2A
:101E0000A00DB11D112413964D915C918585968589
:101E1000489F9001499F300D589F300D1124C901F2
:101E20000196611103C0478144FD04960895EF9225
:101E3000FF920F931F93CF93DF93EA01FC01E60F0C
:101E4000F71F02811381E480F5804F2D6E2DC801AC
:101E500080DF81110DC082E090E0998388838EEF4E
:101E60009FEFDF91CF911F910F91FF90EF90089519
:101E7000C8013BDF882339F082E090E099838883B2
:101E800088EF9FEFEECF1093240200932302E0929D
:101E90002502F092260281E090E09983888390E009
:101EA00080E0DFCFCF92DF92EF92FF920F931F93EC
:101EB000CF93DF937A01EC01C60FD71FC0902302A6
:101EC000D09024020091250210912602412F602F0C
:101ED000C6013FDF811110C082E090E0F7019183DD
:101EE00080838AEF9FEFDF91CF911F910F91FF9039
:101EF000EF90DF90CF900895C601F7DE882341F080
:101F000082E090E0F7019183808388EF9FEFEBCF31
:101F10004C815D816E817F819A8189818F3F41F003
:101F200082E090E0F701918380838EEF9FEFDBCF1B
:101F3000E3E1EC9D9001ED9D300D1124E0919003C3
:101F4000F0919103E20FF31F0190F081E02D2DE05D
:101F5000029FE00DF11D11240190F081E02D27E09A
:101F6000129FE00DF11D1124808391838B81828368
:101F700043835483658376831F5F1093260281E039
:101F800090E0F7019183808390E080E0ACCFEF9206
:101F9000FF920F931F93CF93DF937A018C01060F6B
:101FA000171FC0919003D0919103209781F021E0F9
:101FB00030E0F80182819381409192035091930324
:101FC0008417950710F030E020E0232B71F482E0B5
:101FD00090E0F701918380838EEF9FEFDF91CF91A7
:101FE0001F910F91FF90EF90089543E1489F90015A
:101FF000499F300D1124C20FD31F77DE882341F093
:1020000082E090E0F7019183808388EF9FEFE6CF35
:10201000F8012481358120383105C8F68781811186
:10202000D6CF4181842F90E08F7E009741F082E0EF
:1020300090E0F7019183808386EF9FEFCFCF4F83AE
:102040003E832D83268128871986223010F421E0D3
:10205000288721E030E0F70131832083BFCF88E07B
:1020600090E0FA019183808390E080E00895FB0185
:102070008FEF808381E181838FEF9FEF9383828352
:1020800080E890E095838483168217820895FB018F
:102090008FEF808391E0918382839383848384E3B1
:1020A000858381E090E0978386830895BF92CF92E5
:1020B000DF92EF92FF920F931F93CF93DF93DA019A
:1020C000FC01E60FF71F8181813081F082E090E012
:1020D0008D939C938FEF9FEFDF91CF911F910F9185
:1020E000FF90EF90DF90CF90BF900895C281D38191
:1020F000B480858106811781E0909003F090910370
:10210000E114F10439F482E090E08D939C938CEF1C
:102110009FEFE2CF2091920330919303C217D30730
:1021200038F082E090E08D939C938EEF9FEFD4CFB8
:10213000C230D10538F082E090E08D939C9386EF19
:102140009FEFCACF9B2D9D7FB1F78130A1F7B110D2
:1021500005C00130110531F080E004C081E002309B
:102160001105D0F3882339F36D01CE01BEDD88233C
:1021700041F082E090E0F6019183808388EF9FEF49
:10218000ABCF83E18C9FF0018D9FF00D1124EE0DFC
:10219000FF1DB38681E0848716870587108A17861E
:1021A00081E090E0F6019183808390E080E094CF1D
:1021B0004CE050E06AE672E04ACA8F929F92BF926A
:1021C000CF92DF92EF92FF920F931F93CF93DF9303
:1021D000EA01FC01E60FF71F828193810481B5803B
:1021E000E0919003F0919103309791F482E090E0B8
:1021F000998388838CEF9FEFDF91CF911F910F918F
:10220000FF90EF90DF90CF90BF909F908F900895B8
:1022100020919203309193038217930738F082E064
:1022200090E0998388838EEF9FEFE6CF23E1289F8C
:102230006001299FD00C1124EC0DFD1DE080F18080
:10224000E114F10499F28281081748F78DE0089FA4
:1022500080011124E00EF11EF70180819181892B0C
:1022600029F6BB20E1F2F7E0BF9E40011124C40132
:102270000E94171DF70191838083E0919003F091F4
:102280009103EC0DFD1D0190F081E02DE00FF11F99
:1022900080819181009739F482E090E0998388836E
:1022A0008DEF9FEFA9CFA40170E060E00E94DA2CCF
:1022B0008091900390919103C80ED91EF601808100
:1022C0009181080F191FF801B28281E090E0998393
:1022D000888390E080E090CFAF92BF92CF92DF9260
:1022E000FF920F931F93CF93DF93EA01FC01E60F58
:1022F000F71F82819381F4800091900310919103E4
:102300000115110581F482E090E0998388838CEFB8
:102310009FEFDF91CF911F910F91FF90DF90CF90B2
:10232000BF90AF900895209192033091930382174C
:10233000930738F082E090E0998388838EEF9FEFD7
:10234000E8CF2FEF2F0D2C3FA8F723E1289F600146
:10235000299FD00C11240C0D1D1DF8018081918145
:10236000892B89F6FDE0FF9E50011124C5010E94D2
:10237000171DF80191838083E0919003F091910300
:10238000EC0DFD1D80819181009739F482E090E091
:10239000998388838DEF9FEFBCCFA50170E060E04B
:1023A0000E94DA2CE0919003F0919103EC0DFD1D59
:1023B000F28281E090E09983888390E080E0A9CF69
:1023C000CF92DF92EF92FF920F931F93CF93DF9301
:1023D000860F971FFC0102811381809190039091D9
:1023E0009103892B81F082E090E0FA019183808350
:1023F0008CEF9FEFDF91CF911F910F91FF90EF90A6
:10240000DF90CF900895C801B0E0A0E00197A10946
:10241000B1098F3F9F4FA105B10540F082E090E0E8
:10242000FA01918380838EEF9FEFE4CF7A0183E1FD
:10243000809F6001819FD00C1124C6010E94171D4E
:10244000EC01009741F482E090E0F70191838083F2
:102450008DEF9FEFCFCFA60170E060E00E94DA2CF5
:10246000D0939103C093900310939303009392032E
:1024700090E080E02FEF3FEF41E061E070E08017F7
:10248000910741F481E090E0F7019183808390E02F
:1024900080E0B0CF3A8B298B1B864C877E876D8777
:1024A000188A1F8601966396EACFEF92FF921F93D8
:1024B000CF93DF93EC0110E0F12CE12C6A81161729
:1024C000B0F083E0689FB0011124AE014F5E5F4F12
:1024D000C7010E947C1D009721F02FEF3FEF3A8B40
:1024E000298BDF91CF911F91FF90EF900895612F7D
:1024F000CE0181DC61E070E00E94CA1BE816F9069B
:1025000008F47C011F5FDACFF89420918E0330919C
:102510008F0381E02115310509F080E0232B09F0BC
:10252000789408952F923F924F925F926F927F928C
:102530008F929F92AF92BF92CF92DF92EF92FF92D3
:102540000F931F93CF93DF933C01660E771EF30129
:10255000828193814C01B12CA12CC0919003D09128
:102560009103209769F021E030E06091920370912F
:1025700093038617970710F030E020E0232BD1F467
:1025800082E090E0FA01918380838EEF9FEFDF91EC
:10259000CF911F910F91FF90EF90DF90CF90BF9060
:1025A000AF909F908F907F906F905F904F903F90F3
:1025B0002F9008958092270290922802A0922902DB
:1025C000B0922A0263E1689F9001699F300D112447
:1025D000C20FD31FF3018181833040F082E090E08D
:1025E000FA019183808386EF9FEFD1CF2A012B815F
:1025F0003C81232BF1F4288139819F8191FF2EC0EA
:10260000232B09F46FC0209195039A81422F490F23
:102610005527551FBA0141E050E06138710514F0AB
:1026200050E040E0452B09F45DC02A87920F90935B
:1026300095038150823008F481C066DF882309F455
:10264000DAC0F3018181813009F48DC008F47BC0C8
:10265000823009F4C8C090E080E0ADC0232B09F4BB
:1026600041C0209194039A81E22FE90FFF27FF1FB9
:1026700041E050E0ED3FF10514F050E040E0452B23
:1026800089F12A87920F90939403D3CFA081B181CF
:10269000A20FB31F11966C91060F111D0196295FB1
:1026A0003F4F8417950794F38D859E85089F1001F1
:1026B000099F300C189F300C1124C114D104D1F49F
:1026C0008F8184FF17C00E94181CF5E02F0E311C6B
:1026D00021E08215930508F420E0A701435F5F4FD6
:1026E00021110EC082E090E0F2019183808387EF98
:1026F0009FEF4DCF0E94181C2FEF221A320AE8CF0D
:1027000088819981E80EF91EF70114830383FFEF96
:10271000CF1ADF0A7A018A818C151D0409F00CF4A6
:102720008CCFE881F981EE0DFF1D428150E030E051
:1027300020E010E000E090E080E0B3CFF12CE12C4D
:10274000D12CC12CE8CF81E090E09C838B83E4DA2C
:10275000882309F480CF81E090E00E94090B80E497
:102760000E94170B78CF89899A89019661F083E0DE
:1027700090E09C838B8382E090E00E94090B80E4D0
:102780000E94110B68CF8D819E8120911D02309196
:102790001E0282179307D1F46091210270912202E8
:1027A000AE014F5E5F4F80911F02909120020E9408
:1027B0006E1E0097E1F2789422E030E0F20131835E
:1027C0002083892BA9F08DEF9FEFE1CE22E08216C6
:1027D0009104A104B1045CF6029748F6CE0165DECF
:1027E000188A1F86E6CF82E090E09C838B8333CFEC
:1027F00090E080E0CCCE82E090E0F2019183808393
:1028000085EF9FEFC4CE8F929F92AF92BF92CF92EF
:10281000DF92EF92FF920F931F93CF93DF93EA0122
:102820008C01060F171FF8018181833098F082E038
:1028300090E09983888386EF9FEFDF91CF911F917E
:102840000F91FF90EF90DF90CF90BF90AF909F904F
:102850008F9008958091900390919103892B61F05E
:1028600081E090E02091920330919303232B11F4A7
:1028700090E080E0892B39F482E090E099838883AE
:102880008EEF9FEFDACF40DE882309F4E1C0F80134
:102890008181813009F497C0E8F0823099F4209169
:1028A000920330919303E0919003F091910390E0B3
:1028B00080E041E050E02817390709F0BFC02CDA6A
:1028C000811117C0789481E090E09983888390E02B
:1028D00080E0B3CF2091920330919303E091900375
:1028E000F091910390E080E041E050E02817390733
:1028F00041F481E090E00E94090B80E40E94170BF4
:10290000E1CF63817481672B11F054834383019677
:102910007396ECCFE0919003F0919103E00FF11FDB
:102920002381348122303105D9F4218932892F3F26
:102930003F4FB1F42581368140911D0250911E0216
:102940002417350761F5AF014F5E5F4F609121029B
:102950007091220280911F02909120020E946E1EAF
:10296000EFEFCE1ADE0AEE0AFE0A0D5E1F4F40910F
:1029700092035091930370E060E0C416D506E6061A
:10298000F7064CF5009731F27894892B09F49BCF28
:1029900082E090E0998388838DEF9FEF4ECF42E0F5
:1029A000C416D104E104F104DCF622303105C0F68E
:1029B000CF017BDDE0919003F0919103E00FF11FD7
:1029C000108A1786CDCF10E000E090E080E0C12CA7
:1029D000D12C7601CCCF0097B9F610E000E0812C25
:1029E000912C540183E0E82EF12C1AC0E091900361
:1029F000F0919103E00FF11F83819481029749F4D4
:102A0000F482E38282E090E00E94090B80E40E945D
:102A1000110BFFEF8F1A9F0AAF0ABF0A0D5E1F4FFF
:102A20008091920390919303B0E0A0E088169906FC
:102A3000AA06BB06DCF290E080E0A6CF6381748139
:102A40006230710511F4548343830196739633CF3A
:102A500082E090E09983888385EF9FEFEECE009728
:102A6000B9F48FEFFB018083209127023091280277
:102A700043E1429FC001439F900D1124E0919003D8
:102A8000F0919103E80FF91F8285FB01818308957E
:102A90000C94C00A88E090E0FA019183808390E072
:102AA00080E0089510928F0310928E03E0E9F3E026
:102AB00086E0DF011D928A95E9F788ED90E1909319
:102AC0008D0380938C03089580918C0390918D03E6
:102AD00008952F923F924F925F926F927F928F92C2
:102AE0009F92AF92BF92CF92DF92EF92FF920F939D
:102AF0001F93CF93DF93CDB7DEB72F970FB6F89420
:102B0000DEBF0FBECDBFF894E0918E03F0918F032E
:102B10003196F0938F03E0938E0378944090900366
:102B2000509091034114510409F40DC2E0919203B5
:102B3000F0919303EF2B09F406C22D8749875A873A
:102B40006B877C8798878F831201B12CA12C10E0B2
:102B500000E08091920390919303A816B90618F4AF
:102B60000115110529F1F89480918E0390918F033E
:102B7000019790938F0380938E037894C8012F96CA
:102B80000FB6F894DEBF0FBECDBFDF91CF911F917E
:102B90000F91FF90EF90DF90CF90BF90AF909F90FC
:102BA0008F907F906F905F904F903F902F900895FF
:102BB0007101E418F508D10117968C91179781FDE2
:102BC00054C013968D919C911497039709F04DC0B2
:102BD00015968D919C91EF81F8858E179F0709F0CE
:102BE00044C0B50190E080E081D48A8320919003B5
:102BF000309191033D832C833D85332309F44CC0F0
:102C00004C815D81452B09F49BC180919203909189
:102C10009303A816B90608F093C1C501C7D8882345
:102C2000E9F06C817D816E0D7F1D7D836C83DB01FE
:102C30001F968D919C91892B89F0D12CC12CF12C60
:102C4000E12CAC81BD8112968C9112978E151F04D8
:102C500009F094F450961C921E921F972A81222309
:102C600021F0B50190E080E043D43FEFA31AB30A0E
:102C700043E1240E311C6DCFAC81BD81ED91FC91FF
:102C8000EC0DFD1D858196810BD7BFEFEB1AFB0A7A
:102C9000EDE0CE0ED11CD5CFEC81FD81309709F44B
:102CA0004FC18091920390919303A816B90608F042
:102CB00047C1EE0DFF1DFF87EE87C50177D88B83D7
:102CC000882339F1AE85BF851F968D919C915097D1
:102CD000019621E01D964D915C918417950709F0AE
:102CE00020E02E831982712C10E000E0AE85BF85B4
:102CF00012968C91781608F45DC0EE85FF85878565
:102D000090890196658576850E947A2C908B8787BD
:102D1000A5CFB1E0BE83E6CF992493946BC087D64C
:102D2000F6019683858383C0D601ED90FC90B7E0D1
:102D30006B9EE00CF11C1124F7016381748180818A
:102D40008F3F61F121E030E002C0220F331F8A95EE
:102D5000E2F7C901092E000CAA0BBB0BFB01408155
:102D600051816281738184239523A623B72321E0B7
:102D7000892B8A2B8B2B09F420E0D4012C93D701CB
:102D800011968C91F60123853485820F932F911D26
:102D9000880E991E1486138663949CC0418150E06E
:102DA000C4010E94D12CEBCF998206EF1FEFC6C061
:102DB0001982C4C0F981F111A0CFEDE07E9E7001AF
:102DC0001124AE85BF85CD90DC90CE0CDF1C17D4CE
:102DD0009D838C83BB81BB2309F49ECF81E0EE856C
:102DE000FF8527853089232B09F080E0982E8823E2
:102DF00009F459C0672D8E859F850E94FB0ED60170
:102E000018969C938E93179761E070E0C3D4EE857B
:102E1000FF85218932892F3F320709F480CFBC0119
:102E2000C9019DD7D60116969C938E931597D6010E
:102E300015968D919C911697009709F4B5CFEC816A
:102E4000FD818E0F9F1F1A969C938E931997AE85C6
:102E5000BF85ED91FC911197EE0EFF1EF7012185C4
:102E60003285148613861A968C91870DD9018D931D
:102E7000711016C0EE85FF85878184FF11C04985DA
:102E80005A856B857C85F901418352836383748302
:102E9000F701838594850496A80FB91F14861386BD
:102EA000F701B287A187D60115968D919C9116974F
:102EB000892B09F443C0EE85FF85258136818091F9
:102EC0001D0290911E022817390779F019968D90EE
:102ED0009C90612CD60112968C911297681608F47A
:102EE00023CF1A969C928E921997BE81BB2309F428
:102EF0005FCF61E070E0F601878190854BD4D60109
:102F00001796ED90FC90189715964D915C91E1E025
:102F1000F0E0BA81BB2311F0F0E0E0E00C811D810C
:102F20009C01B501882799278E1B9F0B6BD38C01C1
:102F3000892B21F0F60185819681B2D57394D6CE86
:102F40000FEF1FEF8BCE10E000E00DCE2F923F92DF
:102F50004F925F926F927F928F929F92AF92BF92A9
:102F6000CF92DF92EF92FF920F931F93CF93DF9355
:102F7000809190039091910310E000E0892BA9F0DB
:102F8000C3DA0AEF1FEF882381F02090920330907C
:102F90009303C0919003D0919103D12CC12C10E0E8
:102FA00000E02C143D04A9F47894C801DF91CF917E
:102FB0001F910F91FF90EF90DF90CF90BF90AF9057
:102FC0009F908F907F906F905F904F903F902F9049
:102FD0000895C6010E94D60E882309F18B819C8139
:102FE0000397E9F48F859889892BC9F0B60190E0A1
:102FF00080E07CD221E030E0882311F030E020E056
:1030000044245524421A530AB12CA12C912C812C12
:103010008A818815190409F038F4188A1F864FEF41
:10302000C41AD40A6396BDCFE881F981EA0DFB1D6D
:1030300085819681892BA1F161E070E0878190857F
:10304000A9D33C01DCD28C01E881F981EA0DFB1D9A
:103050008185928525813681200F311FAC01421B6D
:10306000530B9A0147815085421B530B70E060E07F
:103070000E94DA2CE881F981EA0DFB1DE780F084DB
:10308000458156819301B601C201BCD28C01892BC6
:1030900039F0E881F981EA0DFB1D8581968100D523
:1030A0005FEF851A950A8DE0A80EB11CB1CF2CCA2E
:1030B000789408952F923F924F925F926F927F92F1
:1030C0009F92AF92BF92CF92DF92EF92FF920F93B7
:1030D0001F93CF93DF9300D000D0CDB7DEB7009120
:1030E000900310919103992493940115110509F40B
:1030F0003EC0A0909203B090930306DA982E8823E6
:10310000B1F11092910310929003109293031092D8
:10311000920310929403109295038FEF9FEFDC01BE
:103120008093270290932802A0932902B0932A0249
:10313000789480D31E830D83C12CD12C7601C501D8
:10314000B0E0A0E089839A83AB83BC8322242A94D5
:10315000322C89819A81AB81BC81C816D906EA06D6
:10316000FB06F4F0C8019CD480E40E94170B892D63
:1031700026960FB6F894DEBF0FBECDBFDF91CF917C
:103180001F910F91FF90EF90DF90CF90BF90AF9085
:103190009F907F906F905F904F903F902F900895F9
:1031A000AD81BE8115968D919C91169720911D023F
:1031B00030911E0282179307D1F451968D919C9104
:1031C000BCD5ED81FE8180819181B12CA12C412C57
:1031D000512C3201892B91F5BFEFCB1ADB0AEB0A98
:1031E000FB0AED81FE817396FE83ED83B2CFB2E0E0
:1031F000CB16D104E104F10424F7029710F7ED8116
:10320000FE81818992898F3F980709F011D5AD81A0
:10321000BE8152963C922E925197D3CF8A0D9B1D20
:10322000DC018D919C91009709F03AD4BFEF4B1AC5
:103230005B0A6B0A7B0AEDE0AE0EB11CAD81BE816C
:103240008D919C91119712964C9150E070E060E046
:1032500044165506660677060CF322D4BDCFCF93ED
:10326000DF93EA0127DF811109C082E090E09983B2
:10327000888385EF9FEFDF91CF91089581E090E003
:103280000E94090B81E090E09983888390E080E0C0
:10329000F2CF10DF10928D0310928C03089542E05C
:1032A00050E062EB72E00C94270BFF920F931F9398
:1032B000CF93DF938A01EC01C60FD71FF980B9D2F3
:1032C0000897F816190671F068F082E090E0F801AE
:1032D000918380838EEF9FEFDF91CF911F910F91AC
:1032E000FF9008956C817D818E819F814B810E942A
:1032F000BC0D811108C082E090E0F80191838083C9
:1033000084EF9FEFE9CFF9800E94B70D4F2D50E079
:10331000BE01685F7F4F0E94D12C89810E94260EDA
:1033200081E090E0F8019183808390E080E0D4CF49
:10333000DF92EF92FF920F931F93CF93DF938A0157
:10334000EC01C60FD71F0E94B70D7C01D98071D246
:10335000DD2059F0029721E030E0D816190619F067
:1033600010F030E020E0232B79F482E090E0F801C7
:10337000918380838EEF9FEFDF91CF911F910F910B
:10338000FF90EF90DF900895EF2841F482E090E005
:10339000F8019183808384EF9FEFEECFF9800E9444
:1033A000B70D4F2D50E0BE016E5F7F4F0E94D12CB4
:1033B00089810E94260E81E090E0F801918380834C
:1033C00090E080E0D9CF8FE499E1909397038093C8
:1033D0009603089580919603909197030895089518
:1033E000FC0111821082938382830895DB011D9278
:1033F0001C92DC011296ED91FC911397718360830E
:1034000013967C936E9312970895FC0180819181AD
:10341000DB018D939C93A081B181109741F08D9138
:103420009C9191838083892B11F4F383E283089527
:10343000FC0180819181DB018D939C93892B11F498
:1034400073836283718360830895FC01118210820B
:10345000938382830895CF93DF931F921F92CDB7FA
:10346000DEB71A821982F894BE016F5F7F4F8DE933
:1034700093E0CBDF89819A81009709F011D389818C
:103480009A81892B89F7BE016F5F7F4F81EA93E0B4
:10349000BCDF89819A81009709F002D389819A81E2
:1034A000892B89F778940F900F90DF91CF91089531
:1034B000CF93DF931F921F92CDB7DEB71A82198286
:1034C000F894BE016F5F7F4F89E993E09EDF8981A9
:1034D0009A81009709F0E4D289819A81892B89F732
:1034E00078940F900F90DF91CF91089581E0089527
:1034F00090E080E00895EF92FF920F931F93CF9397
:10350000DF931F921F92CDB7DEB71A821982809186
:10351000980307EF1FEF8823A1F1F894BE016F5FB6
:103520007F4F81EA93E071DF789489819A81EE245C
:10353000E394F12C892B51F4F894BE016F5F7F4F17
:103540008DE993E062DF7894F12CE12C89819A81F6
:103550000EEF1FEF0097A9F0FC014281538164E058
:1035600070E041D68C01892B61F0F89469817A81F1
:10357000C701880F991F880F991F83569C4F58DFEA
:103580007894C8010F900F90DF91CF911F910F9108
:10359000FF90EF9008950F931F93CF93DF9300D088
:1035A0001F92CDB7DEB71C821B821A8219828091CE
:1035B000980307EF1FEF8823C1F0AE014D5F5F4F07
:1035C00064E070E0CE01019681D68C01892B69F40C
:1035D000E981FA818B819C8193838283F89469814C
:1035E0007A8189E993E002DF7894C8010F900F9007
:1035F0000F900F90DF91CF911F910F91089586D773
:10360000049608958F929F92AF92BF92CF92DF92CD
:10361000EF92FF920F931F93CF93DF931F921F920E
:10362000CDB7DEB71A821982BC016F5F7F4F63305E
:10363000710598F0AA24AA94BA2CC5010F900F9096
:10364000DF91CF911F910F91FF90EF90DF90CF907E
:10365000BF90AF909F908F9008954115510551F301
:10366000480159018A016C01CADF8815990511F7D3
:10367000E114F104F9F28E0D9F1DA816B906D0F2DF
:10368000809198038823F1F0F894B5016450710992
:103690009701AE014F5F5F4FC8010496ACD65C0145
:1036A000892B71F489819A81F80193838283C60101
:1036B000880F991F880F991FB80183569C4F96DE7B
:1036C0007894BBCF87EFA82EBB24BA94B6CFAF9225
:1036D000BF92CF92DF92EF92FF920F931F93CF93FF
:1036E000DF931F921F92CDB7DEB71A821982892B02
:1036F00009F047C06115710509F443C04115510532
:1037000009F43FC02115310509F43BC0011511052D
:10371000C1F1809198038823B9F179016A015B01B5
:10372000F894BE016F5F7F4F89E993E06EDE789475
:1037300089819A81009759F1DC0112966D917C91F3
:10374000A801049671D68C01E981FA81D501ED9327
:10375000FC93828193810496F601918380834FDFED
:10376000D7018D939C93C8010F900F90DF91CF915B
:103770001F910F91FF90EF90DF90CF90BF90AF908F
:1037800008950FEF1FEFEFCF07EF1FEFECCF0EEF16
:103790001FEFE9CFCF93DF93EC01672B71F4BFD616
:1037A0008C179D0760F0B2D62496C80FD91FB1D6EA
:1037B0008C0F9D1FDF91CF910895AED6F1CF90E091
:1037C00080E0F8CF0F931F93CF93DF93209198035E
:1037D00021112BC08B01EC018DE993E001DE81EA20
:1037E00093E0FEDD89E993E0FBDD97D00097C1F41B
:1037F00096D670E060E0CEDF4BE252E062E070E02F
:103800007BD1009769F480912B0290912C0299D67C
:10381000B801CE01CED4009719F421E0209398038B
:10382000DF91CF911F910F91089584EF9FEFF8CF13
:1038300073C675C6CF93DF9375D6EC01892B11F44F
:103840000ADE36DECE01DF91CF910895CF93DF936C
:1038500069D6EC01892B09F4FEDDCE01DF91CF9111
:10386000089580912B0290912C020895CF93DF93BD
:1038700080919803D0E0C0E08823D1F067D6EC01B6
:10388000892BB1F4E8DD14DE80912B0290912C029B
:10389000CFD1B5D2EC01892B59F48DE993E0D5DD78
:1038A00081EA93E0D2DD89E993E0CFDD10929803BD
:1038B000CE01DF91CF910895EF92FF920F931F9366
:1038C000CF93DF93EC017A018B010F5F1F4F0E9DA9
:1038D000A0010F9D500D1E9D500D112470E060E061
:1038E0000E94DA2C90E080E0F0E0E0E02FEFE816B4
:1038F000F90639F4DF91CF911F910F91FF90EF906E
:1039000008951A8219822883309711F0D283C183D7
:103910000196FE01C00FD11FEACFAF92BF92CF92A6
:10392000DF92EF92FF920F931F93CF93DF9387E085
:1039300095E07C012CEFE22243E050E06DE272E082
:1039400083E392E0E3D38DE2C82E82E0D82E93E3A6
:10395000A92E92E0B92EC0EDD5E08E01D6014D9191
:103960005D916D01F501619171915F01D801119631
:10397000FC92EE9215965C934E93149713965C937B
:103980004E93129717967C936E9316979B012F5F19
:103990003F4F249FC001259F900D349F900D11240F
:1039A00019969C938E931897E114F10411F0C701B6
:1039B00083DFF80180859185E80EF91E065F1F4FB1
:1039C000F3E3CF16F2E0DF0649F6E7EAF3E08DE530
:1039D00091E0DF019C011D9221503040E1F71092EF
:1039E000A6031092A5031F8E1E8E1BA21AA219A257
:1039F00018A21DA21CA21FA21EA22A9635E0CE3E2E
:103A0000D30789F71092CD051092CC051092CF05FF
:103A10001092CE0590E080E0DF91CF911F910F9141
:103A2000FF90EF90DF90CF90BF90AF9008950097F8
:103A3000F1F0F894A3E3B2E0E0EDF5E030E020E04F
:103A40004D915D9148175907A8F042815381411566
:103A5000510581F08AE0829FF001839FF00D1124CF
:103A6000E053FA4F80819181009759F4789490E067
:103A700080E008952F5F3F4F3A962330310501F7DC
:103A8000F5CFDC0111966D917C917183608341507B
:103A9000510953834283FC012193CF017894089507
:103AA000009749F1DC018E91863041F4E091CE051A
:103AB000F091CF053097F9F0CD0119948630D8F404
:103AC000282F30E0F8948FEF8C938AE0829FF001EA
:103AD000839FF00D1124E053FA4F8081918112965B
:103AE0009C938E931197B183A083828193810196D9
:103AF0009383828378940895CF92DF92EF92FF921E
:103B00000F931F93CF93DF939C018AEA93E08C7FFE
:103B10004115510509F489C02115310509F485C005
:103B20006115710509F481C08A01AB01B9016D5FAE
:103B30007F4F6C7F9B012F5F3F4F249F7001259F1C
:103B4000F00C349FF00C1124F894E0EDF5E023E044
:103B500030E0E901A6A1B7A1C68CD78CCD2809F029
:103B600058C0109709F03EC0C090A503D090A6039E
:103B70002AE531E02C193D092E153F0530F47894E3
:103B8000CFEFDFEF86EF9FEF21C02AE02C9FF001FF
:103B90002D9FF00D1124E053FA4F918380835583BC
:103BA00044835383428377836683F186E08600975C
:103BB00009F082DEEC0CFD1CF092A603E092A50356
:103BC0007894CF3FDC07F1F290E080E0F801D183F8
:103BD000C083DF91CF911F910F91FF90EF90DF9005
:103BE000CF900895AE15BF05A0F02AE02C9FF001FC
:103BF0002D9FF00D1124E053FA4F9183808355835C
:103C0000448353834283778366830097C9F254DEEB
:103C1000D7CF8A0F9B1F2F5F3F4F3A962630310533
:103C200009F097CFCFEFDFEFCBCF8FEF9FEFD1CF63
:103C30009C010397039708F04EC0F89485E09AE042
:103C4000482F50E0241735079CF191E08AE0829FCD
:103C5000F001839FF00D1124E053FA4F118210827E
:103C60001582148213821282178216829923E1F040
:103C70008091A5039091A603E0EDF5E0268D378DA8
:103C8000232B49F426A137A12115310521F0821BF0
:103C9000930B17A216A23A9625E0EE3EF20771F7B3
:103CA0009093A6038093A503789490E080E0089514
:103CB000949FF001959FF00D1124E053FA4F40813D
:103CC0005181452B31F440855185452B11F48150AC
:103CD000B7CF90E0BBCF8FEF9FEF0895411551050F
:103CE00049F1009739F16115710521F1F89420919E
:103CF000CC053091CD05232BB9F42091CE05309120
:103D0000CF05232B89F49093CD058093CC05709338
:103D1000CF056093CE05789426E030E090E080E017
:103D2000FA0131832083089578942FEF3FEF86EFD7
:103D30009FEFF6CF8FEF9FEF0895069769F4F89401
:103D40001092CD051092CC051092CF051092CE05A1
:103D5000789490E080E008958FEF9FEF08956115CB
:103D6000710519F4F0E0E0E011C08630910581F4AE
:103D7000E091CC05F091CD053097A1F3CB010196F0
:103D80001995009779F3FC0186E08193CF0108959E
:103D90009C01235031092330310520F72AE0289F68
:103DA000D001299FB00D1124A053BA4F2D913C9101
:103DB0001197232BB9F216962D913C911797261740
:103DC000370780F2F89412962D913C9113972115A4
:103DD000310529F0ED91FC911197309711F4789409
:103DE000C1CF4181528111965C934E93215031098C
:103DF00013963C932E93129781937894C7CFE4E067
:103E0000F5E088ECDF011D928A95E9F7E7EAF3E037
:103E10008DE591E0DF019C011D9221503040E1F7DA
:103E20001092A6031092A503E0EDF5E08CE3DF010C
:103E30001D928A95E9F7ECECF5E084E0DF011D9234
:103E40008A95E9F790E080E00895CF93DF93C091E1
:103E50003902D0913A02CF3FDC0759F420D4909335
:103E60003A028093390297FF09C0D0933A02C09377
:103E7000390284EF9FEFDF91CF91089590E080E0C9
:103E8000FACF8230910528F480930C0690E080E010
:103E900008958FEF9FEF08954F925F926F927F92F8
:103EA000AF92BF92CF92DF92EF92FF920F931F9348
:103EB000CF93DF931F921F92CDB7DEB71A8219827C
:103EC000009709F478C06115710509F474C0209158
:103ED000390230913A0207EF1FEF2F3F3F4F09F4AD
:103EE00044C06B015C01412C512C3201F12CE12CBE
:103EF00010E000E09E012F5F3F4FA6014E195F09C1
:103F0000B5016E0D7F1D8091390290913A0226D441
:103F1000892B09F04AC089819A81009741F4E11404
:103F2000F10429F420910C06222309F441C0E80E83
:103F3000F91EEC14FD04C8F480E8481684E858061D
:103F40008EE16806710418F560E070E0CB01ACD733
:103F50002AE0420E511C611C711C0A3F4FEF1407EE
:103F600021F0043F8FEF1807A1F4C8010F900F90C4
:103F7000DF91CF911F910F91FF90EF90DF90CF9045
:103F8000BF90AF907F906F905F904F90089501EF3A
:103F90001FEF81E090E0013F2FEF120711F090E05A
:103FA00080E0892B09F4A6CFE0CF04EF1FEFDDCF2F
:103FB0000AEF1FEFDACF0FEF1FEFD7CF4F925F92CD
:103FC0006F927F92AF92BF92CF92DF92EF92FF9269
:103FD0000F931F93CF93DF931F921F92CDB7DEB73E
:103FE0001A821982009709F478C06115710509F4E5
:103FF00074C02091390230913A0207EF1FEF2F3F32
:104000003F4F09F444C06B015C01412C512C32013B
:10401000F12CE12C10E000E09E012F5F3F4FA60144
:104020004E195F09B5016E0D7F1D80913902909187
:104030003A024AD3892B09F04AC089819A810097B4
:1040400041F4E114F10429F420910C06222309F42F
:1040500041C0E80EF91EEC14FD04C8F480E44816D3
:1040600082E458068FE06806710418F560E070E09D
:10407000CB011AD72AE0420E511C611C711C0E3F65
:104080004FEF140721F0043F8FEF1807A1F4C80188
:104090000F900F90DF91CF911F910F91FF90EF90B4
:1040A000DF90CF90BF90AF907F906F905F904F90D8
:1040B000089502EF1FEF81E090E0023F2FEF12071B
:1040C00011F090E080E0892B09F4A6CFE0CF04EF57
:1040D0001FEFDDCF0EEF1FEFDACF0FEF1FEFD7CFC0
:1040E0008091390290913A028F3F980749F0CFD2E0
:1040F000892B49F48FEF9FEF90933A028093390216
:1041000090E080E0089584EF9FEF0895CF92DF92D2
:10411000EF92FF920F931F93CF93DF9321E041150E
:10412000510509F020E04150510921112CC0DC015A
:10413000FB01D12CC12C21E022C03FEFC31AD30ACE
:104140007D010D911D91E701EA80FB80E016F106EB
:10415000A8F420813181E280F380F182E082338310
:104160002283ED90FC9011979D0122503109E901C5
:10417000F982E88211961C930E9320E03296C416C1
:10418000D506D8F2D2CFDF91CF911F910F91FF903A
:10419000EF90DF90CF900895FC01680F791F90E0B9
:1041A00080E0E617F70709F408952191820F911D29
:1041B000F8CF20910D06211113C047DE009791F42E
:1041C0001092130610921206109211061092100609
:1041D00010920F0610920E0621E020930D0608950E
:1041E00084EF9FEF0895AF92BF92CF92DF92EF924C
:1041F000FF920F931F93CF93DF93009709F460C052
:104200004630510508F45CC020910D06C7EFDFEF82
:10421000222309F449C08C01060F171FF801C08042
:10422000D180C114D10409F44EC096012A5F3F4FDA
:104230004217530708F447C07C0180911206909101
:10424000130693838283B6016C5F7F4F5801A60EDD
:10425000B71EC801A1DFF5019183808364E070E09F
:10426000C8011ADEEC01892BF9F481E090E009DE47
:10427000B601C801049610DEEC01892B91F462E0CE
:1042800070E0C50109DEEC01892B59F4C70108DC97
:1042900080911206909113060196909313068093D5
:1042A000120690E080E0EDDDCE01DF91CF911F910D
:1042B0000F91FF90EF90DF90CF90BF90AF90089557
:1042C000CFEFDFEFF1CFC9EFDFEFEECF6F927F924D
:1042D0008F929F92AF92BF92CF92DF92EF92FF9216
:1042E0000F931F93CF93DF9300D01F92CDB7DEB70C
:1042F000009709F47AC04115510509F476C0209160
:104300000D0607EF1FEF222309F44DC03A017B0190
:104310005C0164E070E0CE01019650DE8C01892BD7
:1043200009F041C009811A810115110509F45AC02B
:10433000480186E0880E911CB701680D791D8091B7
:104340003B0290913C020BDD6C01009709F450C0D8
:10435000A70170E060E00E94DA2C89819A81AB812C
:10436000BC81EC0CFD1CF70181939193A193B19357
:104370007F0181E090E085DDB801C7011FDE892B58
:1043800031F562E070E0C701800F911F17DE8C01EC
:10439000892BE9F490E080E074DDF501D182C082E0
:1043A000F30191828082C8010F900F900F900F90BF
:1043B000DF91CF911F910F91FF90EF90DF90CF9001
:1043C000BF90AF909F908F907F906F90089590E0F6
:1043D00080E057DDF50111821082F3011182108215
:1043E000C6015EDB09EF1FEFDECF0FEF1FEFDBCF64
:1043F00006EF1FEFD8CF0097A1F04115510589F0C6
:104400002115310571F0F90136966E177F0748F0D6
:10441000DC012D933C93DA01ED93FC9390E080E076
:1044200008958FEF9FEF0895AF92BF92CF92DF92E2
:10443000EF92FF920F931F93CF93DF93009709F4AE
:104440005FC04115510509F45BC06530710508F482
:1044500057C020910D06C7EFDFEF222391F1DC0159
:10446000CD90DC9011971296ED91FC9196012A5F08
:104470003F4FC9EFDFEF2617370719F5C0910E063A
:10448000D0910F06209749F521E030E030930F06D8
:1044900020930E067A018C01F0931106E09310062A
:1044A0005601B4E0AB0EB11CB50176DE0A0D1B1D42
:1044B000F801208131818217930729F5D701CD9228
:1044C000DC92CE01DF91CF911F910F91FF90EF9081
:1044D000DF90CF90BF90AF9008952091100630915B
:1044E00011062F5F3F4FCCEFDFEFE217F30790F29B
:1044F000CBEFDFEF2E173F0768F2D0E0C0E0CACF66
:10450000CFEFDFEFDECFC3EFDFEFDBCF84E090E074
:10451000089582E090E008958CEF9FEF089580E287
:1045200090E0089510921306109212061092110650
:104530001092100610920F0610920E0690E080E086
:10454000089590933C0280933B02089580910D065C
:10455000882391F0C5DD009789F41092130610921C
:104560001206109211061092100610920F06109269
:104570000E0610920D06089590E080E008950097D1
:1045800049F06115710531F0FC0111821082FB01C7
:10459000118210820895F3CF26E030E040E855E222
:1045A00060E070E090E080E000C08130910569F04B
:1045B0001CF4892B39F008958230910549F0039756
:1045C00051F0089584E296E0C8C681EC96E0FCCFF5
:1045D0008EE597E0F9CF8BEF97E0F6CF1F920F9221
:1045E0000FB60F9211240BB60F922F933F934F9358
:1045F0005F936F937F938F939F93AF93BF93EF934B
:10460000FF9386E997EE9093250180932401BAD019
:10461000FF91EF91BF91AF919F918F917F916F919A
:104620005F914F913F912F910F900BBE0F900FBE56
:104630000F901F90189586E997EE9093250180932F
:104640002401A3E7B0E08C918E7F8C93E0E2F1E04F
:1046500080818C7F8083E1E2F1E08081877E8083AE
:1046600080818460808380818C7F80838C91816055
:104670008C930895E3E7F0E0808190819E7F9083A2
:104680008170089581E0089510921406089568EEEF
:1046900073E080E090E008D490E080E0089526E0A8
:1046A00030E040E050E16EE070E090E080E07DDFDF
:1046B00084E296E088D5892B21F084E296E09DD5AE
:1046C000F7CF90E080E00895CF92DF92EF92FF92D3
:1046D0000F931F93CF93DF936B017A01E901198246
:1046E000188284E296E06FD5892B69F18601CC248B
:1046F000C39482E0D82E80911406811110C084E208
:1047000096E07BD50297B9F7C0921406F801D192D2
:104710008F0188819981019699838883ECCF888164
:1047200099818E159F0578F484E296E066D58F3FD7
:104730009807A9F3F80181938F01888199810196E7
:1047400099838883ECCF90E080E0DF91CF911F9137
:104750000F91FF90EF90DF90CF9008950F931F93EC
:10476000CF93DF93EA01890184E296E00E943D2C19
:10477000F801D183C08390E080E0DF91CF911F9159
:104780000F9108958F929F92AF92BF92CF92DF9236
:10479000EF92FF92CF93DF931F921F92CDB7DEB7B8
:1047A0008091170691E0980F909317068823A9F03F
:1047B00021E030E030931A06209319068093170603
:1047C0000F900F90DF91CF91FF90EF90DF90CF90FF
:1047D000BF90AF909F908F900895CE0101960E9458
:1047E000DC027894E0903E02F0903F02F701828C68
:1047F000938CA48CB58C0E943303B501A40190E086
:1048000080E00E944F02F8948091170681508093B7
:1048100017068A81882389F08091160691E0980F07
:1048200090931606882349F021E030E030931A0671
:104830002093190680931606C3CF8091160688230D
:1048400009F4BECF809118068111BACF81E0809320
:1048500018067894F70182A193A124E1289F6001B2
:10486000299FD00C1124F12CE12C0E949803B70150
:10487000A60181E090E00E944F02F8948091160614
:1048800081508093160680911806815080931806F7
:1048900097CF0F931F93CF93DF931092C00810927E
:1048A000BF0838D379DEC0913E02D0913F02198211
:1048B00018826FEF7FEFCB010E94D10270E060E0C1
:1048C00090E080E00E944F01009709F03AC00E94FA
:1048D0003404F8947894BE016A5D7F4F8A819B818D
:1048E0000E945201892B59F46FEF7FEFCB010E9498
:1048F000E5010E94CB02882311F081E08AA7F89499
:104900009ADE0E94CE02882311F080E008C00E9447
:10491000CB028111FACF81E09AA59111F6CF809355
:10492000BF0878940E94040B8C0178948091BF0892
:1049300081110CC00E94C8040E94B102F89490E05A
:1049400080E0DF91CF911F910F9108950E94AF02F7
:104950000E94CE028823D9F081E08093C008909114
:10496000C00881E0911180E08093BF088091C00869
:10497000811180DE0130110529F40E94040B892B7E
:1049800009F482DE0E94040B8C017CDECFCF0E94F2
:10499000CB028111E1CF81E09AA59111DECF80E0B9
:1049A000DCCF5058BB27AA270ED057C148D130F0D2
:1049B0004DD120F031F49F3F11F41EF43DC10EF4AF
:1049C000E095E7FB0AC1E92F59D180F3BA176207D6
:1049D00073078407950718F071F49EF588C10EF4EB
:1049E000E0950B2EBA2FA02D0B01B90190010C01FF
:1049F000CA01A0011124FF27591B99F0593F50F417
:104A0000503E68F11A16F040A22F232F342F44276E
:104A1000585FF3CF469537952795A795F040539566
:104A2000C9F77EF41F16BA0B620B730B840BBAF036
:104A30009150A1F0FF0FBB1F661F771F881FC2F7A1
:104A40000EC0BA0F621F731F841F48F487957795B5
:104A50006795B795F7959E3F08F0B3CF9395880F6C
:104A600008F09927EE0F97958795089529D180F042
:104A70009F3740F491110EF43BC160E070E080E894
:104A80009FE3089526F01B16611D711D811DABC0AB
:104A9000C5C07FD008F481E00895F8D088F09F5712
:104AA00090F0B92F9927B751A0F0D1F0660F771F7A
:104AB000881F991F1AF0BA95C9F712C0B13081F05A
:104AC00016D1B1E0089513C1672F782F8827B85FFA
:104AD00039F0B93FCCF3869577956795B395D9F7BB
:104AE0003EF490958095709561957F4F8F4F9F4FC5
:104AF0000895E89409C097FB3EF4909580957095D1
:104B000061957F4F8F4F9F4F9923A9F0F92F96E919
:104B1000BB279395F695879577956795B795F1118E
:104B2000F8CFFAF4BB0F11F460FF1BC06F5F7F4F2B
:104B30008F4F9F4F16C0882311F096E911C077233D
:104B400021F09EE8872F762F05C0662371F096E846
:104B5000862F70E060E02AF09A95660F771F881F15
:104B6000DAF7880F9695879597F90895A9D080F080
:104B70009F3740F491110EF0BBC060E070E080E818
:104B80009FEB089526F41B16611D711D811D2BC01E
:104B900045C0990F0008550FAA0BE0E8FEEF161666
:104BA0001706E807F907C0F012161306E407F50721
:104BB00098F0621B730B840B950B39F40A2661F095
:104BC000232B242B252B21F408950A2609F4A14038
:104BD000A6958FEF811D811D089597F99F6780E845
:104BE00070E060E00895882371F4772321F09850F5
:104BF000872B762F07C0662311F499270DC090519B
:104C0000862B70E060E02AF09A95660F771F881F68
:104C1000DAF7880F9695879597F908959F3F31F0B9
:104C2000915020F4879577956795B795880F911DDA
:104C30009695879597F908959FEF80EC0895002445
:104C40000A941616170618060906089500240A94F1
:104C500012161306140605060895092E0394000C77
:104C600011F4882352F0BB0F40F4BF2B11F460FF06
:104C700004C06F5F7F4F8F4F9F4F089557FD90582F
:104C8000440F551F59F05F3F71F04795880F97FB10
:104C9000991F61F09F3F79F08795089512161306CA
:104CA0001406551FF2CF4695F1DF08C016161706F9
:104CB0001806991FF1CF869571056105089408952E
:104CC000E5DFA0F0BEE7B91788F4BB279F3860F492
:104CD0001616B11D672F782F8827985FF7CF869516
:104CE00077956795B11D93959639C8F30895E89423
:104CF000BB2766277727CB0197F908954ADF08F489
:104D00008FEF08950BD0A9CF9ADF28F09FDF18F01E
:104D1000952309F062CF90CF1124EACFAFDFA0F343
:104D2000959FD1F3950F50E0551F629FF001729F40
:104D3000BB27F00DB11D639FAA27F00DB11DAA1F5F
:104D4000649F6627B00DA11D661F829F2227B00DAC
:104D5000A11D621F739FB00DA11D621F839FA00D37
:104D6000611D221F749F3327A00D611D231F849F87
:104D7000600D211D822F762F6A2F11249F575040DE
:104D80008AF0E1F088234AF0EE0FFF1FBB1F661F79
:104D9000771F881F91505040A9F79E3F510570F032
:104DA0001CCFA6CF5F3FECF3983EDCF3869577955A
:104DB0006795B795F795E7959F5FC1F7FE2B880F2D
:104DC000911D9695879597F908951F920F920FB6AA
:104DD0000F9211242F933F938F939F93AF93BF9381
:104DE00080911C0690911D06A0911E06B0911F0691
:104DF00030911B0623E0230F2D3758F50196A11D96
:104E0000B11D20931B0680931C0690931D06A09352
:104E10001E06B0931F068091200690912106A09156
:104E20002206B09123060196A11DB11D8093200694
:104E300090932106A0932206B0932306BF91AF91D1
:104E40009F918F913F912F910F900FBE0F901F90C8
:104E5000189526E8230F0296A11DB11DD2CF3FB7AA
:104E6000F8948091200690912106A0912206B0919D
:104E7000230626B5A89B05C02F3F19F00196A11D5A
:104E8000B11D3FBFBA2FA92F982F8827BC01CD0194
:104E9000620F711D811D911D42E0660F771F881FF3
:104EA000991F4A95D1F708958F929F92AF92BF9222
:104EB000CF92DF92EF92FF926B017C01D0DF4B012A
:104EC0005C01C114D104E104F104D9F003D5C7DFBA
:104ED000681979098A099B09683E73408105910523
:104EE00080F321E0C21AD108E108F10888EE880EAB
:104EF00083E0981EA11CB11CC114D104E104F1048B
:104F000031F7FF90EF90DF90CF90BF90AF909F90E0
:104F10008F900895789484B5826084BD84B5816053
:104F200084BD85B5826085BD85B5816085BDEEE6B1
:104F3000F0E0808181608083E1E8F0E01082808190
:104F400082608083808181608083E0E8F0E08081FE
:104F500081608083E1EBF0E0808184608083E0EB1E
:104F6000F0E0808181608083E1E9F0E0808182600F
:104F70008083808181608083E0E9F0E080818160CE
:104F80008083E1EAF0E080818260808380818160BB
:104F90008083E0EAF0E0808181608083E1E2F1E0FB
:104FA000808182608083808181608083E0E2F1E0A3
:104FB000808181608083EAE7F0E080818460808383
:104FC000808182608083808181608083808180682D
:104FD00080831092C10008958150823108F059C039
:104FE000E82FF0E08827E950F84D8F4FB9C4172813
:104FF0001B2809280F28132849281E282428282878
:105000002E28322836283C284028492844284A2877
:105010004E28809180008F77809380000895809142
:1050200080008F7DF9CF80918000877FF5CF84B598
:105030008F7784BD089584B58F7DFBCF8091B000BC
:105040008F778093B00008958091B0008F7DF9CF65
:10505000809190008F7780939000089580919000C8
:105060008F7DF9CF80919000877FF5CF8091A00050
:105070008F778093A00008958091A0008F7DF9CF55
:105080008091A000877FF5CF809120018F7780935A
:1050900020010895809120018F7DF9CF809120011A
:1050A000877FF5CFCF93DF9390E0FC01E65DFE4F65
:1050B000249180599E4FFC0184918823C9F090E08F
:1050C000880F991FFC01E651FE4FA591B491FC0198
:1050D000E053FE4FC591D49161110DC09FB7F89474
:1050E0008C91209582238C938881282328839FBFCD
:1050F000DF91CF910895623051F49FB7F8943C91BD
:10510000822F809583238C93E8812E2BEFCF8FB74E
:10511000F894EC912E2B2C938FBFEACF1F93CF9353
:10512000DF93282F30E0F901EC51FF4F8491F90112
:10513000E65DFE4FD491F901E059FE4FC491CC23B6
:10514000A1F0162F811148DFEC2FF0E0EE0FFF1FCA
:10515000E053FE4FA591B4918FB7F894EC911111E3
:1051600008C0D095DE23DC938FBFDF91CF911F91D4
:105170000895DE2BF8CFCF93DF93282F30E0F9018D
:10518000EC51FF4F8491F901E65DFE4FD491F90196
:10519000E059FE4FC491CC2399F081111DDFEC2F13
:1051A000F0E0EE0FFF1FEA54FE4FA591B491EC9191
:1051B000ED2381E090E009F480E0DF91CF91089544
:1051C00080E090E0FACFFC01918D228D892F90E054
:1051D000805C9F4F821B91098F7399270895FC0172
:1051E000918D828D981731F0828DE80FF11D858D9C
:1051F00090E008958FEF9FEF0895FC01918D828DCF
:10520000981761F0A28DAE0FBF2FB11D5D968C91E6
:10521000928D9F5F9F73928F90E008958FEF9FEF25
:105220000895FC01538D448D252F30E0842F90E0AC
:10523000821B930B541710F0CF9608950197089591
:10524000FC01A48DA80FB92FB11DA35ABF4F2C91FB
:10525000848D90E001968F739927848FA689B789F2
:105260002C93A089B1898C91837080648C93938DE9
:10527000848D981306C00288F389E02D80818F7D8C
:1052800080830895CF93DF93EC01888D8823B1F05C
:10529000AA89BB89E889F9898C9185FD03C0808141
:1052A00086FD0CC00FB607FCF7CF8C9185FFF2CFBF
:1052B000808185FFEDCFCE01C3DFEACFDF91CF91B3
:1052C0000895EF92FF920F931F93CF93DF93EC011A
:1052D00081E0888F9B8D8C8D98131AC0E889F9899D
:1052E000808185FF15C09FB7F894EE89FF896083A0
:1052F000E889F98980818370806480839FBF81E021
:1053000090E0DF91CF911F910F91FF90EF90089562
:10531000F62E0B8D10E00F5F1F4F0F731127E02E3D
:105320008C8D8E110BC00FB607FCFACFE889F98976
:10533000808185FFF5CFCE0183DFF2CFEB8DEC0FBF
:10534000FD2FF11DE35AFF4FF0829FB7F8940B8FAA
:10535000EA89FB8980818062D0CFCF92DF92EF9281
:10536000FF921F93CF93DF93EC016A017B01122F11
:10537000E889F98982E08083C11481EED806E104CE
:10538000F10499F060E079E08DE390E0A7019601E7
:10539000C5D2215031094109510956954795379594
:1053A0002795211580E1380790F0E889F989108266
:1053B00060E874E88EE190E0A7019601AFD2215039
:1053C0003109410951095695479537952795EC853F
:1053D000FD853083EE85FF852083188EEC89FD895D
:1053E0001083EA89FB89808180618083EA89FB8957
:1053F000808188608083EA89FB89808180688083DE
:10540000EA89FB8980818F7D8083DF91CF911F9115
:10541000FF90EF90DF90CF9008951F920F920FB6FC
:105420000F9211240BB60F922F938F939F93EF93AC
:10543000FF93E0913406F09135068081E0913A06C1
:10544000F0913B0682FD1DC0908180913D068F5FEB
:105450008F7320913E06821741F0E0913D06F0E007
:10546000EC5DF94F958F80933D06FF91EF919F91F1
:105470008F912F910F900BBE0F900FBE0F901F902A
:1054800018958081F2CF1F920F920FB60F921124C0
:105490000BB60F922F933F934F935F936F937F932E
:1054A0008F939F93AF93BF93EF93FF9384E296E024
:1054B000C7DEFF91EF91BF91AF919F918F917F9147
:1054C0006F915F914F913F912F910F900BBE0F9075
:1054D0000FBE0F901F901895E4E2F6E0138212823F
:1054E00088EE93E0A0E0B0E084839583A683B78341
:1054F00082EC92E09183808385EC90E095878487AD
:1055000084EC90E09787868780EC90E0918B808B8D
:1055100081EC90E0938B828B82EC90E0958B848B76
:1055200086EC90E0978B868B118E128E138E148EE4
:1055300008951F920F920FB60F9211240BB60F927F
:105540002F938F939F93EF93FF93E091D106F09168
:10555000D2068081E091D706F091D80682FD1DC069
:1055600090818091DA068F5F8F732091DB0682171E
:1055700041F0E091DA06F0E0EF53F94F958F809318
:10558000DA06FF91EF919F918F912F910F900BBEB3
:105590000F900FBE0F901F9018958081F2CF1F9231
:1055A0000F920FB60F9211240BB60F922F933F93C9
:1055B0004F935F936F937F938F939F93AF93BF931B
:1055C000EF93FF9381EC96E03BDEFF91EF91BF916B
:1055D000AF919F918F917F916F915F914F913F918B
:1055E0002F910F900BBE0F900FBE0F901F9018952C
:1055F000E1ECF6E01382128288EE93E0A0E0B0E0E6
:1056000084839583A683B78382EC92E09183808321
:105610008DEC90E0958784878CEC90E09787868767
:1056200088EC90E0918B808B89EC90E0938B828B5F
:105630008AEC90E0958B848B8EEC90E0978B868B38
:10564000118E128E138E148E08951F920F920FB624
:105650000F9211240BB60F922F938F939F93EF937A
:10566000FF93E0916E07F0916F078081E0917407DE
:10567000F091750782FD1DC09081809177078F5F43
:105680008F7320917807821741F0E0917707F0E05F
:10569000E25AF84F958F80937707FF91EF919F9192
:1056A0008F912F910F900BBE0F900FBE0F901F90F8
:1056B00018958081F2CF1F920F920FB60F9211248E
:1056C0000BB60F922F933F934F935F936F937F93FC
:1056D0008F939F93AF93BF93EF93FF938EE597E0E4
:1056E000AFDDFF91EF91BF91AF919F918F917F912E
:1056F0006F915F914F913F912F910F900BBE0F9043
:105700000FBE0F901F901895EEE5F7E013821282FE
:1057100088EE93E0A0E0B0E084839583A683B7830E
:1057200082EC92E09183808385ED90E09587848779
:1057300084ED90E09787868780ED90E0918B808B59
:1057400081ED90E0938B828B82ED90E0958B848B42
:1057500086ED90E0978B868B118E128E138E148EB1
:1057600008951F920F920FB60F9211240BB60F924D
:105770002F938F939F93EF93FF93E0910B08F091FA
:105780000C088081E0911108F091120882FD1DC083
:105790009081809114088F5F8F7320911508821774
:1057A00041F0E0911408F0E0E550F84F958F8093B8
:1057B0001408FF91EF919F918F912F910F900BBE45
:1057C0000F900FBE0F901F9018958081F2CF1F92FF
:1057D0000F920FB60F9211240BB60F922F933F9397
:1057E0004F935F936F937F938F939F93AF93BF93E9
:1057F000EF93FF938BEF97E023DDFF91EF91BF9144
:10580000AF919F918F917F916F915F914F913F9158
:105810002F910F900BBE0F900FBE0F901F901895F9
:10582000EBEFF7E01382128288EE93E0A0E0B0E0A5
:1058300084839583A683B78382EC92E091838083EF
:1058400085E391E09587848784E391E09787868755
:1058500080E391E0918B808B81E391E0938B828B4D
:1058600082E391E0958B848B86E391E0978B868B26
:10587000118E128E138E148E0895AF92BF92CF9216
:10588000DF92EF92FF920F931F93CF93DF936C0100
:105890007B018B01040F151FEB015E01AE18BF08E1
:1058A000C017D10759F06991D601ED91FC91019093
:1058B000F081E02DC6011995892B79F7C501DF919B
:1058C000CF911F910F91FF90EF90DF90CF90BF90FD
:1058D000AF9008950895DB018F939F9349D0BF91B6
:1058E000AF91A29F800D911DA39F900DB29F900D2F
:1058F00011240895AA1BBB1B51E107C0AA1FBB1F9F
:10590000A617B70710F0A61BB70B881F991F5A954B
:10591000A9F780959095BC01CD010895A1E21A2EBA
:10592000AA1BBB1BFD010DC0AA1FBB1FEE1FFF1F43
:10593000A217B307E407F50720F0A21BB30BE40B93
:10594000F50B661F771F881F991F1A9469F76095DA
:105950007095809590959B01AC01BD01CF01089594
:10596000EE0FFF1F881F8BBF0790F691E02D199453
:1059700009D0A59F900DB49F900DA49F800D911DFF
:1059800011240895A29FB001B39FC001A39F700D81
:10599000811D1124911DB29F700D811D1124911D37
:1059A0000895FB01DC0102C001900D92415050406E
:1059B000D8F70895DC0101C06D9341505040E0F7E5
:0659C0000895F894FFCFEA
:1059C600CDCCCC3D0000803F000000400000803F71
:1059D60000000000FEFFFFFF01E8030000FFFF00DC
:1059E600000000FFFFFFFFFFFFFFFFFFFF010002B8
:1059F600000200400038000800FFFFFFFF01EA0236
:105A0600FF00590D850DFE003F0DC00AFD00D10CAB
:105A16002B0DFC00170DC00AF600080EC00AF50093
:105A2600DE0C470EF400D10D5E0EDE0092122F152D
:105A3600DD000314C00ADA002F103710D9004A150A
:105A46004710E200170FC00AE100520FC00AE0003B
:105A5600C70FC00AD6002F19C00AD500E011C00A28
:105A6600D4006C11C00AD300DD10C00AC000561065
:105A7600C00AF0009819C00AED005519C00A0000C6
:105A8600000061293D2C11294229E328FD28EF2831
:00000001FF
