:1000000005C100000C943C5D0C94675D0C94925DFE
:100010000C94BD5D0C94E85D0C94135E0C943E5EF4
:100020000C94695E24C1000022C1000020C10000C0
:100030001EC100001CC100001AC1000018C1000050
:1000400016C1000014C1000012C1000010C1000060
:100050000EC100000CC100000AC100000C94945EA7
:1000600006C100000C94DB620C94116300C1000017
:10007000FEC00000FCC00000FAC00000F8C0000094
:10008000F6C00000F4C00000F2C00000F0C00000A4
:100090000C9467630C949D63EAC00000E8C0000004
:1000A000E6C00000E4C00000E2C00000E0C00000C4
:1000B000DEC00000DCC00000DAC00000D8C00000D4
:1000C000D6C00000D4C00000D2C000000C94F3637E
:1000D0000C942964CCC000000C947F640C94B5642B
:1000E000C6C0000000000A0B02090C0D0E08070331
:1000F00004010000000000000000000000000000FB
:1001000000000000000000000000000000000000EF
:1001100012111000000000000000000000000000AC
:100120000000000000000000000001021020200874
:100130000810204010204080020102010804020142
:1001400001020408102040808040201008040201B1
:10015000800402018040201008040201080402010A
:100160000102040810204080010204081020408091
:1001700005050505070508080808020202020A0A23
:100180000808040404040101010101010101030341
:10019000030303030303040707070C0C0C0C0C0CEC
:1001A0000C0C0202020206060606060606060B0BE9
:1001B0000B0B0B0B0B0B000020002300260029006B
:1001C0002C002F003200000100000301060109018C
:1001D00000002200250028002B002E0031003400F2
:1001E00002010000050108010B01000021002400AC
:1001F00027002A002D003000330001010000040117
:1002000007010A013A63C6635264DE6411241FBE0B
:10021000CFEFD1E2DEBFCDBF00E00CBF14E0A0E025
:10022000B2E0E2E6FBEC00E00BBF02C007900D92EB
:10023000AE36B107D9F720E2AEE6B4E001C01D92B8
:10024000A235B207E1F711E0C6E0D1E000E006C058
:1002500021970109802FFE010E947E65C230D107DF
:1002600080E00807A9F70E942E590C94AF65C8CE0C
:10027000CF92DF92EF92FF920F931F93E82FF92F07
:1002800005C0015011092109310961F190819623BE
:100290009417B9F305C0015011092109310911F171
:1002A000908196239413F7CFC12CD12CE12CF12C03
:1002B0000AC08FEFC81AD80AE80AF80A0C151D05FB
:1002C0002E053F0579F080818623841791F36C2DEC
:1002D0007D2D8E2D9F2D1F910F91FF90EF90DF9020
:1002E000CF90089560E070E080E090E01F910F9162
:1002F000FF90EF90DF90CF900895CF93DF93882306
:1003000049F0EB0181500E949B5F99838883DF91C4
:10031000CF910895FB0111821082F9CF0F931F93A3
:100320008B019C0183E036952795179507958A9553
:10033000D1F709581B4F462F477021E030E0F901F3
:1003400002C0EE0FFF1F4A95E2F7AF01F8012081CE
:100350002423CB010196211102C090E080E01F917F
:100360000F9108950F931F938B019C0183E03695A5
:100370002795179507958A95D1F7677081E090E0EA
:1003800001C0880F6A95EAF7F801E958FB4F208110
:10039000452B31F48095822380831F910F9108951E
:1003A000822BFACFCF92DF92EF92FF92CF93DF931F
:1003B0006B017C0160E086E3C816D104E104F1041E
:1003C00090F486E38C0D0E94F860E6012196AE0160
:1003D000C701B601C7DFCE01DF91CF91FF90EF904B
:1003E000DF90CF9008958C2DEECF882341F081507F
:1003F000682F70E090E080E050E040E0B3CF0895D7
:10040000611102C00C94F8606130E1F362E0FACF50
:10041000662319F061E00C94346160E0FCCF0E9427
:10042000616121E0019709F020E0822F0895CF92C9
:10043000DF92EF92FF92CF93882351F16A017B0103
:10044000CFEFC80F20E030E0A901CB01B6010E9438
:10045000345A18168CF0C701B60190580E94A55A5C
:100460009B01AC016C2F70E090E080E0CF91FF9099
:10047000EF90DF90CF90B2C0C701B6010E94A05AA2
:100480008C2FCF91FF90EF90DF90CF900C94BE5FB8
:10049000CF91FF90EF90DF90CF9008950F931F932F
:1004A0008B019C0183E036952795179507958A95D2
:1004B000D1F702591B4F462F477021E030E0F90178
:1004C00002C0EE0FFF1F4A95E2F7AF01F80120814D
:1004D0002423CB010196211102C090E080E01F91FE
:1004E0000F9108950F931F938B019C0183E0369524
:1004F0002795179507958A95D1F7677081E090E069
:1005000001C0880F6A95EAF7F801E259FB4F208194
:10051000452B31F48095822380831F910F9108959C
:10052000822BFACF2F923F924F925F926F927F92DF
:100530008F929F92AF92BF92CF92DF92EF92FF92F3
:100540000F931F93CF93DF93D62EC72E782E692E4D
:1005500049015A01280161E08D2D0E94F860CD2DDE
:10056000DC2D8E010F5F1F4FA8016D2D7C2D872D77
:10057000962DB8DF20E030E0A901C201B7010E944A
:10058000245C181664F4C201B7010E94A55A2B011D
:10059000C501B4010E94A55AA201CE0123D0C80111
:1005A000DF91CF911F910F91FF90EF90DF90CF904F
:1005B000BF90AF909F908F907F906F905F904F9083
:1005C0003F902F900895882341F08150682F70E06C
:1005D00090E080E050E040E085CF0895862FB9019B
:1005E0000C94BE5F9C01FC01EC51FF4FE491E15083
:1005F000E231E0F4F0E08827EF5FFC4F8F4F0C947E
:100600007E6513031A031D033403490316035E03B7
:100610006A036E0385039A03AF03C603DB03160365
:10062000F00307041C0484B5806884BD60E0822F59
:100630000C94346184B58062F8CF809180008C7F07
:1006400082608093800080918100807E8061682B31
:1006500060938100509387004093860080918000D2
:10066000806880938000E2CF809180008C7F8260E0
:100670008093800080918100807E8061682B6093F0
:1006800081005093870040938600809180008062B3
:10069000E8CF809180008C7F826080938000809181
:1006A0008100807E8061682B609381005093870079
:1006B00040938600809180008860D3CF8091B00005
:1006C00080688093B0008091B100887F682B609330
:1006D000B100ACCF8091B0008062F3CF80919000E8
:1006E0008C7F82608093900080919100807E8061F9
:1006F000682B6093910050939700409396008091EF
:10070000900080688093900091CF809190008C7FC2
:1007100082608093900080919100807E8061682B40
:1007200060939100509397004093960080919000C1
:100730008062E8CF809190008C7F826080939000EF
:1007400080919100807E8061682B6093910050932E
:10075000970040939600809190008860D3CF80915D
:10076000A0008C7F82608093A0008091A100807E99
:100770008061682B6093A1005093A7004093A6006E
:100780008091A00080688093A00050CF8091A0004D
:100790008C7F82608093A0008091A100807E806128
:1007A000682B6093A1005093A7004093A60080910E
:1007B000A0008062E8CF8091A0008C7F826080934F
:1007C000A0008091A100807E8061682B6093A100D1
:1007D0005093A7004093A6008091A0008860D3CFDB
:1007E000809120018C7F8260809320018091210183
:1007F000807E8061682B6093210150932701409394
:100800002601809120018068809320010FCF809184
:1008100020018C7F82608093200180912101807E65
:100820008061682B6093210150932701409326013A
:10083000809120018062E8CF809120018C7F8260CE
:100840008093200180912101807E8061682B6093DC
:100850002101509327014093260180912001886057
:10086000D3CFFC01A781B0858C9191858923A48188
:10087000B5819C914081518162817381268192234F
:1008800059F081110BC04F5F5F4F6F4F7F4F408317
:1008900051836283738308958111F5CF41505109CB
:1008A00061097109F4CF81E894E0DBCF8CE894E032
:1008B000D8CF87E994E0D5CF82EA94E0D2CFFC018B
:1008C000A481B5818C9196818923A781B0859C9163
:1008D00040815181628173812185922359F088235F
:1008E00059F04F5F5F4F6F4F7F4F4083518362835B
:1008F000738308958823A9F341505109610971094F
:10090000F4CF81E894E0DBCF8CE894E0D8CF87E99E
:1009100094E0D5CF82EA94E0D2CF0F931F93CF9388
:10092000DF93D82FC62F8A01A09180048BE0A89F67
:10093000D0011124AF57BB4F1D921D921D921C92E6
:10094000139781E01A968C931A978D2F90E0FC01F3
:10095000E65DFE4FE4911696EC931697FC01E05984
:10096000FE4FE491F0E0EE0FFF1FEA54FE4F859139
:10097000949115969C938E931497862F90E0FC018A
:10098000E65DFE4FE4911996EC931997FC01E0594E
:10099000FE4FE491F0E0EE0FFF1FEA54FE4F859109
:1009A000949118969C938E93179760E08D2F0E94D8
:1009B000F86060E08C2F0E94F860809180048130A4
:1009C00009F43FC0A8F0823009F462C0833009F412
:1009D00086C08091800491E0980F90938004F80184
:1009E000808390E080E0DF91CF911F910F91089577
:1009F00080E0D23049F081E0D33031F08EEE8D0FBF
:100A00008430D8F487E18D1B41E050E063E574E069
:100A10000E94C25C80E0C23049F081E0C33031F016
:100A20008EEE8C0F843058F487E18C1B41E050E04F
:100A300061E874E00E94C25CCCCF8FEFE5CF8FEF0E
:100A4000F5CF80E0D23049F081E0D33031F08EEE46
:100A50008D0F8430C8F487E18D1B41E050E066E5DE
:100A600074E00E94C25C80E0C23049F081E0C33093
:100A700031F08EEE8C0F843048F487E18C1B41E01E
:100A800050E064E874E0D6CF8FEFE7CF8FEFF7CF79
:100A900080E0D23049F081E0D33031F08EEE8D0F1E
:100AA0008430C8F487E18D1B41E050E069E574E0D3
:100AB0000E94C25C80E0C23049F081E0C33031F076
:100AC0008EEE8C0F843048F487E18C1B41E050E0BF
:100AD00067E874E0AFCF8FEFE7CF8FEFF7CF80E01D
:100AE000D23049F081E0D33031F08EEE8D0F84307A
:100AF000C8F487E18D1B41E050E06CE574E00E9492
:100B0000C25C80E0C23049F081E0C33031F08EEE4B
:100B10008C0F843048F487E18C1B41E050E06AE898
:100B200074E088CF8FEFE7CF8FEFF7CF9BE0899FFF
:100B3000F0011124EF57FB4F80819181A281B38195
:100B4000FB0180839183A283B38390E080E00895CA
:100B50009BE0899FF0011124EF57FB4F1082118217
:100B60001282138290E080E0089590E080E0089582
:100B7000CF93C62F61E00E94F86060E08C2FCF9188
:100B80000C94F8604F925F926F927F92AF92BF92F7
:100B9000CF92DF92EF92FF920F931F93CF93DF9349
:100BA0005C01162FC42FD22F611104C061E0842F85
:100BB0000E94F86060E08C2F0E9434610E94DE5E2B
:100BC0002B013C010E94DE5E6419750986099709B4
:100BD0006630710581059105A8F361E08C2F0E94B4
:100BE00034610E94DE5E2B013C01C02ED12CF12C21
:100BF000E12C0E94DE5E6419750986099709C61604
:100C0000D706E806F906A8F760E08C2F0E94346149
:100C1000111104C060E08D2F0E94F86020E432E4DE
:100C20004FE050E061E08D2F0E948961F501608303
:100C3000718382839383DF91CF911F910F91FF90F6
:100C4000EF90DF90CF90BF90AF907F906F905F90CC
:100C50004F90089590E080E008950F931F930097C0
:100C600009F48DC06115710509F489C000918403F0
:100C70001091850320918603309187030E3F1F4F0B
:100C80002F4F3F4F09F06CC04FEF5FEFBA01409319
:100C90008403509385036093860370938703409188
:100CA0008403509185036091860370918703DC0172
:100CB0001296ED91FC9180819181A281B381809304
:100CC000690690936A06A0936B06B0936C068481C4
:100CD0009581A681B7818093650690936606A0935F
:100CE0006706B093680680859185A285B385809359
:100CF000610690936206A0936306B09364068485B0
:100D00009585A685B78580935D0690935E06A09332
:100D10005F06B09360061092590610925A06109220
:100D20005B0610925C060E94413C86E69CE3909331
:100D3000AE048093AD049093B0048093AF0490937D
:100D4000B2048093B1040E94303B009731F421E05B
:100D500030E030936E0620936D061F910F91089539
:100D600000918403109185032091860330918703BD
:100D7000DB010D931D932D933C93139790CF8FEF31
:100D80009FEFEBCF8F929F92AF92BF92CF92DF9265
:100D9000EF92FF921F93CF93DF934B015C01109171
:100DA000700682E090E090936E0680936D06811449
:100DB0009104A104B10441F480917006811104C032
:100DC00080916F06C1E08111C0E0C12CD12C760169
:100DD00080917006811106C080916F06811102C05A
:100DE000CC23D9F083E090E090936E0680936D065B
:100DF000CC2381F1CCE9DFEF111102C00E94CB3F7F
:100E0000CE01DF91CF911F91FF90EF90DF90CF90B7
:100E1000BF90AF909F908F9008956AE070E080E05F
:100E200090E00E94035F80E1C80E87E2D81EE11CBB
:100E3000F11C8FEF88169806A806B80631F0C1E0BD
:100E40008C149D04AE04BF0408F0C0E080E00E9452
:100E5000643BBECFD0E0C0E0CFCFCF92DF92EF9225
:100E6000FF920F931F93CF93DF938F3F910511F064
:100E700008F051C020916D0630916E062330310587
:100E800039F020916D0630916E062130310531F434
:100E900024E030E030936E0620936D066A017B01FA
:100EA000EC0183309105A8F011E0AE01C701B60155
:100EB0000E942F3BAB01BC01CE011123F9F0DF9161
:100EC000CF911F910F91FF90EF90DF90CF900C94F6
:100ED000F4418C01000F111F03551B4FD8018D9158
:100EE0009C91892B09F30E94FE410297E9F6D801F3
:100EF000ED91FC91CE011995182FD7CF0E94164283
:100F000090E080E0DF91CF911F910F91FF90EF90E3
:100F1000DF90CF9008958FEF9FEFF4CF80E00C9497
:100F2000643BCF93DF9386E090E090936E068093CE
:100F30006D060E94BD3BEC01EDEAF4E086E0DF01C6
:100F40001D928A95E9F70E94633F10926E061092F7
:100F50006D06CE01DF91CF91089580916F060895BF
:100F6000809158060895609384037093850380935D
:100F700086039093870390E080E008952F923F923C
:100F80004F925F926F927F928F929F92AF92BF9299
:100F9000CF92DF92EF92FF920F931F93CF93DF9345
:100FA000CDB7DEB7CB54D1090FB6F894DEBF0FBE74
:100FB000CDBF26967FAF6EAF269728965FAF4EAF18
:100FC00028973E8B2D8B2C96FFAEEEAE2C97FB0117
:100FD000E150F04CEE0FFF1FEE0FFF1FE80FF91F5F
:100FE00080809180A280B3808F8A988EA98EBA8EDD
:100FF000B501A401442777FD439555276627772738
:1010000029964FAF2997F901E150F04CEE0FFF1FE1
:10101000EE0FFF1F2896AEACBFAC2897EA0DFB1D64
:10102000C080D180E280F380CB8EDC8EED8EFE8E90
:10103000B701A601442777FD4395552766277727F3
:101040002A964FAF2A97188B0F87F80130E020E0DF
:101050002C96EEACFFAC2C972E153F050CF43FC040
:1010600022969FAF8EAF22971A8B098B312C212CA1
:10107000812C912C540183948D829E82AF82B886FC
:1010800026968EAC9FAC2697281439047CF12996BD
:101090009FAC29972A96AFAC2A9730E020E041E038
:1010A00050E060E070E09A10F5C1C55BDF4F0FB60D
:1010B000F894DEBF0FBECDBFDF91CF911F910F918E
:1010C000FF90EF90DF90CF90BF90AF909F908F9068
:1010D0007F906F905F904F903F902F900895119266
:1010E0001192119211922F5F3F4FB2CF2296EEAD27
:1010F000FFAD229781919191A191B1912296FFAF7D
:10110000EEAF22978F88988CA98CBA8CB7FE23C03B
:101110004D815E816F817885415051096109710966
:101120005A016B01A81AB90ACA0ADB0AD601C5011D
:1011300021E0CD80DE80EF80F8848C159D05AE0522
:10114000BF0508F020E0822E912CB12CA12C8D82BD
:101150009E82AF82B8865D01CC24DD24A8A2B9A20C
:10116000CAA2DBA29C01AD01442755272CA33DA3B5
:101170004EA35FA32C96EEADFFAD2C97E219F309B9
:101180008D889E888E169F060CF4F4012896AEACCE
:10119000BFAC28972496BFAEAEAE2497C988DA8834
:1011A000DC8ACB8A1E861D86812C912C5401839467
:1011B00089869A86AB86BC86812C912C5401CD847D
:1011C000DE84CE16DF0604F1F7FF02C0F0E0E0E0B7
:1011D000E20DF31D2C96EEACFFAC2C97EE15FF053F
:1011E00054F4EE0FFF1FEE0FFF1FE00FF11F808280
:1011F0009182A282B3822FEF221A320AE989FA89F8
:101200003496FA8BE98B3CCF2496AEADBFAD2497D4
:10121000CD90DD90ED90FD902496BFAFAEAF2497BA
:101220002B8D3C8D4D8D5E8D57FF22C089859A8513
:10123000AB85BC850197A109B109AC01BD014C1971
:101240005D096E097F096A017B0181E029853A8584
:101250004B855C85C216D306E406F50608F080E0EF
:10126000482F50E070E060E049875A876B877C87A1
:10127000B7018827992768A779A78AA79BA7EE2493
:10128000FF2428A139A14AA15BA1C701B6010E9490
:1012900039652B013C012CA13DA14EA15FA168A5A0
:1012A00079A58AA59BA50E9439656CA77DA78EA705
:1012B0009FA7AB89BC894D915D916D917D91BC8B50
:1012C000AB8BDB01CA01880D991DAA1DBB1D89834B
:1012D0009A83AB83BC8391E09F8F29813A814B81B4
:1012E0005C81281539054A055B0508F01F8E2CA185
:1012F0003DA14EA15FA1C701B6010E9439656B01F6
:101300007C0189809A80AB80BC808C0C9D1CAE1CBB
:10131000BF1C89829A82AB82BC82520199248824A4
:1013200088AA99AAAAAABBAA29813A814B815C8181
:10133000280D391D4A1D5B1D2CAB3DAB4EAB5FAB81
:101340008CA49DA4AEA4BFA454019924882488AE83
:1013500099AEAAAEBBAE280D391D4A1D5B1D2CAF40
:101360003DAF4EAF5FAFAB89BC8914972D933D93D2
:101370004D935C93139728A139A14AA15BA168A55D
:1013800079A58AA59BA50E9439659F8C690D711D61
:10139000811D911D230166247724460E571E681E69
:1013A000791E2CA53DA54EA55FA54A01AA24BB2404
:1013B000840C951CA61CB71C81E090E0A0E0B0E076
:1013C00049815A816B817C814C155D056E057F05D5
:1013D00018F080E090E0DC01880D991DAA1DBB1D6E
:1013E00041E050E060E070E088A899A8AAA8BBA8F6
:1013F000CCA8DDA8EEA8FFA8C814D904EA04FB0411
:1014000018F040E050E0BA01840F951FA61FB71FE7
:10141000812C912C54018394C8ACD9ACEAACFBACC0
:101420002CAD3DAD4EAD5FAD2C153D054E055F05B8
:1014300018F0812C912C5401880E991EAA1EBB1EF7
:101440004D855E854F5F5F4F5E874D87B8CEEF85D8
:10145000F889C190D190E190F190F88BEF87DB0192
:10146000CA010197A109B1098C199D09AE09BF09EB
:10147000349780839183A283B383E1E08417950737
:10148000A607B70708F0E0E04E2F50E070E060E0FC
:101490002F5F3F4F2C968EAC9FAC2C9728153905AB
:1014A000B4F203CE2F923F924F925F926F927F924F
:1014B0008F929F92AF92BF92CF92DF92EF92FF9264
:1014C0000F931F93CF93DF9300D01F92CDB7DEB75A
:1014D0008B015C834B83FB01E150F04CEE0FFF1F4F
:1014E000EE0FFF1FE80FF91F408151816281738168
:1014F00077FD27C04C01B12CA12CC12CD12C760139
:10150000A016B10664F5F4016191719181919191F8
:101510004F010E94D15A4B815C810E942A5C9B0141
:10152000AC01C701B6010E94BD596B017C012B8142
:101530003C81205E3F4F3C832B833FEFA31AB30ACD
:10154000DFCF9A838983312C212C81E090E0A0E0C9
:10155000B0E0C12CD12C760120163106CCF0C701A9
:10156000B6010F900F900F900F90DF91CF911F91C8
:101570000F91FF90EF90DF90CF90BF90AF909F9032
:101580008F907F906F905F904F903F902F90089535
:10159000E981FA814190519061907190FA83E983D9
:1015A000409450946094709453014201880E991EA7
:1015B000AA1EBB1EC501B4010E94D15A4B815C8199
:1015C0000E942A5C9B01AC01C701B6010E94BC5974
:1015D0006B017C0181E084149504A604B70408F033
:1015E00080E090E0B0E0A0E02B813C81205E3F4FA6
:1015F0003C832B833FEF231A330AAECF2F923F92C7
:101600004F925F926F927F928F929F92AF92BF9212
:10161000CF92DF92EF92FF920F931F93CF93DF93BE
:10162000CDB7DEB72E970FB6F894DEBF0FBECDBF95
:101630009E878D873C872B871801FA0125E0F69558
:10164000E7952A95E1F7DB01A150B04CAA0FBB1F2B
:10165000AA0FBB1FA80FB91FCD90DD90ED90FC9095
:10166000FF0CCC08DC2C7601E617F7070CF0D5C090
:10167000DF01A00FB11F9B01A617B7070CF49D0156
:101680008A010F711127DF01AA0FBB1FAA0FBB1F11
:1016900001151105F1F40D851E850A0F1B1F8B85A1
:1016A0009C8550E040E0BA016E0F7F1F6217730700
:1016B0000CF05DC0D8018D909D90AD90BD908D01D6
:1016C000DC018D929D92AD92BD92CD014F5F5F4F37
:1016D000EACF6D847E846A0E7B1E7C826B82D3018E
:1016E0004D905D906D907C90AB84BC84BA82A98251
:1016F00050E040E0A0E2B0E0CD01801B910B9E8362
:101700008D8353014201002E04C0B694A794979490
:1017100087940A94D2F74F5F5F4FDF01A40FB51F84
:10172000A217B30784F1D701C601261737076CF457
:10173000220F331F220F331FED85FE852E0F3F1F13
:10174000F90180819181A281B3810D8004C0880F4D
:10175000991FAA1FBB1F0A94D2F788299929AA2981
:10176000BB29E981FA8180839183A283B3839A01A3
:10177000220F331F220F331F6B847C84620E731E73
:101780007A8269822EC0DA01AA0FBB1FAA0FBB1F83
:101790006B807C80A60DB71D4D905D906D907C9008
:1017A000D301C2010D8004C0880F991FAA1FBB1F5F
:1017B0000A94D2F7882A992AAA2ABB2AA981BA812F
:1017C0008D929D92AD92BD92BA83A9839ACFE98101
:1017D000FA81C192D192E192F192FA83E9834F5F4B
:1017E0005F4F421553059CF32E960FB6F894DEBF5B
:1017F0000FBECDBFDF91CF911F910F91FF90EF9062
:10180000DF90CF90BF90AF909F908F907F906F9020
:101810005F904F903F902F90089550E040E0A7CF09
:101820002F923F924F925F926F927F928F929F92F0
:10183000AF92BF92CF92DF92EF92FF920F931F93DE
:10184000CF93DF9300D000D0CDB7DEB7DA01E5E06B
:10185000B695A795EA95E1F7FB01E150F04CEE0F44
:10186000FF1FEE0FFF1FE80FF91F80809180A280FD
:10187000B380BB0C8808982C54013D010A171B0744
:101880000CF438017901D12CC12CC614D70464F1B1
:10189000F30177FE02C0F0E0E0E0A017B1070CF022
:1018A00075C04F715527A60FB71FB801A017B10714
:1018B0000CF4BD016E1B7F0BDF01AA0FBB1FAA0F2B
:1018C000BB1F41155105D1F43D01620E731E50E05E
:1018D00040E0461757070CF48DC077FF02C070E058
:1018E00060E0E60FF71F52C0F701119211921192BA
:1018F00011927F01FFEFCF1ADF0AC7CF1C01290128
:101900004A0E5B1E5A8249821E821D82C12CD12C36
:10191000760180E290E03C01641A750A7C826B8259
:10192000AD81BE81A617B707CCF177FF02C070E08A
:1019300060E0E60FF71FE017F1070CF072C0DF015F
:10194000AA0FBB1FAA0FBB1FA20FB31F80E290E01C
:10195000841B950B04C0F694E794D794C7948A959A
:10196000D2F72401350104C0440C551C661C771CB9
:101970004A95D2F7B301A201C428D52AE628F72A4E
:10198000CD92DD92ED92FC9213973196DF01AA0F72
:10199000BB1FAA0FBB1FA20FB31F40C026013701F8
:1019A0000B8004C076946794579447940A94D2F7B6
:1019B000D101CD90DD90ED90FD901D01D701C601C4
:1019C000042E04C0880F991FAA1FBB1F0A94D2F7C8
:1019D000482A592A6A2A7B2AA981BA814D925D92A6
:1019E0006D927D92BA83A9838D819E8101969E839B
:1019F0008D8396CFDC01CD90DD90ED90FD90CD01F3
:101A0000D301CD92DD92ED92FD923D014F5F5F4F8C
:101A100060CF8D929D92AD92BD923196E017F10705
:101A2000C4F326960FB6F894DEBF0FBECDBFDF918C
:101A3000CF911F910F91FF90EF90DF90CF90BF90CB
:101A4000AF909F908F907F906F905F904F903F905E
:101A50002F900895FA016193719381939193990F57
:101A6000660B762FCB0141E050E0421753070CF094
:101A7000089561937193819391934F5F5F4FF5CF79
:101A80002F923F924F925F926F927F928F929F928E
:101A9000AF92BF92CF92DF92EF92FF920F931F937C
:101AA000CF93DF9379011B01DA01D0E0C0E040E081
:101AB00050E0BA01CE15DF059CF0DF91CF911F9168
:101AC0000F91FF90EF90DF90CF90BF90AF909F90DD
:101AD0008F907F906F905F904F903F902F900895E0
:101AE000FC0181909190A190B190CF01F101019101
:101AF0001191219131911F0124013501401A510AA0
:101B0000620A730A93018201041B150B260B370B23
:101B10000D931D932D933D9366246394712CC12CDA
:101B2000D12C452B462B472B39F0081519052A05D2
:101B30003B0538F4612C05C080169106A206B30659
:101B4000C8F7A301B6012196B5CF8F929F92AF92AD
:101B5000BF92CF92DF92EF92FF92CF93DF93F90182
:101B6000621773070CF4FB016C017A01B0E0A0E08E
:101B7000AE17BF074CF162177307DCF46150704C6D
:101B8000660F771F660F771F680F791FDB01CD90F7
:101B9000DD90ED90FC90FF0CCC08DC2C7601DF0191
:101BA000AA0FBB1FAA0FBB1FA40FB51FE217F30795
:101BB000CCF0DF91CF91FF90EF90DF90CF90BF906E
:101BC000AF909F908F900895E60189909990A99089
:101BD000B9906E01E70189929992A992B9927E011A
:101BE0001196C6CFCD92DD92ED92FD923196DECF69
:101BF0008F929F92AF92BF92CF92DF92EF92FF921D
:101C00000F931F93FB0170E060E0C12CD12C760193
:101C1000C394641775075CF01F910F91FF90EF90CC
:101C2000DF90CF90BF90AF909F908F900895DC0190
:101C30008D909D90AD90BD90CD0197018601015092
:101C4000110921093109081919092A093B090193C8
:101C5000119321933193A1E00C151D052E053F052D
:101C600008F0A0E0CA2ED12CF12CE12C6F5F7F4F41
:101C7000D0CFAB0141505109FC0130E020E02417E6
:101C8000350794F06150704C660F771F660F771F11
:101C9000680F791F80E090E0A0E0B0E8FB0180834E
:101CA0009183A283B383089511921192119211929C
:101CB0002F5F3F4FE4CFCF92DF92EF92FF92AB01C5
:101CC00041505109FC0130E020E0CC24CA94DC2CC6
:101CD000760124173507B4F06150704C660F771FFA
:101CE000660F771F680F791F8FEF9FEFAFEFBFE78A
:101CF000FB0180839183A283B383FF90EF90DF90F9
:101D0000CF900895C192D192E192F1922F5F3F4F0F
:101D1000E0CFCF92DF92EF92FF92FB0130E020E024
:101D2000C12CD12C7601C3942E173F072CF0FF90C5
:101D3000EF90DF90CF900895DC014D915D916D9112
:101D40007D91CD014C0D5D1D6E1D7F1D14974D9332
:101D50005D936D937C931397A1E04C155D056E0523
:101D60007F0508F0A0E0CA2ED12CF12CE12C2F5FCA
:101D70003F4FDACFCF92DF92EF92FF92FC0180E0EB
:101D800030E020E02617370714F4882329F0FF906D
:101D9000EF90DF90CF900895C190D190E190F190B5
:101DA0002F5F3F4F81E0CD28CE28CF2859F780E024
:101DB000E9CF2F923F924F925F926F927F928F92D4
:101DC0009F92AF92BF92CF92DF92EF92FF920F93CA
:101DD0001F93CF93DF93CDB7DEB7A8970FB6F894D4
:101DE000DEBF0FBECDBF9EA38DA31B015E834D83BF
:101DF0003A8329831A8F098FDA8AC98AF901EE0F8B
:101E0000FF1FEE0FFF1FE40FF51F49815A811416C3
:101E100015060CF0A0C4B291A29192918291892BE7
:101E20008A2B8B2B11F1E98DFA8D90E080E08E15D5
:101E30009F0514F1F101EE0FFF1FEE0FFF1F8DA1A3
:101E40009EA1E80FF91F1214130404F1ADA1BEA165
:101E5000BA83A983E989FA8930E020E02A153B0595
:101E60000CF46AC485E090E04FC029813A8121508A
:101E700031093A832983C9CF11921192119211929B
:101E80000196D5CF91E0291A3108DDCFB291A29108
:101E900092918291892B8A2B8B2BA1F3E981FA8174
:101EA0002E163F069CF249885A885A864986F201C6
:101EB00090E080E005C0119211921192119201966A
:101EC0008A159B05C4F3B1E02B163104B1F5EDA1E1
:101ED000FEA16081718182819381AD81BE812D914E
:101EE0003D914D915C910E945C65E98DFA8D208356
:101EF000318342835383A989BA896D937D938D93EE
:101F00009C93139787E090E0A8960FB6F894DEBFF5
:101F10000FBECDBFDF91CF911F910F91FF90EF903A
:101F2000DF90CF90BF90AF909F908F907F906F90F9
:101F30005F904F903F902F900895E981FA81E15092
:101F4000F04CEE0FFF1FEE0FFF1F4D805E804E0E18
:101F50005F1E5C8A4B8AD201CD90DD90ED90FC90A3
:101F6000D701C601B695A7959795879501E010E032
:101F70001C830B830097A105B10589F5D101A15000
:101F8000B04CAA0FBB1FAA0FBB1F8DA19EA1A80F0B
:101F9000B91F4D915D916D917C917695679557959F
:101FA000479581E090E0411551056105710511F5F6
:101FB000A981BA81A215B3051CF14B805C80841500
:101FC0009505F0F46DA07EA07A82698230E020E071
:101FD0002A153B050CF49DC386E090E095CF2B813C
:101FE0003C812F5F3F4F3C832B83B695A7959795F8
:101FF0008795C0CF01967695679557954795D3CF2E
:1020000029813A8121503109388B2F879101215044
:102010003109890175E0000F111F7A95E1F7080F6A
:10202000191F4F855889A5E0440F551FAA95E1F760
:102030006B817C81640F751F7E876D87AB81BC814E
:10204000A032B10509F498C134964D805E80E40D4C
:10205000F51D70E060E040E250E04A1B5B0B46017A
:102060005701042E04C0880C991CAA1CBB1C0A949E
:10207000D2F76F5F7F4F69807A806616770609F026
:1020800062C1AD81BE818D929D92AD92BC9213973B
:10209000CC24CA94DC2C76012601370104C0440C00
:1020A000551C661C771C4A95D2F74D8A5E8A6F8A4A
:1020B000788E49815A814130510509F066C14D88B9
:1020C0005E886F88788C4D8E5E8E6F8E78A2698167
:1020D0007A81615071094FEF5FE3649F4001659F12
:1020E000900C749F900C11249AA289A21C861B86C6
:1020F000AD84BE84A094B094BCA2ABA2A901440F4D
:10210000551F440F551FADA1BEA1A40FB51FB88721
:10211000AF838032910509F440C0CD90DD90ED9001
:10212000FC9013974B855C85405E5F4FFA01E81B7E
:10213000F90BFC87EB87FD01A90160E270E0681BE9
:10214000790B26013701062E04C0440C551C661C71
:10215000771C0A94D2F7141615060CF41FC1A901B6
:1021600037FF02C050E040E088248A94FFE39F2EAE
:10217000489DF001499DF00D589DF00D1124E20F8E
:10218000F31FEE0FFF1FEE0FFF1F8DA19EA1E80FA3
:10219000F91F4082518262827382EF81F8858081CB
:1021A0009181A281B381EB89FC8940815181628157
:1021B0007381CD8CDE8CEF8CF8A0C822D922EA2264
:1021C000FB22C416D506E606F70609F067C14F8064
:1021D000588458A64FA26B887C887C8E6B8EB20187
:1021E0004F8558894115510509F0F1C06D857E85EF
:1021F000061B170B8F859889009709F09DC1E9A1EF
:10220000FAA1E20FF31FEE0FFF1FEE0FFF1F2DA12C
:102210003EA12E0F3F1FF90180819181A281B381E0
:10222000ED81FE814081518162817381841B950B18
:10223000A60BB70BF90180839183A283B383F801C6
:1022400095E0F695E7959A95E1F7EE0FFF1FEE0FF3
:10225000FF1F698C7A8CE60DF71D0F71112741E085
:1022600050E060E070E004C0440F551F661F771F08
:102270000A95D2F780819181A281B381842B952B1D
:10228000A62BB72B80839183A283B383EF81F8853C
:10229000121413040CF062C280819181A281B38177
:1022A0009101215031093497892B8A2B8B2B09F40A
:1022B0007FC169807A80261437040CF07BC19101BC
:1022C0002150310984E090E06B857C8545E076956E
:1022D00067954A95E1F74B855C854F715527FB0162
:1022E000EE0FFF1FEE0FFF1F4115510509F497C1B7
:1022F0002DA03EA02E0E3F1ED101CD90DD90ED9081
:10230000FC90B0E0A0E0E0E2F0E02F01441A550AB2
:102310005A82498246015701042E04C0B694A794FC
:10232000979487940A94D2F76F5F7F4F149626177D
:1023300037070CF0B6C1A985BA858D929D92AD92F2
:10234000BC92139785C1DF011897CD90DD90ED9079
:10235000FC90260137010B8004C076946794579453
:1023600047940A94D2F784289528A628B728B292D1
:10237000A2929292829273CE66246A94762C430142
:102380006D8A7E8A8F8A988E94CE66246A94762C83
:1023900043016D8E7E8E8F8E98A299CEF290E29040
:1023A000D290C29046015701082E04C0B694A7945B
:1023B000979487940A94D2F784289528A628B7285A
:1023C00084829582A682B78241505109BACEFB0120
:1023D0007290629052904290BF0141505109EB8D32
:1023E000FC8DB290A29092908290FC8FEB8FCC24C7
:1023F000CA94DC2C76014115510521F4CD88DE8884
:10240000EF88F88CC420D520E620F720C814D90422
:10241000EA04FB0409F4E6CE84149504A604B70488
:1024200008F485C0AD84BE84A016B10608F0A9C129
:10243000EF81F885A9016C017D01CC0CDD1CEE1C3F
:10244000FF1C141615060CF483C0A90137FF02C047
:1024500050E040E044244A946FE3562E449DF0013E
:10246000459DF00D549DF00D1124E20FF31FEE0F6A
:10247000FF1FEE0FFF1F6DA07EA0E60DF71DC082AF
:10248000D182E282F3824B855C854F5F5F4F5C8730
:102490004B876BA17CA1060F171F0AC0481759076D
:1024A0006A077B0708F0BECF8D849E84081919093E
:1024B000F90189819A81E81BF90B3196EE0FFF1F14
:1024C000EE0FFF1FADA1BEA1EA0FFB1F4D805E8086
:1024D0005C8E4B8E90E080E040E050E0BA0181904D
:1024E0009190A190B190AB8DBC8DCD90DD90ED9091
:1024F000FD90BC8FAB8F240135014C185D086E0830
:102500007F0873016201C41AD50AE60AF70A662435
:102510006394712C30E020E0452B462B472B79F15A
:10252000C814D904EA04FB0478F5612C2DC04D854C
:102530005E85041B150BBCCFAFA1B8A51D921D92E3
:102540001D921C92139701971497B8A7AFA354CE6E
:10255000B291A291929182914C015D018824B7FCC5
:1025600083949924AA24BB24C828D928EA28FB28C4
:10257000C482D582E682F782415051095CCF8C1427
:102580009D04AE04BF0488F6A301632F722F9F0140
:1025900024503109D901CD92DD92ED92FC9213972E
:1025A000019649805A80841595050CF498CF47CE42
:1025B00019016ECEF101E150F04CEE0FFF1FEE0F4E
:1025C000FF1F8DA09EA0E80DF91D40815181628101
:1025D0007381769567955795479581E090E0411511
:1025E000510561057105A9F48901B5E0000F111FBE
:1025F000BA95E1F7AB84BC840A191B09080F191FAF
:102600004D855E850417150708F078CD82E090E0CF
:102610005BCE01967695679557954795E0CFADA12E
:10262000BEA1EA0FFB1F30E020E041915191619182
:102630007191A985BA854D935D936D937D93BA870A
:10264000A9872F5F3F4F4F845888421653066CF777
:10265000EB81FC81B09709F457CCAD81BE81CD9060
:10266000DD90ED90FC901397FD0130E020E040E21A
:1026700050E04B805C804419550926013701042E37
:1026800004C076946794579447940A94D2F78F8441
:1026900098882815390524F140825182628273821C
:1026A00033CC81010A0F1B1FF801C080D180E2806A
:1026B000F38026013701098004C0440C551C661CB8
:1026C000771C0A94D2F784289528A628B728E9858C
:1026D000FA8581929192A192B192FA87E9871ACEF6
:1026E000C480D580E680F780460157010B8004C086
:1026F000880C991CAA1CBB1C0A94D2F78428952824
:10270000A628B72881929192A192B1922F5F3F4F54
:10271000B4CFE981FA8181919191A191B191FA832C
:10272000E983E985FA8581939193A193B193FA871F
:10273000E9872F5F3F4F4CCCA981BA814D915D91C4
:102740006D917D91BA83A983419351936193719364
:102750002F5F3F4F83CB8FEF9FEFD6CB21143104F8
:1027600009F0ADCDEDA1FEA180819181A281B3815F
:10277000E989FA8980839183A283B38381E090E021
:1027800067CF83E090E0A0CD2F923F924F925F926F
:102790006F927F928F929F92AF92BF92CF92DF9271
:1027A000EF92FF920F931F93CF93DF93CDB7DEB7D6
:1027B00064970FB6F894DEBF0FBECDBF2A013E83EB
:1027C0002D8338011701DE86CD86B88AAF862AA50B
:1027D0003BA53A8B298B4CA55DA558874F83AEA5A9
:1027E000BFA5BC8BAB8BFB01E150F04CEE0FFF1F84
:1027F000EE0FFF1FE80FF91F2081318142815381C5
:1028000029833A834B835C83ED81FE81E150F04C58
:10281000EE0FFF1FEE0FFF1FE40DF51D208131812C
:102820004281538129873A874B875C8729813A8186
:102830004B815C8157FF40C0AB01B401D9D9898578
:102840009A85AB85BC85B7FF3CC04D815E816F81A9
:102850007885C201CDD9AF84B888CD84DE8471017A
:1028600083012B893C894F81588569897A89C40104
:10287000A0DA97FF48C029813A814B815C81B10180
:10288000C30157FF27C064960FB6F894DEBF0FBE92
:10289000CDBFDF91CF911F910F91FF90EF90DF900F
:1028A000CF90BF90AF909F908F907F906F905F90F0
:1028B0004F903F902F90DDC929893A89A40145D9CD
:1028C000BECF2B893C894F8158856D817E81C201A5
:1028D0003CD9C1CF64960FB6F894DEBF0FBECDBF12
:1028E000DF91CF911F910F91FF90EF90DF90CF90EC
:1028F000BF90AF909F908F907F906F905F904F9020
:102900003F902F90D8C989819A81AB81BC8188275B
:10291000B7FD83959927AA27BB2749855A856B85DB
:102920007C85442777FD43955527662777278417AD
:1029300031F16F8578898D859E851CDA882319F0A1
:10294000B101C301E6D9A101B301C30164960FB679
:10295000F894DEBF0FBECDBFDF91CF911F910F91D5
:10296000FF90EF90DF90CF90BF90AF909F908F90AF
:102970007F906F905F904F903F902F9039C96496F1
:102980000FB6F894DEBF0FBECDBFDF91CF911F9180
:102990000F91FF90EF90DF90CF90BF90AF909F90FE
:1029A0008F907F906F905F904F903F902F90089501
:1029B0004F925F926F927F928F929F92AF92BF924F
:1029C000CF92DF92EF92FF92CF93DF939A01215043
:1029D000304C220F331F220F331FFC01E20FF31F75
:1029E00080809180A280B380FB01E20FF31FC08042
:1029F000D180E280F380CC24DD24EE24E0E8FE22C6
:102A000024013501442455246624E0E87E22C414C0
:102A1000D504E604F70499F52C5F3F4FFC01E20F63
:102A2000F31FEB01C20FD31F141615068CF090E0B4
:102A300080E0DF91CF91FF90EF90DF90CF90BF903B
:102A4000AF909F908F907F906F905F904F90089580
:102A500041505109F290E290D290C290BA91AA915D
:102A60009A918A91C816D906EA06FB06E9F28C15F6
:102A70009D05AE05BF0528F481E090E0DACFB7FEF2
:102A8000FBCF8FEF9FEFD5CF93DF892F8095881FE6
:102A90008827881F08952F923F926F927F928F927E
:102AA0009F92AF92BF92CF92DF92EF92FF920F93DD
:102AB0001F93CF93DF9300D000D0CDB7DEB71B01BB
:102AC0003C0189014E835D8320E030E0A901B8011B
:102AD0008E819D810E94345A811125C020E030E012
:102AE000A901B101C3010E94345A882309F46BC0C3
:102AF00061017301B601C70126960FB6F894DEBFD7
:102B00000FBECDBFDF91CF911F910F91FF90EF903E
:102B1000DF90CF90BF90AF909F908F907F906F90FD
:102B20003F902F900895B101C3010E942C3A882351
:102B300049F0C0904420D0904520E0904620F0908D
:102B40004720D8CFB8018E819D810E942C3A8111F7
:102B5000F0CFB101C3010E94E7398111EACF20E033
:102B600030E0A901B101C3010E94345A81110BC0A8
:102B700098014E815D8160E070E0CB010E94385A7F
:102B80006B017C01B7CFB8018E819D810E94E7392E
:102B90008823E9F020E030E0A901B8018E819D8111
:102BA0000E94345AF82EFF1CFF24FF1C20E030E066
:102BB000A901B101C3010E94345A881F8827881FC8
:102BC000F81609F495CF6801EE80FD8093CF980147
:102BD0004E815D81B101C3010E94285B6B017C01C4
:102BE000BB24B39420E030E0A9010E94345A811143
:102BF000B12C20E030E0A901B601C7010E94345A8F
:102C0000882309F447C0B8018E819D810E940E5B24
:102C10009B01AC01B8018E819D810E94245C181635
:102C2000CCF598014E815D81B101C3010E94385AF3
:102C30004B015C01E894B7F820E030E040E05FE34E
:102C4000C501B4010E94BD590E940E5B9B01AC01FD
:102C5000C501B4010E94BC599B01AC015F77298377
:102C60003A834B835C8320E030E040E054E3C501CD
:102C7000B4010E945E5C9B01AC01BB24B3946981EA
:102C80007A818B819C810E94245C18160CF0B12CF7
:102C900081E0B82620E030E0A901BB2031F0B80186
:102CA0008E819D810E945E5C6BCFB101C3010E9449
:102CB000345AB82EBB1CBB24BB1C20E030E0A90159
:102CC000B8018E819D810E94345A881F8827881FF1
:102CD000B81609F40FCF98014E815D81B601C70186
:102CE0000E94BD594DCF8091731E8150823060F497
:102CF00083E08093731E80910D06882339F0813024
:102D000049F080910E0603C080E0F3CF81E080930C
:102D10000C0602C010920C06E0910C0684E0E89FBD
:102D2000F0011124E15FF94F80819181A281B3818B
:102D30008093080690930906A0930A06B0930B06A9
:102D40008FEF80930C0620915002309151024091F8
:102D50005202509153026091E81D7091E91D8091DB
:102D6000EA1D9091EB1D0E94BD596093E81D709380
:102D7000E91D8093EA1D9093EB1D2091580230913C
:102D8000590240915A0250915B0285DE6093F31F15
:102D90007093F41F8093F51F9093F61F84E0809347
:102DA000731E609108067091090680910A06909141
:102DB0000B060E94D15A2AE037ED43E25CE30E9401
:102DC0005E5C0E94A55AAB01BC0184E090E00C94CB
:102DD0002D07FC01EC5FFE4F0190F081E02D319753
:102DE000D1F487509F4FFC018081811114C0F901FB
:102DF00080819181A281B381FB0180839183A28331
:102E0000B383F90184819581A681B781FA0180831A
:102E10009183A283B3830895CF92DF92EF92FF92C2
:102E20006B017C019F7720E030E040E859E50E948B
:102E3000345A87FF2BC020E030E040E05FE3C70159
:102E4000B6010E94245C87FD0EC020E030E040E027
:102E50005FE3C701B6010E94BD59FF90EF90DF907C
:102E6000CF900C940E5B20E030E040E05FEBC701B8
:102E7000B6010E94245C181684F420E030E0A90119
:102E8000C701B6010E945E5C6B017C01C701B601FF
:102E9000FF90EF90DF90CF90089520E030E040E089
:102EA0005FE3C701B6010E94BC59FF90EF90DF902D
:102EB000CF900C94215AE091AD05F091AE05809130
:102EC000B31F9091B41FA091B51FB091B61F80831E
:102ED0009183A283B3838091AF1F9091B01FA09183
:102EE000B11FB091B21F84839583A683B7830895E1
:102EF0002F923F924F925F926F927F928F929F920A
:102F0000AF92BF92CF92DF92EF92FF920F931F93F7
:102F1000CF93DF93CDB7DEB7C255D1090FB6F89482
:102F2000DEBF0FBECDBF00912306109124060130F5
:102F3000110509F063C16091F4057091F505809168
:102F4000F6059091F7056F5F7F4F8F4F9F4F0E945F
:102F5000D15A2091F8053091F9054091FA05509128
:102F6000FB050E945E5C60932F0570933005809393
:102F70003105909332058091721E8150823008F4A1
:102F800055C180E08093721E8091711E8150823005
:102F900008F44EC180E08093711E8091701E8150B4
:102FA000823008F447C180E08093701E80916F1ECC
:102FB0008150823008F440C180E080936F1E809180
:102FC0007C1E8150823008F439C180E080937C1EE1
:102FD00080916E1E8150823008F432C180E080936F
:102FE0006E1E80916D1E8150823008F42BC180E0EE
:102FF00080936D1E80917A1E8150823008F424C126
:1030000080E080937A1E80916C1E8150823008F49B
:103010001DC180E080936C1E80916B1E81508230B8
:1030200008F416C180E080936B1E80916A1E815067
:10303000823008F40FC180E080936A1E8091691E7F
:103040008150823008F408C180E08093691E80912D
:10305000681E8150823008F401C180E08093681EB0
:103060008091671E8150823008F4FAC080E080931E
:10307000671E8091661E8150823008F4F3C080E0A4
:103080008093661E8091651E8150823008F4ECC0EA
:1030900080E08093651E8091641E8150823008F428
:1030A000E5C080E08093641E8091621E8150823072
:1030B00008F4DEC080E08093621E8091611E815022
:1030C000823008F4D7C080E08093611E8091781E22
:1030D0008150823008F4D0C080E08093781E8091C7
:1030E000601E8150823008F4C9C080E08093601E69
:1030F00080915F1E8150823008F4C2C080E08093CE
:103100005F1E80915E1E8150823008F4BBC080E05B
:1031100080935E1E80917D1E90917E1EA0917F1EE9
:10312000B091801E8093F71F9093F81FA093F91F12
:10313000B093FA1FC8010130110509F048C1809110
:103140001806811153C0C090F31FD090F41FE09077
:10315000F51FF090F61FC092531FD092541FE092BB
:10316000551FF092561F8090D41D9090D51DA090B1
:10317000D61DB090D71D8092571F9092581FA092D5
:10318000591FB0925A1F4090D81D5090D91D609081
:10319000DA1D7090DB1D40925B1F50925C1F6092A5
:1031A0005D1F70925E1F8091751E81116DC081E060
:1031B0008093751E81E090E0A0E0B0E080934D1E0A
:1031C00090934E1EA0934F1EB093501E1092E71F77
:1031D0001092E81F1092E91F1092EA1FC092101E71
:1031E000D092111EE092121EF092131E80911906C9
:1031F000882309F4BAC081E090E0E1C0011511050F
:1032000009F0B9CEE0915F05F09160050190F08181
:10321000E02D80819181A281B381E0912606F09119
:10322000270680839183A283B383A5CE83E0AACEB1
:1032300083E0B1CE83E0B8CE83E0BFCE83E0C6CEDC
:1032400083E0CDCE83E0D4CE83E0DBCE83E0E2CE5C
:1032500083E0E9CE83E0F0CE83E0F7CE83E0FECEDC
:1032600083E005CF83E00CCF83E013CF83E01ACF58
:1032700083E021CF83E028CF83E02FCF83E036CFD8
:1032800083E03DCF83E044CF2091101E3091111E8A
:103290004091121E5091131E80914D1E90914E1E12
:1032A000A0914F1EB091501E0197A105B105C1F527
:1032B000C701B6010E94345A882309F487CF82E0FF
:1032C00090E0A0E0B0E080934D1E90934E1EA0933E
:1032D0004F1EB093501E80E090E0A0E8BFE38093C3
:1032E000E71F9093E81FA093E91FB093EA1FC092D5
:1032F000101ED092111EE092121EF092131E4092E8
:10330000141E5092151E6092161E7092171E809207
:10331000181E9092191EA0921A1EB0921B1E66CF04
:10332000C701B6010E94345A8823A9F220E030E098
:10333000A9016091141E7091151E8091161E909126
:10334000171E0E94345A8111C6CF20E030E0A90137
:103350006091181E7091191E80911A1E90911B1E6B
:103360000E94345A8111B7CF25CFC0904802D09027
:103370004902E0904A02F0904B02A7019601609149
:10338000741D7091751D8091761D9091771D0E941E
:10339000345A882341F0C092741DD092751DE0927A
:1033A000761DF092771D8FE10E940F0280933620E8
:1033B00080912306909124068130910541F420915B
:1033C0001806211104C02091362020933520E09169
:1033D0002505F0912605008111810130110529F0A4
:1033E0002091A005222309F48FC0209135202223AB
:1033F00009F440C08FEF8093551EE0912505F091B0
:103400002605008111810130110509F083C020E0FB
:1034100030E040E85FE36091E71F7091E81F809122
:10342000E91F9091EA1F0E94345A8111C6C7109279
:10343000561E8091230690912406019711F00C945A
:1034400036228091180681110C943622C090EF1F0D
:10345000D090F01FE090F11FF090F21F8091761E47
:103460008111C7C781E08093761E81E090E0A0E0E3
:10347000B0E0DEC71092551E019779F580911806CD
:1034800081112BC020916002309161024091620253
:10349000509163026091E41D7091E51D8091E61DDD
:1034A0009091E71D0E94BD596093E41D7093E51D46
:1034B0008093E61D9093E71D209168023091690288
:1034C00040916A0250916B02E6DA6093EF1F7093AD
:1034D000F01F8093F11F9093F21FE0912505F0916A
:1034E000260580819181019711F00C94ED32809135
:1034F0006E1E882309F45EC7833009F057C781E048
:1035000090E080936E1E79CF2091551E222311F4F6
:103510000C94E9328091A005811179CF8091561EDB
:10352000882309F486CF8091A00581114DC7809131
:10353000571E8111BCC724E733E04FE65FE16FE817
:103540007FE18FE195E045DCE0912505F0912605CE
:1035500080819181019721F08091A005882361F0FD
:1035600080917A1E882309F49FC7833009F098C799
:1035700081E090E080937A1E80912306909124064A
:103580000197A1F580911806811130C08091180231
:1035900090911902A0911A02B0911B0280935F1FB3
:1035A0009093601FA093611FB093621F80911C02D3
:1035B00090911D02A0911E02B0911F028093631F83
:1035C0009093641FA093651FB093661F80911002B3
:1035D00090911102A0911202B09113028093671F83
:1035E0009093681FA093691FB0936A1FC090DC027C
:1035F000D090DD02E090DE02F090DF02A70196019C
:1036000060915C1D70915D1D80915E1D90915F1DAC
:103610000E94345A882341F0C0925C1DD0925D1DF7
:10362000E0925E1DF0925F1D6EE370E080E090E03E
:103630000E948E0190935B1D80935A1D43E050E0E1
:10364000BE016F5D7F4F0E947D0120916803309124
:103650006903A9A1BAA10E94866569AB7AAB8BAB5D
:103660009CAB8091230690912406019709F0A6C097
:10367000809118068111A2C08091241E81111092A0
:10368000241E0AE02FE24EE261E0CE0141960E9444
:10369000C20569897A898B899C890E94D15A2EEA50
:1036A00034ED43EB59E30E945E5C20E030E040E003
:1036B0005FE30E945E5C2091EC023091ED0240914C
:1036C000EE025091EF020E945E5C6B017C01C092A1
:1036D000FB1FD092FC1FE092FD1FF092FE1F809016
:1036E000F0029090F102A090F202B090F302A501D6
:1036F00094010E94245C18160CF003C780926B1F83
:1037000090926C1FA0926D1FB0926E1FC090250505
:10371000D0902605D601ED90FC90B1E0EB16F104B7
:1037200021F08091A005882301F12091DC1D3091CA
:10373000DD1D4091DE1D5091DF1D60916B1F70916A
:103740006C1F80916D1F90916E1F0E94BC5911E0FB
:1037500020E030E048EC51E40E94245C18160CF0A4
:1037600010E081E018271093581E8091581E811197
:10377000E8C68091DC1D9091DD1DA091DE1DB09109
:10378000DF1D80936B1F90936C1FA0936D1FB093F0
:103790006E1FEA94EF2831F08091A005882311F480
:1037A0000C94F4328091721E882309F4C7C68330CA
:1037B00009F0C0C681E090E08093721EE09125057B
:1037C000F0912605008111810130110521F08091D1
:1037D000A0058823A1F0FF24F39420E030E0A901A4
:1037E0006091E31F7091E41F8091E51F9091E61FA7
:1037F0000E94345A811101C0F12CF092591E80911F
:10380000591E8111C0C669A97AA98BA99CA90E94D9
:10381000D15A20E030E040E057E30E945E5C6B014B
:103820007C01C092FF1FD0920020E0920120F09214
:1038300002202091800230918102409182025091B9
:1038400083020E94BC5920917C0230917D024091FC
:103850007E0250917F020E94385A20917802309166
:10386000790240917A0250917B020E94385A20914D
:1038700074023091750240917602509177020E9455
:10388000BD592091700230917102409172025091A5
:1038900073020E945E5C60938F1F7093901F8093F1
:1038A000911F9093921FA7019601609194027091CD
:1038B000950280919602909197020E94BC592091A6
:1038C00090023091910240919202509193020E9495
:1038D000385A20918C0230918D0240918E02509185
:1038E0008F020E94385A20918802309189024091BB
:1038F0008A0250918B020E94BD592091840230911E
:10390000850240918602509187020E945E5C60931E
:103910006F1F7093701F8093711F9093721F0130FF
:10392000110521F08091A005882361F080916B1E24
:10393000882309F425C6833009F01EC681E090E093
:1039400080936B1E8091230690912406019709F0C5
:1039500089C080911806811185C01092431F109272
:10396000441F1092451F1092461F1092471F10923D
:10397000481F1092491F10924A1F80913402909163
:103980003502A0913602B0913702898B9A8BAB8BAE
:10399000BC8B8091311E9091321EA091331EB0914C
:1039A000341E89879A87AB87BC8742E0E42EF12CCE
:1039B00003E41FE121E030E0AE01475F5F4F61E0CB
:1039C00070E0CE0141960E94BE07C0906F1FD0905C
:1039D000701FE090711FF090721F50E040E062E0B5
:1039E00070E0C8010E94520A20E030E040E05FE24F
:1039F0000E945E5C9B01AC01C701B6010E94BC59EC
:103A00006B017C01C092FB1FD092FC1FE092FD1F56
:103A1000F092FE1FAC019B016091080270910902B7
:103A200080910A0290910B020E945E5C6093731F6A
:103A30007093741F8093751F9093761FA701960152
:103A40006091000270910102809102029091030244
:103A50000E945E5C6093771F7093781F8093791F3C
:103A600090937A1FE0912606F0912706C080D180BE
:103A7000E280F380C092FF1FD0920020E0920120EC
:103A8000F09202204090EC1D5090ED1D6090EE1DD4
:103A90007090EF1D8090F41D9090F51DA090F61D84
:103AA000B090F71DA3019201C701B6010E94345ADC
:103AB000181614F40C94BB25A5019401C701B60196
:103AC0000E94345A181614F40C94BB25109203204B
:103AD0001092042010920520109206202091731F4E
:103AE0003091741F4091751F5091761F6091F71FA0
:103AF0007091F81F8091F91F9091FA1F0E94BD5993
:103B000020910320309104204091052050910620FF
:103B10000E94BD596B017C01C0927B1FD0927C1F1B
:103B2000E0927D1FF0927E1F809000039090010331
:103B3000A0900203B0900303A50194010E94245CAD
:103B4000181614F00C94152680927F1F9092801FF7
:103B5000A092811FB092821F20910C0230910D0221
:103B600040910E0250910F0260E070E08FE793E405
:103B70000E94385A20917F1F3091801F4091811FF1
:103B80005091821F0E945E5C0E940E5B6093F71F43
:103B90007093F81F8093F91F9093FA1F0E942C3A9C
:103BA000882311F40C9431261092F71F1092F81FFD
:103BB0001092F91F1092FA1FC090F71FD090F81FB3
:103BC000E090F91FF090FA1F20E030E0A901C70152
:103BD000B6010E94345A87FD02C00C945626C701D4
:103BE000B60190580E94A55A61956093332070E009
:103BF00090E080E00E94D15A6093831F7093841FED
:103C00008093851F9093861F209123063091240670
:103C10002130310509F099C020911806211195C075
:103C20001092871F1092881F1092891F10928A1F6E
:103C300060938B1F70938C1F80938D1F90938E1FAA
:103C400010924B1F10924C1F10924D1F10924E1F3E
:103C500010924F1F1092501F1092511F1092521F1E
:103C60008091340290913502A0913602B0913702D2
:103C7000898B9A8BAB8BBC8B8091351E9091361EB5
:103C8000A091371EB091381E89879A87AB87BC8771
:103C900032E0E32EF12C0BE41FE121E030E0AE0135
:103CA000475F5F4F61E070E0CE0141960E94BE0722
:103CB000C0908F1FD090901FE090911FF090921FA6
:103CC00050E040E062E070E0C8010E94520A20E04B
:103CD00030E040E05FE20E945E5C9B01AC01C70106
:103CE000B6010E94BC596B017C01C0920720D092A2
:103CF0000820E0920920F0920A20AC019B0160911B
:103D000008027091090280910A0290910B020E94B0
:103D10005E5C6093931F7093941F8093951F9093A4
:103D2000961FA70196016091000270910102809197
:103D30000202909103020E945E5C6093971F709351
:103D4000981F8093991F90939A1F4090FC1D50904C
:103D5000FD1D6090FE1D7090FF1DC090FF1FD09054
:103D60000020E0900120F09002208090041E9090AE
:103D7000051EA090061EB090071EA7019601C30164
:103D8000B2010E94245C87FD97C7A5019401C70179
:103D9000B6010E94345A18160CF48EC71092F71F01
:103DA0001092F81F1092F91F1092FA1F2091931F82
:103DB0003091941F4091951F5091961F6091811EE4
:103DC0007091821E8091831E9091841E0E94BD5925
:103DD0002091F71F3091F81F4091F91F5091FA1F61
:103DE0000E94BD596B017C01C0929B1FD0929C1F09
:103DF000E0929D1FF0929E1F8090100390901103FF
:103E0000A0901203B0901303A50194010E94245CBA
:103E100018160CF0A9C780929F1F9092A01FA09225
:103E2000A11FB092A21F20910C0230910D0240916F
:103E30000E0250910F0260E070E08FE793E40E9461
:103E4000385A20919F1F3091A01F4091A11F50917F
:103E5000A21F0E945E5C0E940E5B6093FF1F709326
:103E6000002080930120909302200E942C3A882306
:103E700009F493C71092FF1F1092002010920120A6
:103E800010920220C090FF1FD0900020E0900120EF
:103E9000F090022020E030E0A901C701B6010E94A5
:103EA000345A87FF9DC7C701B60190580E94A55A92
:103EB00061956093342070E090E080E00E94D15AD8
:103EC0006093A31F7093A41F8093A51F9093A61FB8
:103ED000209123063091240621303105A1F4209150
:103EE0001806211110C01092A71F1092A81F10923F
:103EF000A91F1092AA1F6093AB1F7093AC1F8093F1
:103F0000AD1F9093AE1F6BE070E080E090E00E94E8
:103F10004E028C019093AB1D8093AA1D60913420BA
:103F200070E090E080E00E94D15AAB01BC01C80172
:103F30000E94170280912306909124060197F1F4C4
:103F40008091180681111AC0209107203091082015
:103F50004091092050910A2060910402709105025D
:103F600080910602909107020E945E5C6093AF1FF1
:103F70007093B01F8093B11F9093B21F63E070E005
:103F800080E090E00E944E028C019093B31D8093DC
:103F9000B21D6091332070E090E080E00E94D15A21
:103FA000AB01BC01C8010E941702809123069091C9
:103FB00024060197F1F48091180681111AC020910E
:103FC000FB1F3091FC1F4091FD1F5091FE1F60911F
:103FD00004027091050280910602909107020E94EE
:103FE0005E5C6093B31F7093B41F8093B51F909372
:103FF000B61F69E070E080E090E00E944E028C0104
:104000009093CB1D8093CA1D69A97AA98BA99CA9FD
:104010000E94D15A20E030E040E057E30E945E5C0D
:104020006B017C01C092FB1FD092FC1FE092FD1F30
:10403000F092FE1F20E030E04FE753E40E94345A34
:1040400018160CF4D2C6C092FF1FD0920020E09246
:104050000120F09202204091FF1F509100206091BA
:10406000012070910220C8010E9417026AE070E0EE
:1040700080E090E00E944E028C019093C31D8093DB
:10408000C21DC090FB1FD090FC1FE090FD1FF09060
:10409000FE1F20E030E04FE753E4C701B6010E9465
:1040A000345A18160CF4AEC6C092FF1FD0920020EE
:1040B000E0920120F09202204091FF1F50910020D9
:1040C0006091012070910220C8010E94170264E0F3
:1040D00070E080E090E00E944E028C019093BB1D46
:1040E0008093BA1D20E030E04FE753E46091FB1F5E
:1040F0007091FC1F8091FD1F9091FE1F0E94345A09
:10410000181664F480E090E0AFE7B3E48093FB1FFF
:104110009093FC1FA093FD1FB093FE1F4091FB1FC7
:104120005091FC1F6091FD1F7091FE1FC8010E94FD
:1041300017028091230690912406019709F0C6C0CA
:104140008091180681119BC0C090411ED090421EE4
:10415000E090431EF090441EC701B6010E94D35A5E
:104160002B013C0120912003309121034091220337
:10417000509123030E94345A87FF51C6F7FC4FC663
:104180008090180390901903A0901A03B0901B031D
:104190008092072090920820A0920920B0920A20D5
:1041A00020E030E040E85FE360911C0370911D0364
:1041B00080911E0390911F030E94BC599B01AC018A
:1041C000C301B2010E94245C87FD2DC61092411EDE
:1041D0001092421E1092431E1092441EE09125053B
:1041E000F0912605008111810130110521F08091A7
:1041F000A0058823A9F0FF24F39420E030E040E8F4
:104200005FE36091EB1F7091EC1F8091ED1F909127
:10421000EE1F0E94345A811101C0F12CF0925A1EF7
:104220006091E71F7091E81F8091E91F9091EA1F4C
:1042300020915A1E21110CC6209128033091290388
:1042400040912A0350912B030E945E5C21966CAF33
:104250007DAF8EAF9FAF21970130110521F0809186
:10426000A005882361F08091701E882309F4EDC5B4
:10427000833009F0E6C581E090E08093701E809164
:104280001906811123C0C0904402D0904502E090ED
:104290004602F0904702A70196016091801D70913F
:1042A000811D8091821D9091831D0E94345A882324
:1042B00041F0C092801DD092811DE092821DF0924B
:1042C000831D84E20E940F02809337208091230691
:1042D00090912406019709F0E4C580911A06811196
:1042E0000C94EB2DE0912505F091260580819181BC
:1042F000019731F08091A005882311F40C94E52DED
:10430000809137208111CAC510925B1E2091C8028E
:104310003091C9024091CA025091CB026091E01DD8
:104320007091E11D8091E21D9091E31D0E94BD59A5
:104330006093E01D7093E11D8093E21D9093E31D57
:104340002091D0023091D1024091D2025091D302FB
:104350000E944B156093C71F7093C81F8093C91F9D
:104360009093CA1F6093E01D7093E11D8093E21D3E
:104370009093E31DE0912505F091260580819181C0
:10438000019729F08091A005882309F48AC58091BE
:10439000611E882311F40C94072F833011F00C94C4
:1043A000022F81E090E08093611E7BC5082E000CF7
:1043B000990BA7C882E090E0A4C88FEF8093561EA7
:1043C0000130110509F0AFC8FF24F39420E030E07C
:1043D000A9016091E71F7091E81F8091E91F9091FA
:1043E000EA1F0E94345A811101C0F12CF092571E2D
:1043F0009EC860911C1E70911D1E80911E1E909182
:104400001F1E8090511E9090521EA090531EB0907F
:10441000541EA7018A9489288A288B2891F4960132
:104420000E94345A882391F082E090E0A0E0B0E04E
:104430008093511E9093521EA093531EB093541E0E
:1044400005C096010E94345A81110FC8C092EB1F1B
:10445000D092EC1FE092ED1FF092EE1FC0921C1E56
:10446000D0921D1EE0921E1EF0921F1E01301105FB
:1044700029F08091A005882309F455C880916D1E0C
:10448000882359F0833029F481E090E080936D1EF9
:1044900097CF082E000C990BF9CF82E090E0F6CF71
:1044A000082E000C990B66C882E090E063C88091EA
:1044B000EB1F9091EC1FA091ED1FB091EE1F809328
:1044C000E31F9093E41FA093E51FB093E61F013014
:1044D000110529F08091A005882309F44DC8809129
:1044E0006C1E882359F0833029F481E090E080939A
:1044F0006C1E42C8082E000C990BF9CF82E090E0A8
:10450000F6CF8090F4029090F502A090F602B09061
:10451000F702A5019401C701B6010E94345A87FD34
:10452000EDC8C0926B1FD0926C1FE0926D1FF0928D
:104530006E1FECC8082E000C990B3EC982E090E07B
:104540003BC9EA94EF2831F08091A005882311F44B
:104550000C94F4328091711E882359F0833029F431
:1045600081E090E08093711E29C9082E000C990B00
:10457000F9CF82E090E0F6CF082E000C990BE0C94D
:1045800082E090E0DDC90130110521F08091A005A5
:104590008823B9F0FF24F39420E030E040E251E4B6
:1045A00060916B1F70916C1F80916D1F90916E1FB9
:1045B0000E94245C18160CF0F12C81E0F826F09291
:1045C000631E8091631E81115CC2809123069091CD
:1045D0002406019709F008C180911806811104C1D1
:1045E0000130110509F47CC08091A005811178C0CB
:1045F0008091A0058111FCC0E0912505F091260570
:10460000E080F1808091230690912406019709F0C3
:1046100052C08091180681114EC021E0E216F104CB
:1046200029F08091A005882309F448C04090CB1F51
:104630005090CC1F6090CD1F7090CE1F8090CF1FE8
:104640009090D01FA090D11FB090D21F20E030E0FA
:1046500040E251E46091671F7091681F8091691F6B
:1046600090916A1F0E94245C18160CF03AC2409286
:104670008F1F5092901F6092911F7092921F809294
:104680006F1F9092701FA092711FB092721F31E045
:10469000E316F10421F08091A005882379F0809140
:1046A000651E882309F41AC2833009F013C281E021
:1046B00090E08093651EEA94EF2829F08091A00590
:1046C000882309F43FC98091621E882309F450C2EF
:1046D000833009F049C281E090E08093621E32C9C4
:1046E00040905F1F5090601F6090611F7090621F2C
:1046F00020E030E040E251E4C301B2010E94345AAC
:10470000C090631FD090641FE090651FF090661FFB
:1047100020E030E040E251E487FFFEC0C701B6016F
:104720000E94345A8090140290901502A0901602B4
:10473000B090170287FF70C0A7019601C301B201B4
:104740000E94BC5920912002309121024091220206
:10475000509123020E945E5C6B017C01C092FF1F9E
:10476000D0920020E0920120F09202204090980226
:104770005090990260909A0270909B02AC019B014C
:10478000C301B2010E94BC59A50194010E945E5C64
:104790006093CB1F7093CC1F8093CD1F9093CE1F3F
:1047A000A3019201C701B6010E94BD59A501940160
:1047B0000E945E5C6093CF1F7093D01F8093D11FC7
:1047C0009093D21F0130110529F08091A005882314
:1047D00009F40ECF80916A1E8823D9F08330A9F4A2
:1047E00081E090E080936A1E0130110509F000CF4E
:1047F0008091661E882309F441C1833009F03AC1D3
:1048000081E090E08093661EF7CE082E000C990B95
:10481000E9CF82E090E0E6CFA301920160919C0293
:1048200070919D0280919E0290919F020E94BC59BE
:104830006093D31F7093D41F8093D51F9093D61F7E
:1048400020912002309121024091220250912302B6
:104850000E945E5C6B017C01C092D71FD092D81F72
:10486000E092D91FF092DA1F4090A0025090A1026E
:104870006090A2027090A302AC019B01C301B2013F
:104880000E94BC59A50194010E945E5C6093CF1FF9
:104890007093D01F8093D11F9093D21FA3019201D8
:1048A000C701B6010E94BD599B01AC012093DB1FDB
:1048B0003093DC1F4093DD1F5093DE1FC501B40110
:1048C0000E945E5C6093DF1F7093E01F8093E11F86
:1048D0009093E21F6093CB1F7093CC1F8093CD1FEA
:1048E0009093CE1F0130110529F08091A0058823F7
:1048F00009F47ECE8091691E882359F0833029F413
:1049000081E090E08093691E6FCF082E000C990B18
:10491000F9CF82E090E0F6CFC701B6010E94345A89
:1049200087FF6EC0A70196016091A8027091A9024D
:104930008091AA029091AB020E94BC592091200262
:104940003091210240912202509123020E945E5C2C
:104950006B017C01C092FF1FD0920020E0920120E9
:10496000F09202204090A4025090A5026090A6020E
:104970007090A7028090140290901502A0901602E9
:10498000B0901702AC019B01C301B2010E94BC5957
:10499000A50194010E945E5C6093CB1F7093CC1FB5
:1049A0008093CD1F9093CE1FA3019201C701B60142
:1049B0000E94BD59A50194010E945E5C6093CF1FC7
:1049C0007093D01F8093D11F9093D21F0130110597
:1049D00029F08091A005882309F40ACE8091681EF1
:1049E000882359F0833029F481E090E08093681E99
:1049F000FBCE082E000C990BF9CF82E090E0F6CFA9
:104A00008091AC029091AD02A091AE02B091AF0244
:104A10008093CB1F9093CC1FA093CD1FB093CE1F3C
:104A20008091B0029091B102A091B202B091B30214
:104A30008093CF1F9093D01FA093D11FB093D21F0C
:104A40000130110529F08091A005882309F4D0CD0B
:104A50008091671E882359F0833029F481E090E02B
:104A60008093671EC1CE082E000C990BF9CF82E00F
:104A700090E0F6CF082E000C990BC4CE82E090E0B7
:104A8000C1CE2CE633E04FEC5FE16BEC7FE18FE1D0
:104A900095E00E94E916E0912505F09126058081B8
:104AA0009181019729F08091A005882309F4A4CD74
:104AB0008091791E882359F0833029F481E090E0B9
:104AC0008093791E99CD082E000C990BF9CF82E0C6
:104AD00090E0F6CF082E000C990BEBCD82E090E031
:104AE000E8CDA30192016091B4027091B50280916A
:104AF000B6029091B7020E945E5C60938F1F709324
:104B0000901F8093911F9093921FA5019401609133
:104B1000B8027091B9028091BA029091BB020E94D2
:104B20005E5C60936F1F7093701F8093711F9093F2
:104B3000721F41E0E416F10429F08091A00588235A
:104B400009F4BCCD8091641E882359F0833029F488
:104B500081E090E08093641EAECD082E000C990B8E
:104B6000F9CF82E090E0F6CF082E000C990BB5CD7E
:104B700082E090E0B2CD40920320509204206092F7
:104B8000052070920620A5019401C301B2010E9484
:104B9000345A87FF3FC0A5019401C701B6010E94A6
:104BA000245C18160CF03EC08092032090920420E2
:104BB000A0920520B0920620E8EFFDE1208131812E
:104BC000428153816091771F7091781F8091791F86
:104BD00090917A1F0E94BC594B015C0120910320E7
:104BE000309104204091052050910620C701B60164
:104BF0000E94BC599B01AC01C501B4010E94385A06
:104C000060930320709304208093052090930620E6
:104C10000C946E1DA3019201C701B6010E94345A83
:104C2000181614F6E0EFFDE1C9CF809004039090D0
:104C30000503A0900603B0900703A5019401C701E6
:104C4000B6010E94345A87FF02C00C94A41DC09282
:104C50007F1FD092801FE092811FF092821F0C94E0
:104C6000AC1D6091F71F7091F81F8091F91F909112
:104C7000FA1F0E94E73981110C94D41D6091F71F2F
:104C80007091F81F8091F91F9091FA1F20E030E099
:104C900040E853E40E94285B6093F71F7093F81F6D
:104CA0008093F91F9093FA1F0C94DC1DC701B60185
:104CB0000E94A55A0C94F51D4092032050920420A6
:104CC0006092052070920620A5019401C301B201F3
:104CD0000E94345A87FF3DC0A5019401C701B60167
:104CE0000E94245C1816ECF5809203209092042018
:104CF000A0920520B0920620E8E0FEE120813181FB
:104D0000428153816091971F7091981F8091991FE4
:104D100090919A1F0E94BC594B015C012091032085
:104D2000309104204091052050910620C701B60122
:104D30000E94BC599B01AC01C501B4010E94385AC4
:104D40006093F71F7093F81F8093F91F9093FA1FD9
:104D50002DC8A7019601C301B2010E94245C87FF00
:104D6000C3CFE0E0FEE1CACF80901403909015031A
:104D7000A0901603B0901703A5019401C701B601D6
:104D80000E94345A87FD47C8C0929F1FD092A01F2F
:104D9000E092A11FF092A21F46C86091FF1F709180
:104DA000002080910120909102200E94E73981111A
:104DB00061C86091FF1F7091002080910120909147
:104DC000022020E030E040E853E40E94285B60933A
:104DD000FF1F70930020809301209093022052C8FF
:104DE000C701B6010E94A55A64C880E090E0AFE711
:104DF000B3E48093FF1F90930020A0930120B09311
:104E0000022029C980E090E0AFE7B3E48093FF1F60
:104E100090930020A0930120B09302204DC9812CD3
:104E2000912C5401B5C98FEFC81AD80AE80AF80ABC
:104E3000C092411ED092421EE092431EF092441E48
:104E4000CDC9082E000C990B18CA82E090E015CA53
:104E50009B01AC01C501B4010E945E5C21966CAF60
:104E60007DAF8EAF9FAF21970130110529F0809162
:104E7000A005882309F403CA80916F1E882359F086
:104E8000833029F481E090E080936F1EF8C9082EEA
:104E9000000C990BF9CF82E090E0F6CF8FEF809372
:104EA0005B1E8091230690912406019709F493C616
:104EB0008091230690912406019709F061C010911A
:104EC000180611115DC021966CAD7DAD8EAD9FAD04
:104ED00021970E940C176B017C01C092FF1FD0929A
:104EE0000020E0920120F092022020E030E040E833
:104EF00053E40E94345A87FD02C00C94723120E0C2
:104F000030E0A901C701B6010E94245C87FD05C0FD
:104F1000C701B6010E94A55A162F612F8BE20E948D
:104F2000080265E070E080E090E00E944E028C0193
:104F30009093D31D8093D21DC0904C03D0904D030D
:104F4000E0904E03F0904F0320E030E04FE753E451
:104F5000C701B6010E94345A181614F40C94753126
:104F600020E030E0A901C701B6010E94245C87FF60
:104F700002C00C947D31B701A601C8010E9417023E
:104F8000C090BC02D090BD02E090BE02F090BF0283
:104F9000A701960160914F1D7091501D8091511D88
:104FA0009091521D0E94345A882341F0C0924F1DA7
:104FB000D092501DE092511DF092521D80914E1DD5
:104FC000811110924E1DBE01675E7F4F8091531D6F
:104FD0000E9496058091230690912406019709F07E
:104FE0007AC080911806811176C0298D3A8D4B8D3B
:104FF0005C8D2DAB3EAB4FAB58AF80912C029091A6
:105000002D02A0912E02B0912F02898B9A8BAB8B2F
:10501000BC8B8091391E90913A1EA0913B1EB0919D
:105020003C1E281B390B4A0B5B0BDA01C90189872F
:105030009A87AB87BC8712E0E12EF12C03E31FE1D6
:1050400021E030E0AE01475F5F4F61E070E0CE01EC
:1050500041960E94BE0704E0E02EF12C07E81EE115
:1050600022E030E043E35FE162E070E080E593E05E
:105070000E94BE0788E0E3E3FFE1DE0111960190A4
:105080000D928A95E1F707EC1EE122E030E044ED55
:1050900053E062E070E083E39FE10E94BE0704E01A
:1050A00010E027EB3EE14FE150E064E070E087EC78
:1050B0009EE10E94FE0A8091B71E9091B81EA091B9
:1050C000B91EB091BA1E80932B2090932C20A093F0
:1050D0002D20B0932E20C090C002D090C102E0904D
:1050E000C202F090C302A70196016091431D709126
:1050F000441D8091451D9091461D0E94345A88237D
:1051000041F0C092431DD092441DE092451DF092A3
:10511000461D8091421D81111092421DBE01675EA5
:105120007F4F8091471D0E949605809123069091A4
:105130002406019709F086C080911806811182C06B
:10514000898D9A8DAB8DBC8D89AF9AAFABAFBCAF5B
:1051500080912C0290912D02A0912E02B0912F02ED
:10516000898B9A8BAB8BBC8B80913D1E90913E1EA0
:10517000A0913F1EB091401E29AD3AAD4BAD5CAD44
:10518000281B390B4A0B5B0BDA01C90189879A8707
:10519000AB87BC87A2E0EA2EF12C8E010F5F1F4F78
:1051A00021E030E0AE01475F5F4F61E070E0CE018B
:1051B00041960E94BE0788E0F801ABE3BFE1019091
:1051C0000D928A95E1F7B4E0EB2EF12C07EC1EE18D
:1051D00022E030E04BE35FE162E070E088E593E0DD
:1051E0000E94BE0780E1F801A7E9BEE101900D929F
:1051F0008A95E1F707EE1EE122E030E044ED53E04E
:1052000062E070E08BE39FE10E94BE0704E010E0E3
:1052100027ED3EE14FE150E064E070E087EE9EE173
:105220000E94FE0A8091D71E9091D81EA091D91E8F
:10523000B091DA1E80932F2090933020A0933120DC
:10524000B09332208091230690912406019709F0B3
:1052500048C2809118068111BFC08091C31F9091F0
:10526000C41FA091C51FB091C61F8093D41D9093F9
:10527000D51DA093D61DB093D71D8091EB1F9091A3
:10528000EC1FA091ED1FB091EE1F8093D81D90935D
:10529000D91DA093DA1DB093DB1D80916B1F9091F7
:1052A0006C1FA0916D1FB0916E1F8093DC1D9093B9
:1052B000DD1DA093DE1DB093DF1D60912B2070914A
:1052C0002C2080912D2090912E2022E030E043E28E
:1052D00050E20E942A0D02E010E02BE030E24EE1A5
:1052E00050E062E070E083E290E20E94100C809156
:1052F000280290912902A0912A02B0912B028DA739
:105300009EA7AFA7B8AB8091311E9091321EA0919D
:10531000331EB091341E89A79AA7ABA7BCA7F2E0B1
:10532000EF2EF12C03E210E221E030E0AE01475D08
:105330005F4F61E070E0CE018D960E94BE0722E0D3
:1053400030E0AE014F5D5F4FB8018BE090E20E940C
:10535000400D88E0FE01B196ABE0B0E201900D9205
:105360008A95E1F78091240290912502A09126026E
:10537000B0912702892B8A2B8B2B09F0D8C742E0EA
:1053800050E06CEC73E08BE090E20E9444158823BF
:1053900009F4B8C788E0E4ECF3E0ABE1B0E20190D7
:1053A0000D928A95E1F702E010E09E012F5E3F4FDB
:1053B0004EE150E062E070E08BE190E20E94FE0A74
:1053C00089899A89AB89BC898093311E9093321E5A
:1053D000A093331EB093341E8091EC1D9091ED1D6F
:1053E000A091EE1DB091EF1D89AB9AABABABBCABFE
:1053F0004090402050904120609042207090432087
:10540000E0912606F0912706C080D180E280F380EB
:10541000A3019201BC01CD010E94345A8111DFC762
:10542000C092EC1DD092ED1DE092EE1DF092EF1DAA
:10543000E0EFFDE18091771F9091781FA091791F97
:10544000B0917A1F80839183A283B38380912306D6
:1054500090912406019709F08CC080911806811163
:1054600088C060912F2070913020809131209091E0
:10547000322022E030E0AE01475F5F4F0E942A0DEC
:1054800002E010E02BE030E24EE150E062E070E03C
:10549000CE0109960E94100C809128029091290259
:1054A000A0912A02B0912B028DA79EA7AFA7B8ABFF
:1054B0008091351E9091361EA091371EB091381EF6
:1054C00089A79AA7ABA7BCA742E0E42EF12C8E01D6
:1054D000075F1F4F21E030E0AE01475D5F4F61E0A5
:1054E00070E0CE018D960E94BE0722E030E0AE0152
:1054F000475E5F4FB8018BE090E20E94400D8091C3
:10550000240290912502A0912602B0912702892BB6
:105510008A2B8B2B09F09FC742E050E06CEC73E0C4
:10552000CE0149960E944415882309F47FC788E07C
:10553000E4ECF3E0A3E1B0E201900D928A95E1F78B
:1055400002E010E09E012F5F3F4F4EE150E062E02D
:1055500070E083E190E20E94FE0A89819A81AB812A
:10556000BC818093351E9093361EA093371EB09356
:10557000381E2091FC1D3091FD1D4091FE1D509163
:10558000FF1D29AB3AAB4BAB5CAB40904020509039
:1055900041206090422070904320E0912606F091D7
:1055A0002706C080D180E280F380A301920169A91F
:1055B0007AA98BA99CA90E94345A8111A3C7C092D1
:1055C000FC1DD092FD1DE092FE1DF092FF1DE0E05B
:1055D000FEE18091971F9091981FA091991FB09123
:1055E0009A1F80839183A283B38380912306909135
:1055F00024060197E1F480911806811118C08DA945
:105600009EA9AFA9B8AD8093391E90933A1EA0937E
:105610003B1EB0933C1E29AD3AAD4BAD5CAD209323
:105620003D1E30933E1E40933F1E5093401E4091BE
:10563000F4055091F5056091F6057091F70590E03D
:1056400080E00E942D078091230690912406019707
:1056500081F48091180681110CC04091FC05509195
:10566000FD056091FE057091FF0581E090E00E94CC
:105670002D0780912306909124060197B1F4809123
:105680001906811112C02091000630910106409147
:10569000020650910306AAE0B0E00E949565AB01B6
:1056A000BC0182E090E00E942D078091230690913A
:1056B00024060197B1F480911A06811112C020913D
:1056C0000406309105064091060650910706A4E1B4
:1056D000B0E00E949565AB01BC0183E090E00E94C0
:1056E0002D078091230690912406019709F051C758
:1056F000E0915F05F09160050190F081E02D8081DF
:105700009181A281B38189AF9AAFABAFBCAF209139
:105710002F053091300540913105509132052B967F
:105720002CAF3DAF4EAF5FAF2B97E0913305F091BB
:105730003405C080D180E280F380E0916305F09170
:10574000640500811181E0912705F09128052080F2
:105750003180428153815AAB49AB848195819EABA4
:105760008DAB96819DAFA7812296AFAF2297E09136
:105770002505F09126051182108288E0F801D101FB
:1057800001900D928A95E1F7E0915D05F0915E053B
:10579000518340830E945B1720E030E040E05FE3EC
:1057A000C701B6010E945E5C2B013C01E9A9FAA980
:1057B00020813181428153810E945E5CD1012D9113
:1057C0003D914D915C910E94BD59F80160837183B8
:1057D00082839383A9A9BAA914962D913D914D91E5
:1057E0005C911797C301B2010E945E5CF1012481B4
:1057F0003581468157810E94BD59D80114966D9319
:105800007D938D939C931797E0915F05F0916005D0
:10581000A080B180A301920169AD7AAD8BAD9CAD42
:105820000E94BD59F5016083718382839383E09167
:105830005D05F0915E052DA93EA9318320830E946C
:1058400078170E945B1720E030E0A901C701B6017C
:105850000E945E5C4B015C0120E030E040E45FE3CD
:10586000C701B6010E945E5C2B013C01ADA9BEA937
:105870002D913D914D915C910E945E5C27966CAF9D
:105880007DAF8EAF9FAF2797E9A9FAA9208131811B
:1058900042815381C501B4010E945E5C9B01AC0151
:1058A00027966CAD7DAD8EAD9FAD27970E94BD59FB
:1058B000D1012D913D914D915C910E94BD59F8010E
:1058C0006083718382839383A9A9BAA914962D91C9
:1058D0003D914D915C911797C501B4010E945E5CAA
:1058E0004B015C01EDA9FEA92481358146815781D8
:1058F000C301B2010E945E5C9B01AC01C501B40111
:105900000E94BD59D10114962D913D914D915C910C
:1059100017970E94BD59F801648375838683978326
:10592000E0915F05F0916005A080B180A301920134
:1059300069AD7AAD8BAD9CAD0E94BD59D5016D931B
:105940007D938D939C931397E0915D05F0915E0597
:10595000BDADB08322962FAD229721830E94781788
:105960000E945B1729E33EE843E65EE3C701B60108
:105970000E945E5C27966CAF7DAF8EAF9FAF27977E
:105980002BEA3AEA4AEA5EE3C701B6010E945E5C8E
:105990002F966CAF7DAF8EAF9FAF2F9729E33EE878
:1059A00043EE5EE3C701B6010E945E5C63966CAF96
:1059B0007DAF8EAF9FAF63973DAD39AF22964FADB0
:1059C00022974AAFC101089623969FAF8EAF2397C7
:1059D000D1012D913D914D915D911D0121962CAFED
:1059E0003DAF4EAF5FAF2197E9A9FAA961917191DF
:1059F00081919191FAABE9ABADA9BEA94D905D90B3
:105A00006D907D90BEABADABE9ADFAADC190D190DC
:105A1000E190F190FAAFE9AF27962CAD3DAD4EADD8
:105A20005FAD27970E945E5C4B015C012F962CAD09
:105A30003DAD4EAD5FAD2F97C301B2010E945E5CDC
:105A40009B01AC01C501B4010E94BD594B015C0131
:105A500063962CAD3DAD4EAD5FAD6397C701B6010A
:105A60000E945E5C9B01AC01C501B4010E94BD595E
:105A700021962CAD3DAD4EAD5FAD21970E94BD5935
:105A8000D8016D937D938D939D938D012396EEADFB
:105A9000FFAD2397E215F30509F09ACFE0915F057A
:105AA000F09160050190F081E02D2B962CAD3DAD7D
:105AB0004EAD5FAD2B972083318342835383E091BA
:105AC0002505F091260581E090E091838083409147
:105AD000F4055091F5056091F6057091F7054F5F5B
