:1000000005C100000C94F03B0C941B3C0C94463C46
:100010000C94713C0C949C3C0C94C73C0C94F23CAA
:100020000C941D3D24C1000022C1000020C100002D
:100030001EC100001CC100001AC1000018C1000050
:1000400016C1000014C1000012C1000010C1000060
:100050000EC100000CC100000AC100000C94483D14
:1000600006C100000C9467410C949D4100C1000042
:10007000FEC00000FCC00000FAC00000F8C0000094
:10008000F6C00000F4C00000F2C00000F0C00000A4
:100090000C94F3410C942942EAC00000E8C000002F
:1000A000E6C00000E4C00000E2C00000E0C00000C4
:1000B000DEC00000DCC00000DAC00000D8C00000D4
:1000C000D6C00000D4C000000C94C2360C947F420D
:1000D0000C94B542CCC000000C940B430C944143EB
:1000E000C6C0000000000A0B02090C0D0E08070331
:1000F00004010000000000000000000000000000FB
:1001000000000000000000000000000000000000EF
:1001100012111000000000000000000000000000AC
:100120000000000000000000000001021020200874
:100130000810204010204080020102010804020142
:1001400001020408102040808040201008040201B1
:10015000800402018040201008040201080402010A
:100160000102040810204080010204081020408091
:1001700005050505070508080808020202020A0A23
:100180000808040404040101010101010101030341
:10019000030303030303040707070C0C0C0C0C0CEC
:1001A0000C0C0202020206060606060606060B0BE9
:1001B0000B0B0B0B0B0B000020002300260029006B
:1001C0002C002F003200000100000301060109018C
:1001D00000002200250028002B002E0031003400F2
:1001E00002010000050108010B01000021002400AC
:1001F00027002A002D003000330001010000040117
:1002000007010A01C6415242DE426A4311241FBE61
:10021000CFEFD1E2DEBFCDBF00E00CBF13E0A0E026
:10022000B2E0EAE7F8E800E00BBF02C007900D92E9
:10023000AE3EB107D9F72BE0AEEEB3E001C01D92A0
:10024000A338B207E1F711E0C6E0D1E000E006C054
:1002500021970109802FFE010E940A44C230D10774
:1002600080E00807A9F70E941E380C943B44C8CED2
:10027000611102C00C94AC3F6130E1F362E0FACF4F
:10028000662319F061E00C94E83F60E0FCCF0E9427
:10029000154021E0019709F020E0822F0895CF92C8
:1002A000DF92EF92FF92CF93882351F16A017B0195
:1002B000CFEFC80F20E030E0A901CB01B6010E94CA
:1002C0001E3918168CF0C701B60190580E948F395C
:1002D0009B01AC016C2F70E090E080E0CF91FF902B
:1002E000EF90DF90CF90B2C0C701B6010E948A396B
:1002F0008C2FCF91FF90EF90DF90CF900C94723EB7
:10030000CF91FF90EF90DF90CF9008950F931F93C0
:100310008B019C0183E036952795179507958A9563
:10032000D1F702511C4F462F477021E030E0F90110
:1003300002C0EE0FFF1F4A95E2F7AF01F8012081DE
:100340002423CB010196211102C090E080E01F918F
:100350000F9108950F931F938B019C0183E03695B5
:100360002795179507958A95D1F7677081E090E0FA
:1003700001C0880F6A95EAF7F801E251FC4F20812D
:10038000452B31F48095822380831F910F9108952E
:10039000822BFACF2F923F924F925F926F927F9271
:1003A0008F929F92AF92BF92CF92DF92EF92FF9285
:1003B0000F931F93CF93DF93D62EC72E782E692EDF
:1003C00049015A01280161E08D2D0E94AC3FCD2DDD
:1003D000DC2D8E010F5F1F4FA8016D2D7C2D872D09
:1003E000962DB8DF20E030E0A901C201B7010E94DC
:1003F0000E3B181664F4C201B7010E948F392B011D
:10040000C501B4010E948F39A201CE0123D0C801D9
:10041000DF91CF911F910F91FF90EF90DF90CF90E0
:10042000BF90AF909F908F907F906F905F904F9014
:100430003F902F900895882341F08150682F70E0FD
:1004400090E080E050E040E085CF0895862FB9012C
:100450000C94723E9C01FC01EC51FF4FE491E15081
:10046000E231E0F4F0E08827E75CFD4F8F4F0C9419
:100470000A444B02520255026C0281024E0296025D
:10048000A202A602BD02D202E702FE0213034E023E
:1004900028033F03540384B5806884BD60E0822F45
:1004A0000C94E83F84B58062F8CF809180008C7F07
:1004B00082608093800080918100807E8061682BC3
:1004C0006093810050938700409386008091800064
:1004D000806880938000E2CF809180008C7F826072
:1004E0008093800080918100807E8061682B609382
:1004F0008100509387004093860080918000806245
:10050000E8CF809180008C7F826080938000809112
:100510008100807E8061682B60938100509387000A
:1005200040938600809180008860D3CF8091B00096
:1005300080688093B0008091B100887F682B6093C1
:10054000B100ACCF8091B0008062F3CF8091900079
:100550008C7F82608093900080919100807E80618A
:10056000682B609391005093970040939600809180
:10057000900080688093900091CF809190008C7F54
:1005800082608093900080919100807E8061682BD2
:100590006093910050939700409396008091900053
:1005A0008062E8CF809190008C7F82608093900081
:1005B00080919100807E8061682B609391005093C0
:1005C000970040939600809190008860D3CF8091EF
:1005D000A0008C7F82608093A0008091A100807E2B
:1005E0008061682B6093A1005093A7004093A60000
:1005F0008091A00080688093A00050CF8091A000DF
:100600008C7F82608093A0008091A100807E8061B9
:10061000682B6093A1005093A7004093A60080919F
:10062000A0008062E8CF8091A0008C7F82608093E0
:10063000A0008091A100807E8061682B6093A10062
:100640005093A7004093A6008091A0008860D3CF6C
:10065000809120018C7F8260809320018091210114
:10066000807E8061682B6093210150932701409325
:100670002601809120018068809320010FCF809116
:1006800020018C7F82608093200180912101807EF7
:100690008061682B609321015093270140932601CC
:1006A000809120018062E8CF809120018C7F826060
:1006B0008093200180912101807E8061682B60936E
:1006C00021015093270140932601809120018860E9
:1006D000D3CFCF93DF93882349F0EB0181500E9461
:1006E0004F3E99838883DF91CF910895FB0111825A
:1006F0001082F9CF0F931F938B019C0183E03695F5
:100700002795179507958A95D1F709501C4F462FC5
:10071000477021E030E0F90102C0EE0FFF1F4A955B
:10072000E2F7AF01F80120812423CB0101962111CA
:1007300002C090E080E01F910F9108950F931F93E6
:100740008B019C0183E036952795179507958A952F
:10075000D1F7677081E090E001C0880F6A95EAF7F1
:10076000F801E950FC4F2081452B31F4809582231C
:1007700080831F910F910895822BFACFCF92DF9241
:10078000EF92FF92CF93DF936B017C0160E086E3F1
:10079000C816D104E104F10490F486E38C0D0E94A4
:1007A000AC3FE6012196AE01C701B601C7DFCE011D
:1007B000DF91CF91FF90EF90DF90CF9008958C2D37
:1007C000EECF882341F08150682F70E090E080E008
:1007D00050E040E0B3CF089590E080E008950F939B
:1007E0001F93009709F489C06115710509F485C04C
:1007F00000912003109121032091220330912303C3
:100800000E3F1F4F2F4F3F4F09F068C04FEF5FEF74
:10081000BA01409320035093210360932203709305
:100820002303409120035091210360912203709192
:100830002303DC011296ED91FC9180819181A281CC
:10084000B3818093CE049093CF04A093D004B0934F
:10085000D10484819581A681B7818093CA04909345
:10086000CB04A093CC04B093CD0480859185A28560
:10087000B3858093C6049093C704A093C804B09333
:10088000C90484859585A685B7858093C204909315
:10089000C304A093C404B093C5041092BE04109284
:1008A000BF041092C0041092C1040E94A71A8CECDD
:1008B0009AE1909301048093000490930304809341
:1008C00002040E949619009731F421E030E0309341
:1008D000D3042093D2041F910F9108950091200317
:1008E000109121032091220330912303DB010D930A
:1008F0001D932D933C93139794CF8FEF9FEFEBCFE6
:100900008F929F92AF92BF92CF92DF92EF92FF921F
:100910001F93CF93DF934B015C011091D50482E0CC
:1009200090E09093D3048093D20481149104A104A5
:10093000B10441F48091D504811104C08091D404A4
:10094000C1E08111C0E0C12CD12C76018091D50489
:10095000811106C08091D404811102C0CC23D9F04A
:1009600083E090E09093D3048093D204CC2381F170
:10097000CCE9DFEF111102C00E94301ECE01DF91E1
:10098000CF911F91FF90EF90DF90CF90BF90AF90ED
:100990009F908F9008956AE070E080E090E00E9460
:1009A000B73D80E1C80E87E2D81EE11CF11C8FEF35
:1009B00088169806A806B80631F0C1E08C149D048C
:1009C000AE04BF0408F0C0E080E00E94CA19BECFA8
:1009D000D0E0C0E0CFCFCF92DF92EF92FF920F93A3
:1009E0001F93CF93DF938F3F910511F008F051C013
:1009F0002091D2043091D3042330310539F0209175
:100A0000D2043091D3042130310531F424E030E0B8
:100A10003093D3042093D2046A017B01EC0182302D
:100A20009105A8F011E0AE01C701B6010E94951929
:100A3000AB01BC01CE011123F9F0DF91CF911F91E1
:100A40000F91FF90EF90DF90CF900C9459208C0184
:100A5000000F111F00501C4FD8018D919C91892BC4
:100A600009F30E9463200297E9F6D801ED91FC9109
:100A7000CE011995182FD7CF0E947B2090E080E0FF
:100A8000DF91CF911F910F91FF90EF90DF90CF906A
:100A900008958FEF9FEFF4CF80E00C94CA19CF93A5
:100AA000DF9386E090E09093D3048093D2040E9479
:100AB000231AEC01E0E0F4E084E0DF011D928A9566
:100AC000E9F70E94C81D1092D3041092D204CE01FF
:100AD000DF91CF9108958091D40408958091BD0451
:100AE00008956093200370932103809322039093D1
:100AF000230390E080E00895CF92DF92EF92FF927F
:100B00008091630B8150823020F583E08093630BEA
:100B10008091620B81508230F0F483E08093620B0D
:100B20008091610B81508230C0F483E08093610B2F
:100B30008091600B8150823090F483E08093600B51
:100B400080918F04882369F0813079F0809190043E
:100B500009C080E0DBCF80E0E1CF80E0E7CF80E03C
:100B6000EDCF81E080938E0402C010928E04E0915C
:100B70008E0484E0E89FF0011124EC59FB4F85A519
:100B800096A5A7A5B0A980938A0490938B04A093FF
:100B90008C04B0938D048FEF80938E04C090350B3E
:100BA000D090360BE090370BF090380B20E030E01F
:100BB000A901C701B6010E941E3981113FC0809171
:100BC000240290912502A0912602B09127028093E1
:100BD000C70A9093C80AA093C90AB093CA0A84E0CE
:100BE0008093630B8091C70A9091C80AA091C90AAB
:100BF000B091CA0A8093350B9093360BA093370BB4
:100C0000B093380B84E080935F0B60918A047091FD
:100C10008B0480918C0490918D040E94BB392AE052
:100C200037ED43E25CE30E94123BAB01BC0182E082
:100C300090E0FF90EF90DF90CF90CDCE20E030E0BD
:100C400040E85FE3C701B6010E941E398111CACF97
:100C500020E030E0A9016091A30A7091A40A80917C
:100C6000A50A9091A60A0E941E39811126C020E093
:100C700030E0A90160919F0A7091A00A8091A10AB9
:100C80009091A20A0E941E39811117C080911C0206
:100C900090911D02A0911E02B0911F028093C70A7D
:100CA0009093C80AA093C90AB093CA0A84E08093BB
:100CB000620B84E08093600B95CF8091200290912D
:100CC0002102A0912202B09123028093C70A90933F
:100CD000C80AA093C90AB093CA0A84E08093610B42
:100CE000E8CF2F923F924F925F926F927F928F92B6
:100CF0009F92AF92BF92CF92DF92EF92FF920F93AB
:100D00001F93CF93DF9300D000D000D01F92CDB7B8
:100D1000DEB718015A0115E0B694A7941A95E1F7C9
:100D2000B886AF82F0E0E0E0A616B7060CF081C00E
:100D3000F501E20DF31D7A876987E617F70714F4CA
:100D4000FA87E9874F715527EF81F885EE0FFF1F6E
:100D5000EE0FFF1F41155105E9F48E0F9F1FA901EA
:100D6000F0E0E0E06F8178856E0F7F1FA984BA8480
:100D70006A157B050CF05DC0DC01CD90DD90ED9037
:100D8000FD90CD01DA01CD92DD92ED92FD92AD01A3
:100D90003196E8CF7C01EE0EFF1EFC82EB82D7017C
:100DA0008D909D90AD90BC903A832983F0E0E0E077
:100DB00000E210E07801E41AF50AFE82ED82750186
:100DC0006401042E04C0F694E794D794C7940A945F
:100DD000D2F731960F8118850E0F1F1FA984BA8490
:100DE0000A151B0574F1A616B706E4F4D501AA0F7F
:100DF000BB1FAA0FBB1FA80FB91F80E290E08C0198
:100E0000041B150B8D919D910D90BC91A02D04C0DC
:100E1000880F991FAA1FBB1F0A95D2F7C82AD92A83
:100E2000EA2AFB2AA981BA81CD92DD92ED92FC9249
:100E30001397DF01AA0FBB1FAA0FBB1FA20FB31F7F
:100E40002AC08F01000F111F000F111FAB81BC8141
:100E50000A0F1B1FD8018D909D90AD90BC9024016E
:100E600035010D8004C0440C551C661C771C0A9487
:100E7000D2F7C428D528E628F728A981BA81CD92CF
:100E8000DD92ED92FD92BA83A98399CF1D921D92B6
:100E90001D921D923196E215F305C4F32A960FB602
:100EA000F894DEBF0FBECDBFDF91CF911F910F91A0
:100EB000FF90EF90DF90CF90BF90AF909F908F907A
:100EC0007F906F905F904F903F902F9008952F925A
:100ED0003F924F925F926F927F928F929F92AF92CA
:100EE000BF92CF92DF92EF92FF920F931F93CF9317
:100EF000DF93CDB7DEB7E5970FB6F894DEBF0FBE30
:100F0000CDBF7FA76EA748AB59AB3DA72CA71DABA4
:100F10000CABFE86ED861BAB0AABD80130E020E0BF
:100F20008D849E842815390514F18F83988710E0ED
:100F300000E08EA49FA40815190504F1E5960FB6EC
:100F4000F894DEBF0FBECDBFDF91CF911F910F91FF
:100F5000FF90EF90DF90CF90BF90AF909F908F90D9
:100F60007F906F905F904F903F902F9008951D92CB
:100F70001D921D921D922F5F3F4FD2CFEF81F885BA
:100F800081919191A191B191F887EF834D01AA24AC
:100F9000BB24888A998AAA8ABB8A9C01AD0144270E
:100FA00055272C8B3D8B4E8B5F8B2D843E84201AD6
:100FB000310AECA5FDA5E215F3050CF41F01F8A913
:100FC000FD8389A88E82AAA8BBA8BC86AB861A8698
:100FD0001986C12CD12C760189849A8482149304B9
:100FE00004F137FE02C0312C212C200E311EAD84BD
:100FF000BE842A143B046CF4220C331C220C331CD8
:10100000ACA9BDA9A20DB31DCD92DD92ED92FC92CB
:1010100013970F5F1F4FEAA9FBA93496FBABEAAB0E
:1010200088CFED81FE814190519061907190FE8357
:10103000ED834301AA24BB24888E998EAA8EBB8E91
:1010400066247724288939894A895B89C301B201DA
:101050000E94C5434B015C012C893D894E895F8903
:10106000688D798D8A8D9B8D0E94C5436C8F7D8F95
:101070008E8F9F8FEB85FC8581919191A191B1918C
:10108000FC87EB879C01AD012C0D3D1D4E1D5F1DA6
:1010900029833A834B835C83E1E02C153D054E05A3
:1010A0005F0508F0E0E02C893D894E895F89C30126
:1010B000B2010E94C5432B013C0189819A81AB8119
:1010C000BC81840D951DA61DB71D89839A83AB83B2
:1010D000BC83A4013327222728A339A34AA35BA3F7
:1010E0006C017D01C20ED31EE41EF51E8C8D9D8DFC
:1010F000AE8DBF8DDC01992788278CA39DA3AEA35D
:10110000BFA38C0D9D1DAE1DBF1D88A799A7AAA7C3
:10111000BBA7AB85BC85149728A539A54AA55BA5B7
:101120002D933D934D935C9313974501AA24BB24C3
:101130008E0E911CA11CB11C288939894A895B89B2
:10114000688D798D8A8D9B8D0E94C543860E971E72
:10115000A81EB91E2C8D3D8D4E8D5F8DCA01AA270C
:10116000BB27880E991EAA1EBB1E81E090E0A0E05E
:10117000B0E029813A814B815C8124153505460513
:10118000570518F080E090E0DC01880D991DAA1D3C
:10119000BB1D41E050E060E070E088A099A0AAA0EB
:1011A000BBA0C814D904EA04FB0418F040E050E0E6
:1011B000BA01840F951FA61FB71FC12CD12C760131
:1011C000C3948CA09DA0AEA0BFA028A539A54AA518
:1011D0005BA5281539054A055B0518F0C12CD12CF3
:1011E0007601C80ED91EEA1EFB1EE985FA853196E6
:1011F000FA87E987F1CEFC0191E080919A04811190
:1012000090E091830895CF92DF92EF92FF926B016D
:101210007C019F7720E030E040E859E50E941E39CC
:1012200087FF2BC020E030E040E05FE3C701B6015C
:101230000E940E3B87FD0EC020E030E040E05FE3FF
:10124000C701B6010E94A738FF90EF90DF90CF90C2
:101250000C94F83920E030E040E05FEBC701B601C4
:101260000E940E3B181684F420E030E0A901C7016B
:10127000B6010E94123B6B017C01C701B601FF90D1
:10128000EF90DF90CF90089520E030E040E05FE302
:10129000C701B6010E94A638FF90EF90DF90CF9073
:1012A0000C940B392F923F926F927F928F929F9264
:1012B000AF92BF92CF92DF92EF92FF920F931F9364
:1012C000CF93DF9300D000D0CDB7DEB71B013C0138
:1012D00089014E835D8320E030E0A901B8018E8151
:1012E0009D810E941E39811125C020E030E0A901B6
:1012F000B101C3010E941E39882309F46BC061014A
:101300007301B601C70126960FB6F894DEBF0FBE73
:10131000CDBFDF91CF911F910F91FF90EF90DF90A4
:10132000CF90BF90AF909F908F907F906F903F90A5
:101330002F900895B101C3010E949318882349F0AA
:10134000C090750BD090760BE090770BF090780BF7
:10135000D8CFB8018E819D810E9493188111F0CF62
:10136000B101C3010E944E188111EACF20E030E0A4
:10137000A901B101C3010E941E3981110BC098015E
:101380004E815D8160E070E0CB010E9422396B01EB
:101390007C01B7CFB8018E819D810E944E188823B1
:1013A000E9F020E030E0A901B8018E819D810E9422
:1013B0001E39F82EFF1CFF24FF1C20E030E0A9019D
:1013C000B101C3010E941E39881F8827881FF816A3
:1013D00009F495CF6801EE80FD8093CF98014E818E
:1013E0005D81B101C3010E94123A6B017C01BB24F3
:1013F000B39420E030E0A9010E941E398111B12C84
:1014000020E030E0A901B601C7010E941E398823FF
:1014100009F447C0B8018E819D810E94F8399B0173
:10142000AC01B8018E819D810E940E3B1816CCF54F
:1014300098014E815D81B101C3010E9422394B01A7
:101440005C01E894B7F820E030E040E05FE3C501DC
:10145000B4010E94A7380E94F8399B01AC01C50174
:10146000B4010E94A6389B01AC015F7729833A83BF
:101470004B835C8320E030E040E054E3C501B401DD
:101480000E94123B9B01AC01BB24B39469817A8119
:101490008B819C810E940E3B18160CF0B12C81E0D0
:1014A000B82620E030E0A901BB2031F0B8018E81E0
:1014B0009D810E94123B6BCFB101C3010E941E3976
:1014C000B82EBB1CBB24BB1C20E030E0A901B80136
:1014D0008E819D810E941E39881F8827881FB8161B
:1014E00009F40FCF98014E815D81B601C7010E94BA
:1014F000A7384DCF4F925F926F927F928F929F92BB
:10150000AF92BF92CF92DF92EF92FF920F931F9311
:10151000CF93DF93CDB7DEB766970FB6F894DEBFF3
:101520000FBECDBF80919A0491E0811190E090931D
:101530009B048F5F843108F0C4C380939A04809128
:101540005E0B8150823008F4BFC380E080935E0B55
:1015500080915D0B8150823008F4B8C380E08093A5
:101560005D0B8091680B8150823008F4B1C380E03C
:101570008093680B80915B0B815010E0823008F4FF
:1015800013E010935B0B80915A0B8150823008F46A
:10159000A1C380E080935A0B8091590B8150823017
:1015A00008F49AC380E08093590B8091580B8150C6
:1015B000823008F493C380E08093580B8091570BDE
:1015C0008150823008F48CC380E08093570B809167
:1015D000560B8150823008F485C380E08093560B0F
:1015E0008091550B8150823008F47EC380E0809357
:1015F000550B8091540B8150823008F477C380E002
:101600008093540B8091530B8150823008F470C347
:1016100080E08093530B8091520B8150823008F40C
:1016200069C380E08093520B8091510B81508230CE
:1016300008F462C380E08093510B8091500B81507D
:10164000823008F45BC380E08093500B80914F0B95
:101650008150823008F454C380E080934F0B809116
:10166000650B8150823008F44DC380E08093650B98
:1016700080914B0B8150823008F446C380E0809308
:101680004B0B80914A0B8150823008F43FC380E0BD
:1016900080934A0B8091490B8150823008F438C303
:1016A00080E08093490B6091C70A7091C80A8091CD
:1016B000C90A9091CA0A60937B0A70937C0A80934E
:1016C0007D0A90937E0A20E030E040E85FE30E94CC
:1016D0001E39811118C08091C30A9091C40AA0914B
:1016E000C50AB091C60A8093BF0A9093C00AA0931E
:1016F000C10AB093C20A112309F40CC3133009F4D0
:1017000011E010935B0B8091080290910902A09167
:101710000A02B0910B0280937F0A9093800AA093F3
:10172000810AB093820A80910C0290910D02A091DF
:101730000E02B0910F028093830A9093840AA093C3
:10174000850AB093860A8091100290911102A091AF
:101750001202B09113028093870A9093880AA09393
:10176000890AB0938A0A8091000290910102A091A7
:101770000202B091030280938B0A90938C0AA0938B
:101780008D0AB0938E0AC090C402D090C502E0903A
:10179000C602F090C702A70196016091F90A709104
:1017A000FA0A8091FB0A9091FC0A0E941E39882354
:1017B00041F0C092F90AD092FA0AE092FB0AF09244
:1017C000FC0A6EE370E080E090E00E947A03909360
:1017D000F80A8093F70A43E050E0BE016B5E7F4F4A
:1017E0000E94690320E030E0A90160917B0A7091BA
:1017F0007C0A80917D0A90917E0A0E941E39811197
:1018000092C28091440290914502A0914602B0910B
:1018100047028093930A9093940AA093950AB093F9
:10182000960A80939B0A90939C0AA0939D0AB0937A
:101830009E0A80938F0A9093900AA093910AB09386
:10184000920A80915A0B882309F46AC2833009F006
:1018500063C281E090E080935A0B80912D0B9091B0
:101860002E0BA0912F0BB091300B8093970A909381
:10187000980AA093990AB0939A0AC0901802D0903F
:101880001902E0901A02F0901B02A70196016091E4
:10189000E10A7091E20A8091E30A9091E40A0E94C1
:1018A0001E39882341F0C092E10AD092E20AE09208
:1018B000E30AF092E40A8FE10E9447018093CC0A88
:1018C000C0903D0BD0903E0BE0903F0BF090400B52
:1018D000C701B6010E94BD392B013C012091D802FD
:1018E0003091D9024091DA025091DB020E941E39F8
:1018F00087FF32C5F7FC30C58090D0029090D102AE
:10190000A090D202B090D30220E030E040E85FE344
:101910006091D4027091D5028091D6029091D70245
:101920000E94A6389B01AC01C301B2010E940E3B8C
:1019300087FD16C510923D0B10923E0B10923F0B87
:101940001092400BC0907B0AD0907C0AE0907D0AF8
:10195000F0907E0A20E030E040E85FE36091BF0A4B
:101960007091C00A8091C10A9091C20A0E941E39EA
:1019700081110BC52091E0023091E1024091E20219
:101980005091E302C701B6010E94123B20915E0B09
:10199000222309F4F7C4233009F0F0C421E030E039
:1019A00020935E0B30DC6B017C0120E030E040E8EE
:1019B00053E40E941E396FEF87FF0EC020E030E035
:1019C000A901C701B6010E940E3B60E087FD04C07B
:1019D000C701B6010E948F398BE20E94400120E0CE
:1019E00030E040E85FE360917B0A70917C0A80916F
:1019F0007D0A90917E0A0E941E398111DEC4609199
:101A00001C0370911D0380911E0390911F03FBDB4B
:101A10006B017C0120E030E040E853E40E941E3975
:101A20006FEF87FF0EC020E030E0A901C701B601CB
:101A30000E940E3B60E087FD04C0C701B6010E9412
:101A40008F398AE20E94400120E030E040E85FE305
:101A500060918F0A7091900A8091910A9091920AF8
:101A60000E941E398111CBC48090450B9090460B8B
:101A7000A090470BB090480BC501B4010E94BD393E
:101A80002B013C012091A0023091A1024091A202C1
:101A90005091A3020E941E3987FF98C4B7FC96C4D8
:101AA000C0909802D0909902E0909A02F0909B0228
:101AB00020E030E040E85FE360919C0270919D027D
:101AC00080919E0290919F020E94A6389B01AC01DA
:101AD000C301B2010E940E3B87FD7CC41092450BEE
:101AE0001092460B1092470B1092480B80914F0BAF
:101AF000882309F481C4833009F07AC481E090E03E
:101B000080934F0B69E070E080E090E00E948601D6
:101B10005C019093240B8093230B20E030E04FE78F
:101B200053E4C701B6010E941E3918160CF470C4A4
:101B300020E030E0A901C701B6010E940E3B87FDFD
:101B40006EC4B701A601C5010E944F018091250B0B
:101B50009091260BA091270BB091280B80939F0AA0
:101B60009093A00AA093A10AB093A20AC090C802C1
:101B7000D090C902E090CA02F090CB02A701960172
:101B80006091ED0A7091EE0A8091EF0A9091F00A4F
:101B90000E941E39882341F0C092ED0AD092EE0ACD
:101BA000E092EF0AF092F00A67E370E080E090E0E4
:101BB0000E947A039093EC0A8093EB0A43E050E092
:101BC000BE016B5E7F4F0E9469038091290B90914B
:101BD0002A0BA0912B0BB0912C0B8093A30A90930E
:101BE000A40AA093A50AB093A60AC090410BD09076
:101BF000420BE090430BF090440BC701B6010E94EA
:101C0000BD392B013C012091F8023091F90240913D
:101C1000FA025091FB020E941E3987FF04C4F7FCB0
:101C200002C48090F0029090F102A090F202B09075
:101C3000F30220E030E040E85FE36091F40270914D
:101C4000F5028091F6029091F7020E94A6389B015E
:101C5000AC01C301B2010E940E3B87FDE8C31092A4
:101C6000410B1092420B1092430B1092440BC09008
:101C7000970AD090980AE090990AF0909A0A20E08A
:101C800030E0A901C701B6010E941E398111DDC3F0
:101C90008091000390910103A0910203B09103038E
:101CA0008093A70A9093A80AA093A90AB093AA0ABE
:101CB0008093AB0A9093AC0AA093AD0AB093AE0A9E
:101CC0002CC410929A043BCC83E040CC83E047CCF8
:101CD00083E04ECC83E05ECC83E065CC83E06CCCCB
:101CE00083E073CC83E07ACC83E081CC83E088CC42
:101CF00083E08FCC83E096CC83E09DCC83E0A4CCC2
:101D000083E0ABCC83E0B2CC83E0B9CC83E0C0CC41
:101D100083E0C7CC12E0F5CC082E000C990B9BCDCC
:101D200082E090E098CD20E030E0A9016091BF0A08
:101D30007091C00A8091C10A9091C20A0E941E3916
:101D40008111A6C02091100330911103AD89BE8985
:101D50000E9412440E94BB3920E030E040E057E38B
:101D60000E94123B4B015C01C0900402D09005021E
:101D7000E0900602F0900702209154023091550243
:101D800040915602509157020E94A638209150026D
:101D90003091510240915202509153020E942239D7
:101DA00020914C0230914D0240914E0250914F02D1
:101DB0000E942239209148023091490240914A0202
:101DC00050914B020E94A738A70196010E94123B36
:101DD0006093930A7093940A8093950A9093960A5D
:101DE000A501940160916402709165028091660280
:101DF000909167020E94A6382091600230916102A2
:101E000040916202509163020E94223920915C024B
:101E100030915D0240915E0250915F020E94223932
:101E2000209158023091590240915A0250915B0220
:101E30000E94A738A70196010E94123B60939B0A5B
:101E400070939C0A80939D0A90939E0A80916802E9
:101E500090916902A0916A02B0916B0280938F0AFF
:101E60009093900AA093910AB093920A8091590B93
:101E7000882359F0833029F481E090E08093590B56
:101E8000ECCC082E000C990BF9CF82E090E0F6CF55
:101E900020E030E040E251E460917F0A7091800AD6
:101EA0008091810A9091820A0E940E3B18160CF0D4
:101EB000BDC18091800290918102A0918202B09177
:101EC000830280938F0A9093900AA093910AB09313
:101ED000920A4090830A5090840A6090850A70901C
:101EE000860AC0900402D0900502E0900602F090AD
:101EF000070220E030E040E251E4C301B2010E9459
:101F00001E398090870A9090880AA090890AB09024
:101F10008A0A20E030E040E251E487FF02C1C501B7
:101F2000B4010E941E3987FF86C0A5019401C30138
:101F3000B2010E94A63820911402309115024091FE
:101F40001602509117020E94123B4B015C01409017
:101F50006C0250906D0260906E0270906F02AC0146
:101F60009B01C301B2010E94A638A70196010E94FD
:101F7000123B6093930A7093940A8093950A90930E
:101F8000960AA3019201C501B4010E94A738A701D6
:101F900096010E94123B60939B0A70939C0A809367
:101FA0009D0A90939E0A8091580B882309F440C0A3
:101FB0008330D1F581E090E08093580B8091540BF1
:101FC000882309F430C1833009F029C181E090E011
:101FD0008093540B20E030E040E251E460918B0AA2
:101FE00070918C0A80918D0A90918E0A0E940E3B0E
:101FF00018160CF064C18091520B882309F45CC15F
:10200000833009F055C181E090E08093520B8091BC
:10201000500B882309F49DC1833009F096C181E0FB
:1020200090E08093500B19CC082E000C990BC4CF74
:1020300082E090E0C1CFA3019201609170027091A3
:10204000710280917202909173020E94A63860938F
:10205000AF0A7093B00A8093B10A9093B20A2091AC
:1020600014023091150240911602509117020E94FD
:10207000123B4B015C018092B30A9092B40AA09289
:10208000B50AB092B60A4090740250907502609002
:10209000760270907702AC019B01C301B2010E94ED
:1020A000A638A70196010E94123B60939B0A709389
:1020B0009C0A80939D0A90939E0AA3019201C501F8
:1020C000B4010E94A7386093B70A7093B80A80934E
:1020D000B90A9093BA0AA70196010E94123B609335
:1020E000BB0A7093BC0A8093BD0A9093BE0A6093AA
:1020F000930A7093940A8093950A9093960A80911C
:10210000570B882359F0833029F481E090E08093C5
:10211000570B54CF082E000C990BF9CF82E090E0BA
:10212000F6CFC501B4010E941E3987FF56C0A50134
:10213000940160917C0270917D0280917E02909169
:102140007F020E94A638209114023091150240911E
:102150001602509117020E94123B4B015C01409005
:1021600078025090790260907A0270907B02AC0104
:102170009B01C301B2010E94A638A70196010E94EB
:10218000123B6093930A7093940A8093950A9093FC
:10219000960AA3019201C501B4010E94A738A701C4
:1021A00096010E94123B60939B0A70939C0A809355
:1021B0009D0A90939E0A8091560B882359F0833094
:1021C00029F481E090E08093560BF8CE082E000CA5
:1021D000990BF9CF82E090E0F6CFC092930AD092AB
:1021E000940AE092950AF092960AC0929B0AD092C5
:1021F0009C0AE0929D0AF0929E0A8091550B8823DA
:1022000059F0833029F481E090E08093550BD6CECD
:10221000082E000C990BF9CF82E090E0F6CF082E43
:10222000000C990BD5CE82E090E0D2CE8091840252
:1022300090918502A0918602B09187028093930AC3
:102240009093940AA093950AB093960A809188027D
:1022500090918902A0918A02B0918B0280939B0A8F
:1022600090939C0AA0939D0AB0939E0A80918C0241
:1022700090918D02A0918E02B0918F0280938F0A6F
:102280009093900AA093910AB093920A8091530B75
:10229000882359F0833029F481E090E08093530B38
:1022A00099CE082E000C990BF9CF82E090E0F6CF82
:1022B000082E000C990BA9CE82E090E0A6CE2091CA
:1022C000900230919102409192025091930260915C
:1022D000930A7091940A8091950A9091960A0E94AF
:1022E000123B6093930A7093940A8093950A90939B
:1022F000960A209194023091950240919602509155
:10230000970260919B0A70919C0A80919D0A90911E
:102310009E0A0E94123B60939B0A70939C0A8093D2
:102320009D0A90939E0A8091510B882359F0833027
:1023300029F481E090E08093510B69CE082E000CC7
:10234000990BF9CF82E090E0F6CF082E000C990BA4
:1023500068CE82E090E065CE812C912C5401D4CAE5
:102360008FEFC81AD80AE80AF80AC0923D0BD0923B
:102370003E0BE0923F0BF092400BE4CA022E000CA1
:10238000330B0ECB22E030E00BCBA7019601C50149
:10239000B4010E94123B20915D0B222359F023309F
:1023A00029F421E030E020935D0BFCCA022E000CE2
:1023B000330BF9CF22E030E0F6CF60911803709133
:1023C000190380911A0390911B0321CBC12CD12CAE
:1023D00076016ECB9FEF891A990AA90AB90A8092F1
:1023E000450B9092460BA092470BB092480B7ECBC8
:1023F000082E000C990B84CB82E090E081CBC0903A
:102400001403D0901503E0901603F09017037ACBD5
:10241000C12CD12C9FE7E92E93E4F92E92CBC12C4D
:10242000D12C76018ECB812C912C540102CC8FEFD4
:10243000C81AD80AE80AF80AC092410BD092420B97
:10244000E092430BF092440B12CC20E030E040E8E5
:102450005FE3C701B6010E941E3981116EC1209150
:10246000120330911303AD89BE890E941244698B17
:102470007A8B8B8B9C8B82E0E82EF12C8E010F5F88
:102480001F4F21E030E0AE014F5E5F4F61E070E032
:102490008CE093E00E94670702E010E09E01275F56
:1024A0003F4F4AE250E062E070E0CE0101960E94A8
:1024B00071068985833208F017C18091BC02909122
:1024C000BD02A091BE02B091BF028093A70A909373
:1024D000A80AA093A90AB093AA0A80914B0B88235B
:1024E00009F4FFC0833009F0F8C081E090E08093E8
:1024F0004B0B8092AB0A9092AC0AA092AD0AB092BC
:10250000AE0A8091490B882309F414C1833009F085
:102510000DC181E090E08093490B6091A70A709112
:10252000A80A8091A90A9091AA0A0E9403096B0146
:102530007C0120E030E040E853E40E941E396FEF58
:1025400087FF0EC020E030E0A901C701B6010E945C
:102550000E3B60E087FD04C0C701B6010E948F39C1
:102560008CE20E9440016091AB0A7091AC0A8091AC
:10257000AD0A9091AE0A0E9403096B017C0120E034
:1025800030E040E853E40E941E396FEF87FF0EC031
:1025900020E030E0A901C701B6010E940E3B60E0D7
:1025A00087FD04C0C701B6010E948F398DE20E94E9
:1025B000400180919B04882381F080917B0A909157
:1025C0007C0AA0917D0AB0917E0A8093390B90938A
:1025D0003A0BA0933B0BB0933C0BC090CC02D09035
:1025E000CD02E090CE02F090CF02A701960160915B
:1025F000D50A7091D60A8091D70A9091D80A0E9484
:102600001E39882341F0C092D50AD092D60AE092B2
:10261000D70AF092D80A84E20E9447018093CB0A3D
:102620008091970A9091980AA091990AB0919A0A7C
:102630008093250B9093260BA093270BB093280B28
:102640008091BF0A9091C00AA091C10AB091C20ABC
:102650008093290B90932A0BA0932B0BB0932C0BF8
:10266000C0907E04D0907F04E0908004F0908104BC
:102670009FEFC91AD90AE90AF90AC0927E04D092DA
:102680007F04E0928004F0928104C701B6010E94A9
:10269000BB399B01AC0160918204709183048091ED
:1026A0008404909185040E94123B60937A04709395
:1026B0007B0480937C0490937D0480918E04882316
:1026C00009F44EC0813009F44FC081E0909190042C
:1026D000992309F446C080E044C0082E000C990BF1
:1026E00006CF82E090E003CF8091C0029091C102BA
:1026F000A091C202B091C3028093A70A9093A80A46
:10270000A093A90AB093AA0A80914A0B882359F092
:10271000833029F481E090E080934A0BEACE082EC2
:10272000000C990BF9CF82E090E0F6CF082E000C58
:10273000990BF1CE82E090E0EECE20E030E040E078
:1027400050E4C701B6010E941E398111E6CE809186
:10275000EC029091ED02A091EE02B091EF02A0CABE
:1027600081E080938F0402C010928F0480918F04C7
:1027700094E0899FF0011124EC59FB4FC5A6D6A621
:10278000E7A6F0AA809390048FEF80938F0466965B
:102790000FB6F894DEBF0FBECDBFDF91CF911F9172
:1027A0000F91FF90EF90DF90CF90BF90AF909F90F0
:1027B0008F907F906F905F904F9008958F929F922F
:1027C000AF92BF9280915C0B8150823008F058C06C
:1027D00083E080935C0B80914E0B8150823008F037
:1027E00051C083E080934E0B80914D0B815082301D
:1027F00008F04AC083E080934D0B80914C0B8150D0
:10280000823008F043C083E080934C0B8091CC0A67
:10281000811142C02091340230913502409136023C
:10282000509137026091310B7091320B8091330BD4
:102830009091340B0E94A7386093310B7093320B48
:102840008093330B9093340B20913C0230913D02E6
:1028500040913E0250913F020E9452096093C30A88
:102860007093C40A8093C50A9093C60A80915C0B4A
:10287000882371F08330B1F1082E000C990B0AC047
:1028800080E0A7CF80E0AECF80E0B5CF80E0BCCFC6
:1028900082E090E080935C0B8091CB0A811172C042
:1028A00020E030E040E85FE36091390B70913A0B33
:1028B00080913B0B90913C0B0E941E39811144C0CA
:1028C0006091AC027091AD028091AE029091AF0226
:1028D00020914E0B222349F0233099F1022E000C57
:1028E000330B05C081E090E0D5CF22E030E02093AB
:1028F0004E0B8090B0029090B102A090B202B090C6
:10290000B30220912D0B30912E0B40912F0B509143
:10291000300B0E94A738A50194010E9452096093D0
:102920002D0B70932E0B80932F0B9093300B809177
:102930004C0B882319F18330E9F1082E000C990B18
:102940001FC021E030E0D3CF6091B4027091B50296
:102950008091B6029091B70220914D0B222331F065
:10296000233049F0022E000C330B02C022E030E08D
:1029700020934D0BBECF21E030E0FACF82E090E013
:1029800080934C0B8091860490918704A0918804D9
:10299000B09189040196A11DB11D80938604909386
:1029A0008704A0938804B0938904BF90AF909F9050
:1029B0008F90089581E090E0E3CF8F929F92AF9245
:1029C000BF92DF92EF92FF920F931F93CF93DF930B
:1029D00084E090E02CD3A4E6B4E040E050E060E86E
:1029E0007FEBD8964D935D936D937C93DB974AE094
:1029F00057ED63E27CE35E964D935D936D937C931C
:102A000091974DEF52E668E976EB14964D935D93FE
:102A10006D937C93179749E556EC6CED75E118962C
:102A20004D935D936D937C931B9743E75BED61E260
:102A30007DE11C964D935D936D937C931F9745E5C7
:102A400059E46FE373E850964D935D936D937C93D7
:102A50005397C8E5D4E01396DC93CE931297E4E045
:102A6000F4E0F983E8838AE593E09183808393839C
:102A70008283958384832EE53BE0378326832DE58F
:102A80003BE0318720879387828728E63BE03587C4
:102A9000248727E63BE0378726872BE53BE0318B11
:102AA000208B2CE53BE0338B228B23E63BE0358B00
:102AB000248B21E63BE0378B268B22E63BE0318FEF
:102AC000208F20E63BE0338F228F2FE53BE0358FD0
:102AD000248F29E53BE0378F268F23E53BE031A3A8
:102AE00020A328E53BE033A322A327E53BE035A361
:102AF00024A326E53BE037A326A325E53BE031A749
:102B000020A724E53BE033A722A722E53BE035A739
:102B100024A721E53BE037A726A720E53BE031AB22
:102B200020AB2AE53BE033AB22AB2FE43BE035ABF7
:102B300024AB26E63BE037AB26AB91AF80AF2EE46B
:102B40003BE033AF22AF2DE43BE035AF24AF2CE4C4
:102B50003BE037AF26AF90934504809344049093B5
:102B600047048093460425E63BE0309349042093D4
:102B700048042BE43BE030934B0420934A042AE4BE
:102B80003BE030934D0420934C0429E43BE0309328
:102B90004F0420934E0424E63BE0309351042093ED
:102BA000500490935304809352049093550480935F
:102BB0005404909357048093560488E794E09D83CF
:102BC0008C8388E694E09B838A838AE794E09F83E2
:102BD0008E838FEF9B968C939B979C961C929C97D1
:102BE000CDECDAE000E012E04091E4025091E50221
:102BF0006091E6027091E7024093250B5093260BFB
:102C00006093270B7093280B4091E8025091E902E2
:102C10006091EA027091EB024093290B50932A0BCA
:102C200060932B0B70932C0B9D964D915D916D9144
:102C30007C91D09796964D935D936D937C939997E5
:102C40009A968C93F80180A591A5A2A5B3A580932F
:102C5000350B9093360BA093370BB093380B8BE763
:102C6000A82E8AE0B82E84A595A5A6A5B7A5809321
:102C7000C70A9093C80AA093C90AB093CA0A43E04E
:102C800050E06CE775E080E00E94763B8091400266
:102C900090914102A0914202B09143028093BF0AF9
:102CA0009093C00AA093C10AB093C20AF80180AD04
:102CB00091ADA2ADB3AD8093310B9093320BA09345
:102CC000330BB093340B80A991A9A2A9B3A9809327
:102CD000C30A9093C40AA093C50AB093C60A809110
:102CE000A8029091A902A091AA02B091AB02809390
:102CF0002D0B90932E0BA0932F0BB093300B809144
:102D0000040390910503A0910603B0910703F50118
:102D100084A795A7A6A7B7A7809108039091090358
:102D2000A0910A03B0910B0380AB91ABA2ABB3AB04
:102D30001CA28091C4029091C502A091C602B091DC
:102D4000C7028CA79DA7AEA7BFA7812C912C5401C9
:102D500083948DA29EA2AFA2B8A66EE370E080E03D
:102D600090E00E94BE039BA78AA7DD24D394D9A636
:102D70001C86F801808D918DA28DB38D8C8B9D8BDF
:102D8000AE8BBF8B8D869E86AF86B88A60E08FE162
:102D90000E943801D98A1092150B8092160B9092DE
:102DA000170BA092180BB092190B61E08BE20E94F6
:102DB0003801D0921A0B10920D0B80920E0B90924C
:102DC0000F0BA092100BB092110B61E08AE20E94EF
:102DD0003801D092120B10921D0B80921E0B909214
:102DE0001F0BA092200BB092210BE12CF12C87013C
:102DF000A801970169E070E080E090E00E94CA01BC
:102E00009093240B8093230BD092220B188E8091E9
:102E1000C8029091C902A091CA02B091CB0288A3C6
:102E200099A3AAA3BBA3898E9A8EAB8EBC8E67E3AF
:102E300070E080E090E00E94BE039F8F8E8FDD8E59
:102E400018AE89AE9AAEABAEBCAE61E08CE20E9429
:102E50003801DDAE18AA89AA9AAAABAABCAA61E079
:102E60008DE20E943801DDAA18828091CC029091F7
:102E7000CD02A091CE02B091CF0288879987AA8710
:102E8000BB8789829A82AB82BC8260E084E20E9426
:102E90003801DD82DF91CF911F910F91FF90EF906C
:102EA000DF90BF90AF909F908F9008958091F10A2E
:102EB00081111FC081E08093F10A8091F20A909104
:102EC000F30AA091F40AB091F50A0197A105B105A2
:102ED00081F48091F60A882361F06EE370E080E06F
:102EE00090E00E947A039093F80A8093F70A0E9478
:102EF000E1038091D90A811103C081E08093D90A4E
:102F00008091150B811103C081E08093150B809196
:102F10000D0B811103C081E080930D0B80911D0B7F
:102F200081112EC081E080931D0B80911E0B90912A
:102F30001F0BA091200BB091210B0197A105B105AA
:102F4000F9F48091220B8823D9F069E070E080E0E9
:102F500090E00E9486019093240B8093230B40E025
:102F600050E0BA010E944F0169E070E080E090E01B
:102F70000E9486019093240B8093230B0E941B02D6
:102F80008091E50A81111FC081E08093E50A80915C
:102F9000E60A9091E70AA091E80AB091E90A019740
:102FA000A105B10581F48091EA0A882361F067E305
:102FB00070E080E090E00E947A039093EC0A8093A6
:102FC000EB0A0E94E1038091050B811103C081E0AF
:102FD0008093050B8091FD0A811103C081E08093ED
:102FE000FD0A8091CD0A811103C081E08093CD0A52
:102FF000089560E070E080E89FE7089560E070E089
:1030000080E89FE7089560E070E080E89FEF089512
:1030100060E070E080E89FEF089560E070E080EC91
:103020009FEF089560E070E080EC9FEF0895F5DF7A
:103030006093750B7093760B8093770B9093780B5E
:10304000F1DF6093690B70936A0B80936B0B909325
:103050006C0BCFDF6093710B7093720B8093730BCB
:103060009093740BCBDF60936D0B70936E0B80931A
:103070006F0B9093700BC7DF6093790B70937A0B93
:1030800080937B0B90937C0BC3DF60937D0B7093DD
:103090007E0B80937F0B9093800B0895CF92DF92ED
:1030A000EF92FF92CF936B017C01AC019B01609189
:1030B000710B7091720B8091730B9091740B0E9445
:1030C0001E39C1E0882371F0A70196016091790B48
:1030D00070917A0B80917B0B90917C0B0E941E3932
:1030E0008111C0E08C2FCF91FF90EF90DF90CF90B7
:1030F00008950F931F938B019C01002711272078BF
:103100003F770115110520483F4749F4AB01BC0149
:103110006F77772781E0452B462B472B09F480E01A
:103120001F910F910895E5CF4F925F926F927F921A
:103130008F929F92AF92BF92CF92DF92EF92FF92C7
:103140000F931F93F8944090AD045090AE0460909C
:10315000AF047090B004C090A104D090A204E0909D
:10316000A304F090A404452B09F0A4C09B01AC017A
:10317000241935094609570929013A010091A90482
:103180001091AA042091AB043091AC04480159017C
:10319000840C951CA61CB71C80169106A206B306CB
:1031A000A0F40091A5041091A6042091A7043091E9
:1031B000A8040F5F1F4F2F4F3F4F0093A50410939C
:1031C000A6042093A7043093A8048092A9049092A7
:1031D000AA04A092AB04B092AC040091A504109193
:1031E000A6042091A7043091A8048092B104909283
:1031F000B204A092B304B092B4040093B504109347
:10320000B6042093B7043093B8046093AD04709370
:10321000AE048093AF049093B004A0E1B7E2A301A1
:1032200092010E9421446C0D7D1D8E1D9F1D609397
:10323000A1047093A2048093A3049093A40400912A
:1032400020031091210320912203309123030F3F8B
:103250001F4F2F4F3F4FF1F000912003109121039A
:1032600020912203309123030E3F1F4F2F4F3F4FDA
:1032700089F0C0902003D0902103E0902203F090C9
:10328000230321E08C149D04AE04BF0408F420E065
:103290002093BD0478941F910F91FF90EF90DF90E1
:1032A000CF90BF90AF909F908F907F906F905F90E6
:1032B0004F9008954B015C0184189508A608B70843
:1032C000A3019201261B370B480B590B641575059A
:1032D00086059705D0F082169306A406B50640F43D
:1032E00020E030E0A90181149104A104B10491F41B
:1032F000A0E1B7E20E942144A7019601261B370BEB
:10330000480B590BCA01B901C5CF82169306A40612
:10331000B50670F7A0E1B7E2A50194010E9421442F
:103320006C0D7D1D8E1D9F1DB5CFFECECF93DF93FF
:1033300000D01F92CDB7DEB71C821B821A82198281
:103340001092B9041092BA041092BB041092BC04FB
:10335000BE016F5F7F4FCE0103960E949236698156
:103360007A818B819C810E94802F009761F4BE013D
:103370006F5F7F4FCE0103960E949E3669817A81EE
:103380008B819C812ED50F900F900F900F90DF9125
:10339000CF910895FF920F931F93CF93DF93082F40
:1033A00060E070E0CB010E94B73DFF24F3940E94DF
:1033B000692EEC01892B89F010E0CE3F8FEFD80702
:1033C00069F0002361F160E070E0CB010E94B73D3D
:1033D00081E090E0892B59F322C011E025D5EC0162
:1033E000892B21F0CE3F8FEFD80759F711111EC05E
:1033F00011E0229609F410E00E94192EEC01892BAD
:1034000021F0CE3F8FEFD807E1F6111111C011E086
:10341000CE3F8FEFD80709F410E001110BC0CE01A9
:10342000DF91CF911F910F91FF90089511E0E4CFAC
:1034300011E0F3CF60E070E0CB010E94B73D1F25A3
:10344000812F90E0C7CFCF93DF938091BD04882375
:1034500021F060E070E0CB014CD635D6D0E0C0E082
:10346000892B71F06AE070E080E090E00E94B73D47
:1034700081E090DF28D62196C03D27E0D20781F772
:1034800027D60E94D42F1092D5041092D404109203
:10349000CE041092CF041092D0041092D104109256
:1034A000CA041092CB041092CC041092CD04109256
:1034B000C6041092C7041092C8041092C904109256
:1034C000C2041092C3041092C4041092C504109256
:1034D000BE041092BF041092C0041092C1044EEFBB
:1034E0005FEF6FEF7FEF40932003509321036093D2
:1034F0002203709323031092BD04E1EBF4E028E073
:10350000DF011D922A95E9F71092AD041092AE04E6
:103510001092AF041092B0041092A9041092AA0461
:103520001092AB041092AC041092A5041092A60461
:103530001092A7041092A8041092A1041092A20461
:103540001092A3041092A404DF91CF9108951092D9
:10355000E1041092E2041092E3041092E404109249
:10356000E0048091E9049091EA049093DF04809351
:10357000DE041092DD041092DC041092D804109244
:10358000D9041092DA041092DB041092E60410922F
:10359000E50490E080E00895CF92DF92EF92FF92F1
:1035A0000F931F93CF938C01892B09F055C0209165
:1035B000E9043091EA048091DE049091DF044091A7
:1035C000E9045091EA045093DF044093DE04281785
:1035D000390781F01092DD041092DC041092D804B7
:1035E0001092D9041092DA041092DB041092E604CF
:1035F0001092E5048091E9049091EA04019761F545
:103600008091E5049091E604892B21F480912403B4
:10361000811112C08091E5049091E6040197E1F4D4
:103620008091D8049091D904A091DA04B091DB0480
:103630000197A105B10581F41092D8041092D90424
:103640001092DA041092DB041092240382E090E0DE
:103650009093E6048093E5048091E9049091EA0454
:10366000019709F01CC18091FF049091000580171B
:10367000910709F014C18091FB049091FC04A09182
:10368000FD04B091FE04009709F409C12091FA04E9
:1036900021110DC04091FB045091FC046091FD0488
:1036A0007091FE04452B462B472B09F4F8C020915E
:1036B000E5043091E6042230310509F0F0C0209194
:1036C000DC042111ECC0FC01C080D180E280F380D9
:1036D0008091E004882309F4D3C08091EC04909198
:1036E000ED04892B09F4FDC02091EC043091ED0428
:1036F00081E02230310509F080E02091EC04309126
:10370000ED04C1E02130310549F02091EC04309105
:10371000ED04C1E02230310509F0C0E0882309F44E
:1037200056C02091F6043091F7044091F80450916E
:10373000F904C701B6010E940E3B87FD14C0209119
:10374000F6043091F7044091F8045091F904609127
:10375000E1047091E2048091E3049091E4040E94FA
:103760001E3987FD22C02091F6043091F704409164
:10377000F8045091F904C701B6010E940E3B1816D7
:1037800034F52091F6043091F7044091F8045091FB
:10379000F9046091E1047091E2048091E304909156
:1037A000E4040E941E39811112C08091EE049091B0
:1037B000EF04A091F004B091F104892B8A2B8B2B9C
:1037C00019F481E08093DD0481E08093DC04CC2354
:1037D00009F456C02091F6043091F7044091F804A2
:1037E0005091F904C701B6010E941E3987FF14C029
:1037F0002091F6043091F7044091F8045091F904B7
:103800006091E1047091E2048091E3049091E404FA
:103810000E940E3B87FF22C02091F6043091F704EE
:103820004091F8045091F904C701B6010E941E3975
:10383000811126C02091F6043091F7044091F804DC
:103840005091F9046091E1047091E2048091E304E5
:103850009091E4040E940E3B181694F48091EE04BB
:103860009091EF04A091F004B091F104892B8A2B80
:103870008B2B19F481E08093DD0481E08093DC04DC
:1038800081E09091DC04911180E08093E004C0928B
:10389000E104D092E204E092E304F092E404012B0C
:1038A00009F067C18091E5049091E604892BD9F471
:1038B0001092EB041092DC0480912403882379F0A9
:1038C00082E090E09093E6048093E5041092240354
:1038D0002091E9043091EA0481E0232BE9F080E0B3
:1038E0001BC081E00ACF109224038091EB0488234F
:1038F00049F01092DD041092E6041092E504109253
:10390000EB04EDCF8091E9049091EA04892BE1F07A
:103910008091DC041092DC042091E5043091E604EF
:103920002230310509F45EC088F42115310509F40F
:1039300048C02130310509F4F3C01092DD04109223
:10394000DC041092EB0438C081E0E6CF233031056F
:1039500009F4B1C02430310581F74091D804509169
:10396000D9046091DA047091DB04411551056105B9
:10397000710561F041505109610971094093D80402
:103980005093D9046093DA047093DB044091D80417
:103990005091D9046091DA047091DB04452B462BD9
:1039A000472BD9F42091E7043091E8042130310508
:1039B00009F046C01092DD041092E6041092E5046E
:1039C0000CC080912403882341F082E090E0909322
:1039D000E6048093E504109224031092D6048091AB
:1039E000DD04CEC08823C9F38091EE049091EF04EA
:1039F000A091F004B091F104181619061A061B06DE
:103A00000CF07DC08091E9049091EA04019709F0DF
:103A100076C08091EE049091EF04A091F004B091F3
:103A2000F1048093D8049093D904A093DA04B0935E
:103A3000DB0483E090E09093E6048093E504CDCF2F
:103A40004091F2045091F3046091F4047091F504F4
:103A5000452B462B472BA9F01092DD048091F204F0
:103A60009091F304A091F404B091F5048093D804EC
:103A70009093D904A093DA04B093DB0481E090E042
:103A8000DACF882399F08091250390912603A091A5
:103A90002703B09128038093D8049093D904A0936E
:103AA000DA04B093DB0484E090E0C5CF1092DD042B
:103AB00082E090E0C0CF8091D8049091D904A09189
:103AC000DA04B091DB040097A105B10559F0019724
:103AD000A109B1098093D8049093D904A093DA0482
:103AE000B093DB048091D8049091D904A091DA04BA
:103AF000B091DB04892B8A2B8B2B09F06ECF809140
:103B0000250390912603A0912703B0912803892BC8
:103B10008A2B8B2B09F44ECF81E08093DD04B3CF49
:103B20004091D8045091D9046091DA047091DB047B
:103B3000411551056105710561F041505109610957
:103B400071094093D8045093D9046093DA047093B8
:103B5000DB044091D8045091D9046091DA0470914B
:103B6000DB04452B462B472B09F037CF8111C7CFFC
:103B70009FCF8091D604882309F431CF8091D70458
:103B8000CF911F910F91FF90EF90DF90CF9008950C
:103B90001092E1041092E2041092E3041092E40403
:103BA0001092E0041092E6041092E5041092DF04F3
:103BB0001092DE04109200051092FF041092DD04B2
:103BC0001092DC041092D8041092D9041092DA04F6
:103BD0001092DB041092D7041092D6041092FB04CA
:103BE0001092FC041092FD041092FE041092FA044C
:103BF0001092F6041092F7041092F8041092F9044F
:103C000088EE93E0A0E0B0E0809325039093260334
:103C1000A0932703B09328031092F2041092F304A8
:103C20001092F4041092F5041092EE041092EF0436
:103C30001092F0041092F1041092ED041092EC0432
:103C400081E0809324031092EB041092EA04109216
:103C5000E9041092E8041092E70490E080E00895EF
:103C60008091E9049091EA04892B19F5809124034D
:103C7000882351F08091EB04811106C081E080938C
:103C8000D7048093D60408952091EB043091240347
:103C900081E090E0332311F090E080E030E0822377
:103CA0009323892B21F01092D70481E0EACF109260
:103CB000D604089582E090E0FA01918380838FEF2B
:103CC0009FEF0895CF93DF93EA01009711F00E94D0
:103CD000F4301982188290E080E0DF91CF9108954E
:103CE000DB01009719F48FEF8C9308952EEF2C933E
:103CF000FC013F96EF30F10508F034C08827EC57FF
:103D0000F14E8F4F0C940A44B01EAE1EAC1EAA1E7C
:103D1000A81EA41EA61EA21EA01E9E1E9B1E971EAF
:103D2000931E991EB21E80E311968C93089589E22A
:103D3000FBCF82E2F9CF11961C92089583E2F4CF73
:103D400081E2F2CF81E1F0CF87E2EECF8AE2ECCFE1
:103D500080E1EACF84E2E8CF88E2E6CF86E2E4CFF2
:103D600081E3E2CF80E2E0CF80910D0590910E05D6
:103D7000089590930E0580930D05089580910C058C
:103D8000089590910C05892B80930C050895982F28
:103D9000909580910C05892380930C05089580915E
:103DA0000B0508958091090590910A050895611504
:103DB000710559F0FB0130E020E070E060E024176D
:103DC000350719F06115710511F0CB010895A08137
:103DD000B181A817B90709F4BF012F5F3F4F36968D
:103DE000EECF80910F0581111CC060D266D29093F6
:103DF0000205809301050E94F2280E9404299093F5
:103E00000605809305050E94812D0E94882D9093C0
:103E100004058093030581E080930F0590E080E026
:103E2000089584EF9FEF08958F929F92AF92BF9273
:103E3000CF92DF92EF92FF920F931F93CF93DF9376
:103E400000D000D000D01F92CDB7DEB71A861986F9
:103E500018861F821E821D821C821B821A82198272
:103E600080910F0507EF1FEF882309F49CC08E0196
:103E70000D5F1F4F9E012B5F3F4FAE01495F5F4FAC
:103E8000BE01675F7F4F90E080E00E94052F8C01AC
:103E9000009721F00596029708F0DBC029853A8546
:103EA0002115310509F402C1ED80FE804B815C8152
:103EB000B701640F751F8F8198858617970708F4DF
:103EC000F5C0E20EF31ED7019C91903C09F07FC033
:103ED0004230510508F47BC011968C9140910D053C
:103EE00050910E05452B09F49CC0913F08F071C01C
:103EF0002CE1290F2D3008F48BC02DE2290F203141
:103F000008F489C0903C21F48150823008F483C0C9
:103F100088E3890F8B3008F481C090E7C92E9EE1B9
:103F2000D92EEAE5FEE16D817E81AE014F5F5F4FE4
:103F300089859A8519955C01C114D104A1F1898004
:103F40009A808114910479F18B819C81881599055F
:103F500008F487C010E000E04B815C8170E060E015
:103F6000C7010E94344401151105E9F449815A81C1
:103F700069857A858D819E81680F791FC501F6015B
:103F80001995E980FA800D811E812F813885498538
:103F90005A856FEF7FEF81E090E00E94A02E8C01A8
:103FA000892B09F056C0C8012A960FB6F894DEBFD7
:103FB0000FBECDBFDF91CF911F910F91FF90EF907A
:103FC000DF90CF90BF90AF909F908F90089580E04A
:103FD00085CF30E020E0220F331FF901EF5FFA4F69
:103FE0000190F081E02D309709F497CF892F90E070
:103FF0001995009709F491CFDC011296ED91FC918F
:1040000013971496CD90DC90309709F08CCF1FC099
:1040100021E030E0E0CF22E030E0DDCF23E030E00F
:10402000DACFD12CC12CE2E6FEE19F3F09F07BCF35
:10403000E0910105F0910205309721F4C90104EFE8
:104040001FEF0CC08FEF90E019950097A9F604EFD1
:104050001FEF89859A85009709F4A5CF0E94F43057
:10406000A2CF0E94CF2F8C0189859A850E94F430BF
:1040700070E060E0C4010E94682F98878F830E94DF
:104080009D2E9E838D836F8178856115710559F012
:10409000C8010E9480329A87898706EF1FEF892B1B
:1040A00009F058CF59CF08EF1FEF56CF08EF1FEF99
:1040B000D0CF20910F05222319F020E00C9409297C
:1040C00087EF9FEF089580910D0590910E0508955B
:1040D0000E948D2D0E94E72CF5D0E1E0F5E088E00C
:1040E000DF011D928A95E9F710920F0590E080E0BC
:1040F00008950C94452B21E040E050E0BA010C9467
:10410000092986E090E0FA019183808390E080E0C5
:10411000089547E050E06DE573E049CEDF92EF92FD
:10412000FF920F931F93CF93DF938A01EC01C60F89
:10413000D71FE0901305F0901405D9800E94B72F87
:10414000D816190678F082E090E0F8019183808318
:104150008EEF9FEFDF91CF911F910F91FF90EF9026
:10416000DF900895EF2841F482E090E0F801918318
:10417000808384EF9FEFEECF89818093120590E0DA
:104180000196F8019183808390E080E0E3CFCF93A4
:10419000DF93EA010E94F62B882321F00E94C42FAE
:1041A0000E94F72B82E090E0998388838BEF9FEF4A
:1041B000DF91CF910895CF93DF93EB0186E0FB0170
:1041C00011928A95E9F78FEF8883D8DD8983E7DD3F
:1041D0008A83E8DD9D838C83DF91CF910895CF930F
:1041E000DF93EA010E94F92B811109C082E090E07F
:1041F0009983888385EF9FEFDF91CF91089590E0B9
:1042000080E0B7DD81E090E09983888390E080E0F2
:10421000F3CF0F931F93CF93DF93EA018C01060F27
:10422000171F0E94F92B81110BC082E090E0998347
:10423000888385EF9FEFDF91CF911F910F910895B4
:10424000F8018181823038F082E090E099838883A0
:104250008EEF9FEFF0CF81E090E08BDD88E090E083
:104260009983888390E080E0E6CFCF93DF93009737
:10427000D1F4EB01FB01329686E0DF011D928A95B5
:10428000E9F78FEF888385E089831A820E94B72F30
:104290008B830E94B62F9D838C8381E08E838F83D6
:1042A000DF91CF910895DF91CF911ACD89E890E207
:1042B00090931105809310050895809110059091B9
:1042C000110508951092110510921005089580911E
:1042D0001305909114050895411105C061157105EC
:1042E0008105910561F06093130570931405809327
:1042F0001505909316054093170581E0089580E019
:104300000895FF920F931F93CF93DF938A01EC01DF
:10431000C60FD71FF9800E94B72FF816190668F04C
:1043200082E090E0F801918380838EEF9FEFDF9130
:10433000CF911F910F91FF9008956C817D818E81A7
:104340009F814B81C9DF811108C082E090E0F801B4
:104350009183808384EF9FEFEACF89818093120558
:1043600090E00196F8019183808390E080E0DFCFB8
:10437000CF93DF93EA01FC01E60FF71F648175819B
:10438000868197814381A8DF811109C082E090E096
:104390009983888384EF9FEFDF91CF91089581E027
:1043A00090E09983888390E080E0F6CFE3E1F5E048
:1043B0004081518162817381480F511D611D711DC2
:1043C00040835183628373830895CF93C091120514
:1043D0004C2F50E0609113057091140501960E94D6
:1043E0002B448C2FE3DF10921205CF910895009794
:1043F00099F480911305909114052FEFFB01208310
:10440000892B59F02091120530E02F5F3F4F241780
:10441000350719F4CB01D9CF63CC0895009799F4EF
:1044200080911305909114052FEFFB012083892BB8
:1044300059F02091120530E02F5F3F4F24173507C8
:1044400019F4CB01C2CF4CCC089523E1AC01249FD9
:10445000C001259F900D1124E0911C05F0911D05D0
:10446000E80FF91F238134812250310981E0223085
:10447000310508F080E008950F931F93CF93DF93E9
:1044800000911E0510911F05D0E0C0E080E00C17E0
:104490001D0749F491E0811190E0892FDF91CF91C0
:1044A0001F910F9108958111F5CFCE01CEDF219696
:1044B000EECFA0911C05B0911D05109729F1209118
:1044C0001E0530911F0582179307F0F453E1589FA2
:1044D0009001599F300D1124A20FB31FED91FC9153
:1044E0001197309789F012968C91681768F48DE0D7
:1044F000689FE00DF11D112480819181892B21F0AD
:1045000081E09281491708F080E008959C0143E121
:10451000429FC001439F900D1124E0911C05F09132
:104520001D05E80FF91F8385823091F481E090E04A
:10453000658176814091290350912A03641775079C
:1045400011F490E080E0892B19F081E0232B09F031
:1045500080E00895FC01A081B1818DE0689FA00DED
:10456000B11D112413964D915C9185859685489FC8
:104570009001499F300D589F300D1124C9010196BB
:10458000611103C0478144FD04960895EF92FF92A4
:104590000F931F93CF93DF93EA01FC01E60FF71F00
:1045A00002811381E480F5804F2D6E2DC80181DFDB
:1045B00081110DC082E090E0998388838EEF9FEF98
:1045C000DF91CF911F910F91FF90EF900895C80157
:1045D0003CDF882339F082E090E09983888388EF7C
:1045E0009FEFEECF1093300300932F03E09231033F
:1045F000F092320381E090E09983888390E080E03C
:10460000DFCFCF92DF92EF92FF920F931F93CF9362
:10461000DF937A01EC01C60FD71FC0902F03D09013
:1046200030030091310310913203412F602FC601F6
:1046300040DF811110C082E090E0F7019183808318
:104640008AEF9FEFDF91CF911F910F91FF90EF9035
:10465000DF90CF900895C601F8DE882341F082E014
:1046600090E0F7019183808388EF9FEFEBCF4C813F
:104670005D816E817F819A8189818F3F41F082E0E7
:1046800090E0F701918380838EEF9FEFDBCFE3E132
:10469000EC9D9001ED9D300D1124E0911C05F091F1
:1046A0001D05E20FF31F0190F081E02D2DE0029F28
:1046B000E00DF11D11240190F081E02D27E0129F03
:1046C000E00DF11D1124808391838B8182834383CC
:1046D0005483658376831F5F1093320381E090E0FB
:1046E000F7019183808390E080E0ACCFEF92FF925E
:1046F0000F931F93CF93DF937A018C01060F171F3F
:10470000C0911C05D0911D05209781F021E030E07B
:10471000F8018281938140911E0550911F058417F5
:10472000950710F030E020E0232B71F482E090E058
:10473000F701918380838EEF9FEFDF91CF911F91DF
:104740000F91FF90EF90089543E1489F9001499F9A
:10475000300D1124C20FD31F78DE882341F082E090
:1047600090E0F7019183808388EF9FEFE6CFF80117
:104770002481358120383105C8F687818111D6CF53
:104780004181842F90E08F7E009741F082E090E09D
:10479000F7019183808386EF9FEFCFCF4F833E83D6
:1047A0002D83268128871986223010F421E028875E
:1047B00021E030E0F70131832083BFCF88E090E033
:1047C000FA019183808390E080E00895FB018FEFF0
:1047D000808381E181838FEF9FEF9383828380E8E1
:1047E00090E095838483168217820895FB018FEFF2
:1047F000808391E0918382839383848384E38583A0
:1048000081E090E0978386830895DF92EF92FF9294
:104810000F931F93CF93DF93EA01FC01E60FF71F7D
:104820008181813071F082E090E0998388838FEFFD
:104830009FEFDF91CF911F910F91FF90EF90DF904D
:10484000089582819381D4802581E680F78000914C
:104850001C0510911D050115110539F482E090E049
:10486000998388838CEF9FEFE4CF40911E05509190
:104870001F058417950738F082E090E099838883BC
:104880008EEF9FEFD6CF892B39F082E090E09983AD
:10489000888386EF9FEFCDCF8D2D8D7FB1F72130AF
:1048A000A1F781E0D11006C091E0E916F10431F0E2
:1048B00080E004C0E2E0EE16F104D0F3882329F38F
:1048C00090E080E0C2DD882339F082E090E09983B7
:1048D000888388EF9FEFADCFF801D38681E084878E
:1048E000F686E586108A178681E090E099838883B2
:1048F00090E080E09ECF4CE050E067E873E057CA5C
:104900008F929F92BF92CF92DF92EF92FF920F937E
:104910001F93CF93DF93EA01FC01E60FF71F82811B
:1049200093810481B580E0911C05F0911D053097BD
:1049300091F482E090E0998388838CEF9FEFDF9180
:10494000CF911F910F91FF90EF90DF90CF90BF908C
:104950009F908F90089520911E0530911F0582171A
:10496000930738F082E090E0998388838EEF9FEF81
:10497000E6CF23E1289F6001299FD00C1124EC0D84
:10498000FD1DE080F180E114F10499F282810817A5
:1049900048F78DE0089F80011124E00EF11EF70119
:1049A00080819181892B29F6BB20E1F2F7E0BF9E3F
:1049B00040011124C4010E94BB30F7019183808320
:1049C000E0911C05F0911D05EC0DFD1D0190F0819D
:1049D000E02DE00FF11F80819181009739F482E092
:1049E00090E0998388838DEF9FEFA9CFA40170E0B9
:1049F00060E00E94344480911C0590911D05C80E12
:104A0000D91EF60180819181080F191FF801B28229
:104A100081E090E09983888390E080E090CFAF922E
:104A2000BF92CF92DF92FF920F931F93CF93DF93AA
:104A3000EA01FC01E60FF71F82819381F480009167
:104A40001C0510911D050115110581F482E090E00F
:104A5000998388838CEF9FEFDF91CF911F910F9106
:104A6000FF90DF90CF90BF90AF90089520911E05EA
:104A700030911F058217930738F082E090E0998308
:104A800088838EEF9FEFE8CF2FEF2F0D2C3FA8F7F5
:104A900023E1289F6001299FD00C11240C0D1D1DBE
:104AA000F80180819181892B89F6FDE0FF9E5001FC
:104AB0001124C5010E94BB30F80191838083E091ED
:104AC0001C05F0911D05EC0DFD1D80819181009765
:104AD00039F482E090E0998388838DEF9FEFBCCF1B
:104AE000A50170E060E00E943444E0911C05F09163
:104AF0001D05EC0DFD1DF28281E090E09983888315
:104B000090E080E0A9CFCF92DF92EF92FF920F93D7
:104B10001F93CF93DF93860F971FFC0102811381B0
:104B200080911C0590911D05892B81F082E090E019
:104B3000FA01918380838CEF9FEFDF91CF911F91DA
:104B40000F91FF90EF90DF90CF900895C801B0E0F3
:104B5000A0E00197A109B1098F3F9F4FA105B105C1
:104B600040F082E090E0FA01918380838EEF9FEF26
:104B7000E4CF7A0183E1809F6001819FD00C1124F2
:104B8000C6010E94BB30EC01009741F482E090E046
:104B9000F701918380838DEF9FEFCFCFA60170E067
:104BA00060E00E943444D0931D05C0931C0510930F
:104BB0001F0500931E0590E080E02FEF3FEF41E0DE
:104BC00061E070E08017910741F481E090E0F70127
:104BD0009183808390E080E0B0CF3A8B298B1B8655
:104BE0004C877E876D87188A1F8601966396EACF69
:104BF000EF92FF921F93CF93DF93EC0110E0F12C23
:104C0000E12C6A811617B0F083E0689FB00111248F
:104C1000AE014F5E5F4FC7010E942031009721F027
:104C20002FEF3FEF3A8B298BDF91CF911F91FF90B0
:104C3000EF900895612FCE018DDC61E070E00E945D
:104C4000682FE816F90608F47C011F5FDACFF894A4
:104C500020911A0530911B0581E02115310509F0DD
:104C600080E0232B09F0789408952F923F924F9281
:104C70005F926F927F928F929F92AF92BF92CF92EC
:104C8000DF92EF92FF920F931F93CF93DF933C013C
:104C9000660E771EF301828193814C01B12CA12C09
:104CA000C0911C05D0911D05209769F021E030E0EE
:104CB00060911E0570911F058617970710F030E070
:104CC00020E0232BD1F482E090E0FA0191838083ED
:104CD0008EEF9FEFDF91CF911F910F91FF90EF909B
:104CE000DF90CF90BF90AF909F908F907F906F900C
:104CF0005F904F903F902F90089580923303909251
:104D00003403A0923503B092360363E1689F9001AB
:104D1000699F300D1124C20FD31FF30181818330AD
:104D200040F082E090E0FA019183808386EF9FEF6C
:104D3000D1CF2A012B813C81232BF1F428813981A9
:104D40009F8191FF2EC0232B09F46FC02091210574
:104D50009A81422F490F5527551FBA0141E050E073
:104D60006138710514F050E040E0452B09F45DC056
:104D70002A87920F909321058150823008F481C0D8
:104D800066DF882309F4D8C0F3018181813009F4FA
:104D90008DC008F47BC0823009F4C6C090E080E08A
:104DA000ADC0232B09F441C0209120059A81E22F48
:104DB000E90FFF27FF1F41E050E0ED3FF10514F040
:104DC00050E040E0452B89F12A87920F909320050F
:104DD000D3CFA081B181A20FB31F11966C91060FA2
:104DE000111D0196295F3F4F8417950794F38D8518
:104DF0009E85089F1001099F300C189F300C1124CC
:104E0000C114D104D1F48F8184FF17C00E94B62F42
:104E1000F5E02F0E311C21E08215930508F420E007
:104E2000A701435F5F4F21110EC082E090E0F201C5
:104E30009183808387EF9FEF4DCF0E94B62F2FEF96
:104E4000221A320AE8CF88819981E80EF91EF7010B
:104E500014830383FFEFCF1ADF0A7A018A818C154E
:104E60001D0409F00CF48CCFE881F981EE0DFF1DD3
:104E7000428150E030E020E010E000E090E080E08F
:104E8000B3CFF12CE12CD12CC12CE8CF81E090E004
:104E90009C838B83F1DA882309F480CF81E090E052
:104EA0000E94B91E80E40E94C71E78CF89899A8922
:104EB000019661F083E090E09C838B8382E090E038
:104EC0000E94B91E80E40E94C11E68CF8D819E8120
:104ED0002091290330912A0382179307D1F460911E
:104EE0002D0370912E03AE014F5E5F4F80912B0317
:104EF00090912C030E943F320097E1F2789422E0D7
:104F000030E0F20131832083892B99F08DEF9FEF00
:104F1000E1CE89288A288B2869F6039758F6CE01B6
:104F200067DE188A1F86E8CF82E090E09C838B833F
:104F300035CF90E080E0CECE82E090E0F201918328
:104F4000808385EF9FEFC6CE8F929F92AF92BF92E4
:104F5000CF92DF92EF92FF920F931F93CF93DF9345
:104F6000EA018C01060F171FF8018181833098F048
:104F700082E090E09983888386EF9FEFDF91CF9165
:104F80001F910F91FF90EF90DF90CF90BF90AF9067
:104F90009F908F90089580911C0590911D05892BFD
:104FA00061F081E090E020911E0530911F05232BD8
:104FB00011F490E080E0892B39F482E090E099834D
:104FC00088838EEF9FEFDACF42DE882309F4E0C0BA
:104FD000F8018181813009F496C0E8F0823099F4BB
:104FE00020911E0530911F05E0911C05F0911D05D3
:104FF00090E080E041E050E02817390709F0BEC09A
:105000003BDA811117C0789481E090E0998388831E
:1050100090E080E0B3CF20911E0530911F05E09114
:105020001C05F0911D0590E080E041E050E028175C
:10503000390741F481E090E00E94B91E80E40E94AB
:10504000C71EE1CF63817481672B11F054834383C2
:1050500001967396ECCFE0911C05F0911D05E00FD1
:10506000F11F2381348122303105D9F4218932891D
:105070002F3F3F4FB1F42581368140912903509154
:105080002A032417350761F5AF014F5E5F4F60912A
:105090002D0370912E0380912B0390912C030E947D
:1050A0003F32EFEFCE1ADE0AEE0AFE0A0D5E1F4F08
:1050B00040911E0550911F0570E060E0C416D506B2
:1050C000E606F70644F5009731F27894892B09F447
:1050D0009BCF82E090E0998388838DEF9FEF4ECF46
:1050E000C114D104E104F104E1F623303105C8F61E
:1050F000CF017EDDE0911C05F0911D05E00FF11F51
:10510000108A1786CECF10E000E090E080E0C12C3E
:10511000D12C7601CDCF0097C1F610E000E0812CB4
:10512000912C540183E0E82EF12C1AC0E0911C056B
:10513000F0911D05E00FF11F83819481029749F4DE
:10514000F482E38282E090E00E94B91E80E40E9433
:10515000C11EFFEF8F1A9F0AAF0ABF0A0D5E1F4FD5
:1051600080911E0590911F05B0E0A0E08816990679
:10517000AA06BB06DCF290E080E0A7CF63817481D1
:105180006230710511F4548343830196739634CFD2
:1051900082E090E09983888385EF9FEFEFCE0097C0
:1051A000B9F48FEFFB0180832091330330913403F6
:1051B00043E1429FC001439F900D1124E0911C05E3
:1051C000F0911D05E80FF91F8285FB018183089589
:1051D0000C94701E88E090E0FA019183808390E047
:1051E00080E0089510921B0510921A05ECE1F5E09D
:1051F00086E0DF011D928A95E9F78BE794E29093B0
:105200001905809318050895809118059091190546
:1052100008952F923F924F925F926F927F928F925A
:105220009F92AF92BF92CF92DF92EF92FF920F9335
:105230001F93CF93DF93CDB7DEB72F970FB6F894B8
:10524000DEBF0FBECDBFF894E0911A05F0911B05AB
:105250003196F0931B05E0931A05789440901C0555
:1052600050901D054114510409F40CC2E0911E0533
:10527000F0911F05EF2B09F405C22D8749875A8746
:105280006B877C8798878F831201B12CA12C10E04B
:1052900000E080911E0590911F05A816B90618F42C
:1052A0000115110529F1F89480911A0590911B05BB
:1052B000019790931B0580931A057894C8012F9647
:1052C0000FB6F894DEBF0FBECDBFDF91CF911F9117
:1052D0000F91FF90EF90DF90CF90BF90AF909F9095
:1052E0008F907F906F905F904F903F902F90089598
:1052F0007101E418F508D10117968C91179781FD7B
:1053000054C013968D919C911497039709F04DC04A
:1053100015968D919C91EF81F8858E179F0709F066
:1053200044C0B50190E080E07FD48A8320911C05C1
:1053300030911D053D832C833D85332309F44CC0FA
:105340004C815D81452B09F49AC180911E05909195
:105350001F05A816B90608F092C1C501D7D8882341
:10536000E9F06C817D816E0D7F1D7D836C83DB0197
:105370001F968D919C91892B89F0D12CC12CF12CF9
:10538000E12CAC81BD8112968C9112978E151F0471
:1053900009F094F450961C921E921F972A812223A2
:1053A00021F0B50190E080E041D43FEFA31AB30AA9
:1053B00043E1240E311C6DCFAC81BD81ED91FC9198
:1053C000EC0DFD1D858196810FD7BFEFEB1AFB0A0F
:1053D000EDE0CE0ED11CD5CFEC81FD81309709F4E4
:1053E0004EC180911E0590911F05A816B90608F0C0
:1053F00046C1EE0DFF1DFF87EE87C50187D88B8361
:10540000882339F1AE85BF851F968D919C91509769
:10541000019621E01D964D915C918417950709F046
:1054200020E02E831982712C10E000E0AE85BF854C
:1054300012968C91781608F45DC0EE85FF858785FD
:1054400090890196658576850E94D443908B8787E5
:10545000A5CFB1E0BE83E6CF992493946BC08BD6E1
:10546000F6019683858382C0D601ED90FC90B7E06B
:105470006B9EE00CF11C1124F70163817481808123
:105480008F3F61F121E030E002C0220F331F8A9587
:10549000E2F7C901092E000CAA0BBB0BFB014081EE
:1054A00051816281738184239523A623B72321E050
:1054B000892B8A2B8B2B09F420E0D4012C93D70164
:1054C00011968C91F60123853485820F932F911DBF
:1054D000880E991E1486138663949BC0418150E008
:1054E000C4010E942B44EBCF998206EF1FEFC5C089
:1054F0001982C3C0F981F111A0CFEDE07E9E700149
:105500001124AE85BF85CD90DC90CE0CDF1C15D468
:105510009D838C83BB81BB2309F49ECF81E0EE8504
:10552000FF8527853089232B09F080E0982E88237A
:1055300009F458C0672D8E859F850CD8D601189622
:105540009C938E93179761E070E0C2D4EE85FF853F
:10555000218932892F3F320709F481CFBC01C9016B
:10556000CFD7D60116969C938E931597D601159694
:105570008D919C911697009709F4B6CFEC81FD812F
:105580008E0F9F1F1A969C938E931997AE85BF8599
:10559000ED91FC911197EE0EFF1EF70121853285EA
:1055A000148613861A968C91870DD9018D937110EC
:1055B00016C0EE85FF85878184FF11C049855A8515
:1055C0006B857C85F9014183528363837483F70182
:1055D000838594850496A80FB91F14861386F70156
:1055E000B287A187D60115968D919C911697892B2C
:1055F00009F443C0EE85FF8525813681809129031A
:1056000090912A032817390779F019968D909C906C
:10561000612CD60112968C911297681608F424CF4B
:105620001A969C928E921997BE81BB2309F460CF83
:1056300061E070E0F601878190854AD4D601179623
:10564000ED90FC90189715964D915C91E1E0F0E09B
:10565000BA81BB2311F0F0E0E0E00C811D819C01D8
:10566000B501882799278E1B9F0B6AD38C01892B44
:1056700021F0F60185819681B7D57394D7CE0FEFCF
:105680001FEF8CCE10E000E00ECE2F923F924F9293
:105690005F926F927F928F929F92AF92BF92CF92C2
:1056A000DF92EF92FF920F931F93CF93DF9380913E
:1056B0001C0590911D0510E000E0892BA9F0C7DAC8
:1056C0000AEF1FEF882381F020901E0530901F0500
:1056D000C0911C05D0911D05D12CC12C10E000E01B
:1056E0002C143D04A9F47894C801DF91CF911F9147
:1056F0000F91FF90EF90DF90CF90BF90AF909F9071
:105700008F907F906F905F904F903F902F90089573
:10571000C6010E948622882309F18B819C81039710
:10572000E9F48F859889892BC9F0B60190E080E073
:105730007BD221E030E0882311F030E020E04424E7
:105740005524421A530AB12CA12C912C812C8A8108
:105750008815190409F038F4188A1F864FEFC41A07
:10576000D40A6396BDCFE881F981EA0DFB1D8581DE
:105770009681892BA1F161E070E087819085A8D3A3
:105780003C01DBD28C01E881F981EA0DFB1D8185AA
:10579000928525813681200F311FAC01421B530BAE
:1057A0009A0147815085421B530B70E060E00E94D4
:1057B0003444E881F981EA0DFB1DE780F0844581DE
:1057C00056819301B601C201BBD28C01892B39F0FD
:1057D000E881F981EA0DFB1D8581968105D55FEF92
:1057E000851A950A8DE0A80EB11CB1CF30CA789405
:1057F00008952F923F924F925F926F927F929F9265
:10580000AF92BF92CF92DF92EF92FF920F931F93CE
:10581000CF93DF9300D000D0CDB7DEB700911C0549
:1058200010911D05992493940115110509F43EC0AA
:10583000A0901E05B0901F050ADA982E8823B1F1BA
:1058400010921D0510921C0510921F0510921E0546
:1058500010922005109221058FEF9FEFDC018093BD
:10586000330390933403A0933503B09336037894B5
:105870007FD31E830D83C12CD12C7601C501B0E0EE
:10588000A0E089839A83AB83BC8322242A94322CA0
:1058900089819A81AB81BC81C816D906EA06FB06CC
:1058A000F4F0C801A1D480E40E94C71E892D269679
:1058B0000FB6F894DEBF0FBECDBFDF91CF911F9121
:1058C0000F91FF90EF90DF90CF90BF90AF909F909F
:1058D0007F906F905F904F903F902F900895AD8193
:1058E000BE8115968D919C91169720912903309138
:1058F0002A0382179307D1F451968D919C91EED58E
:10590000ED81FE8180819181B12CA12C412C512C03
:105910003201892B89F5BFEFCB1ADB0AEB0AFB0AB0
:10592000ED81FE817396FE83ED83B2CFC114D10465
:10593000E104F10429F7039718F7ED81FE818189CD
:1059400092898F3F980709F029D5AD81BE81529683
:105950003C922E925197D4CF8A0D9B1DDC018D91E4
:105960009C91009709F040D4BFEF4B1A5B0A6B0A79
:105970007B0AEDE0AE0EB11CAD81BE818D919C9194
:10598000119712964C9150E070E060E04416550675
:10599000660677060CF328D4BECFCF93DF93EA01D7
:1059A00028DF811109C082E090E09983888385EF28
:1059B0009FEFDF91CF91089581E090E00E94B91EA2
:1059C00081E090E09983888390E080E0F2CF11DF5E
:1059D0001092190510921805089542E050E06FECFE
:1059E00073E00C94D71EFF920F931F93CF93DF9316
:1059F0008A01EC01C60FD71FF980B9D20897F816B3
:105A0000190671F068F082E090E0F80191838083DC
:105A10008EEF9FEFDF91CF911F910F91FF9008952F
:105A20006C817D818E819F814B810E946C218111CF
:105A300008C082E090E0F8019183808384EF9FEFBB
:105A4000E9CFF9800E9467214F2D50E0BE01685FC9
:105A50007F4F0E942B4489810E94D62181E090E0F3
:105A6000F8019183808390E080E0D4CFDF92EF92C1
:105A7000FF920F931F93CF93DF938A01EC01C60F20
:105A8000D71F0E9467217C01D98071D2DD2059F097
:105A9000029721E030E0D816190619F010F030E036
:105AA00020E0232B79F482E090E0F8019183808359
:105AB0008EEF9FEFDF91CF911F910F91FF90EF90AD
:105AC000DF900895EF2841F482E090E0F80191839F
:105AD000808384EF9FEFEECFF9800E9467214F2DE6
