:10000000F8C0000041C700006AC7000093C70000A5
:10001000BCC70000E5C700000C941B080C94460800
:100020000C94710816C1000014C1000012C1000038
:1000300010C100000EC100000CC100000AC1000088
:1000400008C1000006C1000004C1000002C1000098
:1000500000C10000FEC00000FCC000000C949C0821
:10006000F8C000000C94380C0C946E0CF2C0000028
:10007000F0C00000EEC00000ECC00000EAC00000CC
:10008000E8C00000E6C00000E4C00000E2C00000DC
:100090000C94C40C0C94FA0CDCC00000DAC0000014
:1000A000D8C00000D6C00000D4C00000D2C00000FC
:1000B000D0C00000CEC00000CCC00000CAC000000C
:1000C000C8C00000C6C0000005C500000C94500D5B
:1000D0000C94860DBEC000000C94DC0D0C94120E26
:1000E000B8C0000000000A0B02090C0D0E0807033F
:1000F00004010000000000000000000000000000FB
:1001000000000000000000000000000000000000EF
:1001100012111000000000000000000000000000AC
:100120000000000000000000000001021020200874
:100130000810204010204080020102010804020142
:1001400001020408102040808040201008040201B1
:10015000800402018040201008040201080402010A
:100160000102040810204080010204081020408091
:1001700005050505070508080808020202020A0A23
:100180000808040404040101010101010101030341
:10019000030303030303040707070C0C0C0C0C0CEC
:1001A0000C0C0202020206060606060606060B0BE9
:1001B0000B0B0B0B0B0B00002200250028002B0063
:1001C0002E003100340002010000050108010B017E
:1001D00000002100240027002A002D0030003300F9
:1001E00001010000040107010A01970C230DAF0D66
:1001F0003B0E11241FBECFEFD1E2DEBFCDBF00E02A
:100200000CBF12E0A0E0B2E0E0EAFDE100E00BBFCD
:1002100002C007900D92AE32B107D9F724E0AEE2EA
:10022000B2E001C01D92A93FB207E1F710E0C9EFAB
:10023000D0E000E006C021970109802FFE010E9456
:10024000B70EC53FD10780E00807A9F7A9D40C94E1
:10025000CE0ED6CECF93DF93882349F0EB018150A9
:100260000E94480999838883DF91CF910895FB010B
:1002700011821082F9CF0F931F938B019C0183E0B1
:1002800036952795179507958A95D1F7095C1D4FE7
:10029000462F477021E030E0F90102C0EE0FFF1F4A
:1002A0004A95E2F7AF01F80120812423CB010196A2
:1002B000211102C090E080E01F910F9108950F93EB
:1002C0001F938B019C0183E0369527951795079521
:1002D0008A95D1F7677081E090E001C0880F6A9538
:1002E000EAF7F801E95CFD4F2081452B31F4809558
:1002F000822380831F910F910895822BFACFCF9292
:10030000DF92EF92FF92CF93DF936B017C0160E06D
:1003100086E3C816D104E104F10490F486E38C0D61
:100320000E94A50AE6012196AE01C701B601C7DF0A
:10033000CE01DF91CF91FF90EF90DF90CF900895A5
:100340008C2DEECF882341F08150682F70E090E033
:1003500080E050E040E0B3CF0895611102C00C94FA
:10036000A50A6130E1F362E0FACF662319F061E09B
:100370000C94E10A60E0FCCFCF92DF92EF92FF9203
:10038000CF93882331F16A017B01CFEFC80F20E0C2
:1003900030E0A901CB01B6013AD4181684F0C701A8
:1003A000B60190583DD49B01AC016C2F70E090E0F9
:1003B00080E0CF91FF90EF90DF90CF90ADC0C7016C
:1003C000B60129D48C2FCF91FF90EF90DF90CF9082
:1003D00082C7CF91FF90EF90DF90CF9008950F9359
:1003E0001F938B019C0183E0369527951795079500
:1003F0008A95D1F7025D1D4F462F477021E030E00E
:10040000F90102C0EE0FFF1F4A95E2F7AF01F801B4
:1004100020812423CB010196211102C090E080E0CD
:100420001F910F9108950F931F938B019C0183E0FF
:1004300036952795179507958A95D1F7677081E0CE
:1004400090E001C0880F6A95EAF7F801E25DFD4F80
:100450002081452B31F48095822380831F910F9159
:100460000895822BFACF2F923F924F925F926F9214
:100470007F928F929F92AF92BF92CF92DF92EF9234
:10048000FF920F931F93CF93DF93D62EC72E782E14
:10049000692E49015A01280161E08D2D0E94A50AAB
:1004A000CD2DDC2D8E010F5F1F4FA8016D2D7C2DF2
:1004B000872D962DB8DF20E030E0A901C201B701F9
:1004C00065D4181654F4C201B701AAD32B01C50193
:1004D000B401A6D3A201CE0122D0C801DF91CF91F1
:1004E0001F910F91FF90EF90DF90CF90BF90AF9052
:1004F0009F908F907F906F905F904F903F902F9044
:100500000895882341F08150682F70E090E080E0EA
:1005100050E040E088CF0895862FB901DCC69C01E9
:10052000FC01EC51FF4FE491E150E231E0F4F0E0E6
:100530008827E256FD4F8F4F0C94B70EB002B702DA
:10054000BA02D102E602B302FB0207030B03220345
:1005500037034C0363037803B3028D03A403B90389
:1005600084B5806884BD60E0822F0C94E10A84B574
:100570008062F8CF809180008C7F826080938000C1
:1005800080918100807E8061682B60938100509310
:10059000870040938600809180008068809380006F
:1005A000E2CF809180008C7F826080938000809178
:1005B0008100807E8061682B60938100509387006A
:1005C00040938600809180008062E8CF8091800017
:1005D0008C7F82608093800080918100807E80612A
:1005E000682B609381005093870040938600809130
:1005F00080008860D3CF8091B00080688093B00085
:100600008091B100887F682B6093B100ACCF80915E
:10061000B0008062F3CF809190008C7F82608093E5
:10062000900080919100807E8061682B60939100A2
:10063000509397004093960080919000806880933B
:10064000900091CF809190008C7F82608093900089
:1006500080919100807E8061682B6093910050931F
:10066000970040939600809190008062E8CF80913F
:1006700090008C7F82608093900080919100807EBA
:100680008061682B6093910050939700409396008F
:10069000809190008860D3CF8091A0008C7F826091
:1006A0008093A0008091A100807E8061682B609380
:1006B000A1005093A7004093A6008091A0008068FD
:1006C0008093A00050CF8091A0008C7F82608093A7
:1006D000A0008091A100807E8061682B6093A100C2
:1006E0005093A7004093A6008091A0008062E8CFBD
:1006F0008091A0008C7F82608093A0008091A100F7
:10070000807E8061682B6093A1005093A700409386
:10071000A6008091A0008860D3CF809120018C7FBB
:1007200082608093200180912101807E8061682B0E
:10073000609321015093270140932601809120016D
:100740008068809320010FCF809120018C7F826090
:100750008093200180912101807E8061682B6093CD
:10076000210150932701409326018091200180624E
:10077000E8CF809120018C7F82608093200180915E
:100780002101807E8061682B6093210150932701B5
:1007900040932601809120018860D3CF81E0909121
:1007A000DE04911180E08093DE040895CF92DF9201
:1007B000EF92FF920F931F93CF93DF931F921F929D
:1007C000CDB7DEB7C0900002D0900102E0900202E7
:1007D000F0900302A70196016091CA047091CB04C6
:1007E0008091CC049091CD0412D2882341F0C09224
:1007F000CA04D092CB04E092CC04F092CD0466E31C
:1008000070E080E090E037DD9093C9048093C804E5
:1008100043E050E0BE016F5F7F4F1CDD6BE070E096
:1008200080E090E0DCDD8C019093DD048093DC04BB
:100830002091040230910502A981BA810E94BF0E65
:1008400021E196958795779567952A95D1F770E080
:1008500090E080E011D2AB01BC01C8018DDD609158
:10086000DE048DE082DD0F900F90DF91CF911F911C
:100870000F91FF90EF90DF90CF9008958F929F920D
:10088000AF92BF92DF92EF92FF920F931F93CF939D
:10089000DF9384E090E0C5D0C2ECD4E000E012E049
:1008A000F80186818C8F42E050E06EEC73E080E0CE
:1008B00072D21882F80180819181A281B3818887E8
:1008C0009987AA87BB87812C912C540183948982B4
:1008D0009A82AB82BC8266E370E080E090E00FDD3C
:1008E0009F838E83DD24D394DD821C8A8D8A9E8A29
:1008F000AF8AB88EE12CF12C8701A80197016BE03B
:1009000070E080E090E0AFDD9B8F8A8FD98E1C86EF
:100910008D869E86AF86B88A61E08DE01EDDD98A1D
:10092000DF91CF911F910F91FF90EF90DF90BF90DB
:10093000AF909F908F9008958091C20481111DC047
:1009400081E08093C2048091C3049091C404A0917B
:10095000C504B091C6040197A105B10571F4809159
:10096000C704882351F066E370E080E090E083DC08
:100970009093C9048093C804E5DC8091D60481116A
:100980002AC081E08093D6048091D7049091D80446
:10099000A091D904B091DA040197A105B105D9F469
:1009A0008091DB048823B9F06BE070E080E090E098
:1009B00016DD9093DD048093DC0440E050E0BA0142
:1009C000DBDC6BE070E080E090E009DD9093DD041B
:1009D0008093DC0496DD8091CE04811103C081E018
:1009E0008093CE04089560E070E080E89FE708956A
:1009F00060E070E080E89FE7089560E070E080E8E4
:100A00009FEF089560E070E080E89FEF089560E058
:100A100070E080EC9FEF089560E070E080EC9FEF65
:100A20000895F5DF6093EB047093EC048093ED047C
:100A30009093EE04F1DF6093DF047093E004809301
:100A4000E1049093E204CFDF6093E7047093E8043D
:100A50008093E9049093EA04CBDF6093E3047093FE
:100A6000E4048093E5049093E604C7DF6093EF0409
:100A70007093F0048093F1049093F204C3DF6093C9
:100A8000F3047093F4048093F5049093F6040895AE
:100A900026E030E040E855E260E070E090E080E081
:100AA00000C08130910569F01CF4892B39F008955C
:100AB0008230910549F0039751F008958EE492E059
:100AC00077C68BEE92E0FCCF88E893E0F9CF85E221
:100AD00094E0F6CF1F920F920FB60F9211240BB62F
:100AE0000F922F933F934F935F936F937F938F93C7
:100AF0009F93AF93BF93EF93FF938FE89DEF9093F6
:100B000025018093240134D0FF91EF91BF91AF91E3
:100B10009F918F917F916F915F914F913F912F9115
:100B20000F900BBE0F900FBE0F901F9018958FE87F
:100B30009DEF9093250180932401A3E7B0E08C9171
:100B40008E7F8C93E0E2F1E080818C7F8083E1E214
:100B5000F1E08081877E80838081846080838081D2
:100B60008C7F80838C9181608C93089581E00895BF
:100B70008091420291E0980F90934202882349F0BD
:100B800021E030E0309344022093430280934202FC
:100B9000089578940BDEF894809142028150F6CF4C
:100BA000CF93DF931092F8041092F7040FD370DF05
:100BB000C0911902D0911A02198218825FDEF8944E
:100BC000B6DF2881398181E0232B09F080E0809312
:100BD000F704789478948091F704811107C0ACDE13
:100BE000F89490E080E0DF91CF91089528813981D9
:100BF00081E0232B09F480E08093F8049091F804BD
:100C000081E0911180E08093F704B0DFE4CF71D0F0
:100C100008F481E0089504D06894B111B1C008953A
:100C200094D088F09F5790F0B92F9927B751A0F032
:100C3000D1F0660F771F881F991F1AF0BA95C9F770
:100C400012C0B13081F09BD0B1E0089598C0672FF9
:100C5000782F8827B85F39F0B93FCCF38695779520
:100C60006795B395D9F73EF4909580957095619509
:100C70007F4F8F4F9F4F0895E89409C097FB3EF434
:100C800090958095709561957F4F8F4F9F4F9923D9
:100C9000A9F0F92F96E9BB279395F6958795779557
:100CA0006795B795F111F8CFFAF4BB0F11F460FF17
:100CB0001BC06F5F7F4F8F4F9F4F16C0882311F06F
:100CC00096E911C0772321F09EE8872F762F05C083
:100CD000662371F096E8862F70E060E02AF09A951E
:100CE000660F771F881FDAF7880F9695879597F913
:100CF0000895990F0008550FAA0BE0E8FEEF1616AD
:100D00001706E807F907C0F012161306E407F507FF
:100D100098F0621B730B840B950B39F40A2661F073
:100D2000232B242B252B21F408950A2609F4A14016
:100D3000A6958FEF811D811D089557FD9058440F92
:100D4000551F59F05F3F71F04795880F97FB991F2A
:100D500061F09F3F79F087950895121613061406E7
:100D6000551FF2CF4695F1DF08C016161706180674
:100D7000991FF1CF86957105610508940895E8944F
:100D8000BB2766277727CB0197F90895B2DF08F4D0
:100D90008FEF08950895883008F075C0E82FF0E0CF
:100DA000EE0FFF1FE85FFD4F718360838150873036
:100DB00008F03CC0E82FF0E08827EF51F94F8F4F43
:100DC000D6C71E07E806F006FC0609072A073707FC
:100DD000809169008C7F482B40936900E89A0895C0
:100DE00080916900837F440F551F440F551F482B86
:100DF00040936900E99A0895809169008F7C74E0BE
:100E0000440F551F7A95E1F7482B40936900EA9A01
:100E10000895809169008F7366E0440F551F6A95AD
:100E2000E1F7482B40936900EB9A089580916A009E
:100E30008C7F482B40936A00EC9A089580916A0059
:100E4000837F440F551F440F551F482B40936A0062
:100E5000ED9A089580916A008F7C24E0440F551F1D
:100E60002A95E1F7482B40936A00EE9A0895809105
:100E70006A008F7396E0440F551F9A95E1F7482B4F
:100E800040936A00EF9A08951F920F920FB60F9247
:100E900011240BB60F922F933F934F935F936F9351
:100EA0007F938F939F93AF93BF93EF93FF93E091C3
:100EB0000C02F0910D021995FF91EF91BF91AF9146
:100EC0009F918F917F916F915F914F913F912F9162
:100ED0000F900BBE0F900FBE0F901F9018951F9292
:100EE0000F920FB60F9211240BB60F922F933F93D0
:100EF0004F935F936F937F938F939F93AF93BF9322
:100F0000EF93FF93E0910E02F0910F021995FF917C
:100F1000EF91BF91AF919F918F917F916F915F9171
:100F20004F913F912F910F900BBE0F900FBE0F90DE
:100F30001F9018951F920F920FB60F9211240BB6A7
:100F40000F922F933F934F935F936F937F938F9362
:100F50009F93AF93BF93EF93FF93E0911002F091B3
:100F600011021995FF91EF91BF91AF919F918F91D0
:100F70007F916F915F914F913F912F910F900BBE99
:100F80000F900FBE0F901F9018951F920F920FB6E3
:100F90000F9211240BB60F922F933F934F935F93B1
:100FA0006F937F938F939F93AF93BF93EF93FF9331
:100FB000E0911202F09113021995FF91EF91BF9108
:100FC000AF919F918F917F916F915F914F913F91E1
:100FD0002F910F900BBE0F900FBE0F901F90189582
:100FE0001F920F920FB60F9211240BB60F922F93F0
:100FF0003F934F935F936F937F938F939F93AF93A1
:10100000BF93EF93FF93E0910802F09109021995C5
:10101000FF91EF91BF91AF919F918F917F916F91D0
:101020005F914F913F912F910F900BBE0F900FBE8C
:101030000F901F9018951F920F920FB60F921124C8
:101040000BB60F922F933F934F935F936F937F93C2
:101050008F939F93AF93BF93EF93FF93E0910A0217
:10106000F0910B021995FF91EF91BF91AF919F9174
:101070008F917F916F915F914F913F912F910F9041
:101080000BBE0F900FBE0F901F9018951F920F92DE
:101090000FB60F9211240BB60F922F933F934F93DD
:1010A0005F936F937F938F939F93AF93BF93EF93D0
:1010B000FF93E0911402F09115021995FF91EF91C1
:1010C000BF91AF919F918F917F916F915F914F9160
:1010D0003F912F910F900BBE0F900FBE0F901F905E
:1010E00018951F920F920FB60F9211240BB60F9204
:1010F0002F933F934F935F936F937F938F939F9320
:10110000AF93BF93EF93FF93E0911602F091170214
:101110001995FF91EF91BF91AF919F918F917F9121
:101120006F915F914F913F912F910F900BBE0F9058
:101130000FBE0F901F9018951F920F920FB60F922F
:1011400011242F933F938F939F93AF93BF938091DD
:10115000460290914702A0914802B0914902309115
:10116000450223E0230F2D3758F50196A11DB11D2F
:10117000209345028093460290934702A093480231
:10118000B093490280914A0290914B02A0914C0287
:10119000B0914D020196A11DB11D80934A0290931A
:1011A0004B02A0934C02B0934D02BF91AF919F911F
:1011B0008F913F912F910F900FBE0F901F90189518
:1011C00026E8230F0296A11DB11DD2CF789484B5D5
:1011D000826084BD84B5816084BD85B5826085BD33
:1011E00085B5816085BDEEE6F0E080818160808319
:1011F000E1E8F0E0108280818260808380818160FC
:101200008083E0E8F0E0808181608083E1EBF0E0C2
:10121000808184608083E0EBF0E080818160808366
:10122000E1E9F0E080818260808380818160808359
:10123000E0E9F0E0808181608083E1EAF0E0808194
:1012400082608083808181608083E0EAF0E0808139
:1012500081608083E1E2F1E080818260808380812F
:1012600081608083E0E2F1E0808181608083EAE751
:10127000F0E08081846080838081826080838081CF
:10128000816080838081806880831092C10008958E
:10129000863308F0865320917B00982F9870277F23
:1012A000922B90937B002091180290E4299F90014B
:1012B00011248770822B80937C0080917A00806457
:1012C00080937A0080917A0086FDFCCF809178002F
:1012D0009091790008951F93CF93DF93182FEB011E
:1012E00061E033D1209731F460E0812FDF91CF911D
:1012F0001F9167C1CF3FD10511F461E0F6CFE12F17
:10130000F0E0EC51FF4FE491E150E23108F0B2C05F
:10131000F0E08827E257F64F8F4F29C5A009A809AA
:10132000AD09B709C1093A0ACB09D309DB09E509B7
:10133000EF09F909080A120A3A0A1C0A260A300AB1
:1013400084B5806884BDC7BDDF91CF911F9108959A
:1013500084B5806284BDC8BDF7CF8091800080686D
:1013600080938000D0938900C0938800EDCF809156
:101370008000806280938000D0938B00C0938A00AD
:10138000E3CF80918000886080938000D0938D00AF
:10139000C0938C00D9CF8091B00080688093B0005A
:1013A000C093B300D1CF8091B00080628093B00031
:1013B000C093B400C9CF8091900080688093900062
:1013C000D0939900C0939800BFCF80919000806225
:1013D00080939000D0939B00C0939A00B5CF8091EA
:1013E0009000886080939000D0939D00C0939C00F3
:1013F000ABCF8091A00080688093A0008091A00076
:101400008F7B8093A000D093A900C093A8009CCFAD
:101410008091A00080628093A000D093AB00C09325
:10142000AA0092CF8091A00088608093A000D09302
:10143000AD00C093AC0088CF80912001806880937C
:101440002001D0932901C09328017ECF80912001F3
:10145000806280932001D0932B01C0932A0174CF26
:1014600080912001886080932001D0932D01C0934A
:101470002C016ACFC038D1050CF03FCF35CF815059
:10148000823108F059C0E82FF0E08827E65BF54F7D
:101490008F4F6DC46A0A6E0A5C0A620A660A9C0A69
:1014A000710A770A7B0A810A850A890A8F0A930AD8
:1014B0009C0A970A9D0AA10A809180008F778093E9
:1014C00080000895809180008F7DF9CF8091800009
:1014D000877FF5CF84B58F7784BD089584B58F7DE0
:1014E000FBCF8091B0008F778093B00008958091FA
:1014F000B0008F7DF9CF809190008F77809390001E
:101500000895809190008F7DF9CF80919000877F22
:10151000F5CF8091A0008F778093A00008958091EF
:10152000A0008F7DF9CF8091A000877FF5CF8091BB
:1015300020018F77809320010895809120018F7D75
:10154000F9CF80912001877FF5CFCF93DF9390E093
:10155000FC01E65DFE4F249180599E4FFC01849171
:101560008823C9F090E0880F991FFC01E053FE4FDB
:10157000A591B491FC01EA54FE4FC591D49161113B
:101580000DC09FB7F8948C91209582238C9388810D
:10159000282328839FBFDF91CF910895623051F4B3
:1015A0009FB7F8943C91822F809583238C93E88198
:1015B0002E2BEFCF8FB7F894EC912E2B2C938FBF5F
:1015C000EACF1F93CF93DF93282F30E0F901EC513E
:1015D000FF4F8491F901E65DFE4FD491F901E05986
:1015E000FE4FC491CC23A1F0162F811148DFEC2FC0
:1015F000F0E0EE0FFF1FEA54FE4FA591B4918FB7B4
:10160000F894EC91111108C0D095DE23DC938FBFC4
:10161000DF91CF911F910895DE2BF8CFFC01918DC2
:10162000228D892F90E0805C9F4F821B91098F73E0
:1016300099270895FC01918D828D981731F0828D44
:10164000E80FF11D858D90E008958FEF9FEF0895CD
:10165000FC01918D828D981761F0A28DAE0FBF2F86
:10166000B11D5D968C91928D9F5F9F73928F90E0DC
:1016700008958FEF9FEF0895FC01538D448D252F22
:1016800030E0842F90E0821B930B541710F0CF961C
:10169000089501970895FC01A48DA80FB92FB11DDD
:1016A000A35ABF4F2C91848D90E001968F73992798
:1016B000848FA689B7892C93A089B1898C91837076
:1016C00080648C93938D848D981306C00288F3896F
:1016D000E02D80818F7D80830895CF93DF93EC018F
:1016E000888D8823B1F0AA89BB89E889F9898C9112
:1016F00085FD03C0808186FD0CC00FB607FCF7CFC7
:101700008C9185FFF2CF808185FFEDCFCE01C3DFC5
:10171000EACFDF91CF910895EF92FF920F931F933D
:10172000CF93DF93EC0181E0888F9B8D8C8D981394
:101730001AC0E889F989808185FF15C09FB7F894A0
:10174000EE89FF896083E889F989808183708064EC
:1017500080839FBF81E090E0DF91CF911F910F9137
:10176000FF90EF900895F62E0B8D10E00F5F1F4F46
:101770000F731127E02E8C8D8E110BC00FB607FC56
:10178000FACFE889F989808185FFF5CFCE0183DF23
:10179000F2CFEB8DEC0FFD2FF11DE35AFF4FF082DE
:1017A0009FB7F8940B8FEA89FB8980818062D0CF44
:1017B000CF92DF92EF92FF921F93CF93DF93EC01D2
:1017C0006A017B01122FE889F98982E08083C114C4
:1017D00081EED806E104F10499F060E079E08DE350
:1017E00090E0A7019601A1D2215031094109510988
:1017F0005695479537952795211580E1380790F044
:10180000E889F989108260E874E88EE190E0A70128
:1018100096018BD2215031094109510956954795BE
:1018200037952795EC85FD853083EE85FF852083F0
:10183000188EEC89FD891083EA89FB89808180619B
:101840008083EA89FB89808188608083EA89FB89BB
:10185000808180688083EA89FB8980818F7D808395
:10186000DF91CF911F91FF90EF90DF90CF9008957F
:101870001F920F920FB60F9211240BB60F922F9357
:101880008F939F93EF93FF93E0915E02F0915F023D
:101890008081E0916402F091650282FD1DC090811B
:1018A000809167028F5F8F7320916802821741F0E9
:1018B000E0916702F0E0E25BFD4F958F8093670255
:1018C000FF91EF919F918F912F910F900BBE0F90F1
:1018D0000FBE0F901F9018958081F2CF1F920F922C
:1018E0000FB60F9211240BB60F922F933F934F9385
:1018F0005F936F937F938F939F93AF93BF93EF9378
:10190000FF938EE492E0C7DEFF91EF91BF91AF911C
:101910009F918F917F916F915F914F913F912F9107
:101920000F900BBE0F900FBE0F901F901895EEE416
:10193000F2E01382128288EE93E0A0E0B0E08483AC
:101940009583A683B7838FE192E09183808385ECB2
:1019500090E09587848784EC90E09787868780EC79
:1019600090E0918B808B81EC90E0938B828B82EC6A
:1019700090E0958B848B86EC90E0978B868B118E14
:10198000128E138E148E08951F920F920FB60F921F
:1019900011240BB60F922F938F939F93EF93FF9386
:1019A000E091FB02F091FC028081E0910103F09153
:1019B000020382FD1DC09081809104038F5F8F73AD
:1019C00020910503821741F0E0910403F0E0E55116
:1019D000FD4F958F80930403FF91EF919F918F911D
:1019E0002F910F900BBE0F900FBE0F901F90189568
:1019F0008081F2CF1F920F920FB60F9211240BB677
:101A00000F922F933F934F935F936F937F938F9397
:101A10009F93AF93BF93EF93FF938BEE92E03BDEE8
:101A2000FF91EF91BF91AF919F918F917F916F91B6
:101A30005F914F913F912F910F900BBE0F900FBE72
:101A40000F901F901895EBEEF2E01382128288EE51
:101A500093E0A0E0B0E084839583A683B7838FE111
:101A600092E0918380838DEC90E0958784878CEC65
:101A700090E09787868788EC90E0918B808B89EC4B
:101A800090E0938B828B8AEC90E0958B848B8EEC2C
:101A900090E0978B868B118E128E138E148E089584
:101AA0001F920F920FB60F9211240BB60F922F9325
:101AB0008F939F93EF93FF93E0919803F091990395
:101AC0008081E0919E03F0919F0382FD1DC0908173
:101AD0008091A1038F5F8F732091A203821741F041
:101AE000E091A103F0E0E857FC4F958F8093A103AC
:101AF000FF91EF919F918F912F910F900BBE0F90BF
:101B00000FBE0F901F9018958081F2CF1F920F92F9
:101B10000FB60F9211240BB60F922F933F934F9352
:101B20005F936F937F938F939F93AF93BF93EF9345
:101B3000FF9388E893E0AFDDFF91EF91BF91AF9104
:101B40009F918F917F916F915F914F913F912F91D5
:101B50000F900BBE0F900FBE0F901F901895E8E8E6
:101B6000F3E01382128288EE93E0A0E0B0E0848379
:101B70009583A683B7838FE192E09183808385ED7F
:101B800090E09587848784ED90E09787868780ED45
:101B900090E0918B808B81ED90E0938B828B82ED36
:101BA00090E0958B848B86ED90E0978B868B118EE1
:101BB000128E138E148E08951F920F920FB60F92ED
:101BC00011240BB60F922F938F939F93EF93FF9354
:101BD000E0913504F09136048081E0913B04F0916E
:101BE0003C0482FD1DC0908180913E048F5F8F7305
:101BF00020913F04821741F0E0913E04F0E0EB5D5C
:101C0000FB4F958F80933E04FF91EF919F918F91B1
:101C10002F910F900BBE0F900FBE0F901F90189535
:101C20008081F2CF1F920F920FB60F9211240BB644
:101C30000F922F933F934F935F936F937F938F9365
:101C40009F93AF93BF93EF93FF9385E294E023DDDF
:101C5000FF91EF91BF91AF919F918F917F916F9184
:101C60005F914F913F912F910F900BBE0F900FBE40
:101C70000F901F901895E5E2F4E01382128288EE2F
:101C800093E0A0E0B0E084839583A683B7838FE1DF
:101C900092E09183808385E391E09587848784E354
:101CA00091E09787868780E391E0918B808B81E339
:101CB00091E0938B828B82E391E0958B848B86E31A
:101CC00091E0978B868B118E128E138E148E089551
:101CD000AF92BF92CF92DF92EF92FF920F931F933A
:101CE000CF93DF936C017B018B01040F151FEB0178
:101CF0005E01AE18BF08C017D10759F06991D6012F
:101D0000ED91FC910190F081E02DC6011995892B90
:101D100079F7C501DF91CF911F910F91FF90EF905F
:101D2000DF90CF90BF90AF900895A1E21A2EAA1B2A
:101D3000BB1BFD010DC0AA1FBB1FEE1FFF1FA2177B
:101D4000B307E407F50720F0A21BB30BE40BF50B78
:101D5000661F771F881F991F1A9469F76095709501
:101D6000809590959B01AC01BD01CF010895EE0FC8
:101D7000FF1F881F8BBF0790F691E02D1994A29F3B
:101D8000B001B39FC001A39F700D811D1124911D4F
:101D9000B29F700D811D1124911D0895F894FFCFFD
:101DA000000080BF00800000CA06CA06CA06CA0634
:101DB000CA06CA06CA06CA06014002000000008C14
:0E1DC0000B680E3C0B6D0B0E0B280B1A0B0064
:00000001FF
