:1000000005C100000C941E310C9449310C947431DC
:100010000C949F310C94CA310C94F5310C9420321D
:100020000C944B3224C1000022C1000020C100000A
:100030001EC100001CC100001AC1000018C1000050
:1000400016C1000014C1000012C1000010C1000060
:100050000EC100000CC100000AC100000C947632F1
:1000600006C100000C944A360C94803600C1000092
:10007000FEC00000FCC00000FAC00000F8C0000094
:10008000F6C00000F4C00000F2C00000F0C00000A4
:100090000C94D6360C940C37EAC00000E8C000007F
:1000A000E6C00000E4C00000E2C00000E0C00000C4
:1000B000DEC00000DCC00000DAC00000D8C00000D4
:1000C000D6C00000D4C000000C94D22C0C9462372F
:1000D0000C949837CCC000000C94EE370C94243864
:1000E000C6C0000000000A0B02090C0D0E08070331
:1000F00004010000000000000000000000000000FB
:1001000000000000000000000000000000000000EF
:1001100012111000000000000000000000000000AC
:100120000000000000000000000001021020200874
:100130000810204010204080020102010804020142
:1001400001020408102040808040201008040201B1
:10015000800402018040201008040201080402010A
:100160000102040810204080010204081020408091
:1001700005050505070508080808020202020A0A23
:100180000808040404040101010101010101030341
:10019000030303030303040707070C0C0C0C0C0CEC
:1001A0000C0C0202020206060606060606060B0BE9
:1001B0000B0B0B0B0B0B000020002300260029006B
:1001C0002C002F003200000100000301060109018C
:1001D00000002200250028002B002E0031003400F2
:1001E00002010000050108010B01000021002400AC
:1001F00027002A002D003000330001010000040117
:1002000007010A01A9363537C1374D3811241FBE01
:10021000CFEFD1E2DEBFCDBF00E00CBF12E0A0E027
:10022000B2E0E0E4F2E700E00BBF02C007900D92FD
:10023000A23FB107D9F72AE0A2EFB2E001C01D92B8
:10024000AF33B207E1F711E0C6E0D1E000E006C04D
:1002500021970109802FFE010E94ED38C230D1079D
:1002600080E00807A9F70E94BF2D0C941E39C8CE64
:10027000FC01A781B0858C9191858923A481B581EA
:100280009C9140815181628173812681922359F032
:1002900081110BC04F5F5F4F6F4F7F4F4083518382
:1002A0006283738308958111F5CF4150510961092B
:1002B0007109F4CF83EF92E0DBCF8EEF92E0D8CFDD
:1002C00089E093E0D5CF84E193E0D2CFFC01A48113
:1002D000B5818C9196818923A781B0859C914081BD
:1002E0005181628173812185922359F0882359F0CD
:1002F0004F5F5F4F6F4F7F4F4083518362837383A4
:1003000008958823A9F34150510961097109F4CF77
:1003100083EF92E0DBCF8EEF92E0D8CF89E093E0DD
:10032000D5CF84E193E0D2CF0F931F93CF93DF9388
:10033000D82FC62F8A01A091F2028BE0A89FD0018E
:100340001124AD50BD4F1D921D921D921C9213970A
:1003500081E01A968C931A978D2F90E0FC01E65D50
:10036000FE4FE4911696EC931697FC01E059FE4F70
:10037000E491F0E0EE0FFF1FEA54FE4F8591949157
:1003800015969C938E931497862F90E0FC01E65D62
:10039000FE4FE4911996EC931997FC01E059FE4F3A
:1003A000E491F0E0EE0FFF1FEA54FE4F8591949127
:1003B00018969C938E93179760E08D2F0E94B73408
:1003C00060E08C2F0E94B7348091F202813009F4F2
:1003D0003FC0A8F0823009F462C0833009F486C0BF
:1003E0008091F20291E0980F9093F202F8018083DD
:1003F00090E080E0DF91CF911F910F91089580E010
:10040000D23049F081E0D33031F08EEE8D0F843060
:10041000D8F487E18D1B41E050E06AE571E00E946D
:10042000A43080E0C23049F081E0C33031F08EEE7C
:100430008C0F843058F487E18C1B41E050E068E871
:1004400071E00E94A430CCCF8FEFE5CF8FEFF5CFD6
:1004500080E0D23049F081E0D33031F08EEE8D0F64
:100460008430C8F487E18D1B41E050E06DE571E018
:100470000E94A43080E0C23049F081E0C33031F006
:100480008EEE8C0F843048F487E18C1B41E050E005
:100490006BE871E0D6CF8FEFE7CF8FEFF7CF80E03B
:1004A000D23049F081E0D33031F08EEE8D0F8430C0
:1004B000C8F487E18D1B41E050E060E671E00E94E6
:1004C000A43080E0C23049F081E0C33031F08EEEDC
:1004D0008C0F843048F487E18C1B41E050E06EE8DB
:1004E00071E0AFCF8FEFE7CF8FEFF7CF80E0D23063
:1004F00049F081E0D33031F08EEE8D0F8430C8F4B6
:1005000087E18D1B41E050E063E671E00E94A4307A
:1005100080E0C23049F081E0C33031F08EEE8C0FC4
:10052000843048F487E18C1B41E050E061E971E0E0
:1005300088CF8FEFE7CF8FEFF7CF9BE0899FF00158
:100540001124ED50FD4F80819181A281B381FB0187
:1005500080839183A283B38390E080E008959BE041
:10056000899FF0011124ED50FD4F108211821282FB
:10057000138290E080E0089590E080E00895CF92AB
:10058000DF92EF92FF92CF93882351F16A017B01B2
:10059000CFEFC80F20E030E0A901CB01B6010E94E7
:1005A000B42E18168CF0C701B60190580E94BD2ECB
:1005B0009B01AC016C2F70E090E080E0CF91FF9048
:1005C000EF90DF90CF90B2C0C701B6010E94B82E65
:1005D0008C2FCF91FF90EF90DF90CF900C947D33D4
:1005E000CF91FF90EF90DF90CF9008950F931F93DE
:1005F0008B019C0183E036952795179507958A9581
:10060000D1F7015E1C4F462F477021E030E0F90121
:1006100002C0EE0FFF1F4A95E2F7AF01F8012081FB
:100620002423CB010196211102C090E080E01F91AC
:100630000F9108950F931F938B019C0183E03695D2
:100640002795179507958A95D1F7677081E090E017
:1006500001C0880F6A95EAF7F801E15EFC4F20813E
:10066000452B31F48095822380831F910F9108954B
:10067000822BFACF2F923F924F925F926F927F928E
:100680008F929F92AF92BF92CF92DF92EF92FF92A2
:100690000F931F93CF93DF93D62EC72E782E692EFC
:1006A00049015A01280161E08D2D0E94B734CD2DFA
:1006B000DC2D8E010F5F1F4FA8016D2D7C2D872D26
:1006C000962DB8DF20E030E0A901C201B7010E94F9
:1006D0003C30181664F4C201B7010E94BD2E2B01F4
:1006E000C501B4010E94BD2EA201CE0123D0C801D4
:1006F000DF91CF911F910F91FF90EF90DF90CF90FE
:10070000BF90AF909F908F907F906F905F904F9031
:100710003F902F900895882341F08150682F70E01A
:1007200090E080E050E040E085CF0895862FB90149
:100730000C947D339C01FC01EC51FF4FE491E1509E
:10074000E231E0F4F0E08827E755FC4F8F4F0C943E
:10075000ED38BB03C203C503DC03F103BE0306048B
:10076000120416042D04420457046E048304BE03CD
:100770009804AF04C40484B5806884BD60E0822F0F
:100780000C94F33484B58062F8CF809180008C7F24
:1007900082608093800080918100807E8061682BE0
:1007A0006093810050938700409386008091800081
:1007B000806880938000E2CF809180008C7F82608F
:1007C0008093800080918100807E8061682B60939F
:1007D0008100509387004093860080918000806262
:1007E000E8CF809180008C7F826080938000809130
:1007F0008100807E8061682B609381005093870028
:1008000040938600809180008860D3CF8091B000B3
:1008100080688093B0008091B100887F682B6093DE
:10082000B100ACCF8091B0008062F3CF8091900096
:100830008C7F82608093900080919100807E8061A7
:10084000682B60939100509397004093960080919D
:10085000900080688093900091CF809190008C7F71
:1008600082608093900080919100807E8061682BEF
:100870006093910050939700409396008091900070
:100880008062E8CF809190008C7F8260809390009E
:1008900080919100807E8061682B609391005093DD
:1008A000970040939600809190008860D3CF80910C
:1008B000A0008C7F82608093A0008091A100807E48
:1008C0008061682B6093A1005093A7004093A6001D
:1008D0008091A00080688093A00050CF8091A000FC
:1008E0008C7F82608093A0008091A100807E8061D7
:1008F000682B6093A1005093A7004093A6008091BD
:10090000A0008062E8CF8091A0008C7F82608093FD
:10091000A0008091A100807E8061682B6093A1007F
:100920005093A7004093A6008091A0008860D3CF89
:10093000809120018C7F8260809320018091210131
:10094000807E8061682B6093210150932701409342
:100950002601809120018068809320010FCF809133
:1009600020018C7F82608093200180912101807E14
:100970008061682B609321015093270140932601E9
:10098000809120018062E8CF809120018C7F82607D
:100990008093200180912101807E8061682B60938B
:1009A0002101509327014093260180912001886006
:1009B000D3CF90E080E008950F931F93009709F440
:1009C00089C06115710509F485C00091200210915C
:1009D000210220912202309123020E3F1F4F2F4F00
:1009E0003F4F09F068C04FEF5FEFBA01409320021C
:1009F00050932102609322027093230240912002BF
:100A0000509121026091220270912302DC01129622
:100A1000ED91FC9180819181A281B38180935104F9
:100A200090935204A0935304B0935404848195810D
:100A3000A681B78180934D0490934E04A0934F04F8
:100A4000B093500480859185A285B3858093490435
:100A500090934A04A0934B04B0934C0484859585ED
:100A6000A685B7858093450490934604A0934704D8
:100A7000B09348041092410410924204109243042F
:100A8000109244040E94B6108BED90E190932903DC
:100A90008093280390932B0380932A030E94A50F31
:100AA000009731F421E030E0309356042093550450
:100AB0001F910F9108950091200210912102209121
:100AC000220230912302DB010D931D932D933C9361
:100AD000139794CF8FEF9FEFEBCF8F929F92AF92B0
:100AE000BF92CF92DF92EF92FF921F93CF93DF934B
:100AF0004B015C011091580482E090E09093560401
:100B00008093550481149104A104B10441F48091AF
:100B10005804811104C080915704C1E08111C0E0E4
:100B2000C12CD12C760180915804811106C080918E
:100B30005704811102C0CC23D9F083E090E0909358
:100B4000560480935504CC2381F1CCE9DFEF1111D9
:100B500002C00E944014CE01DF91CF911F91FF90FF
:100B6000EF90DF90CF90BF90AF909F908F900895BF
:100B70006AE070E080E090E00E94E53280E1C80E1B
:100B800087E2D81EE11CF11C8FEF88169806A80694
:100B9000B80631F0C1E08C149D04AE04BF0408F027
:100BA000C0E080E00E94D90FBECFD0E0C0E0CFCF40
:100BB000CF92DF92EF92FF920F931F93CF93DF9329
:100BC0008F3F910511F008F051C0209155043091EC
:100BD00056042330310539F02091550430915604E4
:100BE0002130310531F424E030E030935604209375
:100BF00055046A017B01EC0182309105A8F011E0F7
:100C0000AE01C701B6010E94A40FAB01BC01CE0129
:100C10001123F9F0DF91CF911F910F91FF90EF9089
:100C2000DF90CF900C9469168C01000F111F085DA6
:100C30001C4FD8018D919C91892B09F30E9473164A
:100C40000297E9F6D801ED91FC91CE011995182F84
:100C5000D7CF0E948B1690E080E0DF91CF911F915B
:100C60000F91FF90EF90DF90CF9008958FEF9FEF5F
:100C7000F4CF80E00C94D90FCF93DF9386E090E01F
:100C800090935604809355040E943210EC01E8E2E0
:100C9000F3E084E0DF011D928A95E9F70E94D81302
:100CA0001092560410925504CE01DF91CF91089511
:100CB0008091570408958091400408956093200224
:100CC00070932102809322029093230290E080E0AF
:100CD000089560E070E080E89FE7089560E070E0CC
:100CE00080E89FE7089560E070E080E89FEF089556
:100CF00060E070E080E89FEF089560E070E080ECD5
:100D00009FEF089560E070E080EC9FEF0895F5DFBD
:100D10006093E5097093E6098093E7099093E809E9
:100D2000F1DF6093D9097093DA098093DB0990931E
:100D3000DC09CFDF6093E1097093E2098093E30956
:100D40009093E409CBDF6093DD097093DE09809313
:100D5000DF099093E009C7DF6093E9097093EA091E
:100D60008093EB099093EC09C3DF6093ED097093D6
:100D7000EE098093EF099093F0090895CF92DF92E6
:100D8000EF92FF92CF936B017C01AC019B016091CC
:100D9000E1097091E2098091E3099091E4090E94D0
:100DA000B42EC1E0882371F0A70196016091E90992
:100DB0007091EA098091EB099091EC090E94B42EA0
:100DC0008111C0E08C2FCF91FF90EF90DF90CF90FA
:100DD00008950F931F938B019C0100271127207802
:100DE0003F770115110520483F4749F4AB01BC018D
:100DF0006F77772781E0452B462B472B09F480E05E
:100E00001F910F910895E5CF2F923F924F925F92DD
:100E10006F927F928F929F92AF92BF92CF92DF920A
:100E2000EF92FF920F931F93CF93DF93CDB7DEB76F
:100E3000CB54D1090FB6F894DEBF0FBECDBF2696B6
:100E40007FAF6EAF269728965FAF4EAF28973E8B49
:100E50002D8B2C96FFAEEEAE2C97FB01E150F04CA3
:100E6000EE0FFF1FEE0FFF1FE80FF91F808091802C
:100E7000A280B3808F8A988EA98EBA8EB501A40104
:100E8000442777FD439555276627772729964FAF47
:100E90002997F901E150F04CEE0FFF1FEE0FFF1FF5
:100EA0002896AEACBFAC2897EA0DFB1DC080D18060
:100EB000E280F380CB8EDC8EED8EFE8EB701A60134
:100EC000442777FD43955527662777272A964FAF06
:100ED0002A97188B0F87F80130E020E02C96EEACB3
:100EE000FFAC2C972E153F050CF43FC022969FAF08
:100EF0008EAF22971A8B098B312C212C812C912CAF
:100F0000540183948D829E82AF82B88626968EACE1
:100F10009FAC2697281439047CF129969FAC299719
:100F20002A96AFAC2A9730E020E041E050E060E044
:100F300070E09A10F5C1C55BDF4F0FB6F894DEBFC5
:100F40000FBECDBFDF91CF911F910F91FF90EF901A
:100F5000DF90CF90BF90AF909F908F907F906F90D9
:100F60005F904F903F902F9008951192119211929F
:100F700011922F5F3F4FB2CF2296EEADFFAD229779
:100F800081919191A191B1912296FFAFEEAF2297FD
:100F90008F88988CA98CBA8CB7FE23C04D815E8156
:100FA0006F81788541505109610971095A016B01BE
:100FB000A81AB90ACA0ADB0AD601C50121E0CD8008
:100FC000DE80EF80F8848C159D05AE05BF0508F026
:100FD00020E0822E912CB12CA12C8D829E82AF829A
:100FE000B8865D01CC24DD24A8A2B9A2CAA2DBA2E6
:100FF0009C01AD01442755272CA33DA34EA35FA31D
:101000002C96EEADFFAD2C97E219F3098D889E88E2
:101010008E169F060CF4F4012896AEACBFAC289750
:101020002496BFAEAEAE2497C988DA88DC8ACB8A14
:101030001E861D86812C912C5401839489869A8664
:10104000AB86BC86812C912C5401CD84DE84CE16D7
:10105000DF0604F1F7FF02C0F0E0E0E0E20DF31D6F
:101060002C96EEACFFAC2C97EE15FF0554F4EE0F6A
:10107000FF1FEE0FFF1FE00FF11F80829182A282FF
:10108000B3822FEF221A320AE989FA893496FA8B51
:10109000E98B3CCF2496AEADBFAD2497CD90DD90CB
:1010A000ED90FD902496BFAFAEAF24972B8D3C8D75
:1010B0004D8D5E8D57FF22C089859A85AB85BC8595
:1010C0000197A109B109AC01BD014C195D096E0977
:1010D0007F096A017B0181E029853A854B855C8522
:1010E000C216D306E406F50608F080E0482F50E06B
:1010F00070E060E049875A876B877C87B701882753
:10110000992768A779A78AA79BA7EE24FF2428A17F
:1011100039A14AA15BA1C701B6010E94A8382B01E1
:101120003C012CA13DA14EA15FA168A579A58AA58E
:101130009BA50E94A8386CA77DA78EA79FA7AB8907
:10114000BC894D915D916D917D91BC8BAB8BDB0129
:10115000CA01880D991DAA1DBB1D89839A83AB8383
:10116000BC8391E09F8F29813A814B815C81281556
:1011700039054A055B0508F01F8E2CA13DA14EA143
:101180005FA1C701B6010E94A8386B017C0189806C
:101190009A80AB80BC808C0C9D1CAE1CBF1C8982CD
:1011A0009A82AB82BC8252019924882488AA99AA87
:1011B000AAAABBAA29813A814B815C81280D391DDD
:1011C0004A1D5B1D2CAB3DAB4EAB5FAB8CA49DA40D
:1011D000AEA4BFA454019924882488AE99AEAAAEC7
:1011E000BBAE280D391D4A1D5B1D2CAF3DAF4EAF68
:1011F0005FAFAB89BC8914972D933D934D935C935E
:10120000139728A139A14AA15BA168A579A58AA550
:101210009BA50E94A8389F8C690D711D811D911D91
:10122000230166247724460E571E681E791E2CA5BE
:101230003DA54EA55FA54A01AA24BB24840C951C9C
:10124000A61CB71C81E090E0A0E0B0E049815A8183
:101250006B817C814C155D056E057F0518F080E083
:1012600090E0DC01880D991DAA1DBB1D41E050E0F6
:1012700060E070E088A899A8AAA8BBA8CCA8DDA8BF
:10128000EEA8FFA8C814D904EA04FB0418F040E053
:1012900050E0BA01840F951FA61FB71F812C912C17
:1012A00054018394C8ACD9ACEAACFBAC2CAD3DADD9
:1012B0004EAD5FAD2C153D054E055F0518F0812C38
:1012C000912C5401880E991EAA1EBB1E4D855E8569
:1012D0004F5F5F4F5E874D87B8CEEF85F889C1902D
:1012E000D190E190F190F88BEF87DB01CA01019773
:1012F000A109B1098C199D09AE09BF0934978083F2
:101300009183A283B383E1E084179507A607B7070B
:1013100008F0E0E04E2F50E070E060E02F5F3F4FBC
:101320002C968EAC9FAC2C9728153905B4F203CEC1
:10133000E091CC03F091CD0380912F0A9091300A77
:10134000A091310AB091320A80839183A283B38342
:1013500008952F923F924F925F926F927F928F9259
:101360009F92AF92BF92CF92DF92EF92FF920F9334
:101370001F93CF93DF93CDB7DEB76C970FB6F8947A
:10138000DEBF0FBECDBF809117049091180400916D
:101390001A0410911B048130910509F022C3609159
:1013A00003047091040480910504909106046F5F1A
:1013B0007F4F8F4F9F4F0E94E92E2091070430915D
:1013C00008044091090450910A040E94403060933F
:1013D0004E0370934F0380935003909351032091D9
:1013E0001002309111024091120250911302D80163
:1013F0006D917D918D919C910E94B42E87FF05C3C4
:101400008091140290911502A0911602B0911702DA
:101410008093170A9093180AA093190AB0931A0A96
:10142000C0900C02D0900D02E0900E02F0900F02DE
:10143000A70196016091F8097091F9098091FA0964
:101440009091FB090E94B42E882341F0C092F809C4
:10145000D092F909E092FA09F092FB098091F7091C
:1014600081111092F709BE01675F7F4F8091FC09DF
:1014700064D88091170490911804019761F58984CC
:101480009A84AB84BC8480910B0A90910C0AA09141
:101490000D0AB0910E0AA5019401281B390B4A0BC5
:1014A0005B0BCA01B9016093330A7093340A8093CD
:1014B000350A9093360A0E94EB2E20E030E048EC8B
:1014C00052E40E94403060931B0A70931C0A809380
:1014D0001D0A90931E0A20911B0A30911C0A40910C
:1014E0001D0A50911E0A6091170A7091180A809186
:1014F000190A90911A0A0E944F2E60931F0A709346
:10150000200A8093210A9093220A0E94262F6B01C1
:101510007C0179DC811182C2C701B6012FDC811107
:101520007DC220E030E040E853E4C701B6010E94EC
:10153000402F6B017C0120E030E0A9010E94B42E15
:1015400087FF6FC2C701B60190580E94BD2E6195FA
:101550006093370A70E090E080E00E94E92E60938B
:10156000230A7093240A8093250A9093260A2091D7
:101570001704309118042130310581F41092270AA4
:101580001092280A1092290A10922A0A60932B0AB4
:1015900070932C0A80932D0A90932E0A6BE070E0D2
:1015A00080E090E023D88C019093040A8093030A92
:1015B0006091370A70E090E080E00E94E92EAB0174
:1015C000BC01C8010E94BF028091170490911804C9
:1015D0000197E1F580911C0290911D02A0911E02DD
:1015E000B0911F028D839E83AF83B8878091330AA9
:1015F0009091340AA091350AB091360A89839A8372
:10160000AB83BC8382E0E82EF12C0FE01AE021E0EE
:1016100030E0AE014F5F5F4F61E070E0CE010596B4
:10162000F3DB20E030E0A90160910002709101023B
:1016300080910202909103020E94403060932F0A31
:101640007093300A8093310A9093320A8091170484
:1016500090911804019709F0ABC180920B0A909207
:101660000C0AA0920D0AB0920E0A40910304509108
:101670000404609105047091060490E080E098DA1B
:101680008091170490911804019709F091C140913D
:101690000B0450910C0460910D0470910E0481E0D4
:1016A00090E086DA4091170450911804588F4F8BC0
:1016B0004130510509F07CC1E0917E03F0917F0338
:1016C0000190F081E02D4080518062807380809194
:1016D0004E0390914F03A0915003B0915103898F15
:1016E0009A8FAB8FBC8FE0915203F0915303C0806F
:1016F000D180E280F380E0918203F0918303008146
:101700001181E0914603F0914703A081B181BA8B2A
:10171000A98B22803380248135813C8B2B8B4681A1
:1017200057815E8B4D8BE0914403F091450311820C
:10173000108284E0F80101900D928A95E1F7E09122
:101740007C03F0917D0331822082F2DD20E030E0E5
:1017500040E05FE3C701B6010E9440304B015C01ED
:10176000D1012D913D914D915C910E944030E989CC
:10177000FA8920813181428153810E94502ED80103
:101780006D937D938D939C931397E0917E03F091DD
:101790007F03208131813E872D87A5019401C301FC
:1017A000B2010E94502EAD85BE856D937D938D93C1
:1017B0009C931397E0917C03F0917D032B893C89E6
:1017C00031832083C6DDB4DD20E030E040E45FE318
:1017D000C701B6010E9440304B015C0120E030E0BF
:1017E000A901C701B6010E944030D1012D913D9160
:1017F0004D915C910E9440306D877E878F87988BDA
:10180000EB89FC892081318142815381C501B4017A
:101810000E9440309B01AC016D857E858F85988943
:101820000E94502EA989BA892D913D914D915C91CC
:101830000E94502EF8016083718382839383E0912C
:101840007E03F0917F03208131813E872D87A501A2
:101850009401C301B2010E94502EAD85BE856D93E7
:101860007D938D939C931397E0917C03F0917D037E
:101870002D893E89318320836CDD5ADD29E33EE8E2
:1018800043E65EE3C701B6010E944030D1012D91CD
:101890003D914D915C910E9440304B015C012BEADF
:1018A0003AEA4AEA5EE3C701B6010E944030EB899A
:1018B000FC8920813181428153810E9440309B010B
:1018C000AC01C501B4010E94502E4B015C0129E31B
:1018D0003EE843EE5EE3C701B6010E944030AD89A9
:1018E000BE892D913D914D915C910E9440309B01AC
:1018F000AC01C501B4010E94502EE989FA8920810A
:101900003181428153810E94502ED8016D937D9385
:101910008D939C931397E0917E03F0917F03019048
:10192000F081E02D298D3A8D4B8D5C8D20833183A4
:1019300042835383E0914403F09145034F89588DCE
:10194000518340838091030490910404A091050485
:10195000B09106040196A11DB11D809303049093DC
:101960000404A0930504B093060480914E03909163
:101970004F03A0915003B0915103E0911A04F091EC
:101980001B0480839183A283B38380910B04909185
:101990000C04A0910D04B0910E040196A11DB11D7F
:1019A00080930B0490930C04A0930D04B0930E0449
:1019B0006C960FB6F894DEBF0FBECDBFDF91CF910E
:1019C0001F910F91FF90EF90DF90CF90BF90AF905D
:1019D0009F908F907F906F905F904F903F902F904F
:1019E0000895892B09F0FBCCE0917E03F0917F03F1
:1019F0000190F081E02D80819181A281B381F80175
:101A000080839183A283B383EACC80910402909176
:101A10000502A0910602B0910702FACCC12CD12C8C
:101A20007601C701B6010E94BD2E92CD8F929F9282
:101A3000AF92BF92DF92EF92FF920F931F93CF93DB
:101A4000DF9384E090E063D9EEE3F3E087E194E094
:101A500097838683CAE1D4E0D0937F03C0937E034B
:101A600007E014E0158B048B2CEC33E037AF26AF86
:101A700046EC53E050938303409382032BEF33E013
:101A800030938103209380032DEF33E0309385035F
:101A90002093840328EC33E030938703209386035C
:101AA0002AEC33E030938903209388032EEC33E053
:101AB0003093C5032093C403F093A903E093A803D4
:101AC000F583E48361E070E0DC016D937C9383EE49
:101AD00093E063ED73E0DC016D937C9367ED73E05D
:101AE0007093E6036093E5036BED73E07093E80396
:101AF0006093E7036FED73E07093EA036093E9038B
:101B000068E37AE0DA016D937C934CE35AE0D90103
:101B10004D935C9310920F041092100410921104D4
:101B200010921204918780871092BF0389E592E09A
:101B3000938782872CE134E03983288340E050E0AA
:101B400060E87FEB409313045093140460931504F2
:101B5000709316044AE057ED63E27CE3D8014D939D
:101B60005D936D937C931397CBEED3E084E997EC70
:101B7000AFE3B7E188839983AA83BB838BEA96E9B5
:101B8000ACE2B3ED8093EF039093F003A093F103E5
:101B9000B093F2038CEF9AE2A8E5B7E28093F303E7
:101BA0009093F403A093F503B093F60388E59CE2C9
:101BB000A9EFB4E78093F7039093F803A093F90398
:101BC000B093FA03A2E3B3E0B383A283ECE2F3E0C1
:101BD0001196FC93EE938EE592E09183808393833C
:101BE00082839583848381E094E015969C938E9301
:101BF00014971396DC93CE93129717963C932E93DB
:101C00001697C1EFD9E0E0E0F2E080859185A285EA
:101C1000B3858A8F9B8FAC8FBD8F808D918DA28D68
:101C2000B38D8093380A9093390AA0933A0AB093FF
:101C30003B0A1B86188284859585A685B7858F8388
:101C40009887A987BA87812C912C54018394898223
:101C50009A82AB82BC824CEF59E063E182E10E9440
:101C60009401DD24D394DD821E828B850E94AF0215
:101C70001C868D869E86AF86B88AE12CF12C870162
:101C8000A80197016BE070E080E090E00E943A03C9
:101C90009B8B8A8BD98ADF91CF911F910F91FF90F7
:101CA000EF90DF90BF90AF909F908F9008958091BC
:101CB000F109811114C081E08093F1098091F2094A
:101CC0009091F309A091F409B091F5090197A1054C
:101CD000B10529F48091F60981110E94BC0280911E
:101CE000FD0981112EC081E08093FD098091FE09DC
:101CF0009091FF09A091000AB091010A0197A105F6
:101D0000B105F9F48091020A8823D9F06BE070E004
:101D100080E090E00E94F6029093040A8093030A08
:101D200040E050E0BA010E94BF026BE070E080E04A
:101D300090E00E94F6029093040A8093030A0C94A8
:101D40008B0308954F925F926F927F928F929F9232
:101D5000AF92BF92CF92DF92EF92FF920F931F93B9
:101D6000F8944090300450903104609032047090A8
:101D70003304C0902404D0902504E0902604F09011
:101D800027044130510509F0A4C09B01AC0124197E
:101D900035094609570929013A0100912C0410918F
:101DA0002D0420912E0430912F0448015901840CF8
:101DB000951CA61CB71C80169106A206B306A0F4BB
:101DC000009128041091290420912A0430912B04B9
:101DD0000F5F1F4F2F4F3F4F00932804109329048C
:101DE00020932A0430932B0480922C0490922D048B
:101DF000A0922E04B0922F0400912804109129047F
:101E000020912A0430912B0480923404909235045E
:101E1000A0923604B092370400933804109339042A
:101E200020933A0430933B04609330047093310460
:101E30008093320490933304A0E1B7E2A3019201AE
:101E40000E94F5386C0D7D1D8E1D9F1D609324042E
:101E50007093250480932604909327040091200218
:101E60001091210220912202309123020F3F1F4F37
:101E70002F4F3F4FF1F0009120021091210220914D
:101E80002202309123020E3F1F4F2F4F3F4F89F008
:101E9000C0902002D0902102E0902202F090230214
:101EA00021E08C149D04AE04BF0408F420E02093CC
:101EB000400478941F910F91FF90EF90DF90CF90A6
:101EC000BF90AF909F908F907F906F905F904F905A
:101ED00008954B015C0184189508A608B708A30172
:101EE0009201261B370B480B590B641575058605A7
:101EF0009705D0F082169306A406B50640F420E0BC
:101F000030E0A90181149104A104B10491F4A0E18D
:101F1000B7E20E94F538A7019601261B370B480B44
:101F2000590BCA01B901C5CF82169306A406B5069E
:101F300070F7A0E1B7E2A50194010E94F5386C0D9D
:101F40007D1D8E1D9F1DB5CFFDCECF93DF9300D09D
:101F50001F92CDB7DEB71C821B821A8219821092A3
:101F60003C0410923D0410923E0410923F04BE01C6
:101F70006F5F7F4FCE0103960E94A22C69817A8108
:101F80008B819C810E949025009761F4BE016F5F58
:101F90007F4FCE0103960E94AE2C69817A818B819E
:101FA0009C812FD50F900F900F900F90DF91CF91C4
:101FB0000895FF920F931F93CF93DF93082F60E054
:101FC00070E0CB010E94E532FF24F3940E94792453
:101FD000EC01892B89F010E0CE3F8FEFD80769F034
:101FE000002361F160E070E0CB010E94E53281E006
:101FF00090E0892B59F322C011E026D5EC01892B02
:1020000021F0CE3F8FEFD80759F711111EC011E014
:10201000229609F410E00E942924EC01892B21F07A
:10202000CE3F8FEFD807E1F6111111C011E0CE3F7E
:102030008FEFD80709F410E001110BC0CE01DF913A
:10204000CF911F910F91FF90089511E0E4CF11E01F
:10205000F3CF60E070E0CB010E94E5321F25812FB5
:1020600090E0C7CFCF93DF9380914004882321F085
:1020700060E070E0CB014DD636D6D0E0C0E0892BD1
:1020800071F06AE070E080E090E00E94E53281E06B
:1020900090DF29D62196C03D27E0D20781F728D6C8
:1020A0000E94E42510925804109257041092510493
:1020B00010925204109253041092540410924D0442
:1020C00010924E0410924F04109250041092490442
:1020D00010924A0410924B0410924C041092450442
:1020E0001092460410924704109248041092410442
:1020F0001092420410924304109244044EEF5FEF9A
:102100006FEF7FEF409320025093210260932202F1
:102110007093230210924004E4E3F4E028E0DF012E
:102120001D922A95E9F71092300410923104109212
:1021300032041092330410922C0410922D04109249
:102140002E0410922F041092280410922904109249
:102150002A0410922B041092240410922504109249
:10216000260410922704DF91CF9108951092640401
:102170001092650410926604109267041092630432
:1021800080916C0490916D0490936204809361043B
:102190001092600410925F0410925B0410925C0431
:1021A00010925D0410925E0410926904109268040B
:1021B00090E080E00895CF92DF92EF92FF920F932C
:1021C0001F93CF938C01019709F055C020916C04A7
:1021D00030916D04809161049091620440916C048F
:1021E00050916D045093620440936104281739079D
:1021F00081F01092600410925F0410925B041092C0
:102200005C0410925D0410925E04109269041092B6
:10221000680480916C0490916D04019761F5809140
:10222000680490916904892B21F480912402811122
:1022300012C080916804909169040197E1F4809143
:102240005B0490915C04A0915D04B0915E040197E1
:10225000A105B10581F410925B0410925C04109208
:102260005D0410925E041092240282E090E090934C
:1022700069048093680480916C0490916D040197C7
:1022800009F01CC18091820490918304801791070A
:1022900009F014C180917E0490917F04A091800484
:1022A000B0918104009709F409C120917D042111A6
:1022B0000DC040917E0450917F0460918004709124
:1022C0008104452B462B472B09F4F8C02091680464
:1022D000309169042230310509F0F0C020915F048B
:1022E0002111ECC0FC01C080D180E280F38080919C
:1022F0006304882309F4D3C080916F049091700423
:10230000892B09F4FEC020916F043091700481E0A4
:102310002230310509F080E020916F043091700483
:10232000C1E02130310549F020916F0430917004F3
:10233000C1E02230310509F0C0E0882309F456C01D
:102340002091790430917A0440917B0450917C046F
:10235000C701B6010E943C3087FD14C0209179046A
:1023600030917A0440917B0450917C046091640424
:102370007091650480916604909167040E94B42E68
:1023800087FD22C02091790430917A0440917B042A
:1023900050917C04C701B6010E943C30181634F5F8
:1023A0002091790430917A0440917B0450917C040F
:1023B0006091640470916504809166049091670453
:1023C0000E94B42E811112C0809171049091720408
:1023D000A0917304B0917404892B8A2B8B2B19F470
:1023E00081E08093600481E080935F04CC2309F452
:1023F00056C02091790430917A0440917B04509129
:102400007C04C701B6010E94B42E87FF14C020913E
:10241000790430917A0440917B0450917C0460915E
:1024200064047091650480916604909167040E9431
:102430003C3087FF22C02091790430917A0440918A
:102440007B0450917C04C701B6010E94B42E811117
:1024500026C02091790430917A0440917B045091F8
:102460007C0460916404709165048091660490918D
:1024700067040E943C30181694F480917104909186
:102480007204A0917304B0917404892B8A2B8B2B56
:1024900019F481E08093600481E080935F0481E01F
:1024A00090915F04911180E080936304C092640472
:1024B000D0926504E0926604F09267040130110541
:1024C00009F067C18091680490916904892BD9F45F
:1024D00010926E0410925F0480912402882379F098
:1024E00082E090E090936904809368041092240243
:1024F00020916C0430916D0481E0232BE9F080E0A1
:102500001BC081E009CF1092240280916E048823C1
:1025100049F01092600410926904109268041092BD
:102520006E04EDCF80916C0490916D04892BE1F0E5
:1025300080915F0410925F042091680430916904D7
:102540002230310509F45EC088F42115310509F403
:1025500048C02130310509F4F3C010926004109294
:102560005F0410926E0438C081E0E6CF233031055D
:1025700009F4B1C02430310581F740915B045091DA
:102580005C0460915D0470915E0441155105610524
:10259000710561F0415051096109710940935B0473
:1025A00050935C0460935D0470935E0440915B04FF
:1025B00050915C0460915D0470915E04452B462B44
:1025C000472BD9F420916A0430916B0421303105F6
:1025D00009F046C0109260041092690410926804D9
:1025E0000CC080912402882341F082E090E0909317
:1025F0006904809368041092240210925904809117
:102600006004CEC08823C9F3809171049091720454
:10261000A0917304B0917404181619061A061B06CB
:102620000CF07DC080916C0490916D04019709F0CD
:1026300076C08091710490917204A0917304B0915E
:10264000740480935B0490935C04A0935D04B09346
:102650005E0483E090E09093690480936804CDCF9A
:1026600040917504509176046091770470917804DC
:10267000452B462B472BA9F01092600480917504DE
:1026800090917604A0917704B091780480935B04D4
:1026900090935C04A0935D04B0935E0481E090E0AD
:1026A000DACF882399F08091250290912602A0919B
:1026B0002702B091280280935B0490935C04A0935E
:1026C0005D04B0935E0484E090E0C5CF1092600496
:1026D00082E090E0C0CF80915B0490915C04A09177
:1026E0005D04B0915E040097A105B10559F0019712
:1026F000A109B10980935B0490935C04A0935D04ED
:10270000B0935E0480915B0490915C04A0915D04A1
:10271000B0915E04892B8A2B8B2B09F06ECF8091B0
:10272000250290912602A0912702B0912802892BC0
:102730008A2B8B2B09F44ECF81E080936004B3CFBA
:1027400040915B0450915C0460915D0470915E0463
:10275000411551056105710561F04150510961094B
:10276000710940935B0450935C0460935D04709323
:102770005E0440915B0450915C0460915D04709133
:102780005E04452B462B472B09F037CF8111C7CF6D
:102790009FCF80915904882309F431CF80915A0446
:1027A000CF911F910F91FF90EF90DF90CF90089500
:1027B00010926404109265041092660410926704EB
:1027C00010926304109269041092680410926204DB
:1027D000109261041092830410928204109260049B
:1027E00010925F0410925B0410925C0410925D04DE
:1027F00010925E0410925A041092590410927E04B2
:1028000010927F04109280041092810410927D0433
:102810001092790410927A0410927B0410927C0436
:1028200088EE93E0A0E0B0E080932502909326022A
:10283000A0932702B0932802109275041092760498
:10284000109277041092780410927104109272041E
:1028500010927304109274041092700410926F041A
:1028600081E08093240210926E0410926D04109205
:102870006C0410926B0410926A0490E080E008955A
:1028800080916C0490916D04892B19F5809124023C
:10289000882351F080916E04811106C081E08093FD
:1028A0005A0480935904089520916E0430912402B3
:1028B00081E090E0332311F090E080E030E082236B
:1028C0009323892B21F010925A0481E0EACF1092D1
:1028D0005904089582E090E0FA01918380838FEF9C
:1028E0009FEF0895CF93DF93EA01009711F00E94C4
:1028F00004271982188290E080E0DF91CF9108953B
:10290000DB01009719F48FEF8C9308952EEF2C9331
:10291000FC013F96EF30F10508F034C08827EC56F3
:10292000FB4E8F4F0C94ED38C014BE14BC14BA1477
:10293000B814B414B614B214B014AE14AB14A71473
:10294000A314A914C21480E311968C93089589E20C
:10295000FBCF82E2F9CF11961C92089583E2F4CF67
:1029600081E2F2CF81E1F0CF87E2EECF8AE2ECCFD5
:1029700080E1EACF84E2E8CF88E2E6CF86E2E4CFE6
:1029800081E3E2CF80E2E0CF8091900490919104C6
:1029900008959093910480939004089580918F04FA
:1029A000089590918F04892B80938F040895982F18
:1029B000909580918F04892380938F04089580914E
:1029C0008E04089580918C0490918D040895611572
:1029D000710559F0FB0130E020E070E060E0241761
:1029E000350719F06115710511F0CB010895A0812B
:1029F000B181A817B90709F4BF012F5F3F4F369681
:102A0000EECF8091920481111CC060D266D2909367
:102A10008504809384040E94021F0E94141F9093D7
:102A20008904809388040E9491230E9498239093A4
:102A300087048093860481E08093920490E080E094
:102A4000089584EF9FEF08958F929F92AF92BF9267
:102A5000CF92DF92EF92FF920F931F93CF93DF936A
:102A600000D000D000D01F92CDB7DEB71A861986ED
:102A700018861F821E821D821C821B821A82198266
:102A80008091920407EF1FEF882309F49CC08E0108
:102A90000D5F1F4F9E012B5F3F4FAE01495F5F4FA0
:102AA000BE01675F7F4F90E080E00E9415258C019A
:102AB000009721F00596029708F0DBC029853A853A
:102AC0002115310509F402C1ED80FE804B815C8146
:102AD000B701640F751F8F8198858617970708F4D3
:102AE000F5C0E20EF31ED7019C91903C09F07FC027
:102AF0004230510508F47BC011968C9140919004AE
:102B000050919104452B09F49CC0913F08F071C08D
:102B10002CE1290F2D3008F48BC02DE2290F203134
:102B200008F489C0903C21F48150823008F483C0BD
:102B300088E3890F8B3008F481C090E8C92E94E1B6
:102B4000D92EEAE6F4E16D817E81AE014F5F5F4FE1
:102B500089859A8519955C01C114D104A1F18980F8
:102B60009A808114910479F18B819C818815990553
:102B700008F487C010E000E04B815C8170E060E009
:102B8000C7010E94173901151105E9F449815A81DD
:102B900069857A858D819E81680F791FC501F6014F
:102BA0001995E980FA800D811E812F81388549852C
:102BB0005A856FEF7FEF81E090E00E94B0248C0196
:102BC000892B09F056C0C8012A960FB6F894DEBFCB
:102BD0000FBECDBFDF91CF911F910F91FF90EF906E
:102BE000DF90CF90BF90AF909F908F90089580E03E
:102BF00085CF30E020E0220F331FF901EC57FB4F67
:102C00000190F081E02D309709F497CF892F90E063
:102C10001995009709F491CFDC011296ED91FC9182
:102C200013971496CD90DC90309709F08CCF1FC08D
:102C300021E030E0E0CF22E030E0DDCF23E030E003
:102C4000DACFD12CC12CE2E7F4E19F3F09F07BCF32
:102C5000E0918404F0918504309721F4C90104EFD8
:102C60001FEF0CC08FEF90E019950097A9F604EFC5
:102C70001FEF89859A85009709F4A5CF0E94042744
:102C8000A2CF0E94DF258C0189859A850E940427A6
:102C900070E060E0C4010E94782598878F830E94CD
:102CA000AD249E838D836F8178856115710559F000
:102CB000C8010E9490289A87898706EF1FEF892B09
:102CC00009F058CF59CF08EF1FEF56CF08EF1FEF8D
:102CD000D0CF20919204222319F020E00C94191FE8
:102CE00087EF9FEF0895809190049091910408954B
:102CF0000E949D230E94F722F5D0E4E8F4E088E0EA
:102D0000DF011D928A95E9F71092920490E080E02D
:102D100008950C94552121E040E050E0BA010C9454
:102D2000191F86E090E0FA019183808390E080E0B3
:102D3000089547E050E061E672E049CEDF92EF92FD
:102D4000FF920F931F93CF93DF938A01EC01C60F7D
:102D5000D71FE0909604F0909704D9800E94C72571
:102D6000D816190678F082E090E0F801918380830C
:102D70008EEF9FEFDF91CF911F910F91FF90EF901A
:102D8000DF900895EF2841F482E090E0F80191830C
:102D9000808384EF9FEFEECF89818093950490E04C
:102DA0000196F8019183808390E080E0E3CFCF9398
:102DB000DF93EA010E940622882321F00E94D42595
:102DC0000E94072282E090E0998388838BEF9FEF37
:102DD000DF91CF910895CF93DF93EB0186E0FB0164
:102DE00011928A95E9F78FEF8883D8DD8983E7DD33
:102DF0008A83E8DD9D838C83DF91CF910895CF9303
:102E0000DF93EA010E940922811109C082E090E06B
:102E10009983888385EF9FEFDF91CF91089590E0AC
:102E200080E0B7DD81E090E09983888390E080E0E6
:102E3000F3CF0F931F93CF93DF93EA018C01060F1B
:102E4000171F0E94092281110BC082E090E0998334
:102E5000888385EF9FEFDF91CF911F910F910895A8
:102E6000F8018181823038F082E090E09983888394
:102E70008EEF9FEFF0CF81E090E08BDD88E090E077
:102E80009983888390E080E0E6CFCF93DF9300972B
:102E9000D1F4EB01FB01329686E0DF011D928A95A9
:102EA000E9F78FEF888385E089831A820E94C7251E
:102EB0008B830E94C6259D838C8381E08E838F83C4
:102EC000DF91CF910895DF91CF911ACD89E996E1F5
:102ED0009093940480939304089580919304909127
:102EE000940408951092940410929304089580918C
:102EF0009604909197040895411105C061157105DC
:102F00008105910561F06093960470939704809316
:102F100098049093990440939A0481E0089580E086
:102F20000895FF920F931F93CF93DF938A01EC01D3
:102F3000C60FD71FF9800E94C725F816190668F03A
:102F400082E090E0F801918380838EEF9FEFDF9124
:102F5000CF911F910F91FF9008956C817D818E819B
:102F60009F814B81C9DF811108C082E090E0F801A8
:102F70009183808384EF9FEFEACF898180939504CA
:102F800090E00196F8019183808390E080E0DFCFAC
:102F9000CF93DF93EA01FC01E60FF71F648175818F
:102FA000868197814381A8DF811109C082E090E08A
:102FB0009983888384EF9FEFDF91CF91089581E01B
:102FC00090E09983888390E080E0F6CFE6E9F4E032
:102FD0004081518162817381480F511D611D711DB6
:102FE00040835183628373830895CF93C091950486
:102FF0004C2F50E0609196047091970401960E94C6
:103000000E398C2FE3DF10929504CF91089500972D
:1030100099F480919604909197042FEFFB012083FF
:10302000892B59F02091950430E02F5F3F4F2417F2
:10303000350719F4CB01D9CF63CC0895009799F4E3
:1030400080919604909197042FEFFB012083892BA8
:1030500059F02091950430E02F5F3F4F241735073A
:1030600019F4CB01C2CF4CCC089523E1AC01249FCD
:10307000C001259F900D1124E0919F04F091A004C0
:10308000E80FF91F238134812250310981E0223079
:10309000310508F080E008950F931F93CF93DF93DD
:1030A0000091A1041091A204D0E0C0E080E00C17D0
:1030B0001D0749F491E0811190E0892FDF91CF91B4
:1030C0001F910F9108958111F5CFCE01CEDF21968A
:1030D000EECFA0919F04B091A004109729F1209108
:1030E000A1043091A20482179307F0F453E1589F92
:1030F0009001599F300D1124A20FB31FED91FC9147
:103100001197309789F012968C91681768F48DE0CA
:10311000689FE00DF11D112480819181892B21F0A0
:1031200081E09281491708F080E008959C0143E115
:10313000429FC001439F900D1124E0919F04F091A4
:10314000A004E80FF91F8385823091F481E090E0BC
:10315000658176814091290250912A026417750792
:1031600011F490E080E0892B19F081E0232B09F025
:1031700080E00895FC01A081B1818DE0689FA00DE1
:10318000B11D112413964D915C9185859685489FBC
:103190009001499F300D589F300D1124C9010196AF
:1031A000611103C0478144FD04960895EF92FF9298
:1031B0000F931F93CF93DF93EA01FC01E60FF71FF4
:1031C00002811381E480F5804F2D6E2DC80181DFCF
:1031D00081110DC082E090E0998388838EEF9FEF8C
:1031E000DF91CF911F910F91FF90EF900895C8014B
:1031F0003CDF882339F082E090E09983888388EF70
:103200009FEFEECF1093300200932F02E092310235
:10321000F092320281E090E09983888390E080E030
:10322000DFCFCF92DF92EF92FF920F931F93CF9356
:10323000DF937A01EC01C60FD71FC0902F02D09008
:1032400030020091310210913202412F602FC601ED
:1032500040DF811110C082E090E0F701918380830C
:103260008AEF9FEFDF91CF911F910F91FF90EF9029
:10327000DF90CF900895C601F8DE882341F082E008
:1032800090E0F7019183808388EF9FEFEBCF4C8133
:103290005D816E817F819A8189818F3F41F082E0DB
:1032A00090E0F701918380838EEF9FEFDBCFE3E126
:1032B000EC9D9001ED9D300D1124E0919F04F09163
:1032C000A004E20FF31F0190F081E02D2DE0029F9A
:1032D000E00DF11D11240190F081E02D27E0129FF7
:1032E000E00DF11D1124808391838B8182834383C0
:1032F0005483658376831F5F1093320281E090E0F0
:10330000F7019183808390E080E0ACCFEF92FF9251
:103310000F931F93CF93DF937A018C01060F171F32
:10332000C0919F04D091A004209781F021E030E06B
:10333000F801828193814091A1045091A2048417E5
:10334000950710F030E020E0232B71F482E090E04C
:10335000F701918380838EEF9FEFDF91CF911F91D3
:103360000F91FF90EF90089543E1489F9001499F8E
:10337000300D1124C20FD31F78DE882341F082E084
:1033800090E0F7019183808388EF9FEFE6CFF8010B
:103390002481358120383105C8F687818111D6CF47
:1033A0004181842F90E08F7E009741F082E090E091
:1033B000F7019183808386EF9FEFCFCF4F833E83CA
:1033C0002D83268128871986223010F421E0288752
:1033D00021E030E0F70131832083BFCF88E090E027
:1033E000FA019183808390E080E00895FB018FEFE4
:1033F000808381E181838FEF9FEF9383828380E8D5
:1034000090E095838483168217820895FB018FEFE5
:10341000808391E0918382839383848384E3858393
:1034200081E090E0978386830895DF92EF92FF9288
:103430000F931F93CF93DF93EA01FC01E60FF71F71
:103440008181813071F082E090E0998388838FEFF1
:103450009FEFDF91CF911F910F91FF90EF90DF9041
:10346000089582819381D4802581E680F780009140
:103470009F041091A0040115110539F482E090E039
:10348000998388838CEF9FEFE4CF4091A104509102
:10349000A2048417950738F082E090E0998388832E
:1034A0008EEF9FEFD6CF892B39F082E090E09983A1
:1034B000888386EF9FEFCDCF8D2D8D7FB1F72130A3
:1034C000A1F781E0D11006C091E0E916F10431F0D6
:1034D00080E004C0E2E0EE16F104D0F3882329F383
:1034E00090E080E0C2DD882339F082E090E09983AB
:1034F000888388EF9FEFADCFF801D38681E0848782
:10350000F686E586108A178681E090E099838883A5
:1035100090E080E09ECF4CE050E06BE872E057CA4C
:103520008F929F92BF92CF92DF92EF92FF920F9372
:103530001F93CF93DF93EA01FC01E60FF71F82810F
:1035400093810481B580E0919F04F091A0043097AD
:1035500091F482E090E0998388838CEF9FEFDF9174
:10356000CF911F910F91FF90EF90DF90CF90BF9080
:103570009F908F9008952091A1043091A20482170A
:10358000930738F082E090E0998388838EEF9FEF75
:10359000E6CF23E1289F6001299FD00C1124EC0D78
:1035A000FD1DE080F180E114F10499F28281081799
:1035B00048F78DE0089F80011124E00EF11EF7010D
:1035C00080819181892B29F6BB20E1F2F7E0BF9E33
:1035D00040011124C4010E94CB26F701918380830E
:1035E000E0919F04F091A004EC0DFD1D0190F0818D
:1035F000E02DE00FF11F80819181009739F482E086
:1036000090E0998388838DEF9FEFA9CFA40170E0AC
:1036100060E00E94173980919F049091A004C80E29
:10362000D91EF60180819181080F191FF801B2821D
:1036300081E090E09983888390E080E090CFAF9222
:10364000BF92CF92DF92FF920F931F93CF93DF939E
:10365000EA01FC01E60FF71F82819381F48000915B
:103660009F041091A0040115110581F482E090E0FF
:10367000998388838CEF9FEFDF91CF911F910F91FA
:10368000FF90DF90CF90BF90AF9008952091A1045C
:103690003091A2048217930738F082E090E099837A
:1036A00088838EEF9FEFE8CF2FEF2F0D2C3FA8F7E9
:1036B00023E1289F6001299FD00C11240C0D1D1DB2
:1036C000F80180819181892B89F6FDE0FF9E5001F0
:1036D0001124C5010E94CB26F80191838083E091DB
:1036E0009F04F091A004EC0DFD1D80819181009755
:1036F00039F482E090E0998388838DEF9FEFBCCF0F
:10370000A50170E060E00E941739E0919F04F091FC
:10371000A004EC0DFD1DF28281E090E09983888386
:1037200090E080E0A9CFCF92DF92EF92FF920F93CB
:103730001F93CF93DF93860F971FFC0102811381A4
:1037400080919F049091A004892B81F082E090E009
:10375000FA01918380838CEF9FEFDF91CF911F91CE
:103760000F91FF90EF90DF90CF900895C801B0E0E7
:10377000A0E00197A109B1098F3F9F4FA105B105B5
:1037800040F082E090E0FA01918380838EEF9FEF1A
:10379000E4CF7A0183E1809F6001819FD00C1124E6
:1037A000C6010E94CB26EC01009741F482E090E034
:1037B000F701918380838DEF9FEFCFCFA60170E05B
:1037C00060E00E941739D093A004C0939F04109327
:1037D000A2040093A10490E080E02FEF3FEF41E0CE
:1037E00061E070E08017910741F481E090E0F7011B
:1037F0009183808390E080E0B0CF3A8B298B1B8649
:103800004C877E876D87188A1F8601966396EACF5C
:10381000EF92FF921F93CF93DF93EC0110E0F12C16
:10382000E12C6A811617B0F083E0689FB001112483
:10383000AE014F5E5F4FC7010E943027009721F015
:103840002FEF3FEF3A8B298BDF91CF911F91FF90A4
:10385000EF900895612FCE018DDC61E070E00E9451
:103860007825E816F90608F47C011F5FDACFF89492
:1038700020919D0430919E0481E02115310509F0CD
:1038800080E0232B09F0789408952F923F924F9275
:103890005F926F927F928F929F92AF92BF92CF92E0
:1038A000DF92EF92FF920F931F93CF93DF933C0130
:1038B000660E771EF301828193814C01B12CA12CFD
:1038C000C0919F04D091A004209769F021E030E0DE
:1038D0006091A1047091A2048617970710F030E060
:1038E00020E0232BD1F482E090E0FA0191838083E1
:1038F0008EEF9FEFDF91CF911F910F91FF90EF908F
:10390000DF90CF90BF90AF909F908F907F906F90FF
:103910005F904F903F902F90089580923302909245
:103920003402A0923502B092360263E1689F9001A2
:10393000699F300D1124C20FD31FF30181818330A1
:1039400040F082E090E0FA019183808386EF9FEF60
:10395000D1CF2A012B813C81232BF1F4288139819D
:103960009F8191FF2EC0232B09F46FC02091A404E6
:103970009A81422F490F5527551FBA0141E050E067
:103980006138710514F050E040E0452B09F45DC04A
:103990002A87920F9093A4048150823008F481C04A
:1039A00066DF882309F4D8C0F3018181813009F4EE
:1039B0008DC008F47BC0823009F4C6C090E080E07E
:1039C000ADC0232B09F441C02091A3049A81E22FBA
:1039D000E90FFF27FF1F41E050E0ED3FF10514F034
:1039E00050E040E0452B89F12A87920F9093A30481
:1039F000D3CFA081B181A20FB31F11966C91060F96
:103A0000111D0196295F3F4F8417950794F38D850B
:103A10009E85089F1001099F300C189F300C1124BF
:103A2000C114D104D1F48F8184FF17C00E94C62530
:103A3000F5E02F0E311C21E08215930508F420E0FB
:103A4000A701435F5F4F21110EC082E090E0F201B9
:103A50009183808387EF9FEF4DCF0E94C6252FEF84
:103A6000221A320AE8CF88819981E80EF91EF701FF
:103A700014830383FFEFCF1ADF0A7A018A818C1542
:103A80001D0409F00CF48CCFE881F981EE0DFF1DC7
:103A9000428150E030E020E010E000E090E080E083
:103AA000B3CFF12CE12CD12CC12CE8CF81E090E0F8
:103AB0009C838B83F1DA882309F480CF81E090E046
:103AC0000E94C91480E40E94D71478CF89899A890A
:103AD000019661F083E090E09C838B8382E090E02C
:103AE0000E94C91480E40E94D11468CF8D819E8108
:103AF0002091290230912A0282179307D1F4609114
:103B00002D0270912E02AE014F5E5F4F80912B020D
:103B100090912C020E944F280097E1F2789422E0C5
:103B200030E0F20131832083892B99F08DEF9FEFF4
:103B3000E1CE89288A288B2869F6029758F6CE01AB
:103B400067DE188A1F86E8CF82E090E09C838B8333
:103B500035CF90E080E0CECE82E090E0F20191831C
:103B6000808385EF9FEFC6CE8F929F92AF92BF92D8
:103B7000CF92DF92EF92FF920F931F93CF93DF9339
:103B8000EA018C01060F171FF8018181833098F03C
:103B900082E090E09983888386EF9FEFDF91CF9159
:103BA0001F910F91FF90EF90DF90CF90BF90AF905B
:103BB0009F908F90089580919F049091A004892BED
:103BC00061F081E090E02091A1043091A204232BC8
:103BD00011F490E080E0892B39F482E090E0998341
:103BE00088838EEF9FEFDACF42DE882309F4E0C0AE
:103BF000F8018181813009F496C0E8F0823099F4AF
:103C00002091A1043091A204E0919F04F091A004BE
:103C100090E080E041E050E02817390709F0BEC08D
:103C20003BDA811117C0789481E090E09983888312
:103C300090E080E0B3CF2091A1043091A204E09104
:103C40009F04F091A00490E080E041E050E028174C
:103C5000390741F481E090E00E94C91480E40E9499
:103C6000D714E1CF63817481672B11F054834383B0
:103C700001967396ECCFE0919F04F091A004E00FC1
:103C8000F11F2381348122303105D9F42189328911
:103C90002F3F3F4FB1F42581368140912902509149
:103CA0002A022417350761F5AF014F5E5F4F60911F
:103CB0002D0270912E0280912B0290912C020E9475
:103CC0004F28EFEFCE1ADE0AEE0AFE0A0D5E1F4FF6
:103CD0004091A1045091A20470E060E0C416D506A2
:103CE000E606F70644F5009731F27894892B09F43B
:103CF0009BCF82E090E0998388838DEF9FEF4ECF3A
:103D0000C114D104E104F104E1F622303105C8F612
:103D1000CF017EDDE0919F04F091A004E00FF11F40
:103D2000108A1786CECF10E000E090E080E0C12C32
:103D3000D12C7601CDCF0097C1F610E000E0812CA8
:103D4000912C540183E0E82EF12C1AC0E0919F04DD
:103D5000F091A004E00FF11F83819481029749F450
:103D6000F482E38282E090E00E94C91480E40E9421
:103D7000D114FFEF8F1A9F0AAF0ABF0A0D5E1F4FC3
:103D80008091A1049091A204B0E0A0E08816990669
:103D9000AA06BB06DCF290E080E0A7CF63817481C5
:103DA0006230710511F4548343830196739634CFC6
:103DB00082E090E09983888385EF9FEFEFCE0097B4
:103DC000B9F48FEFFB0180832091330230913402EC
:103DD00043E1429FC001439F900D1124E0919F0455
:103DE000F091A004E80FF91F8285FB0181830895FB
:103DF0000C94801488E090E0FA019183808390E035
:103E000080E0089510929E0410929D04EFE9F4E082
:103E100086E0DF011D928A95E9F78BE89AE190939D
:103E20009C0480939B04089580919B0490919C0432
:103E300008952F923F924F925F926F927F928F924E
:103E40009F92AF92BF92CF92DF92EF92FF920F9329
:103E50001F93CF93DF93CDB7DEB72F970FB6F894AC
:103E6000DEBF0FBECDBFF894E0919D04F0919E049B
:103E70003196F0939E04E0939D04789440909F04C3
:103E80005090A0044114510409F40CC2E091A10423
:103E9000F091A204EF2B09F405C22D8749875A87B8
:103EA0006B877C8798878F831201B12CA12C10E03F
:103EB00000E08091A1049091A204A816B90618F41C
:103EC0000115110529F1F89480919D0490919E04AB
:103ED000019790939E0480939D047894C8012F9637
:103EE0000FB6F894DEBF0FBECDBFDF91CF911F910B
:103EF0000F91FF90EF90DF90CF90BF90AF909F9089
:103F00008F907F906F905F904F903F902F9008958B
:103F10007101E418F508D10117968C91179781FD6E
:103F200054C013968D919C911497039709F04DC03E
:103F300015968D919C91EF81F8858E179F0709F05A
:103F400044C0B50190E080E07FD48A8320919F0433
:103F50003091A0043D832C833D85332309F44CC06C
:103F60004C815D81452B09F49AC18091A104909107
:103F7000A204A816B90608F092C1C501D7D88823B3
:103F8000E9F06C817D816E0D7F1D7D836C83DB018B
:103F90001F968D919C91892B89F0D12CC12CF12CED
:103FA000E12CAC81BD8112968C9112978E151F0465
:103FB00009F094F450961C921E921F972A81222396
:103FC00021F0B50190E080E041D43FEFA31AB30A9D
:103FD00043E1240E311C6DCFAC81BD81ED91FC918C
:103FE000EC0DFD1D858196810FD7BFEFEB1AFB0A03
:103FF000EDE0CE0ED11CD5CFEC81FD81309709F4D8
:104000004EC18091A1049091A204A816B90608F0AF
:1040100046C1EE0DFF1DFF87EE87C50187D88B8354
:10402000882339F1AE85BF851F968D919C9150975D
:10403000019621E01D964D915C918417950709F03A
:1040400020E02E831982712C10E000E0AE85BF8540
:1040500012968C91781608F45DC0EE85FF858785F1
:1040600090890196658576850E94B738908B878701
:10407000A5CFB1E0BE83E6CF992493946BC08BD6D5
:10408000F6019683858382C0D601ED90FC90B7E05F
:104090006B9EE00CF11C1124F70163817481808117
:1040A0008F3F61F121E030E002C0220F331F8A957B
:1040B000E2F7C901092E000CAA0BBB0BFB014081E2
:1040C00051816281738184239523A623B72321E044
:1040D000892B8A2B8B2B09F420E0D4012C93D70158
:1040E00011968C91F60123853485820F932F911DB3
:1040F000880E991E1486138663949BC0418150E0FC
:10410000C4010E940E39EBCF998206EF1FEFC5C0A4
:104110001982C3C0F981F111A0CFEDE07E9E70013C
:104120001124AE85BF85CD90DC90CE0CDF1C15D45C
:104130009D838C83BB81BB2309F49ECF81E0EE85F8
:10414000FF8527853089232B09F080E0982E88236E
:1041500009F458C0672D8E859F850CD8D601189616
:104160009C938E93179761E070E0C2D4EE85FF8533
:10417000218932892F3F320709F481CFBC01C9015F
:10418000CFD7D60116969C938E931597D601159688
:104190008D919C911697009709F4B6CFEC81FD8123
:1041A0008E0F9F1F1A969C938E931997AE85BF858D
:1041B000ED91FC911197EE0EFF1EF70121853285DE
:1041C000148613861A968C91870DD9018D937110E0
:1041D00016C0EE85FF85878184FF11C049855A8509
:1041E0006B857C85F9014183528363837483F70176
:1041F000838594850496A80FB91F14861386F7014A
:10420000B287A187D60115968D919C911697892B1F
:1042100009F443C0EE85FF8525813681809129020E
:1042200090912A022817390779F019968D909C9061
:10423000612CD60112968C911297681608F424CF3F
:104240001A969C928E921997BE81BB2309F460CF77
:1042500061E070E0F601878190854AD4D601179617
:10426000ED90FC90189715964D915C91E1E0F0E08F
:10427000BA81BB2311F0F0E0E0E00C811D819C01CC
:10428000B501882799278E1B9F0B6AD38C01892B38
:1042900021F0F60185819681B7D57394D7CE0FEFC3
:1042A0001FEF8CCE10E000E00ECE2F923F924F9287
:1042B0005F926F927F928F929F92AF92BF92CF92B6
:1042C000DF92EF92FF920F931F93CF93DF93809132
:1042D0009F049091A00410E000E0892BA9F0C7DAB8
:1042E0000AEF1FEF882381F02090A1043090A204F0
:1042F000C0919F04D091A004D12CC12C10E000E00B
:104300002C143D04A9F47894C801DF91CF911F913A
:104310000F91FF90EF90DF90CF90BF90AF909F9064
:104320008F907F906F905F904F903F902F90089567
:10433000C6010E949618882309F18B819C810397FE
:10434000E9F48F859889892BC9F0B60190E080E067
:104350007BD221E030E0882311F030E020E04424DB
:104360005524421A530AB12CA12C912C812C8A81FC
:104370008815190409F038F4188A1F864FEFC41AFB
:10438000D40A6396BDCFE881F981EA0DFB1D8581D2
:104390009681892BA1F161E070E087819085A8D397
:1043A0003C01DBD28C01E881F981EA0DFB1D81859E
:1043B000928525813681200F311FAC01421B530BA2
:1043C0009A0147815085421B530B70E060E00E94C8
:1043D0001739E881F981EA0DFB1DE780F0844581FA
:1043E00056819301B601C201BBD28C01892B39F0F1
:1043F000E881F981EA0DFB1D8581968105D55FEF86
:10440000851A950A8DE0A80EB11CB1CF30CA7894F8
:1044100008952F923F924F925F926F927F929F9258
:10442000AF92BF92CF92DF92EF92FF920F931F93C2
:10443000CF93DF9300D000D0CDB7DEB700919F04BB
:104440001091A004992493940115110509F43EC01C
:10445000A090A104B090A2040ADA982E8823B1F1AA
:104460001092A00410929F041092A2041092A10432
:104470001092A3041092A4048FEF9FEFDC018093AD
:10448000330290933402A0933502B09336027894AD
:104490007FD31E830D83C12CD12C7601C501B0E0E2
:1044A000A0E089839A83AB83BC8322242A94322C94
:1044B00089819A81AB81BC81C816D906EA06FB06C0
:1044C000F4F0C801A1D480E40E94D714892D269667
:1044D0000FB6F894DEBF0FBECDBFDF91CF911F9115
:1044E0000F91FF90EF90DF90CF90BF90AF909F9093
:1044F0007F906F905F904F903F902F900895AD8187
:10450000BE8115968D919C9116972091290230912C
:104510002A0282179307D1F451968D919C91EED582
:10452000ED81FE8180819181B12CA12C412C512CF7
:104530003201892B89F5BFEFCB1ADB0AEB0AFB0AA4
:10454000ED81FE817396FE83ED83B2CFC114D10459
:10455000E104F10429F7029718F7ED81FE818189C2
:1045600092898F3F980709F029D5AD81BE81529677
:104570003C922E925197D4CF8A0D9B1DDC018D91D8
:104580009C91009709F040D4BFEF4B1A5B0A6B0A6D
:104590007B0AEDE0AE0EB11CAD81BE818D919C9188
:1045A000119712964C9150E070E060E04416550669
:1045B000660677060CF328D4BECFCF93DF93EA01CB
:1045C00028DF811109C082E090E09983888385EF1C
:1045D0009FEFDF91CF91089581E090E00E94C91490
:1045E00081E090E09983888390E080E0F2CF11DF52
:1045F00010929C0410929B04089542E050E063EDF9
:1046000072E00C94E714FF920F931F93CF93DF9304
:104610008A01EC01C60FD71FF980B9D20897F816A6
:10462000190671F068F082E090E0F80191838083D0
:104630008EEF9FEFDF91CF911F910F91FF90089523
:104640006C817D818E819F814B810E947C178111BD
:1046500008C082E090E0F8019183808384EF9FEFAF
:10466000E9CFF9800E9477174F2D50E0BE01685FB7
:104670007F4F0E940E3989810E94E61781E090E009
:10468000F8019183808390E080E0D4CFDF92EF92B5
:10469000FF920F931F93CF93DF938A01EC01C60F14
:1046A000D71F0E9477177C01D98071D2DD2059F085
:1046B000029721E030E0D816190619F010F030E02A
:1046C00020E0232B79F482E090E0F801918380834D
:1046D0008EEF9FEFDF91CF911F910F91FF90EF90A1
:1046E000DF900895EF2841F482E090E0F801918393
:1046F000808384EF9FEFEECFF9800E9477174F2DD4
:1047000050E0BE016E5F7F4F0E940E3989810E948A
:10471000E61781E090E0F8019183808390E080E0EB
:10472000D9CF8DEF92E29093A6048093A5040895CB
:104730008091A5049091A60408950895FC0111822A
:104740001082938382830895DB011D921C92DC0109
:104750001296ED91FC9113977183608313967C936D
:104760006E9312970895FC0180819181DB018D93F6
:104770009C93A081B181109741F08D919C91918380
:104780008083892B11F4F383E2830895FC018081F7
:104790009181DB018D939C93892B11F47383628348
:1047A000718360830895FC01118210829383828358
:1047B0000895CF93DF931F921F92CDB7DEB71A8271
:1047C0001982F894BE016F5F7F4F8CEA94E0CBDFD3
:1047D00089819A81009709F017D389819A81892B61
:1047E00089F7BE016F5F7F4F80EB94E0BCDF89816A
:1047F0009A81009709F008D389819A81892B89F7DA
:1048000078940F900F90DF91CF910895CF93DF931D
:104810001F921F92CDB7DEB71A821982F894BE019B
:104820006F5F7F4F88EA94E09EDF89819A810097CD
:1048300009F0EAD289819A81892B89F778940F90BF
:104840000F90DF91CF91089581E0089590E080E08E
:104850000895EF92FF920F931F93CF93DF931F92D0
:104860001F92CDB7DEB71A8219828091A70407EF95
:104870001FEF8823A1F1F894BE016F5F7F4F80EB9B
:1048800094E071DF789489819A81EE24E394F12C8D
:10489000892B51F4F894BE016F5F7F4F8CEA94E04E
:1048A00062DF7894F12CE12C89819A810EEF1FEF61
:1048B0000097A9F0FC014281538164E070E076D654
:1048C0008C01892B61F0F89469817A81C701880F86
:1048D000991F880F991F84559B4F58DF7894C80102
:1048E0000F900F90DF91CF911F910F91FF90EF905C
:1048F00008950F931F93CF93DF9300D01F92CDB7EE
:10490000DEB71C821B821A8219828091A70407EFEE
:104910001FEF8823C1F0AE014D5F5F4F64E070E090
:10492000CE010196B6D68C01892B69F4E981FA8112
:104930008B819C8193838283F89469817A8188EA50
:1049400094E002DF7894C8010F900F900F900F90C1
:10495000DF91CF911F910F910895BBD704960895D1
:104960008F929F92AF92BF92CF92DF92EF92FF927F
:104970000F931F93CF93DF931F921F92CDB7DEB794
:104980001A821982BC016F5F7F4F6330710598F006
:10499000AA24AA94BA2CC5010F900F90DF91CF9151
:1049A0001F910F91FF90EF90DF90CF90BF90AF904D
:1049B0009F908F9008954115510551F34801590179
:1049C0008A016C01CADF8815990511F7E114F10419
:1049D000F9F28E0D9F1DA816B906D0F28091A7049A
:1049E0008823F1F0F894B501645071099701AE0184
:1049F0004F5F5F4FC8010496E1D65C01892B71F4CB
:104A000089819A81F80193838283C601880F991F57
:104A1000880F991FB80184559B4F96DE7894BBCFC1
:104A200087EFA82EBB24BA94B6CFAF92BF92CF9295
:104A3000DF92EF92FF920F931F93CF93DF931F921A
:104A40001F92CDB7DEB71A821982892B09F047C0B1
:104A50006115710509F443C04115510509F43FC0C2
:104A60002115310509F43BC001151105C1F18091F3
:104A7000A7048823B9F179016A015B01F894BE01AA
:104A80006F5F7F4F88EA94E06EDE789489819A8127
:104A9000009759F1DC0112966D917C91A801049662
:104AA000A6D68C01E981FA81D501ED93FC93828130
:104AB00093810496F601918380834FDFD7018D9314
:104AC0009C93C8010F900F90DF91CF911F910F9190
:104AD000FF90EF90DF90CF90BF90AF9008950FEFD1
:104AE0001FEFEFCF07EF1FEFECCF0EEF1FEFE9CF78
:104AF000CF93DF93EC01672B71F4F4D68C179D07ED
:104B000060F0E7D62496C80FD91FE6D68C0F9D1FFC
:104B1000DF91CF910895E3D6F1CF90E080E0F8CF18
:104B20000F931F93CF93DF932091A70421112BC0E4
:104B30008B01EC018CEA94E001DE80EB94E0FEDD79
:104B400088EA94E0FBDD97D00097C1F4CBD670E003
:104B500060E0CEDF47E352E062E070E081D1009791
:104B600069F48091370290913802CED6B801CE0117
:104B700003D5009719F421E02093A704DF91CF918A
:104B80001F910F91089584EF9FEFF8CFA8C6AAC692
:104B9000CF93DF93AAD6EC01892B11F40ADE36DE1F
:104BA000CE01DF91CF910895CF93DF939ED6EC0194
:104BB000892B09F4FEDDCE01DF91CF91089580911C
:104BC0003702909138020895CF93DF938091A70424
:104BD000D0E0C0E08823D1F09CD6EC01892BB1F461
:104BE000E8DD14DE8091370290913802E7D1E8D2F7
:104BF000EC01892B59F48CEA94E0D5DD80EB94E04C
:104C0000D2DD88EA94E0CFDD1092A704CE01DF91D7
:104C1000CF910895EF92FF920F931F93CF93DF935D
:104C2000EC017A018B010F5F1F4F0E9DA0010F9DBC
:104C3000500D1E9D500D112470E060E00E94173948
:104C400090E080E0F0E0E0E02FEFE816F90639F4BC
:104C5000DF91CF911F910F91FF90EF9008951A82ED
:104C600019822883309711F0D283C1830196FE0107
:104C7000C00FD11FEACFCF92DF92EF92FF920F9336
:104C80001F93CF93DF930FE716E00C7F43E050E0D4
:104C900069E372E08FE392E01CD489E3E82E82E0BE
:104CA000F82E9FE3C92E92E0D92ECEE1D7E0D701AE
:104CB0004D915D917D01F601619171916F011983B3
:104CC00008835D834C835B834A837F836E839B0170
:104CD0002F5F3F4F249FC001259F900D349F900D63
:104CE0001124998788870115110511F0C80192DFF9
:104CF00088859985080F191F2A96FFE3EF16F2E0C1
:104D0000FF06A9F6E6EBF4E086EC91E0DF019C01FA
:104D10001D9221503040E1F71092B5041092B40476
:104D200010923D0710923C071092410710924007E5
:104D300010923F0710923E071092430710924207CD
:104D400010924507109244071092470710924607A9
:104D500010924B0710924A07109249071092480789
:104D600010924D0710924C0710924F0710924E0769
:104D700010921B0710921A0710921D0710921C0721
:104D800090E080E0DF91CF911F910F91FF90EF9025
:104D9000DF90CF9008950097F1F0F894AFE3B2E080
:104DA000EEE1F7E030E020E04D915D9148175907C2
:104DB000A8F0428153814115510581F08AE0829F1C
:104DC000F001839FF00D1124E25EF84F8081918104
:104DD000009759F4789490E080E008952F5F3F4F5A
:104DE0003A962330310501F7F5CFDC0111966D912C
:104DF0007C91718360834150510953834283FC014C
:104E00002193CF0178940895009749F1DC018E91A8
:104E1000853041F4E0911C07F0911D073097F9F0BF
:104E2000CD0119948530D8F4282F30E0F8948FEF15
:104E30008C938AE0829FF001839FF00D1124E25E43
:104E4000F84F8081918112969C938E931197B18334
:104E5000A0838281938101969383828378940895BD
:104E6000CF92DF92EF92FF920F931F93CF93DF9336
:104E70009C0189EB94E08C7F4115510509F49BC09E
:104E80002115310509F497C06115710509F493C026
:104E90007A01AB01B9016D5F7F4F6C7F9B012F5F82
:104EA0003F4F249F8001259F100D349F100D11242A
:104EB000F89420913C0730913D07232B59F4209121
:104EC0004407309145072115310569F12017310755
:104ED00008F058C02091460730914707232B91F4E2
:104EE0002091440730914507820F931F20914E0770
:104EF00030914F072115310509F441C020173107C2
:104F000008F056C07894CFEFDFEF86EF9FEFF70100
:104F1000D183C083DF91CF911F910F91FF90EF90CC
:104F2000DF90CF900895C3E0D0E0C090B404D0905B
:104F3000B50423EC31E02C193D092017310710F39B
:104F40002AE02C9FF0012D9FF00D1124E25EF84F16
:104F5000918380835583448353834283778366831D
:104F600011870087009709F055DE0C0D1D1D109369
:104F7000B5040093B404789490E080E0C8CFC4E016
:104F8000D0E0D3CFC3E0D0E02AE02C9FF0012D9FEA
:104F9000F00D1124E25EF84F9183808355834483A2
:104FA0005383428377836683009729F333DEE3CF0D
:104FB000C4E0D0E0E9CF8FEF9FEFACCF9C01039727
:104FC000029708F069C0F89484E09AE0482F50E016
:104FD000241735070CF44DC091E08AE0829FF00160
:104FE000839FF00D1124E25EF84F1182108215822A
:104FF000148213821282178216829923B1F1809152
:105000003C0790913D07892BA9F4209144073091EA
:1050100045072115310571F08091B4049091B504D4
:10502000821B930B9093B5048093B40410924507B0
:10503000109244078091460790914707892BA9F465
:1050400020914E0730914F072115310571F0809165
:10505000B4049091B504821B930B9093B504809394
:10506000B40410924F0710924E07789490E080E0BD
:105070000895949FF001959FF00D1124E25EF84F82
:1050800040815181452B31F440855185452B11F4E8
:1050900081509CCF90E0A1CF8FEF9FEF08954115F5
:1050A000510549F1009739F16115710521F1F89425
:1050B00020911A0730911B07232BB9F420911C076C
:1050C00030911D07232B89F490931B0780931A07B7
:1050D00070931D0760931C07789425E030E090E002
:1050E00080E0FA0131832083089578942FEF3FEF19
:1050F00086EF9FEFF6CF8FEF9FEF0895059769F446
:10510000F89410921B0710921A0710921D07109224
:105110001C07789490E080E008958FEF9FEF08954A
:105120006115710519F4F0E0E0E011C085309105DA
:1051300081F4E0911A07F0911B073097A1F3CB019E
:1051400001961995009779F3FC0185E08193CF01D1
:1051500008959C01235031092230310520F72AE0BF
:10516000289FD001299FB00D1124A25EB84F2D9128
:105170003C911197232BB9F216962D913C911797DC
:105180002617370780F2F89412962D913C911397C9
:105190002115310529F0ED91FC911197309711F40B
:1051A0007894C1CF4181528111965C934E932150E6
:1051B000310913963C932E93129781937894C7CF1D
:1051C000ECE7F6E08EE9DF011D928A95E9F7E6EB60
:1051D000F4E086EC91E0DF019C011D92215030400B
:1051E000E1F71092B5041092B404EEE1F7E082E327
:1051F000DF011D928A95E9F7EAE1F7E084E0DF013B
:105200001D928A95E9F790E080E00895CF93DF93AF
:10521000C0914502D0914602CF3FDC0759F423D418
:10522000909346028093450297FF09C0D0934602AF
:10523000C093450284EF9FEFDF91CF91089590E0F6
:1052400080E0FACF8230910528F48093500790E0F7
:1052500080E008958FEF9FEF08954F925F926F92D5
:105260007F92AF92BF92CF92DF92EF92FF920F9315
:105270001F93CF93DF931F921F92CDB7DEB71A8291
:105280001982009709F479C06115710509F475C098
:10529000209145023091460207EF1FEF2F3F3F4F0D
:1052A00009F445C06B015C01412C512C3201F12CF9
:1052B000E12C10E000E09E012F5F3F4FA6014E1948
:1052C0005F09B5016E0D7F1D8091450290914602E8
:1052D00029D4892B09F04BC089819A81009741F428
:1052E000E114F10429F420915007222309F442C06B
:1052F000E80EF91EEC14FD04D0F480E8481684E8AA
:1053000058068EE16806710420F560E070E0CB017C
:105310000E94E5322AE0420E511C611C711C0A3FBA
:105320004FEF140721F0043F8FEF1807A1F4C801D5
:105330000F900F90DF91CF911F910F91FF90EF9001
:10534000DF90CF90BF90AF907F906F905F904F9025
:10535000089501EF1FEF81E090E0013F2FEF12076A
:1053600011F090E080E0892B09F4A5CFE0CF04EFA5
:105370001FEFDDCF0AEF1FEFDACF0FEF1FEFD7CF11
:105380004F925F926F927F92AF92BF92CF92DF92D5
:10539000EF92FF920F931F93CF93DF931F921F9271
:1053A000CDB7DEB71A821982009709F479C061156A
:1053B000710509F475C0209145023091460207EF4E
:1053C0001FEF2F3F3F4F09F445C06B015C01412C9B
:1053D000512C3201F12CE12C10E000E09E012F5FF6
:1053E0003F4FA6014E195F09B5016E0D7F1D8091DB
:1053F0004502909146024CD3892B09F04BC089811C
:105400009A81009741F4E114F10429F420915007A6
:10541000222309F442C0E80EF91EEC14FD04D0F476
:1054200080E4481682E458068FE06806710420F58F
:1054300060E070E0CB010E94E5322AE0420E511C90
:10544000611C711C0E3F4FEF140721F0043F8FEFDA
:105450001807A1F4C8010F900F90DF91CF911F9111
:105460000F91FF90EF90DF90CF90BF90AF907F9023
:105470006F905F904F90089502EF1FEF81E090E0F2
:10548000023F2FEF120711F090E080E0892B09F422
:10549000A5CFE0CF04EF1FEFDDCF0EEF1FEFDACF88
:1054A0000FEF1FEFD7CF80914502909146028F3FBB
:1054B000980749F0D0D2892B49F48FEF9FEF909352
:1054C00046028093450290E080E0089584EF9FEFCC
:1054D0000895CF92DF92EF92FF920F931F93CF9395
:1054E000DF9321E04115510509F020E041505109B9
:1054F00021112CC0DC01FB01D12CC12C21E022C0E8
:105500003FEFC31AD30A7D010D911D91E701EA8097
:10551000FB80E016F106A8F420813181E280F3805F
:10552000F182E08233832283ED90FC9011979D01FC
:1055300022503109E901F982E88211961C930E93F9
:1055400020E03296C416D506D8F2D2CFDF91CF91A3
:105550001F910F91FF90EF90DF90CF900895FC0185
:10556000680F791F90E080E0E617F70709F40895C7
:105570002191820F911DF8CF20915107211113C065
:1055800045DE009791F4109257071092560710923B
:10559000550710925407109253071092520721E0BA
:1055A00020935107089584EF9FEF0895AF92BF9223
:1055B000CF92DF92EF92FF920F931F93CF93DF93DF
:1055C000009709F460C04630510508F45CC0209192
:1055D0005107C7EFDFEF222309F449C08C01060F02
:1055E000171FF801C080D180C114D10409F44EC046
:1055F00096012A5F3F4F4217530708F447C07C01CA
:10560000809156079091570793838283B6016C5F10
:105610007F4F5801A60EB71EC801A1DFF501918387
:10562000808364E070E0C80118DEEC01892BF9F496
:1056300081E090E007DEB601C80104960EDEEC01C1
:10564000892B91F462E070E0C50107DEEC01892B43
:1056500059F4C701D9DB80915607909157070196FD
:10566000909357078093560790E080E0EBDDCE01E2
:10567000DF91CF911F910F91FF90EF90DF90CF902E
:10568000BF90AF900895CFEFDFEFF1CFC9EFDFEF1D
:10569000EECF6F927F928F929F92AF92BF92CF92F6
:1056A000DF92EF92FF920F931F93CF93DF9300D07F
:1056B0001F92CDB7DEB7009709F47AC041155105A6
:1056C00009F476C02091510707EF1FEF222309F458
:1056D0004DC03A017B015C0164E070E0CE010196AF
:1056E0004FDE8C01892B09F041C009811A81011517
:1056F000110509F45AC0480186E0880E911CB701D3
:10570000680D791D809147029091480209DD6C0176
:10571000009709F450C0A70170E060E00E941739BB
:1057200089819A81AB81BC81EC0CFD1CF7018193CE
:105730009193A193B1937F0181E090E083DDB80163
:10574000C7011EDE892B31F562E070E0C701800FD2
:10575000911F16DE8C01892BE9F490E080E072DD68
:10576000F501D182C082F30191828082C8010F903D
:105770000F900F900F90DF91CF911F910F91FF909D
:10578000EF90DF90CF90BF90AF909F908F907F90E1
:105790006F90089590E080E055DDF5011182108250
:1057A000F30111821082C6012FDB09EF1FEFDECF5C
:1057B0000FEF1FEFDBCF06EF1FEFD8CF0097A1F061
:1057C0004115510589F02115310571F0F901369621
:1057D0006E177F0748F0DC012D933C93DA01ED93BF
:1057E000FC9390E080E008958FEF9FEF0895AF92D3
:1057F000BF92CF92DF92EF92FF920F931F93CF93BE
:10580000DF93009709F45FC04115510509F45BC0AF
:105810006530710508F457C020915107C7EFDFEFDD
:10582000222391F1DC01CD90DC9011971296ED913D
:10583000FC9196012A5F3F4FC9EFDFEF261737072C
:1058400019F5C0915207D0915307209749F521E0EF
:1058500030E030935307209352077A018C01F09384
:105860005507E09354075601B4E0AB0EB11CB501E7
:1058700076DE0A0D1B1DF801208131818217930706
:1058800029F5D701CD92DC92CE01DF91CF911F9106
:105890000F91FF90EF90DF90CF90BF90AF90089561
:1058A00020915407309155072F5F3F4FCCEFDFEF2A
:1058B000E217F30790F2CBEFDFEF2E173F0768F206
:1058C000D0E0C0E0CACFCFEFDFEFDECFC3EFDFEF36
:1058D000DBCF84E090E0089582E090E008958CEFC3
:1058E0009FEF089580E290E008951092570710927C
:1058F00056071092550710925407109253071092B2
:10590000520790E080E00895909348028093470208
:10591000089580915107882391F0C5DD009789F49F
:10592000109257071092560710925507109254077D
:10593000109253071092520710925107089590E069
:1059400080E00895009749F06115710531F0FC0180
:1059500011821082FB01118210820895F3CF26E09C
:1059600030E040E855E260E070E090E080E000C0A8
:105970008130910571F01CF4892B39F00895823043
:10598000910551F0039759F0089585E697E00C943E
:10599000EA3582E098E0FBCF8FE998E0F8CF8CE31E
:1059A00099E0F5CF1F920F920FB60F9211240BB60C
:1059B0000F922F933F934F935F936F937F938F93A8
:1059C0009F93AF93BF93EF93FF938FE89DEF9093D7
:1059D000250180932401BAD0FF91EF91BF91AF913F
:1059E0009F918F917F916F915F914F913F912F91F7
:1059F0000F900BBE0F900FBE0F901F9018958FE861
:105A00009DEF9093250180932401A3E7B0E08C9152
:105A10008E7F8C93E0E2F1E080818C7F8083E1E2F5
:105A2000F1E08081877E80838081846080838081B3
:105A30008C7F80838C9181608C930895E3E7F0E004
:105A4000808190819E7F90838170089581E0089588
:105A500010925807089568EE73E080E090E0B5D5A5
:105A600090E080E0089526E030E040E050E16EE014
:105A700070E090E080E07CDF85E697E0E1D7892B5D
:105A800021F085E697E0F6D7F7CF90E080E0089523
:105A9000CF92DF92EF92FF920F931F93CF93DF93FA
:105AA0006B017A01E9011982188285E697E0C8D76F
:105AB000892B69F18601CC24C39482E0D82E809191
:105AC0005807811110C085E697E0D4D70297B9F73F
:105AD000C0925807F801D1928F018881998101966F
