:1000000005C100000C946C5A0C94975A0C94C25A77
:100010000C94ED5A0C94185B0C94435B0C946E5B3F
:100020000C94995B24C1000022C1000020C1000093
:100030001EC100001CC100001AC1000018C1000050
:1000400016C1000014C1000012C1000010C1000060
:100050000EC100000CC100000AC100000C94C45B7A
:1000600006C100000C94E35F0C94196000C100000D
:10007000FEC00000FCC00000FAC00000F8C0000094
:10008000F6C00000F4C00000F2C00000F0C00000A4
:100090000C946F600C94A560EAC00000E8C00000FA
:1000A000E6C00000E4C00000E2C00000E0C00000C4
:1000B000DEC00000DCC00000DAC00000D8C00000D4
:1000C000D6C00000D4C000000C94BA540C94FB605D
:1000D0000C943161CCC000000C9487610C94BD611C
:1000E000C6C0000000000A0B02090C0D0E08070331
:1000F00004010000000000000000000000000000FB
:1001000000000000000000000000000000000000EF
:1001100012111000000000000000000000000000AC
:100120000000000000000000000001021020200874
:100130000810204010204080020102010804020142
:1001400001020408102040808040201008040201B1
:10015000800402018040201008040201080402010A
:100160000102040810204080010204081020408091
:1001700005050505070508080808020202020A0A23
:100180000808040404040101010101010101030341
:10019000030303030303040707070C0C0C0C0C0CEC
:1001A0000C0C0202020206060606060606060B0BE9
:1001B0000B0B0B0B0B0B000020002300260029006B
:1001C0002C002F003200000100000301060109018C
:1001D00000002200250028002B002E0031003400F2
:1001E00002010000050108010B01000021002400AC
:1001F00027002A002D003000330001010000040117
:1002000007010A014260CE605A61E66111241FBEF7
:10021000CFEFD1E2DEBFCDBF00E00CBF14E0A0E025
:10022000B2E0E2E7F5EC00E00BBF02C007900D92F0
:10023000A236B107D9F720E2A2E6B4E001C01D92D0
:10024000AE31B207E1F711E0C6E0D1E000E006C050
:1002500021970109802FFE010E948662C230D107DA
:1002600080E00807A9F70E945D560C94B762C8CEDB
:10027000CF93DF93882349F0EB0181500E94CB5C40
:1002800099838883DF91CF910895FB0111821082B9
:10029000F9CF0F931F938B019C0183E0369527952F
:1002A000179507958A95D1F705591B4F462F47702B
:1002B00021E030E0F90102C0EE0FFF1F4A95E2F79E
:1002C000AF01F80120812423CB010196211102C046
:1002D00090E080E01F910F9108950F931F938B0181
:1002E0009C0183E036952795179507958A95D1F758
:1002F000677081E090E001C0880F6A95EAF7F80125
:10030000E559FB4F2081452B31F480958223808372
:100310001F910F910895822BFACFCF92DF92EF9227
:10032000FF92CF93DF936B017C0160E086E3C816F8
:10033000D104E104F10490F486E38C0D0E94285E60
:10034000E6012196AE01C701B601C7DFCE01DF91FC
:10035000CF91FF90EF90DF90CF9008958C2DEECF4E
:10036000882341F08150682F70E090E080E050E0F9
:1003700040E0B3CF0895611102C00C94285E613053
:10038000E1F362E0FACF662319F061E00C94645E59
:1003900060E0FCCF0E94915E21E0019709F020E02F
:1003A000822F0895CF92DF92EF92FF92CF9388230E
:1003B00051F16A017B01CFEFC80F20E030E0A901C5
:1003C000CB01B6010E94645718168CF0C701B60124
:1003D00090580E94D5579B01AC016C2F70E090E0C3
:1003E00080E0CF91FF90EF90DF90CF90B2C0C70137
:1003F000B6010E94D0578C2FCF91FF90EF90DF90E5
:10040000CF900C94EE5CCF91FF90EF90DF90CF9067
:1004100008950F931F938B019C0183E036952795D8
:10042000179507958A95D1F70E591B4F462F4770A0
:1004300021E030E0F90102C0EE0FFF1F4A95E2F71C
:10044000AF01F80120812423CB010196211102C0C4
:1004500090E080E01F910F9108950F931F938B01FF
:100460009C0183E036952795179507958A95D1F7D6
:10047000677081E090E001C0880F6A95EAF7F801A3
:10048000EE59FB4F2081452B31F4809582238083E8
:100490001F910F910895822BFACF2F923F924F9286
:1004A0005F926F927F928F929F92AF92BF92CF9204
:1004B000DF92EF92FF920F931F93CF93DF93D62E8D
:1004C000C72E782E692E49015A01280161E08D2D31
:1004D0000E94285ECD2DDC2D8E010F5F1F4FA801DD
:1004E0006D2D7C2D872D962DB8DF20E030E0A90101
:1004F000C201B7010E945459181664F4C201B70131
:100500000E94D5572B01C501B4010E94D557A20105
:10051000CE0123D0C801DF91CF911F910F91FF90A1
:10052000EF90DF90CF90BF90AF909F908F907F9093
:100530006F905F904F903F902F900895882341F0E7
:100540008150682F70E090E080E050E040E085CF7F
:100550000895862FB9010C94EE5C9C01FC01EC51CE
:10056000FF4FE491E150E231E0F4F0E08827E454F9
:10057000FD4F8F4F0C948662CE02D502D802EF0257
:100580000403D102190325032903400355036A0319
:1005900081039603D102AB03C203D70384B58068FD
:1005A00084BD60E0822F0C94645E84B58062F8CFD5
:1005B000809180008C7F8260809380008091810098
:1005C000807E8061682B6093810050938700409308
:1005D000860080918000806880938000E2CF8091C7
:1005E00080008C7F82608093800080918100807E7B
:1005F0008061682B60938100509387004093860050
:10060000809180008062E8CF809180008C7F826042
:100610008093800080918100807E8061682B609350
:10062000810050938700409386008091800088600D
:10063000D3CF8091B00080688093B0008091B100EA
:10064000887F682B6093B100ACCF8091B00080624E
:10065000F3CF809190008C7F826080939000809196
:100660009100807E8061682B609391005093970089
:10067000409396008091900080688093900091CF85
:10068000809190008C7F8260809390008091910097
:10069000807E8061682B6093910050939700409317
:1006A0009600809190008062E8CF809190008C7FCE
:1006B00082608093900080919100807E8061682BA1
:1006C0006093910050939700409396008091900022
:1006D0008860D3CF8091A0008C7F82608093A0003F
:1006E0008091A100807E8061682B6093A10050936F
:1006F000A7004093A6008091A00080688093A0008E
:1007000050CF8091A0008C7F82608093A000809168
:10071000A100807E8061682B6093A1005093A700A8
:100720004093A6008091A0008062E8CF8091A00055
:100730008C7F82608093A0008091A100807E806188
:10074000682B6093A1005093A7004093A60080916E
:10075000A0008860D3CF809120018C7F826080933D
:10076000200180912101807E8061682B60932101AE
:100770005093270140932601809120018068809347
:1007800020010FCF809120018C7F82608093200117
:1007900080912101807E8061682B609321015093BC
:1007A000270140932601809120018062E8CF80914B
:1007B00020018C7F82608093200180912101807EC6
:1007C0008061682B6093210150932701409326019B
:1007D000809120018860D3CFFC01A781B0858C91E6
:1007E00091858923A481B5819C9140815181628149
:1007F00073812681922359F081110BC04F5F5F4FA7
:100800006F4F7F4F408351836283738308958111BB
:10081000F5CF4150510961097109F4CF85E794E0A2
:10082000DBCF80E894E0D8CF8BE894E0D5CF86E9A1
:1008300094E0D2CFFC01A481B5818C91968189236B
:10084000A781B0859C91408151816281738121850E
:10085000922359F0882359F04F5F5F4F6F4F7F4FBE
:10086000408351836283738308958823A9F34150A1
:10087000510961097109F4CF85E794E0DBCF80E885
:1008800094E0D8CF8BE894E0D5CF86E994E0D2CF3E
:100890000F931F93CF93DF93D82FC62F8A01A09178
:1008A00074048BE0A89FD0011124AB58BB4F1D925C
:1008B0001D921D921C92139781E01A968C931A97A1
:1008C0008D2F90E0FC01E65DFE4FE4911696EC93CF
:1008D0001697FC01E059FE4FE491F0E0EE0FFF1F88
:1008E000EA54FE4F8591949115969C938E9314979C
:1008F000862F90E0FC01E65DFE4FE4911996EC93A3
:100900001997FC01E059FE4FE491F0E0EE0FFF1F54
:10091000EA54FE4F8591949118969C938E93179765
:1009200060E08D2F0E94285E60E08C2F0E94285E80
:1009300080917404813009F43FC0A8F0823009F43A
:1009400062C0833009F486C08091740491E0980FEE
:1009500090937404F801808390E080E0DF91CF9160
:100960001F910F91089580E0D23049F081E0D3309B
:1009700031F08EEE8D0F8430D8F487E18D1B41E08D
:1009800050E06EE074E00E94F25980E0C23049F01D
:1009900081E0C33031F08EEE8C0F843058F487E163
:1009A0008C1B41E050E06CE374E00E94F259CCCF24
:1009B0008FEFE5CF8FEFF5CF80E0D23049F081E0C7
:1009C000D33031F08EEE8D0F8430C8F487E18D1B6B
:1009D00041E050E061E174E00E94F25980E0C230F1
:1009E00049F081E0C33031F08EEE8C0F843048F452
:1009F00087E18C1B41E050E06FE374E0D6CF8FEFCE
:100A0000E7CF8FEFF7CF80E0D23049F081E0D330ED
:100A100031F08EEE8D0F8430C8F487E18D1B41E0FC
:100A200050E064E174E00E94F25980E0C23049F085
:100A300081E0C33031F08EEE8C0F843048F487E1D2
:100A40008C1B41E050E062E474E0AFCF8FEFE7CF62
:100A50008FEFF7CF80E0D23049F081E0D33031F032
:100A60008EEE8D0F8430C8F487E18D1B41E050E09D
:100A700067E174E00E94F25980E0C23049F081E001
:100A8000C33031F08EEE8C0F843048F487E18C1B3C
:100A900041E050E065E474E088CF8FEFE7CF8FEF5F
:100AA000F7CF9BE0899FF0011124EB58FB4F808129
:100AB0009181A281B381FB0180839183A283B3835F
:100AC00090E080E008959BE0899FF0011124EB58AD
:100AD000FB4F108211821282138290E080E0089511
:100AE00090E080E0089590E080E008950F931F93D8
:100AF000009709F48DC06115710509F489C0009152
:100B000078031091790320917A0330917B030E3F93
:100B10001F4F2F4F3F4F09F06CC04FEF5FEFBA01EF
:100B2000409378035093790360937A0370937B0327
:100B3000409178035091790360917A0370917B031F
:100B4000DC011296ED91FC9180819181A281B381AB
:100B50008093570690935806A0935906B0935A066F
:100B600084819581A681B781809353069093540622
:100B7000A0935506B093560680859185A285B385CE
:100B800080934F0690935006A0935106B09352065F
:100B900084859585A685B78580934B0690934C06F2
:100BA000A0934D06B0934E06109247061092480649
:100BB0001092490610924A060E94BC3881EE98E3D2
:100BC0009093A2048093A1049093A4048093A3041F
:100BD0009093A6048093A5040E94AB37009731F44C
:100BE00021E030E030935C0620935B061F910F916B
:100BF0000895009178031091790320917A03309140
:100C00007B03DB010D931D932D933C93139790CFA2
:100C10008FEF9FEFEBCF8F929F92AF92BF92CF92C9
:100C2000DF92EF92FF921F93CF93DF934B015C0112
:100C300010915E0682E090E090935C0680935B06E4
:100C400081149104A104B10441F480915E068111E4
:100C500004C080915D06C1E08111C0E0C12CD12C9F
:100C6000760180915E06811106C080915D0681113A
:100C700002C0CC23D9F083E090E090935C0680938F
:100C80005B06CC2381F1CCE9DFEF111102C00E9499
:100C9000463CCE01DF91CF911F91FF90EF90DF9006
:100CA000CF90BF90AF909F908F9008956AE070E0D2
:100CB00080E090E00E94335C80E1C80E87E2D81E9D
:100CC000E11CF11C8FEF88169806A806B80631F0D3
:100CD000C1E08C149D04AE04BF0408F0C0E080E0C5
:100CE0000E94DF37BECFD0E0C0E0CFCFCF92DF92FF
:100CF000EF92FF920F931F93CF93DF938F3F910556
:100D000011F008F051C020915B0630915C06233051
:100D1000310539F020915B0630915C0621303105B8
:100D200031F424E030E030935C0620935B066A01E6
:100D30007B01EC0183309105A8F011E0AE01C70101
:100D4000B6010E94AA37AB01BC01CE011123F9F014
:100D5000DF91CF911F910F91FF90EF90DF90CF9097
:100D60000C946F3E8C01000F111F0F551B4FD801C3
:100D70008D919C91892B09F30E94793E0297E9F6A7
:100D8000D801ED91FC91CE011995182FD7CF0E9473
:100D9000913E90E080E0DF91CF911F910F91FF9005
:100DA000EF90DF90CF9008958FEF9FEFF4CF80E02A
:100DB0000C94DF37CF93DF9386E090E090935C064E
:100DC00080935B060E943838EC01E1EAF4E086E0AB
:100DD000DF011D928A95E9F70E94DE3B10925C06C6
:100DE00010925B06CE01DF91CF91089580915D0650
:100DF000089580914606089560937803709379036F
:100E000080937A0390937B0390E080E008952F9283
:100E10003F924F925F926F927F928F929F92AF928A
:100E2000BF92CF92DF92EF92FF920F931F93CF93D7
:100E3000DF93CDB7DEB7CB54D1090FB6F894DEBF40
:100E40000FBECDBF26967FAF6EAF269728965FAFB9
:100E50004EAF28973E8B2D8B2C96FFAEEEAE2C9787
:100E6000FB01E150F04CEE0FFF1FEE0FFF1FE80FEC
:100E7000F91F80809180A280B3808F8A988EA98E7E
:100E8000BA8EB501A401442777FD439555276627FF
:100E9000772729964FAF2997F901E150F04CEE0FD3
:100EA000FF1FEE0FFF1F2896AEACBFAC2897EA0DD0
:100EB000FB1DC080D180E280F380CB8EDC8EED8E76
:100EC000FE8EB701A601442777FD43955527662777
:100ED00077272A964FAF2A97188B0F87F80130E0B3
:100EE00020E02C96EEACFFAC2C972E153F050CF4B1
:100EF0003FC022969FAF8EAF22971A8B098B312C61
:100F0000212C812C912C540183948D829E82AF825E
:100F1000B88626968EAC9FAC2697281439047CF1AF
:100F200029969FAC29972A96AFAC2A9730E020E00B
:100F300041E050E060E070E09A10F5C1C55BDF4F22
:100F40000FB6F894DEBF0FBECDBFDF91CF911F91DA
:100F50000F91FF90EF90DF90CF90BF90AF909F9058
:100F60008F907F906F905F904F903F902F9008955B
:100F700011921192119211922F5F3F4FB2CF229690
:100F8000EEADFFAD229781919191A191B191229601
:100F9000FFAFEEAF22978F88988CA98CBA8CB7FEE2
:100FA00023C04D815E816F8178854150510961096F
:100FB00071095A016B01A81AB90ACA0ADB0AD601DB
:100FC000C50121E0CD80DE80EF80F8848C159D0581
:100FD000AE05BF0508F020E0822E912CB12CA12C8B
:100FE0008D829E82AF82B8865D01CC24DD24A8A2CA
:100FF000B9A2CAA2DBA29C01AD01442755272CA3AC
:101000003DA34EA35FA32C96EEADFFAD2C97E21946
:10101000F3098D889E888E169F060CF4F40128969D
:10102000AEACBFAC28972496BFAEAEAE2497C988AD
:10103000DA88DC8ACB8A1E861D86812C912C54018D
:10104000839489869A86AB86BC86812C912C540128
:10105000CD84DE84CE16DF0604F1F7FF02C0F0E097
:10106000E0E0E20DF31D2C96EEACFFAC2C97EE15F4
:10107000FF0554F4EE0FFF1FEE0FFF1FE00FF11FEF
:1010800080829182A282B3822FEF221A320AE989EA
:10109000FA893496FA8BE98B3CCF2496AEADBFAD7E
:1010A0002497CD90DD90ED90FD902496BFAFAEAF2C
:1010B00024972B8D3C8D4D8D5E8D57FF22C08985E9
:1010C0009A85AB85BC850197A109B109AC01BD0129
:1010D0004C195D096E097F096A017B0181E0298550
:1010E0003A854B855C85C216D306E406F50608F002
:1010F00080E0482F50E070E060E049875A876B87B6
:101100007C87B7018827992768A779A78AA79BA713
:10111000EE24FF2428A139A14AA15BA1C701B60191
:101120000E9441622B013C012CA13DA14EA15FA177
:1011300068A579A58AA59BA50E9441626CA77DA799
:101140008EA79FA7AB89BC894D915D916D917D91D3
:10115000BC8BAB8BDB01CA01880D991DAA1DBB1D81
:1011600089839A83AB83BC8391E09F8F29813A81E5
:101170004B815C81281539054A055B0508F01F8EF7
:101180002CA13DA14EA15FA1C701B6010E94416201
:101190006B017C0189809A80AB80BC808C0C9D1C8B
:1011A000AE1CBF1C89829A82AB82BC8252019924F8
:1011B000882488AA99AAAAAABBAA29813A814B8124
:1011C0005C81280D391D4A1D5B1D2CAB3DAB4EAB20
:1011D0005FAB8CA49DA4AEA4BFA454019924882421
:1011E00088AE99AEAAAEBBAE280D391D4A1D5B1D57
:1011F0002CAF3DAF4EAF5FAFAB89BC8914972D9339
:101200003D934D935C93139728A139A14AA15BA10B
:1012100068A579A58AA59BA50E9441629F8C690D4E
:10122000711D811D911D230166247724460E571ED2
:10123000681E791E2CA53DA54EA55FA54A01AA24CE
:10124000BB24840C951CA61CB71C81E090E0A0E098
:10125000B0E049815A816B817C814C155D056E053A
:101260007F0518F080E090E0DC01880D991DAA1D33
:10127000BB1D41E050E060E070E088A899A8AAA8F2
:10128000BBA8CCA8DDA8EEA8FFA8C814D904EA041E
:10129000FB0418F040E050E0BA01840F951FA61F30
:1012A000B71F812C912C54018394C8ACD9ACEAAC03
:1012B000FBAC2CAD3DAD4EAD5FAD2C153D054E05E7
:1012C0005F0518F0812C912C5401880E991EAA1EDE
:1012D000BB1E4D855E854F5F5F4F5E874D87B8CEE5
:1012E000EF85F889C190D190E190F190F88BEF876C
:1012F000DB01CA010197A109B1098C199D09AE0949
:10130000BF09349780839183A283B383E1E084177C
:101310009507A607B70708F0E0E04E2F50E070E011
:1013200060E02F5F3F4F2C968EAC9FAC2C9728151A
:101330003905B4F203CE2F923F924F925F926F9293
:101340007F928F929F92AF92BF92CF92DF92EF9255
:10135000FF920F931F93CF93DF9300D01F92CDB7CF
:10136000DEB78B015C834B83FB01E150F04CEE0F49
:10137000FF1FEE0FFF1FE80FF91F408151816281AF
:10138000738177FD27C04C01B12CA12CC12CD12C2D
:101390007601A016B10664F5F40161917191819115
:1013A00091914F010E9401584B815C810E945A59D2
:1013B0009B01AC01C701B6010E94ED566B017C0197
:1013C0002B813C81205E3F4F3C832B833FEFA31A50
:1013D000B30ADFCF9A838983312C212C81E090E0FE
:1013E000A0E0B0E0C12CD12C760120163106CCF063
:1013F000C701B6010F900F900F900F90DF91CF9122
:101400001F910F91FF90EF90DF90CF90BF90AF9022
:101410009F908F907F906F905F904F903F902F9014
:101420000895E981FA814190519061907190FA8319
:10143000E983409450946094709453014201880E63
:10144000991EAA1EBB1EC501B4010E9401584B8102
:101450005C810E945A599B01AC01C701B6010E94F0
:10146000EC566B017C0181E084149504A604B7045A
:1014700008F080E090E0B0E0A0E02B813C81205EAD
:101480003F4F3C832B833FEF231A330AAECF2F927B
:101490003F924F925F926F927F928F929F92AF9204
:1014A000BF92CF92DF92EF92FF920F931F93CF9351
:1014B000DF93CDB7DEB72E970FB6F894DEBF0FBE21
:1014C000CDBF9E878D873C872B871801FA0125E0C9
:1014D000F695E7952A95E1F7DB01A150B04CAA0FEC
:1014E000BB1FAA0FBB1FA80FB91FCD90DD90ED90B9
:1014F000FC90FF0CCC08DC2C7601E617F7070CF00B
:10150000D5C0DF01A00FB11F9B01A617B7070CF4D0
:101510009D018A010F711127DF01AA0FBB1FAA0FBE
:10152000BB1F01151105F1F40D851E850A0F1B1F48
:101530008B859C8550E040E0BA016E0F7F1F6217DB
:1015400073070CF05DC0D8018D909D90AD90BD905B
:101550008D01DC018D929D92AD92BD92CD014F5FC8
:101560005F4FEACF6D847E846A0E7B1E7C826B8225
:10157000D3014D905D906D907C90AB84BC84BA8219
:10158000A98250E040E0A0E2B0E0CD01801B910BC9
:101590009E838D8353014201002E04C0B694A7940C
:1015A000979487940A94D2F74F5F5F4FDF01A40F9F
:1015B000B51FA217B30784F1D701C6012617370755
:1015C0006CF4220F331F220F331FED85FE852E0F83
:1015D0003F1FF90180819181A281B3810D8004C0F8
:1015E000880F991FAA1FBB1F0A94D2F7882999292F
:1015F000AA29BB29E981FA8180839183A283B383DD
:101600009A01220F331F220F331F6B847C84620EDA
:10161000731E7A8269822EC0DA01AA0FBB1FAA0F3D
:10162000BB1F6B807C80A60DB71D4D905D906D90AB
:101630007C90D301C2010D8004C0880F991FAA1F9E
:10164000BB1F0A94D2F7882A992AAA2ABB2AA98101
:10165000BA818D929D92AD92BD92BA83A9839ACFA1
:10166000E981FA81C192D192E192F192FA83E98300
:101670004F5F5F4F421553059CF32E960FB6F894BB
:10168000DEBF0FBECDBFDF91CF911F910F91FF90B5
:10169000EF90DF90CF90BF90AF909F908F907F9012
:1016A0006F905F904F903F902F90089550E040E0F2
:1016B000A7CF2F923F924F925F926F927F928F921D
:1016C0009F92AF92BF92CF92DF92EF92FF920F93D1
:1016D0001F93CF93DF9300D000D0CDB7DEB7DA01F0
:1016E000E5E0B695A795EA95E1F7FB01E150F04CEE
:1016F000EE0FFF1FEE0FFF1FE80FF91F8080918094
:10170000A280B380BB0C8808982C54013D010A17B5
:101710001B070CF438017901D12CC12CC614D70455
:1017200064F1F30177FE02C0F0E0E0E0A017B1073A
:101730000CF075C04F715527A60FB71FB801A01741
:10174000B1070CF4BD016E1B7F0BDF01AA0FBB1F9D
:10175000AA0FBB1F41155105D1F43D01620E731E46
:1017600050E040E0461757070CF48DC077FF02C0E9
:1017700070E060E0E60FF71F52C0F701119211927E
:10178000119211927F01FFEFCF1ADF0AC7CF1C0120
:1017900029014A0E5B1E5A8249821E821D82C12C7B
:1017A000D12C760180E290E03C01641A750A7C82BB
:1017B0006B82AD81BE81A617B707CCF177FF02C05F
:1017C00070E060E0E60FF71FE017F1070CF072C061
:1017D000DF01AA0FBB1FAA0FBB1FA20FB31F80E21E
:1017E00090E0841B950B04C0F694E794D794C794BB
:1017F0008A95D2F72401350104C0440C551C661C9F
:10180000771C4A95D2F7B301A201C428D52AE6284D
:10181000F72ACD92DD92ED92FC9213973196DF017B
:10182000AA0FBB1FAA0FBB1FA20FB31F40C02601E8
:1018300037010B8004C076946794579447940A94B8
:10184000D2F7D101CD90DD90ED90FD901D01D70133
:10185000C601042E04C0880F991FAA1FBB1F0A943B
:10186000D2F7482A592A6A2A7B2AA981BA814D923D
:101870005D926D927D92BA83A9838D819E8101963E
:101880009E838D8396CFDC01CD90DD90ED90FD9011
:10189000CD01D301CD92DD92ED92FD923D014F5FDE
:1018A0005F4F60CF8D929D92AD92BD923196E017C1
:1018B000F107C4F326960FB6F894DEBF0FBECDBF76
:1018C000DF91CF911F910F91FF90EF90DF90CF901C
:1018D000BF90AF909F908F907F906F905F904F9050
:1018E0003F902F900895FA016193719381939193A2
:1018F000990F660B762FCB0141E050E0421753075A
:101900000CF0089561937193819391934F5F5F4FB2
:10191000F5CF2F923F924F925F926F927F928F926C
:101920009F92AF92BF92CF92DF92EF92FF920F936E
:101930001F93CF93DF9379011B01DA01D0E0C0E060
:1019400040E050E0BA01CE15DF059CF0DF91CF9169
:101950001F910F91FF90EF90DF90CF90BF90AF90CD
:101960009F908F907F906F905F904F903F902F90BF
:101970000895FC0181909190A190B190CF01F10167
:1019800001911191219131911F0124013501401ADA
:10199000510A620A730A93018201041B150B260B7C
:1019A000370B0D931D932D933D9366246394712CF7
:1019B000C12CD12C452B462B472B39F00815190586
:1019C0002A053B0538F4612C05C080169106A20655
:1019D000B306C8F7A301B6012196B5CF8F929F92A7
:1019E000AF92BF92CF92DF92EF92FF92CF93DF93AD
:1019F000F901621773070CF4FB016C017A01B0E086
:101A0000A0E0AE17BF074CF162177307DCF461501A
:101A1000704C660F771F660F771F680F791FDB0109
:101A2000CD90DD90ED90FC90FF0CCC08DC2C760185
:101A3000DF01AA0FBB1FAA0FBB1FA40FB51FE21720
:101A4000F307CCF0DF91CF91FF90EF90DF90CF9034
:101A5000BF90AF909F908F900895E60189909990E4
:101A6000A990B9906E01E70189929992A992B992D1
:101A70007E011196C6CFCD92DD92ED92FD92319608
:101A8000DECF8F929F92AF92BF92CF92DF92EF9272
:101A9000FF920F931F93FB0170E060E0C12CD12CEB
:101AA0007601C394641775075CF01F910F91FF9046
:101AB000EF90DF90CF90BF90AF909F908F90089560
:101AC000DC018D909D90AD90BD90CD019701860178
:101AD0000150110921093109081919092A093B097D
:101AE0000193119321933193A1E00C151D052E054F
:101AF0003F0508F0A0E0CA2ED12CF12CE12C6F5F3D
:101B00007F4FD0CFAB0141505109FC0130E020E0C4
:101B10002417350794F06150704C660F771F660FDD
:101B2000771F680F791F80E090E0A0E0B0E8FB012C
:101B300080839183A283B3830895119211921192AD
:101B400011922F5F3F4FE4CFCF92DF92EF92FF923F
:101B5000AB0141505109FC0130E020E0CC24CA9493
:101B6000DC2C760124173507B4F06150704C660FF9
:101B7000771F660F771F680F791F8FEF9FEFAFEF0B
:101B8000BFE7FB0180839183A283B383FF90EF9033
:101B9000DF90CF900895C192D192E192F1922F5FA0
:101BA0003F4FE0CFCF92DF92EF92FF92FB0130E008
:101BB00020E0C12CD12C7601C3942E173F072CF0C6
:101BC000FF90EF90DF90CF900895DC014D915D91F3
:101BD0006D917D91CD014C0D5D1D6E1D7F1D149786
:101BE0004D935D936D937C931397A1E04C155D0528
:101BF0006E057F0508F0A0E0CA2ED12CF12CE12C57
:101C00002F5F3F4FDACFCF92DF92EF92FF92FC012E
:101C100080E030E020E02617370714F4882329F00D
:101C2000FF90EF90DF90CF900895C190D190E19018
:101C3000F1902F5F3F4F81E0CD28CE28CF2859F774
:101C400080E0E9CF2F923F924F925F926F927F9206
:101C50008F929F92AF92BF92CF92DF92EF92FF92BC
:101C60000F931F93CF93DF93CDB7DEB7A8970FB62F
:101C7000F894DEBF0FBECDBF9EA38DA31B015E8374
:101C80004D833A8329831A8F098FDA8AC98AF90129
:101C9000EE0FFF1FEE0FFF1FE40FF51F49815A8162
:101CA000141615060CF0A0C4B291A29192918291E3
:101CB000892B8A2B8B2B11F1E98DFA8D90E080E036
:101CC0008E159F0514F1F101EE0FFF1FEE0FFF1FA0
:101CD0008DA19EA1E80FF91F1214130404F1ADA108
:101CE000BEA1BA83A983E989FA8930E020E02A15E8
:101CF0003B050CF46AC485E090E04FC029813A812D
:101D0000215031093A832983C9CF1192119211923E
:101D100011920196D5CF91E0291A3108DDCFB29109
:101D2000A29192918291892B8A2B8B2BA1F3E9812D
:101D3000FA812E163F069CF249885A885A864986AF
:101D4000F20190E080E005C011921192119211927F
:101D500001968A159B05C4F3B1E02B163104B1F549
:101D6000EDA1FEA16081718182819381AD81BE81EF
:101D70002D913D914D915C910E946462E98DFA8DA7
:101D80002083318342835383A989BA896D937D93DC
:101D90008D939C93139787E090E0A8960FB6F894E4
:101DA000DEBF0FBECDBFDF91CF911F910F91FF908E
:101DB000EF90DF90CF90BF90AF909F908F907F90EB
:101DC0006F905F904F903F902F900895E981FA8136
:101DD000E150F04CEE0FFF1FEE0FFF1F4D805E80B5
:101DE0004E0E5F1E5C8A4B8AD201CD90DD90ED9045
:101DF000FC90D701C601B695A7959795879501E008
:101E000010E01C830B830097A105B10589F5D10172
:101E1000A150B04CAA0FBB1FAA0FBB1F8DA19EA142
:101E2000A80FB91F4D915D916D917C917695679545
:101E30005795479581E090E0411551056105710581
:101E400011F5A981BA81A215B3051CF14B805C8004
:101E500084159505F0F46DA07EA07A82698230E049
:101E600020E02A153B050CF49DC386E090E095CF59
:101E70002B813C812F5F3F4F3C832B83B695A795E9
:101E800097958795C0CF0196769567955795479515
:101E9000D3CF29813A8121503109388B2F87910185
:101EA00021503109890175E0000F111F7A95E1F782
:101EB000080F191F4F855889A5E0440F551FAA9593
:101EC000E1F76B817C81640F751F7E876D87AB8125
:101ED000BC81A032B10509F498C134964D805E8072
:101EE000E40DF51D70E060E040E250E04A1B5B0B42
:101EF00046015701042E04C0880C991CAA1CBB1C67
:101F00000A94D2F76F5F7F4F69807A8066167706F2
:101F100009F062C1AD81BE818D929D92AD92BC925D
:101F20001397CC24CA94DC2C76012601370104C017
:101F3000440C551C661C771C4A95D2F74D8A5E8A64
:101F40006F8A788E49815A814130510509F066C106
:101F50004D885E886F88788C4D8E5E8E6F8E78A2ED
:101F600069817A81615071094FEF5FE3649F40019D
:101F7000659F900C749F900C11249AA289A21C86D4
:101F80001B86AD84BE84A094B094BCA2ABA2A90170
:101F9000440F551F440F551FADA1BEA1A40FB51F7F
:101FA000B887AF838032910509F440C0CD90DD90B1
:101FB000ED90FC9013974B855C85405E5F4FFA0176
:101FC000E81BF90BFC87EB87FD01A90160E270E0DB
:101FD000681B790B26013701062E04C0440C551CE2
:101FE000661C771C0A94D2F7141615060CF41FC150
:101FF000A90137FF02C050E040E088248A94FFE343
:102000009F2E489DF001499DF00D589DF00D112423
:10201000E20FF31FEE0FFF1FEE0FFF1F8DA19EA11A
:10202000E80FF91F4082518262827382EF81F88546
:1020300080819181A281B381EB89FC8940815181AA
:1020400062817381CD8CDE8CEF8CF8A0C822D922FE
:10205000EA22FB22C416D506E606F70609F067C198
:102060004F80588458A64FA26B887C887C8E6B8EDC
:10207000B2014F8558894115510509F0F1C06D85B0
:102080007E85061B170B8F859889009709F09DC1E7
:10209000E9A1FAA1E20FF31FEE0FFF1FEE0FFF1FE2
:1020A0002DA13EA12E0F3F1FF90180819181A281B8
:1020B000B381ED81FE814081518162817381841BF6
:1020C000950BA60BB70BF90180839183A283B38391
:1020D000F80195E0F695E7959A95E1F7EE0FFF1F69
:1020E000EE0FFF1F698C7A8CE60DF71D0F7111271B
:1020F00041E050E060E070E004C0440F551F661FEF
:10210000771F0A95D2F780819181A281B381842BB8
:10211000952BA62BB72B80839183A283B383EF816A
:10212000F885121413040CF062C280819181A2819F
:10213000B3819101215031093497892B8A2B8B2B44
:1021400009F47FC169807A80261437040CF07BC1C2
:1021500091012150310984E090E06B857C8545E058
:10216000769567954A95E1F74B855C854F715527C4
:10217000FB01EE0FFF1FEE0FFF1F4115510509F484
:1021800097C12DA03EA02E0E3F1ED101CD90DD9017
:10219000ED90FC90B0E0A0E0E0E2F0E02F01441A06
:1021A000550A5A82498246015701042E04C0B6944A
:1021B000A794979487940A94D2F76F5F7F4F1496F1
:1021C000261737070CF0B6C1A985BA858D929D9266
:1021D000AD92BC92139785C1DF011897CD90DD9029
:1021E000ED90FC90260137010B8004C07694679433
:1021F000579447940A94D2F784289528A628B7289C
:10220000B292A2929292829273CE66246A94762CB3
:1022100043016D8A7E8A8F8A988E94CE66246A9452
:10222000762C43016D8E7E8E8F8E98A299CEF29081
:10223000E290D290C29046015701082E04C0B69495
:10224000A794979487940A94D2F784289528A6286F
:10225000B72884829582A682B78241505109BACEAE
:10226000FB017290629052904290BF01415051091F
:10227000EB8DFC8DB290A29092908290FC8FEB8FB0
:10228000CC24CA94DC2C76014115510521F4CD886B
:10229000DE88EF88F88CC420D520E620F720C8140B
:1022A000D904EA04FB0409F4E6CE84149504A604D8
:1022B000B70408F485C0AD84BE84A016B10608F04A
:1022C000A9C1EF81F885A9016C017D01CC0CDD1C51
:1022D000EE1CFF1C141615060CF483C0A90137FF71
:1022E00002C050E040E044244A946FE3562E449DDF
:1022F000F001459DF00D549DF00D1124E20FF31FE8
:10230000EE0FFF1FEE0FFF1F6DA07EA0E60DF71D65
:10231000C082D182E282F3824B855C854F5F5F4F42
:102320005C874B876BA17CA1060F171F0AC048175B
:1023300059076A077B0708F0BECF8D849E84081971
:102340001909F90189819A81E81BF90B3196EE0F81
:10235000FF1FEE0FFF1FADA1BEA1EA0FFB1F4D80B7
:102360005E805C8E4B8E90E080E040E050E0BA01F1
:1023700081909190A190B190AB8DBC8DCD90DD906E
:10238000ED90FD90BC8FAB8F240135014C185D089A
:102390006E087F0873016201C41AD50AE60AF70ABB
:1023A00066246394712C30E020E0452B462B472BAC
:1023B00079F1C814D904EA04FB0478F5612C2DC026
:1023C0004D855E85041B150BBCCFAFA1B8A51D9232
:1023D0001D921D921C92139701971497B8A7AFA353
:1023E00054CEB291A291929182914C015D018824C8
:1023F000B7FC83949924AA24BB24C828D928EA28A6
:10240000FB28C482D582E682F782415051095CCF15
:102410008C149D04AE04BF0488F6A301632F722FB1
:102420009F0124503109D901CD92DD92ED92FC92A9
:102430001397019649805A80841595050CF498CF1E
:1024400047CE19016ECEF101E150F04CEE0FFF1FA7
:10245000EE0FFF1F8DA09EA0E80DF91D4081518158
:1024600062817381769567955795479581E090E0F5
:102470004115510561057105A9F48901B5E0000F09
:10248000111FBA95E1F7AB84BC840A191B09080F28
:10249000191F4D855E850417150708F078CD82E079
:1024A00090E05BCE01967695679557954795E0CF7E
:1024B000ADA1BEA1EA0FFB1F30E020E04191519198
:1024C00061917191A985BA854D935D936D937D93CB
:1024D000BA87A9872F5F3F4F4F845888421653060B
:1024E0006CF7EB81FC81B09709F457CCAD81BE81CC
:1024F000CD90DD90ED90FC901397FD0130E020E051
:1025000040E250E04B805C804419550926013701B8
:10251000042E04C076946794579447940A94D2F793
:102520008F8498882815390524F14082518262826F
:10253000738233CC81010A0F1B1FF801C080D18048
:10254000E280F38026013701098004C0440C551C49
:10255000661C771C0A94D2F784289528A628B728E9
:10256000E985FA8581929192A192B192FA87E987E1
:102570001ACEC480D580E680F780460157010B80D3
:1025800004C0880C991CAA1CBB1C0A94D2F784288E
:102590009528A628B72881929192A192B1922F5F97
:1025A0003F4FB4CFE981FA8181919191A191B1918D
:1025B000FA83E983E985FA8581939193A193B19395
:1025C000FA87E9872F5F3F4F4CCCA981BA814D91A3
:1025D0005D916D917D91BA83A983419351936193EC
:1025E00071932F5F3F4F83CB8FEF9FEFD6CB21149B
:1025F000310409F0ADCDEDA1FEA180819181A281D0
:10260000B381E989FA8980839183A283B38381E0CE
:1026100090E067CF83E090E0A0CD2F923F924F9261
:102620005F926F927F928F929F92AF92BF92CF9262
:10263000DF92EF92FF920F931F93CF93DF93CDB76B
:10264000DEB764970FB6F894DEBF0FBECDBF2A0188
:102650003E832D8338011701DE86CD86B88AAF868A
:102660002AA53BA53A8B298B4CA55DA558874F839E
:10267000AEA5BFA5BC8BAB8BFB01E150F04CEE0FC0
:10268000FF1FEE0FFF1FE80FF91F208131814281EC
:10269000538129833A834B835C83ED81FE81E15032
:1026A000F04CEE0FFF1FEE0FFF1FE40DF51D208114
:1026B00031814281538129873A874B875C87298101
:1026C0003A814B815C8157FF40C0AB01B401D9D93D
:1026D00089859A85AB85BC85B7FF3CC04D815E81FD
:1026E0006F817885C201CDD9AF84B888CD84DE846E
:1026F000710183012B893C894F81588569897A89C9
:10270000C401A0DA97FF48C029813A814B815C81DE
:10271000B101C30157FF27C064960FB6F894DEBF1E
:102720000FBECDBFDF91CF911F910F91FF90EF9022
:10273000DF90CF90BF90AF909F908F907F906F90E1
:102740005F904F903F902F90DDC929893A89A4016D
:1027500045D9BECF2B893C894F8158856D817E81BB
:10276000C2013CD9C1CF64960FB6F894DEBF0FBE4C
:10277000CDBFDF91CF911F910F91FF90EF90DF9030
:10278000CF90BF90AF909F908F907F906F905F9011
:102790004F903F902F90D8C989819A81AB81BC819D
:1027A0008827B7FD83959927AA27BB2749855A858E
:1027B0006B857C85442777FD4395552766277727CA
:1027C000841731F16F8578898D859E851CDA882381
:1027D00019F0B101C301E6D9A101B301C3016496A7
:1027E0000FB6F894DEBF0FBECDBFDF91CF911F9122
:1027F0000F91FF90EF90DF90CF90BF90AF909F90A0
:102800008F907F906F905F904F903F902F9039C93D
:1028100064960FB6F894DEBF0FBECDBFDF91CF91A7
:102820001F910F91FF90EF90DF90CF90BF90AF90EE
:102830009F908F907F906F905F904F903F902F90E0
:1028400008954F925F926F927F928F929F92AF9274
:10285000BF92CF92DF92EF92FF92CF93DF939A01D4
:102860002150304C220F331F220F331FFC01E20F87
:10287000F31F80809180A280B380FB01E20FF31FE1
:10288000C080D180E280F380CC24DD24EE24E0E817
:10289000FE2224013501442455246624E0E87E22EA
:1028A000C414D504E604F70499F52C5F3F4FFC01EE
:1028B000E20FF31FEB01C20FD31F141615068CF0A5
:1028C00090E080E0DF91CF91FF90EF90DF90CF908C
:1028D000BF90AF909F908F907F906F905F904F9040
:1028E000089541505109F290E290D290C290BA916D
:1028F000AA919A918A91C816D906EA06FB06E9F2CE
:102900008C159D05AE05BF0528F481E090E0DACF77
:10291000B7FEFBCF8FEF9FEFD5CF93DF892F809549
:10292000881F8827881F089521E0309107063111FC
:1029300020E0FC01228321E030910806311120E0E3
:10294000FC01238308952F923F926F927F928F9282
:102950009F92AF92BF92CF92DF92EF92FF920F932E
:102960001F93CF93DF9300D000D0CDB7DEB71B010C
:102970003C0189014E835D8320E030E0A901B8016C
:102980008E819D810E946457811125C020E030E036
:10299000A901B101C3010E946457882309F46BC0E7
:1029A00061017301B601C70126960FB6F894DEBF28
:1029B0000FBECDBFDF91CF911F910F91FF90EF9090
:1029C000DF90CF90BF90AF909F908F907F906F904F
:1029D0003F902F900895B101C3010E94A73688232C
:1029E00049F0C0901020D0901120E0901220F0907B
:1029F0001320D8CFB8018E819D810E94A736811106
:102A0000F0CFB101C3010E9462368111EACF20E00C
:102A100030E0A901B101C3010E94645781110BC0CC
:102A200098014E815D8160E070E0CB010E946857A3
:102A30006B017C01B7CFB8018E819D810E94623607
:102A40008823E9F020E030E0A901B8018E819D8162
:102A50000E946457F82EFF1CFF24FF1C20E030E08A
:102A6000A901B101C3010E946457881F8827881FEC
:102A7000F81609F495CF6801EE80FD8093CF980198
:102A80004E815D81B101C3010E9458586B017C01E8
:102A9000BB24B39420E030E0A9010E946457811167
:102AA000B12C20E030E0A901B601C7010E946457B3
:102AB000882309F447C0B8018E819D810E943E5849
:102AC0009B01AC01B8018E819D810E94545918165A
:102AD000CCF598014E815D81B101C3010E94685718
:102AE0004B015C01E894B7F820E030E040E05FE3A0
:102AF000C501B4010E94ED560E943E589B01AC01F5
:102B0000C501B4010E94EC569B01AC015F7729839B
:102B10003A834B835C8320E030E040E054E3C5011E
:102B2000B4010E948E599B01AC01BB24B39469810E
:102B30007A818B819C810E94545918160CF0B12C1B
:102B400081E0B82620E030E0A901BB2031F0B801D7
:102B50008E819D810E948E596BCFB101C3010E946D
:102B60006457B82EBB1CBB24BB1C20E030E0A9017D
:102B7000B8018E819D810E946457881F8827881F15
:102B8000B81609F40FCF98014E815D81B601C701D7
:102B90000E94ED564DCF8091531E8150823060F4DB
:102BA00083E08093531E8091FB05882339F08130A8
:102BB00049F08091FC0503C080E0F3CF81E0809371
:102BC000FA0502C01092FA05E091FA0584E0E89F48
:102BD000F0011124E350FA4F80819181A281B381E9
:102BE0008093F6059093F705A093F805B093F90547
:102BF0008FEF8093FA052091540230915502409155
:102C00005602509157026091D11D7091D21D809152
:102C1000D31D9091D41D0E94ED566093D11D7093E9
:102C2000D21D8093D31D9093D41D20915C023091CE
:102C30005D0240915E0250915F0285DE6093CB1F82
:102C40007093CC1F8093CD1F9093CE1F84E0809310
:102C5000531E6091F6057091F7058091F8059091EB
:102C6000F9050E9401582AE037ED43E25CE30E9437
:102C70008E590E94D557AB01BC0184E090E00C94C2
:102C80007606CF92DF92EF92FF926B017C019F77E5
:102C900020E030E040E859E50E94645787FF2BC0F0
:102CA00020E030E040E05FE3C701B6010E945459E4
:102CB00087FD0EC020E030E040E05FE3C701B601D1
:102CC0000E94ED56FF90EF90DF90CF900C943E580D
:102CD00020E030E040E05FEBC701B6010E945459AC
:102CE000181684F420E030E0A901C701B6010E9463
:102CF0008E596B017C01C701B601FF90EF90DF9008
:102D0000CF90089520E030E040E05FE3C701B601D6
:102D10000E94EC56FF90EF90DF90CF900C945157AB
:102D2000E0919B05F0919C058091771F9091781F11
:102D3000A091791FB0917A1F80839183A283B3837E
:102D40008091971F9091981FA091991FB0919A1F01
:102D500084839583A683B78308952F923F924F92E1
:102D60005F926F927F928F929F92AF92BF92CF921B
:102D7000DF92EF92FF920F931F93CF93DF93CDB724
:102D8000DEB7C255D1090FB6F894DEBF0FBECDBF76
:102D900000911106109112060130110509F098C139
:102DA0006091E2057091E3058091E4059091E5055D
:102DB0006F5F7F4F8F4F9F4F0E9401582091E60514
:102DC0003091E7054091E8055091E9050E948E5940
:102DD00060931D0570931E0580931F059093200539
:102DE000809107068F5F8A3008F06CC180930706D8
:102DF000809108068F5F843108F067C180930806D0
:102E00008091521E8150823008F47AC180E0809314
:102E1000521E8091511E8150823008F473C180E0AF
:102E20008093511E80915C1E8150823008F46CC1E9
:102E300080E080935C1E8091501E8150823008F4A7
:102E400065C180E08093501E80914F1E815082307A
:102E500008F45EC180E080934F1E80914E1E815029
:102E6000823008F457C180E080934E1E80914D1E41
:102E70008150823008F450C180E080934D1E8091D3
:102E80004C1E8150823008F449C180E080934C1E72
:102E900080914B1E8150823008F442C180E08093C3
:102EA0004B1E80914A1E8150823008F43BC180E065
:102EB00080934A1E8091491E8150823008F434C1AB
:102EC00080E08093491E80915A1E8150823008F420
:102ED0002DC180E080935A1E8091481E815082301F
:102EE00008F426C180E08093481E8091471E8150DF
:102EF000823008F41FC180E08093471E8091461EF7
:102F00008150823008F418C180E08093461E809181
:102F1000451E8150823008F411C180E08093451E27
:102F20008091581E8150823008F40AC180E080935D
:102F3000581E8091431E8150823008F403C180E006
:102F40008093431E8091421E8150823008F4FCC061
:102F500080E08093421E8091411E8150823008F4AF
:102F6000F5C080E08093411E0130110509F057C083
:102F7000C090CB1FD090CC1FE090CD1FF090CE1F03
:102F8000C092331FD092341FE092351FF092361F4B
:102F90004090C11D5090C21D6090C31D7090C41D13
:102FA0004092371F5092381F6092391F70923A1F1B
:102FB0008090C51D9090C61DA090C71DB090C81DE3
:102FC00080923B1F90923C1FA0923D1FB0923E1FEB
:102FD0008091551E8111BCC081E08093551E81E017
:102FE00090E0A0E0B0E08093311E9093321EA09359
:102FF000331EB093341E1092BF1F1092C01F109248
:10300000C11F1092C21FC092F91DD092FA1DE0920A
:10301000FB1DF092FC1D8091022080930120E09125
:103020001305F091140580819181019729F0809119
:103030008E05882309F444C180910120882309F476
:10304000F8C08FEF8093391EE0911305F0911405BD
:10305000008111810130110529F080918E058823AE
:1030600009F45CC120E030E040E85FE36091BF1FFD
:103070007091C01F8091C11F9091C21F0E94645720
:10308000811131C110923A1E809111069091120661
:10309000019711F00C94E822C090C71FD090C81F70
:1030A000E090C91FF090CA1F8091561E81110C94A8
:1030B000AA2281E08093561E81E090E0A0E0B0E07B
:1030C0000C94C8221092070693CE1092080698CE50
:1030D0000115110509F094CEE0914D05F0914E05D2
:1030E0000190F081E02D80819181A281B381E091F6
:1030F0001406F091150680839183A283B38380CE5A
:1031000083E085CE83E08CCE83E093CE83E09ACEBD
:1031100083E0A1CE83E0A8CE83E0AFCE83E0B6CE3D
:1031200083E0BDCE83E0C4CE83E0CBCE83E0D2CEBD
:1031300083E0D9CE83E0E0CE83E0E7CE83E0EECE3D
:1031400083E0F5CE83E0FCCE83E003CF83E00ACFBB
:103150002091F91D3091FA1D4091FB1D5091FC1DED
:103160008091311E9091321EA091331EB091341E79
:103170000197A105B105C1F5C701B6010E946457C9
:10318000882309F438CF82E090E0A0E0B0E080939B
:10319000311E9093321EA093331EB093341E80E0F4
:1031A00090E0A0E8BFE38093BF1F9093C01FA0935F
:1031B000C11FB093C21FC092F91DD092FA1DE092B8
:1031C000FB1DF092FC1D8092FD1D9092FE1DA092B1
:1031D000FF1DB092001E4092011E5092021E60928E
:1031E000031E7092041E17CFC701B6010E946457D8
:1031F0008823A9F220E030E0A9016091FD1D7091C3
:10320000FE1D8091FF1D9091001E0E946457811148
:10321000C6CF20E030E0A9016091011E7091021E2E
:103220008091031E9091041E0E9464578111B7CFB4
:10323000D6CE1092391E0130110559F52091640245
:103240003091650240916602509167026091CD1DF8
:103250007091CE1D8091CF1D9091D01D0E94ED5692
:103260006093CD1D7093CE1D8093CF1D9093D01D84
:1032700020916C0230916D0240916E0250916F026C
:1032800062DB6093C71F7093C81F8093C91F909320
:10329000CA1FE0911305F091140580819181019777
:1032A00021F080918E05882381F08091501E882323
:1032B000B9F0833089F481E090E08093501EC4CE51
:1032C0008091391E882309F4B6CFE0911305F0915F
:1032D000140500811181C1CE082E000C990BEDCF91
:1032E00082E090E0EACF8FEF80933A1E0130110523
:1032F000D1F4FF24F39420E030E0A9016091BF1FD6
:103300007091C01F8091C11F9091C21F0E9464578D
:10331000811101C0F12CF0923B1E09C080913A1E30
:10332000882309F4B1CE80918E058111E2CF2091DE
:1033300011063091120680913B1E81110C940D23D1
:103340002130310501F58091700290917102A091B8
:103350007202B091730280934F1F9093501FA093FD
:10336000511FB093521F8091740290917502A091E9
:103370007602B09177028093531F9093541FA093CD
:10338000551FB093561F0130110521F080918E0515
:10339000882371F080914E1E882311F40C94092328
:1033A000833011F00C94042381E090E080934E1E52
:1033B0002130310509F040C0809118029091190226
:1033C000A0911A02B0911B0280933F1F9093401F5F
:1033D000A093411FB093421F80911C0290911D0247
:1033E000A0911E02B0911F028093431F9093441F2F
:1033F000A093451FB093461F809120029091210217
:10340000A0912202B09123028093471F9093481FFE
:10341000A093491FB0934A1F80911002909111020E
:10342000A0911202B091130280934B1F90934C1FF6
:10343000A0934D1FB0934E1FC090E002D090E102C8
:10344000E090E202F090E302A70196016091491D2D
:1034500070914A1D80914B1D90914C1D0E946457A4
:10346000882341F0C092491DD0924A1DE0924B1D25
:10347000F0924C1D6EE370E080E090E00E94490104
:103480009093481D8093471D43E050E0BE01675D67
:103490007F4F0E94380120915C0330915D03A9A504
:1034A000BAA50E948E6223966CAF7DAF8EAF9FAFA0
:1034B000239720911305309114053EAB2DABD90114
:1034C0000D911C910130110521F080918E0588230A
:1034D000A1F0FF24F39420E030E0A9016091BB1F2C
:1034E0007091BC1F8091BD1F9091BE1F0E946457B8
:1034F000811101C0F12CF0923C1E80913C1E209065
:1035000011063090120681110C94422323966CAD63
:103510007DAD8EAD9FAD23970E94015820E030E035
:1035200040E057E30E948E596B017C01C092CF1F8F
:10353000D092D01FE092D11FF092D21F20918C0226
:1035400030918D0240918E0250918F020E94EC5674
:10355000209188023091890240918A0250918B0219
:103560000E94685720918402309185024091860222
:10357000509187020E946857209180023091810209
:1035800040918202509183020E94ED5620917C026C
:1035900030917D0240917E0250917F020E948E59AF
:1035A00060934F1F7093501F8093511F9093521F31
:1035B000A70196016091A0027091A1028091A202E0
:1035C0009091A3020E94EC5620919C0230919D02A2
:1035D00040919E0250919F020E946857209198024C
:1035E0003091990240919A0250919B020E94685733
:1035F0002091940230919502409196025091970249
:103600000E94ED56209190023091910240919202D9
:10361000509193020E948E596093531F7093541FD0
:103620008093551F9093561F0130110521F0809112
:103630008E05882371F080914C1E882311F40C9420
:103640003E23833011F00C94392381E090E0809385
:103650004C1E2A94232809F00CC28090A71F90903A
:10366000A81FA090A91FB090AA1F8092571F9092E8
:10367000581FA092591FB0925A1FC090BF1FD090E0
:10368000C01FE090C11FF090C21F8091541E811195
:103690000C94C32581E08093541E82E090E0A0E06A
:1036A000B0E080932D1E90932E1EA0932F1EB093FA
:1036B000301E1092A31F1092A41F1092A51F1092EB
:1036C000A61F8092F51D9092F61DA092F71DB09254
:1036D000F81D8090251E9090261EA090271EB09069
:1036E000281EC501B4010E94035869AB7AAB8BABAD
:1036F0009CAB2091FC023091FD024091FE02509162
:10370000FF020E94645787FD02C00C943C26B7FE5E
:1037100002C00C943C264090F4025090F502609058
:10372000F6027090F70220E030E040E85FE360913D
:10373000F8027091F9028091FA029091FB020E94C6
:10374000EC569B01AC0169A97AA98BA99CA90E949E
:10375000545987FF02C00C9441261092251E1092E6
:10376000261E1092271E1092281EEDA9FEA9A080E9
:10377000B180F1E0AF16B10421F080918E0588236D
:10378000A1F011E020E030E040E85FE36091C31F6A
:103790007091C41F8091C51F9091C61F0E946457ED
:1037A000811101C010E010933D1E80913D1E8111DA
:1037B0000C9459262091040330910503409106038F
:1037C00050910703C701B6010E948E59AA94AB28F5
:1037D00021F020918E05222371F02091521E222388
:1037E00011F40C945526233011F00C94502621E04E
:1037F00030E02093521E45DA6B017C01C092CF1F4E
:10380000D092D01FE092D11FF092D21F20E030E082
:1038100040E853E40E9464576FEF87FF0EC020E03A
:1038200030E0A901C701B6010E94545960E087FD4C
:1038300004C0C701B6010E94D5578BE20E94C301A4
:10384000E0911305F09114050081118101301105FB
:1038500021F080918E058823A9F0FF24F39420E0C5
:1038600030E040E85FE36091BF1F7091C01F80911E
:10387000C11F9091C21F0E946457811101C0F12C99
:10388000F0923E1E80913E1E81110C948426609120
:1038900074037091750380917603909177030130E2
:1038A000110521F020918E05222371F020915C1EDC
:1038B000222311F40C948026233011F00C947B26E3
:1038C00021E030E020935C1EDCD96B017C01C092CA
:1038D000CF1FD092D01FE092D11FF092D21F20E0D4
:1038E00030E040E853E40E9464576FEF87FF0EC05A
:1038F00020E030E0A901C701B6010E94545960E000
:1039000087FD04C0C701B6010E94D5578AE20E9414
:10391000C30165E070E080E090E00E9409028C0144
:103920009093C01D8093BF1DC0900803D0900903E1
:10393000E0900A03F0900B0320E030E04FE753E4FF
:10394000C701B6010E946457181614F40C94A826F7
:1039500020E030E0A901C701B6010E94545987FF59
:1039600002C00C94B026B701A601C8010E94D20182
:103970001092231F1092241F1092251F1092261FB1
:103980001092271F1092281F1092291F10922A1F91
:103990008091380290913902A0913A02B0913B0295
:1039A000898B9A8BAB8BBC8B8091151E9091161EC8
:1039B000A091171EB091181E89879A87AB87BC8784
:1039C00032E0E32EF12C03E21FE121E030E0AE0112
:1039D000475F5F4F61E070E0CE0141960E940707AC
:1039E000C090531FD090541FE090551FF090561F69
:1039F00050E040E062E070E0C8010E949B0920E0D6
:103A000030E040E05FE20E948E599B01AC01C701AB
:103A1000B6010E94EC5669AB7AAB8BAB9CAB9B01B9
:103A2000AC01609108027091090280910A029091A4
:103A30000B020E948E5960935B1F70935C1F8093F2
:103A40005D1F90935E1F29A93AA94BA95CA96091BB
:103A500000027091010280910202909103020E9483
:103A60008E5960935F1F7093601F8093611F9093C6
:103A7000621FE0911406F0911506C080D180E280AB
:103A8000F380C092CF1FD092D01FE092D11FF0924E
:103A9000D21F4090D51D5090D61D6090D71D7090BC
:103AA000D81D8090DD1D9090DE1DA090DF1DB09090
:103AB000E01DA3019201C701B6010E9464571816C8
:103AC00014F40C94B526A5019401C701B6010E9417
:103AD0006457181614F40C94B5261092D31F109244
:103AE000D41F1092D51F1092D61F20915B1F3091CA
:103AF0005C1F40915D1F50915E1F60915D1E709133
:103B00005E1E80915F1E9091601E0E94ED56209176
:103B1000D31F3091D41F4091D51F5091D61F0E94C2
:103B2000ED566B017C01C092631FD092641FE0923E
:103B3000651FF092661F8090100390901103A09073
:103B40001203B0901303A50194010E945459181652
:103B500014F00C940F278092671F9092681FA09218
:103B6000691FB0926A1F20910C0230910D024091A2
:103B70000E0250910F0260E070E08FE793E40E9424
:103B800068572091671F3091681F4091691F5091BD
:103B90006A1F0E948E590E943E586093D31F7093F3
:103BA000D41F8093D51F9093D61F0E94A7368823D9
:103BB00011F40C942B271092D31F1092D41F109243
:103BC000D51F1092D61FC090D31FD090D41FE09065
:103BD000D51FF090D61F20E030E0A901C701B60143
:103BE0000E94645787FD02C00C945027C701B6019C
:103BF00090580E94D55761956093FF1F70E090E048
:103C000080E00E94015860936B1F70936C1F80933B
:103C10006D1F90936E1FC090C002D090C102E090C3
:103C2000C202F090C302A701960160913C1D709101
:103C30003D1D80913E1D90913F1D0E946457882339
:103C400041F0C0923C1DD0923D1DE0923E1DF0928D
:103C50003F1D80913B1D811110923B1DBE01675E8F
:103C60007F4F8091401D0E945105809111069091D7
:103C70001206019709F095C0898D9A8DAB8DBC8D88
:103C80008FAB98AFA9AFBAAF80913002909131025B
:103C9000A0913202B0913302898B9A8BAB8BBC8B93
:103CA00080911D1E90911E1EA0911F1EB091201E7E
:103CB0002FA938AD49AD5AAD281B390B4A0B5B0B08
:103CC000DA01C90189879A87AB87BC8792E0E92E20
:103CD000F12C03E11FE121E030E0AE01475F5F4FCF
:103CE00061E070E0CE0141960E94070724E0E22ED9
:103CF000F12C07E61EE122E030E043E15FE162E003
:103D000070E084E493E00E94070710926F1F109206
:103D1000701F1092711F1092721F80916B1F9091F3
:103D20006C1FA0916D1FB0916E1F8093731F9093B5
:103D3000741FA093751FB093761F89E190E0A0E0F7
:103D4000B0E089839A83AB83BC831D821E821F826D
:103D5000188607EA1EE122E030E048EC53E062E01A
:103D600070E083E19FE10E94070704E010E027E98B
:103D70003EE14FE150E064E070E087EA9EE10E949E
:103D8000470A8091971E9091981EA091991EB0911C
:103D90009A1E8093F71F9093F81FA093F91FB0937A
:103DA000FA1F63E070E080E090E00E9409028C015D
:103DB0009093A01D80939F1D6091FF1F70E090E085
:103DC00080E00E940158AB01BC01C8010E94D201F1
:103DD0008091110690911206019709F097C029A9C8
:103DE0003AA94BA95CA960910402709105028091E7
:103DF0000602909107020E948E596093771F70937C
:103E0000781F8093791F90937A1F10922B1F109226
:103E10002C1F10922D1F10922E1F10922F1F1092E8
:103E2000301F1092311F1092321F809138029091F2
:103E30003902A0913A02B0913B02898B9A8BAB8BED
:103E4000BC8B8091191E90911A1EA0911B1EB091DF
:103E50001C1E89879A87AB87BC8782E0E82EF12CED
:103E60000BE21FE121E030E0AE01475F5F4F61E010
:103E700070E0CE0141960E940707C0904F1FD0907E
:103E8000501FE090511FF090521F50E040E062E060
:103E900070E0C8010E949B0920E030E040E05FE252
:103EA0000E948E599B01AC01C701B6010E94EC56DD
:103EB00069AB7AAB8BAB9CAB9B01AC016091080208
:103EC0007091090280910A0290910B020E948E5912
:103ED00060937B1F70937C1F80937D1F90937E1F48
:103EE00029A93AA94BA95CA960910002709101022D
:103EF00080910202909103020E948E5960937F1F6D
:103F00007093801F8093811F9093821F4090E51DC6
:103F10005090E61D6090E71D7090E81DC090CF1F87
:103F2000D090D01FE090D11FF090D21F8090ED1D57
:103F30009090EE1DA090EF1DB090F01DA70196018E
:103F4000C301B2010E94545987FDB0C7A501940175
:103F5000C701B6010E94645718160CF4A7C7109247
:103F6000CF1F1092D01F1092D11F1092D21F2091FC
:103F70007B1F30917C1F40917D1F50917E1F60916F
:103F8000611E7091621E8091631E9091641E0E945A
:103F9000ED562091CF1F3091D01F4091D11F5091ED
:103FA000D21F0E94ED566B017C01C092831FD092FC
:103FB000841FE092851FF092861F80901C039090D2
:103FC0001D03A0901E03B0901F03A50194010E9441
:103FD000545918160CF0C2C78092871F9092881F00
:103FE000A092891FB0928A1F20910C0230910D027D
:103FF00040910E0250910F0260E070E08FE793E471
:104000000E9468572091871F3091881F4091891F17
:1040100050918A1F0E948E590E943E586093CF1F74
:104020007093D01F8093D11F9093D21F0E94A73608
:10403000882309F4ACC71092CF1F1092D01F1092A2
:10404000D11F1092D21FC090CF1FD090D01FE090F0
:10405000D11FF090D21F20E030E0A901C701B601C6
:104060000E94645787FFB6C7C701B60190580E94E7
:10407000D55761956093002070E090E080E00E9449
:10408000015860938B1F70938C1F80938D1F9093AA
:104090008E1FC090C402D090C502E090C602F0907E
:1040A000C702A70196016091301D7091311D80916A
:1040B000321D9091331D0E946457882341F0C092B5
:1040C000301DD092311DE092321DF092331D80914F
:1040D0002F1D811110922F1DBE01675E7F4F8091B1
:1040E000341D0E945105809111069091120601978E
:1040F00009F09AC0898D9A8DAB8DBC8D8BAF9CAF2A
:10410000ADAFBEAF8091300290913102A0913202EA
:10411000B0913302898B9A8BAB8BBC8B8091211E23
:104120009091221EA091231EB091241E2BAD3CAD78
:104130004DAD5EAD281B390B4A0B5B0BDA01C90193
:1041400089879A87AB87BC8712E0E12EF12C8E011C
:104150000F5F1F4F21E030E0AE01475F5F4F61E02E
:1041600070E0CE0141960E94070788E0F801ABE1BC
:10417000BFE101900D928A95E1F704E0E02EF12C69
:1041800007EA1EE122E030E04BE15FE162E070E02F
:104190008CE493E00E94070780E1F801A7E7BEE105
:1041A00001900D928A95E1F710928F1F1092901F47
:1041B0001092911F1092921F80918B1F90918C1FD3
:1041C000A0918D1FB0918E1F8093931F9093941F89
:1041D000A093951FB093961F07EC1EE122E030E0FC
:1041E00048EC53E062E070E08BE19FE10E9407073A
:1041F00004E010E027EB3EE14FE150E064E070E0C6
:1042000087EC9EE10E94470A8091B71E9091B81EEC
:10421000A091B91EB091BA1E8093FB1F9093FC1F12
:10422000A093FD1FB093FE1F6BE070E080E090E074
:104230000E9409028C019093981D8093971D6091B4
:10424000002070E090E080E00E940158AB01BC01CA
:10425000C8010E94D2018091110690911206019727
:1042600009F045C029A93AA94BA95CA960910402AB
:104270007091050280910602909107020E948E596A
:104280006093971F7093981F8093991F90939A1F24
:10429000C0904402D0904502E0904602F090470260
:1042A000A70196016091551D7091561D8091571D73
:1042B0009091581D0E946457882341F0C092551D6B
:1042C000D092561DE092571DF092581D67E370E0A2
:1042D00080E090E00E9449019093541D8093531D0B
:1042E00043E050E0BE016F5D7F4F0E94380169E0FE
:1042F00070E080E090E00E9409028C019093B81D6C
:104300008093B71D23966CAD7DAD8EAD9FAD239789
:104310000E94015820E030E040E057E30E948E59AF
:104320006B017C0120E030E04FE753E40E946457CA
:1043300018160CF454C6C092CF1FD092D01FE09232
:10434000D11FF092D21F4091CF1F5091D01F60918A
:10435000D11F7091D21FC8010E94D2016AE070E0A3
:1043600080E090E00E9409028C019093B01D809340
:10437000AF1D20E030E04FE753E4C701B6010E94D3
:10438000645718160CF438C6C092CF1FD092D01FB5
:10439000E092D11FF092D21F4091CF1F5091D01FB9
:1043A0006091D11F7091D21FC8010E94D20164E0B8
:1043B00070E080E090E00E9409028C019093A81DBB
:1043C0008093A71D20E030E04FE753E4C701B6011A
:1043D0000E946457181634F4C12CD12CBFE7EB2E81
:1043E000B3E4FB2EB701A601C8010E94D20180915F
:1043F000110690911206019709F07CC6C090291E03
:10440000D0902A1EE0902B1EF0902C1EC701B60102
:104410000E9403582B013C0120913003309131035D
:1044200040913203509133030E94645787FFF1C5D6
:10443000F7FCEFC58090280390902903A0902A03F1
:10444000B0902B0320E030E040E85FE360912C0364
:1044500070912D0380912E0390912F030E94EC56B2
:104460009B01AC01C301B2010E94545987FDD5C51F
:104470001092291E10922A1E10922B1E10922C1E92
:10448000E0911305F09114050081118101301105AF
:1044900031F080918E05882311F40C94F72CC09094
:1044A000A31FD090A41FE090A51FF090A61F20E0AE
:1044B00030E0A901C701B6010E946457882311F4B6
:1044C0000C94CA2C20E030E040E85FE3C701B6015D
:1044D0000E946457882311F40C947C2C20E030E077
:1044E00040E050E4C701B6010E9464578111A3C5A2
:1044F00082E080933F1E8091240390912503A09138
:104500002603B091270380939B1F90939C1FA09339
:104510009D1FB0939E1F80939F1F9093A01FA093F9
:10452000A11FB093A21F0130110529F080918E05C3
:10453000882309F483C58091571E882311F40C94B5
:104540003F2D833011F00C943A2D81E090E0809360
:10455000571E74C52091051E3091061E4091071EFE
:104560005091081E8091351E9091361EA091371EE5
:10457000B091381E0197A105B10599F4C701B601A4
:104580000E9464578823A1F082E090E0A0E0B0E0B0
:104590008093351E9093361EA093371EB093381E1D
:1045A00007C0C701B6010E94645781110C945C18C2
:1045B000C092C31FD092C41FE092C51FF092C61FC5
:1045C000C092051ED092061EE092071EF092081EB1
:1045D0000130110531F080918E05882311F40C947F
:1045E000931980914F1E882361F0833031F481E06C
:1045F00090E080934F1E0C947619082E000C990BB6
:10460000F8CF82E090E0F5CF082E000C990B0C94C7
:10461000D61982E090E00C94D6198091C31F909136
:10462000C41FA091C51FB091C61F8093BB1F90935C
:10463000BC1FA093BD1FB093BE1F0130110531F008
:1046400080918E05882311F40C94D81980914D1E09
:10465000882361F0833031F481E090E080934D1E37
:104660000C94D819082E000C990BF8CF82E090E03A
:10467000F5CF082E000C990B0C94271B82E090E0DC
:104680000C94271BB1E02B16310409F0D2C0013085
:10469000110529F080918E05882309F4D0C020E00F
:1046A00030E040E251E460913F1F7091401F8091E3
:1046B000411F9091421F0E94545918160CF0E6C1F8
:1046C0004090431F5090441F6090451F7090461FBC
:1046D00020E030E040E251E4C301B2010E9464579F
:1046E000C090471FD090481FE090491FF0904A1F8C
:1046F00020E030E040E251E487FF34C1C701B60159
:104700000E9464578090140290901502A0901602A7
:10471000B090170287FFAEC0A7019601C301B20196
:104720000E94EC56209124023091250240912602ED
:10473000509127020E948E596B017C01C092CF1FBD
:10474000D092D01FE092D11FF092D21F4090A402CD
:104750005090A5026090A6027090A702AC019B0148
:10476000C301B2010E94EC56A50194010E948E592A
:1047700060934F1F7093501F8093511F9093521F4F
:10478000A3019201C701B6010E94ED56A501940153
:104790000E948E596093531F7093541F8093551F2E
:1047A0009093561F80914B1E882309F460C083307C
:1047B00009F059C081E090E080934B1E0130110553
:1047C00021F080918E05882361F08091481E882316
:1047D00009F459C1833009F052C181E090E080931F
:1047E000481EEDA9FEA90081118120E030E040E2E1
:1047F00051E460914B1F70914C1F80914D1F90911F
:104800004E1F0E94545918160CF068C10130110552
:1048100021F080918E05882391F08091471E882396
:1048200009F459C1833009F052C181E090E08093CE
:10483000471EADA9BEA98D919C91019731F0809141
:104840008E05882311F40C94291B8091451E882322
:1048500009F496C1833009F08FC181E090E0809324
:10486000451E0C94291B082E000C990BA5CF82E045
:1048700090E0A2CFA30192016091A8027091A902D9
:104880008091AA029091AB020E94EC566093AB1FFC
:104890007093AC1F8093AD1F9093AE1F20912402A4
:1048A0003091250240912602509127020E948E5994
:1048B0006B017C01C092AF1FD092B01FE092B11F7C
:1048C000F092B21F4090AC025090AD026090AE02E8
:1048D0007090AF02AC019B01C301B2010E94EC5683
:1048E000A50194010E948E596093531F7093541F29
:1048F0008093551F9093561FA3019201C701B601E3
:104900000E94ED569B01AC012093B31F3093B41F5E
:104910004093B51F5093B61FC501B4010E948E5934
:104920006093B71F7093B81F8093B91F9093BA1FFD
:1049300060934F1F7093501F8093511F9093521F8D
:1049400080914A1E882359F0833029F481E090E059
:1049500080934A1E33CF082E000C990BF9CF82E0CA
:1049600090E0F6CFC701B6010E94645787FF66C08A
:10497000A70196016091B4027091B5028091B602D0
:104980009091B7020E94EC562091240230912502AA
:1049900040912602509127020E948E596B017C01A2
:1049A000C092CF1FD092D01FE092D11FF092D21FA1
:1049B0004090B0025090B1026090B2027090B30289
:1049C0008090140290901502A0901602B0901702E9
:1049D000AC019B01C301B2010E94EC56A5019401F8
:1049E0000E948E5960934F1F7093501F8093511FE8
:1049F0009093521FA3019201C701B6010E94ED5688
:104A0000A50194010E948E596093531F7093541F07
:104A10008093551F9093561F8091491E882359F00B
:104A2000833029F481E090E08093491EC7CE082EA0
:104A3000000C990BF9CF82E090E0F6CF80916803EB
:104A400090916903A0916A03B0916B0380934F1F0B
:104A50009093501FA093511FB093521F80916C03ED
:104A600090916D03A0916E03B0916F038093531FDB
:104A70009093541FA093551FB093561F9FCE082E9E
:104A8000000C990BACCE82E090E0A9CE809160033F
:104A900090916103A0916203B091630380934F1FD3
:104AA0009093501FA093511FB093521F80916403A5
:104AB00090916503A0916603B09167038093531FA3
:104AC0009093541FA093551FB093561F8ACE082E63
:104AD000000C990BACCE82E090E0A9CE2091B802F8
:104AE0003091B9024091BA025091BB0260914F1FC0
:104AF0007091501F8091511F9091521F0E948E59AA
:104B000060934F1F7093501F8093511F9093521FBB
:104B10002091BC023091BD024091BE025091BF0273
:104B20006091531F7091541F8091551F9091561F93
:104B30000E948E596093531F7093541F8093551F8A
:104B40009093561F0130110529F080918E0588231E
:104B500009F475CE8091461E882359F0833029F4DC
:104B600081E090E08093461E64CE082E000C990BE5
:104B7000F9CF82E090E0F6CF082E000C990B6FCEB3
:104B800082E090E06CCE2091F51D3091F61D4091B1
:104B9000F71D5091F81D80912D1E90912E1EA09111
:104BA0002F1EB091301E81309105A105B105B1F0E5
:104BB0000297A105B10599F1C501B4010E9464579E
:104BC000882341F120E030E040E85FE3C701B6010F
:104BD0000E94645781111EC00C944D1BC501B40185
:104BE0000E9464578823D1F120E030E040E85FE381
:104BF000C701B6010E946457811130C083E090E084
:104C0000A0E0B0E080932D1E90932E1EA0932F1E47
:104C1000B093301E80E090E0A0E0B0E423C0C50176
:104C2000B4010E946457882311F40C94591B20E0AE
:104C300030E040E85FE3C701B6010E94645781118C
:104C40000C94591B81E090E0A0E0B0E080932D1E11
:104C500090932E1EA0932F1EB093301E80E090E004
:104C6000A0E8BFE38093A31F9093A41FA093A51F68
:104C7000B093A61F0C94611B412C512C32010C9453
:104C8000931BD501C4010196A11DB11D8093251E62
:104C90009093261EA093271EB093281E0C94B51B3C
:104CA000022E000C330B0C94F91B22E030E00C9424
:104CB000F91BA7019601C301B2010E948E59AA9463
:104CC000AB2831F020918E05222311F40C94FB1BAC
:104CD0002091511E222361F0233031F421E030E095
:104CE0002093511E0C94FB1B022E000C330BF8CFAB
:104CF00022E030E0F5CF022E000C330B0C94621C46
:104D000022E030E00C94621C60917003709171039A
:104D100080917203909173030130110531F020915D
:104D20008E05222311F40C94641C20915B1E222317
:104D300061F0233031F421E030E020935B1E0C94CD
:104D4000641C022E000C330BF8CF22E030E0F5CFCC
:104D5000C12CD12C4FE7E42E43E4F42E0C94B31C69
:104D6000C12CD12C76010C94B31C4092D31F5092CD
:104D7000D41F6092D51F7092D61FA5019401C30164
:104D8000B2010E94645787FF3FC0A5019401C7018B
:104D9000B6010E94545918160CF03EC08092D31FE1
:104DA0009092D41FA092D51FB092D61FE1EEFDE1E4
:104DB000208131814281538160915F1F7091601F1A
:104DC0008091611F9091621F0E94EC564B015C0123
:104DD0002091D31F3091D41F4091D51F5091D61FE1
:104DE000C701B6010E94EC569B01AC01C501B4019C
:104DF0000E9468576093D31F7093D41F8093D51F70
:104E00009093D61F0C94751DA3019201C701B601A2
:104E10000E946457181614F6E9EDFDE1C9CF8090A1
:104E2000140390901503A0901603B0901703A501EA
:104E30009401C701B6010E94645787FF02C00C9419
:104E4000AB1DC092671FD092681FE092691FF0925D
:104E50006A1F0C94B31D6091D31F7091D41F809171
:104E6000D51F9091D61F0E94623681110C94DB1DD4
:104E70006091D31F7091D41F8091D51F9091D61F40
:104E800020E030E040E853E40E9458586093D31F7C
:104E90007093D41F8093D51F9093D61F0C94E31D5D
:104EA000C701B6010E94D5570C94FC1D4092D31F38
:104EB0005092D41F6092D51F7092D61FA501940105
:104EC000C301B2010E94645787FF3DC0A501940150
:104ED000C701B6010E9454591816ECF58092D31FF1
:104EE0009092D41FA092D51FB092D61FE1EFFDE1A2
:104EF000208131814281538160917F1F7091801F99
:104F00008091811F9091821F0E94EC564B015C01A1
:104F10002091D31F3091D41F4091D51F5091D61F9F
:104F2000C701B6010E94EC569B01AC01C501B4015A
:104F30000E9468576093CF1F7093D01F8093D11F3A
:104F40009093D21F14C8A7019601C301B2010E9419
:104F5000545987FFC3CFE9EEFDE1CACF809020030B
:104F600090902103A0902203B0902303A501940107
:104F7000C701B6010E94645787FD2EC8C092871FE3
:104F8000D092881FE092891FF0928A1F2DC86091ED
:104F9000CF1F7091D01F8091D11F9091D21F0E947E
:104FA0006236811148C86091CF1F7091D01F8091E7
:104FB000D11F9091D21F20E030E040E853E40E94DE
:104FC00058586093CF1F7093D01F8093D11F909338
:104FD000D21F39C8C701B6010E94D5574BC880E01F
:104FE00090E0AFE7B3E48093CF1F9093D01FA093DE
:104FF000D11FB093D21FA7C980E090E0AFE7B3E420
:105000008093CF1F9093D01FA093D11FB093D21F36
:10501000C3C9812C912C540115CA3FEFC31AD30A7E
:10502000E30AF30AC092291ED0922A1EE0922B1E98
:10503000F0922C1E25CA8FEF80933F1E60919B1F1C
:1050400070919C1F80919D1F90919E1F0E94411600
:105050006B017C01C092CF1FD092D01FE092D11F74
:10506000F092D21F20E030E040E853E40E94645701
:105070006FEF87FF0EC020E030E0A901C701B60145
:105080000E94545960E087FD04C0C701B6010E9428
:10509000D5578CE20E94C30160919F1F7091A01FA1
:1050A0008091A11F9091A21F0E9441166B017C016B
:1050B000C092CF1FD092D01FE092D11FF092D21F8A
:1050C00020E030E040E853E40E9464576FEF87FF30
:1050D0000EC020E030E0A901C701B6010E9454597A
:1050E00060E087FD04C0C701B6010E94D5578DE27C
:1050F0000E94C3018091110690911206019709F058
:10510000DCC18091A31F9091A41FA091A51FB09115
:10511000A61F8093C11D9093C21DA093C31DB09381
:10512000C41D8091C31F9091C41FA091C51FB09151
:10513000C61F8093C51D9093C61DA093C71DB09335
:10514000C81D6091F71F7091F81F8091F91F909111
:10515000FA1F22E030E04FEE5FE10E94730C02E0A4
:1051600010E027ED3FE14EE150E062E070E08FEEAD
:105170009FE10E94590B80912C0290912D02A091E9
:105180002E02B0912F028DA79EA7AFA7B8AB80913A
:10519000151E9091161EA091171EB091181E89A77A
:1051A0009AA7ABA7BCA7F2E0EF2EF12C0FEE1FE100
:1051B00021E030E0AE01475D5F4F61E070E0CE017D
:1051C0008D960E94070722E030E0AE014F5D5F4FF1
:1051D000B80187ED9FE10E94890C88E0FE01B1963D
:1051E000A7EDBFE101900D928A95E1F78091280229
:1051F00090912902A0912A02B0912B02892B8A2B2F
:105200008B2B09F055C442E050E060EC73E087ED71
:105210009FE10E948D14882309F435C488E0E8EBEF
:10522000F3E0A7EEBFE101900D928A95E1F702E06D
:1052300010E09E012F5E3F4F4EE150E062E070E0D3
:1052400087EE9FE10E94470A89899A89AB89BC89C8
:105250008093151E9093161EA093171EB093181ED0
:105260008091D51D9091D61DA091D71DB091D81DCC
:1052700089AB9AABABABBCAB40900C2050900D20EF
:1052800060900E2070900F20A3019201BC01CD010F
:105290000E946457E0911406F091150681115FC4D5
:1052A00080819181A281B3818093D51D9093D61D79
:1052B000A093D71DB093D81DE9EDFDE180915F1F4C
:1052C0009091601FA091611FB091621F80839183B4
:1052D000A283B3838091110690911206019709F081
:1052E00094C02FA938AD49AD5AAD20931D1E3093FF
:1052F0001E1E40931F1E5093201E6091FB1F709135
:10530000FC1F8091FD1F9091FE1F22E030E0AE0156
:10531000475F5F4F0E94730C02E010E027ED3FE112
:105320004EE150E062E070E0CE0109960E94590B18
:1053300080912C0290912D02A0912E02B0912F020B
:105340008DA79EA7AFA7B8AB8091191E90911A1E8A
:10535000A0911B1EB0911C1E89A79AA7ABA7BCA742
:1053600042E0E42EF12C8E01075F1F4F21E030E078
:10537000AE01475D5F4F61E070E0CE018D960E9407
:10538000070722E030E0AE01475E5F4FB80187EDCE
:105390009FE10E94890C8091280290912902A0919E
:1053A0002A02B0912B02892B8A2B8B2B09F01EC469
:1053B00042E050E060EC73E0CE0149960E948D140B
:1053C000882309F4FEC388E0E8EBF3E0AFEDBFE12A
:1053D00001900D928A95E1F702E010E09E012F5FA7
:1053E0003F4F4EE150E062E070E08FED9FE10E94A0
:1053F000470A89819A81AB81BC818093191E909361
:105400001A1EA0931B1EB0931C1E8091E51D909147
:10541000E61DA091E71DB091E81D89AB9AABABAB3F
:10542000BCAB40900C2050900D2060900E207090EE
:105430000F20E0911406F0911506C080D180E28023
:10544000F380A3019201BC01CD010E946457811138
:1054500024C4C092E51DD092E61DE092E71DF092B3
:10546000E81DE9EEFDE180917F1F9091801FA091E2
:10547000811FB091821F80839183A283B383809127
:10548000110690911206019761F42BAD3CAD4DAD24
:105490005EAD2093211E3093221E4093231E509315
:1054A000241E4091E2055091E3056091E40570915E
:1054B000E50581E090E00E947606809111069091CA
:1054C0001206019709F039C4E0914D05F0914E059F
:1054D0000190F081E02D80819181A281B3818FAB19
:1054E00098AFA9AFBAAF20911D0530911E0540912C
:1054F0001F05509120052B962CAF3DAF4EAF5FAFEF
:105500002B97E0912105F0912205C080D180E280A7
:10551000F380E0915105F091520500811181E091F5
:105520001505F091160520803180428153815AABD8
:1055300049AB848195819EAB8DAB96819BAFA78152
:10554000AFAFE0911305F09114051182108288E04D
:10555000F801D10101900D928A95E1F7E0914B0598
:10556000F0914C05518340830E94901620E030E07A
:1055700040E05FE3C701B6010E948E592B013C0158
:10558000E9A9FAA920813181428153810E948E5973
:10559000D1012D913D914D915C910E94ED56F80104
:1055A0006083718382839383A9A9BAA914962D91EC
:1055B0003D914D915C911797C301B2010E948E59A4
:1055C000F10124813581468157810E94ED56D80131
:1055D00014966D937D938D939C931797E0914D0551
:1055E000F0914E05A080B180A30192016FA978AD22
:1055F00089AD9AAD0E94ED56F50160837183828377
:105600009383E0914B05F0914C052DA93EA9318380
:1056100020830E94AD160E94901620E030E0A90180
:10562000C701B6010E948E594B015C0120E030E0B9
:1056300040E45FE3C701B6010E948E592B013C0193
:10564000ADA9BEA92D913D914D915C910E948E59BD
:1056500027966CAF7DAF8EAF9FAF2797E9A9FAA9C8
:105660002081318142815381C501B4010E948E594C
:105670009B01AC0127966CAD7DAD8EAD9FAD27979C
:105680000E94ED56D1012D913D914D915C910E946A
:10569000ED56F8016083718382839383A9A9BAA927
:1056A00014962D913D914D915C911797C501B401D0
:1056B0000E948E594B015C01EDA9FEA92481358120
:1056C00046815781C301B2010E948E599B01AC01F2
:1056D000C501B4010E94ED56D10114962D913D9162
:1056E0004D915C9117970E94ED56F8016483758384
:1056F00086839783E0914D05F0914E05A080B1809F
:10570000A30192016FA978AD89AD9AAD0E94ED56C3
:10571000D5016D937D938D939C931397E0914B05E9
:10572000F0914C05BBADB0832FAD21830E94AD1627
:105730000E94901629E33EE843E65EE3C701B60106
:105740000E948E5927966CAF7DAF8EAF9FAF279783
:105750002BEA3AEA4AEA5EE3C701B6010E948E5993
:105760002F966CAF7DAF8EAF9FAF2F9729E33EE8AA
:1057700043EE5EE3C701B6010E948E5963966CAF9B
:105780007DAF8EAF9FAF63973BAD3FAB4FAD48AFA3
:10579000C101089621969FAF8EAF2197D1012D911F
:1057A0003D914D915D911D012BAF3CAF4DAF5EAF73
:1057B000E9A9FAA96191719181919191FAABE9AB53
:1057C000ADA9BEA94D905D906D907D90BEABADAB87
:1057D000EFA9F8ADC190D190E190F190F8AFEFABA7
:1057E00027962CAD3DAD4EAD5FAD27970E948E59EB
:1057F0004B015C012F962CAD3DAD4EAD5FAD2F97AB
:10580000C301B2010E948E599B01AC01C501B401D4
:105810000E94ED564B015C0163962CAD3DAD4EAD43
:105820005FAD6397C701B6010E948E599B01AC0121
:10583000C501B4010E94ED562BAD3CAD4DAD5EAD42
:105840000E94ED56D8016D937D938D939D938D01AC
:105850002196EEADFFAD2197E215F30509F09ECF3D
:10586000E0914D05F0914E050190F081E02D2B96D1
:105870002CAD3DAD4EAD5FAD2B9720833183428380
:105880005383E0911305F091140581E090E091833A
:1058900080838091E2059091E305A091E405B091A9
:1058A000E5050196A11DB11D8093E2059093E305E6
:1058B000A093E405B093E50540911D0550911E05A8
:1058C00060911F0570912005E0911406F091150676
:1058D00040835183628373832091FA05222309F464
:1058E00002C2213009F403C221E03091FC053323C8
:1058F00009F4FAC120E0F8C181E080933F1E2091B5
:105900005E0330915F03A9A1BAA10E948E62A1E15A
:105910009695879577956795AA95D1F7673908F099
:1059200080C08091D8029091D902A091DA02B09102
:10593000DB0280939B1F90939C1FA0939D1FB093AD
:105940009E1F8091431E882309F468C0833009F0AC
:1059500061C081E090E08093431E80929F1F9092EF
:10596000A01FA092A11FB092A21F0130110529F023
:1059700080918E05882309F461CB8091411E882394
:1059800009F475C0833009F06EC081E090E0809327
:10599000411E54CB10923F1E8091380390913903E1
:1059A000A0913A03B0913B0380939B1F90939C1F5F
:1059B000A0939D1FB0939E1F80939F1F9093A01F45
:1059C000A093A11FB093A21F0130110529F080916F
:1059D0008E05882309F432CB8091581E8823B9F0B4
:1059E000833089F481E090E08093581E27CB80912A
:1059F0003F1E813009F483CF823011F40C947B2256
:105A000081111CCBC9CF082E000C990BEDCF82E081
:105A100090E0EACF082E000C990B9DCF82E090E039
:105A20009ACF8091DC029091DD02A091DE02B091CC
:105A3000DF0280939B1F90939C1FA0939D1FB093A8
:105A40009E1F8091421E882359F0833029F481E003
:105A500090E08093421E81CF082E000C990BF9CF65
:105A600082E090E0F6CF082E000C990B90CF82E0F8
:105A700090E08DCF082E000C990B0C94A72282E0A9
:105A800090E00C94A7221092E71F1092E81F10924A
:105A9000E91F1092EA1F80E090E0A0E0B0E8809358
:105AA000EB1F9093EC1FA093ED1FB093EE1FBFCBA5
:105AB00023E030E043EE5EE162E070E087ED9FE1DD
:105AC0000E94EE0C03E010E027ED3EE14EE150E0D5
:105AD00063E070E083EE9EE10E94590B6091280222
