:1000000005C100000C948E3E0C94B93E0C94E43E65
:100010000C940F3F0C943A3F0C94653F0C94903F26
:100020000C94BB3F24C1000022C1000020C100008D
:100030001EC100001CC100001AC1000018C1000050
:1000400016C1000014C1000012C1000010C1000060
:100050000EC100000CC100000AC100000C94E63F74
:1000600006C100000C94BA430C94F04300C1000098
:10007000FEC00000FCC00000FAC00000F8C0000094
:10008000F6C00000F4C00000F2C00000F0C00000A4
:100090000C9446440C947C44EAC00000E8C0000084
:1000A000E6C00000E4C00000E2C00000E0C00000C4
:1000B000DEC00000DCC00000DAC00000D8C00000D4
:1000C000D6C00000D4C000000C949F390C94D244D8
:1000D0000C940845CCC000000C945E450C949445EB
:1000E000C6C0000000000A0B02090C0D0E08070331
:1000F00004010000000000000000000000000000FB
:1001000000000000000000000000000000000000EF
:1001100012111000000000000000000000000000AC
:100120000000000000000000000001021020200874
:100130000810204010204080020102010804020142
:1001400001020408102040808040201008040201B1
:10015000800402018040201008040201080402010A
:100160000102040810204080010204081020408091
:1001700005050505070508080808020202020A0A23
:100180000808040404040101010101010101030341
:10019000030303030303040707070C0C0C0C0C0CEC
:1001A0000C0C0202020206060606060606060B0BE9
:1001B0000B0B0B0B0B0B000020002300260029006B
:1001C0002C002F003200000100000301060109018C
:1001D00000002200250028002B002E0031003400F2
:1001E00002010000050108010B01000021002400AC
:1001F00027002A002D003000330001010000040117
:1002000007010A011944A5443145BD4511241FBE0B
:10021000CFEFD1E2DEBFCDBF00E00CBF13E0A0E026
:10022000B2E0E0E2FDE800E00BBF02C007900D92F3
:10023000A233B107D9F72AE0A2E3B3E001C01D92CF
:10024000A43CB207E1F711E0C6E0D1E000E006C04F
:1002500021970109802FFE010E945D46C230D1071F
:1002600080E00807A9F70E94913A0C948E46C8CE08
:10027000CF92DF92EF92FF92CF93882351F16A01E0
:100280007B01CFEFC80F20E030E0A901CB01B60120
:100290000E94863B18168CF0C701B60190580E9448
:1002A000F73B9B01AC016C2F70E090E080E0CF91B8
:1002B000FF90EF90DF90CF90B2C0C701B6010E94CF
:1002C000F23B8C2FCF91FF90EF90DF90CF900C946A
:1002D000ED40CF91FF90EF90DF90CF9008950F9376
:1002E0001F938B019C0183E0369527951795079501
:1002F0008A95D1F70E5C1C4F462F477021E030E005
:10030000F90102C0EE0FFF1F4A95E2F7AF01F801B5
:1003100020812423CB010196211102C090E080E0CE
:100320001F910F9108950F931F938B019C0183E000
:1003300036952795179507958A95D1F7677081E0CF
:1003400090E001C0880F6A95EAF7F801EE5CFC4F77
:100350002081452B31F48095822380831F910F915A
:100360000895822BFACF2F923F924F925F926F9215
:100370007F928F929F92AF92BF92CF92DF92EF9235
:10038000FF920F931F93CF93DF93D62EC72E782E15
:10039000692E49015A01280161E08D2D0E942742F2
:1003A000CD2DDC2D8E010F5F1F4FA8016D2D7C2DF3
:1003B000872D962DB8DF20E030E0A901C201B701FA
:1003C0000E94763D181664F4C201B7010E94F73B03
:1003D0002B01C501B4010E94F73BA201CE0123D03D
:1003E000C801DF91CF911F910F91FF90EF90DF90A7
:1003F000CF90BF90AF909F908F907F906F905F90C5
:100400004F903F902F900895882341F08150682F9E
:1004100070E090E080E050E040E085CF0895862FC6
:10042000B9010C94ED409C01FC01EC51FF4FE491AB
:10043000E150E231E0F4F0E08827EE5DFD4F8F4FB0
:100440000C945D4634023B023E0255026A023702BA
:100450007F028B028F02A602BB02D002E702FC02DF
:100460003702110328033D0384B5806884BD60E032
:10047000822F0C94634284B58062F8CF8091800013
:100480008C7F82608093800080918100807E80617B
:10049000682B609381005093870040938600809181
:1004A0008000806880938000E2CF809180008C7F04
:1004B00082608093800080918100807E8061682BC3
:1004C0006093810050938700409386008091800064
:1004D0008062E8CF809180008C7F82608093800072
:1004E00080918100807E8061682B609381005093B1
:1004F000870040938600809180008860D3CF8091F0
:10050000B00080688093B0008091B100887F682B34
:100510006093B100ACCF8091B0008062F3CF809146
:1005200090008C7F82608093900080919100807E0B
:100530008061682B609391005093970040939600E0
:100540008091900080688093900091CF809190007E
:100550008C7F82608093900080919100807E80618A
:10056000682B609391005093970040939600809180
:1005700090008062E8CF809190008C7F82608093B1
:10058000900080919100807E8061682B6093910043
:100590005093970040939600809190008860D3CF4D
:1005A0008091A0008C7F82608093A0008091A10048
:1005B000807E8061682B6093A1005093A7004093D8
:1005C000A6008091A00080688093A00050CF809109
:1005D000A0008C7F82608093A0008091A100807E2B
:1005E0008061682B6093A1005093A7004093A60000
:1005F0008091A0008062E8CF8091A0008C7F826013
:100600008093A0008091A100807E8061682B609320
:10061000A1005093A7004093A6008091A00088609D
:10062000D3CF809120018C7F8260809320018091C4
:100630002101807E8061682B609321015093270106
:1006400040932601809120018068809320010FCF84
:10065000809120018C7F8260809320018091210114
:10066000807E8061682B6093210150932701409325
:100670002601809120018062E8CF809120018C7F4B
:1006800082608093200180912101807E8061682BAF
:10069000609321015093270140932601809120010E
:1006A0008860D3CFFC01A781B0858C919185892387
:1006B000A481B5819C9140815181628173812681A1
:1006C000922359F081110BC04F5F5F4F6F4F7F4FE7
:1006D000408351836283738308958111F5CF415024
:1006E000510961097109F4CF8CE393E0DBCF87E412
:1006F00093E0D8CF82E593E0D5CF8DE593E0D2CFDC
:10070000FC01A481B5818C9196818923A781B08554
:100710009C9140815181628173812185922359F09E
:10072000882359F04F5F5F4F6F4F7F4F4083518356
:100730006283738308958823A9F3415051096109A5
:100740007109F4CF8CE393E0DBCF87E493E0D8CF5B
:1007500082E593E0D5CF8DE593E0D2CF0F931F9341
:10076000CF93DF93D82FC62F8A01A0913B038BE054
:10077000A89FD0011124A45CBC4F1D921D921D9214
:100780001C92139781E01A968C931A978D2F90E004
:10079000FC01E65DFE4FE4911696EC931697FC0182
:1007A000E059FE4FE491F0E0EE0FFF1FEA54FE4FD8
:1007B0008591949115969C938E931497862F90E033
:1007C000FC01E65DFE4FE4911996EC931997FC014C
:1007D000E059FE4FE491F0E0EE0FFF1FEA54FE4FA8
:1007E0008591949118969C938E93179760E08D2F26
:1007F0000E94274260E08C2F0E94274280913B0399
:10080000813009F43FC0A8F0823009F462C083301F
:1008100009F486C080913B0391E0980F90933B03CD
:10082000F801808390E080E0DF91CF911F910F91DC
:10083000089580E0D23049F081E0D33031F08EEE7F
:100840008D0F8430D8F487E18D1B41E050E064E7E0
:1008500073E00E94143E80E0C23049F081E0C33072
:1008600031F08EEE8C0F843058F487E18C1B41E020
:1008700050E062EA73E00E94143ECCCF8FEFE5CFE8
:100880008FEFF5CF80E0D23049F081E0D33031F006
:100890008EEE8D0F8430C8F487E18D1B41E050E06F
:1008A00067E773E00E94143E80E0C23049F081E0C7
:1008B000C33031F08EEE8C0F843048F487E18C1B0E
:1008C00041E050E065EA73E0D6CF8FEFE7CF8FEFDE
:1008D000F7CF80E0D23049F081E0D33031F08EEEB6
:1008E0008D0F8430C8F487E18D1B41E050E06AE74A
:1008F00073E00E94143E80E0C23049F081E0C330D2
:1009000031F08EEE8C0F843048F487E18C1B41E08F
:1009100050E068EA73E0AFCF8FEFE7CF8FEFF7CF0C
:1009200080E0D23049F081E0D33031F08EEE8D0F8F
:100930008430C8F487E18D1B41E050E06DE773E03F
:100940000E94143E80E0C23049F081E0C33031F0B3
:100950008EEE8C0F843048F487E18C1B41E050E030
:100960006BEA73E088CF8FEFE7CF8FEFF7CF9BE095
:10097000899FF0011124E45CFC4F80819181A28168
:10098000B381FB0180839183A283B38390E080E0F5
:1009900008959BE0899FF0011124E45CFC4F1082D4
:1009A00011821282138290E080E0089590E080E04E
:1009B000089590E080E008950F931F93009709F445
:1009C00089C06115710509F485C000914802109134
:1009D000490220914A0230914B020E3F1F4F2F4F88
:1009E0003F4F09F068C04FEF5FEFBA0140934802F4
:1009F0005093490260934A0270934B02409148021F
:100A00005091490260914A0270914B02DC011296AA
:100A1000ED91FC9180819181A281B38180939104B9
:100A200090939204A0939304B0939404848195814D
:100A3000A681B78180938D0490938E04A0938F0438
:100A4000B093900480859185A285B38580938904B5
:100A500090938A04A0938B04B0938C04848595852D
:100A6000A685B7858093850490938604A093870418
:100A7000B09388041092810410928204109283042F
:100A8000109284040E94831D88EA9DE1909369037B
:100A90008093680390936B0380936A030E94721C97
:100AA000009731F421E030E03093960420939504D0
:100AB0001F910F91089500914802109149022091D1
:100AC0004A0230914B02DB010D931D932D933C9311
:100AD000139794CF8FEF9FEFEBCF8F929F92AF92B0
:100AE000BF92CF92DF92EF92FF921F93CF93DF934B
:100AF0004B015C011091980482E090E09093960481
:100B00008093950481149104A104B10441F480916F
:100B10009804811104C080919704C1E08111C0E064
:100B2000C12CD12C760180919804811106C080914E
:100B30009704811102C0CC23D9F083E090E0909318
:100B4000960480939504CC2381F1CCE9DFEF111159
:100B500002C00E940D21CE01DF91CF911F91FF9025
:100B6000EF90DF90CF90BF90AF909F908F900895BF
:100B70006AE070E080E090E00E94554080E1C80E9D
:100B800087E2D81EE11CF11C8FEF88169806A80694
:100B9000B80631F0C1E08C149D04AE04BF0408F027
:100BA000C0E080E00E94A61CBECFD0E0C0E0CFCF66
:100BB000CF92DF92EF92FF920F931F93CF93DF9329
:100BC0008F3F910511F008F051C0209195043091AC
:100BD00096042330310539F0209195043091960424
:100BE0002130310531F424E030E030939604209335
:100BF00095046A017B01EC0182309105A8F011E0B7
:100C0000AE01C701B6010E94711CAB01BC01CE014F
:100C10001123F9F0DF91CF911F910F91FF90EF9089
:100C2000DF90CF900C9436238C01000F111F0859D0
:100C30001C4FD8018D919C91892B09F30E94402370
:100C40000297E9F6D801ED91FC91CE011995182F84
:100C5000D7CF0E94582390E080E0DF91CF911F9181
:100C60000F91FF90EF90DF90CF9008958FEF9FEF5F
:100C7000F4CF80E00C94A61CCF93DF9386E090E045
:100C800090939604809395040E94FF1CEC01E8E683
:100C9000F3E084E0DF011D928A95E9F70E94A52028
:100CA0001092960410929504CE01DF91CF91089591
:100CB000809197040895809180040895609348027C
:100CC0007093490280934A0290934B0290E080E037
:100CD000089560E070E080E89FE7089560E070E0CC
:100CE00080E89FE7089560E070E080E89FEF089556
:100CF00060E070E080E89FEF089560E070E080ECD5
:100D00009FEF089560E070E080EC9FEF0895F5DFBD
:100D100060931F0A7093200A8093210A9093220AFD
:100D2000F1DF6093130A7093140A8093150A90936D
:100D3000160ACFDF60931B0A70931C0A80931D0A6A
:100D400090931E0ACBDF6093170A7093180A809362
:100D5000190A90931A0AC7DF6093230A7093240A32
:100D60008093250A9093260AC3DF6093270A709325
:100D7000280A8093290A90932A0A0895CF92DF9235
:100D8000EF92FF92CF936B017C01AC019B016091CC
:100D90001B0A70911C0A80911D0A90911E0A0E94E4
:100DA000863BC1E0882371F0A70196016091230A78
:100DB0007091240A8091250A9091260A0E94863B10
:100DC0008111C0E08C2FCF91FF90EF90DF90CF90FA
:100DD00008950F931F938B019C0100271127207802
:100DE0003F770115110520483F4749F4AB01BC018D
:100DF0006F77772781E0452B462B472B09F480E05E
:100E00001F910F910895E5CF2F923F924F925F92DD
:100E10006F927F928F929F92AF92BF92CF92DF920A
:100E2000EF92FF920F931F93CF93DF93CDB7DEB76F
:100E3000CB54D1090FB6F894DEBF0FBECDBF2696B6
:100E40007FAF6EAF269728965FAF4EAF28973E8B49
:100E50002D8B2C96FFAEEEAE2C97FB01E150F04CA3
:100E6000EE0FFF1FEE0FFF1FE80FF91F808091802C
:100E7000A280B3808F8A988EA98EBA8EB501A40104
:100E8000442777FD439555276627772729964FAF47
:100E90002997F901E150F04CEE0FFF1FEE0FFF1FF5
:100EA0002896AEACBFAC2897EA0DFB1DC080D18060
:100EB000E280F380CB8EDC8EED8EFE8EB701A60134
:100EC000442777FD43955527662777272A964FAF06
:100ED0002A97188B0F87F80130E020E02C96EEACB3
:100EE000FFAC2C972E153F050CF43FC022969FAF08
:100EF0008EAF22971A8B098B312C212C812C912CAF
:100F0000540183948D829E82AF82B88626968EACE1
:100F10009FAC2697281439047CF129969FAC299719
:100F20002A96AFAC2A9730E020E041E050E060E044
:100F300070E09A10F5C1C55BDF4F0FB6F894DEBFC5
:100F40000FBECDBFDF91CF911F910F91FF90EF901A
:100F5000DF90CF90BF90AF909F908F907F906F90D9
:100F60005F904F903F902F9008951192119211929F
:100F700011922F5F3F4FB2CF2296EEADFFAD229779
:100F800081919191A191B1912296FFAFEEAF2297FD
:100F90008F88988CA98CBA8CB7FE23C04D815E8156
:100FA0006F81788541505109610971095A016B01BE
:100FB000A81AB90ACA0ADB0AD601C50121E0CD8008
:100FC000DE80EF80F8848C159D05AE05BF0508F026
:100FD00020E0822E912CB12CA12C8D829E82AF829A
:100FE000B8865D01CC24DD24A8A2B9A2CAA2DBA2E6
:100FF0009C01AD01442755272CA33DA34EA35FA31D
:101000002C96EEADFFAD2C97E219F3098D889E88E2
:101010008E169F060CF4F4012896AEACBFAC289750
:101020002496BFAEAEAE2497C988DA88DC8ACB8A14
:101030001E861D86812C912C5401839489869A8664
:10104000AB86BC86812C912C5401CD84DE84CE16D7
:10105000DF0604F1F7FF02C0F0E0E0E0E20DF31D6F
:101060002C96EEACFFAC2C97EE15FF0554F4EE0F6A
:10107000FF1FEE0FFF1FE00FF11F80829182A282FF
:10108000B3822FEF221A320AE989FA893496FA8B51
:10109000E98B3CCF2496AEADBFAD2497CD90DD90CB
:1010A000ED90FD902496BFAFAEAF24972B8D3C8D75
:1010B0004D8D5E8D57FF22C089859A85AB85BC8595
:1010C0000197A109B109AC01BD014C195D096E0977
:1010D0007F096A017B0181E029853A854B855C8522
:1010E000C216D306E406F50608F080E0482F50E06B
:1010F00070E060E049875A876B877C87B701882753
:10110000992768A779A78AA79BA7EE24FF2428A17F
:1011100039A14AA15BA1C701B6010E9418462B0163
:101120003C012CA13DA14EA15FA168A579A58AA58E
:101130009BA50E9418466CA77DA78EA79FA7AB8989
:10114000BC894D915D916D917D91BC8BAB8BDB0129
:10115000CA01880D991DAA1DBB1D89839A83AB8383
:10116000BC8391E09F8F29813A814B815C81281556
:1011700039054A055B0508F01F8E2CA13DA14EA143
:101180005FA1C701B6010E9418466B017C018980EE
:101190009A80AB80BC808C0C9D1CAE1CBF1C8982CD
:1011A0009A82AB82BC8252019924882488AA99AA87
:1011B000AAAABBAA29813A814B815C81280D391DDD
:1011C0004A1D5B1D2CAB3DAB4EAB5FAB8CA49DA40D
:1011D000AEA4BFA454019924882488AE99AEAAAEC7
:1011E000BBAE280D391D4A1D5B1D2CAF3DAF4EAF68
:1011F0005FAFAB89BC8914972D933D934D935C935E
:10120000139728A139A14AA15BA168A579A58AA550
:101210009BA50E9418469F8C690D711D811D911D13
:10122000230166247724460E571E681E791E2CA5BE
:101230003DA54EA55FA54A01AA24BB24840C951C9C
:10124000A61CB71C81E090E0A0E0B0E049815A8183
:101250006B817C814C155D056E057F0518F080E083
:1012600090E0DC01880D991DAA1DBB1D41E050E0F6
:1012700060E070E088A899A8AAA8BBA8CCA8DDA8BF
:10128000EEA8FFA8C814D904EA04FB0418F040E053
:1012900050E0BA01840F951FA61FB71F812C912C17
:1012A00054018394C8ACD9ACEAACFBAC2CAD3DADD9
:1012B0004EAD5FAD2C153D054E055F0518F0812C38
:1012C000912C5401880E991EAA1EBB1E4D855E8569
:1012D0004F5F5F4F5E874D87B8CEEF85F889C1902D
:1012E000D190E190F190F88BEF87DB01CA01019773
:1012F000A109B1098C199D09AE09BF0934978083F2
:101300009183A283B383E1E084179507A607B7070B
:1013100008F0E0E04E2F50E070E060E02F5F3F4FBC
:101320002C968EAC9FAC2C9728153905B4F203CEC1
:101330002F923F924F925F926F927F928F929F92E5
:10134000AF92BF92CF92DF92EF92FF920F931F93D3
:10135000CF93DF9300D01F92CDB7DEB78B015C83B4
:101360004B83FB01E150F04CEE0FFF1FEE0FFF1F10
:10137000E80FF91F408151816281738177FD27C099
:101380004C01B12CA12CC12CD12C7601A016B10698
:1013900064F5F40161917191819191914F010E94E5
:1013A000233C4B815C810E947C3D9B01AC01C701C9
:1013B000B6010E94223B6B017C012B813C81205EA7
:1013C0003F4F3C832B833FEFA31AB30ADFCF9A83AF
:1013D0008983312C212C81E090E0A0E0B0E0C12C89
:1013E000D12C760120163106CCF0C701B6010F9042
:1013F0000F900F900F90DF91CF911F910F91FF9061
:10140000EF90DF90CF90BF90AF909F908F907F90A4
:101410006F905F904F903F902F900895E981FA81EF
:101420004190519061907190FA83E9834094509477
:101430006094709453014201880E991EAA1EBB1E2F
:10144000C501B4010E94233C4B815C810E947C3D1C
:101450009B01AC01C701B6010E94213B6B017C01DD
:1014600081E084149504A604B70408F080E090E0BD
:10147000B0E0A0E02B813C81205E3F4F3C832B837A
:101480003FEF231A330AAECF2F923F924F925F92D3
:101490006F927F928F929F92AF92BF92CF92DF9284
:1014A000EF92FF920F931F93CF93DF93CDB7DEB7E9
:1014B0002E970FB6F894DEBF0FBECDBF9E878D87E7
:1014C0003C872B871801FA0125E0F695E7952A95C8
:1014D000E1F7DB01A150B04CAA0FBB1FAA0FBB1F45
:1014E000A80FB91FCD90DD90ED90FC90FF0CCC08BB
:1014F000DC2C7601E617F7070CF0D5C0DF01A00F52
:10150000B11F9B01A617B7070CF49D018A010F714B
:101510001127DF01AA0FBB1FAA0FBB1F0115110561
:10152000F1F40D851E850A0F1B1F8B859C8550E0ED
:1015300040E0BA016E0F7F1F621773070CF05DC0A9
:10154000D8018D909D90AD90BD908D01DC018D9264
:101550009D92AD92BD92CD014F5F5F4FEACF6D84FA
:101560007E846A0E7B1E7C826B82D3014D905D90DF
:101570006D907C90AB84BC84BA82A98250E040E03C
:10158000A0E2B0E0CD01801B910B9E838D835301BF
:101590004201002E04C0B694A794979487940A94AD
:1015A000D2F74F5F5F4FDF01A40FB51FA217B3073C
:1015B00084F1D701C601261737076CF4220F331FB9
:1015C000220F331FED85FE852E0F3F1FF90180810D
:1015D0009181A281B3810D8004C0880F991FAA1F39
:1015E000BB1F0A94D2F788299929AA29BB29E98126
:1015F000FA8180839183A283B3839A01220F331FE0
:10160000220F331F6B847C84620E731E7A82698280
:101610002EC0DA01AA0FBB1FAA0FBB1F6B807C80F4
:10162000A60DB71D4D905D906D907C90D301C201C9
:101630000D8004C0880F991FAA1FBB1F0A94D2F700
:10164000882A992AAA2ABB2AA981BA818D929D92B9
:10165000AD92BD92BA83A9839ACFE981FA81C192F2
:10166000D192E192F192FA83E9834F5F5F4F421585
:1016700053059CF32E960FB6F894DEBF0FBECDBF78
:10168000DF91CF911F910F91FF90EF90DF90CF905E
:10169000BF90AF909F908F907F906F905F904F9092
:1016A0003F902F90089550E040E0A7CF2F923F92B7
:1016B0004F925F926F927F928F929F92AF92BF9262
:1016C000CF92DF92EF92FF920F931F93CF93DF930E
:1016D00000D000D0CDB7DEB7DA01E5E0B695A7952A
:1016E000EA95E1F7FB01E150F04CEE0FFF1FEE0F22
:1016F000FF1FE80FF91F80809180A280B380BB0C90
:101700008808982C54013D010A171B070CF4380176
:101710007901D12CC12CC614D70464F1F30177FEF2
:1017200002C0F0E0E0E0A017B1070CF075C04F7107
:101730005527A60FB71FB801A017B1070CF4BD01BC
:101740006E1B7F0BDF01AA0FBB1FAA0FBB1F41152A
:101750005105D1F43D01620E731E50E040E0461782
:1017600057070CF48DC077FF02C070E060E0E60F11
:10177000F71F52C0F70111921192119211927F013D
:10178000FFEFCF1ADF0AC7CF1C0129014A0E5B1EEB
:101790005A8249821E821D82C12CD12C760180E2A0
:1017A00090E03C01641A750A7C826B82AD81BE8137
:1017B000A617B707CCF177FF02C070E060E0E60F34
:1017C000F71FE017F1070CF072C0DF01AA0FBB1F73
:1017D000AA0FBB1FA20FB31F80E290E0841B950BE2
:1017E00004C0F694E794D794C7948A95D2F724015D
:1017F000350104C0440C551C661C771C4A95D2F771
:10180000B301A201C428D52AE628F72ACD92DD9299
:10181000ED92FC9213973196DF01AA0FBB1FAA0F1E
:10182000BB1FA20FB31F40C0260137010B8004C0AD
:1018300076946794579447940A94D2F7D101CD9047
:10184000DD90ED90FD901D01D701C601042E04C06E
:10185000880F991FAA1FBB1F0A94D2F7482A592A3A
:101860006A2A7B2AA981BA814D925D926D927D92FE
:10187000BA83A9838D819E8101969E838D8396CFA5
:10188000DC01CD90DD90ED90FD90CD01D301CD92A6
:10189000DD92ED92FD923D014F5F5F4F60CF8D92E3
:1018A0009D92AD92BD923196E017F107C4F3269652
:1018B0000FB6F894DEBF0FBECDBFDF91CF911F9161
:1018C0000F91FF90EF90DF90CF90BF90AF909F90DF
:1018D0008F907F906F905F904F903F902F900895E2
:1018E000FA016193719381939193990F660B762F0F
:1018F000CB0141E050E0421753070CF0089561938B
:101900007193819391934F5F5F4FF5CF2F923F92E9
:101910004F925F926F927F928F929F92AF92BF92FF
:10192000CF92DF92EF92FF920F931F93CF93DF93AB
:1019300079011B01DA01D0E0C0E040E050E0BA01DB
:10194000CE15DF059CF0DF91CF911F910F91FF9095
:10195000EF90DF90CF90BF90AF909F908F907F904F
:101960006F905F904F903F902F900895FC01819071
:101970009190A190B190CF01F1010191119121912C
:1019800031911F0124013501401A510A620A730A7C
:1019900093018201041B150B260B370B0D931D932E
:1019A0002D933D9366246394712CC12CD12C452B2F
:1019B000462B472B39F0081519052A053B0538F445
:1019C000612C05C080169106A206B306C8F7A301D4
:1019D000B6012196B5CF8F929F92AF92BF92CF92D0
:1019E000DF92EF92FF92CF93DF93F90162177307B3
:1019F0000CF4FB016C017A01B0E0A0E0AE17BF0768
:101A00004CF162177307DCF46150704C660F771F5E
:101A1000660F771F680F791FDB01CD90DD90ED9089
:101A2000FC90FF0CCC08DC2C7601DF01AA0FBB1F59
:101A3000AA0FBB1FA40FB51FE217F307CCF0DF916D
:101A4000CF91FF90EF90DF90CF90BF90AF909F909D
:101A50008F900895E60189909990A990B9906E01B0
:101A6000E70189929992A992B9927E011196C6CF07
:101A7000CD92DD92ED92FD923196DECF8F929F92C4
:101A8000AF92BF92CF92DF92EF92FF920F931F938C
:101A9000FB0170E060E0C12CD12C7601C394641787
:101AA00075075CF01F910F91FF90EF90DF90CF9042
:101AB000BF90AF909F908F900895DC018D909D9086
:101AC000AD90BD90CD01970186010150110921090A
:101AD0003109081919092A093B0901931193219326
:101AE0003193A1E00C151D052E053F0508F0A0E07F
:101AF000CA2ED12CF12CE12C6F5F7F4FD0CFAB01E0
:101B000041505109FC0130E020E02417350794F0E2
:101B10006150704C660F771F660F771F680F791F33
:101B200080E090E0A0E0B0E8FB0180839183A28395
:101B3000B383089511921192119211922F5F3F4F2A
:101B4000E4CFCF92DF92EF92FF92AB014150510967
:101B5000FC0130E020E0CC24CA94DC2C7601241770
:101B60003507B4F06150704C660F771F660F771F12
:101B7000680F791F8FEF9FEFAFEFBFE7FB01808307
:101B80009183A283B383FF90EF90DF90CF9008956D
:101B9000C192D192E192F1922F5F3F4FE0CFCF926D
:101BA000DF92EF92FF92FB0130E020E0C12CD12CBC
:101BB0007601C3942E173F072CF0FF90EF90DF9033
:101BC000CF900895DC014D915D916D917D91CD0196
:101BD0004C0D5D1D6E1D7F1D14974D935D936D9390
:101BE0007C931397A1E04C155D056E057F0508F009
:101BF000A0E0CA2ED12CF12CE12C2F5F3F4FDACF81
:101C0000CF92DF92EF92FF92FC0180E030E020E083
:101C10002617370714F4882329F0FF90EF90DF9000
:101C2000CF900895C190D190E190F1902F5F3F4FF8
:101C300081E0CD28CE28CF2859F780E0E9CF2F9238
:101C40003F924F925F926F927F928F929F92AF924C
:101C5000BF92CF92DF92EF92FF920F931F93CF9399
:101C6000DF93CDB7DEB7A8970FB6F894DEBF0FBEEF
:101C7000CDBF9EA38DA31B015E834D833A83298331
:101C80001A8F098FDA8AC98AF901EE0FFF1FEE0F4A
:101C9000FF1FE40FF51F49815A81141615060CF039
:101CA000A0C4B291A29192918291892B8A2B8B2B05
:101CB00011F1E98DFA8D90E080E08E159F0514F109
:101CC000F101EE0FFF1FEE0FFF1F8DA19EA1E80F88
:101CD000F91F1214130404F1ADA1BEA1BA83A983A4
:101CE000E989FA8930E020E02A153B050CF46AC442
:101CF00085E090E04FC029813A81215031093A8333
:101D00002983C9CF11921192119211920196D5CFC8
:101D100091E0291A3108DDCFB291A291929182917E
:101D2000892B8A2B8B2BA1F3E981FA812E163F0692
:101D30009CF249885A885A864986F20190E080E0F0
:101D400005C0119211921192119201968A159B056C
:101D5000C4F3B1E02B163104B1F5EDA1FEA1608111
:101D6000718182819381AD81BE812D913D914D9193
:101D70005C910E943B46E98DFA8D2083318342833A
:101D80005383A989BA896D937D938D939C931397FF
:101D900087E090E0A8960FB6F894DEBF0FBECDBFE7
:101DA000DF91CF911F910F91FF90EF90DF90CF9037
:101DB000BF90AF909F908F907F906F905F904F906B
:101DC0003F902F900895E981FA81E150F04CEE0F99
:101DD000FF1FEE0FFF1F4D805E804E0E5F1E5C8A60
:101DE0004B8AD201CD90DD90ED90FC90D701C601D9
:101DF000B695A7959795879501E010E01C830B8316
:101E00000097A105B10589F5D101A150B04CAA0FE9
:101E1000BB1FAA0FBB1F8DA19EA1A80FB91F4D917B
:101E20005D916D917C91769567955795479581E089
:101E300090E0411551056105710511F5A981BA813F
:101E4000A215B3051CF14B805C8084159505F0F458
:101E50006DA07EA07A82698230E020E02A153B05E1
:101E60000CF49DC386E090E095CF2B813C812F5FE1
:101E70003F4F3C832B83B695A79597958795C0CF09
:101E800001967695679557954795D3CF29813A81E5
:101E900021503109388B2F87910121503109890157
:101EA00075E0000F111F7A95E1F7080F191F4F8594
:101EB0005889A5E0440F551FAA95E1F76B817C81F5
:101EC000640F751F7E876D87AB81BC81A032B10521
:101ED00009F498C134964D805E80E40DF51D70E0E4
:101EE00060E040E250E04A1B5B0B46015701042EC4
:101EF00004C0880C991CAA1CBB1C0A94D2F76F5F03
:101F00007F4F69807A806616770609F062C1AD81DD
:101F1000BE818D929D92AD92BC921397CC24CA94AF
:101F2000DC2C76012601370104C0440C551C661CCC
:101F3000771C4A95D2F74D8A5E8A6F8A788E4981DE
:101F40005A814130510509F066C14D885E886F881D
:101F5000788C4D8E5E8E6F8E78A269817A81615009
:101F600071094FEF5FE3649F4001659F900C749F80
:101F7000900C11249AA289A21C861B86AD84BE8473
:101F8000A094B094BCA2ABA2A901440F551F440F6A
:101F9000551FADA1BEA1A40FB51FB887AF83803276
:101FA000910509F440C0CD90DD90ED90FC90139721
:101FB0004B855C85405E5F4FFA01E81BF90BFC879F
:101FC000EB87FD01A90160E270E0681B790B260137
:101FD0003701062E04C0440C551C661C771C0A945D
:101FE000D2F7141615060CF41FC1A90137FF02C061
:101FF00050E040E088248A94FFE39F2E489DF00142
:10200000499DF00D589DF00D1124E20FF31FEE0FC6
:10201000FF1FEE0FFF1F8DA19EA1E80FF91F408249
:10202000518262827382EF81F88580819181A281E1
:10203000B381EB89FC894081518162817381CD8CB0
:10204000DE8CEF8CF8A0C822D922EA22FB22C4162B
:10205000D506E606F70609F067C14F80588458A6F2
:102060004FA26B887C887C8E6B8EB2014F8558891D
:102070004115510509F0F1C06D857E85061B170BD2
:102080008F859889009709F09DC1E9A1FAA1E20F17
:10209000F31FEE0FFF1FEE0FFF1F2DA13EA12E0F0E
:1020A0003F1FF90180819181A281B381ED81FE8181
:1020B0004081518162817381841B950BA60BB70B04
:1020C000F90180839183A283B383F80195E0F695AB
:1020D000E7959A95E1F7EE0FFF1FEE0FFF1F698C52
:1020E0007A8CE60DF71D0F71112741E050E060E09A
:1020F00070E004C0440F551F661F771F0A95D2F782
:1021000080819181A281B381842B952BA62BB72B43
:1021100080839183A283B383EF81F8851214130423
:102120000CF062C280819181A281B3819101215022
:1021300031093497892B8A2B8B2B09F47FC1698055
:102140007A80261437040CF07BC1910121503109AB
:1021500084E090E06B857C8545E0769567954A95AF
:10216000E1F74B855C854F715527FB01EE0FFF1F93
:10217000EE0FFF1F4115510509F497C12DA03EA098
:102180002E0E3F1ED101CD90DD90ED90FC90B0E081
:10219000A0E0E0E2F0E02F01441A550A5A82498299
:1021A00046015701042E04C0B694A79497948794CF
:1021B0000A94D2F76F5F7F4F1496261737070CF0FB
:1021C000B6C1A985BA858D929D92AD92BC921397A6
:1021D00085C1DF011897CD90DD90ED90FC90260130
:1021E00037010B8004C076946794579447940A94FF
:1021F000D2F784289528A628B728B292A292929264
:10220000829273CE66246A94762C43016D8A7E8A0C
:102210008F8A988E94CE66246A94762C43016D8EB4
:102220007E8E8F8E98A299CEF290E290D290C2903C
:1022300046015701082E04C0B694A794979487943A
:102240000A94D2F784289528A628B72884829582F4
:10225000A682B78241505109BACEFB0172906290BA
:1022600052904290BF0141505109EB8DFC8DB290CC
:10227000A29092908290FC8FEB8FCC24CA94DC2C9D
:1022800076014115510521F4CD88DE88EF88F88C60
:10229000C420D520E620F720C814D904EA04FB04A2
:1022A00009F4E6CE84149504A604B70408F485C0A6
:1022B000AD84BE84A016B10608F0A9C1EF81F885EF
:1022C000A9016C017D01CC0CDD1CEE1CFF1C141659
:1022D00015060CF483C0A90137FF02C050E040E0AE
:1022E00044244A946FE3562E449DF001459DF00D21
:1022F000549DF00D1124E20FF31FEE0FFF1FEE0FA0
:10230000FF1F6DA07EA0E60DF71DC082D182E28284
:10231000F3824B855C854F5F5F4F5C874B876BA17A
:102320007CA1060F171F0AC0481759076A077B07C9
:1023300008F0BECF8D849E8408191909F90189819E
:102340009A81E81BF90B3196EE0FFF1FEE0FFF1F6E
:10235000ADA1BEA1EA0FFB1F4D805E805C8E4B8E4F
:1023600090E080E040E050E0BA0181909190A1902F
:10237000B190AB8DBC8DCD90DD90ED90FD90BC8F7C
:10238000AB8F240135014C185D086E087F0873017E
:102390006201C41AD50AE60AF70A66246394712C0E
:1023A00030E020E0452B462B472B79F1C814D904A7
:1023B000EA04FB0478F5612C2DC04D855E85041B75
:1023C000150BBCCFAFA1B8A51D921D921D921C92FA
:1023D000139701971497B8A7AFA354CEB291A291C7
:1023E000929182914C015D018824B7FC83949924D9
:1023F000AA24BB24C828D928EA28FB28C482D5826D
:10240000E682F782415051095CCF8C149D04AE04E2
:10241000BF0488F6A301632F722F9F012450310956
:10242000D901CD92DD92ED92FC92139701964980ED
:102430005A80841595050CF498CF47CE19016ECEBD
:10244000F101E150F04CEE0FFF1FEE0FFF1F8DA0CA
:102450009EA0E80DF91D40815181628173817695BE
:1024600067955795479581E090E0411551056105C5
:102470007105A9F48901B5E0000F111FBA95E1F7C4
:10248000AB84BC840A191B09080F191F4D855E8592
:102490000417150708F078CD82E090E05BCE019636
:1024A0007695679557954795E0CFADA1BEA1EA0F08
:1024B000FB1F30E020E04191519161917191A9851C
:1024C000BA854D935D936D937D93BA87A9872F5FEE
:1024D0003F4F4F845888421653066CF7EB81FC81BE
:1024E000B09709F457CCAD81BE81CD90DD90ED90D1
:1024F000FC901397FD0130E020E040E250E04B807B
:102500005C804419550926013701042E04C07694D5
:102510006794579447940A94D2F78F849888281523
:10252000390524F1408251826282738233CC810169
:102530000A0F1B1FF801C080D180E280F3802601C2
:102540003701098004C0440C551C661C771C0A9492
:10255000D2F784289528A628B728E985FA8581929C
:102560009192A192B192FA87E9871ACEC480D58060
:10257000E680F780460157010B8004C0880C991C47
:10258000AA1CBB1C0A94D2F784289528A628B72831
:1025900081929192A192B1922F5F3F4FB4CFE98186
:1025A000FA8181919191A191B191FA83E983E985B1
:1025B000FA8581939193A193B193FA87E9872F5F6D
:1025C0003F4F4CCCA981BA814D915D916D917D9128
:1025D000BA83A98341935193619371932F5F3F4FC6
:1025E00083CB8FEF9FEFD6CB2114310409F0ADCD13
:1025F000EDA1FEA180819181A281B381E989FA894F
:1026000080839183A283B38381E090E067CF83E0EE
:1026100090E0A0CD2F923F924F925F926F927F9267
:102620008F929F92AF92BF92CF92DF92EF92FF92E2
:102630000F931F93CF93DF93CDB7DEB764970FB699
:10264000F894DEBF0FBECDBF2A013E832D83380133
:102650001701DE86CD86B88AAF862AA53BA53A8BC0
:10266000298B4CA55DA558874F83AEA5BFA5BC8B14
:10267000AB8BFB01E150F04CEE0FFF1FEE0FFF1F85
:10268000E80FF91F208131814281538129833A83E8
:102690004B835C83ED81FE81E150F04CEE0FFF1F18
:1026A000EE0FFF1FE40DF51D208131814281538122
:1026B00029873A874B875C8729813A814B815C81E6
:1026C00057FF40C0AB01B401D9D989859A85AB8544
:1026D000BC85B7FF3CC04D815E816F817885C201AA
:1026E000CDD9AF84B888CD84DE84710183012B8974
:1026F0003C894F81588569897A89C401A0DA97FF9E
:1027000048C029813A814B815C81B101C30157FFE7
:1027100027C064960FB6F894DEBF0FBECDBFDF9121
:10272000CF911F910F91FF90EF90DF90CF90BF90CE
:10273000AF909F908F907F906F905F904F903F9061
:102740002F90DDC929893A89A40145D9BECF2B89AB
:102750003C894F8158856D817E81C2013CD9C1CFB2
:1027600064960FB6F894DEBF0FBECDBFDF91CF9158
:102770001F910F91FF90EF90DF90CF90BF90AF909F
:102780009F908F907F906F905F904F903F902F9091
:10279000D8C989819A81AB81BC818827B7FD83958F
:1027A0009927AA27BB2749855A856B857C854427AD
:1027B00077FD4395552766277727841731F16F8575
:1027C00078898D859E851CDA882319F0B101C301B3
:1027D000E6D9A101B301C30164960FB6F894DEBF38
:1027E0000FBECDBFDF91CF911F910F91FF90EF9062
:1027F000DF90CF90BF90AF909F908F907F906F9021
:102800005F904F903F902F9039C964960FB6F8941F
:10281000DEBF0FBECDBFDF91CF911F910F91FF9013
:10282000EF90DF90CF90BF90AF909F908F907F9070
:102830006F905F904F903F902F9008954F925F92CE
:102840006F927F928F929F92AF92BF92CF92DF92C0
:10285000EF92FF92CF93DF939A012150304C220FD9
:10286000331F220F331FFC01E20FF31F8080918082
:10287000A280B380FB01E20FF31FC080D180E28011
:10288000F380CC24DD24EE24E0E8FE22240135018F
:10289000442455246624E0E87E22C414D504E604CA
:1028A000F70499F52C5F3F4FFC01E20FF31FEB019A
:1028B000C20FD31F141615068CF090E080E0DF9154
:1028C000CF91FF90EF90DF90CF90BF90AF909F900F
:1028D0008F907F906F905F904F9008954150510975
:1028E000F290E290D290C290BA91AA919A918A9174
:1028F000C816D906EA06FB06E9F28C159D05AE0559
:10290000BF0528F481E090E0DACFB7FEFBCF8FEF70
:102910009FEFD5CF93DF892F8095881F8827881F49
:102920000895CF93DF93C0910C04D0910D042091B2
:10293000BD0A3091BE0A4091BF0A5091C00A609111
:1029400028027091290280912A0290912B020E9404
:10295000B03D2091B10A3091B20A4091B30A509132
:10296000B40A0E94223B688379838A839B83DF9128
:10297000CF9108952F923F924F925F926F927F92E4
:102980008F929F92AF92BF92CF92DF92EF92FF927F
:102990000F931F93CF93DF93CDB7DEB7CC55D109FB
:1029A0000FB6F894DEBF0FBECDBF00915704109153
:1029B0005804E0905A04F0905B040130110509F0CE
:1029C0006AC46091430470914404809145049091DD
:1029D00046046F5F7F4F8F4F9F4F0E94233C209193
:1029E0004704309148044091490450914A040E94A0
:1029F000B03D60938E0370938F0380939003909308
:102A00009103209130023091310240913202509175
:102A10003302D7016D917D918D919C910E94863BEF
:102A200087FF4EC48091340290913502A091360206
:102A3000B09137028093AD0A9093AE0AA093AF0A8B
:102A4000B093B00A01301105C1F51092A50A109299
:102A5000A60A1092A70A1092A80A1092A90A109228
:102A6000AA0A1092AB0A1092AC0A809120029091AF
:102A70002102A0912202B091230289A79AA7ABA7B5
:102A8000BCA78091450A9091460AA091470AB0914F
:102A9000480A89A39AA3ABA3BCA372E0E72EF12C4A
:102AA00005EA1AE021E030E0AE014F5D5F4F61E0E2
:102AB00070E0CE0189960E940407C090AD0AD090C4
:102AC000AE0AE090AF0AF090B00A50E040E062E059
:102AD00070E085EA9AE00E94980920E030E040E04A
:102AE0005FE20E94B03D9B01AC01C701B6010E94AC
:102AF000213B6B017C01C092B10AD092B20AE092F4
:102B0000B30AF092B40A2091BD0A3091BE0A4091F6
:102B1000BF0A5091C00A60912C0270912D028091E1
:102B20002E0290912F020E94B03D4B015C0120913A
:102B30000002309101024091020250910302C7014C
:102B4000B6010E94B03D9B01AC01C501B4010E94D9
:102B5000223B3B014C01A0900802B0900902C090BA
:102B60000A02D0900B029B01AC01B501C6010E9484
:102B7000863B7501860187FD12C0E0903802F09017
:102B8000390200913A0210913B029301A401B7016E
:102B9000C8010E94763D181614F073018401950156
:102BA000A60160E070E08FE793E40E948A3B970102
:102BB000A8010E94B03D6093B50A7093B60A809355
:102BC000B70A9093B80A6BE070E080E090E00E9452
:102BD0006F0190933E0A80933D0A6091B50A70910F
:102BE000B60A8091B70A9091B80A0E94603C6B01C6
:102BF0007C010E94030781116CC3C701B6010E94CA
:102C0000BE06811166C320E030E040E853E4C7010E
:102C1000B6010E947A3C6B017C0120E030E0A90102
:102C20000E94863B87FF58C3C701B60190580E9497
:102C3000F73B619570E090E080E00E94253CAB019D
:102C4000BC0180913D0A90913E0A0E94380180911A
:102C5000570490915804019709F091C0C090040264
:102C6000D0900502E0900602F0900702A7019601BD
:102C70006091320A7091330A8091340A9091350A3A
:102C80000E94863B882341F0C092320AD092330AD8
:102C9000E092340AF092350A8091310A8111109243
:102CA000310ABE01675B7F4F8091360A0E94B704EC
:102CB0008091180290911902A0911A02B0911B0202
:102CC00089A79AA7ABA7BCA72D968CAD9DADAEAD3D
:102CD000BFAD2D974091490A50914A0A60914B0A25
:102CE00070914C0A841B950BA60BB70B89A39AA372
:102CF000ABA3BCA352E0E52EF12C0DE91AE021E0D4
:102D000030E0AE014F5D5F4F61E070E0CE0189962B
:102D10000E94040764E0E62EF12C0DE41AE022E0A4
:102D200030E04DE95AE062E070E08CE392E00E940E
:102D300004078E010F5F1F4F22E030E047E952E0A9
:102D400062E070E08DE99AE00E94040704E010E080
:102D50009E012F5E3F4F4FE150E064E070E0CE01F6
:102D600001960E94440A89899A89AB89BC8980931B
:102D7000B90A9093BA0AA093BB0AB093BC0A809197
:102D8000570490915804019709F0B9C06091B90AAD
:102D90007091BA0A8091BB0A9091BC0A22E030E09F
:102DA000AE014F5D5F4F0E94700C02E010E09E018B
:102DB000275C3F4F4EE150E062E070E0CE0181962B
:102DC0000E94560B8091140290911502A091160258
:102DD000B091170229968CAF9DAFAEAFBFAF2997C8
:102DE0008091450A9091460AA091470AB091480AFD
:102DF00025968CAF9DAFAEAFBFAF259742E0E42ED6
:102E0000F12C8E010F5D1F4F21E030E0AE014F5BD2
:102E10005F4F61E070E0CE018B5B9F4F0E94040723
:102E200022E030E0AE014F5C5F4FB801CE01C996A1
:102E30000E94860C8091100290911102A0911202C2
:102E4000B0911302892B8A2B8B2B09F057C242E0D9
:102E500050E06FE872E0CE01C1965CDD882309F492
:102E600040C288E0E7E8F2E0DE01999601900D9219
:102E70008A95E1F702E010E09E012F5E3F4F4EE1A0
:102E800050E062E070E0CE0189960E94440A898990
:102E90009A89AB89BC898093450A9093460AA0938E
:102EA000470AB093480A2D968CAD9DADAEADBFAD2F
:102EB0002D978093490A90934A0AA0934B0AB093A6
:102EC0004C0A409143045091440460914504709130
:102ED000460490E080E00E94D805809157049091CC
:102EE0005804019761F440914B0450914C04609157
:102EF0004D0470914E0481E090E00E94D805E0916D
:102F00005704F09158046996FFAFEEAF6997319777
:102F100009F0A7C1E091BE03F091BF030190F081D9
:102F2000E02D408051806280738080918E0390916B
:102F30008F03A0919003B09191036D968CAF9DAFDC
:102F4000AEAFBFAF6D97E0919203F0919303C08055
:102F5000D180E280F380E091C203F091C30300814D
:102F60001181E0918603F0918703A081B18163967E
:102F7000BFAFAEAF63972280338084819581659621
:102F80009FAF8EAF6597A681B7816796BFAFAEAF93
:102F90006797E0918403F09185031182108284E0A9
:102FA000F8016396AEADBFAD639701900D928A951F
:102FB000E1F7E091BC03F091BD0331822082B1DCE6
:102FC00020E030E040E05FE3C701B6010E94B03D81
:102FD0004B015C01F10120813181428153810E94CA
:102FE000B03D6396AEADBFAD63972D913D914D91D0
:102FF0005C910E94223BF8016083718382839383FA
:10300000E091BE03F091BF03808191812F969FAF25
:103010008EAF2F97A5019401C301B2010E94223BFC
:103020002F96AEADBFAD2F976D937D938D939C93EF
:103030001397E091BC03F091BD0365968EAD9FADF3
:1030400065979183808396DC6CDC20E030E040E47F
:103050005FE3C701B6010E94B03D4B015C0120E077
:1030600030E0A901C701B6010E94B03DD1012D9108
:103070003D914D915C910E94B03D61966CAF7DAFEA
:103080008EAF9FAF61976596EEADFFAD65972081DE
:10309000318142815381C501B4010E94B03D9B0141
:1030A000AC0161966CAD7DAD8EAD9FAD61970E9418
:1030B000223B6396AEADBFAD63972D913D914D918F
:1030C0005C910E94223BF801608371838283938329
:1030D000E091BE03F091BF03808191812F969FAF55
:1030E0008EAF2F97A5019401C301B2010E94223B2C
:1030F0002F96AEADBFAD2F976D937D938D939C931F
:103100001397E091BC03F091BD0367968EAD9FAD20
:103110006797918380832EDC04DC29E33EE843E655
:103120005EE3C701B6010E94B03DD1012D913D91F2
:103130004D915C910E94B03D4B015C012BEA3AEA53
:103140004AEA5EE3C701B6010E94B03D6596EEAD66
:10315000FFAD659720813181428153810E94B03D4E
:103160009B01AC01C501B4010E94223B4B015C01F3
:1031700029E33EE843EE5EE3C701B6010E94B03D9D
:103180006796AEADBFAD67972D913D914D915C9126
:103190000E94B03D9B01AC01C501B4010E94223BDD
:1031A0006396EEADFFAD63972081318142815381FB
:1031B0000E94223BD8016D937D938D939C9313972E
:1031C000E091BE03F091BF030190F081E02D6D9678
:1031D0008CAD9DADAEADBFAD6D9780839183A28365
:1031E000B383E0918403F09185036996AEADBFADE2
:1031F0006997B183A0838091430490914404A09186
:103200004504B09146040196A11DB11D809343046D
:1032100090934404A0934504B093460480918E0398
:1032200090918F03A0919003B0919103E0915A0483
:10323000F0915B0480839183A283B38380914B04DC
:1032400090914C04A0914D04B0914E040196A11DA3
:10325000B11D80934B0490934C04A0934D04B09304
:103260004E04C45ADF4F0FB6F894DEBF0FBECDBF79
:10327000DF91CF911F910F91FF90EF90DF90CF9052
:10328000BF90AF909F908F907F906F905F904F9086
:103290003F902F9008950115110509F0B2CBE091F0
:1032A000BE03F091BF030190F081E02D80819181F8
:1032B000A281B381F70180839183A283B383A1CBE1
:1032C00080910C0290910D02A0910E02B0910F021C
:1032D000B1CBC12CD12C7601C701B6010E94F73BBE
:1032E000A9CC19A61AA61BA61CA680E090E0A0E017
:1032F000B0E88DA79EA7AFA7B8ABBCCD23E030E068
:1033000049E75AE062E070E0CE01C1960E94EB0C02
:1033100003E010E02DE63AE04EE150E063E070E0BB
:1033200089E79AE00E94560B609110027091110299
:10333000809112029091130223E030E049E75AE0B5
:103340000E94700C1F9283E08F939E012F5F3F4F6E
:103350003F932F931F928F9381E9882E8AE0982EB6
:1033600093E0A92EB12C25E8C22E2AE0D22E34E01B
:10337000E32EF12C0DE51AE023E030E049E75AE0B6
:1033800063E070E08DE69AE045D922E030E0AE01DE
:10339000475D5F4F64E070E0C8010E94EB0C0F9046
:1033A0000F900F900F900F900F9064CD8F929F927F
:1033B000AF92BF92CF92DF92EF92FF920F931F9343
:1033C000CF93DF9384E090E00E948706EEE7F3E07E
:1033D00087E594E097838683CAE5D4E0D093BF0362
:1033E000C093BE0307E414E0158B048B2CE034E09B
:1033F00037AF26AF46E054E05093C3034093C20377
:103400002BE334E03093C1032093C0032DE334E079
:103410003093C5032093C40328E034E03093C703FE
:103420002093C6032AE034E03093C9032093C803F5
:103430002EE034E03093050420930404F093E90374
:10344000E093E803F583E48361E070E0DC016D93D1
:103450007C9383E294E063E174E0DC016D937C9300
:1034600067E174E070932604609325046BE174E0D7
:1034700070932804609327046FE174E070932A042A
:10348000609329046DEB7AE0DA016D937C9341EC53
:103490005AE0D9014D935C9310924F04109250045E
:1034A0001092510410925204918780871092FF036A
:1034B00081E892E0938782872CE534E03983288382
:1034C00040E050E060E87FEB409353045093540495
:1034D00060935504709356044AE057ED63E27CE331
:1034E000D8014D935D936D937C931397CBE2D4E019
:1034F00084E69DE0ACE9B4EE88839983AA83BB831C
:103500008CE39AE9A8EABDEB80932F0490933004F2
:10351000A0933104B093320487EB9FE3ABE7B2ECA6
:103520008093330490933404A0933504B09336040D
:1035300089E890E2ADE6BCE38093370490933804C9
:10354000A0933904B0933A04A2E7B3E0B383A28313
:10355000ECE6F3E01196FC93EE9386E892E091831B
:103560008083938382839583848381E494E015969A
:103570009C938E9314971396DC93CE931297179681
:103580003C932E9316971092BD0A1092BE0A109289
:10359000BF0A1092C00ACBE2DAE080E0C82E82E0D7
:1035A000D82E8091440290914502A0914602B0919C
:1035B00047028A8F9B8FAC8FBD8FF60184A195A1A6
:1035C000A6A1B7A18E8F9F8FA8A3B9A31C86812C1B
:1035D000912C540183948D869E86AF86B88AE12C07
:1035E000F12C8701A80197016BE070E080E090E08A
:1035F0000E94B3019B8B8A8B11E0198B1B8618826A
:10360000F60184819581A681B7818F839887A987E8
:10361000BA8789829A82AB82BC8246E35AE063E130
:1036200082E10E94AE031D831E828B85DF91CF91C4
:103630001F910F91FF90EF90DF90CF90BF90AF90D0
:103640009F908F900C94C9048091370A81112EC0ED
:1036500081E08093370A8091380A9091390AA091CD
:103660003A0AB0913B0A0197A105B105F9F480919E
:103670003C0A8823D9F06BE070E080E090E00E9483
:103680006F0190933E0A80933D0A40E050E0BA01FA
:103690000E9438016BE070E080E090E00E946F01D2
:1036A00090933E0A80933D0A0E94040280912B0A67
:1036B000811114C081E080932B0A80912C0A909193
:1036C0002D0AA0912E0AB0912F0A0197A105B105EC
:1036D00029F48091300A81110C94D60408954F92F8
:1036E0005F926F927F928F929F92AF92BF92CF9292
:1036F000DF92EF92FF920F931F93F8944090700423
:10370000509071046090720470907304C0906404CF
:10371000D0906504E0906604F09067044130510554
:1037200009F0A4C09B01AC012419350946095709C9
:1037300029013A0100916C0410916D0420916E04EE
:1037400030916F0448015901840C951CA61CB71CCC
:1037500080169106A206B306A0F4009168041091A9
:10376000690420916A0430916B040F5F1F4F2F4F43
:103770003F4F009368041093690420936A043093C8
:103780006B0480926C0490926D04A0926E04B092CF
:103790006F04009168041091690420916A043091CB
:1037A0006B048092740490927504A0927604B09297
:1037B0007704009378041093790420937A0430936B
:1037C0007B046093700470937104809372049093EF
:1037D0007304A0E1B7E2A30192010E9465466C0D5B
:1037E0007D1D8E1D9F1D60936404709365048093FE
:1037F0006604909367040091480210914902209159
:103800004A0230914B020F3F1F4F2F4F3F4FF1F0B5
:10381000009148021091490220914A0230914B02D6
:103820000E3F1F4F2F4F3F4F89F0C0904802D0905E
:103830004902E0904A02F0904B0221E08C149D0472
:10384000AE04BF0408F420E02093800478941F9114
:103850000F91FF90EF90DF90CF90BF90AF909F902F
:103860008F907F906F905F904F9008954B015C0117
:1038700084189508A608B708A3019201261B370BE8
:10388000480B590B6415750586059705D0F082160F
:103890009306A406B50640F420E030E0A9018114A7
:1038A0009104A104B10491F4A0E1B7E20E9465463D
:1038B000A7019601261B370B480B590BCA01B9010A
:1038C000C5CF82169306A406B50670F7A0E1B7E24D
:1038D000A50194010E9465466C0D7D1D8E1D9F1DE6
:1038E000B5CFFDCECF93DF9300D01F92CDB7DEB71B
:1038F0001C821B821A82198210927C0410927D0411
:1039000010927E0410927F04BE016F5F7F4FCE0144
:1039100003960E946F3969817A818B819C810E9414
:103920005D32009761F4BE016F5F7F4FCE01039659
:103930000E947B3969817A818B819C812FD50F9080
:103940000F900F900F90DF91CF910895FF920F93FA
:103950001F93CF93DF93082F60E070E0CB010E94AC
:103960005540FF24F3940E944631EC01892B89F0E5
:1039700010E0CE3F8FEFD80769F0002361F160E0DF
:1039800070E0CB010E94554081E090E0892B59F313
:1039900022C011E026D5EC01892B21F0CE3F8FEF1C
:1039A000D80759F711111EC011E0229609F410E052
:1039B0000E94F630EC01892B21F0CE3F8FEFD80723
:1039C000E1F6111111C011E0CE3F8FEFD80709F4D5
:1039D00010E001110BC0CE01DF91CF911F910F912B
:1039E000FF90089511E0E4CF11E0F3CF60E070E0C4
:1039F000CB010E9455401F25812F90E0C7CFCF9368
:103A0000DF9380918004882321F060E070E0CB0197
:103A10004DD636D6D0E0C0E0892B71F06AE070E078
:103A200080E090E00E94554081E090DF29D6219609
:103A3000C03D27E0D20781F728D60E94B13210920C
:103A4000980410929704109291041092920410928C
:103A500093041092940410928D0410928E0410928C
:103A60008F04109290041092890410928A0410928C
:103A70008B0410928C04109285041092860410928C
:103A8000870410928804109281041092820410928C
:103A90008304109284044EEF5FEF6FEF7FEF40934B
:103AA00048025093490260934A0270934B0210926D
:103AB0008004E4E7F4E028E0DF011D922A95E9F7AD
:103AC0001092700410927104109272041092730498
:103AD00010926C0410926D0410926E0410926F0498
:103AE000109268041092690410926A0410926B0498
:103AF0001092640410926504109266041092670498
:103B0000DF91CF9108951092A4041092A504109211
:103B1000A6041092A7041092A3048091AC04909183
:103B2000AD049093A2048093A1041092A00410927B
:103B30009F0410929B0410929C0410929D0410927A
:103B40009E041092A9041092A80490E080E00895C9
:103B5000CF92DF92EF92FF920F931F93CF938C013E
:103B6000019709F055C02091AC043091AD048091CB
:103B7000A1049091A2044091AC045091AD045093E3
:103B8000A2044093A1042817390781F01092A004E1
:103B900010929F0410929B0410929C0410929D041A
:103BA00010929E041092A9041092A8048091AC0473
:103BB0009091AD04019761F58091A8049091A904BA
:103BC000892B21F480914C02811112C08091A804AC
:103BD0009091A9040197E1F480919B0490919C0439
:103BE000A0919D04B0919E040197A105B10581F4B7
:103BF00010929B0410929C0410929D0410929E04BB
:103C000010924C0282E090E09093A9048093A80463
:103C10008091AC049091AD04019709F01CC1809192
:103C2000C2049091C3048017910709F014C18091D8
:103C3000BE049091BF04A091C004B091C10400974C
:103C400009F409C12091BD0421110DC04091BE04A9
:103C50005091BF046091C0047091C104452B462B64
:103C6000472B09F4F8C02091A8043091A904223010
:103C7000310509F0F0C020919F042111ECC0FC0136
:103C8000C080D180E280F3808091A304882309F46E
:103C9000D3C08091AF049091B004892B09F4FEC089
:103CA0002091AF043091B00481E02230310509F059
:103CB00080E02091AF043091B004C1E021303105A3
:103CC00049F02091AF043091B004C1E022303105B9
:103CD00009F0C0E0882309F456C02091B90430915E
:103CE000BA044091BB045091BC04C701B6010E94C4
:103CF000763D87FD14C02091B9043091BA044091FB
:103D0000BB045091BC046091A4047091A5048091FF
:103D1000A6049091A7040E94863B87FD22C02091B3
:103D2000B9043091BA044091BB045091BC04C7015E
:103D3000B6010E94763D181634F52091B9043091F1
:103D4000BA044091BB045091BC046091A4047091EA
:103D5000A5048091A6049091A7040E94863B81113E
:103D600012C08091B1049091B204A091B304B091BB
:103D7000B404892B8A2B8B2B19F481E08093A00447
:103D800081E080939F04CC2309F456C02091B904AC
:103D90003091BA044091BB045091BC04C701B601F4
:103DA0000E94863B87FF14C02091B9043091BA0469
:103DB0004091BB045091BC046091A4047091A5048F
:103DC0008091A6049091A7040E94763D87FF22C0AF
:103DD0002091B9043091BA044091BB045091BC04C5
:103DE000C701B6010E94863B811126C02091B9040B
:103DF0003091BA044091BB045091BC046091A4047A
:103E00007091A5048091A6049091A7040E94763D2C
:103E1000181694F48091B1049091B204A091B30467
:103E2000B091B404892B8A2B8B2B19F481E08093F9
:103E3000A00481E080939F0481E090919F04911100
:103E400080E08093A304C092A404D092A504E092E1
:103E5000A604F092A7040130110509F067C1809112
:103E6000A8049091A904892BD9F41092AE04109261
:103E70009F0480914C02882379F082E090E0909337
:103E8000A9048093A80410924C022091AC043091B4
:103E9000AD0481E0232BE9F080E01BC081E009CF75
:103EA00010924C028091AE04882349F01092A00435
:103EB0001092A9041092A8041092AE04EDCF809144
:103EC000AC049091AD04892BE1F080919F04109295
:103ED0009F042091A8043091A9042230310509F4EF
:103EE0005EC088F42115310509F448C02130310540
:103EF00009F4F3C01092A00410929F041092AE0433
:103F000038C081E0E6CF2330310509F4B1C0243058
:103F1000310581F740919B0450919C0460919D0470
:103F200070919E04411551056105710561F0415084
:103F300051096109710940939B0450939C0460935B
:103F40009D0470939E0440919B0450919C04609149
:103F50009D0470919E04452B462B472BD9F420914C
:103F6000AA043091AB042130310509F046C010920B
:103F7000A0041092A9041092A8040CC080914C02D5
:103F8000882341F082E090E09093A9048093A804F4
:103F900010924C02109299048091A004CEC0882304
:103FA000C9F38091B1049091B204A091B304B0918F
:103FB000B404181619061A061B060CF07DC0809171
:103FC000AC049091AD04019709F076C08091B104E2
:103FD0009091B204A091B304B091B40480939B0477
:103FE00090939C04A0939D04B0939E0483E090E082
:103FF0009093A9048093A804CDCF4091B50450912B
:10400000B6046091B7047091B804452B462B472B3A
:10401000A9F01092A0048091B5049091B604A091EB
:10402000B704B091B80480939B0490939C04A09330
:104030009D04B0939E0481E090E0DACF882399F04C
:1040400080914D0290914E02A0914F02B09150028A
:1040500080939B0490939C04A0939D04B0939E0432
:1040600084E090E0C5CF1092A00482E090E0C0CF41
:1040700080919B0490919C04A0919D04B0919E041A
:104080000097A105B10559F00197A109B1098093E5
:104090009B0490939C04A0939D04B0939E048091F4
:1040A0009B0490919C04A0919D04B0919E04892B47
:1040B0008A2B8B2B09F06ECF80914D0290914E028E
:1040C000A0914F02B0915002892B8A2B8B2B09F4BF
:1040D0004ECF81E08093A004B3CF40919B045091D8
:1040E0009C0460919D0470919E04411551056105E9
:1040F000710561F0415051096109710940939B04B8
:1041000050939C0460939D0470939E0440919B0483
:1041100050919C0460919D0470919E04452B462B08
:10412000472B09F037CF8111C7CF9FCF80919904DA
:10413000882309F431CF80919A04CF911F910F9178
:10414000FF90EF90DF90CF9008951092A40410920A
:10415000A5041092A6041092A7041092A304109232
:10416000A9041092A8041092A2041092A104109223
:10417000C3041092C2041092A00410929F041092E3
:104180009B0410929C0410929D0410929E04109225
:104190009A04109299041092BE041092BF041092D7
:1041A000C0041092C1041092BD041092B904109280
:1041B000BA041092BB041092BC0488EE93E0A0E015
:1041C000B0E080934D0290934E02A0934F02B093C3
:1041D00050021092B5041092B6041092B7041092D7
:1041E000B8041092B1041092B2041092B304109269
:1041F000B4041092B0041092AF0481E080934C029A
:104200001092AE041092AD041092AC041092AB0464
:104210001092AA0490E080E008958091AC049091FF
:10422000AD04892B19F580914C02882351F08091BF
:10423000AE04811106C081E080939A0480939904B2
:1042400008952091AE0430914C0281E090E0332338
:1042500011F090E080E030E082239323892B21F05D
:1042600010929A0481E0EACF10929904089582E0B6
:1042700090E0FA01918380838FEF9FEF0895CF93B1
:10428000DF93EA01009711F00E94D133198218825E
:1042900090E080E0DF91CF910895DB01009719F461
:1042A0008FEF8C9308952EEF2C93FC013F96EF3007
:1042B000F10508F034C08827EF59FE4D8F4F0C945C
:1042C0005D468D218B2189218721852181218321B3
:1042D0007F217D217B2178217421702176218F21FE
:1042E00080E311968C93089589E2FBCF82E2F9CFA7
:1042F00011961C92089583E2F4CF81E2F2CF81E11E
:10430000F0CF87E2EECF8AE2ECCF80E1EACF84E221
:10431000E8CF88E2E6CF86E2E4CF81E3E2CF80E235
:10432000E0CF8091D0049091D10408959093D1046E
:104330008093D00408958091CF0408959091CF0484
:10434000892B8093CF040895982F90958091CF0466
:1043500089238093CF0408958091CE04089580919D
:10436000CC049091CD0408956115710559F0FB01BD
:1043700030E020E070E060E02417350719F06115A7
:10438000710511F0CB010895A081B181A817B9077B
:1043900009F4BF012F5F3F4F3696EECF8091D204D4
:1043A00081111CC060D266D29093C5048093C4046E
:1043B0000E94CF2B0E94E12B9093C9048093C804E4
:1043C0000E945E300E9465309093C7048093C604BB
:1043D00081E08093D20490E080E0089584EF9FEF25
:1043E00008958F929F92AF92BF92CF92DF92EF92F9
:1043F000FF920F931F93CF93DF9300D000D000D094
:104400001F92CDB7DEB71A86198618861F821E82C4
:104410001D821C821B821A8219828091D20407EFAE
:104420001FEF882309F49CC08E010D5F1F4F9E0172
:104430002B5F3F4FAE01495F5F4FBE01675F7F4F0C
:1044400090E080E00E94E2318C01009721F0059617
:10445000029708F0DBC029853A852115310509F45A
:1044600002C1ED80FE804B815C81B701640F751F36
:104470008F8198858617970708F4F5C0E20EF31E22
:10448000D7019C91903C09F07FC04230510508F45F
:104490007BC011968C914091D0045091D104452B52
:1044A00009F49CC0913F08F071C02CE1290F2D3018
:1044B00008F48BC02DE2290F203108F489C0903C0C
:1044C00021F48150823008F483C088E3890F8B3057
:1044D00008F481C09DE4C92E91E2D92EE7E3F1E210
:1044E0006D817E81AE014F5F5F4F89859A851995F9
:1044F0005C01C114D104A1F189809A8081149104D6
:1045000079F18B819C818815990508F487C010E0AA
:1045100000E04B815C8170E060E0C7010E9487464B
:1045200001151105E9F449815A8169857A858D81E2
:104530009E81680F791FC501F6011995E980FA80FF
:104540000D811E812F81388549855A856FEF7FEF58
:1045500081E090E00E947D318C01892B09F056C0EA
:10456000C8012A960FB6F894DEBF0FBECDBFDF910B
:10457000CF911F910F91FF90EF90DF90CF90BF9060
:10458000AF909F908F90089580E085CF30E020E03D
:10459000220F331FF901EC53FB4F0190F081E02D06
:1045A000309709F497CF892F90E01995009709F477
:1045B00091CFDC011296ED91FC9113971496CD905A
:1045C000DC90309709F08CCF1FC021E030E0E0CFC5
:1045D00022E030E0DDCF23E030E0DACFD12CC12C77
:1045E000EFE3F1E29F3F09F07BCFE091C404F0914B
:1045F000C504309721F4C90104EF1FEF0CC08FEF01
:1046000090E019950097A9F604EF1FEF89859A8528
:10461000009709F4A5CF0E94D133A2CF0E94AC32FB
:104620008C0189859A850E94D13370E060E0C401D5
:104630000E94453298878F830E947A319E838D83B2
:104640006F8178856115710559F0C8010E945D354B
:104650009A87898706EF1FEF892B09F058CF59CF2A
:1046600008EF1FEF56CF08EF1FEFD0CF2091D204F5
:10467000222319F020E00C94E62B87EF9FEF08959A
:104680008091D0049091D10408950E946A300E94D4
:10469000C42FF5D0E4ECF4E088E0DF011D928A95A8
:1046A000E9F71092D20490E080E008950C94222E55
:1046B00021E040E050E0BA010C94E62B86E090E067
:1046C000FA019183808390E080E0089547E050E014
:1046D00061EA72E049CEDF92EF92FF920F931F934F
:1046E000CF93DF938A01EC01C60FD71FE090D60469
:1046F000F090D704D9800E949432D816190678F029
:1047000082E090E0F801918380838EEF9FEFDF914C
:10471000CF911F910F91FF90EF90DF900895EF28B8
:1047200041F482E090E0F8019183808384EF9FEF71
:10473000EECF89818093D50490E00196F8019183B2
:10474000808390E080E0E3CFCF93DF93EA010E9483
:10475000D32E882321F00E94A1320E94D42E82E021
:1047600090E0998388838BEF9FEFDF91CF9108953D
:10477000CF93DF93EB0186E0FB0111928A95E9F775
:104780008FEF8883D8DD8983E7DD8A83E8DD9D8329
:104790008C83DF91CF910895CF93DF93EA010E943C
:1047A000D62E811109C082E090E09983888385EF3D
:1047B0009FEFDF91CF91089590E080E0B7DD81E039
:1047C00090E09983888390E080E0F3CF0F931F936C
:1047D000CF93DF93EA018C01060F171F0E94D62E9C
:1047E00081110BC082E090E09983888385EF9FEF71
:1047F000DF91CF911F910F910895F801818182304F
:1048000038F082E090E0998388838EEF9FEFF0CFBD
:1048100081E090E08BDD88E090E09983888390E0F0
:1048200080E0E6CFCF93DF930097D1F4EB01FB015B
:10483000329686E0DF011D928A95E9F78FEF888333
:1048400085E089831A820E9494328B830E9493327E
:104850009D838C8381E08E838F83DF91CF91089538
:10486000DF91CF911ACD86E693E29093D4048093A2
:10487000D30408958091D3049091D40408951092A4
:10488000D4041092D30408958091D6049091D70453
:104890000895411105C0611571058105910561F00B
:1048A0006093D6047093D7048093D8049093D9046E
:1048B0004093DA0481E0089580E00895FF920F9319
:1048C0001F93CF93DF938A01EC01C60FD71FF980A6
:1048D0000E949432F816190668F082E090E0F80120
:1048E000918380838EEF9FEFDF91CF911F910F9186
:1048F000FF9008956C817D818E819F814B81C9DFFE
:10490000811108C082E090E0F8019183808384EFF8
:104910009FEFEACF89818093D50490E00196F8015A
:104920009183808390E080E0DFCFCF93DF93EA0133
:10493000FC01E60FF71F64817581868197814381B1
:10494000A8DF811109C082E090E09983888384EF19
:104950009FEFDF91CF91089581E090E09983888364
:1049600090E080E0F6CFE6EDF4E040815181628195
:104970007381480F511D611D711D408351836283F6
:1049800073830895CF93C091D5044C2F50E060916C
:10499000D6047091D70401960E947E468C2FE3DFE7
:1049A0001092D504CF910895009799F48091D60480
:1049B0009091D7042FEFFB012083892B59F0209190
:1049C000D50430E02F5F3F4F2417350719F4CB0192
:1049D000D9CF63CC0895009799F48091D604909133
:1049E000D7042FEFFB012083892B59F02091D504A8
:1049F00030E02F5F3F4F2417350719F4CB01C2CFAA
:104A00004CCC089523E1AC01249FC001259F900D5B
:104A10001124E091DF04F091E004E80FF91F2381F5
:104A200034812250310981E02230310508F080E0E4
:104A300008950F931F93CF93DF930091E10410919A
:104A4000E204D0E0C0E080E00C171D0749F491E0DB
:104A5000811190E0892FDF91CF911F910F910895DF
:104A60008111F5CFCE01CEDF2196EECFA091DF04EC
:104A7000B091E004109729F12091E1043091E20413
:104A800082179307F0F453E1589F9001599F300D1E
:104A90001124A20FB31FED91FC911197309789F06B
:104AA00012968C91681768F48DE0689FE00DF11DF7
:104AB000112480819181892B21F081E09281491715
:104AC00008F080E008959C0143E1429FC001439FAC
:104AD000900D1124E091DF04F091E004E80FF91F3C
:104AE0008385823091F481E090E065817681409108
:104AF0005102509152026417750711F490E080E062
:104B0000892B19F081E0232B09F080E00895FC0146
:104B1000A081B1818DE0689FA00DB11D1124139675
:104B20004D915C9185859685489F9001499F300DF8
:104B3000589F300D1124C9010196611103C04781AE
:104B400044FD04960895EF92FF920F931F93CF9325
:104B5000DF93EA01FC01E60FF71F02811381E48075
:104B6000F5804F2D6E2DC80181DF81110DC082E0CF
:104B700090E0998388838EEF9FEFDF91CF911F9113
:104B80000F91FF90EF900895C8013CDF882339F022
:104B900082E090E09983888388EF9FEFEECF1093B7
:104BA000580200935702E0925902F0925A0281E0B3
:104BB00090E09983888390E080E0DFCFCF92DF920E
:104BC000EF92FF920F931F93CF93DF937A01EC0143
:104BD000C60FD71FC0905702D090580200915902BB
:104BE00010915A02412F602FC60140DF811110C081
:104BF00082E090E0F701918380838AEF9FEFDF915D
:104C0000CF911F910F91FF90EF90DF90CF9008957B
:104C1000C601F8DE882341F082E090E0F70191833D
:104C2000808388EF9FEFEBCF4C815D816E817F8128
:104C30009A8189818F3F41F082E090E0F701918372
:104C400080838EEF9FEFDBCFE3E1EC9D9001ED9D44
:104C5000300D1124E091DF04F091E004E20FF31F26
:104C60000190F081E02D2DE0029FE00DF11D112457
:104C70000190F081E02D27E0129FE00DF11D11243D
:104C8000808391838B81828343835483658376837E
:104C90001F5F10935A0281E090E0F70191838083B7
:104CA00090E080E0ACCFEF92FF920F931F93CF93F1
:104CB000DF937A018C01060F171FC091DF04D0919A
:104CC000E004209781F021E030E0F80182819381B7
:104CD0004091E1045091E2048417950710F030E010
:104CE00020E0232B71F482E090E0F7019183808330
:104CF0008EEF9FEFDF91CF911F910F91FF90EF907B
:104D0000089543E1489F9001499F300D1124C20F3F
:104D1000D31F78DE882341F082E090E0F701918391
:104D2000808388EF9FEFE6CFF8012481358120381A
:104D30003105C8F687818111D6CF4181842F90E05B
:104D40008F7E009741F082E090E0F70191838083AD
:104D500086EF9FEFCFCF4F833E832D832681288719
:104D60001986223010F421E0288721E030E0F70195
:104D700031832083BFCF88E090E0FA019183808364
:104D800090E080E00895FB018FEF808381E18183D3
:104D90008FEF9FEF9383828380E890E095838483F5
:104DA000168217820895FB018FEF808391E0918333
:104DB00082839383848384E3858381E090E0978377
:104DC00086830895DF92EF92FF920F931F93CF9304
:104DD000DF93EA01FC01E60FF71F8181813071F05A
:104DE00082E090E0998388838FEF9FEFDF91CF91EE
:104DF0001F910F91FF90EF90DF9008958281938132
:104E0000D4802581E680F7800091DF041091E004D2
:104E10000115110539F482E090E0998388838CEFC5
:104E20009FEFE4CF4091E1045091E204841795078D
:104E300038F082E090E0998388838EEF9FEFD6CFA1
:104E4000892B39F082E090E09983888386EF9FEF89
:104E5000CDCF8D2D8D7FB1F72130A1F781E0D1101D
:104E600006C091E0E916F10431F080E004C0E2E010
:104E7000EE16F104D0F3882329F390E080E0C2DD40
:104E8000882339F082E090E09983888388EF9FEF50
:104E9000ADCFF801D38681E08487F686E586108A57
:104EA000178681E090E09983888390E080E09ECF30
:104EB0004CE050E06BEC72E057CA8F929F92BF9229
:104EC000CF92DF92EF92FF920F931F93CF93DF93D6
:104ED000EA01FC01E60FF71F828193810481B5800E
:104EE000E091DF04F091E004309791F482E090E0EB
:104EF000998388838CEF9FEFDF91CF911F910F9162
:104F0000FF90EF90DF90CF90BF909F908F9008958B
:104F10002091E1043091E2048217930738F082E097
:104F200090E0998388838EEF9FEFE6CF23E1289F5F
:104F30006001299FD00C1124EC0DFD1DE080F18053
:104F4000E114F10499F28281081748F78DE0089F77
:104F500080011124E00EF11EF70180819181892BDF
:104F600029F6BB20E1F2F7E0BF9E40011124C40105
:104F70000E949833F70191838083E091DF04F091E0
:104F8000E004EC0DFD1D0190F081E02DE00FF11F1C
:104F900080819181009739F482E090E09983888341
:104FA0008DEF9FEFA9CFA40170E060E00E948746DB
:104FB0008091DF049091E004C80ED91EF601808133
:104FC0009181080F191FF801B28281E090E0998366
:104FD000888390E080E090CFAF92BF92CF92DF9233
:104FE000FF920F931F93CF93DF93EA01FC01E60F2B
:104FF000F71F82819381F4800091DF041091E00417
:105000000115110581F482E090E0998388838CEF8B
:105010009FEFDF91CF911F910F91FF90DF90CF9085
:10502000BF90AF9008952091E1043091E20482177F
:10503000930738F082E090E0998388838EEF9FEFAA
:10504000E8CF2FEF2F0D2C3FA8F723E1289F600119
:10505000299FD00C11240C0D1D1DF8018081918118
:10506000892B89F6FDE0FF9E50011124C5010E94A5
:105070009833F80191838083E091DF04F091E0049C
:10508000EC0DFD1D80819181009739F482E090E064
:10509000998388838DEF9FEFBCCFA50170E060E01E
:1050A0000E948746E091DF04F091E004EC0DFD1DC5
:1050B000F28281E090E09983888390E080E0A9CF3C
:1050C000CF92DF92EF92FF920F931F93CF93DF93D4
:1050D000860F971FFC01028113818091DF0490915C
:1050E000E004892B81F082E090E0FA0191838083D3
:1050F0008CEF9FEFDF91CF911F910F91FF90EF9079
:10510000DF90CF900895C801B0E0A0E00197A10919
:10511000B1098F3F9F4FA105B10540F082E090E0BB
:10512000FA01918380838EEF9FEFE4CF7A0183E1D0
:10513000809F6001819FD00C1124C6010E9498338A
:10514000EC01009741F482E090E0F70191838083C5
:105150008DEF9FEFCFCFA60170E060E00E94874601
:10516000D093E004C093DF041093E2040093E104C1
:1051700090E080E02FEF3FEF41E061E070E08017CA
:10518000910741F481E090E0F7019183808390E002
:1051900080E0B0CF3A8B298B1B864C877E876D874A
:1051A000188A1F8601966396EACFEF92FF921F93AB
:1051B000CF93DF93EC0110E0F12CE12C6A811617FC
:1051C000B0F083E0689FB0011124AE014F5E5F4FE5
:1051D000C7010E94FD33009721F02FEF3FEF3A8B7C
:1051E000298BDF91CF911F91FF90EF900895612F50
:1051F000CE018DDC61E070E00E944532E816F906D0
:1052000008F47C011F5FDACFF8942091DD0430911F
:10521000DE0481E02115310509F080E0232B09F03F
:10522000789408952F923F924F925F926F927F925F
:105230008F929F92AF92BF92CF92DF92EF92FF92A6
:105240000F931F93CF93DF933C01660E771EF301FC
:10525000828193814C01B12CA12CC091DF04D091AB
:10526000E004209769F021E030E06091E104709162
:10527000E2048617970710F030E020E0232BD1F4EA
:1052800082E090E0FA01918380838EEF9FEFDF91BF
:10529000CF911F910F91FF90EF90DF90CF90BF9033
:1052A000AF909F908F907F906F905F904F903F90C6
:1052B0002F90089580925B0290925C02A0925D0212
:1052C000B0925E0263E1689F9001699F300D1124E6
:1052D000C20FD31FF3018181833040F082E090E060
:1052E000FA019183808386EF9FEFD1CF2A012B8132
:1052F0003C81232BF1F4288139819F8191FF2EC0BD
:10530000232B09F46FC02091E4049A81422F490FA6
:105310005527551FBA0141E050E06138710514F07E
:1053200050E040E0452B09F45DC02A87920F90932E
:10533000E4048150823008F481C066DF882309F4D8
:10534000D8C0F3018181813009F48DC008F47BC09D
:10535000823009F4C6C090E080E0ADC0232B09F490
:1053600041C02091E3049A81E22FE90FFF27FF1F3C
:1053700041E050E0ED3FF10514F050E040E0452BF6
:1053800089F12A87920F9093E304D3CFA081B18152
:10539000A20FB31F11966C91060F111D0196295F84
:1053A0003F4F8417950794F38D859E85089F1001C4
:1053B000099F300C189F300C1124C114D104D1F472
:1053C0008F8184FF17C00E949332F5E02F0E311CAD
:1053D00021E08215930508F420E0A701435F5F4FA9
:1053E00021110EC082E090E0F2019183808387EF6B
:1053F0009FEF4DCF0E9493322FEF221A320AE8CF4F
:1054000088819981E80EF91EF70114830383FFEF69
:10541000CF1ADF0A7A018A818C151D0409F00CF479
:105420008CCFE881F981EE0DFF1D428150E030E024
:1054300020E010E000E090E080E0B3CFF12CE12C20
:10544000D12CC12CE8CF81E090E09C838B83F1DAF2
:10545000882309F480CF81E090E00E94962180E4C7
:105460000E94A42178CF89899A89019661F083E00E
:1054700090E09C838B8382E090E00E94962180E400
:105480000E949E2168CF8D819E8120915102309192
:10549000520282179307D1F460915502709156021F
:1054A000AE014F5E5F4F80915302909154020E9473
:1054B0001C350097E1F2789422E030E0F20131836C
:1054C0002083892B99F08DEF9FEFE1CE89288A28E0
:1054D0008B2869F6029758F6CE0167DE188A1F8678
:1054E000E8CF82E090E09C838B8335CF90E080E032
:1054F000CECE82E090E0F2019183808385EF9FEF32
:10550000C6CE8F929F92AF92BF92CF92DF92EF92D0
:10551000FF920F931F93CF93DF93EA018C01060F45
:10552000171FF8018181833098F082E090E0998321
:10553000888386EF9FEFDF91CF911F910F91FF90AE
:10554000EF90DF90CF90BF90AF909F908F90089595
:105550008091DF049091E004892B61F081E090E07C
:105560002091E1043091E204232B11F490E080E0DB
:10557000892B39F482E090E0998388838EEF9FEF46
:10558000DACF42DE882309F4E0C0F801818181305E
:1055900009F496C0E8F0823099F42091E10430914A
:1055A000E204E091DF04F091E00490E080E041E06B
:1055B00050E02817390709F0BEC03BDA811117C047
:1055C000789481E090E09983888390E080E0B3CF85
:1055D0002091E1043091E204E091DF04F091E004D5
:1055E00090E080E041E050E02817390741F481E085
:1055F00090E00E94962180E40E94A421E1CF638183
:105600007481672B11F05483438301967396ECCF1A
:10561000E091DF04F091E004E00FF11F2381348179
:1056200022303105D9F4218932892F3F3F4FB1F41F
:10563000258136814091510250915202241735073D
:1056400061F5AF014F5E5F4F609155027091560258
:1056500080915302909154020E941C35EFEFCE1AB4
:10566000DE0AEE0AFE0A0D5E1F4F4091E1045091E2
:10567000E20470E060E0C416D506E606F70644F5DD
:10568000009731F27894892B09F49BCF82E090E067
:10569000998388838DEF9FEF4ECFC114D104E1042D
:1056A000F104E1F622303105C8F6CF017EDDE0914C
:1056B000DF04F091E004E00FF11F108A1786CECFCF
:1056C00010E000E090E080E0C12CD12C7601CDCF3D
:1056D0000097C1F610E000E0812C912C540183E08A
:1056E000E82EF12C1AC0E091DF04F091E004E00F05
:1056F000F11F83819481029749F4F482E38282E06E
:1057000090E00E94962180E40E949E21FFEF8F1A74
:105710009F0AAF0ABF0A0D5E1F4F8091E10490916E
:10572000E204B0E0A0E088169906AA06BB06DCF207
:1057300090E080E0A7CF638174816230710511F43D
:10574000548343830196739634CF82E090E099832B
:10575000888385EF9FEFEFCE0097B9F48FEFFB01C1
:10576000808320915B0230915C0243E1429FC00143
:10577000439F900D1124E091DF04F091E004E80FC5
:10578000F91F8285FB01818308950C944D2188E0E7
:1057900090E0FA019183808390E080E00895109278
:1057A000DE041092DD04EFEDF4E086E0DF011D92EF
:1057B0008A95E9F788E597E29093DC048093DB040F
:1057C00008958091DB049091DC0408952F923F921C
:1057D0004F925F926F927F928F929F92AF92BF9201
:1057E000CF92DF92EF92FF920F931F93CF93DF93AD
:1057F000CDB7DEB72F970FB6F894DEBF0FBECDBF83
:10580000F894E091DD04F091DE043196F093DE042B
:10581000E093DD0478944090DF045090E00441145C
:10582000510409F40CC2E091E104F091E204EF2B81
:1058300009F405C22D8749875A876B877C8798872B
:105840008F831201B12CA12C10E000E08091E104C3
:105850009091E204A816B90618F40115110529F172
:10586000F8948091DD049091DE0401979093DE041A
:105870008093DD047894C8012F960FB6F894DEBFAC
:105880000FBECDBFDF91CF911F910F91FF90EF9091
:10589000DF90CF90BF90AF909F908F907F906F9050
:1058A0005F904F903F902F9008957101E418F50894
:1058B000D10117968C91179781FD54C013968D9145
:1058C0009C911497039709F04DC015968D919C916A
:1058D000EF81F8858E179F0709F044C0B50190E06D
:1058E00080E07FD48A832091DF043091E0043D83FF
:1058F0002C833D85332309F44CC04C815D81452BBD
:1059000009F49AC18091E1049091E204A816B906C5
:1059100008F092C1C501D7D88823E9F06C817D8158
:105920006E0D7F1D7D836C83DB011F968D919C9195
:10593000892B89F0D12CC12CF12CE12CAC81BD81BB
:1059400012968C9112978E151F0409F094F45096BC
:105950001C921E921F972A81222321F0B50190E00C
:1059600080E041D43FEFA31AB30A43E1240E311C77
:105970006DCFAC81BD81ED91FC91EC0DFD1D85815C
:1059800096810FD7BFEFEB1AFB0AEDE0CE0ED11CCC
:10599000D5CFEC81FD81309709F44EC18091E104AF
:1059A0009091E204A816B90608F046C1EE0DFF1D5D
:1059B000FF87EE87C50187D88B83882339F1AE85B1
:1059C000BF851F968D919C915097019621E01D9661
:1059D0004D915C918417950709F020E02E83198280
:1059E000712C10E000E0AE85BF8512968C91781680
:1059F00008F45DC0EE85FF858785908901966585F1
:105A000076850E942746908B8787A5CFB1E0BE831D
:105A1000E6CF992493946BC08BD6F6019683858349
:105A200082C0D601ED90FC90B7E06B9EE00CF11CBB
:105A30001124F7016381748180818F3F61F121E03E
:105A400030E002C0220F331F8A95E2F7C901092E08
:105A5000000CAA0BBB0BFB01408151816281738159
:105A600084239523A623B72321E0892B8A2B8B2B14
:105A700009F420E0D4012C93D70111968C91F60102
:105A800023853485820F932F911D880E991E1486CD
:105A9000138663949BC0418150E0C4010E947E46FE
:105AA000EBCF998206EF1FEFC5C01982C3C0F98101
:105AB000F111A0CFEDE07E9E70011124AE85BF856F
:105AC000CD90DC90CE0CDF1C15D49D838C83BB81E4
:105AD000BB2309F49ECF81E0EE85FF8527853089C1
