:10000000F8C000000C9449290C9474290C949F2981
:100010000C94CA290C94F5290C94202A0C944B2A90
:100020000C94762A17C1000015C1000013C100000E
:1000300011C100000FC100000DC100000BC1000084
:1000400009C1000007C1000005C1000003C1000094
:1000500001C10000FFC00000FDC000000C94A12AF7
:10006000F9C000000C94982E0C94CE2EF3C0000022
:10007000F1C00000EFC00000EDC00000EBC00000C8
:10008000E9C00000E7C00000E5C00000E3C00000D8
:100090000C94242F0C945A2FDDC00000DBC000000C
:1000A000D9C00000D7C00000D5C00000D3C00000F8
:1000B000D1C00000CFC00000CDC00000CBC0000008
:1000C000C9C00000C7C000000C94F5250C94B02FE7
:1000D0000C94E62FBFC000000C943C300C9472309E
:1000E000B9C0000000000A0B02090C0D0E0807033E
:1000F00004010000000000000000000000000000FB
:1001000000000000000000000000000000000000EF
:1001100012111000000000000000000000000000AC
:100120000000000000000000000001021020200874
:100130000810204010204080020102010804020142
:1001400001020408102040808040201008040201B1
:10015000800402018040201008040201080402010A
:100160000102040810204080010204081020408091
:1001700005050505070508080808020202020A0A23
:100180000808040404040101010101010101030341
:10019000030303030303040707070C0C0C0C0C0CEC
:1001A0000C0C0202020206060606060606060B0BE9
:1001B0000B0B0B0B0B0B00002200250028002B0063
:1001C0002E003100340002010000050108010B017E
:1001D00000002100240027002A002D0030003300F9
:1001E00001010000040107010A01F72E832F0F30DF
:1001F0009B3011241FBECFEFD1E2DEBFCDBF00E0A8
:100200000CBF12E0A0E0B2E0EEEBF2E600E00BBFC4
:1002100002C007900D92A63DB107D9F728E0A6EDE0
:10022000B2E001C01D92A532B207E1F710E0C9EFBC
:10023000D0E000E006C021970109802FFE010E9456
:100240002C31C53FD10780E00807A9F70E94F826A6
:100250000C945D31D5CECF93DF93882349F0EB0129
:1002600081500E94A82B99838883DF91CF910895B4
:10027000FB0111821082F9CF0F931F938B019C0118
:1002800083E036952795179507958A95D1F7015202
:100290001D4F462F477021E030E0F90102C0EE0FFC
:1002A000FF1F4A95E2F7AF01F80120812423CB011B
:1002B0000196211102C090E080E01F910F910895F6
:1002C0000F931F938B019C0183E03695279517951B
:1002D00007958A95D1F7677081E090E001C0880F9B
:1002E0006A95EAF7F801E152FD4F2081452B31F480
:1002F0008095822380831F910F910895822BFACFDE
:10030000CF92DF92EF92FF92CF93DF936B017C014C
:1003100060E086E3C816D104E104F10490F486E3BA
:100320008C0D0E94052DE6012196AE01C701B60194
:10033000C7DFCE01DF91CF91FF90EF90DF90CF909C
:1003400008958C2DEECF882341F08150682F70E006
:1003500090E080E050E040E0B3CF0895611102C02A
:100360000C94052D6130E1F362E0FACF662319F0B9
:1003700061E00C94412D60E0FCCFCF92DF92EF92D0
:10038000FF92CF93882351F16A017B01CFEFC80F11
:1003900020E030E0A901CB01B6010E9480271816A9
:1003A0008CF0C701B60190580E9489279B01AC01CF
:1003B0006C2F70E090E080E0CF91FF90EF90DF90A5
:1003C000CF90B2C0C701B6010E9484278C2FCF9175
:1003D000FF90EF90DF90CF900C94CB2BCF91FF90BC
:1003E000EF90DF90CF9008950F931F938B019C01A6
:1003F00083E036952795179507958A95D1F70A5288
:100400001D4F462F477021E030E0F90102C0EE0F8A
:10041000FF1F4A95E2F7AF01F80120812423CB01A9
:100420000196211102C090E080E01F910F91089584
:100430000F931F938B019C0183E0369527951795A9
:1004400007958A95D1F7677081E090E001C0880F29
:100450006A95EAF7F801EA52FD4F2081452B31F405
:100460008095822380831F910F910895822BFACF6C
:100470002F923F924F925F926F927F928F929F92B4
:10048000AF92BF92CF92DF92EF92FF920F931F93A2
:10049000CF93DF93D62EC72E782E692E49015A01AD
:1004A000280161E08D2D0E94052DCD2DDC2D8E01C2
:1004B0000F5F1F4FA8016D2D7C2D872D962DB8DF66
:1004C00020E030E0A901C201B7010E943F281816C0
:1004D00064F4C201B7010E9489272B01C501B40150
:1004E0000E948927A201CE0123D0C801DF91CF91BC
:1004F0001F910F91FF90EF90DF90CF90BF90AF9042
:100500009F908F907F906F905F904F903F902F9033
:100510000895882341F08150682F70E090E080E0DA
:1005200050E040E085CF0895862FB9010C94CB2B85
:100530009C01FC01EC51FF4FE491E150E231E0F409
:10054000F0E08827E955FD4F8F4F0C942C31B9020C
:10055000C002C302DA02EF02BC0204031003140358
:100560002B03400355036C038103BC029603AD03C8
:10057000C20384B5806884BD60E0822F0C94412D55
:1005800084B58062F8CF809180008C7F82608093F8
:10059000800080918100807E8061682B6093810063
:1005A00050938700409386008091800080688093FC
:1005B0008000E2CF809180008C7F826080938000F9
:1005C00080918100807E8061682B609381005093D0
:1005D000870040938600809180008062E8CF809100
:1005E00080008C7F82608093800080918100807E7B
:1005F0008061682B60938100509387004093860050
:10060000809180008860D3CF8091B0008068809313
:10061000B0008091B100887F682B6093B100ACCFAF
:100620008091B0008062F3CF809190008C7F8260D7
:100630008093900080919100807E8061682B609310
:1006400091005093970040939600809190008068AD
:100650008093900091CF809190008C7F82608093F6
:10066000900080919100807E8061682B6093910062
:100670005093970040939600809190008062E8CF5D
:10068000809190008C7F8260809390008091910097
:10069000807E8061682B6093910050939700409317
:1006A0009600809190008860D3CF8091A0008C7FCD
:1006B00082608093A0008091A100807E8061682B81
:1006C0006093A1005093A7004093A6008091A000E2
:1006D00080688093A00050CF8091A0008C7F8260C2
:1006E0008093A0008091A100807E8061682B609340
:1006F000A1005093A7004093A6008091A0008062C3
:10070000E8CF8091A0008C7F82608093A0008091D0
:10071000A100807E8061682B6093A1005093A700A8
:100720004093A6008091A0008860D3CF80912001E3
:100730008C7F82608093200180912101807E806186
:10074000682B6093210150932701409326018091EB
:1007500020018068809320010FCF809120018C7F41
:1007600082608093200180912101807E8061682BCE
:10077000609321015093270140932601809120012D
:100780008062E8CF809120018C7F8260809320017D
:1007900080912101807E8061682B609321015093BC
:1007A000270140932601809120018860D3CF90E0FB
:1007B00080E008950F931F93009709F487C0611597
:1007C000710509F483C0009108021091090220917B
:1007D0000A0230910B020E3F1F4F2F4F3F4F09F07F
:1007E00066C04FEF5FEFBA014093080250930902D1
:1007F00060930A0270930B02409108025091090223
:1008000060910A0270910B02DC011296ED91FC914D
:1008100080819181A281B381809365039093660367
:10082000A0936703B093680384819581A681B78103
:100830008093610390936203A0936303B093640376
:1008400080859185A285B38580935D0390935E0337
:10085000A0935F03B093600384859585A685B785D3
:100860008093590390935A03A0935B03B0935C0366
:10087000109255031092560310925703109258038A
:10088000A0D586E09AE09093E9028093E8029093E5
:10089000EB028093EA0284D4009731F421E030E047
:1008A00030936A03209369031F910F91089500917B
:1008B00008021091090220910A0230910B02DB011B
:1008C0000D931D932D933C93139796CF8FEF9FEF2E
:1008D000EBCF8F929F92AF92BF92CF92DF92EF9227
:1008E000FF921F93CF93DF934B015C0110916C0338
:1008F00082E090E090936A038093690381149104ED
:10090000A104B10441F480916C03811104C0809171
:100910006B03C1E08111C0E0C12CD12C7601809124
:100920006C03811106C080916B03811102C0CC233E
:10093000D9F083E090E090936A0380936903CC231D
:1009400079F1CCE9DFEF111102C00E946A0DCE01EE
:10095000DF91CF911F91FF90EF90DF90CF90BF90EC
:10096000AF909F908F9008956AE070E080E090E0F3
:100970000E94102B80E1C80E87E2D81EE11CF11CFA
:100980008FEF88169806A806B80631F0C1E08C14DF
:100990009D04AE04BF0408F0C0E080E035D4BFCFB2
:1009A000D0E0C0E0D0CFCF92DF92EF92FF920F93D2
:1009B0001F93CF93DF938F3F910511F008F050C044
:1009C0002091690330916A032330310539F0209179
:1009D000690330916A032130310531F424E030E0BD
:1009E00030936A03209369036A017B01EC01823032
:1009F0009105A0F011E0AE01C701B601D0D3AB0163
:100A0000BC01CE011123F9F0DF91CF911F910F911D
:100A1000FF90EF90DF90CF900C94930F8C01000F1C
:100A2000111F08511D4FD8018D919C91892B11F3F5
:100A30000E949D0F0297F1F6D801ED91FC91CE0135
:100A40001995182FD8CF0E94B50F90E080E0DF9164
:100A5000CF911F910F91FF90EF90DF90CF9008956D
:100A60008FEF9FEFF4CF80E0CFC3CF93DF9386E08B
:100A700090E090936A03809369031FD4EC01E8EE41
:100A8000F2E084E0DF011D928A95E9F7BBD710926E
:100A90006A0310926903CE01DF91CF91089580918E
:100AA0006B03089580915403089560930802709336
:100AB000090280930A0290930B0290E080E008956F
:100AC00080912903882329F0813039F080912A030D
:100AD00001C081E08093280302C010922803E091B6
:100AE000280384E0E89FF0011124EE5FFC4F61A52C
:100AF00072A583A594A56093240370932503809326
:100B00002603909327032FEF2093280321E03091B1
:100B10000708311120E02093070824E020930808FB
:100B20000E94B5272AE037ED43E25CE30E944328A8
:100B3000AB01BC0181E090E036CFCF92DF92EF9223
:100B4000FF92CF93DF931F921F92CDB7DEB7C09075
:100B50000002D0900102E0900202F0900302A7018F
:100B600096016091F3077091F4078091F5079091D9
:100B7000F6070E948027882341F0C092F307D092A5
:100B8000F407E092F507F092F6076EE370E080E07C
:100B900090E072DB9093F2078093F10743E050E01E
:100BA000BE016F5F7F4F57DB209104023091050239
:100BB000A981BA810E94343121E196958795779574
:100BC00067952A95D1F7609309086BE070E080E0A3
:100BD00090E00ADC7C019093060880930508609100
:100BE000090870E090E080E00E94B527AB01BC01ED
:100BF000C701C3DB6091070860930A088DE0B6DB8C
:100C0000C0901C03D0901D03E0901E03F0901F03C2
:100C10008FEFC81AD80AE80AF80AC0921C03D092CB
:100C20001D03E0921E03F0921F03C701B6010E944C
:100C3000B5279B01AC016091200370912103809145
:100C40002203909123030E9443286093180370931A
:100C5000190380931A0390931B0380912803882320
:100C600049F0813059F081E090912A03992319F0DD
:100C700080E001C081E08093290302C01092290323
:100C80008091290394E0899FF0011124EE5FFC4FCD
:100C9000C1A6D2A6E3A6F4A680932A038FEF809381
:100CA00029030F900F90DF91CF91FF90EF90DF908D
:100CB000CF9008958F929F92AF92BF92DF92EF9262
:100CC000FF920F931F93CF93DF9384E090E02FD197
:100CD000E2E0F3E080E090E0A0E8BFEB81AB92AB14
:100CE000A3ABB4AB8AE097EDA3E2BCE3868F978F0A
:100CF000A0A3B1A380EC93E0A8EFBEE68483958324
:100D0000A683B78389E79DE6A6E7BBEC808791873A
:100D1000A287B3878BE493EFA0E5BAE68487958733
:100D2000A687B7878AE193E9ABEDB4E5808B918B19
:100D3000A28BB38BC6EFD2E0D383C283ACEEB2E01A
:100D4000B983A88382E492E011969C938E931396C4
:100D50009C938E93129715969C938E93149728E0EC
:100D600038E017963C932E93169719969C938E9382
:100D7000189786E193E09D838C8386E093E09B83C4
:100D80008A8388E193E09F838E838FEF87A310A6E9
:100D900041A552A563A574A542A353A364A375A35B
:100DA00086A3CBEED7E000E012E0F80186818C8FBD
:100DB00042E050E060E675E080E00E94CF281882B3
:100DC000F80180819181A281B38188879987AA8760
:100DD000BB87812C912C5401839489829A82AB82A7
:100DE000BC826EE370E080E090E08ADA9F838E83BD
:100DF000DD24D394DD821C8A8D8A9E8AAF8AB88EC8
:100E0000E12CF12C8701A80197016BE070E080E0F4
:100E100090E02EDB9B8F8A8FD98E1C868D869E86D6
:100E2000AF86B88A61E08DE099DAD98ADF91CF91F7
:100E30001F910F91FF90EF90DF90BF90AF909F9028
:100E40008F9008958091EB0781111DC081E0809300
:100E5000EB078091EC079091ED07A091EE07B09120
:100E6000EF070197A105B10571F48091F007882380
:100E700051F06EE370E080E090E0FED99093F207CD
:100E80008093F10760DA8091FF0781112AC081E029
:100E90008093FF078091000890910108A0910208BB
:100EA000B09103080197A105B105D9F48091040818
:100EB0008823B9F06BE070E080E090E095DA9093E1
:100EC00006088093050840E050E0BA0156DA6BE06E
:100ED00070E080E090E088DA90930608809305083F
:100EE00018DB8091F707811103C081E08093F70739
:100EF000089560E070E080E89FE7089560E070E0AA
:100F000080E89FE7089560E070E080E89FEF089533
:100F100060E070E080E89FEF089560E070E080ECB2
:100F20009FEF089560E070E080EC9FEF0895F5DF9B
:100F300060931708709318088093190890931A0803
:100F4000F1DF60930B0870930C0880930D08909369
:100F50000E08CFDF60931308709314088093150870
:100F600090931608CBDF60930F087093100880935E
:100F7000110890931208C7DF60931B0870931C0838
:100F800080931D0890931E08C3DF60931F08709321
:100F90002008809321089093220808954F925F9231
:100FA0006F927F928F929F92AF92BF92CF92DF9279
:100FB000EF92FF920F931F93F89440904403509048
:100FC00045036090460370904703C0903803D0906B
:100FD0003903E0903A03F0903B03452B09F0A4C09D
:100FE0009B01AC01241935094609570929013A0129
:100FF000009140031091410320914203309143033B
:1010000048015901840C951CA61CB71C801691063A
:10101000A206B306A0F400913C0310913D03209179
:101020003E0330913F030F5F1F4F2F4F3F4F009301
:101030003C0310933D0320933E0330933F03809283
:10104000400390924103A0924203B0924303009167
:101050003C0310913D0320913E0330913F03809269
:10106000480390924903A0924A03B0924B03009325
:101070004C0310934D0320934E0330934F03609322
:101080004403709345038093460390934703A0E184
:10109000B7E2A30192010E9443316C0D7D1D8E1DAC
:1010A0009F1D609338037093390380933A039093A4
:1010B0003B03009108021091090220910A0230912D
:1010C0000B020F3F1F4F2F4F3F4FF1F000910802CF
:1010D0001091090220910A0230910B020E3F1F4F1E
:1010E0002F4F3F4F89F0C0900802D0900902E09046
:1010F0000A02F0900B0221E08C149D04AE04BF04A0
:1011000008F420E02093540378941F910F91FF90EE
:10111000EF90DF90CF90BF90AF909F908F907F9097
:101120006F905F904F9008954B015C018418950873
:10113000A608B708A3019201261B370B480B590BD1
:101140006415750586059705D0F082169306A406EA
:10115000B50640F420E030E0A90181149104A10417
:10116000B10491F4A0E1B7E20E944331A7019601D6
:10117000261B370B480B590BCA01B901C5CF821684
:101180009306A406B50670F7A0E1B7E2A5019401A5
:101190000E9443316C0D7D1D8E1D9F1DB5CFFECE6F
:1011A000CF93DF9300D01F92CDB7DEB71C821B8296
:1011B0001A82198210925003109251031092520316
:1011C00010925303BE016F5F7F4FCE0103960E94C2
:1011D000C52569817A818B819C810E94BA1E009706
:1011E00061F4BE016F5F7F4FCE0103960E94D1254F
:1011F00069817A818B819C812ED50F900F900F9001
:101200000F90DF91CF910895FF920F931F93CF938B
:10121000DF93082F60E070E0CB010E94102BFF24C9
:10122000F3940E94A31DEC01892B89F010E0CE3FBE
:101230008FEFD80769F0002361F160E070E0CB0127
:101240000E94102B81E090E0892B59F322C011E01D
:1012500025D5EC01892B21F0CE3F8FEFD80759F728
:1012600011111EC011E0229609F410E00E94531DD6
:10127000EC01892B21F0CE3F8FEFD807E1F6111159
:1012800011C011E0CE3F8FEFD80709F410E0011133
:101290000BC0CE01DF91CF911F910F91FF90089568
:1012A00011E0E4CF11E0F3CF60E070E0CB010E94E9
:1012B000102B1F25812F90E0C7CFCF93DF93809114
:1012C0005403882321F060E070E0CB014CD635D682
:1012D000D0E0C0E0892B71F06AE070E080E090E03F
:1012E0000E94102B81E090DF28D62196C03D27E098
:1012F000D20781F727D60E940E1F10926C0310921E
:101300006B031092650310926603109267031092AC
:1013100068031092610310926203109263031092AB
:10132000640310925D0310925E0310925F031092AB
:1013300060031092590310925A0310925B031092AB
:101340005C031092550310925603109257031092AB
:1013500058034EEF5FEF6FEF7FEF4093080250931B
:10136000090260930A0270930B0210925403E8E49E
:10137000F3E028E0DF011D922A95E9F7109244037B
:1013800010924503109246031092470310924003B7
:1013900010924103109242031092430310923C03B7
:1013A00010923D0310923E0310923F0310923803B7
:1013B0001092390310923A0310923B03DF91CF91C0
:1013C0000895109278031092790310927A03109284
:1013D0007B03109277038091800390918103909317
:1013E0007603809375031092740310927303109226
:1013F0006F03109270031092710310927203109297
:101400007D0310927C0390E080E00895CF92DF92FC
:10141000EF92FF920F931F93CF938C01892B09F0CA
:1014200055C0209180033091810380917503909184
:10143000760340918003509181035093760340934B
:1014400075032817390781F0109274031092730303
:1014500010926F0310927003109271031092720336
:1014600010927D0310927C03809180039091810300
:10147000019761F580917C0390917D03892B21F484
:1014800080910C02811112C080917C0390917D03A8
:101490000197E1F480916F0390917003A091710323
:1014A000B09172030197A105B10581F410926F0309
:1014B00010927003109271031092720310920C023A
:1014C00082E090E090937D0380937C038091800381
:1014D00090918103019709F01CC18091960390912E
:1014E00097038017910709F014C18091920390919E
:1014F0009303A0919403B0919503009709F409C157
:101500002091910321110DC04091920350919303BA
:101510006091940370919503452B462B472B09F45A
:10152000F8C020917C0330917D032230310509F011
:10153000F0C0209173032111ECC0FC01C080D18068
:10154000E280F38080917703882309F4D3C08091EF
:10155000830390918403892B09F4FDC020918303B8
:101560003091840381E02230310509F080E0209140
:10157000830330918403C1E02130310549F020918B
:10158000830330918403C1E02230310509F0C0E0CB
:10159000882309F456C020918D0330918E03409129
:1015A0008F0350919003C701B6010E943F2887FD29
:1015B00014C020918D0330918E0340918F03509180
:1015C0009003609178037091790380917A039091F0
:1015D0007B030E94802787FD22C020918D033091DC
:1015E0008E0340918F0350919003C701B6010E9472
:1015F0003F28181634F520918D0330918E034091C9
:101600008F035091900360917803709179038091DA
:101610007A0390917B030E948027811112C08091F0
:10162000850390918603A0918703B0918803892B4D
:101630008A2B8B2B19F481E08093740381E08093D3
:101640007303CC2309F456C020918D0330918E038F
:1016500040918F0350919003C701B6010E948027EB
:1016600087FF14C020918D0330918E0340918F032A
:1016700050919003609178037091790380917A037F
:1016800090917B030E943F2887FF22C020918D0309
:1016900030918E0340918F0350919003C701B601A2
:1016A0000E948027811126C020918D0330918E03E6
:1016B00040918F035091900360917803709179036A
:1016C00080917A0390917B030E943F28181694F42E
:1016D0008091850390918603A0918703B091880340
:1016E000892B8A2B8B2B19F481E08093740381E082
:1016F0008093730381E090917303911180E0809354
:101700007703C0927803D0927903E0927A03F09243
:101710007B03012B09F067C180917C0390917D03CD
:10172000892BD9F4109282031092730380910C02DA
:10173000882379F082E090E090937D0380937C038E
:1017400010920C02209180033091810381E0232BC1
:10175000E9F080E01BC081E00ACF10920C0280917A
:101760008203882349F01092740310927D03109233
:101770007C0310928203EDCF8091800390918103CE
:10178000892BE1F0809173031092730320917C0305
:1017900030917D032230310509F45EC088F42115B3
:1017A000310509F448C02130310509F4F3C0109225
:1017B0007403109273031092820338C081E0E6CF65
:1017C0002330310509F4B1C02430310581F740914F
:1017D0006F03509170036091710370917203411512
:1017E00051056105710561F04150510961097109A7
:1017F00040936F035093700360937103709372036F
:1018000040916F0350917003609171037091720366
:10181000452B462B472BD9F420917E0330917F0333
:101820002130310509F046C01092740310927D03F7
:1018300010927C030CC080910C02882341F082E05E
:1018400090E090937D0380937C0310920C021092A1
:101850006D0380917403CEC08823C9F38091850302
:1018600090918603A0918703B091880318161906FA
:101870001A061B060CF07DC08091800390918103B5
:10188000019709F076C08091850390918603A0911D
:101890008703B091880380936F0390937003A093A4
:1018A0007103B093720383E090E090937D03809383
:1018B0007C03CDCF4091890350918A0360918B03C3
:1018C00070918C03452B462B472BA9F01092740383
:1018D0008091890390918A03A0918B03B0918C032E
:1018E00080936F0390937003A0937103B09372037E
:1018F00081E090E0DACF882399F080910D029091F9
:101900000E02A0910F02B091100280936F0390938A
:101910007003A0937103B093720384E090E0C5CF8D
:101920001092740382E090E0C0CF80916F03909199
:101930007003A0917103B09172030097A105B105E6
:1019400059F00197A109B10980936F039093700337
:10195000A0937103B093720380916F039091700311
:10196000A0917103B0917203892B8A2B8B2B09F004
:101970006ECF80910D0290910E02A0910F02B09156
:101980001002892B8A2B8B2B09F44ECF81E0809398
:101990007403B3CF40916F03509170036091710352
:1019A00070917203411551056105710561F0415057
:1019B00051096109710940936F035093700360935B
:1019C00071037093720340916F03509170036091A3
:1019D000710370917203452B462B472B09F037CFCB
:1019E0008111C7CF9FCF80916D03882309F431CF38
:1019F00080916E03CF911F910F91FF90EF90DF9038
:101A0000CF900895109278031092790310927A0380
:101A100010927B031092770310927D0310927C0347
:101A2000109276031092750310929703109296030A
:101A3000109274031092730310926F03109270034C
:101A4000109271031092720310926E0310926D0344
:101A500010929203109293031092940310929503A4
:101A60001092910310928D0310928E0310928F03A7
:101A70001092900388EE93E0A0E0B0E080930D0216
:101A800090930E02A0930F02B0931002109289035C
:101A900010928A0310928B0310928C03109285038C
:101AA0001092860310928703109288031092840389
:101AB0001092830381E080930C02109282031092B3
:101AC00081031092800310927F0310927E0390E0B6
:101AD00080E008958091800390918103892B19F50E
:101AE00080910C02882351F080918203811106C0FD
:101AF00081E080936E0380936D03089520918203AB
:101B000030910C0281E090E0332311F090E080E00E
:101B100030E082239323892B21F010926E0381E021
:101B2000EACF10926D03089582E090E0FA0191836C
:101B300080838FEF9FEF0895CF93DF93EA010097A3
:101B400011F00E942B201982188290E080E0DF9132
:101B5000CF910895DB01009719F48FEF8C930895CE
:101B60002EEF2C93FC013F96EF30F10508F034C0C6
:101B70008827E254F24F8F4F0C942C31EA0DE80D78
:101B8000E60DE40DE20DDE0DE00DDC0DDA0DD80DF5
:101B9000D50DD10DCD0DD30DEC0D80E311968C93A9
:101BA000089589E2FBCF82E2F9CF11961C92089545
:101BB00083E2F4CF81E2F2CF81E1F0CF87E2EECF92
:101BC0008AE2ECCF80E1EACF84E2E8CF88E2E6CF98
:101BD00086E2E4CF81E3E2CF80E2E0CF8091A4030C
:101BE0009091A50308959093A5038093A40308956D
:101BF0008091A30308959091A303892B8093A3035D
:101C00000895982F90958091A30389238093A3032F
:101C100008958091A20308958091A0039091A1035B
:101C200008956115710559F0FB0130E020E070E086
:101C300060E02417350719F06115710511F0CB012B
:101C40000895A081B181A817B90709F4BF012F5FDA
:101C50003F4F3696EECF8091A60381111CC060D213
:101C600066D290939903809398030E942C180E9447
:101C70003E1890939D0380939C030E94BB1C0E947E
:101C8000C21C90939B0380939A0381E08093A603E8
:101C900090E080E0089584EF9FEF08958F929F92E7
:101CA000AF92BF92CF92DF92EF92FF920F931F936A
:101CB000CF93DF9300D000D000D01F92CDB7DEB716
:101CC0001A86198618861F821E821D821C821B821C
:101CD0001A8219828091A60307EF1FEF882309F467
:101CE0009CC08E010D5F1F4F9E012B5F3F4FAE01C9
:101CF000495F5F4FBE01675F7F4F90E080E00E94C9
:101D00003F1E8C01009721F00596029708F0DBC07A
:101D100029853A852115310509F402C1ED80FE803F
:101D20004B815C81B701640F751F8F819885861781
:101D3000970708F4F5C0E20EF31ED7019C91903C82
:101D400009F07FC04230510508F47BC011968C9198
:101D50004091A4035091A503452B09F49CC0913FE9
:101D600008F071C02CE1290F2D3008F48BC02DE252
:101D7000290F203108F489C0903C21F48150823031
:101D800008F483C088E3890F8B3008F481C09AEA95
:101D9000C92E9DE0D92EE4E9FDE06D817E81AE0182
:101DA0004F5F5F4F89859A8519955C01C114D104F5
:101DB000A1F189809A808114910479F18B819C81B1
:101DC0008815990508F487C010E000E04B815C811C
:101DD00070E060E0C7010E94563101151105E9F479
:101DE00049815A8169857A858D819E81680F791F25
:101DF000C501F6011995E980FA800D811E812F81B8
:101E0000388549855A856FEF7FEF81E090E00E9429
:101E1000DA1D8C01892B09F056C0C8012A960FB62D
:101E2000F894DEBF0FBECDBFDF91CF911F910F9110
:101E3000FF90EF90DF90CF90BF90AF909F908F90EA
:101E4000089580E085CF30E020E0220F331FF901B4
:101E5000E856FC4F0190F081E02D309709F497CFC0
:101E6000892F90E01995009709F491CFDC01129623
:101E7000ED91FC9113971496CD90DC90309709F07A
:101E80008CCF1FC021E030E0E0CF22E030E0DDCF9A
:101E900023E030E0DACFD12CC12CECE9FDE09F3F0C
:101EA00009F07BCFE0919803F0919903309721F4EA
:101EB000C90104EF1FEF0CC08FEF90E01995009758
:101EC000A9F604EF1FEF89859A85009709F4A5CF3D
:101ED0000E942B20A2CF0E94091F8C0189859A8520
:101EE0000E942B2070E060E0C4010E94A21E98872F
:101EF0008F830E94D71D9E838D836F8178856115A6
:101F0000710559F0C8010E94B7219A87898706EFA9
:101F10001FEF892B09F058CF59CF08EF1FEF56CF8D
:101F200008EF1FEFD0CF2091A603222319F020E065
:101F30000C94431887EF9FEF08958091A40390912C
:101F4000A50308950E94C71C0E94211CF5D0E8E952
:101F5000F3E088E0DF011D928A95E9F71092A6036D
:101F600090E080E008950C947F1A21E040E050E07A
:101F7000BA010C94431886E090E0FA0191838083C3
:101F800090E080E0089547E050E065E472E049CEDB
:101F9000DF92EF92FF920F931F93CF93DF938A010B
:101FA000EC01C60FD71FE090AA03F090AB03D980D5
:101FB0000E94F11ED816190678F082E090E0F80130
:101FC000918380838EEF9FEFDF91CF911F910F91CF
:101FD000FF90EF90DF900895EF2841F482E090E0C9
:101FE000F8019183808384EF9FEFEECF8981809306
:101FF000A90390E00196F8019183808390E080E04E
:10200000E3CFCF93DF93EA010E94301B882321F0B6
:102010000E94FE1E0E94311B82E090E0998388831B
:102020008BEF9FEFDF91CF910895CF93DF93EB017B
:1020300086E0FB0111928A95E9F78FEF8883D8DD5E
:102040008983E7DD8A83E8DD9D838C83DF91CF91EF
:102050000895CF93DF93EA010E94331B811109C0D9
:1020600082E090E09983888385EF9FEFDF91CF91A5
:10207000089590E080E0B7DD81E090E09983888367
:1020800090E080E0F3CF0F931F93CF93DF93EA01AB
:102090008C01060F171F0E94331B81110BC082E0B9
:1020A00090E09983888385EF9FEFDF91CF911F9117
:1020B0000F910895F8018181823038F082E090E03C
:1020C000998388838EEF9FEFF0CF81E090E08BDDE6
:1020D00088E090E09983888390E080E0E6CFCF931A
:1020E000DF930097D1F4EB01FB01329686E0DF012C
:1020F0001D928A95E9F78FEF888385E089831A829C
:102100000E94F11E8B830E94F01E9D838C8381E0D0
:102110008E838F83DF91CF910895DF91CF911ACD78
:1021200083EC9FE09093A8038093A7030895809188
:10213000A7039091A80308951092A8031092A703F3
:1021400008958091AA039091AB030895411105C0B1
:10215000611571058105910561F06093AA03709383
:10216000AB038093AC039093AD034093AE0381E047
:10217000089580E00895FF920F931F93CF93DF930C
:102180008A01EC01C60FD71FF9800E94F11EF816D4
:10219000190668F082E090E0F801918380838EEF69
:1021A0009FEFDF91CF911F910F91FF9008956C8168
:1021B0007D818E819F814B81C9DF811108C082E0C2
:1021C00090E0F8019183808384EF9FEFEACF8981CB
:1021D0008093A90390E00196F8019183808390E0B9
:1021E00080E0DFCFCF93DF93EA01FC01E60FF71F1A
:1021F00064817581868197814381A8DF811109C03F
:1022000082E090E09983888384EF9FEFDF91CF9104
:10221000089581E090E09983888390E080E0F6CF94
:10222000EAEAF3E04081518162817381480F511DD8
:10223000611D711D40835183628373830895CF9321
:10224000C091A9034C2F50E06091AA037091AB0399
:1022500001960E944D318C2FE3DF1092A903CF919C
:102260000895009799F48091AA039091AB032FEF02
:10227000FB012083892B59F02091A90330E02F5FC7
:102280003F4F2417350719F4CB01D9CF63CC0895FC
:10229000009799F48091AA039091AB032FEFFB0173
:1022A0002083892B59F02091A90330E02F5F3F4F05
:1022B0002417350719F4CB01C2CF4CCC089523E184
:1022C000AC01249FC001259F900D1124E091B30320
:1022D000F091B403E80FF91F2381348122503109B2
:1022E00081E02230310508F080E008950F931F93BC
:1022F000CF93DF930091B5031091B603D0E0C0E017
:1023000080E00C171D0749F491E0811190E0892FBE
:10231000DF91CF911F910F9108958111F5CFCE01DB
:10232000CEDF2196EECFA091B303B091B403109706
:1023300029F12091B5033091B60382179307F0F489
:1023400053E1589F9001599F300D1124A20FB31FE4
:10235000ED91FC911197309789F012968C91681746
:1023600068F48DE0689FE00DF11D1124808191815A
:10237000892B21F081E09281491708F080E00895CF
:102380009C0143E1429FC001439F900D1124E091C5
:10239000B303F091B403E80FF91F8385823091F401
:1023A00081E090E0658176814091110250911202A6
:1023B0006417750711F490E080E0892B19F081E033
:1023C000232B09F080E00895FC01A081B1818DE00C
:1023D000689FA00DB11D112413964D915C918585C8
:1023E0009685489F9001499F300D589F300D1124CC
:1023F000C9010196611103C0478144FD0496089507
:10240000EF92FF920F931F93CF93DF93EA01FC01AA
:10241000E60FF71F02811381E480F5804F2D6E2DAA
:10242000C80181DF81110DC082E090E0998388832B
:102430008EEF9FEFDF91CF911F910F91FF90EF9063
:102440000895C8013CDF882339F082E090E0998349
:10245000888388EF9FEFEECF109318020093170246
:10246000E0921902F0921A0281E090E09983888349
:1024700090E080E0DFCFCF92DF92EF92FF920F9358
:102480001F93CF93DF937A01EC01C60FD71FC09043
:102490001702D09018020091190210911A02412FD0
:1024A000602FC60140DF811110C082E090E0F7018B
:1024B000918380838AEF9FEFDF91CF911F910F91DE
:1024C000FF90EF90DF90CF900895C601F8DE88234B
:1024D00041F082E090E0F7019183808388EF9FEFE5
:1024E000EBCF4C815D816E817F819A8189818F3FA5
:1024F00041F082E090E0F701918380838EEF9FEFBF
:10250000DBCFE3E1EC9D9001ED9D300D1124E091D6
:10251000B303F091B403E20FF31F0190F081E02DBB
:102520002DE0029FE00DF11D11240190F081E02DBE
:1025300027E0129FE00DF11D1124808391838B8190
:10254000828343835483658376831F5F10931A02CB
:1025500081E090E0F7019183808390E080E0ACCF50
:10256000EF92FF920F931F93CF93DF937A018C0129
:10257000060F171FC091B303D091B403209781F0C9
:1025800021E030E0F801828193814091B5035091C0
:10259000B6038417950710F030E020E0232B71F488
:1025A00082E090E0F701918380838EEF9FEFDF91CF
:1025B000CF911F910F91FF90EF90089543E1489FB5
:1025C0009001499F300D1124C20FD31F78DE88235C
:1025D00041F082E090E0F7019183808388EF9FEFE4
:1025E000E6CFF8012481358120383105C8F687818E
:1025F0008111D6CF4181842F90E08F7E009741F0EA
:1026000082E090E0F7019183808386EF9FEFCFCF48
:102610004F833E832D83268128871986223010F42C
:1026200021E0288721E030E0F70131832083BFCF0C
:1026300088E090E0FA019183808390E080E0089543
:10264000FB018FEF808381E181838FEF9FEF938385
:10265000828380E890E095838483168217820895B0
:10266000FB018FEF808391E0918382839383848346
:1026700084E3858381E090E0978386830895DF92E9
:10268000EF92FF920F931F93CF93DF93EA01FC0128
:10269000E60FF71F8181813071F082E090E099832D
:1026A00088838FEF9FEFDF91CF911F910F91FF9064
:1026B000EF90DF90089582819381D4802581E68018
:1026C000F7800091B3031091B4030115110539F49B
:1026D00082E090E0998388838CEF9FEFE4CF409174
:1026E000B5035091B6038417950738F082E090E067
:1026F000998388838EEF9FEFD6CF892B39F082E0C4
:1027000090E09983888386EF9FEFCDCF8D2D8D7FCD
:10271000B1F72130A1F781E0D11006C091E0E916B0
:10272000F10431F080E004C0E2E0EE16F104D0F3F1
:10273000882329F390E080E0C2DD882339F082E02D
:1027400090E09983888388EF9FEFADCFF801D3861F
:1027500081E08487F686E586108A178681E090E01E
:102760009983888390E080E09ECF4CE050E06FE654
:1027700072E057CA8F929F92BF92CF92DF92EF92F0
:10278000FF920F931F93CF93DF93EA01FC01E60FB3
:10279000F71F828193810481B580E091B303F091AA
:1027A000B403309791F482E090E0998388838CEFB2
:1027B0009FEFDF91CF911F910F91FF90EF90DF90EE
:1027C000CF90BF909F908F9008952091B503309146
:1027D000B6038217930738F082E090E099838883EC
:1027E0008EEF9FEFE6CF23E1289F6001299FD00C59
:1027F0001124EC0DFD1DE080F180E114F10499F24B
:102800008281081748F78DE0089F80011124E00EAF
:10281000F11EF70180819181892B29F6BB20E1F21D
:10282000F7E0BF9E40011124C4010E94F21FF7018E
:1028300091838083E091B303F091B403EC0DFD1D0F
:102840000190F081E02DE00FF11F808191810097D0
:1028500039F482E090E0998388838DEF9FEFA9CFD0
:10286000A40170E060E00E9456318091B303909122
:10287000B403C80ED91EF60180819181080F191F7B
:10288000F801B28281E090E09983888390E080E053
:1028900090CFAF92BF92CF92DF92FF920F931F9390
:1028A000CF93DF93EA01FC01E60FF71F828193814A
:1028B000F4800091B3031091B4030115110581F464
:1028C00082E090E0998388838CEF9FEFDF91CF9136
:1028D0001F910F91FF90DF90CF90BF90AF90089520
:1028E0002091B5033091B6038217930738F082E048
:1028F00090E0998388838EEF9FEFE8CF2FEF2F0D25
:102900002C3FA8F723E1289F6001299FD00C1124B8
:102910000C0D1D1DF80180819181892B89F6FDE048
:10292000FF9E50011124C5010E94F21FF8019183FE
:102930008083E091B303F091B403EC0DFD1D808121
:102940009181009739F482E090E0998388838DEF3C
:102950009FEFBCCFA50170E060E00E945631E0918E
:10296000B303F091B403EC0DFD1DF28281E090E021
:102970009983888390E080E0A9CFCF92DF92EF9295
:10298000FF920F931F93CF93DF93860F971FFC0146
:10299000028113818091B3039091B403892B81F05C
:1029A00082E090E0FA01918380838CEF9FEFDF91CA
:1029B000CF911F910F91FF90EF90DF90CF900895EE
:1029C000C801B0E0A0E00197A109B1098F3F9F4F76
:1029D000A105B10540F082E090E0FA019183808387
:1029E0008EEF9FEFE4CF7A0183E1809F6001819FAA
:1029F000D00C1124C6010E94F21FEC01009741F493
:102A000082E090E0F701918380838DEF9FEFCFCF3D
:102A1000A60170E060E00E945631D093B403C093E9
:102A2000B3031093B6030093B50390E080E02FEF5B
:102A30003FEF41E061E070E08017910741F481E0F1
:102A400090E0F7019183808390E080E0B0CF3A8BF3
:102A5000298B1B864C877E876D87188A1F86019677
:102A60006396EACFEF92FF921F93CF93DF93EC012F
:102A700010E0F12CE12C6A811617B0F083E0689F1A
:102A8000B0011124AE014F5E5F4FC7010E94572075
:102A9000009721F02FEF3FEF3A8B298BDF91CF91F9
:102AA0001F91FF90EF900895612FCE018DDC61E0C2
:102AB00070E00E94A21EE816F90608F47C011F5F70
:102AC000DACFF8942091B1033091B20381E021155F
:102AD000310509F080E0232B09F0789408952F92B6
:102AE0003F924F925F926F927F928F929F92AF929E
:102AF000BF92CF92DF92EF92FF920F931F93CF93EB
:102B0000DF933C01660E771EF301828193814C01B5
:102B1000B12CA12CC091B303D091B403209769F0DC
:102B200021E030E06091B5037091B60386179707F6
:102B300010F030E020E0232BD1F482E090E0FA01A5
:102B4000918380838EEF9FEFDF91CF911F910F9143
:102B5000FF90EF90DF90CF90BF90AF909F908F90BD
:102B60007F906F905F904F903F902F90089580924C
:102B70001B0290921C02A0921D02B0921E0263E101
:102B8000689F9001699F300D1124C20FD31FF3017C
:102B90008181833040F082E090E0FA01918380836C
:102BA00086EF9FEFD1CF2A012B813C81232BF1F4BB
:102BB000288139819F8191FF2EC0232B09F46FC09A
:102BC0002091B8039A81422F490F5527551FBA010A
:102BD00041E050E06138710514F050E040E0452BD1
:102BE00009F45DC02A87920F9093B8038150823018
:102BF00008F481C066DF882309F4D8C0F30181811D
:102C0000813009F48DC008F47BC0823009F4C6C05D
:102C100090E080E0ADC0232B09F441C02091B703C0
:102C20009A81E22FE90FFF27FF1F41E050E0ED3FBF
:102C3000F10514F050E040E0452B89F12A87920F0E
:102C40009093B703D3CFA081B181A20FB31F119688
:102C50006C91060F111D0196295F3F4F8417950750
:102C600094F38D859E85089F1001099F300C189F55
:102C7000300C1124C114D104D1F48F8184FF17C00A
:102C80000E94F01EF5E02F0E311C21E08215930505
:102C900008F420E0A701435F5F4F21110EC082E0DE
:102CA00090E0F2019183808387EF9FEF4DCF0E94E8
:102CB000F01E2FEF221A320AE8CF88819981E80EA0
:102CC000F91EF70114830383FFEFCF1ADF0A7A019D
:102CD0008A818C151D0409F00CF48CCFE881F981F0
:102CE000EE0DFF1D428150E030E020E010E000E0FA
:102CF00090E080E0B3CFF12CE12CD12CC12CE8CFB7
:102D000081E090E09C838B83F1DA882309F480CF03
:102D100081E090E00E94F30D80E40E94010E78CFE4
:102D200089899A89019661F083E090E09C838B8386
:102D300082E090E00E94F30D80E40E94FB0D68CFDA
:102D40008D819E812091110230911202821793078A
:102D5000D1F46091150270911602AE014F5E5F4F83
:102D600080911302909114020E9476210097E1F263
:102D7000789422E030E0F20131832083892B99F0AE
:102D80008DEF9FEFE1CE89288A288B2869F602977C
:102D900058F6CE0167DE188A1F86E8CF82E090E001
:102DA0009C838B8335CF90E080E0CECE82E090E0B4
:102DB000F2019183808385EF9FEFC6CE8F929F9221
:102DC000AF92BF92CF92DF92EF92FF920F931F9339
:102DD000CF93DF93EA018C01060F171FF801818161
:102DE000833098F082E090E09983888386EF9FEFAC
:102DF000DF91CF911F910F91FF90EF90DF90CF90D7
:102E0000BF90AF909F908F9008958091B303909161
:102E1000B403892B61F081E090E02091B5033091FB
:102E2000B603232B11F490E080E0892B39F482E083
:102E300090E0998388838EEF9FEFDACF42DE88237C
:102E400009F4E0C0F8018181813009F496C0E8F00E
:102E5000823099F42091B5033091B603E091B30329
:102E6000F091B40390E080E041E050E0281739078A
:102E700009F0BEC03BDA811117C0789481E090E080
:102E80009983888390E080E0B3CF2091B50330919F
:102E9000B603E091B303F091B40390E080E041E029
:102EA00050E02817390741F481E090E00E94F30DCB
:102EB00080E40E94010EE1CF63817481672B11F0E1
:102EC0005483438301967396ECCFE091B303F09162
:102ED000B403E00FF11F2381348122303105D9F48E
:102EE000218932892F3F3F4FB1F4258136814091AE
:102EF0001102509112022417350761F5AF014F5EA0
:102F00005F4F6091150270911602809113029091AB
:102F100014020E947621EFEFCE1ADE0AEE0AFE0AB4
:102F20000D5E1F4F4091B5035091B60370E060E015
:102F3000C416D506E606F70644F5009731F27894F4
:102F4000892B09F49BCF82E090E0998388838DEFF1
:102F50009FEF4ECFC114D104E104F104E1F6223019
:102F60003105C8F6CF017EDDE091B303F091B403E3
:102F7000E00FF11F108A1786CECF10E000E090E03E
:102F800080E0C12CD12C7601CDCF0097C1F610E0A6
:102F900000E0812C912C540183E0E82EF12C1AC022
:102FA000E091B303F091B403E00FF11F83819481AA
:102FB000029749F4F482E38282E090E00E94F30DEC
:102FC00080E40E94FB0DFFEF8F1A9F0AAF0ABF0A31
:102FD0000D5E1F4F8091B5039091B603B0E0A0E065
:102FE00088169906AA06BB06DCF290E080E0A7CF1F
:102FF000638174816230710511F4548343830196B7
:10300000739634CF82E090E09983888385EF9FEFB9
:10301000EFCE0097B9F48FEFFB01808320911B0264
:1030200030911C0243E1429FC001439F900D112447
:10303000E091B303F091B403E80FF91F8285FB011F
:10304000818308950C94AA0D88E090E0FA019183A1
:10305000808390E080E008951092B2031092B10353
:10306000E3EBF3E086E0DF011D928A95E9F785EB5B
:1030700093E19093B0038093AF0308958091AF03E1
:103080009091B00308952F923F924F925F926F926A
:103090007F928F929F92AF92BF92CF92DF92EF92E8
:1030A000FF920F931F93CF93DF93CDB7DEB72F9788
:1030B0000FB6F894DEBF0FBECDBFF894E091B10318
:1030C000F091B2033196F093B203E093B103789498
:1030D0004090B3035090B4034114510409F40CC25E
:1030E000E091B503F091B603EF2B09F405C22D87EB
:1030F00049875A876B877C8798878F831201B12C09
:10310000A12C10E000E08091B5039091B603A816C1
:10311000B90618F40115110529F1F8948091B1034D
:103120009091B20301979093B2038093B103789486
:10313000C8012F960FB6F894DEBF0FBECDBFDF914A
:10314000CF911F910F91FF90EF90DF90CF90BF90A4
:10315000AF909F908F907F906F905F904F903F9037
:103160002F9008957101E418F508D10117968C91FC
:10317000179781FD54C013968D919C9114970397D6
:1031800009F04DC015968D919C91EF81F8858E17B1
:103190009F0709F044C0B50190E080E07FD48A83A6
:1031A0002091B3033091B4033D832C833D853323B9
:1031B00009F44CC04C815D81452B09F49AC1809182
:1031C000B5039091B603A816B90608F092C1C501DF
:1031D000D7D88823E9F06C817D816E0D7F1D7D83BA
:1031E0006C83DB011F968D919C91892B89F0D12CEA
:1031F000C12CF12CE12CAC81BD8112968C911297DF
:103200008E151F0409F094F450961C921E921F977D
:103210002A81222321F0B50190E080E041D43FEFE4
:10322000A31AB30A43E1240E311C6DCFAC81BD81DA
:10323000ED91FC91EC0DFD1D858196810CD7BFEFC2
:10324000EB1AFB0AEDE0CE0ED11CD5CFEC81FD814F
:10325000309709F44EC18091B5039091B603A8163A
:10326000B90608F046C1EE0DFF1DFF87EE87C501C8
:1032700087D88B83882339F1AE85BF851F968D91C2
:103280009C915097019621E01D964D915C91841779
:10329000950709F020E02E831982712C10E000E0E0
:1032A000AE85BF8512968C91781608F45DC0EE85C8
:1032B000FF85878590890196658576850E94F63021
:1032C000908B8787A5CFB1E0BE83E6CF99249394F6
:1032D0006BC088D6F6019683858382C0D601ED90B7
:1032E000FC90B7E06B9EE00CF11C1124F7016381A8
:1032F000748180818F3F61F121E030E002C0220FB4
:10330000331F8A95E2F7C901092E000CAA0BBB0BEB
:10331000FB01408151816281738184239523A6231F
:10332000B72321E0892B8A2B8B2B09F420E0D401D1
:103330002C93D70111968C91F60123853485820F49
:10334000932F911D880E991E1486138663949BC03B
:10335000418150E0C4010E944D31EBCF998206EFCC
:103360001FEFC5C01982C3C0F981F111A0CFEDE0F4
:103370007E9E70011124AE85BF85CD90DC90CE0C71
:10338000DF1C15D49D838C83BB81BB2309F49ECFA6
:1033900081E0EE85FF8527853089232B09F080E0C9
:1033A000982E882309F458C0672D8E859F850CD8E8
:1033B000D60118969C938E93179761E070E0C2D463
:1033C000EE85FF85218932892F3F320709F481CFAD
:1033D000BC01C901CCD7D60116969C938E93159744
:1033E000D60115968D919C911697009709F4B6CF4A
:1033F000EC81FD818E0F9F1F1A969C938E931997D7
:10340000AE85BF85ED91FC911197EE0EFF1EF70181
:1034100021853285148613861A968C91870DD901E1
:103420008D93711016C0EE85FF85878184FF11C0D2
:1034300049855A856B857C85F90141835283638375
:103440007483F701838594850496A80FB91F1486A9
:103450001386F701B287A187D60115968D919C91AD
:103460001697892B09F443C0EE85FF8525813681A7
:1034700080911102909112022817390779F019965C
:103480008D909C90612CD60112968C9112976816A3
:1034900008F424CF1A969C928E921997BE81BB2372
:1034A00009F460CF61E070E0F601878190854AD42D
:1034B000D6011796ED90FC90189715964D915C915A
:1034C000E1E0F0E0BA81BB2311F0F0E0E0E00C8134
:1034D0001D819C01B501882799278E1B9F0B6AD3FC
:1034E0008C01892B21F0F60185819681B4D57394E6
:1034F000D7CE0FEF1FEF8CCE10E000E00ECE2F9254
:103500003F924F925F926F927F928F929F92AF9273
:10351000BF92CF92DF92EF92FF920F931F93CF93C0
:10352000DF938091B3039091B40310E000E0892B06
:10353000A9F0C7DA0AEF1FEF882381F02090B503C6
:103540003090B603C091B303D091B403D12CC12CF9
:1035500010E000E02C143D04A9F47894C801DF9138
:10356000CF911F910F91FF90EF90DF90CF90BF9080
:10357000AF909F908F907F906F905F904F903F9013
:103580002F900895C6010E94C011882309F18B81F4
:103590009C810397E9F48F859889892BC9F0B6013E
:1035A00090E080E07BD221E030E0882311F030E031
:1035B00020E044245524421A530AB12CA12C912C0A
:1035C000812C8A818815190409F038F4188A1F861D
:1035D0004FEFC41AD40A6396BDCFE881F981EA0D92
:1035E000FB1D85819681892BA1F161E070E08781C7
:1035F0009085A8D33C01DBD28C01E881F981EA0DEA
:10360000FB1D8185928525813681200F311FAC01FC
:10361000421B530B9A0147815085421B530B70E0AC
:1036200060E00E945631E881F981EA0DFB1DE780D8
:10363000F084458156819301B601C201BBD28C0151
:10364000892B39F0E881F981EA0DFB1D858196818E
:1036500002D55FEF851A950A8DE0A80EB11CB1CF97
:1036600030CA789408952F923F924F925F926F9252
:103670007F929F92AF92BF92CF92DF92EF92FF9292
:103680000F931F93CF93DF9300D000D0CDB7DEB759
:103690000091B3031091B40399249394011511057B
:1036A00009F43EC0A090B503B090B6030ADA982E94
:1036B0008823B1F11092B4031092B3031092B603B1
:1036C0001092B5031092B7031092B8038FEF9FEFDB
:1036D000DC0180931B0290931C02A0931D02B09307
:1036E0001E0278947FD31E830D83C12CD12C7601CA
:1036F000C501B0E0A0E089839A83AB83BC83222418
:103700002A94322C89819A81AB81BC81C816D90652
:10371000EA06FB06F4F0C8019ED480E40E94010E84
:10372000892D26960FB6F894DEBF0FBECDBFDF9170
:10373000CF911F910F91FF90EF90DF90CF90BF90AE
:10374000AF909F907F906F905F904F903F902F90A1
:103750000895AD81BE8115968D919C91169720910B
:1037600011023091120282179307D1F451968D9174
:103770009C91EBD5ED81FE8180819181B12CA12CB2
:10378000412C512C3201892B89F5BFEFCB1ADB0A72
:10379000EB0AFB0AED81FE817396FE83ED83B2CFC7
:1037A000C114D104E104F10429F7029718F7ED815F
:1037B000FE81818992898F3F980709F026D5AD81D6
:1037C000BE8152963C922E925197D4CF8A0D9B1D6A
:1037D000DC018D919C91009709F03DD4BFEF4B1A0D
:1037E0005B0A6B0A7B0AEDE0AE0EB11CAD81BE81B7
:1037F0008D919C91119712964C9150E070E060E091
:1038000044165506660677060CF325D4BECFCF9333
:10381000DF93EA0128DF811109C082E090E09983FB
:10382000888385EF9FEFDF91CF91089581E090E04D
:103830000E94F30D81E090E09983888390E080E01E
:10384000F2CF11DF1092B0031092AF03089542E05F
:1038500050E067EB72E00C94110EFF920F931F93F0
:10386000CF93DF938A01EC01C60FD71FF980B9D23D
:103870000897F816190671F068F082E090E0F801F8
:10388000918380838EEF9FEFDF91CF911F910F91F6
:10389000FF9008956C817D818E819F814B810E9474
:1038A000A610811108C082E090E0F8019183808326
:1038B00084EF9FEFE9CFF9800E94A1104F2D50E0D7
:1038C000BE01685F7F4F0E944D3189810E941011B7
:1038D00081E090E0F8019183808390E080E0D4CF94
:1038E000DF92EF92FF920F931F93CF93DF938A01A2
:1038F000EC01C60FD71F0E94A1107C01D98071D2A4
:10390000DD2059F0029721E030E0D816190619F0B1
:1039100010F030E020E0232B79F482E090E0F80111
:10392000918380838EEF9FEFDF91CF911F910F9155
:10393000FF90EF90DF900895EF2841F482E090E04F
:10394000F8019183808384EF9FEFEECFF9800E948E
:10395000A1104F2D50E0BE016E5F7F4F0E944D3190
:1039600089810E94101181E090E0F80191838083A9
:1039700090E080E0D9CF87E29CE19093BA038093F6
:10398000B90308958091B9039091BA0308950895F9
:10399000FC0111821082938382830895DB011D92C2
:1039A0001C92DC011296ED91FC9113977183608358
:1039B00013967C936E9312970895FC0180819181F8
:1039C000DB018D939C93A081B181109741F08D9183
:1039D0009C9191838083892B11F4F383E283089572
:1039E000FC0180819181DB018D939C93892B11F4E3
:1039F00073836283718360830895FC011182108256
:103A0000938382830895CF93DF931F921F92CDB744
:103A1000DEB71A821982F894BE016F5F7F4F80EC87
:103A200093E0CBDF89819A81009709F014D38981D3
:103A30009A81892B89F7BE016F5F7F4F84EC93E0F9
:103A4000BCDF89819A81009709F005D389819A8129
:103A5000892B89F778940F900F90DF91CF9108957B
:103A6000CF93DF931F921F92CDB7DEB71A821982D0
:103A7000F894BE016F5F7F4F8CEB93E09EDF8981EE
:103A80009A81009709F0E7D289819A81892B89F779
:103A900078940F900F90DF91CF91089581E0089571
:103AA00090E080E00895EF92FF920F931F93CF93E1
:103AB000DF931F921F92CDB7DEB71A8219828091D1
:103AC000BB0307EF1FEF8823A1F1F894BE016F5FDE
:103AD0007F4F84EC93E071DF789489819A81EE24A2
:103AE000E394F12C892B51F4F894BE016F5F7F4F62
:103AF00080EC93E062DF7894F12CE12C89819A814B
:103B00000EEF1FEF0097A9F0FC014281538164E0A2
:103B100070E06FD68C01892B61F0F89469817A810D
:103B2000C701880F991F880F991F80549C4F58DF39
:103B30007894C8010F900F90DF91CF911F910F9152
:103B4000FF90EF9008950F931F93CF93DF9300D0D2
:103B50001F92CDB7DEB71C821B821A821982809118
:103B6000BB0307EF1FEF8823C1F0AE014D5F5F4F2E
:103B700064E070E0CE010196AFD68C01892B69F428
:103B8000E981FA818B819C8193838283F894698196
:103B90007A818CEB93E002DF7894C8010F900F904C
:103BA0000F900F90DF91CF911F910F910895B4D78F
:103BB000049608958F929F92AF92BF92CF92DF9218
:103BC000EF92FF920F931F93CF93DF931F921F9259
:103BD000CDB7DEB71A821982BC016F5F7F4F6330A9
:103BE000710598F0AA24AA94BA2CC5010F900F90E1
:103BF000DF91CF911F910F91FF90EF90DF90CF90C9
:103C0000BF90AF909F908F9008954115510551F34B
:103C1000480159018A016C01CADF8815990511F71D
:103C2000E114F104F9F28E0D9F1DA816B906D0F229
:103C30008091BB038823F1F0F894B50164507109B9
:103C40009701AE014F5F5F4FC8010496DAD65C0161
:103C5000892B71F489819A81F80193838283C6014B
:103C6000880F991F880F991FB80180549C4F96DECA
:103C70007894BBCF87EFA82EBB24BA94B6CFAF926F
:103C8000BF92CF92DF92EF92FF920F931F93CF9349
:103C9000DF931F921F92CDB7DEB71A821982892B4C
:103CA00009F047C06115710509F443C0411551057C
:103CB00009F43FC02115310509F43BC00115110578
:103CC000C1F18091BB038823B9F179016A015B01DD
:103CD000F894BE016F5F7F4F8CEB93E06EDE7894BB
:103CE00089819A81009759F1DC0112966D917C913E
:103CF000A80104969FD68C01E981FA81D501ED9344
:103D0000FC93828193810496F601918380834FDF37
:103D1000D7018D939C93C8010F900F90DF91CF91A5
:103D20001F910F91FF90EF90DF90CF90BF90AF90D9
:103D300008950FEF1FEFEFCF07EF1FEFECCF0EEF60
:103D40001FEFE9CFCF93DF93EC01672B71F4EDD632
:103D50008C179D0760F0E0D62496C80FD91FDFD6D8
:103D60008C0F9D1FDF91CF910895DCD6F1CF90E0AD
:103D700080E0F8CF0F931F93CF93DF932091BB0385
:103D800021112BC08B01EC0180EC93E001DE84EC6F
:103D900093E0FEDD8CEB93E0FBDD97D00097C1F460
:103DA000C4D670E060E0CEDF4FE152E062E070E048
:103DB0007ED1009769F480911F0290912002C7D6AE
:103DC000B801CE01FCD4009719F421E02093BB0385
:103DD000DF91CF911F910F91089584EF9FEFF8CF5E
:103DE000A1C6A3C6CF93DF93A3D6EC01892B11F410
:103DF0000ADE36DECE01DF91CF910895CF93DF93B7
:103E000097D6EC01892B09F4FEDDCE01DF91CF912D
:103E1000089580911F02909120020895CF93DF931F
:103E20008091BB03D0E0C0E08823D1F095D6EC01AF
:103E3000892BB1F4E8DD14DE80911F0290912002FD
:103E4000E4D1E5D2EC01892B59F480EC93E0D5DD87
:103E500084EC93E0D2DD8CEB93E0CFDD1092BB03DA
:103E6000CE01DF91CF910895EF92FF920F931F93B0
:103E7000CF93DF93EC017A018B010F5F1F4F0E9DF3
:103E8000A0010F9D500D1E9D500D112470E060E0AB
:103E90000E94563190E080E0F0E0E0E02FEFE8167D
:103EA000F90639F4DF91CF911F910F91FF90EF90B8
:103EB00008951A8219822883309711F0D283C18322
:103EC0000196FE01C00FD11FEACFCF92DF92EF9291
:103ED000FF920F931F93CF93DF9301EC14E00C7FBD
:103EE00043E050E061E272E087E292E015D481E2C3
:103EF000E82E82E0F82E97E2C92E92E0D92EC0E398
:103F0000D5E0D7014D915D917D01F60161917191EF
:103F10006F01198308835D834C835B834A837F83AE
:103F20006E839B012F5F3F4F249FC001259F900D03
:103F3000349F900D1124998788870115110511F080
:103F4000C80192DF88859985080F191F2A96F7E224
:103F5000EF16F2E0FF06A9F6EAECF3E084EFDF01EA
:103F60001D928A95E9F71092C9031092C803109226
:103F70004F0510924E051092530510925205109263
:103F8000510510925005109255051092540510924B
:103F90005705109256051092590510925805109227
:103FA0005D0510925C0510925B0510925A05109207
:103FB0005F0510925E0510926105109260051092E7
:103FC0002D0510922C0510922F0510922E0590E0D1
:103FD00080E0DF91CF911F910F91FF90EF90DF90E4
:103FE000CF9008950097F1F0F894A7E2B2E0E0E3F3
:103FF000F5E030E020E04D915D9148175907A8F0B9
:10400000428153814115510581F08AE0829FF00180
:10401000839FF00D1124E05DFA4F8081918100971C
:1040200059F4789490E080E008952F5F3F4F3A96DE
:104030002330310501F7F5CFDC0111966D917C91AC
:10404000718360834150510953834283FC01219362
:10405000CF0178940895009749F1DC018E91853065
:1040600041F4E0912E05F0912F053097F9F0CD0144
:1040700019948530D8F4282F30E0F8948FEF8C9382
:104080008AE0829FF001839FF00D1124E05DFA4FDA
:104090008081918112969C938E931197B183A08316
:1040A0008281938101969383828378940895CF923D
:1040B000DF92EF92FF920F931F93CF93DF939C01B8
:1040C0008DEC93E08C7F4115510509F49BC02115BF
:1040D000310509F497C06115710509F493C07A019F
:1040E000AB01B9016D5F7F4F6C7F9B012F5F3F4F2D
:1040F000249F8001259F100D349F100D1124F894EA
:1041000020914E0530914F05232B59F420915605EF
:10411000309157052115310569F12017310708F055
:1041200058C02091580530915905232B91F42091C6
:10413000560530915705820F931F209160053091ED
:1041400061052115310509F441C02017310708F038
:1041500056C07894CFEFDFEF86EF9FEFF701D18362
:10416000C083DF91CF911F910F91FF90EF90DF906F
:10417000CF900895C3E0D0E0C090C803D090C903A9
:1041800021EF30E02C193D092017310710F32AE008
:104190002C9FF0012D9FF00D1124E05DFA4F9183CB
:1041A0008083558344835383428377836683118757
:1041B0000087009709F058DE0C0D1D1D1093C903F0
:1041C0000093C803789490E080E0C8CFC4E0D0E0CA
:1041D000D3CFC3E0D0E02AE02C9FF0012D9FF00D5B
:1041E0001124E05DFA4F9183808355834483538388
:1041F000428377836683009729F336DEE3CFC4E0FA
:10420000D0E0E9CF8FEF9FEFACCF9C0103970297EF
:1042100008F069C0F89484E09AE0482F50E0241731
:1042200035070CF44DC091E08AE0829FF001839F36
:10423000F00D1124E05DFA4F118210821582148274
:1042400013821282178216829923B1F180914E0552
:1042500090914F05892BA9F420915605309157056F
:104260002115310571F08091C8039091C903821B1B
:10427000930B9093C9038093C80310925705109233
:1042800056058091580590915905892BA9F42091E4
:104290006005309161052115310571F08091C803E9
:1042A0009091C903821B930B9093C9038093C80319
:1042B0001092610510926005789490E080E0089576
:1042C000949FF001959FF00D1124E05DFA4F40811D
:1042D0005181452B31F440855185452B11F4815096
:1042E0009CCF90E0A1CF8FEF9FEF0895411551052E
:1042F00049F1009739F16115710521F1F894209188
:104300002C0530912D05232BB9F420912E053091E9
:104310002F05232B89F490932D0580932C05709302
:104320002F0560932E05789425E030E090E080E042
:10433000FA0131832083089578942FEF3FEF86EFC1
:104340009FEFF6CF8FEF9FEF0895059769F4F894EC
:1043500010922D0510922C0510922F0510922E050B
:10436000789490E080E008958FEF9FEF08956115B5
:10437000710519F4F0E0E0E011C08530910581F499
:10438000E0912C05F0912D053097A1F3CB0101961A
:104390001995009779F3FC0185E08193CF01089589
:1043A0009C01235031092230310520F72AE0289F53
:1043B000D001299FB00D1124A05DBA4F2D913C91E1
:1043C0001197232BB9F216962D913C91179726172A
:1043D000370780F2F89412962D913C91139721158E
:1043E000310529F0ED91FC911197309711F47894F3
:1043F000C1CF4181528111965C934E932150310976
:1044000013963C932E93129781937894C7CFEEEB3B
:10441000F4E08EE6DF011D928A95E9F7EAECF3E01D
:1044200084EFDF011D928A95E9F71092C90310927B
:10443000C803E0E3F5E082E3DF011D928A95E9F726
:10444000ECE2F5E084E0DF011D928A95E9F790E067
:1044500080E00895CF93DF93C0912D02D0912E027A
:10446000CF3FDC0759F422D490932E0280932D0283
:1044700097FF09C0D0932E02C0932D0284EF9FEFC7
:10448000DF91CF91089590E080E0FACF82309105DE
:1044900028F48093620590E080E008958FEF9FEF0D
:1044A00008954F925F926F927F92AF92BF92CF9298
:1044B000DF92EF92FF920F931F93CF93DF931F92A0
:1044C0001F92CDB7DEB71A821982009709F479C01E
:1044D0006115710509F475C020912D0230912E02ED
:1044E00007EF1FEF2F3F3F4F09F445C06B015C0101
:1044F000412C512C3201F12CE12C10E000E09E0106
:104500002F5F3F4FA6014E195F09B5016E0D7F1D4C
:1045100080912D0290912E0228D4892B09F04BC056
:1045200089819A81009741F4E114F10429F42091E2
:104530006205222309F442C0E80EF91EEC14FD04C2
:10454000D0F480E8481684E858068EE168067104C5
:1045500020F560E070E0CB010E94102B2AE0420EB3
:10456000511C611C711C0A3F4FEF140721F0043FDE
:104570008FEF1807A1F4C8010F900F90DF91CF9132
:104580001F910F91FF90EF90DF90CF90BF90AF9071
:104590007F906F905F904F90089501EF1FEF81E043
:1045A00090E0013F2FEF120711F090E080E0892B9F
:1045B00009F4A5CFE0CF04EF1FEFDDCF0AEF1FEF27
:1045C000DACF0FEF1FEFD7CF4F925F926F927F92AC
:1045D000AF92BF92CF92DF92EF92FF920F931F9311
:1045E000CF93DF931F921F92CDB7DEB71A82198245
:1045F000009709F478C06115710509F474C0209121
:104600002D0230912E0207EF1FEF2F3F3F4F09F48D
:1046100044C06B015C01412C512C3201F12CE12C86
:1046200010E000E09E012F5F3F4FA6014E195F0989
:10463000B5016E0D7F1D80912D0290912E024BD3FE
:10464000892B09F04AC089819A81009741F4E114CD
:10465000F10429F420916205222309F441C0E80EF7
:10466000F91EEC14FD04C8F480E4481682E45806F0
:104670008FE06806710418F560E070E0CB01D0D7D8
:104680002AE0420E511C611C711C0E3F4FEF1407B3
:1046900021F0043F8FEF1807A1F4C8010F900F908D
:1046A000DF91CF911F910F91FF90EF90DF90CF900E
:1046B000BF90AF907F906F905F904F90089502EF02
:1046C0001FEF81E090E0023F2FEF120711F090E022
:1046D00080E0892B09F4A6CFE0CF04EF1FEFDDCFF8
:1046E0000EEF1FEFDACF0FEF1FEFD7CF80912D0224
:1046F00090912E028F3F980749F0D0D2892B49F430
:104700008FEF9FEF90932E0280932D0290E080E038
:10471000089584EF9FEF0895CF92DF92EF92FF927A
:104720000F931F93CF93DF9321E04115510509F0BB
:1047300020E04150510921112CC0DC01FB01D12C9A
:10474000C12C21E022C03FEFC31AD30A7D010D9195
:104750001D91E701EA80FB80E016F106A8F42081B4
:104760003181E280F380F182E08233832283ED9015
:10477000FC9011979D0122503109E901F982E882EC
:1047800011961C930E9320E03296C416D506D8F2EB
:10479000D2CFDF91CF911F910F91FF90EF90DF90DB
:1047A000CF900895FC01680F791F90E080E0E61734
:1047B000F70709F408952191820F911DF8CF2091F8
:1047C0006305211113C046DE009791F4109269052C
:1047D00010926805109267051092660510926505A3
:1047E0001092640521E020936305089584EF9FEF04
:1047F0000895AF92BF92CF92DF92EF92FF920F9304
:104800001F93CF93DF93009709F460C046305105A2
:1048100008F45CC020916305C7EFDFEF222309F4A1
:1048200049C08C01060F171FF801C080D180C11448
:10483000D10409F44EC096012A5F3F4F4217530737
:1048400008F447C07C0180916805909169059383C5
:104850008283B6016C5F7F4F5801A60EB71EC80158
:10486000A1DFF5019183808364E070E0C80119DE67
:10487000EC01892BF9F481E090E008DEB601C80173
:1048800004960FDEEC01892B91F462E070E0C50123
:1048900008DEEC01892B59F4C701DDDB8091680546
:1048A000909169050196909369058093680590E061
:1048B00080E0ECDDCE01DF91CF911F910F91FF9051
:1048C000EF90DF90CF90BF90AF900895CFEFDFEFE4
:1048D000F1CFC9EFDFEFEECF6F927F928F929F9271
:1048E000AF92BF92CF92DF92EF92FF920F931F93FE
:1048F000CF93DF9300D01F92CDB7DEB7009709F4B6
:104900007AC04115510509F476C02091630507EF7F
:104910001FEF222309F44DC03A017B015C0164E0E2
:1049200070E0CE01019650DE8C01892B09F041C068
:1049300009811A810115110509F45AC0480186E060
:10494000880E911CB701680D791D80912F029091FE
:1049500030020DDD6C01009709F450C0A70170E032
:1049600060E00E94563189819A81AB81BC81EC0C58
:10497000FD1CF70181939193A193B1937F0181E095
:1049800090E084DDB801C7011FDE892B31F562E0BC
:1049900070E0C701800F911F17DE8C01892BE9F4AD
:1049A00090E080E073DDF501D182C082F301918255
:1049B0008082C8010F900F900F900F90DF91CF91E0
:1049C0001F910F91FF90EF90DF90CF90BF90AF902D
:1049D0009F908F907F906F90089590E080E056DDDB
:1049E000F50111821082F30111821082C60133DBBE
:1049F00009EF1FEFDECF0FEF1FEFDBCF06EF1FEF4B
:104A0000D8CF0097A1F04115510589F02115310546
:104A100071F0F90136966E177F0748F0DC012D938F
:104A20003C93DA01ED93FC9390E080E008958FEFE2
:104A30009FEF0895AF92BF92CF92DF92EF92FF92D5
:104A40000F931F93CF93DF93009709F45FC0411535
:104A5000510509F45BC06530710508F457C0209119
:104A60006305C7EFDFEF222391F1DC01CD90DC90ED
:104A700011971296ED91FC9196012A5F3F4FC9EF75
:104A8000DFEF2617370719F5C0916405D09165054A
:104A9000209749F521E030E03093650520936405C7
:104AA0007A018C01F0936705E09366055601B4E046
:104AB000AB0EB11CB50176DE0A0D1B1DF80120817D
:104AC00031818217930729F5D701CD92DC92CE016F
:104AD000DF91CF911F910F91FF90EF90DF90CF90DA
:104AE000BF90AF90089520916605309167052F5FC4
:104AF0003F4FCCEFDFEFE217F30790F2CBEFDFEFA2
:104B00002E173F0768F2D0E0C0E0CACFCFEFDFEF4B
:104B1000DECFC3EFDFEFDBCF84E090E0089582E0EB
:104B200090E008958CEF9FEF089580E290E0089563
:104B3000109269051092680510926705109266053B
:104B4000109265051092640590E080E008959093BE
:104B5000300280932F02089580916305882391F09D
:104B6000C5DD009789F410926905109268051092CE
:104B70006705109266051092650510926405109203
:104B80006305089590E080E00895009749F061156D
:104B9000710531F0FC0111821082FB01118210823B
:104BA0000895F3CF26E030E040E855E260E070E0A1
:104BB00090E080E000C08130910571F01CF4892BF9
:104BC00039F008958230910551F0039759F0089516
:104BD00087E795E00C94382E84E196E0FBCF81EBDB
:104BE00096E0F8CF8EE497E0F5CF1F920F920FB6C4
:104BF0000F9211240BB60F922F933F934F935F9315
:104C00006F937F938F939F93AF93BF93EF93FF9394
:104C10008FE89DEF9093250180932401BAD0FF91F6
:104C2000EF91BF91AF919F918F917F916F915F9124
:104C30004F913F912F910F900BBE0F900FBE0F9091
:104C40001F9018958FE89DEF909325018093240184
:104C5000A3E7B0E08C918E7F8C93E0E2F1E080815D
:104C60008C7F8083E1E2F1E08081877E8083808198
:104C70008460808380818C7F80838C9181608C9321
:104C80000895E3E7F0E0808190819E7F90838170BA
:104C9000089581E0089510926A05089568EE73E022
:104CA00080E090E0BDD490E080E0089526E030E020
:104CB00040E050E16EE070E090E080E07CDF87E76C
:104CC00095E00CD7892B21F087E795E021D7F7CF26
:104CD00090E080E00895CF92DF92EF92FF920F93E1
:104CE0001F93CF93DF936B017A01E9011982188238
:104CF00087E795E0F3D6892B69F18601CC24C3942C
:104D000082E0D82E80916A05811110C087E795E076
:104D1000FFD60297B9F7C0926A05F801D1928F01C8
:104D200088819981019699838883ECCF88819981C4
:104D30008E159F0578F487E795E0EAD68F3F9807B0
:104D4000A9F3F80181938F01888199810196998354
:104D50008883ECCF90E080E0DF91CF911F910F919D
:104D6000FF90EF90DF90CF9008950F931F93CF9314
:104D7000DF93EA01890187E795E00E94C830F801D6
:104D8000D183C08390E080E0DF91CF911F910F919C
:104D90000895CF92DF92EF92FF9280916B0591E0A0
:104DA000980F90936B05882369F021E030E03093F1
:104DB0006D0520936C0580936B05FF90EF90DF905D
:104DC000CF9008957894E0914302F0914402C28C10
:104DD000D38CE48CF58C0E949D05B701A60190E070
:104DE00080E00E94D304F89480916B058150E3CF5A
:104DF0000F931F93CF93DF931092240810922308F0
:104E000045D4D0DEC0914302D09144021982188269
:104E10006FEF7FEFCB010E94550570E060E090E0FE
:104E200080E00E94D703009709F03AC00E945A061A
:104E3000F8947894BE016F5C7F4F8A819B810E94B9
:104E4000DA03892B59F46FEF7FEFCB010E946904DD
:104E50000E944F05882311F081E08DABF894F2DEBB
:104E60000E945205882311F080E008C00E944F057F
:104E70008111FACF81E09DA99111F6CF809323088B
:104E800078940E94EE0D8C01789480912308811112
:104E90000CC00E9422070E943505F89490E080E043
:104EA000DF91CF911F910F9108950E9433050E94C9
:104EB00052058823D9F081E080932408909124083A
:104EC00081E0911180E08093230880912408811172
:104ED000D8DE0130110529F40E94EE0D892B09F46A
:104EE000DADE0E94EE0D8C01D4DECFCF0E944F059A
:104EF0008111E1CF81E09DA99111DECF80E0DCCF6F
:104F000071D008F481E0089504D06894B111B1C063
:104F1000089594D088F09F5790F0B92F9927B751F2
:104F2000A0F0D1F0660F771F881F991F1AF0BA956D
:104F3000C9F712C0B13081F09BD0B1E0089598C09C
:104F4000672F782F8827B85F39F0B93FCCF3869563
:104F500077956795B395D9F73EF4909580957095C0
:104F600061957F4F8F4F9F4F0895E89409C097FB3D
:104F70003EF490958095709561957F4F8F4F9F4F30
:104F80009923A9F0F92F96E9BB279395F695879574
:104F900077956795B795F111F8CFFAF4BB0F11F437
:104FA00060FF1BC06F5F7F4F8F4F9F4F16C08823DE
:104FB00011F096E911C0772321F09EE8872F762F14
:104FC00005C0662371F096E8862F70E060E02AF055
:104FD0009A95660F771F881FDAF7880F9695879541
:104FE00097F90895990F0008550FAA0BE0E8FEEF16
:104FF00016161706E807F907C0F012161306E4079D
:10500000F50798F0621B730B840B950B39F40A2695
:1050100061F0232B242B252B21F408950A2609F473
:10502000A140A6958FEF811D811D089557FD9058D1
:10503000440F551F59F05F3F71F04795880F97FB5C
:10504000991F61F09F3F79F0879508951216130616
:105050001406551FF2CF4695F1DF08C01616170645
:105060001806991FF1CF869571056105089408957A
:10507000E894BB2766277727CB0197F90895B2DF1D
:1050800008F48FEF08950BD078C069D028F06ED067
:1050900018F0952309F05AC05FC01124EACFC6DF8B
:1050A000A0F3959FD1F3950F50E0551F629FF0013B
:1050B000729FBB27F00DB11D639FAA27F00DB11D94
:1050C000AA1F649F6627B00DA11D661F829F22271D
:1050D000B00DA11D621F739FB00DA11D621F839FA4
:1050E000A00D611D221F749F3327A00D611D231F7A
:1050F000849F600D211D822F762F6A2F11249F57C8
:1051000050408AF0E1F088234AF0EE0FFF1FBB1FEA
:10511000661F771F881F91505040A9F79E3F510589
:1051200070F014C0A6CF5F3FECF3983EDCF3869599
:1051300077956795B795F795E7959F5FC1F7FE2B34
:10514000880F911D9695879597F9089597F99F6710
:1051500080E870E060E008959FEF80EC08950024FF
:105160000A941616170618060906089500240A94CC
:1051700012161306140605060895092E0394000C52
:1051800011F4882352F0BB0F40F4BF2B11F460FFE1
:1051900004C06F5F7F4F8F4F9F4F089508958830F1
:1051A00008F076C0E82FF0E0EE0FFF1FEF5CFD4F38
:1051B000718360838150873008F03DC0E82FF0E0B4
:1051C0008827EA51F74D8F4F0C942C312329ED2875
:1051D000F52801290E292F293C29809169008C7F0F
:1051E000482B40936900E89A089580916900837F75
:1051F000440F551F440F551F482B40936900E99AEF
:105200000895809169008F7C74E0440F551F7A9552
:10521000E1F7482B40936900EA9A0895809169006C
:105220008F7366E0440F551F6A95E1F7482B409352
:105230006900EB9A089580916A008C7F482B409317
:105240006A00EC9A089580916A00837F440F551F8D
:10525000440F551F482B40936A00ED9A08958091A2
:105260006A008F7C24E0440F551F2A95E1F7482BF4
:1052700040936A00EE9A089580916A008F7396E0D9
:10528000440F551F9A95E1F7482B40936A00EF9A17
:1052900008951F920F920FB60F9211240BB60F9222
:1052A0002F933F934F935F936F937F938F939F932E
:1052B000AF93BF93EF93FF93E0913502F0913602E5
:1052C0001995FF91EF91BF91AF919F918F917F9130
:1052D0006F915F914F913F912F910F900BBE0F9067
:1052E0000FBE0F901F9018951F920F920FB60F923E
:1052F00011240BB60F922F933F934F935F936F93AD
:105300007F938F939F93AF93BF93EF93FF93E0911E
:105310003702F09138021995FF91EF91BF91AF914B
:105320009F918F917F916F915F914F913F912F91BD
:105330000F900BBE0F900FBE0F901F9018951F92ED
:105340000F920FB60F9211240BB60F922F933F932B
:105350004F935F936F937F938F939F93AF93BF937D
:10536000EF93FF93E0913902F0913A021995FF9182
:10537000EF91BF91AF919F918F917F916F915F91CD
:105380004F913F912F910F900BBE0F900FBE0F903A
:105390001F9018951F920F920FB60F9211240BB603
:1053A0000F922F933F934F935F936F937F938F93BE
:1053B0009F93AF93BF93EF93FF93E0913B02F091E4
:1053C0003C021995FF91EF91BF91AF919F918F9101
:1053D0007F916F915F914F913F912F910F900BBEF5
:1053E0000F900FBE0F901F9018951F920F920FB63F
:1053F0000F9211240BB60F922F933F934F935F930D
:105400006F937F938F939F93AF93BF93EF93FF938C
:10541000E0913102F09132021995FF91EF91BF9125
:10542000AF919F918F917F916F915F914F913F913C
:105430002F910F900BBE0F900FBE0F901F901895DD
:105440001F920F920FB60F9211240BB60F922F934B
:105450003F934F935F936F937F938F939F93AF93FC
:10546000BF93EF93FF93E0913302F09134021995CB
:10547000FF91EF91BF91AF919F918F917F916F912C
:105480005F914F913F912F910F900BBE0F900FBEE8
:105490000F901F9018951F920F920FB60F92112424
:1054A0000BB60F922F933F934F935F936F937F931E
:1054B0008F939F93AF93BF93EF93FF93E0913D0240
:1054C000F0913E021995FF91EF91BF91AF919F919D
:1054D0008F917F916F915F914F913F912F910F909D
:1054E0000BBE0F900FBE0F901F9018951F920F923A
:1054F0000FB60F9211240BB60F922F933F934F9339
:105500005F936F937F938F939F93AF93BF93EF932B
:10551000FF93E0913F02F09140021995FF91EF91C6
:10552000BF91AF919F918F917F916F915F914F91BB
:105530003F912F910F900BBE0F900FBE0F901F90B9
:1055400018951F920F920FB60F9211242F933F932D
:105550008F939F93AF93BF9380916F059091700548
:10556000A0917105B091720530916E0523E0230F73
:105570002D3758F50196A11DB11D20936E0580931E
:105580006F0590937005A0937105B093720580919B
:10559000730590917405A0917505B09176050196FB
:1055A000A11DB11D8093730590937405A09375059B
:1055B000B0937605BF91AF919F918F913F912F91BD
:1055C0000F900FBE0F901F90189526E8230F02969C
:1055D000A11DB11DD2CF3FB7F89480917305909172
:1055E0007405A0917505B091760526B5A89B05C0F8
:1055F0002F3F19F00196A11DB11D3FBFBA2FA92F52
:10560000982F8827BC01CD01620F711D811D911D4E
:1056100042E0660F771F881F991F4A95D1F70895BA
:105620008F929F92AF92BF92CF92DF92EF92FF92B2
:105630006B017C01D0DF4B015C01C114D104E1049A
:10564000F104D9F0D2D5C7DF681979098A099B0915
:10565000683E73408105910580F321E0C21AD108AC
:10566000E108F10888EE880E83E0981EA11CB11CA9
:10567000C114D104E104F10431F7FF90EF90DF9001
:10568000CF90BF90AF909F908F900895789484B5FD
:10569000826084BD84B5816084BD85B5826085BD2E
:1056A00085B5816085BDEEE6F0E080818160808314
:1056B000E1E8F0E0108280818260808380818160F7
:1056C0008083E0E8F0E0808181608083E1EBF0E0BE
:1056D000808184608083E0EBF0E080818160808362
:1056E000E1E9F0E080818260808380818160808355
:1056F000E0E9F0E0808181608083E1EAF0E0808190
:1057000082608083808181608083E0EAF0E0808134
:1057100081608083E1E2F1E080818260808380812A
:1057200081608083E0E2F1E0808181608083EAE74C
:10573000F0E08081846080838081826080838081CA
:10574000816080838081806880831092C100089589
:10575000863308F0865320917B00982F9870277F1E
:10576000922B90937B002091410290E4299F90011D
:1057700011248770822B80937C0080917A00806452
:1057800080937A0080917A0086FDFCCF809178002A
:105790009091790008951F93CF93DF93182FEB0119
:1057A00061E033D1209731F460E0812FDF91CF9118
:1057B0001F9167C1CF3FD10511F461E0F6CFE12F12
:1057C000F0E0EC51FF4FE491E150E23108F0B2C05B
:1057D000F0E08827E251F44D8F4F3EC5002C082C95
:1057E0000D2C172C212C9A2C2B2C332C3B2C452C9C
:1057F0004F2C592C682C722C9A2C7C2C862C902C9B
:1058000084B5806884BDC7BDDF91CF911F91089595
:1058100084B5806284BDC8BDF7CF80918000806868
:1058200080938000D0938900C0938800EDCF809151
:105830008000806280938000D0938B00C0938A00A8
:10584000E3CF80918000886080938000D0938D00AA
:10585000C0938C00D9CF8091B00080688093B00055
:10586000C093B300D1CF8091B00080628093B0002C
:10587000C093B400C9CF809190008068809390005D
:10588000D0939900C0939800BFCF80919000806220
:1058900080939000D0939B00C0939A00B5CF8091E5
:1058A0009000886080939000D0939D00C0939C00EE
:1058B000ABCF8091A00080688093A0008091A00071
:1058C0008F7B8093A000D093A900C093A8009CCFA9
:1058D0008091A00080628093A000D093AB00C09321
:1058E000AA0092CF8091A00088608093A000D093FE
:1058F000AD00C093AC0088CF809120018068809378
:105900002001D0932901C09328017ECF80912001EE
:10591000806280932001D0932B01C0932A0174CF21
:1059200080912001886080932001D0932D01C09345
:105930002C016ACFC038D1050CF03FCF35CF815054
:10594000823108F059C0E82FF0E08827E655F34D82
:105950008F4F82C4CA2CCE2CBC2CC22CC62CFC2C43
:10596000D12CD72CDB2CE12CE52CE92CEF2CF32CC3
:10597000FC2CF72CFD2C012D809180008F778093DB
:1059800080000895809180008F7DF9CF8091800004
:10599000877FF5CF84B58F7784BD089584B58F7DDB
:1059A000FBCF8091B0008F778093B00008958091F5
:1059B000B0008F7DF9CF809190008F778093900019
:1059C0000895809190008F7DF9CF80919000877F1E
:1059D000F5CF8091A0008F778093A00008958091EB
:1059E000A0008F7DF9CF8091A000877FF5CF8091B7
:1059F00020018F77809320010895809120018F7D71
:105A0000F9CF80912001877FF5CFCF93DF9390E08E
:105A1000FC01E65DFE4F249180599E4FFC0184916C
:105A20008823C9F090E0880F991FFC01E053FE4FD6
:105A3000A591B491FC01EA54FE4FC591D491611136
:105A40000DC09FB7F8948C91209582238C93888108
:105A5000282328839FBFDF91CF910895623051F4AE
:105A60009FB7F8943C91822F809583238C93E88193
:105A70002E2BEFCF8FB7F894EC912E2B2C938FBF5A
:105A8000EACF1F93CF93DF93282F30E0F901EC5139
:105A9000FF4F8491F901E65DFE4FD491F901E05981
:105AA000FE4FC491CC23A1F0162F811148DFEC2FBB
:105AB000F0E0EE0FFF1FEA54FE4FA591B4918FB7AF
:105AC000F894EC91111108C0D095DE23DC938FBFC0
:105AD000DF91CF911F910895DE2BF8CFFC01918DBE
