:1000000005C100000C949D120C94C8120C94F312BC
:100010000C941E130C9449130C9474130C949F139A
:100020000C94CA1324C1000022C1000020C10000AA
:100030001EC100001CC100001AC1000018C1000050
:1000400016C1000014C1000012C1000010C1000060
:100050000EC100000CC100000AC100000C94F51391
:1000600006C100000C94DE170C94141800C10000A7
:10007000FEC00000FCC00000FAC00000F8C0000094
:10008000F6C00000F4C00000F2C00000F0C00000A4
:100090000C946A180C94A018EAC00000E8C0000094
:1000A000E6C00000E4C00000E2C00000E0C00000C4
:1000B000DEC00000DCC00000DAC00000D8C00000D4
:1000C000D6C00000D4C00000D2C000000C94F618C6
:1000D0000C942C19CCC000000C9482190C94B81903
:1000E000C6C0000000000A0B02090C0D0E08070331
:1000F00004010000000000000000000000000000FB
:1001000000000000000000000000000000000000EF
:1001100012111000000000000000000000000000AC
:100120000000000000000000000001021020200874
:100130000810204010204080020102010804020142
:1001400001020408102040808040201008040201B1
:10015000800402018040201008040201080402010A
:100160000102040810204080010204081020408091
:1001700005050505070508080808020202020A0A23
:100180000808040404040101010101010101030341
:10019000030303030303040707070C0C0C0C0C0CEC
:1001A0000C0C0202020206060606060606060B0BE9
:1001B0000B0B0B0B0B0B000020002300260029006B
:1001C0002C002F003200000100000301060109018C
:1001D00000002200250028002B002E0031003400F2
:1001E00002010000050108010B01000021002400AC
:1001F00027002A002D003000330001010000040117
:1002000007010A013D18C9185519E11911241FBE2B
:10021000CFEFD1E2DEBFCDBF00E00CBF12E0A0E027
:10022000B2E0ECEEF4E300E00BBF02C007900D92E9
:10023000A43DB107D9F726E0A4EDB2E001C01D92BC
:10024000AB31B207E1F711E0C6E0D1E000E006C053
:1002500021970109802FFE010E945D1AC230D1074B
:1002600080E00807A9F70E941D0F0C94741AC8CEED
:10027000CF92DF92EF92FF920F931F93E82FF92F07
:1002800005C0015011092109310961F190819623BE
:100290009417B9F305C0015011092109310911F171
:1002A000908196239413F7CFC12CD12CE12CF12C03
:1002B0000AC08FEFC81AD80AE80AF80A0C151D05FB
:1002C0002E053F0579F080818623841791F36C2DEC
:1002D0007D2D8E2D9F2D1F910F91FF90EF90DF9020
:1002E000CF90089560E070E080E090E01F910F9162
:1002F000FF90EF90DF90CF900895CF93DF93882306
:1003000049F0EB0181500E94C61499838883DF91E4
:10031000CF910895FB0111821082F9CF0F931F93A3
:100320008B019C0183E036952795179507958A9553
:10033000D1F703521D4F462F477021E030E0F901FD
:1003400002C0EE0FFF1F4A95E2F7AF01F8012081CE
:100350002423CB010196211102C090E080E01F917F
:100360000F9108950F931F938B019C0183E03695A5
:100370002795179507958A95D1F7677081E090E0EA
:1003800001C0880F6A95EAF7F801E352FD4F20811A
:10039000452B31F48095822380831F910F9108951E
:1003A000822BFACFCF92DF92EF92FF92CF93DF931F
:1003B0006B017C0160E086E3C816D104E104F1041E
:1003C00090F486E38C0D0E942316E6012196AE017F
:1003D000C701B601C7DFCE01DF91CF91FF90EF904B
:1003E000DF90CF9008958C2DEECF882341F081507F
:1003F000682F70E090E080E050E040E0B3CF0895D7
:10040000611102C00C9423166130E1F362E0FACF6F
:10041000662319F061E00C945F1660E0FCCFCF9288
:10042000DF92EF92FF92CF93882351F16A017B0113
:10043000CFEFC80F20E030E0A901CB01B6010E9448
:10044000CB0F18168CF0C701B60190580E943C10D3
:100450009B01AC016C2F70E090E080E0CF91FF90A9
:10046000EF90DF90CF90B2C0C701B6010E94371065
:100470008C2FCF91FF90EF90DF90CF900C94E914E8
:10048000CF91FF90EF90DF90CF9008950F931F933F
:100490008B019C0183E036952795179507958A95E2
:1004A000D1F70C521D4F462F477021E030E0F90183
:1004B00002C0EE0FFF1F4A95E2F7AF01F80120815D
:1004C0002423CB010196211102C090E080E01F910E
:1004D0000F9108950F931F938B019C0183E0369534
:1004E0002795179507958A95D1F7677081E090E079
:1004F00001C0880F6A95EAF7F801EC52FD4F2081A0
:10050000452B31F48095822380831F910F910895AC
:10051000822BFACF2F923F924F925F926F927F92EF
:100520008F929F92AF92BF92CF92DF92EF92FF9203
:100530000F931F93CF93DF93D62EC72E782E692E5D
:1005400049015A01280161E08D2D0E942316CD2D0D
:10055000DC2D8E010F5F1F4FA8016D2D7C2D872D87
:10056000962DB8DF20E030E0A901C201B7010E945A
:10057000BB11181664F4C201B7010E943C102B0194
:10058000C501B4010E943C10A201CE0123D0C801D4
:10059000DF91CF911F910F91FF90EF90DF90CF905F
:1005A000BF90AF909F908F907F906F905F904F9093
:1005B0003F902F900895882341F08150682F70E07C
:1005C00090E080E050E040E085CF0895862FB901AB
:1005D0000C94E9149C01FC01EC51FF4FE491E150B3
:1005E000E231E0F4F0E08827E750FD4F8F4F0C94A4
:1005F0005D1A0B03120315032C0341030E0356036C
:10060000620366037D039203A703BE03D3030E03B5
:10061000E803FF03140484B5806884BD60E0822F82
:100620000C945F1684B58062F8CF809180008C7F37
:1006300082608093800080918100807E8061682B41
:1006400060938100509387004093860080918000E2
:10065000806880938000E2CF809180008C7F8260F0
:100660008093800080918100807E8061682B609300
:1006700081005093870040938600809180008062C3
:10068000E8CF809180008C7F826080938000809191
:100690008100807E8061682B609381005093870089
:1006A00040938600809180008860D3CF8091B00015
:1006B00080688093B0008091B100887F682B609340
:1006C000B100ACCF8091B0008062F3CF80919000F8
:1006D0008C7F82608093900080919100807E806109
:1006E000682B6093910050939700409396008091FF
:1006F000900080688093900091CF809190008C7FD3
:1007000082608093900080919100807E8061682B50
:1007100060939100509397004093960080919000D1
:100720008062E8CF809190008C7F826080939000FF
:1007300080919100807E8061682B6093910050933E
:10074000970040939600809190008860D3CF80916D
:10075000A0008C7F82608093A0008091A100807EA9
:100760008061682B6093A1005093A7004093A6007E
:100770008091A00080688093A00050CF8091A0005D
:100780008C7F82608093A0008091A100807E806138
:10079000682B6093A1005093A7004093A60080911E
:1007A000A0008062E8CF8091A0008C7F826080935F
:1007B000A0008091A100807E8061682B6093A100E1
:1007C0005093A7004093A6008091A0008860D3CFEB
:1007D000809120018C7F8260809320018091210193
:1007E000807E8061682B60932101509327014093A4
:1007F0002601809120018068809320010FCF809195
:1008000020018C7F82608093200180912101807E75
:100810008061682B6093210150932701409326014A
:10082000809120018062E8CF809120018C7F8260DE
:100830008093200180912101807E8061682B6093EC
:100840002101509327014093260180912001886067
:10085000D3CFCF93C62F61E00E94231660E08C2F88
:10086000CF910C9423164F925F926F927F92AF922A
:10087000BF92CF92DF92EF92FF920F931F93CF938D
:10088000DF935C01162FC42FD22F611104C061E0E9
:10089000842F0E94231660E08C2F0E945F160E9416
:1008A0003F142B013C010E943F146419750986090D
:1008B00097096630710581059105A8F361E08C2FD9
:1008C0000E945F160E943F142B013C01C02ED12CC8
:1008D000F12CE12C0E943F146419750986099709CF
:1008E000C616D706E806F906A8F760E08C2F0E9426
:1008F0005F16111104C060E08D2F0E94231620E4C2
:1009000032E44FE050E061E08D2F0E948C16F5013B
:100910006083718382839383DF91CF911F910F91C5
:10092000FF90EF90DF90CF90BF90AF907F906F904F
:100930005F904F9008952091B6053091B705409192
:10094000B8055091B90560910C0270910D0280912B
:100950000E0290910F020E94530F6093B6057093A0
:10096000B7058093B8059093B9052091F00522232F
:1009700049F0213059F03091F10521E0332319F08D
:1009800020E001C021E02093EF0502C01092EF05A6
:100990002091EF05222381F06093BE057093BF057F
:1009A0008093C0059093C1058091EF058093F10578
:1009B0008FEF8093EF0508956093BA057093BB05A0
:1009C0008093BC059093BD05EFCF2091B205309187
:1009D000B3054091B4055091B5056091180270912E
:1009E000190280911A0290911B020E94530F60938A
:1009F000B2057093B3058093B4059093B50520912B
:100A0000F305222349F0213059F03091F40521E01B
:100A1000332319F020E001C021E02093F20502C049
:100A20001092F2052091F205222381F06093C60511
:100A30007093C7058093C8059093C9058091F2050E
:100A40008093F4058FEF8093F20508956093C205BB
:100A50007093C3058093C4059093C505EFCFCF92E3
:100A6000DF92EF92FF926B017C019F7720E030E0F4
:100A700040E859E50E94CB0F87FF2BC020E030E013
:100A800040E05FE3C701B6010E94BB1187FD0EC0C5
:100A900020E030E040E05FE3C701B6010E94540F60
:100AA000FF90EF90DF90CF900C94A51020E030E005
:100AB00040E05FEBC701B6010E94BB11181684F439
:100AC00020E030E0A901C701B6010E94BF116B010F
:100AD0007C01C701B601FF90EF90DF90CF900895A1
:100AE00020E030E040E05FE3C701B6010E94530F11
:100AF000FF90EF90DF90CF900C94B80F2F923F9221
:100B00004F925F926F927F928F929F92AF92BF921D
:100B1000CF92DF92EF92FF920F931F93CF93DF93C9
:100B2000CDB7DEB76C970FB6F894DEBF0FBECDBF62
:100B30008091E90281112CC08091DA058111109217
:100B4000DA050AE023E342E361E0CE0101968BDEA1
:100B500069817A818B819C810E9468102EEA34ED34
:100B600043EB59E30E94BF1120E030E040E05FE337
:100B70000E94BF1120912C0230912D0240912E0233
:100B800050912F020E94BF116F83788789879A87BF
:100B9000C090DB05D090DC05E090DD05F090DE052F
:100BA000C701B6010E946A102B013C0120913C0252
:100BB00030913D0240913E0250913F020E94CB0F86
:100BC00087FF55C0F7FC53C08090340290903502E7
:100BD000A0903602B090370220E030E040E85FE3BA
:100BE000609138027091390280913A0290913B02F3
:100BF0000E94530F9B01AC01C301B2010E94BB11C3
:100C000087FD39C01092DB051092DC051092DD05DE
:100C10001092DE058091E90281115BC020E030E096
:100C200040E251E46F81788589859A850E94CB0FD7
:100C300087FF2FC080914C0290914D02A0914E02EF
:100C4000B0914F028B879C87AD87BE878091480209
:100C500090914902A0914A02B0914B028093F9050C
:100C60009093FA05A093FB05B093FC0532C0812C4C
:100C7000912C5401B1CF8FEFC81AD80AE80AF80AAC
:100C8000C092DB05D092DC05E092DD05F092DE0536
:100C9000C1CF20E030E048E452E46F817885898557
:100CA0009A850E94CB0F87FF1DC0809144029091CE
:100CB0004502A0914602B09147028B879C87AD8781
:100CC000BE878092F9059092FA05A092FB05B0923A
:100CD000FC058091EF05882391F08130A1F080918F
:100CE000F1050EC08091300290913102A091320244
:100CF000B09133028B879C87AD87BE87AFCF81E0F1
:100D00008093F00502C01092F0058091F0058823D1
:100D1000A1F0C090BE05D090BF05E090C005F09056
:100D2000C1058FEF8093F0058091F205882371F063
:100D3000813081F08091F4050AC0C090BA05D0904E
:100D4000BB05E090BC05F090BD05EBCF81E0809342
:100D5000F30502C01092F3058091F305882379F121
:100D60008090C6059090C705A090C805B090C905B1
:100D70008FEF8093F3058091F705811129C081E001
:100D80008093F7058093F805C092CE05D092CF05E9
:100D9000E092D005F092D1058092D2059092D305D1
:100DA000A092D405B092D5056091300270913102C5
:100DB000809132029091330210E000E078C0809080
:100DC000C2059090C305A090C405B090C505D0CFD2
:100DD0008091F805813009F43EC0823009F45CC18D
:100DE000A50194016091D2057091D3058091D4053D
:100DF0009091D5050E94CB0F811168C1A701960182
:100E00006091CE057091CF058091D0059091D1056C
:100E10000E94CB0F882309F476C182E08093F80505
:100E2000C092CE05D092CF05E092D005F092D105C8
:100E30008092D2059092D305A092D405B092D505A8
:100E400002E010E06091F9057091FA058091FB05D0
:100E50009091FC052CC0A70196016091CE05709180
:100E6000CF058091D0059091D1050E94CB0F8823AA
:100E700009F48ACF83E08093F805C092CE05D09222
:100E8000CF05E092D005F092D1058092D2059092E4
:100E9000D305A092D405B092D5056091F905709163
:100EA000FA058091FB059091FC0501E010E0D7DD8B
:100EB0006B017C0120E030E040E853E40E94CB0F5E
:100EC0006FEF87FF0EC020E030E0A901C701B60137
:100ED0000E94BB1160E087FD04C0C701B6010E94FB
:100EE0003C1087E195DAC090DF05D090E005E090F6
:100EF000E105F090E205C701B6010E946A104B01BE
:100F00005C01209160023091610240916202509137
:100F100063020E94CB0F87FF09C1F7FC07C19091C4
:100F20005802988FA0915902A98FB0915A02BA8F96
:100F300080915B028B8F20E030E040E85FE36091BE
:100F40005C0270915D0280915E0290915F02ABD76E
:100F50009B01AC01C501B4010E94BB1187FDEBC030
:100F60001092DF051092E0051092E1051092E20563
:100F7000C090E305D090E405E090E505F090E6052B
:100F8000C701B6010E946A104B015C0120917002FA
:100F9000309171024091720250917302FCD787FF29
:100FA000D8C0F7FCD6C0A0916802AF83B0916902A7
:100FB000BF8720906A0230906B0220E030E040E86A
:100FC0005FE360916C0270916D0280916E0290916E
:100FD0006F0269D79B01AC01C501B4010E94BB112E
:100FE00087FDBCC01092E3051092E4051092E50560
:100FF0001092E605C0900002D0900102E09002023B
:10100000F0900302A7019601609186057091870513
:101010008091880590918905BED7882341F0C092C0
:101020008605D0928705E0928805F09289056EE3E7
:1010300070E080E090E072D99093850580938405FC
:1010400043E050E0BE016B5F7F4F57D92091AC0267
:101050003091AD02AD81BE810E94651A69837A83A9
:101060008B839C832091F505211186C021E020937C
:10107000F5052093F6050E94681020E030E040E07E
:1010800057E30E94BF116093CA057093CB0580930C
:10109000CC059093CD0501C2A70196016091CE05C4
:1010A0007091CF058091D0059091D10574D78111B1
:1010B0000DC0A50194016091D2057091D305809176
:1010C000D4059091D50567D7882311F081E05ACED9
:1010D000C092CE05D092CF05E092D005F092D10516
:1010E0008092D2059092D305A092D405B092D505F6
:1010F0006091F9057091FA058091FB059091FC05CE
:1011000002E010E0D4CEC092CE05D092CF05E0929E
:10111000D005F092D1058092D2059092D305A0928D
:10112000D405B092D50501E010E08CCE188E198E52
:101130001A8E1B8E00CF9FEFC91AD90AE90AF90A45
:10114000C092DF05D092E005E092E105F092E20561
:101150000FCF1F821F86212C312C2FCF8FEFC81A63
:10116000D80AE80AF80AC092E305D092E405E092B2
:10117000E505F092E6053ECF2091F605213009F411
:1011800063C1223009F470C10230110509F08AC12F
:1011900022E02093F6059CD720E030E040E057E3C2
:1011A0000E94BF116B017C019091E9029C8F91110B
:1011B0001AC020E030E040E85FE36B857C858D85D8
:1011C0009E85E9D6811173C1209178023091790210
:1011D00040917A0250917B02B601C701E0D66C8B38
:1011E0007D8B8E8B9F8BC090E705D090E805E090BB
:1011F000E905F090EA05C701B6016CD74B015C0127
:1012000020918C0230918D0240918E0250918F027C
:10121000C2D687FF68C1F7FC66C1809184029091B5
:101220008502A0918602B0918702888B998BAA8B48
:10123000BB8B20E030E040E85FE360918802709172
:10124000890280918A0290918B022DD69B01AC017C
:10125000C501B4010E94BB1187FD4AC11092E70588
:101260001092E8051092E9051092EA054090EB050E
:101270005090EC056090ED057090EE05C301B20151
:1012800029D74B015C0120919C0230919D02409135
:101290009E0250919F027FD687FF38C177FC36C1EE
:1012A000C0909402D0909502E0909602F090970240
:1012B00020E030E040E85FE360919802709199028D
:1012C00080919A0290919B02EED59B01AC01C501E1
:1012D000B4010E94BB1187FD1DC11092EB05109255
:1012E000EC051092ED051092EE05BC8DB11113C006
:1012F00020E030E040E050E46B857C858D859E8564
:101300004AD6811115C1C092FD05D092FE05E0922A
:10131000FF05F0920006C0900402D0900502E09014
:101320000602F0900702A701960160917A0570917C
:101330007B0580917C0590917D052DD6882341F019
:10134000C0927A05D0927B05E0927C05F0927D05F3
:101350006FE370E080E090E00E948E019093790549
:101360008093780543E050E0BE016B5F7F4F0E94A1
:101370007D0163E070E080E090E088D87C0190938C
:10138000A9058093A8050115110509F42CC16D81EB
:101390007E81643F91E0790708F0F2C090E080E040
:1013A00097D62091A8023091A9024091AA025091AB
:1013B000AB0279D5CAD66B017C01B1D48111D9C0F9
:1013C000C701B60169D48111D4C020E030E040E803
:1013D00053E4C701B601D3D66B017C0120E030E0B5
:1013E000A901D9D587FFC8C0C701B601905844D616
:1013F00061958091AE02689FB0011124672F772715
:10140000669590E080E064D64B015C0120E030E01E
:101410004FE753E4C0D5E090A805F090A905181651
:101420000CF037C140E050E06FE773E4C7010E9461
:101430000F026CE270E080E090E028D87C0190938D
:10144000A1058093A00547C10130110509F013CE15
:1014500083E08093F605C090CA05D090CB05E0905C
:10146000CC05F090CD05A0CE33D620E030E040E0B2
:1014700057E385D76B017C010115110509F094CE66
:1014800081E08093F605C601D7018093CA05909349
:10149000CB05A093CC05B093CD05C12CD12CE12C6C
:1014A000F12C82CE01151105B1F621E0E2CD20E04C
:1014B00030E040E050E46B857C858D859E856BD562
:1014C00081110CC0A0917C02AC8BB0917D02BD8BD0
:1014D00080917E028E8B90917F0284CECC8ADD8AB1
:1014E000EE8AFF8A80CE188A198A1A8A1B8AA1CEB0
:1014F0009FEFC91AD90AE90AF90AC092E705D09202
:10150000E805E092E905F092EA05B0CEC12CD12CB5
:101510007601CECEAFEF4A1A5A0A6A0A7A0A409288
:10152000EB055092EC056092ED057092EE05DDCE74
:1015300020E030E040E85FE36B857C858D859E850B
:101540002AD581110DC088899989AA89BB89809380
:10155000FD059093FE05A093FF05B0930006DBCE3A
:101560008091800290918102A0918202B0918302C9
:10157000EECFC12CD12C7601C701B6017DD539CF74
:101580006091A4027091A5028091A6029091A70299
:10159000DCD56B017C01C3D381111EC0C701B6012C
:1015A0007BD3811119C020E030E040E853E4C7014B
:1015B000B601E5D56B017C0120E030E0A901EBD458
:1015C00087FF0DC0C701B601905856D5619570E0F0
:1015D00090E080E07FD518CFC12CD12C7601C701D7
:1015E000B6014AD5F4CF8090280290902902A090AD
:1015F0002A02B0902B0220E030E04FE753E4C5010F
:10160000B401C9D440E050E06FE773E418165CF011
:1016100020E030E0A901C501B401ADD687FF44C088
:1016200040E050E0BA01C7010E940F026CE270E096
:1016300080E090E00E9446027C019093A105809397
:10164000A0058090240290902502A0902602B090E0
:10165000270249C0812C912C8FE7A82E83E4B82E55
:1016600054C0812C912C540150C0C12CD12C760136
:10167000C701B60101D57FC0888D8F83998D9F8763
:101680002A8C3B8C95C01092E902B7C0B501A40129
:10169000CDCE20E030E0A901C501B4016CD687FFB2
:1016A000F5CF812C912C5401B501A4018091A8059E
:1016B0009091A9050E940F026CE270E080E090E03A
:1016C0000E9446027C019093A1058093A00501151C
:1016D000110509F4B6CF8090FD059090FE05A0900D
:1016E000FF05B090000620E030E04FE753E4C5016D
:1016F000B40151D418160CF4ADCF20E030E0A901AC
:10170000C501B40138D687FDACCFB501A401C7012E
:101710000E940F028091E902811139C06BE070E0F4
:1017200080E090E00E9446029093B1058093B0055E
:101730006C897D898E899F8908D56B017C01EFD2E8
:10174000811193CFC701B601A7D281118ECF20E0BE
:1017500030E040E853E4C701B60111D56B017C01CC
:1017600020E030E0A90117D487FF82CFC701B6017E
:10177000905882D4619570E090E080E0ABD4AB01EA
:10178000BC018091B0059091B1050E940F0201301B
:10179000110509F471CF0230110551F4A091200216
:1017A000AF83B0912102BF872090220230902302A4
:1017B0006F817F85C10153D96B017C0120E030E04E
:1017C00040E853E4E8D36FEF87FF0CC020E030E03F
:1017D000A901C701B601CFD560E087FD03C0C701ED
:1017E000B6014AD486E10E9408028091E9028F5F27
:1017F0008A3008F048CF8093E9026C960FB6F894CF
:10180000DEBF0FBECDBFDF91CF911F910F91FF9033
:10181000EF90DF90CF90BF90AF909F908F907F9090
:101820006F905F904F903F902F9008958F929F926E
:10183000AF92BF92DF92EF92FF920F931F93CF93DD
:10184000DF9384E090E0F1D100E012E0809150025B
:1018500090915102A0915202B0915302C2E7D5E09B
:101860008093BA059093BB05A093BC05B093BD05CA
:101870008FEF8093EF058093F005409154025091D3
:10188000550260915602709157024093C2055093E1
:10189000C3056093C4057093C5058093F2058093DA
:1018A000F305F80180859185A285B3858093B605FF
:1018B0009093B705A093B805B093B90542E050E006
:1018C0006BE974E083E0BFD5F80184899589A68926
:1018D000B7898093B2059093B305A093B405B093F4
:1018E000B50542E050E065EE74E082E0ACD5812CB5
:1018F000912C540183948092D6059092D705A092A2
:10190000D805B092D90563E382E30E9429041092BE
:10191000DA0518A289A29AA2ABA2BCA261E087E173
:101920000E940002DD24D394DDA21C86F801808190
:101930009181A281B3818C8B9D8BAE8BBF8B8D8669
:101940009E86AF86B88A6EE370E080E090E00E94E9
:10195000D2019B8B8A8BD98A1882F8018481958168
:10196000A681B78188879987AA87BB8789829A824F
:10197000AB82BC826FE370E080E090E00E94D20115
:101980009F838E83DD8218AA89AA9AAAABAABCAAD1
:10199000E12CF12C8701A801970163E070E080E061
:1019A00090E00E948A029FAB8EABDDAA18A689A6A2
:1019B0009AA6ABA6BCA6A80197016CE270E080E0F5
:1019C00090E00E948A029FA78EA7DDA618AE89AE7E
:1019D0009AAEABAEBCAEA80197016BE070E080E0C0
:1019E00090E00E948A029FAF8EAFDDAE188E898E86
:1019F0009A8EAB8EBC8E61E086E10E940002DD8E85
:101A0000DF91CF911F910F91FF90EF90DF90BF90EA
:101A1000AF909F908F90089580919205811103C09F
:101A200081E08093920580917E0581111FC081E045
:101A300080937E0580917F0590918005A09181051E
:101A4000B09182050197A105B10581F480918305CC
:101A5000882361F06EE370E080E090E00E948E01E8
:101A600090938505809384050E94F501809172050D
:101A700081111FC081E08093720580917305909160
:101A80007405A0917505B09176050197A105B10582
:101A900081F480917705882361F06FE370E080E046
:101AA00090E00E948E0190937905809378050E94C2
:101AB000F5018091A20581112EC081E08093A205DD
:101AC0008091A3059091A405A091A505B091A605CC
:101AD0000197A105B105F9F48091A7058823D9F0F4
:101AE00063E070E080E090E00E9446029093A905D8
:101AF0008093A80540E050E0BA010E940F0263E025
:101B000070E080E090E00E9446029093A9058093E7
:101B1000A8050E94DB0280919A0581112EC081E008
:101B200080939A0580919B0590919C05A0919D05BD
:101B3000B0919E050197A105B105F9F480919F052B
:101B40008823D9F06CE270E080E090E00E944602C9
:101B50009093A1058093A00540E050E0BA010E9457
:101B60000F026CE270E080E090E00E9446029093E9
:101B7000A1058093A0050E94DB028091AA05811136
:101B80002EC081E08093AA058091AB059091AC05B1
:101B9000A091AD05B091AE050197A105B105F9F48D
:101BA0008091AF058823D9F06BE070E080E090E091
:101BB0000E9446029093B1058093B00540E050E04A
:101BC000BA010E940F026BE070E080E090E00E949A
:101BD00046029093B1058093B0050E94DB0280918C
:101BE0008A05811103C081E080938A05089560E031
:101BF00070E080E89FE7089560E070E080E89FE78C
:101C0000089560E070E080E89FEF089560E070E084
:101C100080E89FEF089560E070E080EC9FEF08950A
:101C200060E070E080EC9FEF0895F5DF60930D06B3
:101C300070930E0680930F0690931006F1DF609369
:101C40000106709302068093030690930406CFDF8B
:101C50006093090670930A0680930B0690930C0616
:101C6000CBDF60930506709306068093070690937A
:101C70000806C7DF6093110670931206809313065F
:101C800090931406C3DF6093150670931606809335
:101C90001706909318060895CF92DF92EF92FF9265
:101CA000CF936B017C01AC019B016091090670919F
:101CB0000A0680910B0690910C066DD1C1E0882335
:101CC00069F0A7019601609111067091120680914A
:101CD0001306909114065FD18111C0E08C2FCF9133
:101CE000FF90EF90DF90CF9008950F931F938B019B
:101CF0009C010027112720783F7701151105204806
:101D00003F4749F4AB01BC016F77772781E0452B52
:101D1000462B472B09F480E01F910F910895E5CFE2
:101D200026E030E040E855E260E070E090E080E0DE
:101D300000C08130910571F01CF4892B39F00895B1
:101D40008230910551F0039759F008958EEF92E09B
:101D50000C947E178BE993E0FBCF88E394E0F8CFF7
:101D600085ED94E0F5CF0895CF92DF92EF92FF9248
:101D70000F931F9384D56093EA027093EB028093D4
:101D8000EC029093ED020091EE021091EF0220918F
:101D9000F0023091F1026B017C01C01AD10AE20A13
:101DA000F30A97018601003117422105310508F138
:101DB0006093EE027093EF028093F0029093F10231
:101DC00025D05DD50091EE021091EF022091F00236
:101DD0003091F102601B710B820B930B60317742E3
:101DE0008105910570F081E090E09093F40280937A
:101DF000F30281E01F910F91FF90EF90DF90CF9061
:101E000008951092F4021092F302F3CF8091F2023F
:101E100091E0980F9093F202882349F021E030E09E
:101E20003093F4022093F3028093F20208950E940B
:101E30007E058091F2028150F7CFCF93DF9310920D
:101E40001A061092190640D56BDFC091C002D091DE
:101E5000C10219821882EADCF89485DF2881398171
:101E600081E0232B09F080E080931906789480911B
:101E70001906811107C0D0DDF89490E080E0DF9171
:101E8000CF9108952881398181E0232B09F480E0E6
:101E900080931A0690911A0681E0911180E0809358
:101EA000190662DFE4CF5058BB27AA270ED012C212
:101EB00003D230F008D220F031F49F3F11F41EF429
:101EC000F8C10EF4E095E7FBC5C1E92F14D280F309
:101ED000BA17620773078407950718F071F49EF527
:101EE00043C20EF4E0950B2EBA2FA02D0B01B901C1
:101EF00090010C01CA01A0011124FF27591B99F080
:101F0000593F50F4503E68F11A16F040A22F232F8B
:101F1000342F4427585FF3CF469537952795A795DB
:101F2000F0405395C9F77EF41F16BA0B620B730B82
:101F3000840BBAF09150A1F0FF0FBB1F661F771FF3
:101F4000881FC2F70EC0BA0F621F731F841F48F4A8
:101F5000879577956795B795F7959E3F08F0B3CF2E
:101F60009395880F08F09927EE0F97958795089518
:101F7000E4D180F09F3740F491110EF4F6C160E097
:101F800070E080E89FE3089526F01B16611D711D27
:101F9000811D66C180C13AD108F481E008950CD05A
:101FA00099C191D140F088D130F021F45F3F19F010
:101FB00051C15111DAC17DC19ED198F39923C9F362
:101FC0005523B1F3951B550BBB27AA27621773073F
:101FD000840738F09F5F5F4F220F331F441FAA1FF3
:101FE000A9F333D00E2E3AF0E0E830D091505040B3
:101FF000E695001CCAF729D0FE2F27D0660F771F61
:10200000881FBB1F261737074807AB07B0E809F042
:10201000BB0B802DBF01FF2793585F4F2AF09E3FD7
:10202000510568F017C1A1C15F3FECF3983EDCF3A6
:10203000869577956795B795F7959F5FC9F7880F50
:10204000911D9695879597F90895E1E0660F771FA2
:10205000881FBB1F621773078407BA0720F0621B33
:10206000730B840BBA0BEE1F88F7E095089504D02C
:102070006894B1117AC1089546D188F09F5790F0C5
:10208000B92F9927B751A0F0D1F0660F771F881F9D
:10209000991F1AF0BA95C9F712C0B13081F064D116
:1020A000B1E0089561C1672F782F8827B85F39F0B4
:1020B000B93FCCF3869577956795B395D9F73EF4FC
:1020C00090958095709561957F4F8F4F9F4F0895A4
:1020D000E89409C097FB3EF49095809570956195C2
:1020E0007F4F8F4F9F4F9923A9F0F92F96E9BB2778
:1020F0009395F695879577956795B795F111F8CFF4
:10210000FAF4BB0F11F460FF1BC06F5F7F4F8F4F5E
:102110009F4F16C0882311F096E911C0772321F054
:102120009EE8872F762F05C0662371F096E8862FEC
:1021300070E060E02AF09A95660F771F881FDAF743
:10214000880F9695879597F90895F7D080F09F3777
:1021500040F491110EF009C160E070E080E89FEB5F
:10216000089526F41B16611D711D811D79C093C051
:10217000A3D018F011F0A7D038F49BC0F6C0E92F17
:10218000BAD0B0F35523C9F3E7FB6217730784078E
:102190009507A8F199F3E92FFF2788232AF03197B3
:1021A000660F771F881FDAF7952F5527442332F0E3
:1021B00091505040220F331F441FD2F7BB27E91B19
:1021C000F50B621B730B840BB109C1F222F4620F91
:1021D000731F841FB11D31972AF0660F771F881F68
:1021E000BB1FEFCF915050405AF041F0882332F09E
:1021F000660F771F881F91505040C1F793954BC0D1
:102200008695779567959F5FD9F7F8CF990F000866
:10221000550FAA0BE0E8FEEF16161706E807F907B8
:10222000C0F012161306E407F50798F0621B730B53
:10223000840B950B39F40A2661F0232B242B252BD4
:1022400021F408950A2609F4A140A6958FEF811D77
:10225000811D089597F99F6780E870E060E0089518
:10226000882371F4772321F09850872B762F07C0AD
:10227000662311F499270DC09051862B70E060E021
:102280002AF09A95660F771F881FDAF7880F9695C0
:10229000879597F908959F3F31F0915020F48795E5
:1022A00077956795B795880F911D9695879597F9BE
:1022B00008959FEF80EC089500240A9416161706DF
:1022C00018060906089500240A9412161306140627
:1022D00005060895092E0394000C11F4882352F08A
:1022E000BB0F40F4BF2B11F460FF04C06F5F7F4F42
:1022F0008F4F9F4F089557FD9058440F551F59F029
:102300005F3F71F04795880F97FB991F61F09F3FE2
:1023100079F087950895121613061406551FF2CF0B
:102320004695F1DF08C0161617061806991FF1CF5B
:1023300086957105610508940895E5DFA0F0BEE774
:10234000B91788F4BB279F3860F41616B11D672FA4
:10235000782F8827985FF7CF869577956795B11D79
:1023600093959639C8F30895E894BB276627772795
:10237000CB0197F908954ADF08F48FEF08950BD049
:10238000A9CF9ADF28F09FDF18F0952309F062CFDC
:1023900090CF1124EACFAFDFA0F3959FD1F3950F33
:1023A00050E0551F629FF001729FBB27F00DB11DD9
:1023B000639FAA27F00DB11DAA1F649F6627B00D69
:1023C000A11D661F829F2227B00DA11D621F739F52
:1023D000B00DA11D621F839FA00D611D221F749F60
:1023E0003327A00D611D231F849F600D211D822FA7
:1023F000762F6A2F11249F5750408AF0E1F08823EE
:102400004AF0EE0FFF1FBB1F661F771F881F9150FA
:102410005040A9F79E3F510570F01CCFA6CF5F3FFB
:10242000ECF3983EDCF3869577956795B795F7952D
:10243000E7959F5FC1F7FE2B880F911D96958795B5
:1024400097F908950895883008F076C0E82FF0E0F5
:10245000EE0FFF1FE155FD4F718360838150873080
:1024600008F03DC0E82FF0E08827E65CFD4E8F4F76
:102470000C945D1A7712411249125512621283129E
:102480009012809169008C7F482B40936900E89AF4
:10249000089580916900837F440F551F440F551F95
:1024A000482B40936900E99A0895809169008F7CD8
:1024B00074E0440F551F7A95E1F7482B409369006B
:1024C000EA9A0895809169008F7366E0440F551F62
:1024D0006A95E1F7482B40936900EB9A0895809143
:1024E0006A008C7F482B40936A00EC9A0895809193
:1024F0006A00837F440F551F440F551F482B40939C
:102500006A00ED9A089580916A008F7C24E0440F60
:10251000551F2A95E1F7482B40936A00EE9A0895DB
:1025200080916A008F7396E0440F551F9A95E1F7EA
:10253000482B40936A00EF9A08951F920F920FB6AE
:102540000F9211240BB60F922F933F934F935F93EB
:102550006F937F938F939F93AF93BF93EF93FF936B
:10256000E091B302F091B4021995FF91EF91BF9100
:10257000AF919F918F917F916F915F914F913F911B
:102580002F910F900BBE0F900FBE0F901F901895BC
:102590001F920F920FB60F9211240BB60F922F932A
:1025A0003F934F935F936F937F938F939F93AF93DB
:1025B000BF93EF93FF93E091B502F091B6021995A6
:1025C000FF91EF91BF91AF919F918F917F916F910B
:1025D0005F914F913F912F910F900BBE0F900FBEC7
:1025E0000F901F9018951F920F920FB60F92112403
:1025F0000BB60F922F933F934F935F936F937F93FD
:102600008F939F93AF93BF93EF93FF93E091B702A4
:10261000F091B8021995FF91EF91BF91AF919F9101
:102620008F917F916F915F914F913F912F910F907B
:102630000BBE0F900FBE0F901F9018951F920F9218
:102640000FB60F9211240BB60F922F933F934F9317
:102650005F936F937F938F939F93AF93BF93EF930A
:10266000FF93E091B902F091BA021995FF91EF91B1
:10267000BF91AF919F918F917F916F915F914F919A
:102680003F912F910F900BBE0F900FBE0F901F9098
:1026900018951F920F920FB60F9211240BB60F923E
:1026A0002F933F934F935F936F937F938F939F935A
:1026B000AF93BF93EF93FF93E091AF02F091B0021D
:1026C0001995FF91EF91BF91AF919F918F917F915C
:1026D0006F915F914F913F912F910F900BBE0F9093
:1026E0000FBE0F901F9018951F920F920FB60F926A
:1026F00011240BB60F922F933F934F935F936F93D9
:102700007F938F939F93AF93BF93EF93FF93E0914A
:10271000B102F091B2021995FF91EF91BF91AF9183
:102720009F918F917F916F915F914F913F912F91E9
:102730000F900BBE0F900FBE0F901F9018951F9219
:102740000F920FB60F9211240BB60F922F933F9357
:102750004F935F936F937F938F939F93AF93BF93A9
:10276000EF93FF93E091BB02F091BC021995FF91AA
:10277000EF91BF91AF919F918F917F916F915F91F9
:102780004F913F912F910F900BBE0F900FBE0F9066
:102790001F9018951F920F920FB60F9211240BB62F
:1027A0000F922F933F934F935F936F937F938F93EA
:1027B0009F93AF93BF93EF93FF93E091BD02F0918E
:1027C000BE021995FF91EF91BF91AF919F918F91AB
:1027D0007F916F915F914F913F912F910F900BBE21
:1027E0000F900FBE0F901F9018951F920F920FB66B
:1027F0000F9211242F933F938F939F93AF93BF9387
:102800008091F6029091F702A091F802B091F9023E
:102810003091F50223E0230F2D3758F50196A11DC5
:10282000B11D2093F5028093F6029093F702A093D6
:10283000F802B093F9028091FA029091FB02A09104
:10284000FC02B091FD020196A11DB11D8093FA0218
:102850009093FB02A093FC02B093FD02BF91AF9155
:102860009F918F913F912F910F900FBE0F901F90CE
:10287000189526E8230F0296A11DB11DD2CF3FB7B0
:10288000F8948091FA029091FB02A091FC02B09121
:10289000FD0226B5A89B05C02F3F19F00196A11D8A
:1028A000B11D3FBFBA2FA92F982F8827BC01CD019A
:1028B000620F711D811D911D42E0660F771F881FF9
:1028C000991F4A95D1F70895789484B5826084BDA4
:1028D00084B5816084BD85B5826085BD85B5816024
:1028E00085BDEEE6F0E0808181608083E1E8F0E084
:1028F0001082808182608083808181608083E0E8B3
:10290000F0E0808181608083E1EBF0E08081846091
:102910008083E0EBF0E0808181608083E1E9F0E09A
:10292000808182608083808181608083E0E9F0E043
:10293000808181608083E1EAF0E080818260808331
:10294000808181608083E0EAF0E080818160808323
:10295000E1E2F1E080818260808380818160808318
:10296000E0E2F1E0808181608083EAE7F0E080814D
:1029700084608083808182608083808181608083A5
:102980008081806880831092C1000895863308F0AA
:10299000865320917B00982F9870277F922B9093DD
:1029A0007B002091BF0290E4299F90011124877041
:1029B000822B80937C0080917A00806480937A00DF
:1029C00080917A0086FDFCCF80917800909179000B
:1029D00008951F93CF93DF93182FEB0161E033D15C
:1029E000209731F460E0812FDF91CF911F9167C173
:1029F000CF3FD10511F461E0F6CFE12FF0E0EC51CB
:102A0000FF4FE491E150E23108F0B2C0F0E08827D6
:102A1000E45FFA4E8F4F51C51E1526152B1535153F
:102A20003F15B81549155115591563156D157715CD
:102A300086159015B8159A15A415AE1584B580683D
:102A400084BDC7BDDF91CF911F91089584B5806289
:102A500084BDC8BDF7CF80918000806880938000DE
:102A6000D0938900C0938800EDCF80918000806270
:102A700080938000D0938B00C0938A00E3CF809135
:102A80008000886080938000D0938D00C0938C007C
:102A9000D9CF8091B00080688093B000C093B3001C
:102AA000D1CF8091B00080628093B000C093B40019
:102AB000C9CF80919000806880939000D093990056
:102AC000C0939800BFCF8091900080628093900067
:102AD000D0939B00C0939A00B5CF809190008860FE
:102AE00080939000D0939D00C0939C00ABCF8091C9
:102AF000A00080688093A0008091A0008F7B8093CD
:102B0000A000D093A900C093A8009CCF8091A00002
:102B100080628093A000D093AB00C093AA0092CFB4
:102B20008091A00088608093A000D093AD00C093F6
:102B3000AC0088CF80912001806880932001D093E1
:102B40002901C09328017ECF80912001806280936B
:102B50002001D0932B01C0932A0174CF80912001D2
:102B6000886080932001D0932D01C0932C016ACFFF
:102B7000C038D1050CF03FCF35CF8150823108F0FD
:102B800059C0E82FF0E08827E853FA4E8F4F95C4DC
:102B9000E815EC15DA15E015E4151A16EF15F5151C
:102BA000F915FF15031607160D1611161A16151628
:102BB0001B161F16809180008F77809380000895E8
:102BC000809180008F7DF9CF80918000877FF5CF45
:102BD00084B58F7784BD089584B58F7DFBCF8091B8
:102BE000B0008F778093B00008958091B0008F7D02
:102BF000F9CF809190008F77809390000895809115
:102C000090008F7DF9CF80919000877FF5CF8091E4
:102C1000A0008F778093A00008958091A0008F7D01
:102C2000F9CF8091A000877FF5CF809120018F7729
:102C3000809320010895809120018F7DF9CF8091AC
:102C40002001877FF5CFCF93DF9390E0FC01E65D15
:102C5000FE4F249180599E4FFC0184918823C9F036
:102C600090E0880F991FFC01E651FE4FA591B491A9
:102C7000FC01E053FE4FC591D49161110DC09FB787
:102C8000F8948C91209582238C9388812823288323
:102C90009FBFDF91CF910895623051F49FB7F894B0
:102CA0003C91822F809583238C93E8812E2BEFCF4C
:102CB0008FB7F894EC912E2B2C938FBFEACF1F93F4
:102CC000CF93DF93282F30E0F901EC51FF4F84912F
:102CD000F901E65DFE4FD491F901E059FE4FC49130
:102CE000CC23A1F0162F811148DFEC2FF0E0EE0F7E
:102CF000FF1FE053FE4FA591B4918FB7F894EC916C
:102D0000111108C0D095DE23DC938FBFDF91CF91E6
:102D10001F910895DE2BF8CF0F931F9390E0FC01D5
:102D2000E65DFE4F7491FC01E059FE4FE4916111A4
:102D3000672FF0E0EE0FFF1FEA54FE4F859194914C
:102D400089019A013F70462F672F0E943801611553
:102D500071058105910529F06F5F7F4F8F4F9F4F60
:102D60009F701F910F910895FC01918D228D892FE5
:102D700090E0805C9F4F821B91098F739927089583
:102D8000FC01918D828D981731F0828DE80FF11D35
:102D9000858D90E008958FEF9FEF0895FC01918D50
:102DA000828D981761F0A28DAE0FBF2FB11D5D9679
:102DB0008C91928D9F5F9F73928F90E008958FEF1B
:102DC0009FEF0895FC01538D448D252F30E0842F13
:102DD00090E0821B930B541710F0CF960895019743
:102DE0000895FC01A48DA80FB92FB11DA35ABF4FA0
:102DF0002C91848D90E001968F739927848FA689FA
:102E0000B7892C93A089B1898C91837080648C934D
:102E1000938D848D981306C00288F389E02D8081FC
:102E20008F7D80830895CF93DF93EC01888D882375
:102E3000B1F0AA89BB89E889F9898C9185FD03C025
:102E4000808186FD0CC00FB607FCF7CF8C9185FF03
:102E5000F2CF808185FFEDCFCE01C3DFEACFDF91D6
:102E6000CF910895EF92FF920F931F93CF93DF932B
:102E7000EC0181E0888F9B8D8C8D98131AC0E889B6
:102E8000F989808185FF15C09FB7F894EE89FF8985
:102E90006083E889F98980818370806480839FBF23
:102EA00081E090E0DF91CF911F910F91FF90EF9023
:102EB0000895F62E0B8D10E00F5F1F4F0F73112733
:102EC000E02E8C8D8E110BC00FB607FCFACFE8896F
:102ED000F989808185FFF5CFCE0183DFF2CFEB8DBD
:102EE000EC0FFD2FF11DE35AFF4FF0829FB7F894CE
:102EF0000B8FEA89FB8980818062D0CFCF92DF92ED
:102F0000EF92FF921F93CF93DF93EC016A017B0155
:102F1000122FE889F98982E08083C11481EED806F6
:102F2000E104F10499F060E079E08DE390E0A7011D
:102F30009601A1D221503109410951095695479571
:102F400037952795211580E1380790F0E889F989B0
:102F5000108260E874E88EE190E0A70196018BD2C0
:102F600021503109410951095695479537952795C3
:102F7000EC85FD853083EE85FF852083188EEC89F6
:102F8000FD891083EA89FB89808180618083EA89D9
:102F9000FB89808188608083EA89FB8980818068E1
:102FA0008083EA89FB8980818F7D8083DF91CF9147
:102FB0001F91FF90EF90DF90CF9008951F920F9296
:102FC0000FB60F9211240BB60F922F938F939F93EE
:102FD000EF93FF93E0910E03F0910F038081E09156
:102FE0001403F091150382FD1DC090818091170399
:102FF0008F5F8F7320911803821741F0E0911703C0
:10300000F0E0E250FD4F958F80931703FF91EF9111
:103010009F918F912F910F900BBE0F900FBE0F902D
:103020001F9018958081F2CF1F920F920FB60F92CA
:1030300011240BB60F922F933F934F935F936F938F
:103040007F938F939F93AF93BF93EF93FF938EEFF5
:1030500092E0C7DEFF91EF91BF91AF919F918F9169
:103060007F916F915F914F913F912F910F900BBE88
:103070000F900FBE0F901F901895EEEFF2E01382A5
:10308000128288EE93E0A0E0B0E084839583A6836B
:10309000B78386EC92E09183808385EC90E09587FE
:1030A000848784EC90E09787868780EC90E0918B12
:1030B000808B81EC90E0938B828B82EC90E0958BFF
:1030C000848B86EC90E0978B868B118E128E138EFC
:1030D000148E08951F920F920FB60F9211240BB603
:1030E0000F922F938F939F93EF93FF93E091AB03F6
:1030F000F091AC038081E091B103F091B20382FDC5
:103100001DC090818091B4038F5F8F732091B503B0
:10311000821741F0E091B403F0E0E556FC4F958F43
:103120008093B403FF91EF919F918F912F910F9016
:103130000BBE0F900FBE0F901F9018958081F2CF9D
:103140001F920F920FB60F9211240BB60F922F936E
:103150003F934F935F936F937F938F939F93AF931F
:10316000BF93EF93FF938BE993E03BDEFF91EF91E9
:10317000BF91AF919F918F917F916F915F914F918F
:103180003F912F910F900BBE0F900FBE0F901F908D
:103190001895EBE9F3E01382128288EE93E0A0E049
:1031A000B0E084839583A683B78386EC92E0918315
:1031B00080838DEC90E0958784878CEC90E09787F6
:1031C000868788EC90E0918B808B89EC90E0938BE4
:1031D000828B8AEC90E0958B848B8EEC90E0978BC1
:1031E000868B118E128E138E148E08951F920F925D
:1031F0000FB60F9211240BB60F922F938F939F93BC
:10320000EF93FF93E0914804F09149048081E091AD
:103210004E04F0914F0482FD1DC0908180915104B5
:103220008F5F8F7320915204821741F0E091510417
:10323000F0E0E85CFB4F958F80935104FF91EF9194
:103240009F918F912F910F900BBE0F900FBE0F90FB
:103250001F9018958081F2CF1F920F920FB60F9298
:1032600011240BB60F922F933F934F935F936F935D
:103270007F938F939F93AF93BF93EF93FF9388E3D5
:1032800094E0AFDDFF91EF91BF91AF919F918F914E
:103290007F916F915F914F913F912F910F900BBE56
:1032A0000F900FBE0F901F901895E8E3F4E0138283
:1032B000128288EE93E0A0E0B0E084839583A68339
:1032C000B78386EC92E09183808385ED90E09587CB
:1032D000848784ED90E09787868780ED90E0918BDE
:1032E000808B81ED90E0938B828B82ED90E0958BCB
:1032F000848B86ED90E0978B868B118E128E138EC9
:10330000148E08951F920F920FB60F9211240BB6D0
:103310000F922F938F939F93EF93FF93E091E50488
:10332000F091E6048081E091EB04F091EC0482FDE1
:103330001DC090818091EE048F5F8F732091EF0408
:10334000821741F0E091EE04F0E0EB52FB4F958FD5
:103350008093EE04FF91EF919F918F912F910F90A9
:103360000BBE0F900FBE0F901F9018958081F2CF6B
:103370001F920F920FB60F9211240BB60F922F933C
:103380003F934F935F936F937F938F939F93AF93ED
:10339000BF93EF93FF9385ED94E023DDFF91EF91D1
:1033A000BF91AF919F918F917F916F915F914F915D
:1033B0003F912F910F900BBE0F900FBE0F901F905B
:1033C0001895E5EDF4E01382128288EE93E0A0E018
:1033D000B0E084839583A683B78386EC92E09183E3
:1033E000808385E391E09587848784E391E09787E4
:1033F000868780E391E0918B808B81E391E0938BD2
:10340000828B82E391E0958B848B86E391E0978BAE
:10341000868B118E128E138E148E0895AF92BF92EA
:10342000CF92DF92EF92FF920F931F93CF93DF9390
:103430006C017B018B01040F151FEB015E01AE18BF
:10344000BF08C017D10759F06991D601ED91FC91E1
:103450000190F081E02DC6011995892B79F7C501FE
:10346000DF91CF911F910F91FF90EF90DF90CF9060
:10347000BF90AF900895A1E21A2EAA1BBB1BFD01BD
:103480000DC0AA1FBB1FEE1FFF1FA217B307E40743
:10349000F50720F0A21BB30BE40BF50B661F771F9B
:1034A000881F991F1A9469F760957095809590957B
:1034B0009B01AC01BD01CF010895EE0FFF1F881FD6
:1034C0008BBF0790F691E02D1994A29FB001B39F96
:1034D000C001A39F700D811D1124911DB29F700D1D
:0C34E000811D1124911D0895F894FFCF68
:1034EC00000080BF000080BF000000000000803F93
:1034FC0000000000000000000000803F0000000001
:10350C000000803F00000000000000000000C842E6
:10351C00000000000000803F000020420000A0419D
:10352C00000000000000803F0000803F00000040D1
:10353C0000000000000000000000803F000020425E
:10354C000000A041000000000000803F0000484344
:10355C000000C84200000000000000400000000015
:10356C00000000000000803F000048430000C842FB
:10357C00000000000000803F000020420000A0413D
:10358C0000000000000000000000FA4300808022D0
:10359C0012221222122212221222122212221201A0
:1035AC00E6020000000032170E1AE2161317B416CA
:0435BC00CE16C01651
:00000001FF
