:1000000005C100000C9440490C946B490C9496492E
:100010000C94C1490C94EC490C94174A0C94424A34
:100020000C946D4A24C1000022C1000020C10000D0
:100030001EC100001CC100001AC1000018C1000050
:1000400016C1000014C1000012C1000010C1000060
:100050000EC100000CC100000AC100000C94984AB7
:1000600006C100000C948F4E0C94C54E00C10000D8
:10007000FEC00000FCC00000FAC00000F8C0000094
:10008000F6C00000F4C00000F2C00000F0C00000A4
:100090000C941B4F0C94514FEAC00000E8C00000C4
:1000A000E6C00000E4C00000E2C00000E0C00000C4
:1000B000DEC00000DCC00000DAC00000D8C00000D4
:1000C000D6C00000D4C000000C9451440C94A74F3B
:1000D0000C94DD4FCCC000000C9433500C9469504C
:1000E000C6C0000000000A0B02090C0D0E08070331
:1000F00004010000000000000000000000000000FB
:1001000000000000000000000000000000000000EF
:1001100012111000000000000000000000000000AC
:100120000000000000000000000001021020200874
:100130000810204010204080020102010804020142
:1001400001020408102040808040201008040201B1
:10015000800402018040201008040201080402010A
:100160000102040810204080010204081020408091
:1001700005050505070508080808020202020A0A23
:100180000808040404040101010101010101030341
:10019000030303030303040707070C0C0C0C0C0CEC
:1001A0000C0C0202020206060606060606060B0BE9
:1001B0000B0B0B0B0B0B000020002300260029006B
:1001C0002C002F003200000100000301060109018C
:1001D00000002200250028002B002E0031003400F2
:1001E00002010000050108010B01000021002400AC
:1001F00027002A002D003000330001010000040117
:1002000007010A01EE4E7A4F0650925011241FBE8C
:10021000CFEFD1E2DEBFCDBF00E00CBF13E0A0E026
:10022000B2E0EAECF2EA00E00BBF02C007900D92E8
:10023000A839B107D9F721E1A8E9B3E001C01D92BF
:10024000A732B207E1F711E0C6E0D1E000E006C056
:1002500021970109802FFE010E943251C230D1073F
:1002600080E00807A9F70E9443450C946351C8CE6B
:10027000FC01A781B0858C9191858923A481B581EA
:100280009C9140815181628173812681922359F032
:1002900081110BC04F5F5F4F6F4F7F4F4083518382
:1002A0006283738308958111F5CF4150510961092B
:1002B0007109F4CF89E993E0DBCF84EA93E0D8CFEA
:1002C0008FEA93E0D5CF8AEB93E0D2CFFC01A481F3
:1002D000B5818C9196818923A781B0859C914081BD
:1002E0005181628173812185922359F0882359F0CD
:1002F0004F5F5F4F6F4F7F4F4083518362837383A4
:1003000008958823A9F34150510961097109F4CF77
:1003100089E993E0DBCF84EA93E0D8CF8FEA93E0DA
:10032000D5CF8AEB93E0D2CF0F931F93CF93DF9378
:10033000D82FC62F8A01A09198038BE0A89FD001E7
:100340001124A756BC4F1D921D921D921C9213970B
:1003500081E01A968C931A978D2F90E0FC01E65D50
:10036000FE4FE4911696EC931697FC01E059FE4F70
:10037000E491F0E0EE0FFF1FEA54FE4F8591949157
:1003800015969C938E931497862F90E0FC01E65D62
:10039000FE4FE4911996EC931997FC01E059FE4F3A
:1003A000E491F0E0EE0FFF1FEA54FE4F8591949127
:1003B00018969C938E93179760E08D2F0E94FC4CAB
:1003C00060E08C2F0E94FC4C80919803813009F4EE
:1003D0003FC0A8F0823009F462C0833009F486C0BF
:1003E0008091980391E0980F90939803F80180838F
:1003F00090E080E0DF91CF911F910F91089580E010
:10040000D23049F081E0D33031F08EEE8D0F843060
:10041000D8F487E18D1B41E050E06AE571E00E946D
:10042000C64880E0C23049F081E0C33031F08EEE42
:100430008C0F843058F487E18C1B41E050E068E871
:1004400071E00E94C648CCCF8FEFE5CF8FEFF5CF9C
:1004500080E0D23049F081E0D33031F08EEE8D0F64
:100460008430C8F487E18D1B41E050E06DE571E018
:100470000E94C64880E0C23049F081E0C33031F0CC
:100480008EEE8C0F843048F487E18C1B41E050E005
:100490006BE871E0D6CF8FEFE7CF8FEFF7CF80E03B
:1004A000D23049F081E0D33031F08EEE8D0F8430C0
:1004B000C8F487E18D1B41E050E060E671E00E94E6
:1004C000C64880E0C23049F081E0C33031F08EEEA2
:1004D0008C0F843048F487E18C1B41E050E06EE8DB
:1004E00071E0AFCF8FEFE7CF8FEFF7CF80E0D23063
:1004F00049F081E0D33031F08EEE8D0F8430C8F4B6
:1005000087E18D1B41E050E063E671E00E94C64840
:1005100080E0C23049F081E0C33031F08EEE8C0FC4
:10052000843048F487E18C1B41E050E061E971E0E0
:1005300088CF8FEFE7CF8FEFF7CF9BE0899FF00158
:100540001124E756FC4F80819181A281B381FB0188
:1005500080839183A283B38390E080E008959BE041
:10056000899FF0011124E756FC4F108211821282FC
:10057000138290E080E0089590E080E00895CF92AB
:10058000DF92EF92FF92CF93882351F16A017B01B2
:10059000CFEFC80F20E030E0A901CB01B6010E94E7
:1005A000384618168CF0C701B60190580E94A9462B
:1005B0009B01AC016C2F70E090E080E0CF91FF9048
:1005C000EF90DF90CF90B2C0C701B6010E94A44661
:1005D0008C2FCF91FF90EF90DF90CF900C94C24B77
:1005E000CF91FF90EF90DF90CF9008950F931F93DE
:1005F0008B019C0183E036952795179507958A9581
:10060000D1F70B531C4F462F477021E030E0F90122
:1006100002C0EE0FFF1F4A95E2F7AF01F8012081FB
:100620002423CB010196211102C090E080E01F91AC
:100630000F9108950F931F938B019C0183E03695D2
:100640002795179507958A95D1F7677081E090E017
:1006500001C0880F6A95EAF7F801EB53FC4F20813F
:10066000452B31F48095822380831F910F9108954B
:10067000822BFACF2F923F924F925F926F927F928E
:100680008F929F92AF92BF92CF92DF92EF92FF92A2
:100690000F931F93CF93DF93D62EC72E782E692EFC
:1006A00049015A01280161E08D2D0E94FC4CCD2D9D
:1006B000DC2D8E010F5F1F4FA8016D2D7C2D872D26
:1006C000962DB8DF20E030E0A901C201B7010E94F9
:1006D0002848181664F4C201B7010E94A9462B01EC
:1006E000C501B4010E94A946A201CE0123D0C801D0
:1006F000DF91CF911F910F91FF90EF90DF90CF90FE
:10070000BF90AF909F908F907F906F905F904F9031
:100710003F902F900895882341F08150682F70E01A
:1007200090E080E050E040E085CF0895862FB90149
:100730000C94C24B9C01FC01EC51FF4FE491E15041
:10074000E231E0F4F0E08827E755FC4F8F4F0C943E
:100750003251BB03C203C503DC03F103BE0306042D
:10076000120416042D04420457046E048304BE03CD
:100770009804AF04C40484B5806884BD60E0822F0F
:100780000C94384D84B58062F8CF809180008C7FC6
:1007900082608093800080918100807E8061682BE0
:1007A0006093810050938700409386008091800081
:1007B000806880938000E2CF809180008C7F82608F
:1007C0008093800080918100807E8061682B60939F
:1007D0008100509387004093860080918000806262
:1007E000E8CF809180008C7F826080938000809130
:1007F0008100807E8061682B609381005093870028
:1008000040938600809180008860D3CF8091B000B3
:1008100080688093B0008091B100887F682B6093DE
:10082000B100ACCF8091B0008062F3CF8091900096
:100830008C7F82608093900080919100807E8061A7
:10084000682B60939100509397004093960080919D
:10085000900080688093900091CF809190008C7F71
:1008600082608093900080919100807E8061682BEF
:100870006093910050939700409396008091900070
:100880008062E8CF809190008C7F8260809390009E
:1008900080919100807E8061682B609391005093DD
:1008A000970040939600809190008860D3CF80910C
:1008B000A0008C7F82608093A0008091A100807E48
:1008C0008061682B6093A1005093A7004093A6001D
:1008D0008091A00080688093A00050CF8091A000FC
:1008E0008C7F82608093A0008091A100807E8061D7
:1008F000682B6093A1005093A7004093A6008091BD
:10090000A0008062E8CF8091A0008C7F82608093FD
:10091000A0008091A100807E8061682B6093A1007F
:100920005093A7004093A6008091A0008860D3CF89
:10093000809120018C7F8260809320018091210131
:10094000807E8061682B6093210150932701409342
:100950002601809120018068809320010FCF809133
:1009600020018C7F82608093200180912101807E14
:100970008061682B609321015093270140932601E9
:10098000809120018062E8CF809120018C7F82607D
:100990008093200180912101807E8061682B60938B
:1009A0002101509327014093260180912001886006
:1009B000D3CFCF93DF93882349F0EB0181500E947E
:1009C0009F4B99838883DF91CF910895FB0111821A
:1009D0001082F9CF0F931F938B019C0183E0369512
:1009E0002795179507958A95D1F702531C4F462FE7
:1009F000477021E030E0F90102C0EE0FFF1F4A9579
:100A0000E2F7AF01F80120812423CB0101962111E7
:100A100002C090E080E01F910F9108950F931F9303
:100A20008B019C0183E036952795179507958A954C
:100A3000D1F7677081E090E001C0880F6A95EAF70E
:100A4000F801E253FC4F2081452B31F4809582233D
:100A500080831F910F910895822BFACFCF92DF925E
:100A6000EF92FF92CF93DF936B017C0160E086E30E
:100A7000C816D104E104F10490F486E38C0D0E94C1
:100A8000FC4CE6012196AE01C701B601C7DFCE01DD
:100A9000DF91CF91FF90EF90DF90CF9008958C2D54
:100AA000EECF882341F08150682F70E090E080E025
:100AB00050E040E0B3CF089590E080E008950F93B8
:100AC0001F93009709F491C06115710509F48DC059
:100AD0000091AE021091AF022091B0023091B102AC
:100AE0000E3F1F4F2F4F3F4F09F070C04FEF5FEF8A
:100AF000BA014093AE025093AF026093B00270937C
:100B0000B1024091AE025091AF026091B00270917B
:100B1000B102DC011296ED91FC9180819181A2815C
:100B2000B3818093340590933505A0933605B09337
:100B3000370584819581A681B78180933005909394
:100B40003105A0933205B093330580859185A28548
:100B5000B38580932C0590932D05A0932E05B0931B
:100B60002F0584859585A685B78580932805909364
:100B70002905A0932A05B0932B0510922405109205
:100B8000250510922605109227050E94532888E714
:100B900098E29093D8038093D7039093DA038093DD
:100BA000D9039093DC038093DB039093DE0380935F
:100BB000DD030E944227009731F421E030E03093BA
:100BC0003905209338051F910F9108950091AE02C9
:100BD0001091AF022091B0023091B102DB010D9370
:100BE0001D932D933C9313978CCF8FEF9FEFEBCFFB
:100BF0008F929F92AF92BF92CF92DF92EF92FF922D
:100C00001F93CF93DF934B015C0110913B0582E072
:100C100090E0909339058093380581149104A104E4
:100C2000B10441F480913B05811104C080913A05E3
:100C3000C1E08111C0E0C12CD12C760180913B052F
:100C4000811106C080913A05811102C0CC23D9F0F0
:100C500083E090E09093390580933805CC2381F1AF
:100C6000CCE9DFEF111102C00E94DD2BCE01DF9134
:100C7000CF911F91FF90EF90DF90CF90BF90AF90FA
:100C80009F908F9008956AE070E080E090E00E946D
:100C9000074B80E1C80E87E2D81EE11CF11C8FEFE4
:100CA00088169806A806B80631F0C1E08C149D0499
:100CB000AE04BF0408F0C0E080E00E947627BECFFB
:100CC000D0E0C0E0CFCFCF92DF92EF92FF920F93B0
:100CD0001F93CF93DF938F3F910511F008F051C020
:100CE00020913805309139052330310539F02091B4
:100CF0003805309139052130310531F424E030E0F8
:100D000030933905209338056A017B01EC0184306A
:100D10009105A8F011E0AE01C701B6010E9441277C
:100D2000AB01BC01CE011123F9F0DF91CF911F91EE
:100D30000F91FF90EF90DF90CF900C94062E8C01D6
:100D4000000F111F09521C4FD8018D919C91892BC6
:100D500009F30E94102E0297E9F6D801ED91FC915B
:100D6000CE011995182FD7CF0E94282E90E080E051
:100D7000DF91CF911F910F91FF90EF90DF90CF9077
:100D800008958FEF9FEFF4CF80E00C947627CF93F8
:100D9000DF9386E090E090933905809338050E94B8
:100DA000CF27EC01E7EDF3E088E0DF011D928A95A3
:100DB000E9F70E94752B1092390510923805CE0183
:100DC000DF91CF91089580913A0508958091230590
:100DD00008956093AE027093AF028093B002909337
:100DE000B10290E080E00895CF92DF92EF92FF92FF
:100DF0008091D104882329F0813039F08091D20488
:100E000001C081E08093D00402C01092D004E09130
:100E1000D00484E0E89FF0011124ED52FB4FC08024
:100E2000D180E280F380C092CC04D092CD04E092D5
:100E3000CE04F092CF048FEF8093D0042091AC10B9
:100E40003091AD104091AE105091AF1060913C02C6
:100E500070913D0280913E0290913F020E94D345E5
:100E600060937A1070937B1080937C1090937D1028
:100E70006093AC107093AD108093AE109093AF1050
:100E800024E0209306112091FA10222349F021300A
:100E900059F03091FB1021E0332319F020E001C01C
:100EA00021E02093F91002C01092F9102091F9105E
:100EB0002223E1F06093BC107093BD108093BE10AC
:100EC0009093BF102091F9102093FB102FEF2093E7
:100ED000F91020910311222391F02130A1F03091DB
:100EE000041121E0332361F020E00AC06093B810C0
:100EF0007093B9108093BA109093BB10E3CF21E0A8
:100F00002093021102C0109202112091021122239B
:100F100021F16093D4107093D5108093D6109093E4
:100F2000D71080910211809304118FEF80930211EA
:100F3000C701B6010E94D5462AE037ED43E25CE3E3
:100F40000E9462480E94A946AB01BC0182E090E089
:100F5000FF90EF90DF90CF90B6CE6093D01070935B
:100F6000D1108093D2109093D310DBCFCF92DF9229
:100F7000EF92FF928091E004882329F0813039F0CC
:100F80008091E10401C081E08093DF0402C01092EF
:100F9000DF04E091DF0484E0E89FF0011124EE51CA
:100FA000FB4FC080D180E280F380C092DB04D092FE
:100FB000DC04E092DD04F092DE048FEF8093DF0426
:100FC0002091A8103091A9104091AA105091AB1017
:100FD000609148027091490280914A0290914B02BF
:100FE0000E94D345609376107093771080937810A9
:100FF000909379106093A8107093A9108093AA1011
:101000009093AB1024E0209305112091F710222338
:1010100049F0213059F03091F81021E0332319F0D4
:1010200020E001C021E02093F61002C01092F610DB
:101030002091F6102223E1F06093B4107093B51064
:101040008093B6109093B7102091F6102093F8106B
:101050002FEF2093F6102091FD10222391F02130E4
:10106000A1F03091FE1021E0332361F020E00AC0AE
:101070006093B0107093B1108093B2109093B3103E
:10108000E3CF21E02093FC1002C01092FC102091CD
:10109000FC102223E1F06093C4107093C51080937C
:1010A000C6109093C7102091FC102093FE102FEFD4
:1010B0002093FC1020910011222391F02130A1F007
:1010C0003091011121E0332361F020E00AC06093E8
:1010D000C0107093C1108093C2109093C310E3CFDF
:1010E00021E02093FF1002C01092FF102091FF100A
:1010F000222321F16093CC107093CD108093CE10F9
:101100009093CF108091FF10809301118FEF809307
:10111000FF10C701B6010E94D5462AE037ED43E231
:101120005CE30E9462480E94A946AB01BC0183E0D7
:1011300090E0FF90EF90DF90CF90C5CD6093C81006
:101140007093C9108093CA109093CB10DBCF2F926D
:101150003F924F925F926F927F928F929F92AF9247
:10116000BF92CF92DF92EF92FF920F931F93CF9394
:10117000DF93CDB7DEB7CB54D1090FB6F894DEBFFD
:101180000FBECDBF26967FAF6EAF269728965FAF76
:101190004EAF28973E8B2D8B2C96FFAEEEAE2C9744
:1011A000FB01E150F04CEE0FFF1FEE0FFF1FE80FA9
:1011B000F91F80809180A280B3808F8A988EA98E3B
:1011C000BA8EB501A401442777FD439555276627BC
:1011D000772729964FAF2997F901E150F04CEE0F90
:1011E000FF1FEE0FFF1F2896AEACBFAC2897EA0D8D
:1011F000FB1DC080D180E280F380CB8EDC8EED8E33
:10120000FE8EB701A601442777FD43955527662733
:1012100077272A964FAF2A97188B0F87F80130E06F
:1012200020E02C96EEACFFAC2C972E153F050CF46D
:101230003FC022969FAF8EAF22971A8B098B312C1D
:10124000212C812C912C540183948D829E82AF821B
:10125000B88626968EAC9FAC2697281439047CF16C
:1012600029969FAC29972A96AFAC2A9730E020E0C8
:1012700041E050E060E070E09A10F5C1C55BDF4FDF
:101280000FB6F894DEBF0FBECDBFDF91CF911F9197
:101290000F91FF90EF90DF90CF90BF90AF909F9015
:1012A0008F907F906F905F904F903F902F90089518
:1012B00011921192119211922F5F3F4FB2CF22964D
:1012C000EEADFFAD229781919191A191B1912296BE
:1012D000FFAFEEAF22978F88988CA98CBA8CB7FE9F
:1012E00023C04D815E816F8178854150510961092C
:1012F00071095A016B01A81AB90ACA0ADB0AD60198
:10130000C50121E0CD80DE80EF80F8848C159D053D
:10131000AE05BF0508F020E0822E912CB12CA12C47
:101320008D829E82AF82B8865D01CC24DD24A8A286
:10133000B9A2CAA2DBA29C01AD01442755272CA368
:101340003DA34EA35FA32C96EEADFFAD2C97E21903
:10135000F3098D889E888E169F060CF4F40128965A
:10136000AEACBFAC28972496BFAEAEAE2497C9886A
:10137000DA88DC8ACB8A1E861D86812C912C54014A
:10138000839489869A86AB86BC86812C912C5401E5
:10139000CD84DE84CE16DF0604F1F7FF02C0F0E054
:1013A000E0E0E20DF31D2C96EEACFFAC2C97EE15B1
:1013B000FF0554F4EE0FFF1FEE0FFF1FE00FF11FAC
:1013C00080829182A282B3822FEF221A320AE989A7
:1013D000FA893496FA8BE98B3CCF2496AEADBFAD3B
:1013E0002497CD90DD90ED90FD902496BFAFAEAFE9
:1013F00024972B8D3C8D4D8D5E8D57FF22C08985A6
:101400009A85AB85BC850197A109B109AC01BD01E5
:101410004C195D096E097F096A017B0181E029850C
:101420003A854B855C85C216D306E406F50608F0BE
:1014300080E0482F50E070E060E049875A876B8772
:101440007C87B7018827992768A779A78AA79BA7D0
:10145000EE24FF2428A139A14AA15BA1C701B6014E
:101460000E94ED502B013C012CA13DA14EA15FA19A
:1014700068A579A58AA59BA50E94ED506CA77DA7BC
:101480008EA79FA7AB89BC894D915D916D917D9190
:10149000BC8BAB8BDB01CA01880D991DAA1DBB1D3E
:1014A00089839A83AB83BC8391E09F8F29813A81A2
:1014B0004B815C81281539054A055B0508F01F8EB4
:1014C0002CA13DA14EA15FA1C701B6010E94ED5024
:1014D0006B017C0189809A80AB80BC808C0C9D1C48
:1014E000AE1CBF1C89829A82AB82BC8252019924B5
:1014F000882488AA99AAAAAABBAA29813A814B81E1
:101500005C81280D391D4A1D5B1D2CAB3DAB4EABDC
:101510005FAB8CA49DA4AEA4BFA4540199248824DD
:1015200088AE99AEAAAEBBAE280D391D4A1D5B1D13
:101530002CAF3DAF4EAF5FAFAB89BC8914972D93F5
:101540003D934D935C93139728A139A14AA15BA1C8
:1015500068A579A58AA59BA50E94ED509F8C690D71
:10156000711D811D911D230166247724460E571E8F
:10157000681E791E2CA53DA54EA55FA54A01AA248B
:10158000BB24840C951CA61CB71C81E090E0A0E055
:10159000B0E049815A816B817C814C155D056E05F7
:1015A0007F0518F080E090E0DC01880D991DAA1DF0
:1015B000BB1D41E050E060E070E088A899A8AAA8AF
:1015C000BBA8CCA8DDA8EEA8FFA8C814D904EA04DB
:1015D000FB0418F040E050E0BA01840F951FA61FED
:1015E000B71F812C912C54018394C8ACD9ACEAACC0
:1015F000FBAC2CAD3DAD4EAD5FAD2C153D054E05A4
:101600005F0518F0812C912C5401880E991EAA1E9A
:10161000BB1E4D855E854F5F5F4F5E874D87B8CEA1
:10162000EF85F889C190D190E190F190F88BEF8728
:10163000DB01CA010197A109B1098C199D09AE0905
:10164000BF09349780839183A283B383E1E0841739
:101650009507A607B70708F0E0E04E2F50E070E0CE
:1016600060E02F5F3F4F2C968EAC9FAC2C972815D7
:101670003905B4F203CE2F923F924F925F926F9250
:101680007F928F929F92AF92BF92CF92DF92EF9212
:10169000FF920F931F93CF93DF9300D01F92CDB78C
:1016A000DEB78B015C834B83FB01E150F04CEE0F06
:1016B000FF1FEE0FFF1FE80FF91F4081518162816C
:1016C000738177FD27C04C01B12CA12CC12CD12CEA
:1016D0007601A016B10664F5F401619171918191D2
:1016E00091914F010E94D5464B815C810E942E480A
:1016F0009B01AC01C701B6010E94D4456B017C017E
:101700002B813C81205E3F4F3C832B833FEFA31A0C
:10171000B30ADFCF9A838983312C212C81E090E0BA
:10172000A0E0B0E0C12CD12C760120163106CCF01F
:10173000C701B6010F900F900F900F90DF91CF91DE
:101740001F910F91FF90EF90DF90CF90BF90AF90DF
:101750009F908F907F906F905F904F903F902F90D1
:101760000895E981FA814190519061907190FA83D6
:10177000E983409450946094709453014201880E20
:10178000991EAA1EBB1EC501B4010E94D5464B81FD
:101790005C810E942E489B01AC01C701B6010E94EA
:1017A000D3456B017C0181E084149504A604B70441
:1017B00008F080E090E0B0E0A0E02B813C81205E6A
:1017C0003F4F3C832B833FEF231A330AAECF2F9238
:1017D0003F924F925F926F927F928F929F92AF92C1
:1017E000BF92CF92DF92EF92FF920F931F93CF930E
:1017F000DF93CDB7DEB72E970FB6F894DEBF0FBEDE
:10180000CDBF9E878D873C872B871801FA0125E085
:10181000F695E7952A95E1F7DB01A150B04CAA0FA8
:10182000BB1FAA0FBB1FA80FB91FCD90DD90ED9075
:10183000FC90FF0CCC08DC2C7601E617F7070CF0C7
:10184000D5C0DF01A00FB11F9B01A617B7070CF48D
:101850009D018A010F711127DF01AA0FBB1FAA0F7B
:10186000BB1F01151105F1F40D851E850A0F1B1F05
:101870008B859C8550E040E0BA016E0F7F1F621798
:1018800073070CF05DC0D8018D909D90AD90BD9018
:101890008D01DC018D929D92AD92BD92CD014F5F85
:1018A0005F4FEACF6D847E846A0E7B1E7C826B82E2
:1018B000D3014D905D906D907C90AB84BC84BA82D6
:1018C000A98250E040E0A0E2B0E0CD01801B910B86
:1018D0009E838D8353014201002E04C0B694A794C9
:1018E000979487940A94D2F74F5F5F4FDF01A40F5C
:1018F000B51FA217B30784F1D701C6012617370712
:101900006CF4220F331F220F331FED85FE852E0F3F
:101910003F1FF90180819181A281B3810D8004C0B4
:10192000880F991FAA1FBB1F0A94D2F788299929EB
:10193000AA29BB29E981FA8180839183A283B38399
:101940009A01220F331F220F331F6B847C84620E97
:10195000731E7A8269822EC0DA01AA0FBB1FAA0FFA
:10196000BB1F6B807C80A60DB71D4D905D906D9068
:101970007C90D301C2010D8004C0880F991FAA1F5B
:10198000BB1F0A94D2F7882A992AAA2ABB2AA981BE
:10199000BA818D929D92AD92BD92BA83A9839ACF5E
:1019A000E981FA81C192D192E192F192FA83E983BD
:1019B0004F5F5F4F421553059CF32E960FB6F89478
:1019C000DEBF0FBECDBFDF91CF911F910F91FF9072
:1019D000EF90DF90CF90BF90AF909F908F907F90CF
:1019E0006F905F904F903F902F90089550E040E0AF
:1019F000A7CF2F923F924F925F926F927F928F92DA
:101A00009F92AF92BF92CF92DF92EF92FF920F938D
:101A10001F93CF93DF9300D000D0CDB7DEB7DA01AC
:101A2000E5E0B695A795EA95E1F7FB01E150F04CAA
:101A3000EE0FFF1FEE0FFF1FE80FF91F8080918050
:101A4000A280B380BB0C8808982C54013D010A1772
:101A50001B070CF438017901D12CC12CC614D70412
:101A600064F1F30177FE02C0F0E0E0E0A017B107F7
:101A70000CF075C04F715527A60FB71FB801A017FE
:101A8000B1070CF4BD016E1B7F0BDF01AA0FBB1F5A
:101A9000AA0FBB1F41155105D1F43D01620E731E03
:101AA00050E040E0461757070CF48DC077FF02C0A6
:101AB00070E060E0E60FF71F52C0F701119211923B
:101AC000119211927F01FFEFCF1ADF0AC7CF1C01DD
:101AD00029014A0E5B1E5A8249821E821D82C12C38
:101AE000D12C760180E290E03C01641A750A7C8278
:101AF0006B82AD81BE81A617B707CCF177FF02C01C
:101B000070E060E0E60FF71FE017F1070CF072C01D
:101B1000DF01AA0FBB1FAA0FBB1FA20FB31F80E2DA
:101B200090E0841B950B04C0F694E794D794C79477
:101B30008A95D2F72401350104C0440C551C661C5B
:101B4000771C4A95D2F7B301A201C428D52AE6280A
:101B5000F72ACD92DD92ED92FC9213973196DF0138
:101B6000AA0FBB1FAA0FBB1FA20FB31F40C02601A5
:101B700037010B8004C076946794579447940A9475
:101B8000D2F7D101CD90DD90ED90FD901D01D701F0
:101B9000C601042E04C0880F991FAA1FBB1F0A94F8
:101BA000D2F7482A592A6A2A7B2AA981BA814D92FA
:101BB0005D926D927D92BA83A9838D819E810196FB
:101BC0009E838D8396CFDC01CD90DD90ED90FD90CE
:101BD000CD01D301CD92DD92ED92FD923D014F5F9B
:101BE0005F4F60CF8D929D92AD92BD923196E0177E
:101BF000F107C4F326960FB6F894DEBF0FBECDBF33
:101C0000DF91CF911F910F91FF90EF90DF90CF90D8
:101C1000BF90AF909F908F907F906F905F904F900C
:101C20003F902F900895FA0161937193819391935E
:101C3000990F660B762FCB0141E050E04217530716
:101C40000CF0089561937193819391934F5F5F4F6F
:101C5000F5CF2F923F924F925F926F927F928F9229
:101C60009F92AF92BF92CF92DF92EF92FF920F932B
:101C70001F93CF93DF9379011B01DA01D0E0C0E01D
:101C800040E050E0BA01CE15DF059CF0DF91CF9126
:101C90001F910F91FF90EF90DF90CF90BF90AF908A
:101CA0009F908F907F906F905F904F903F902F907C
:101CB0000895FC0181909190A190B190CF01F10124
:101CC00001911191219131911F0124013501401A97
:101CD000510A620A730A93018201041B150B260B39
:101CE000370B0D931D932D933D9366246394712CB4
:101CF000C12CD12C452B462B472B39F00815190543
:101D00002A053B0538F4612C05C080169106A20611
:101D1000B306C8F7A301B6012196B5CF8F929F9263
:101D2000AF92BF92CF92DF92EF92FF92CF93DF9369
:101D3000F901621773070CF4FB016C017A01B0E042
:101D4000A0E0AE17BF074CF162177307DCF46150D7
:101D5000704C660F771F660F771F680F791FDB01C6
:101D6000CD90DD90ED90FC90FF0CCC08DC2C760142
:101D7000DF01AA0FBB1FAA0FBB1FA40FB51FE217DD
:101D8000F307CCF0DF91CF91FF90EF90DF90CF90F1
:101D9000BF90AF909F908F900895E60189909990A1
:101DA000A990B9906E01E70189929992A992B9928E
:101DB0007E011196C6CFCD92DD92ED92FD923196C5
:101DC000DECF8F929F92AF92BF92CF92DF92EF922F
:101DD000FF920F931F93FB0170E060E0C12CD12CA8
:101DE0007601C394641775075CF01F910F91FF9003
:101DF000EF90DF90CF90BF90AF909F908F9008951D
:101E0000DC018D909D90AD90BD90CD019701860134
:101E10000150110921093109081919092A093B0939
:101E20000193119321933193A1E00C151D052E050B
:101E30003F0508F0A0E0CA2ED12CF12CE12C6F5FF9
:101E40007F4FD0CFAB0141505109FC0130E020E081
:101E50002417350794F06150704C660F771F660F9A
:101E6000771F680F791F80E090E0A0E0B0E8FB01E9
:101E700080839183A283B38308951192119211926A
:101E800011922F5F3F4FE4CFCF92DF92EF92FF92FC
:101E9000AB0141505109FC0130E020E0CC24CA9450
:101EA000DC2C760124173507B4F06150704C660FB6
:101EB000771F660F771F680F791F8FEF9FEFAFEFC8
:101EC000BFE7FB0180839183A283B383FF90EF90F0
:101ED000DF90CF900895C192D192E192F1922F5F5D
:101EE0003F4FE0CFCF92DF92EF92FF92FB0130E0C5
:101EF00020E0C12CD12C7601C3942E173F072CF083
:101F0000FF90EF90DF90CF900895DC014D915D91AF
:101F10006D917D91CD014C0D5D1D6E1D7F1D149742
:101F20004D935D936D937C931397A1E04C155D05E4
:101F30006E057F0508F0A0E0CA2ED12CF12CE12C13
:101F40002F5F3F4FDACFCF92DF92EF92FF92FC01EB
:101F500080E030E020E02617370714F4882329F0CA
:101F6000FF90EF90DF90CF900895C190D190E190D5
:101F7000F1902F5F3F4F81E0CD28CE28CF2859F731
:101F800080E0E9CF2F923F924F925F926F927F92C3
:101F90008F929F92AF92BF92CF92DF92EF92FF9279
:101FA0000F931F93CF93DF93CDB7DEB7A8970FB6EC
:101FB000F894DEBF0FBECDBF9EA38DA31B015E8331
:101FC0004D833A8329831A8F098FDA8AC98AF901E6
:101FD000EE0FFF1FEE0FFF1FE40FF51F49815A811F
:101FE000141615060CF0A0C4B291A29192918291A0
:101FF000892B8A2B8B2B11F1E98DFA8D90E080E0F3
:102000008E159F0514F1F101EE0FFF1FEE0FFF1F5C
:102010008DA19EA1E80FF91F1214130404F1ADA1C4
:10202000BEA1BA83A983E989FA8930E020E02A15A4
:102030003B050CF46AC485E090E04FC029813A81E9
:10204000215031093A832983C9CF119211921192FB
:1020500011920196D5CF91E0291A3108DDCFB291C6
:10206000A29192918291892B8A2B8B2BA1F3E981EA
:10207000FA812E163F069CF249885A885A8649866C
:10208000F20190E080E005C011921192119211923C
:1020900001968A159B05C4F3B1E02B163104B1F506
:1020A000EDA1FEA16081718182819381AD81BE81AC
:1020B0002D913D914D915C910E941051E98DFA8DC9
:1020C0002083318342835383A989BA896D937D9399
:1020D0008D939C93139787E090E0A8960FB6F894A1
:1020E000DEBF0FBECDBFDF91CF911F910F91FF904B
:1020F000EF90DF90CF90BF90AF909F908F907F90A8
:102100006F905F904F903F902F900895E981FA81F2
:10211000E150F04CEE0FFF1FEE0FFF1F4D805E8071
:102120004E0E5F1E5C8A4B8AD201CD90DD90ED9001
:10213000FC90D701C601B695A7959795879501E0C4
:1021400010E01C830B830097A105B10589F5D1012F
:10215000A150B04CAA0FBB1FAA0FBB1F8DA19EA1FF
:10216000A80FB91F4D915D916D917C917695679502
:102170005795479581E090E041155105610571053E
:1021800011F5A981BA81A215B3051CF14B805C80C1
:1021900084159505F0F46DA07EA07A82698230E006
:1021A00020E02A153B050CF49DC386E090E095CF16
:1021B0002B813C812F5F3F4F3C832B83B695A795A6
:1021C00097958795C0CF01967695679557954795D2
:1021D000D3CF29813A8121503109388B2F87910142
:1021E00021503109890175E0000F111F7A95E1F73F
:1021F000080F191F4F855889A5E0440F551FAA9550
:10220000E1F76B817C81640F751F7E876D87AB81E1
:10221000BC81A032B10509F498C134964D805E802E
:10222000E40DF51D70E060E040E250E04A1B5B0BFE
:1022300046015701042E04C0880C991CAA1CBB1C23
:102240000A94D2F76F5F7F4F69807A8066167706AF
:1022500009F062C1AD81BE818D929D92AD92BC921A
:102260001397CC24CA94DC2C76012601370104C0D4
:10227000440C551C661C771C4A95D2F74D8A5E8A21
:102280006F8A788E49815A814130510509F066C1C3
:102290004D885E886F88788C4D8E5E8E6F8E78A2AA
:1022A00069817A81615071094FEF5FE3649F40015A
:1022B000659F900C749F900C11249AA289A21C8691
:1022C0001B86AD84BE84A094B094BCA2ABA2A9012D
:1022D000440F551F440F551FADA1BEA1A40FB51F3C
:1022E000B887AF838032910509F440C0CD90DD906E
:1022F000ED90FC9013974B855C85405E5F4FFA0133
:10230000E81BF90BFC87EB87FD01A90160E270E097
:10231000681B790B26013701062E04C0440C551C9E
:10232000661C771C0A94D2F7141615060CF41FC10C
:10233000A90137FF02C050E040E088248A94FFE3FF
:102340009F2E489DF001499DF00D589DF00D1124E0
:10235000E20FF31FEE0FFF1FEE0FFF1F8DA19EA1D7
:10236000E80FF91F4082518262827382EF81F88503
:1023700080819181A281B381EB89FC894081518167
:1023800062817381CD8CDE8CEF8CF8A0C822D922BB
:10239000EA22FB22C416D506E606F70609F067C155
:1023A0004F80588458A64FA26B887C887C8E6B8E99
:1023B000B2014F8558894115510509F0F1C06D856D
:1023C0007E85061B170B8F859889009709F09DC1A4
:1023D000E9A1FAA1E20FF31FEE0FFF1FEE0FFF1F9F
:1023E0002DA13EA12E0F3F1FF90180819181A28175
:1023F000B381ED81FE814081518162817381841BB3
:10240000950BA60BB70BF90180839183A283B3834D
:10241000F80195E0F695E7959A95E1F7EE0FFF1F25
:10242000EE0FFF1F698C7A8CE60DF71D0F711127D7
:1024300041E050E060E070E004C0440F551F661FAB
:10244000771F0A95D2F780819181A281B381842B75
:10245000952BA62BB72B80839183A283B383EF8127
:10246000F885121413040CF062C280819181A2815C
:10247000B3819101215031093497892B8A2B8B2B01
:1024800009F47FC169807A80261437040CF07BC17F
:1024900091012150310984E090E06B857C8545E015
:1024A000769567954A95E1F74B855C854F71552781
:1024B000FB01EE0FFF1FEE0FFF1F4115510509F441
:1024C00097C12DA03EA02E0E3F1ED101CD90DD90D4
:1024D000ED90FC90B0E0A0E0E0E2F0E02F01441AC3
:1024E000550A5A82498246015701042E04C0B69407
:1024F000A794979487940A94D2F76F5F7F4F1496AE
:10250000261737070CF0B6C1A985BA858D929D9222
:10251000AD92BC92139785C1DF011897CD90DD90E5
:10252000ED90FC90260137010B8004C076946794EF
:10253000579447940A94D2F784289528A628B72858
:10254000B292A2929292829273CE66246A94762C70
:1025500043016D8A7E8A8F8A988E94CE66246A940F
:10256000762C43016D8E7E8E8F8E98A299CEF2903E
:10257000E290D290C29046015701082E04C0B69452
:10258000A794979487940A94D2F784289528A6282C
:10259000B72884829582A682B78241505109BACE6B
:1025A000FB017290629052904290BF0141505109DC
:1025B000EB8DFC8DB290A29092908290FC8FEB8F6D
:1025C000CC24CA94DC2C76014115510521F4CD8828
:1025D000DE88EF88F88CC420D520E620F720C814C8
:1025E000D904EA04FB0409F4E6CE84149504A60495
:1025F000B70408F485C0AD84BE84A016B10608F007
:10260000A9C1EF81F885A9016C017D01CC0CDD1C0D
:10261000EE1CFF1C141615060CF483C0A90137FF2D
:1026200002C050E040E044244A946FE3562E449D9B
:10263000F001459DF00D549DF00D1124E20FF31FA4
:10264000EE0FFF1FEE0FFF1F6DA07EA0E60DF71D22
:10265000C082D182E282F3824B855C854F5F5F4FFF
:102660005C874B876BA17CA1060F171F0AC0481718
:1026700059076A077B0708F0BECF8D849E8408192E
:102680001909F90189819A81E81BF90B3196EE0F3E
:10269000FF1FEE0FFF1FADA1BEA1EA0FFB1F4D8074
:1026A0005E805C8E4B8E90E080E040E050E0BA01AE
:1026B00081909190A190B190AB8DBC8DCD90DD902B
:1026C000ED90FD90BC8FAB8F240135014C185D0857
:1026D0006E087F0873016201C41AD50AE60AF70A78
:1026E00066246394712C30E020E0452B462B472B69
:1026F00079F1C814D904EA04FB0478F5612C2DC0E3
:102700004D855E85041B150BBCCFAFA1B8A51D92EE
:102710001D921D921C92139701971497B8A7AFA30F
:1027200054CEB291A291929182914C015D01882484
:10273000B7FC83949924AA24BB24C828D928EA2862
:10274000FB28C482D582E682F782415051095CCFD2
:102750008C149D04AE04BF0488F6A301632F722F6E
:102760009F0124503109D901CD92DD92ED92FC9266
:102770001397019649805A80841595050CF498CFDB
:1027800047CE19016ECEF101E150F04CEE0FFF1F64
:10279000EE0FFF1F8DA09EA0E80DF91D4081518115
:1027A00062817381769567955795479581E090E0B2
:1027B0004115510561057105A9F48901B5E0000FC6
:1027C000111FBA95E1F7AB84BC840A191B09080FE5
:1027D000191F4D855E850417150708F078CD82E036
:1027E00090E05BCE01967695679557954795E0CF3B
:1027F000ADA1BEA1EA0FFB1F30E020E04191519155
:1028000061917191A985BA854D935D936D937D9387
:10281000BA87A9872F5F3F4F4F84588842165306C7
:102820006CF7EB81FC81B09709F457CCAD81BE8188
:10283000CD90DD90ED90FC901397FD0130E020E00D
:1028400040E250E04B805C80441955092601370175
:10285000042E04C076946794579447940A94D2F750
:102860008F8498882815390524F14082518262822C
:10287000738233CC81010A0F1B1FF801C080D18005
:10288000E280F38026013701098004C0440C551C06
:10289000661C771C0A94D2F784289528A628B728A6
:1028A000E985FA8581929192A192B192FA87E9879E
:1028B0001ACEC480D580E680F780460157010B8090
:1028C00004C0880C991CAA1CBB1C0A94D2F784284B
:1028D0009528A628B72881929192A192B1922F5F54
:1028E0003F4FB4CFE981FA8181919191A191B1914A
:1028F000FA83E983E985FA8581939193A193B19352
:10290000FA87E9872F5F3F4F4CCCA981BA814D915F
:102910005D916D917D91BA83A983419351936193A8
:1029200071932F5F3F4F83CB8FEF9FEFD6CB211457
:10293000310409F0ADCDEDA1FEA180819181A2818C
:10294000B381E989FA8980839183A283B38381E08B
:1029500090E067CF83E090E0A0CD2F923F924F921E
:102960005F926F927F928F929F92AF92BF92CF921F
:10297000DF92EF92FF920F931F93CF93DF93CDB728
:10298000DEB764970FB6F894DEBF0FBECDBF2A0145
:102990003E832D8338011701DE86CD86B88AAF8647
:1029A0002AA53BA53A8B298B4CA55DA558874F835B
:1029B000AEA5BFA5BC8BAB8BFB01E150F04CEE0F7D
:1029C000FF1FEE0FFF1FE80FF91F208131814281A9
:1029D000538129833A834B835C83ED81FE81E150EF
:1029E000F04CEE0FFF1FEE0FFF1FE40DF51D2081D1
:1029F00031814281538129873A874B875C872981BE
:102A00003A814B815C8157FF40C0AB01B401D9D9F9
:102A100089859A85AB85BC85B7FF3CC04D815E81B9
:102A20006F817885C201CDD9AF84B888CD84DE842A
:102A3000710183012B893C894F81588569897A8985
:102A4000C401A0DA97FF48C029813A814B815C819B
:102A5000B101C30157FF27C064960FB6F894DEBFDB
:102A60000FBECDBFDF91CF911F910F91FF90EF90DF
:102A7000DF90CF90BF90AF909F908F907F906F909E
:102A80005F904F903F902F90DDC929893A89A4012A
:102A900045D9BECF2B893C894F8158856D817E8178
:102AA000C2013CD9C1CF64960FB6F894DEBF0FBE09
:102AB000CDBFDF91CF911F910F91FF90EF90DF90ED
:102AC000CF90BF90AF909F908F907F906F905F90CE
:102AD0004F903F902F90D8C989819A81AB81BC815A
:102AE0008827B7FD83959927AA27BB2749855A854B
:102AF0006B857C85442777FD439555276627772787
:102B0000841731F16F8578898D859E851CDA88233D
:102B100019F0B101C301E6D9A101B301C301649663
:102B20000FB6F894DEBF0FBECDBFDF91CF911F91DE
:102B30000F91FF90EF90DF90CF90BF90AF909F905C
:102B40008F907F906F905F904F903F902F9039C9FA
:102B500064960FB6F894DEBF0FBECDBFDF91CF9164
:102B60001F910F91FF90EF90DF90CF90BF90AF90AB
:102B70009F908F907F906F905F904F903F902F909D
:102B800008954F925F926F927F928F929F92AF9231
:102B9000BF92CF92DF92EF92FF92CF93DF939A0191
:102BA0002150304C220F331F220F331FFC01E20F44
:102BB000F31F80809180A280B380FB01E20FF31F9E
:102BC000C080D180E280F380CC24DD24EE24E0E8D4
:102BD000FE2224013501442455246624E0E87E22A7
:102BE000C414D504E604F70499F52C5F3F4FFC01AB
:102BF000E20FF31FEB01C20FD31F141615068CF062
:102C000090E080E0DF91CF91FF90EF90DF90CF9048
:102C1000BF90AF909F908F907F906F905F904F90FC
:102C2000089541505109F290E290D290C290BA9129
:102C3000AA919A918A91C816D906EA06FB06E9F28A
:102C40008C159D05AE05BF0528F481E090E0DACF34
:102C5000B7FEFBCF8FEF9FEFD5CF93DF892F809506
:102C6000881F8827881F0895E0918904F0918A04BD
:102C700080914A1090914B10A0914C10B0914D1042
:102C800080839183A283B38308952F923F924F92C2
:102C90005F926F927F928F929F92AF92BF92CF92EC
:102CA000DF92EF92FF920F931F93CF93DF93CDB7F5
:102CB000DEB7C255D1090FB6F894DEBF0FBECDBF47
:102CC000E090F204F090F304C090F504D090F60484
:102CD00021E0E216F10409F063C06091C004709134
:102CE000C1048091C2049091C3046F5F7F4F8F4FE6
:102CF0009F4F0E94D5462091C4043091C504409155
:102D0000C6045091C7040E94624860930B047093FC
:102D10000C0480930D0490930E04209109113091BE
:102D20000A1140910B1150910C112D962CAF3DAF13
:102D30004EAF5FAF2D97D6018D919D910D90BC91B7
:102D4000A02D29968CAF9DAFAEAFBFAF29979C0148
:102D5000AD0160915C0270915D0280915E02909184
:102D60005F020E942848181684F520916002309175
:102D70006102409162025091630221962CAF3DAFF7
:102D80004EAF5FAF2197EA94EF2809F0C9C0809158
:102D9000F610882349F1813059F18091F81025C04F
:102DA000E114F10409F0B9CFE0913B04F0913C0447
:102DB0000190F081E02D80819181A281B381F601A3
:102DC00080839183A283B383A8CF80910C029091DA
:102DD0000D02A0910E02B0910F0221968CAF9DAF13
:102DE000AEAFBFAF2197CFCF81E08093F71002C085
:102DF0001092F7108091F7108823E1F08091B410C1
:102E00009091B510A091B610B091B71080930E10AC
:102E100090930F10A0931010B09311108FEF809328
:102E2000F7108091F910882371F0813081F0809142
:102E3000FB100AC08091B0109091B110A091B21017
:102E4000B091B310E3CF81E08093FA1002C01092EA
:102E5000FA108091FA108823E1F08091BC109091D3
:102E6000BD10A091BE10B091BF108093121090932E
:102E70001310A0931410B09315108FEF8093FA10D5
:102E80008091FC10882371F0813081F08091FE10D8
:102E90000AC08091B8109091B910A091BA10B09169
:102EA000BB10E3CF81E08093FD1002C01092FD10B3
:102EB0008091FD10882309F4E2C08091C4109091A4
:102EC000C510A091C610B091C710809316109093B2
:102ED0001710A0931810B09319108FEF8093FD1066
:102EE0008091140290911502A0911602B0911702E0
:102EF00080931A1090931B10A0931C10B0931D1078
:102F000080911C0290911D02A0911E02B0911F029F
:102F100080931E1090931F10A0932010B093211047
:102F2000C0905402D0905502E0905602F0905702A3
:102F3000A701960160919C1070919D1080919E1048
:102F400090919F100E943846882341F0C0929C10B7
:102F5000D0929D10E0929E10F0929F106EE370E070
:102F600080E090E00E94EA0490939B1080939A1076
:102F700043E050E0BE01635E7F4F0E94D904209180
:102F8000AC023091AD02AD8DBE8D0E943A510E94CF
:102F9000D54620E030E040E057E30E9462486B01F4
:102FA0007C01C0922210D0922310E0922410F09263
:102FB00025108091F2049091F304019709F03FC429
:102FC00080910811811164C081E08093081181E033
:102FD00090E0A0E0B0E08093F2109093F310A09303
:102FE000F410B093F51010926A1010926B101092BA
:102FF0006C1010926D1010926E1010926F10109253
:103000007010109271108DEC9CECACE4B1E48093E4
:10301000D8109093D910A093DA10B093DB1080E011
:1030200090E0A0E0B3E48093DC109093DD10A093D7
:10303000DE10B093DF108090100290901102A090EB
:103040001202B09013028092261090922710A09244
:103050002810B0922910C0906A10D0906B10E090A8
:103060006C10F0906D1080910711811104C381E004
:103070008093071181E090E0A0E0B0E01DC3809153
:10308000C0109091C110A091C210B091C3101DCF7B
:103090008091F2109091F310A091F410B091F5107E
:1030A00083309105A105B10509F4FDC098F5813083
:1030B0009105A105B10509F472C00297A105B105FA
:1030C00009F498C0C0901E10D0901F10E0902010FE
:1030D000F090211020E030E040E251E4C701B60159
:1030E0000E94284818160CF08DC283E090E0A0E002
:1030F000B0E08093F2109093F310A093F410B0938B
:10310000F5108091DC109091DD10A091DE10B0914F
:10311000DF10B8C085309105A105B10509F410C2D2
:1031200080901E1090901F10A0902010B090211041
:1031300085309105A105B10508F482C10697A10566
:10314000B10509F0BFCF20E030E040E251E4C50115
:10315000B4010E94384618160CF096C120E030E009
:1031600040E251E460911A1070911B1080911C1084
:1031700090911D100E94384618160CF0B4C020E043
:1031800030E0A9016091161070911710809118100D
:10319000909119100E9438468111A1C110C020E001
:1031A00030E040E85FE3609112107091131080915D
:1031B0001410909115100E943846811114CF82E0AE
:1031C00090E0A0E0B0E08093F2109093F310A09311
:1031D000F410B093F510C0926A10D0926B10E09288
:1031E0006C10F0926D10A701960160E070E080E82D
:1031F00093E41BC120E030E0A901609112107091AE
:10320000131080911410909115100E94384681116E
:1032100009C01092721010927310109274101092D4
:103220007510D5CE20E030E040E85FE360911610E5
:103230007091171080911810909119100E943846C3
:103240008111C9CF80E090E0A0E0B3E48093DC106E
:103250009093DD10A093DE10B093DF1010927210E7
:1032600010927310109274101092751043E050E099
:1032700060E070E04093F2105093F3106093F4100C
:103280007093F51080936A1090936B10A0936C105C
:10329000B0936D1080936E1090936F10A093701088
:1032A000B0937110C8CE20E030E0A90160911610F3
:1032B0007091171080911810909119100E94384643
:1032C000882309F47CCF20E030E040E251E46091B3
:1032D0001A1070911B1080911C1090911D100E946B
:1032E000384618164CF184E090E0A0E0B0E08093FE
:1032F000F2109093F310A093F410B093F510109285
:103300006A1010926B1010926C1010926D10109247
:103310006E1010926F10109270101092711080E069
:1033200090E0A0E8BFE38093721090937310A09395
:103330007410B09375107FCE40901E1050901F10E7
:1033400060902010709021108090D8109090D9102B
:10335000A090DA10B090DB10C090DC10D090DD109F
:10336000E090DE10F090DF1020E030E040E251E429
:10337000C301B2010E94384618167CF187E090E044
:10338000A0E0B0E08093F2109093F310A093F410BB
:10339000B093F510A301920160E070E080E291E447
:1033A0000E94D345A50194010E9462484B015C0133
:1033B000AC019B01C701B6010E94D34560936A101E
:1033C00070936B1080936C1090936D10A701960111
:1033D000C501B4010E94D4452AC086E090E0A0E077
:1033E000B0E08093F2109093F310A093F410B09398
:1033F000F51020E030E040E251E4C501B4010E9444
:1034000062484B015C01A7019601C501B4010E940D
:10341000D44560936A1070936B1080936C109093F6
:103420006D10A5019401C701B6010E94D3456093B8
:103430006E1070936F108093701090937110FBCD8D
:1034400040901A1050901B1060901C1070901D102E
:1034500020E030E040E251E4C501B4010E9438466A
:103460001816FCF020E030E040E251E4C301B20164
:103470000E9428481816ACF4109272101092731023
:10348000109274101092751085E090E0A0E0B0E00A
:103490008093F2109093F310A093F410B093F51072
:1034A00083C020E030E040E251E4C301B2010E9459
:1034B000284818166CF51092721010927310109222
:1034C00074101092751086E090E0A0E0B0E0809358
:1034D000F2109093F310A093F410B093F51020E045
:1034E00030E040E251E46091D8107091D9108091A1
:1034F000DA109091DB100E9462484B015C01C09091
:10350000DC10D090DD10E090DE10F090DF107BCF6B
:1035100020E030E0A90160911610709117108091A1
:103520001810909119100E9438468111E8CE10921F
:1035300072101092731010927410109275103FCE8A
:1035400020E030E040E251E460911A1070911B10CD
:1035500080911C1090911D100E94384618160CF096
:10356000C2CE80901E1090901F10A0902010B0909E
:10357000211020E030E040E251E4C501B4010E9496
:10358000284818160CF49FCF20E030E0A901609184
:1035900016107091171080911810909119100E94B8
:1035A0003846882309F40BCEC090DC10D090DD1093
:1035B000E090DE10F090DF10A501940160E070E073
:1035C000CB010E94D3452091D8103091D910409161
:1035D000DA105091DB100E9462484B015C01A5019A
:1035E0009401C701B6010E94D34560936A1070939D
:1035F0006B1080936C1090936D10A5019401C7011E
:10360000B601E8CE20E030E040E251E460911A10CB
:1036100070911B1080911C1090911D100E943846D3
:1036200018160CF060CE85E090E0A0E0B0E080934A
:10363000F2109093F310A093F410B093F510A7013B
:10364000960160E070E0CB010E94D3452091D81034
:103650003091D9104091DA105091DB100E946248ED
:103660004B015C01C090DC10D090DD10E090DE10CA
:10367000F090DF10B4CF8091EE109091EF10A091F8
:10368000F010B091F11081309105A105B105A9F1BB
:103690000297A105B10509F44DC220E030E040E2F7
:1036A00051E4C501B4010E94284818160CF082C2EA
:1036B00082E090E0A0E0B0E08093EE109093EF10F5
:1036C000A093F010B093F110C0926210D0926310EA
:1036D000E0926410F092651080916E1090916F10DE
:1036E000A0917010B0917110809366109093671044
:1036F000A0936810B093691034C080906E109090C1
:103700006F10A0907010B090711020E030E040E891
:103710005FE360910E1070910F10809110109091E6
:1037200011100E94384681110CC082E090E0A0E0A8
:10373000B0E08093EE109093EF10A093F010B09350
:10374000F110C0926210D0926310E0926410F09277
:1037500065108092661090926710A0926810B092E7
:103760006910209170023091710240917202509163
:103770007302609162107091631080916410909157
:1037800065100E94D34520917402309175024091DA
:103790007602509177020E943C4660932A10709303
:1037A0002B1080932C1090932D1020917802309143
:1037B000790240917A0250917B020E943C466093CC
:1037C0002E1070932F108093301090933110109220
:1037D0000610109207101092081010920910109203
:1037E0000A1010920B1010920C1010920D10809174
:1037F000300290913102A0913202B09133028D8754
:103800009E87AF87B88B8091E6109091E710A091CA
:10381000E810B091E91089839A83AB83BC8372E08E
:10382000E72EF12C06E010E121E030E0AE014F5F21
:103830005F4F61E070E0CE010D960E94A7082091D5
:103840002E1030912F104091301050913110219650
:103850006CAD7DAD8EAD9FAD21970E9462482196E3
:103860002CAD3DAD4EAD5FAD21970E94D4456B01AF
:103870007C01C0923210D0923310E0923410F0925A
:10388000351050E040E062E070E086E090E10E9498
:103890003B0B20E030E040E05FE20E9462489B0189
:1038A000AC01C701B6010E94D3454B015C012091D8
:1038B00004023091050240910602509107020E94D5
:1038C00062482D962CAD3DAD4EAD5FAD2D970E945B
:1038D000D4456B017C01C0923610D0923710E09233
:1038E0003810F092391040907C0250907D02609028
:1038F0007E0270907F02A30192010E942848181650
:103900000CF068C140923A1050923B1060923C100B
:1039100070923D10209108023091090240910A02F4
:1039200050910B0260E070E08FE793E40E943C4608
:1039300020913A1030913B1040913C1050913D1035
:103940000E9462480E9412476B017C010E943E2641
:10395000811159C1C701B6010E94F925811153C1D6
:1039600020E030E040E853E4C701B6010E942C4754
:103970006B017C0120E030E0A9010E94384687FFFE
:1039800045C1C701B60190580E94A9466195609350
:10399000821070E090E080E00E94D54660933E1077
:1039A00070933F1080934010909341102091F20447
:1039B0003091F3042130310581F4109242101092BD
:1039C000431010924410109245106093461070936B
:1039D000471080934810909349106BE070E080E0AE
:1039E00090E00E94F6027C019093A7108093A610AD
:1039F0006091821070E090E080E00E94D546AB01BB
:103A0000BC01C7010E94BF02E090F204F090F304F1
:103A1000A50194016091000270910102809102025F
:103A2000909103020E94624860934A1070934B1079
:103A300080934C1090934D10A1E0EA16F10471F5BB
:103A40002091840230918502409186025091870234
:103A50006091661070916710809168109091691064
:103A60000E94D345209188023091890240918A02B8
:103A700050918B020E943C4620918C0230918D0225
:103A800040918E0250918F020E943C4660934E10EE
:103A900070934F10809350109093511029962CAD35
:103AA0003DAD4EAD5FAD299760919002709191024E
:103AB00080919202909193020E94284818160CF06F
:103AC000AAC02091940230919502409196025091A3
:103AD000970260914E1070914F108091501090910C
:103AE00051100E946248609352107093531080935B
:103AF000541090935510EA94EF2809F0E2C0809199
:103B0000721090917310A0917410B0917510809301
:103B1000831090938410A0938510B09386108091A9
:103B2000FF10882309F480C0813009F481C080919E
:103B300001117BC020E030E0A90160910E1070916E
:103B40000F1080911010909111100E943846882318
:103B500009F490CA20E030E040E251E4C501B4012C
:103B60000E94384618160CF4AFCD83E090E0A0E038
:103B7000B0E08093EE109093EF10A093F010B0930C
:103B8000F1102AE939E949E95FE3C701B6010E946A
:103B900062486093621070936310809364109093F6
:103BA000651060936610709367108093681090930F
:103BB0006910D7CD20E030E0A90160910E1070911E
:103BC0000F1080911010909111100E9438468111B1
:103BD000D8CF50CA409080025090810260908202FB
:103BE00070908302A3019201C701B6010E9438467A
:103BF00087FD88CEC0923A10D0923B10E0923C10E4
:103C0000F0923D1087CEC12CD12C7601C701B601B0
:103C10000E94A946BCCE20910C0230910D02409129
:103C20000E0250910F0255CF81E08093001102C027
:103C300010920011809100118823E1F08091CC1046
:103C40009091CD10A091CE10B091CF1080935610CE
:103C500090935710A0935810B09359108FEF809302
:103C6000001180910211882371F0813081F08091E0
:103C700004110AC08091C8109091C910A091CA1077
:103C8000B091CB10E3CF81E08093031102C010927A
:103C9000031180910311882309F434C38091D41057
:103CA0009091D510A091D610B091D71080935A1052
:103CB00090935B10A0935C10B0935D108FEF809396
:103CC0000311C0905002D0905102E0905202F09047
:103CD0005302A701960160918F107091901080910E
:103CE0009110909192100E943846882341F0C09222
:103CF0008F10D0929010E0929110F09292108091DB
:103D00008E10811110928E10BE016B5E7F4F8091DC
:103D100093100E949D028091F2049091F304019708
:103D200009F07FC02D893E894F89588D25962CAF8B
:103D30003DAF4EAF5FAF2597809128029091290249
:103D4000A0912A02B0912B028D879E87AF87B88BF6
:103D50008091EA109091EB10A091EC10B091ED10D1
:103D6000281B390B4A0B5B0BDA01C90189839A8343
:103D7000AB83BC8352E0E52EF12C0EEF1FE021E077
:103D800030E0AE014F5F5F4F61E070E0CE010D9615
:103D90000E94A70864E0E62EF12C0EE81FE022E066
:103DA00030E04EEF5FE062E070E080EA92E00E9477
:103DB000A7080EEB1FE022E030E04EEF52E062E099
:103DC00070E08EEF9FE00E94A70804E010E02EEA6A
:103DD0003FE04FE150E064E070E08EEB9FE00E9436
:103DE000E70B8091AE0F9091AF0FA091B00FB09103
:103DF000B10F80937E1090937F10A0938010B093AA
:103E000081108091180290911902A0911A02B0912C
:103E10001B0280935E1090935F10A0936010B0938C
:103E200061108091F2049091F304019709F0B5C0FC
:103E300060917E1070917F10809180109091811020
:103E400022E030E0AE014B5E5F4F0E94130E02E0B5
:103E500010E09E01235D3F4F4EE150E062E070E0D4
:103E6000CE0145960E94F90C809124029091250282
:103E7000A0912602B091270289AF9AAFABAFBCAF39
:103E80008091E6109091E710A091E810B091E910B0
:103E90008DAB9EABAFABB8AF42E0E42EF12C8E0100
:103EA0000B5E1F4F21E030E0AE014B5C5F4F61E0E5
:103EB00070E0CE01C9960E94A70822E030E0AE0172
:103EC0004B5D5F4FB801CE018D960E94290E809107
:103ED000200290912102A0912202B0912302892B0D
:103EE0008A2B8B2B09F024C242E050E066EF72E08F
:103EF000CE0185960E942D16882309F40CC288E015
:103F0000EEEEF2E0DE015D9601900D928A95E1F70A
:103F100002E010E09E01235F3F4F4EE150E062E07F
:103F200070E0CE014D960E94E70B8D859E85AF8592
:103F3000B8898093E6109093E710A093E810B093AF
:103F4000E91025968CAD9DADAEADBFAD25978093A4
:103F5000EA109093EB10A093EC10B093ED10409109
:103F6000C0045091C1046091C2047091C30490E0F8
:103F700080E00E9463068091F2049091F30401971F
:103F800061F44091C8045091C9046091CA047091D1
:103F9000CB0481E090E00E946306A091F204B0910E
:103FA000F3042F96BFAFAEAF2F97119709F054C20D
:103FB000E0913B04F0913C040190F081E02D2081E0
:103FC00031814281538129962CAF3DAF4EAF5FAF17
:103FD000299780910B0490910C04A0910D04B0914D
:103FE0000E0463968CAF9DAFAEAFBFAF6397E09109
:103FF0000F04F0911004C080D180E280F380E09142
:104000003F04F0914004A081B181BEAFADAFE0911B
:104010000304F09104042080318002811381248103
:10402000358123963FAF2EAF2397468157812B963C
:104030005FAF4EAF2B97E0910104F0910204118223
:10404000108284E0FD01D10101900D928A95E1F783
:10405000E0913904F0913A04118300830E943416F0
:1040600020E030E040E05FE3C701B6010E94624813
:104070002B013C01D8012D913D914D915C910E9405
:104080006248F10120813181428153810E94D445EF
:10409000ADADBEAD6D937D938D939C931397E091E1
:1040A0003B04F0913C04A080B180A30192012996C9
:1040B0006CAD7DAD8EAD9FAD29970E94D445F501C5
:1040C0006083718382839383E0913904F0913A0491
:1040D00023962EAD3FAD2397318320830E94451652
:1040E0000E94341620E030E040E45FE3C701B601EF
:1040F0000E9462482B013C0120E030E0A901C70189
:10410000B6010E946248D8012D913D914D915C917C
:104110000E9462484B015C012396EEADFFAD2397F0
:104120002081318142815381C301B2010E946248E2
:104130009B01AC01C501B4010E94D445D1012D9170
:104140003D914D915C910E94D445EDADFEAD6083F3
:10415000718382839383E0913B04F0913C04A080BF
:10416000B180A301920129966CAD7DAD8EAD9FAD5E
:1041700029970E94D445D5016D937D938D939C938F
:104180001397E0913904F0913A042B962EAD3FAD90
:104190002B97318320830E9445160E94341629E311
:1041A0003EE843E65EE3C701B6010E946248D801DB
:1041B0002D913D914D915C910E9462484B015C01B3
:1041C0002BEA3AEA4AEA5EE3C701B6010E94624876
:1041D0002396EEADFFAD239720813181428153813B
:1041E0000E9462489B01AC01C501B4010E94D44504
:1041F0004B015C0129E33EE843EE5EE3C701B601F3
:104200000E9462482B96AEADBFAD2B972D913D918C
:104210004D915C910E9462489B01AC01C501B401C3
:104220000E94D445F10120813181428153810E9455
:10423000D445ADADBEAD6D937D938D939C93139797
:10424000E0913B04F0913C040190F081E02D6396F5
:104250002CAD3DAD4EAD5FAD63972083318342837E
:104260005383E0910104F09102042F964EAD5FADAF
:104270002F97518340838091C0049091C104A091F5
:10428000C204B091C3040196A11DB11D8093C00466
:104290009093C104A093C204B093C30440910B0453
:1042A00050910C0460910D0470910E04E091F5049E
:1042B000F091F60440835183628373834091C80474
:1042C0005091C9046091CA047091CB044F5F5F4F55
:1042D0006F4F7F4F4093C8045093C9046093CA0442
:1042E0007093CB042091D004222309F47AC02130AA
:1042F00009F47BC021E03091D204332309F472C069
:1043000020E070C08091D0109091D110A091D21077
:10431000B091D310CBCC1D8E1E8E1F8E18A280E0C4
:1043200090E0A0E0B0E889A39AA3ABA3BCA3F0CD32
:1043300023E030E04AED5FE062E070E0CE01859678
:104340000E948E0E03E010E02EEC3FE04EE150E0C4
:1043500063E070E08AED9FE00E94F90C609120021A
:1043600070912102809122029091230223E030E09B
:104370004AED5FE00E94130E1F9283E08F939E012F
:104380002F5F3F4F3F932F931F928F9382EF882E83
:104390008FE0982E93E0A92EB12C26EEC22E2FE0AE
:1043A000D22E34E0E32EF12C0EE91FE023E030E0C2
:1043B0004AED5FE063E070E08EEC9FE00E94AD1498
:1043C00022E030E0AE01435E5F4F64E070E0C80180
:1043D0000E948E0E0F900F900F900F900F900F90E5
:1043E00097CD21E02093D10402C01092D1042091F6
:1043F000D10454E0259FF0011124ED52FB4F80833E
:104400009183A283B3832093D2042FEF2093D1040E
:104410002091DF04222349F0213059F021E030912E
:10442000E104332319F020E001C021E02093E004EF
:1044300002C01092E0042091E00434E0239FF001D8
:104440001124EE51FB4F80839183A283B383209389
:10445000E1048FEF8093E004CE5ADF4F0FB6F8945B
:10446000DEBF0FBECDBFDF91CF911F910F91FF90A7
:10447000EF90DF90CF90BF90AF909F908F907F9004
:104480006F905F904F903F902F9008958F929F92E2
:10449000AF92BF92EF92FF920F931F93CF9384E05E
:1044A00090E070D38BEF93E022EF34E0309302047E
:1044B0002093010425EF34E030933C0420933B0427
:1044C00024EC34E03093100420930F0429E834E006
:1044D00030933A042093390423E834E030934004C5
:1044E00020933F0428EB34E030933E0420933D04B6
:1044F0002AEB34E0309342042093410425E834E071
:10450000309344042093430427E834E03093460476
:10451000209345042BE834E03093820420938104F7
:104520009093660480936504909300048093FF0346
:1045300081E090E09093F3048093F20480E994E0AA
:104540009093A1048093A00484E994E09093A30441
:104550008093A20488E994E09093A5048093A40436
:104560008CE994E09093A7048093A60489E091E1FC
:10457000909384048093830487E890E190938C0463
:1045800080938B041092EA041092EB041092EC04D6
:104590001092ED0480EA94E0909304048093030465
:1045A00010927C0488EE92E09093060480930504B8
:1045B00027EF34E03093F6042093F50480E090E098
:1045C000A0E8BFEB8093EE049093EF04A093F00477
:1045D000B093F1048AE097EDA3E2BCE38093C404B6
:1045E0009093C504A093C604B093C7048AEB92E7E6
:1045F000ACE2B4E68093A8049093A904A093AA0423
:10460000B093AB0484EF9EE5A8E9BEEA8093AC04C6
:104610009093AD04A093AE04B093AF0480EE9BEBF7
:10462000ACE5BEED8093B0049093B104A093B204C6
:10463000B093B30481E79BEEA0E4B7EC8093B4049D
:104640009093B504A093B604B093B7048FEE93E0B3
:104650009093FE038093FD038FED93E09093F0031E
:104660008093EF038DEE92E09093E0038093DF035D
:1046700046E051E15093E2034093E10345E051E10C
:104680005093E4034093E3039093E6038093E503A0
:104690009093E8038093E7039093EA038093E90300
:1046A0009093EC038093EB039093EE038093ED03E0
:1046B0008EEB94E09093F4038093F30388EA94E004
:1046C0009093F2038093F1033093F6032093F50364
:1046D0008FEF8093D1041092D2048093DF048093F3
:1046E000E0041092E104409114025091150260918F
:1046F00016027091170240931A1050931B1060938A
:104700001C1070931D1040911C0250911D0260916D
:104710001E0270911F0240931E1050931F10609351
:10472000201070932110409110025091110260915D
:104730001202709113024093261050932710609339
:10474000281070932910409158025091590260919D
:104750005A0270915B024093091150930A116093C1
:104760000B1170930C11409164025091650260919D
:104770006602709167024093B0105093B11060933D
:10478000B2107093B3108093F6108093F71040919D
:1047900068025091690260916A0270916B024093C5
:1047A000B8105093B9106093BA107093BB108093F7
:1047B000F9108093FA1040916C0250916D02609153
:1047C0006E0270916F024093C0105093C1106093BD
:1047D000C2107093C3108093FC108093FD10409121
:1047E000A8025091A9026091AA027091AB02409375
:1047F000E6105093E7106093E8107093E910409131
:1048000098025091990260919A0270919B02409394
:10481000C8105093C9106093CA107093CB10809346
:10482000FF108093001140919C0250919D02609175
:104830009E0270919F024093D0105093D1106093CC
:10484000D2107093D3108093021180930311409182
:1048500034025091350260913602709137024093D4
:10486000EA105093EB106093EC107093ED104091B0
:10487000D3045091D4046091D5047091D604409330
:10488000CC045093CD046093CE047093CF048093F6
:10489000D0048091400290914102A0914202B091D7
:1048A00043028093AC109093AD10A093AE10B093E0
:1048B000AF108091380290913902A0913A02B091E4
:1048C0003B0280937A1090937B10A0937C10B0935E
:1048D0007D1043E050E064EF76E083E00E94C6483C
:1048E0008091E004882329F0813039F08091E1043F
:1048F00001C081E08093DF0402C01092DF04E091E8
:10490000DF0484E0E89FF0011124EE51FB4F808129
:104910009181A281B3818093DB049093DC04A09306
:10492000DD04B093DE048FEF8093DF0480914C02AE
:1049300090914D02A0914E02B0914F028093A81029
:104940009093A910A093AA10B093AB108091440249
:1049500090914502A0914602B09147028093761053
:1049600090937710A0937810B093791043E050E0C3
:1049700066EB77E082E00E94C64810929410809126
:10498000540290915502A0915602B0915702809323
:104990009C1090939D10A0939E10B0939F10812C1B
:1049A000912C540183948092951090929610A0922D
:1049B0009710B09298106EE370E080E090E00E9453
:1049C0002E0590939B1080939A10C1E0C09399108C
:1049D0001092A0108092A1109092A210A092A31009
:1049E000B092A410E12CF12C8701A80197016BE093
:1049F00070E080E090E00E943A039093A7108093CB
:104A0000A610C093A5101092931010928810809158
:104A1000500290915102A0915202B09153028093A2
:104A20008F1090939010A0939110B0939210809259
:104A3000891090928A10A0928B10B0928C1043E94A
:104A400050E163E182E10E949401C0938D101092C5
:104A50008E1080919310CF911F910F91FF90EF9046
:104A6000BF90AF909F908F900C94AF028091941064
:104A700081111FC081E080939410809195109091D6
:104A80009610A0919710B09198100197A105B105CB
:104A900081F480919910882361F06EE370E080E0EA
:104AA00090E00E94EA0490939B1080939A100E94D9
:104AB00051058091A01081112EC081E08093A0103B
:104AC0008091A1109091A210A091A310B091A41078
:104AD0000197A105B105F9F48091A5108823D9F0BB
:104AE0006BE070E080E090E00E94F6029093A710E7
:104AF0008093A61040E050E0BA010E94BF026BE034
:104B000070E080E090E00E94F6029093A7108093FE
:104B1000A6100E948B0380918810811114C081E03F
:104B2000809388108091891090918A10A0918B10A9
:104B3000B0918C100197A105B10529F480918D10D9
:104B400081110C94BC02089560E070E080E89FE75A
:104B5000089560E070E080E89FE7089560E070E00D
:104B600080E89FEF089560E070E080E89FEF08958F
:104B700060E070E080EC9FEF089560E070E080EC12
:104B80009FEF0895F5DF6093191170931A118093C8
:104B90001B1190931C11F1DF60930D1170930E1196
:104BA00080930F1190931011CFDF609315117093C4
:104BB00016118093171190931811CBDF6093111188
:104BC000709312118093131190931411C7DF6093A7
:104BD0001D1170931E1180931F1190932011C3DF3C
:104BE00060932111709322118093231190932411CB
:104BF0000895CF92DF92EF92FF92CF936B017C01E9
:104C0000AC019B01609115117091161180911711E3
:104C1000909118110E943846C1E0882371F0A701D5
:104C2000960160911D1170911E1180911F1190913C
:104C300020110E9438468111C0E08C2FCF91FF9047
:104C4000EF90DF90CF9008950F931F938B019C01FD
:104C50000027112720783F770115110520483F478D
:104C600049F4AB01BC016F77772781E0452B462BD8
:104C7000472B09F480E01F910F910895E5CF4F92E3
:104C80005F926F927F928F929F92AF92BF92CF92DC
:104C9000DF92EF92FF920F931F93F89440901305C9
:104CA000509014056090150570901605C09007058A
:104CB000D0900805E0900905F0900A0541305105B3
:104CC00009F0A4C09B01AC01241935094609570914
:104CD00029013A0100910F0510911005209111054D
:104CE0003091120548015901840C951CA61CB71C73
:104CF00080169106A206B306A0F400910B05109150
:104D00000C0520910D0530910E050F5F1F4F2F4FA1
:104D10003F4F00930B0510930C0520930D05309326
:104D20000E0580920F0590921005A0921105B09289
:104D3000120500910B0510910C0520910D05309185
:104D40000E058092170590921805A0921905B09251
:104D50001A0500931B0510931C0520931D05309325
:104D60001E056093130570931405809315059093A9
:104D70001605A0E1B7E2A30192010E9449516C0D12
:104D80007D1D8E1D9F1D6093070570930805809300
:104D9000090590930A050091AE021091AF0220918F
:104DA000B0023091B1020F3F1F4F2F4F3F4FF1F034
:104DB0000091AE021091AF022091B0023091B10289
:104DC0000E3F1F4F2F4F3F4F89F0C090AE02D09043
:104DD000AF02E090B002F090B10221E08C149D048B
:104DE000AE04BF0408F420E02093230578941F91BB
:104DF0000F91FF90EF90DF90CF90BF90AF909F907A
:104E00008F907F906F905F904F9008954B015C0161
:104E100084189508A608B708A3019201261B370B32
:104E2000480B590B6415750586059705D0F0821659
:104E30009306A406B50640F420E030E0A9018114F1
:104E40009104A104B10491F4A0E1B7E20E94495198
:104E5000A7019601261B370B480B590BCA01B90154
:104E6000C5CF82169306A406B50670F7A0E1B7E297
:104E7000A50194010E9449516C0D7D1D8E1D9F1D41
:104E8000B5CFFDCECF93DF9300D01F92CDB7DEB765
:104E90001C821B821A82198210921F051092200513
:104EA0001092210510922205BE016F5F7F4FCE0147
:104EB00003960E94214469817A818B819C810E94A2
:104EC0003F3D009761F4BE016F5F7F4FCE010396B7
:104ED0000E942D4469817A818B819C812FD50F900E
:104EE0000F900F900F90DF91CF910895FF920F9345
:104EF0001F93CF93DF93082F60E070E0CB010E94F7
:104F0000074BFF24F3940E94283CEC01892B89F085
:104F100010E0CE3F8FEFD80769F0002361F160E029
:104F200070E0CB010E94074B81E090E0892B59F3A0
:104F300022C011E026D5EC01892B21F0CE3F8FEF66
:104F4000D80759F711111EC011E0229609F410E09C
:104F50000E94D83BEC01892B21F0CE3F8FEFD80780
:104F6000E1F6111111C011E0CE3F8FEFD80709F41F
:104F700010E001110BC0CE01DF91CF911F910F9175
:104F8000FF90089511E0E4CF11E0F3CF60E070E00E
:104F9000CB010E94074B1F25812F90E0C7CFCF93F5
:104FA000DF9380912305882321F060E070E0CB013E
:104FB0004DD636D6D0E0C0E0892B71F06AE070E0C3
:104FC00080E090E00E94074B81E090DF29D6219697
:104FD000C03D27E0D20781F728D60E94933D10926A
:104FE0003B0510923A051092340510923505109247
:104FF0003605109237051092300510923105109247
:1050000032051092330510922C0510922D05109246
:105010002E0510922F051092280510922905109246
:105020002A0510922B051092240510922505109246
:105030002605109227054EEF5FEF6FEF7FEF40934D
:10504000AE025093AF026093B0027093B10210921F
:105050002305E7E1F5E028E0DF011D922A95E9F755
:105060001092130510921405109215051092160552
:1050700010920F0510921005109211051092120552
:1050800010920B0510920C0510920D0510920E0552
:1050900010920705109208051092090510920A0552
:1050A000DF91CF9108951092470510924805109214
:1050B000490510924A051092460580914F0590913E
:1050C0005005909345058093440510924305109236
:1050D000420510923E0510923F0510924005109235
:1050E000410510924C0510924B0590E080E0089528
:1050F000CF92DF92EF92FF920F931F93CF938C0189
:10510000019709F055C020914F05309150058091CD
:1051100044059091450540914F055091500550939D
:105120004505409344052817390781F0109243053F
:105130001092420510923E0510923F0510924005D4
:105140001092410510924C0510924B0580914F052D
:1051500090915005019761F580914B0590914C0518
:10516000892B21F48091B202811112C080914B05EC
:1051700090914C050197E1F480913E0590913F0597
:10518000A0914005B09141050197A105B10581F4B9
:1051900010923E0510923F05109240051092410575
:1051A0001092B20282E090E090934C0580934B0500
:1051B00080914F0590915005019709F01CC1809195
:1051C0006505909166058017910709F014C18091DB
:1051D000610590916205A0916305B0916405009707
:1051E00009F409C12091600521110DC040916105AC
:1051F000509162056091630570916405452B462BC3
:10520000472B09F4F8C020914B0530914C05223012
:10521000310509F0F0C0209142052111ECC0FC01DC
:10522000C080D180E280F38080914605882309F414
:10523000D3C08091520590915305892B09F4FEC08B
:10524000209152053091530581E02230310509F05B
:1052500080E02091520530915305C1E021303105A5
:1052600049F02091520530915305C1E022303105BB
:1052700009F0C0E0882309F456C020915C05309104
:105280005D0540915E0550915F05C701B6010E9422
:10529000284887FD14C020915C0530915D05409140
:1052A0005E0550915F0560914705709148058091BA
:1052B000490590914A050E94384687FD22C02091F9
:1052C0005C0530915D0540915E0550915F05C70119
:1052D000B6010E942848181634F520915C053091DB
:1052E0005D0540915E0550915F05609147057091A5
:1052F00048058091490590914A050E9438468111E0
:1053000012C08091540590915505A0915605B09119
:105310005705892B8A2B8B2B19F481E08093430549
:1053200081E080934205CC2309F456C020915C05AE
:1053300030915D0540915E0550915F05C701B60152
:105340000E94384687FF14C020915C0530915D05AE
:1053500040915E0550915F05609147057091480549
:105360008091490590914A050E94284887FF22C0F4
:1053700020915C0530915D0540915E0550915F057F
:10538000C701B6010E943846811126C020915C05F4
:1053900030915D0540915E0550915F056091470534
:1053A000709148058091490590914A050E942848CE
:1053B000181694F48091540590915505A0915605C6
:1053C000B0915705892B8A2B8B2B19F481E08093A0
:1053D000430581E08093420581E09091420591115F
:1053E00080E080934605C0924705D0924805E09240
:1053F0004905F0924A050130110509F067C1809115
:105400004B0590914C05892BD9F4109251051092BF
:1054100042058091B202882379F082E090E0909377
:105420004C0580934B051092B20220914F053091AC
:10543000500581E0232BE9F080E01BC081E009CF1B
:105440001092B20280915105882349F010924305D1
:1054500010924C0510924B0510925105EDCF8091A2
:105460004F0590915005892BE1F0809142051092F3
:10547000420520914B0530914C052230310509F44D
:105480005EC088F42115310509F448C0213031058A
:1054900009F4F3C010924305109242051092510591
:1054A00038C081E0E6CF2330310509F4B1C02430A3
:1054B000310581F740913E0550913F0560914005CF
:1054C00070914105411551056105710561F041502B
:1054D00051096109710940933E0550933F0560935E
:1054E00040057093410540913E0550913F05609104
:1054F000400570914105452B462B472BD9F420914F
:105500004D0530914E052130310509F046C010920D
:10551000430510924C0510924B050CC08091B202CD
:10552000882341F082E090E090934C0580934B05F6
:105530001092B20210923C0580914305CEC08823A0
:10554000C9F38091540590915505A0915605B091ED
:105550005705181619061A061B060CF07DC0809117
:105560004F0590915005019709F076C08091540540
:1055700090915505A0915605B091570580933E0531
:1055800090933F05A0934005B093410583E090E0E0
:1055900090934C0580934B05CDCF40915805509189
:1055A000590560915A0570915B05452B462B472B99
:1055B000A9F0109243058091580590915905A0914A
:1055C0005A05B0915B0580933E0590933F05A093EB
:1055D0004005B093410581E090E0DACF882399F04F
:1055E0008091B3029091B402A091B502B091B6023D
:1055F00080933E0590933F05A0934005B0934105ED
:1056000084E090E0C5CF1092430582E090E0C0CFE7
:1056100080913E0590913F05A0914005B0914105D4
:105620000097A105B10559F00197A109B10980932F
:105630003E0590933F05A0934005B09341058091AE
:105640003E0590913F05A0914005B0914105892B01
:105650008A2B8B2B09F06ECF8091B3029091B4020C
:10566000A091B502B091B602892B8A2B8B2B09F43D
:105670004ECF81E080934305B3CF40913E055091DA
:105680003F05609140057091410541155105610547
:10569000710561F0415051096109710940933E055E
:1056A00050933F05609340057093410540913E053E
:1056B00050913F056091400570914105452B462B67
:1056C000472B09F037CF8111C7CF9FCF80913C0581
:1056D000882309F431CF80913D05CF911F910F911F
:1056E000FF90EF90DF90CF900895109247051092B1
:1056F00048051092490510924A05109246051092ED
:105700004C0510924B0510924505109244051092DD
:10571000660510926505109243051092420510929D
:105720003E0510923F0510924005109241051092DF
:105730003D0510923C051092610510926205109291
:105740006305109264051092600510925C0510923A
:105750005D0510925E0510925F0588EE93E0A0E073
:10576000B0E08093B3029093B402A093B502B093DB
:10577000B602109258051092590510925A051092CF
:105780005B05109254051092550510925605109223
:105790005705109253051092520581E08093B20292
:1057A000109251051092500510924F0510924E051F
:1057B00010924D0590E080E0089580914F05909102
:1057C0005005892B19F58091B202882351F0809100
:1057D0005105811106C081E080933D0580933C0511
:1057E0000895209151053091B20281E090E0332379
:1057F00011F090E080E030E082239323892B21F0A8
:1058000010923D0581E0EACF10923C05089582E0B8
:1058100090E0FA01918380838FEF9FEF0895CF93FB
:10582000DF93EA01009711F00E94AD3E19821882C1
:1058300090E080E0DF91CF910895DB01009719F4AB
:105840008FEF8C9308952EEF2C93FC013F96EF3051
:10585000F10508F034C08827EF5CF34D8F4F0C94AE
:1058600032515D2C5B2C592C572C552C512C532C20
:105870004F2C4D2C4B2C482C442C402C462C5F2C70
:1058800080E311968C93089589E2FBCF82E2F9CFF1
:1058900011961C92089583E2F4CF81E2F2CF81E168
:1058A000F0CF87E2EECF8AE2ECCF80E1EACF84E26C
:1058B000E8CF88E2E6CF86E2E4CF81E3E2CF80E280
:1058C000E0CF8091730590917405089590937405CD
:1058D00080937305089580917205089590917205E3
:1058E000892B809372050895982F90958091720569
:1058F00089238093720508958091710508958091A0
:105900006F059091700508956115710559F0FB01BF
:1059100030E020E070E060E02417350719F06115F1
:10592000710511F0CB010895A081B181A817B907C5
:1059300009F4BF012F5F3F4F3696EECF809175057A
:1059400081111CC060D266D2909368058093670570
:105950000E94AF360E94C13690936C0580936B0510
:105960000E94403B0E94473B90936A0580936905E3
:1059700081E08093750590E080E0089584EF9FEFCB
:1059800008958F929F92AF92BF92CF92DF92EF9243
:10599000FF920F931F93CF93DF9300D000D000D0DE
:1059A0001F92CDB7DEB71A86198618861F821E820F
:1059B0001D821C821B821A8219828091750507EF55
:1059C0001FEF882309F49CC08E010D5F1F4F9E01BD
:1059D0002B5F3F4FAE01495F5F4FBE01675F7F4F57
:1059E00090E080E00E94C43C8C01009721F0059675
:1059F000029708F0DBC029853A852115310509F4A5
:105A000002C1ED80FE804B815C81B701640F751F80
:105A10008F8198858617970708F4F5C0E20EF31E6C
:105A2000D7019C91903C09F07FC04230510508F4A9
:105A30007BC011968C914091730550917405452B54
:105A400009F49CC0913F08F071C02CE1290F2D3062
:105A500008F48BC02DE2290F203108F489C0903C56
:105A600021F48150823008F483C088E3890F8B30A1
:105A700008F481C09DE1C92E9CE2D92EE7E0FCE24A
:105A80006D817E81AE014F5F5F4F89859A85199543
:105A90005C01C114D104A1F189809A808114910420
:105AA00079F18B819C818815990508F487C010E0F5
:105AB00000E04B815C8170E060E0C7010E945C51B6
:105AC00001151105E9F449815A8169857A858D812D
:105AD0009E81680F791FC501F6011995E980FA804A
