:1000000005C100000C94EF4F0C941A500C9445500D
:100010000C9470500C949B500C94C6500C94F1505E
:100020000C941C5124C1000022C1000020C100001A
:100030001EC100001CC100001AC1000018C1000050
:1000400016C1000014C1000012C1000010C1000060
:100050000EC100000CC100000AC100000C94475101
:1000600006C100000C9466550C949C5500C100001C
:10007000FEC00000FCC00000FAC00000F8C0000094
:10008000F6C00000F4C00000F2C00000F0C00000A4
:100090000C94F2550C942856EAC00000E8C0000009
:1000A000E6C00000E4C00000E2C00000E0C00000C4
:1000B000DEC00000DCC00000DAC00000D8C00000D4
:1000C000D6C00000D4C000000C94A64A0C947E5602
:1000D0000C94B456CCC000000C940A570C944057B2
:1000E000C6C0000000000A0B02090C0D0E08070331
:1000F00004010000000000000000000000000000FB
:1001000000000000000000000000000000000000EF
:1001100012111000000000000000000000000000AC
:100120000000000000000000000001021020200874
:100130000810204010204080020102010804020142
:1001400001020408102040808040201008040201B1
:10015000800402018040201008040201080402010A
:100160000102040810204080010204081020408091
:1001700005050505070508080808020202020A0A23
:100180000808040404040101010101010101030341
:10019000030303030303040707070C0C0C0C0C0CEC
:1001A0000C0C0202020206060606060606060B0BE9
:1001B0000B0B0B0B0B0B000020002300260029006B
:1001C0002C002F003200000100000301060109018C
:1001D00000002200250028002B002E0031003400F2
:1001E00002010000050108010B01000021002400AC
:1001F00027002A002D003000330001010000040117
:1002000007010A01C5555156DD56695711241FBE15
:10021000CFEFD1E2DEBFCDBF00E00CBF13E0A0E026
:10022000B2E0E8E7F0EB00E00BBF02C007900D92F0
:10023000AE38B107D9F72FE0AEE8B3E001C01D92A8
:10024000A435B207E1F711E0C6E0D1E000E006C056
:1002500021970109802FFE010E940958C230D10761
:1002600080E00807A9F70E94F54B0C943A58C8CED5
:10027000CF93DF93882349F0EB0181500E944E52C7
:1002800099838883DF91CF910895FB0111821082B9
:10029000F9CF0F931F938B019C0183E0369527952F
:1002A000179507958A95D1F709561C4F462F477029
:1002B00021E030E0F90102C0EE0FFF1F4A95E2F79E
:1002C000AF01F80120812423CB010196211102C046
:1002D00090E080E01F910F9108950F931F938B0181
:1002E0009C0183E036952795179507958A95D1F758
:1002F000677081E090E001C0880F6A95EAF7F80125
:10030000E956FC4F2081452B31F480958223808370
:100310001F910F910895822BFACFCF92DF92EF9227
:10032000FF92CF93DF936B017C0160E086E3C816F8
:10033000D104E104F10490F486E38C0D0E94AB53E8
:10034000E6012196AE01C701B601C7DFCE01DF91FC
:10035000CF91FF90EF90DF90CF9008958C2DEECF4E
:10036000882341F08150682F70E090E080E050E0F9
:1003700040E0B3CF0895611102C00C94AB536130DB
:10038000E1F362E0FACF0E94145421E0019709F0F2
:1003900020E0822F0895FC01A781B0858C91918582
:1003A0008923A481B5819C914081518162817381AF
:1003B0002681922359F081110BC04F5F5F4F6F4F21
:1003C0007F4F408351836283738308958111F5CFFA
:1003D0004150510961097109F4CF81EA93E0DBCF03
:1003E0008CEA93E0D8CF87EB93E0D5CF82EC93E013
:1003F000D2CFFC01A481B5818C9196818923A781FC
:10040000B0859C91408151816281738121859223C5
:1004100059F0882359F04F5F5F4F6F4F7F4F4083F4
:1004200051836283738308958823A9F3415051094E
:1004300061097109F4CF81EA93E0DBCF8CEA93E0A4
:10044000D8CF87EB93E0D5CF82EC93E0D2CF0F9358
:100450001F93CF93DF93D82FC62F8A01A091A003BB
:100460008BE0A89FD0011124AF55BC4F1D921D9267
:100470001D921C92139781E01A968C931A978D2FD8
:1004800090E0FC01E65DFE4FE4911696EC93169722
:10049000FC01E059FE4FE491F0E0EE0FFF1FEA543B
:1004A000FE4F8591949115969C938E931497862F69
:1004B00090E0FC01E65DFE4FE4911996EC931997EC
:1004C000FC01E059FE4FE491F0E0EE0FFF1FEA540B
:1004D000FE4F8591949118969C938E93179760E0A8
:1004E0008D2F0E94AB5360E08C2F0E94AB53809104
:1004F000A003813009F43FC0A8F0823009F462C043
:10050000833009F486C08091A00391E0980F909306
:10051000A003F801808390E080E0DF91CF911F91EC
:100520000F91089580E0D23049F081E0D33031F06E
:100530008EEE8D0F8430D8F487E18D1B41E050E0C2
:100540006DEE71E00E94754F80E0C23049F081E0AD
:10055000C33031F08EEE8C0F843058F487E18C1B61
:1005600041E050E06BE172E00E94754FCCCF8FEF1D
:10057000E5CF8FEFF5CF80E0D23049F081E0D33086
:1005800031F08EEE8D0F8430C8F487E18D1B41E091
:1005900050E060EF71E00E94754F80E0C23049F09A
:1005A00081E0C33031F08EEE8C0F843048F487E167
:1005B0008C1B41E050E06EE172E0D6CF8FEFE7CFC9
:1005C0008FEFF7CF80E0D23049F081E0D33031F0C7
:1005D0008EEE8D0F8430C8F487E18D1B41E050E032
:1005E00063EF71E00E94754F80E0C23049F081E016
:1005F000C33031F08EEE8C0F843048F487E18C1BD1
:1006000041E050E061E272E0AFCF8FEFE7CF8FEFD4
:10061000F7CF80E0D23049F081E0D33031F08EEE78
:100620008D0F8430C8F487E18D1B41E050E066EF08
:1006300071E00E94754F80E0C23049F081E0C33024
:1006400031F08EEE8C0F843048F487E18C1B41E052
:1006500050E064E272E088CF8FEFE7CF8FEFF7CF03
:100660009BE0899FF0011124EF55FC4F808191811F
:10067000A281B381FB0180839183A283B38390E045
:1006800080E008959BE0899FF0011124EF55FC4F15
:10069000108211821282138290E080E0089590E02F
:1006A00080E00895CF92DF92EF92FF92CF9388235C
:1006B00051F16A017B01CFEFC80F20E030E0A901C2
:1006C000CB01B6010E94E74C18168CF0C701B601A9
:1006D00090580E94584D9B01AC016C2F70E090E047
:1006E00080E0CF91FF90EF90DF90CF90B2C0C70134
:1006F000B6010E94534D8C2FCF91FF90EF90DF9069
:10070000CF900C947152CF91FF90EF90DF90CF90EB
:1007100008950F931F938B019C0183E036952795D5
:10072000179507958A95D1F702571C4F462F4770AA
:1007300021E030E0F90102C0EE0FFF1F4A95E2F719
:10074000AF01F80120812423CB010196211102C0C1
:1007500090E080E01F910F9108950F931F938B01FC
:100760009C0183E036952795179507958A95D1F7D3
:10077000677081E090E001C0880F6A95EAF7F801A0
:10078000E257FC4F2081452B31F4809582238083F2
:100790001F910F910895822BFACF2F923F924F9283
:1007A0005F926F927F928F929F92AF92BF92CF9201
:1007B000DF92EF92FF920F931F93CF93DF93D62E8A
:1007C000C72E782E692E49015A01280161E08D2D2E
:1007D0000E94AB53CD2DDC2D8E010F5F1F4FA80162
:1007E0006D2D7C2D872D962DB8DF20E030E0A901FE
:1007F000C201B7010E94D74E181664F4C201B701B6
:100800000E94584D2B01C501B4010E94584DA20110
:10081000CE0123D0C801DF91CF911F910F91FF909E
:10082000EF90DF90CF90BF90AF909F908F907F9090
:100830006F905F904F903F902F900895882341F0E4
:100840008150682F70E090E080E050E040E085CF7C
:100850000895862FB9010C9471529C01FC01EC5152
:10086000FF4FE491E150E231E0F4F0E08827E45CEE
:10087000FB4F8F4F0C9409584E04550458046F04D5
:10088000840451049904A504A904C004D504EA040D
:100890000105160551042B054205570584B58068EE
:1008A00084BD60E0822F0C94E75384B58062F8CF5A
:1008B000809180008C7F8260809380008091810095
:1008C000807E8061682B6093810050938700409305
:1008D000860080918000806880938000E2CF8091C4
:1008E00080008C7F82608093800080918100807E78
:1008F0008061682B6093810050938700409386004D
:10090000809180008062E8CF809180008C7F82603F
:100910008093800080918100807E8061682B60934D
:10092000810050938700409386008091800088600A
:10093000D3CF8091B00080688093B0008091B100E7
:10094000887F682B6093B100ACCF8091B00080624B
:10095000F3CF809190008C7F826080939000809193
:100960009100807E8061682B609391005093970086
:10097000409396008091900080688093900091CF82
:10098000809190008C7F8260809390008091910094
:10099000807E8061682B6093910050939700409314
:1009A0009600809190008062E8CF809190008C7FCB
:1009B00082608093900080919100807E8061682B9E
:1009C000609391005093970040939600809190001F
:1009D0008860D3CF8091A0008C7F82608093A0003C
:1009E0008091A100807E8061682B6093A10050936C
:1009F000A7004093A6008091A00080688093A0008B
:100A000050CF8091A0008C7F82608093A000809165
:100A1000A100807E8061682B6093A1005093A700A5
:100A20004093A6008091A0008062E8CF8091A00052
:100A30008C7F82608093A0008091A100807E806185
:100A4000682B6093A1005093A7004093A60080916B
:100A5000A0008860D3CF809120018C7F826080933A
:100A6000200180912101807E8061682B60932101AB
:100A70005093270140932601809120018068809344
:100A800020010FCF809120018C7F82608093200114
:100A900080912101807E8061682B609321015093B9
:100AA000270140932601809120018062E8CF809148
:100AB00020018C7F82608093200180912101807EC3
:100AC0008061682B60932101509327014093260198
:100AD000809120018860D3CF90E080E008950F934B
:100AE0001F93009709F489C06115710509F485C049
:100AF0000091A4021091A5022091A6023091A702B4
:100B00000E3F1F4F2F4F3F4F09F068C04FEF5FEF71
:100B1000BA014093A4025093A5026093A602709379
:100B2000A7024091A4025091A5026091A602709183
:100B3000A702DC011296ED91FC9180819181A28146
:100B4000B38180934B0590934C05A0934D05B093D2
:100B50004E0584819581A681B78180934705909346
:100B60004805A0934905B0934A0580859185A285E3
:100B7000B3858093430590934405A0934505B093B6
:100B8000460584859585A685B78580933F05909316
:100B90004005A0934105B093420510923B05109289
:100BA0003C0510923D0510923E050E94872E8CEA6E
:100BB0009EE29093CE038093CD039093D0038093D5
:100BC000CF030E94762D009731F421E030E030937E
:100BD000500520934F051F910F9108950091A40295
:100BE0001091A5022091A6023091A702DB010D937E
:100BF0001D932D933C93139794CF8FEF9FEFEBCFE3
:100C00008F929F92AF92BF92CF92DF92EF92FF921C
:100C10001F93CF93DF934B015C011091520582E04B
:100C200090E09093500580934F0581149104A104A6
:100C3000B10441F480915205811104C080915105A5
:100C4000C1E08111C0E0C12CD12C76018091520508
:100C5000811106C080915105811102C0CC23D9F0C9
:100C600083E090E09093500580934F05CC2381F171
:100C7000CCE9DFEF111102C00E941132CE01DF91E9
:100C8000CF911F91FF90EF90DF90CF90BF90AF90EA
:100C90009F908F9008956AE070E080E090E00E945D
:100CA000B65180E1C80E87E2D81EE11CF11C8FEF1F
:100CB00088169806A806B80631F0C1E08C149D0489
:100CC000AE04BF0408F0C0E080E00E94AA2DBECFB1
:100CD000D0E0C0E0CFCFCF92DF92EF92FF920F93A0
:100CE0001F93CF93DF938F3F910511F008F051C010
:100CF00020914F05309150052330310539F0209176
:100D00004F05309150052130310531F424E030E0B9
:100D10003093500520934F056A017B01EC0182302E
:100D20009105A8F011E0AE01C701B6010E94752D32
:100D3000AB01BC01CE011123F9F0DF91CF911F91DE
:100D40000F91FF90EF90DF90CF900C943A348C018C
:100D5000000F111F03531C4FD8018D919C91892BBB
:100D600009F30E9444340297E9F6D801ED91FC9111
:100D7000CE011995182FD7CF0E945C3490E080E007
:100D8000DF91CF911F910F91FF90EF90DF90CF9067
:100D900008958FEF9FEFF4CF80E00C94AA2DCF93AE
:100DA000DF9386E090E09093500580934F050E947A
:100DB000032EEC01EDECF3E084E0DF011D928A9557
:100DC000E9F70E94A9311092500510924F05CE010B
:100DD000DF91CF91089580915105089580913A0552
:100DE00008956093A4027093A5028093A602909345
:100DF000A70290E080E0089560E070E080E89FE75F
:100E0000089560E070E080E89FE7089560E070E09A
:100E100080E89FEF089560E070E080E89FEF08951C
:100E200060E070E080EC9FEF089560E070E080EC9F
:100E30009FEF0895F5DF60938A0D70938B0D80937B
:100E40008C0D90938D0DF1DF60937E0D70937F0D6F
:100E50008093800D9093810DCFDF6093860D70930A
:100E6000870D8093880D9093890DCBDF6093820D61
:100E70007093830D8093840D9093850DC7DF6093ED
:100E80008E0D70938F0D8093900D9093910DC3DF15
:100E90006093920D7093930D8093940D9093950DA4
:100EA0000895CF92DF92EF92FF92CF936B017C0176
:100EB000AC019B016091860D7091870D8091880D2A
:100EC0009091890D0E94E74CC1E0882371F0A70141
:100ED000960160918E0D70918F0D8091900D909183
:100EE000910D0E94E74C8111C0E08C2FCF91FF90B3
:100EF000EF90DF90CF9008950F931F938B019C018B
:100F00000027112720783F770115110520483F471A
:100F100049F4AB01BC016F77772781E0452B462B65
:100F2000472B09F480E01F910F910895E5CF2F9290
:100F30003F924F925F926F927F928F929F92AF9269
:100F4000BF92CF92DF92EF92FF920F931F93CF93B6
:100F5000DF93CDB7DEB7CB54D1090FB6F894DEBF1F
:100F60000FBECDBF26967FAF6EAF269728965FAF98
:100F70004EAF28973E8B2D8B2C96FFAEEEAE2C9766
:100F8000FB01E150F04CEE0FFF1FEE0FFF1FE80FCB
:100F9000F91F80809180A280B3808F8A988EA98E5D
:100FA000BA8EB501A401442777FD439555276627DE
:100FB000772729964FAF2997F901E150F04CEE0FB2
:100FC000FF1FEE0FFF1F2896AEACBFAC2897EA0DAF
:100FD000FB1DC080D180E280F380CB8EDC8EED8E55
:100FE000FE8EB701A601442777FD43955527662756
:100FF00077272A964FAF2A97188B0F87F80130E092
:1010000020E02C96EEACFFAC2C972E153F050CF48F
:101010003FC022969FAF8EAF22971A8B098B312C3F
:10102000212C812C912C540183948D829E82AF823D
:10103000B88626968EAC9FAC2697281439047CF18E
:1010400029969FAC29972A96AFAC2A9730E020E0EA
:1010500041E050E060E070E09A10F5C1C55BDF4F01
:101060000FB6F894DEBF0FBECDBFDF91CF911F91B9
:101070000F91FF90EF90DF90CF90BF90AF909F9037
:101080008F907F906F905F904F903F902F9008953A
:1010900011921192119211922F5F3F4FB2CF22966F
:1010A000EEADFFAD229781919191A191B1912296E0
:1010B000FFAFEEAF22978F88988CA98CBA8CB7FEC1
:1010C00023C04D815E816F8178854150510961094E
:1010D00071095A016B01A81AB90ACA0ADB0AD601BA
:1010E000C50121E0CD80DE80EF80F8848C159D0560
:1010F000AE05BF0508F020E0822E912CB12CA12C6A
:101100008D829E82AF82B8865D01CC24DD24A8A2A8
:10111000B9A2CAA2DBA29C01AD01442755272CA38A
:101120003DA34EA35FA32C96EEADFFAD2C97E21925
:10113000F3098D889E888E169F060CF4F40128967C
:10114000AEACBFAC28972496BFAEAEAE2497C9888C
:10115000DA88DC8ACB8A1E861D86812C912C54016C
:10116000839489869A86AB86BC86812C912C540107
:10117000CD84DE84CE16DF0604F1F7FF02C0F0E076
:10118000E0E0E20DF31D2C96EEACFFAC2C97EE15D3
:10119000FF0554F4EE0FFF1FEE0FFF1FE00FF11FCE
:1011A00080829182A282B3822FEF221A320AE989C9
:1011B000FA893496FA8BE98B3CCF2496AEADBFAD5D
:1011C0002497CD90DD90ED90FD902496BFAFAEAF0B
:1011D00024972B8D3C8D4D8D5E8D57FF22C08985C8
:1011E0009A85AB85BC850197A109B109AC01BD0108
:1011F0004C195D096E097F096A017B0181E029852F
:101200003A854B855C85C216D306E406F50608F0E0
:1012100080E0482F50E070E060E049875A876B8794
:101220007C87B7018827992768A779A78AA79BA7F2
:10123000EE24FF2428A139A14AA15BA1C701B60170
:101240000E94C4572B013C012CA13DA14EA15FA1DE
:1012500068A579A58AA59BA50E94C4576CA77DA700
:101260008EA79FA7AB89BC894D915D916D917D91B2
:10127000BC8BAB8BDB01CA01880D991DAA1DBB1D60
:1012800089839A83AB83BC8391E09F8F29813A81C4
:101290004B815C81281539054A055B0508F01F8ED6
:1012A0002CA13DA14EA15FA1C701B6010E94C45768
:1012B0006B017C0189809A80AB80BC808C0C9D1C6A
:1012C000AE1CBF1C89829A82AB82BC8252019924D7
:1012D000882488AA99AAAAAABBAA29813A814B8103
:1012E0005C81280D391D4A1D5B1D2CAB3DAB4EABFF
:1012F0005FAB8CA49DA4AEA4BFA454019924882400
:1013000088AE99AEAAAEBBAE280D391D4A1D5B1D35
:101310002CAF3DAF4EAF5FAFAB89BC8914972D9317
:101320003D934D935C93139728A139A14AA15BA1EA
:1013300068A579A58AA59BA50E94C4579F8C690DB5
:10134000711D811D911D230166247724460E571EB1
:10135000681E791E2CA53DA54EA55FA54A01AA24AD
:10136000BB24840C951CA61CB71C81E090E0A0E077
:10137000B0E049815A816B817C814C155D056E0519
:101380007F0518F080E090E0DC01880D991DAA1D12
:10139000BB1D41E050E060E070E088A899A8AAA8D1
:1013A000BBA8CCA8DDA8EEA8FFA8C814D904EA04FD
:1013B000FB0418F040E050E0BA01840F951FA61F0F
:1013C000B71F812C912C54018394C8ACD9ACEAACE2
:1013D000FBAC2CAD3DAD4EAD5FAD2C153D054E05C6
:1013E0005F0518F0812C912C5401880E991EAA1EBD
:1013F000BB1E4D855E854F5F5F4F5E874D87B8CEC4
:10140000EF85F889C190D190E190F190F88BEF874A
:10141000DB01CA010197A109B1098C199D09AE0927
:10142000BF09349780839183A283B383E1E084175B
:101430009507A607B70708F0E0E04E2F50E070E0F0
:1014400060E02F5F3F4F2C968EAC9FAC2C972815F9
:101450003905B4F203CE2F923F924F925F926F9272
:101460007F928F929F92AF92BF92CF92DF92EF9234
:10147000FF920F931F93CF93DF9300D01F92CDB7AE
:10148000DEB78B015C834B83FB01E150F04CEE0F28
:10149000FF1FEE0FFF1FE80FF91F4081518162818E
:1014A000738177FD27C04C01B12CA12CC12CD12C0C
:1014B0007601A016B10664F5F401619171918191F4
:1014C00091914F010E94844D4B815C810E94DD4EC1
:1014D0009B01AC01C701B6010E94834C6B017C01EA
:1014E0002B813C81205E3F4F3C832B833FEFA31A2F
:1014F000B30ADFCF9A838983312C212C81E090E0DD
:10150000A0E0B0E0C12CD12C760120163106CCF041
:10151000C701B6010F900F900F900F90DF91CF9100
:101520001F910F91FF90EF90DF90CF90BF90AF9001
:101530009F908F907F906F905F904F903F902F90F3
:101540000895E981FA814190519061907190FA83F8
:10155000E983409450946094709453014201880E42
:10156000991EAA1EBB1EC501B4010E94844D4B8169
:101570005C810E94DD4E9B01AC01C701B6010E9457
:10158000824C6B017C0181E084149504A604B704AD
:1015900008F080E090E0B0E0A0E02B813C81205E8C
:1015A0003F4F3C832B833FEF231A330AAECF2F925A
:1015B0003F924F925F926F927F928F929F92AF92E3
:1015C000BF92CF92DF92EF92FF920F931F93CF9330
:1015D000DF93CDB7DEB72E970FB6F894DEBF0FBE00
:1015E000CDBF9E878D873C872B871801FA0125E0A8
:1015F000F695E7952A95E1F7DB01A150B04CAA0FCB
:10160000BB1FAA0FBB1FA80FB91FCD90DD90ED9097
:10161000FC90FF0CCC08DC2C7601E617F7070CF0E9
:10162000D5C0DF01A00FB11F9B01A617B7070CF4AF
:101630009D018A010F711127DF01AA0FBB1FAA0F9D
:10164000BB1F01151105F1F40D851E850A0F1B1F27
:101650008B859C8550E040E0BA016E0F7F1F6217BA
:1016600073070CF05DC0D8018D909D90AD90BD903A
:101670008D01DC018D929D92AD92BD92CD014F5FA7
:101680005F4FEACF6D847E846A0E7B1E7C826B8204
:10169000D3014D905D906D907C90AB84BC84BA82F8
:1016A000A98250E040E0A0E2B0E0CD01801B910BA8
:1016B0009E838D8353014201002E04C0B694A794EB
:1016C000979487940A94D2F74F5F5F4FDF01A40F7E
:1016D000B51FA217B30784F1D701C6012617370734
:1016E0006CF4220F331F220F331FED85FE852E0F62
:1016F0003F1FF90180819181A281B3810D8004C0D7
:10170000880F991FAA1FBB1F0A94D2F7882999290D
:10171000AA29BB29E981FA8180839183A283B383BB
:101720009A01220F331F220F331F6B847C84620EB9
:10173000731E7A8269822EC0DA01AA0FBB1FAA0F1C
:10174000BB1F6B807C80A60DB71D4D905D906D908A
:101750007C90D301C2010D8004C0880F991FAA1F7D
:10176000BB1F0A94D2F7882A992AAA2ABB2AA981E0
:10177000BA818D929D92AD92BD92BA83A9839ACF80
:10178000E981FA81C192D192E192F192FA83E983DF
:101790004F5F5F4F421553059CF32E960FB6F8949A
:1017A000DEBF0FBECDBFDF91CF911F910F91FF9094
:1017B000EF90DF90CF90BF90AF909F908F907F90F1
:1017C0006F905F904F903F902F90089550E040E0D1
:1017D000A7CF2F923F924F925F926F927F928F92FC
:1017E0009F92AF92BF92CF92DF92EF92FF920F93B0
:1017F0001F93CF93DF9300D000D0CDB7DEB7DA01CF
:10180000E5E0B695A795EA95E1F7FB01E150F04CCC
:10181000EE0FFF1FEE0FFF1FE80FF91F8080918072
:10182000A280B380BB0C8808982C54013D010A1794
:101830001B070CF438017901D12CC12CC614D70434
:1018400064F1F30177FE02C0F0E0E0E0A017B10719
:101850000CF075C04F715527A60FB71FB801A01720
:10186000B1070CF4BD016E1B7F0BDF01AA0FBB1F7C
:10187000AA0FBB1F41155105D1F43D01620E731E25
:1018800050E040E0461757070CF48DC077FF02C0C8
:1018900070E060E0E60FF71F52C0F701119211925D
:1018A000119211927F01FFEFCF1ADF0AC7CF1C01FF
:1018B00029014A0E5B1E5A8249821E821D82C12C5A
:1018C000D12C760180E290E03C01641A750A7C829A
:1018D0006B82AD81BE81A617B707CCF177FF02C03E
:1018E00070E060E0E60FF71FE017F1070CF072C040
:1018F000DF01AA0FBB1FAA0FBB1FA20FB31F80E2FD
:1019000090E0841B950B04C0F694E794D794C79499
:101910008A95D2F72401350104C0440C551C661C7D
:10192000771C4A95D2F7B301A201C428D52AE6282C
:10193000F72ACD92DD92ED92FC9213973196DF015A
:10194000AA0FBB1FAA0FBB1FA20FB31F40C02601C7
:1019500037010B8004C076946794579447940A9497
:10196000D2F7D101CD90DD90ED90FD901D01D70112
:10197000C601042E04C0880F991FAA1FBB1F0A941A
:10198000D2F7482A592A6A2A7B2AA981BA814D921C
:101990005D926D927D92BA83A9838D819E8101961D
:1019A0009E838D8396CFDC01CD90DD90ED90FD90F0
:1019B000CD01D301CD92DD92ED92FD923D014F5FBD
:1019C0005F4F60CF8D929D92AD92BD923196E017A0
:1019D000F107C4F326960FB6F894DEBF0FBECDBF55
:1019E000DF91CF911F910F91FF90EF90DF90CF90FB
:1019F000BF90AF909F908F907F906F905F904F902F
:101A00003F902F900895FA01619371938193919380
:101A1000990F660B762FCB0141E050E04217530738
:101A20000CF0089561937193819391934F5F5F4F91
:101A3000F5CF2F923F924F925F926F927F928F924B
:101A40009F92AF92BF92CF92DF92EF92FF920F934D
:101A50001F93CF93DF9379011B01DA01D0E0C0E03F
:101A600040E050E0BA01CE15DF059CF0DF91CF9148
:101A70001F910F91FF90EF90DF90CF90BF90AF90AC
:101A80009F908F907F906F905F904F903F902F909E
:101A90000895FC0181909190A190B190CF01F10146
:101AA00001911191219131911F0124013501401AB9
:101AB000510A620A730A93018201041B150B260B5B
:101AC000370B0D931D932D933D9366246394712CD6
:101AD000C12CD12C452B462B472B39F00815190565
:101AE0002A053B0538F4612C05C080169106A20634
:101AF000B306C8F7A301B6012196B5CF8F929F9286
:101B0000AF92BF92CF92DF92EF92FF92CF93DF938B
:101B1000F901621773070CF4FB016C017A01B0E064
:101B2000A0E0AE17BF074CF162177307DCF46150F9
:101B3000704C660F771F660F771F680F791FDB01E8
:101B4000CD90DD90ED90FC90FF0CCC08DC2C760164
:101B5000DF01AA0FBB1FAA0FBB1FA40FB51FE217FF
:101B6000F307CCF0DF91CF91FF90EF90DF90CF9013
:101B7000BF90AF909F908F900895E60189909990C3
:101B8000A990B9906E01E70189929992A992B992B0
:101B90007E011196C6CFCD92DD92ED92FD923196E7
:101BA000DECF8F929F92AF92BF92CF92DF92EF9251
:101BB000FF920F931F93FB0170E060E0C12CD12CCA
:101BC0007601C394641775075CF01F910F91FF9025
:101BD000EF90DF90CF90BF90AF909F908F9008953F
:101BE000DC018D909D90AD90BD90CD019701860157
:101BF0000150110921093109081919092A093B095C
:101C00000193119321933193A1E00C151D052E052D
:101C10003F0508F0A0E0CA2ED12CF12CE12C6F5F1B
:101C20007F4FD0CFAB0141505109FC0130E020E0A3
:101C30002417350794F06150704C660F771F660FBC
:101C4000771F680F791F80E090E0A0E0B0E8FB010B
:101C500080839183A283B38308951192119211928C
:101C600011922F5F3F4FE4CFCF92DF92EF92FF921E
:101C7000AB0141505109FC0130E020E0CC24CA9472
:101C8000DC2C760124173507B4F06150704C660FD8
:101C9000771F660F771F680F791F8FEF9FEFAFEFEA
:101CA000BFE7FB0180839183A283B383FF90EF9012
:101CB000DF90CF900895C192D192E192F1922F5F7F
:101CC0003F4FE0CFCF92DF92EF92FF92FB0130E0E7
:101CD00020E0C12CD12C7601C3942E173F072CF0A5
:101CE000FF90EF90DF90CF900895DC014D915D91D2
:101CF0006D917D91CD014C0D5D1D6E1D7F1D149765
:101D00004D935D936D937C931397A1E04C155D0506
:101D10006E057F0508F0A0E0CA2ED12CF12CE12C35
:101D20002F5F3F4FDACFCF92DF92EF92FF92FC010D
:101D300080E030E020E02617370714F4882329F0EC
:101D4000FF90EF90DF90CF900895C190D190E190F7
:101D5000F1902F5F3F4F81E0CD28CE28CF2859F753
:101D600080E0E9CF2F923F924F925F926F927F92E5
:101D70008F929F92AF92BF92CF92DF92EF92FF929B
:101D80000F931F93CF93DF93CDB7DEB7A8970FB60E
:101D9000F894DEBF0FBECDBF9EA38DA31B015E8353
:101DA0004D833A8329831A8F098FDA8AC98AF90108
:101DB000EE0FFF1FEE0FFF1FE40FF51F49815A8141
:101DC000141615060CF0A0C4B291A29192918291C2
:101DD000892B8A2B8B2B11F1E98DFA8D90E080E015
:101DE0008E159F0514F1F101EE0FFF1FEE0FFF1F7F
:101DF0008DA19EA1E80FF91F1214130404F1ADA1E7
:101E0000BEA1BA83A983E989FA8930E020E02A15C6
:101E10003B050CF46AC485E090E04FC029813A810B
:101E2000215031093A832983C9CF1192119211921D
:101E300011920196D5CF91E0291A3108DDCFB291E8
:101E4000A29192918291892B8A2B8B2BA1F3E9810C
:101E5000FA812E163F069CF249885A885A8649868E
:101E6000F20190E080E005C011921192119211925E
:101E700001968A159B05C4F3B1E02B163104B1F528
:101E8000EDA1FEA16081718182819381AD81BE81CE
:101E90002D913D914D915C910E94E757E98DFA8D0E
:101EA0002083318342835383A989BA896D937D93BB
:101EB0008D939C93139787E090E0A8960FB6F894C3
:101EC000DEBF0FBECDBFDF91CF911F910F91FF906D
:101ED000EF90DF90CF90BF90AF909F908F907F90CA
:101EE0006F905F904F903F902F900895E981FA8115
:101EF000E150F04CEE0FFF1FEE0FFF1F4D805E8094
:101F00004E0E5F1E5C8A4B8AD201CD90DD90ED9023
:101F1000FC90D701C601B695A7959795879501E0E6
:101F200010E01C830B830097A105B10589F5D10151
:101F3000A150B04CAA0FBB1FAA0FBB1F8DA19EA121
:101F4000A80FB91F4D915D916D917C917695679524
:101F50005795479581E090E0411551056105710560
:101F600011F5A981BA81A215B3051CF14B805C80E3
:101F700084159505F0F46DA07EA07A82698230E028
:101F800020E02A153B050CF49DC386E090E095CF38
:101F90002B813C812F5F3F4F3C832B83B695A795C8
:101FA00097958795C0CF01967695679557954795F4
:101FB000D3CF29813A8121503109388B2F87910164
:101FC00021503109890175E0000F111F7A95E1F761
:101FD000080F191F4F855889A5E0440F551FAA9572
:101FE000E1F76B817C81640F751F7E876D87AB8104
:101FF000BC81A032B10509F498C134964D805E8051
:10200000E40DF51D70E060E040E250E04A1B5B0B20
:1020100046015701042E04C0880C991CAA1CBB1C45
:102020000A94D2F76F5F7F4F69807A8066167706D1
:1020300009F062C1AD81BE818D929D92AD92BC923C
:102040001397CC24CA94DC2C76012601370104C0F6
:10205000440C551C661C771C4A95D2F74D8A5E8A43
:102060006F8A788E49815A814130510509F066C1E5
:102070004D885E886F88788C4D8E5E8E6F8E78A2CC
:1020800069817A81615071094FEF5FE3649F40017C
:10209000659F900C749F900C11249AA289A21C86B3
:1020A0001B86AD84BE84A094B094BCA2ABA2A9014F
:1020B000440F551F440F551FADA1BEA1A40FB51F5E
:1020C000B887AF838032910509F440C0CD90DD9090
:1020D000ED90FC9013974B855C85405E5F4FFA0155
:1020E000E81BF90BFC87EB87FD01A90160E270E0BA
:1020F000681B790B26013701062E04C0440C551CC1
:10210000661C771C0A94D2F7141615060CF41FC12E
:10211000A90137FF02C050E040E088248A94FFE321
:102120009F2E489DF001499DF00D589DF00D112402
:10213000E20FF31FEE0FFF1FEE0FFF1F8DA19EA1F9
:10214000E80FF91F4082518262827382EF81F88525
:1021500080819181A281B381EB89FC894081518189
:1021600062817381CD8CDE8CEF8CF8A0C822D922DD
:10217000EA22FB22C416D506E606F70609F067C177
:102180004F80588458A64FA26B887C887C8E6B8EBB
:10219000B2014F8558894115510509F0F1C06D858F
:1021A0007E85061B170B8F859889009709F09DC1C6
:1021B000E9A1FAA1E20FF31FEE0FFF1FEE0FFF1FC1
:1021C0002DA13EA12E0F3F1FF90180819181A28197
:1021D000B381ED81FE814081518162817381841BD5
:1021E000950BA60BB70BF90180839183A283B38370
:1021F000F80195E0F695E7959A95E1F7EE0FFF1F48
:10220000EE0FFF1F698C7A8CE60DF71D0F711127F9
:1022100041E050E060E070E004C0440F551F661FCD
:10222000771F0A95D2F780819181A281B381842B97
:10223000952BA62BB72B80839183A283B383EF8149
:10224000F885121413040CF062C280819181A2817E
:10225000B3819101215031093497892B8A2B8B2B23
:1022600009F47FC169807A80261437040CF07BC1A1
:1022700091012150310984E090E06B857C8545E037
:10228000769567954A95E1F74B855C854F715527A3
:10229000FB01EE0FFF1FEE0FFF1F4115510509F463
:1022A00097C12DA03EA02E0E3F1ED101CD90DD90F6
:1022B000ED90FC90B0E0A0E0E0E2F0E02F01441AE5
:1022C000550A5A82498246015701042E04C0B69429
:1022D000A794979487940A94D2F76F5F7F4F1496D0
:1022E000261737070CF0B6C1A985BA858D929D9245
:1022F000AD92BC92139785C1DF011897CD90DD9008
:10230000ED90FC90260137010B8004C07694679411
:10231000579447940A94D2F784289528A628B7287A
:10232000B292A2929292829273CE66246A94762C92
:1023300043016D8A7E8A8F8A988E94CE66246A9431
:10234000762C43016D8E7E8E8F8E98A299CEF29060
:10235000E290D290C29046015701082E04C0B69474
:10236000A794979487940A94D2F784289528A6284E
:10237000B72884829582A682B78241505109BACE8D
:10238000FB017290629052904290BF0141505109FE
:10239000EB8DFC8DB290A29092908290FC8FEB8F8F
:1023A000CC24CA94DC2C76014115510521F4CD884A
:1023B000DE88EF88F88CC420D520E620F720C814EA
:1023C000D904EA04FB0409F4E6CE84149504A604B7
:1023D000B70408F485C0AD84BE84A016B10608F029
:1023E000A9C1EF81F885A9016C017D01CC0CDD1C30
:1023F000EE1CFF1C141615060CF483C0A90137FF50
:1024000002C050E040E044244A946FE3562E449DBD
:10241000F001459DF00D549DF00D1124E20FF31FC6
:10242000EE0FFF1FEE0FFF1F6DA07EA0E60DF71D44
:10243000C082D182E282F3824B855C854F5F5F4F21
:102440005C874B876BA17CA1060F171F0AC048173A
:1024500059076A077B0708F0BECF8D849E84081950
:102460001909F90189819A81E81BF90B3196EE0F60
:10247000FF1FEE0FFF1FADA1BEA1EA0FFB1F4D8096
:102480005E805C8E4B8E90E080E040E050E0BA01D0
:1024900081909190A190B190AB8DBC8DCD90DD904D
:1024A000ED90FD90BC8FAB8F240135014C185D0879
:1024B0006E087F0873016201C41AD50AE60AF70A9A
:1024C00066246394712C30E020E0452B462B472B8B
:1024D00079F1C814D904EA04FB0478F5612C2DC005
:1024E0004D855E85041B150BBCCFAFA1B8A51D9211
:1024F0001D921D921C92139701971497B8A7AFA332
:1025000054CEB291A291929182914C015D018824A6
:10251000B7FC83949924AA24BB24C828D928EA2884
:10252000FB28C482D582E682F782415051095CCFF4
:102530008C149D04AE04BF0488F6A301632F722F90
:102540009F0124503109D901CD92DD92ED92FC9288
:102550001397019649805A80841595050CF498CFFD
:1025600047CE19016ECEF101E150F04CEE0FFF1F86
:10257000EE0FFF1F8DA09EA0E80DF91D4081518137
:1025800062817381769567955795479581E090E0D4
:102590004115510561057105A9F48901B5E0000FE8
:1025A000111FBA95E1F7AB84BC840A191B09080F07
:1025B000191F4D855E850417150708F078CD82E058
:1025C00090E05BCE01967695679557954795E0CF5D
:1025D000ADA1BEA1EA0FFB1F30E020E04191519177
:1025E00061917191A985BA854D935D936D937D93AA
:1025F000BA87A9872F5F3F4F4F84588842165306EA
:102600006CF7EB81FC81B09709F457CCAD81BE81AA
:10261000CD90DD90ED90FC901397FD0130E020E02F
:1026200040E250E04B805C80441955092601370197
:10263000042E04C076946794579447940A94D2F772
:102640008F8498882815390524F14082518262824E
:10265000738233CC81010A0F1B1FF801C080D18027
:10266000E280F38026013701098004C0440C551C28
:10267000661C771C0A94D2F784289528A628B728C8
:10268000E985FA8581929192A192B192FA87E987C0
:102690001ACEC480D580E680F780460157010B80B2
:1026A00004C0880C991CAA1CBB1C0A94D2F784286D
:1026B0009528A628B72881929192A192B1922F5F76
:1026C0003F4FB4CFE981FA8181919191A191B1916C
:1026D000FA83E983E985FA8581939193A193B19374
:1026E000FA87E9872F5F3F4F4CCCA981BA814D9182
:1026F0005D916D917D91BA83A983419351936193CB
:1027000071932F5F3F4F83CB8FEF9FEFD6CB211479
:10271000310409F0ADCDEDA1FEA180819181A281AE
:10272000B381E989FA8980839183A283B38381E0AD
:1027300090E067CF83E090E0A0CD2F923F924F9240
:102740005F926F927F928F929F92AF92BF92CF9241
:10275000DF92EF92FF920F931F93CF93DF93CDB74A
:10276000DEB764970FB6F894DEBF0FBECDBF2A0167
:102770003E832D8338011701DE86CD86B88AAF8669
:102780002AA53BA53A8B298B4CA55DA558874F837D
:10279000AEA5BFA5BC8BAB8BFB01E150F04CEE0F9F
:1027A000FF1FEE0FFF1FE80FF91F208131814281CB
:1027B000538129833A834B835C83ED81FE81E15011
:1027C000F04CEE0FFF1FEE0FFF1FE40DF51D2081F3
:1027D00031814281538129873A874B875C872981E0
:1027E0003A814B815C8157FF40C0AB01B401D9D91C
:1027F00089859A85AB85BC85B7FF3CC04D815E81DC
:102800006F817885C201CDD9AF84B888CD84DE844C
:10281000710183012B893C894F81588569897A89A7
:10282000C401A0DA97FF48C029813A814B815C81BD
:10283000B101C30157FF27C064960FB6F894DEBFFD
:102840000FBECDBFDF91CF911F910F91FF90EF9001
:10285000DF90CF90BF90AF909F908F907F906F90C0
:102860005F904F903F902F90DDC929893A89A4014C
:1028700045D9BECF2B893C894F8158856D817E819A
:10288000C2013CD9C1CF64960FB6F894DEBF0FBE2B
:10289000CDBFDF91CF911F910F91FF90EF90DF900F
:1028A000CF90BF90AF909F908F907F906F905F90F0
:1028B0004F903F902F90D8C989819A81AB81BC817C
:1028C0008827B7FD83959927AA27BB2749855A856D
:1028D0006B857C85442777FD4395552766277727A9
:1028E000841731F16F8578898D859E851CDA882360
:1028F00019F0B101C301E6D9A101B301C301649686
:102900000FB6F894DEBF0FBECDBFDF91CF911F9100
:102910000F91FF90EF90DF90CF90BF90AF909F907E
:102920008F907F906F905F904F903F902F9039C91C
:1029300064960FB6F894DEBF0FBECDBFDF91CF9186
:102940001F910F91FF90EF90DF90CF90BF90AF90CD
:102950009F908F907F906F905F904F903F902F90BF
:1029600008954F925F926F927F928F929F92AF9253
:10297000BF92CF92DF92EF92FF92CF93DF939A01B3
:102980002150304C220F331F220F331FFC01E20F66
:10299000F31F80809180A280B380FB01E20FF31FC0
:1029A000C080D180E280F380CC24DD24EE24E0E8F6
:1029B000FE2224013501442455246624E0E87E22C9
:1029C000C414D504E604F70499F52C5F3F4FFC01CD
:1029D000E20FF31FEB01C20FD31F141615068CF084
:1029E00090E080E0DF91CF91FF90EF90DF90CF906B
:1029F000BF90AF909F908F907F906F905F904F901F
:102A0000089541505109F290E290D290C290BA914B
:102A1000AA919A918A91C816D906EA06FB06E9F2AC
:102A20008C159D05AE05BF0528F481E090E0DACF56
:102A3000B7FEFBCF8FEF9FEFD5CF93DF892F809528
:102A4000881F8827881F0895FC0191E08091FC046D
:102A5000811190E0928308952F923F926F927F921E
:102A60008F929F92AF92BF92CF92DF92EF92FF929E
:102A70000F931F93CF93DF9300D000D0CDB7DEB775
:102A80001B013C0189014E835D8320E030E0A901F8
:102A9000B8018E819D810E94E74C811125C020E004
:102AA00030E0A901B101C3010E94E74C882309F479
:102AB0006BC061017301B601C70126960FB6F89489
:102AC000DEBF0FBECDBFDF91CF911F910F91FF9061
:102AD000EF90DF90CF90BF90AF909F908F907F90BE
:102AE0006F903F902F900895B101C3010E94960707
:102AF000882349F0C0908A0DD0908B0DE0908C0D0A
:102B0000F0908D0DD8CFB8018E819D810E949607DF
:102B10008111F0CFB101C3010E9451078111EACFA9
:102B200020E030E0A901B101C3010E94E74C81110E
:102B30000BC098014E815D8160E070E0CB010E9486
:102B4000EB4C6B017C01B7CFB8018E819D810E9457
:102B500051078823E9F020E030E0A901B8018E8117
:102B60009D810E94E74CF82EFF1CFF24FF1C20E0F3
:102B700030E0A901B101C3010E94E74C881F8827FA
:102B8000881FF81609F495CF6801EE80FD8093CF79
:102B900098014E815D81B101C3010E94DB4D6B0143
:102BA0007C01BB24B39420E030E0A9010E94E74CF3
:102BB0008111B12C20E030E0A901B601C7010E94CB
:102BC000E74C882309F447C0B8018E819D810E949B
:102BD000C14D9B01AC01B8018E819D810E94D74EF1
:102BE0001816CCF598014E815D81B101C3010E9498
:102BF000EB4C4B015C01E894B7F820E030E040E09A
:102C00005FE3C501B4010E94834C0E94C14D9B014A
:102C1000AC01C501B4010E94824C9B01AC015F77FD
:102C200029833A834B835C8320E030E040E054E327
:102C3000C501B4010E94114F9B01AC01BB24B394A8
:102C400069817A818B819C810E94D74E18160CF085
:102C5000B12C81E0B82620E030E0A901BB2031F0A2
:102C6000B8018E819D810E94114F6BCFB101C301CC
:102C70000E94E74CB82EBB1CBB24BB1C20E030E0FC
:102C8000A901B8018E819D810E94E74C881F882789
:102C9000881FB81609F40FCF98014E815D81B601E7
:102CA000C7010E94834C4DCF8091480F81508230E4
:102CB00060F483E08093480F8091E104882339F029
:102CC000813049F08091E20403C080E0F3CF81E0DD
:102CD0008093E00402C01092E004E091E00484E0FC
:102CE000E89FF0011124ED51FB4F80819181A28179
:102CF000B3818093DC049093DD04A093DE04B09351
:102D0000DF048FEF8093E00420913402309135028C
:102D100040913602509137026091EC0E7091ED0EA9
:102D20008091EE0E9091EF0E0E94834C6093EC0E1A
:102D30007093ED0E8093EE0E9093EF0E20913C0277
:102D400030913D0240913E0250913F0285DE6093FA
:102D5000920E7093930E8093940E9093950E84E050
:102D60008093480F6091DC047091DD048091DE0453
:102D70009091DF040E94844D2AE037ED43E25CE34A
:102D80000E94114F0E94584DAB01BC0183E090E0BE
:102D90000C946B068091470F8150823060F483E081
:102DA0008093470F8091F004882339F0813049F0F7
:102DB0008091F10403C080E0F3CF81E08093EF04C1
:102DC00002C01092EF04E091EF0484E0E89FF0016C
:102DD0001124EE50FB4F80819181A281B3818093B9
:102DE000EB049093EC04A093ED04B093EE048FEF0A
:102DF0008093EF04209144023091450240914602B5
:102E0000509147026091E80E7091E90E8091EA0EB0
:102E10009091EB0E0E94834C6093E80E7093E90E44
:102E20008093EA0E9093EB0E20914C0230914D026C
:102E300040914E0250914F020FDE60938E0E7093C0
:102E40008F0E8093900E9093910E84E08093470FA5
:102E50006091EB047091EC048091ED049091EE048C
:102E60000E94844D2AE037ED43E25CE30E94114F5B
:102E70000E94584DAB01BC0184E090E00C946B06BD
:102E8000E0919504F09196048091620E9091630E0A
:102E9000A091640EB091650E80839183A283B38369
:102EA00008952F923F924F925F926F927F928F92EE
:102EB0009F92AF92BF92CF92DF92EF92FF920F93C9
:102EC0001F93CF93DF93CDB7DEB7C454D1090FB6AC
:102ED000F894DEBF0FBECDBF009105051091060529
:102EE0000130110509F0E2C16091CC047091CD046C
:102EF0008091CE049091CF046F5F7F4F8F4F9F4F93
:102F00000E94844D2091D0043091D1044091D2048C
:102F10005091D3040E94114F6093170470931804CA
:102F20008093190490931A048091FC048F5F8A3077
:102F300008F0B9C18093FC048091460F8150823023
:102F400008F4CCC180E08093460F8091450F8150FA
:102F5000823008F4C5C180E08093450F8091440F12
:102F60008150823008F4BEC180E08093440F80918C
:102F7000430F8150823008F4B7C180E08093430F43
:102F80008091420F8150823008F4B0C180E080937C
:102F9000420F8091410F8150823008F4A9C180E036
:102FA0008093410F8091400F8150823008F4A2C17C
:102FB00080E08093400F20919C0E30919D0E4091B7
:102FC0009E0E50919F0E29AF3AAF4BAF5CAF0130D0
:102FD000110509F063C0C090920ED090930EE0905E
:102FE000940EF090950EC092220ED092230EE09295
:102FF000240EF092250E4090E00E5090E10E60906D
:10300000E20E7090E30E4092260E5092270E6092D0
:10301000280E7092290E8090E40E9090E50EA090FC
:10302000E60EB090E70E80922A0E90922B0EA092A0
:103030002C0EB0922D0E80914C0F81115DC181E05C
:1030400080934C0F81E090E0A0E0B0E08093360FD9
:103050009093370FA093380FB093390F1092860ECC
:103060001092870E1092880E1092890EC0920C0F4B
:10307000D0920D0FE0920E0FF0920F0F80918E0EF6
:1030800090918F0EA091900EB091910E80932E0E84
:1030900090932F0EA093300EB093310EE0910D045B
:1030A000F0910E04E080F18031E0E316F10429F0A4
:1030B00080918804882309F4AAC120E030E040E828
:1030C0005FE36091860E7091870E8091880E9091DB
:1030D000890E0E94E74C882309F47FC18FEF80930B
:1030E0003E0F0130110581F58091700290917102BF
:1030F000A0917202B09173028093320E9093330EBE
:10310000A093340EB093350E8091740290917502A5
:10311000A0917602B09177028093360E9093370E8D
:10312000A093380EB093390E809178029091790275
:10313000A0917A02B0917B0280933A0E90933B0E5D
:10314000A0933C0EB0933D0EC0906002D0906102FF
:10315000E0906202F0906302A70196016091B40EC4
:103160007091B50E8091B60E9091B70E0E94E74C0B
:10317000882341F0C092B40ED092B50EE092B60E04
:10318000F092B70E6EE370E080E090E00E9449019B
:103190009093B30E8093B20E43E050E0BE01675EA1
:1031A0007F4F0E9438012091A0023091A102A98D89
:1031B000BA8D0E9411580E94844D20E030E040E01A
:1031C00057E30E94114F6B017C01C0923E0ED092DA
:1031D0003F0EE092400EF092410E809105059091D5
:1031E0000605019709F0C0C680914B0F81116BC194
:1031F00081E080934B0F81E090E0A0E0B0E080930D
:10320000320F9093330FA093340FB093350F109279
:103210007A0E10927B0E10927C0E10927D0E109200
:103220007E0E10927F0E1092800E1092810E8DEC09
:103230009CECACE4B1E48093040F9093050FA09351
:10324000060FB093070F80E090E0A0E0B3E4809316
:10325000080F9093090FA0930A0FB0930B0F809063
:103260007C0290907D02A0907E02B0907F028092BE
:10327000420E9092430EA092440EB092450EC09022
:103280007A0ED0907B0EE0907C0EF0907D0E8091B7
:103290004A0F811172C581E080934A0F81E090E06E
:1032A000A0E0B0E08BC51092FC0446CE01151105DC
:1032B00009F042CEE0914704F09148040190F0817A
:1032C000E02D80819181A281B381E0910805F09188
:1032D000090580839183A283B3832ECE83E033CE0E
:1032E00083E03ACE83E041CE83E048CE83E04FCE08
:1032F00083E056CE83E05DCE20910C0F30910D0F10
:1033000040910E0F50910F0F8091360F9091370F13
:10331000A091380FB091390F0197A105B105C1F502
:10332000C701B6010E94E74C882309F497CE82E0DA
:1033300090E0A0E0B0E08093360F9093370FA09319
:10334000380FB093390F80E090E0A0E8BFE380939E
:10335000860E9093870EA093880EB093890EC0922C
:103360000C0FD0920D0FE0920E0FF0920F0F809283
:10337000100F9092110FA092120FB092130F409263
:10338000140F5092150F6092160F7092170F76CE91
:10339000C701B6010E94E74C8823A9F220E030E083
:1033A000A9016091100F7091110F8091120F9091EF
:1033B000130F0E94E74C8111C6CF20E030E0A90135
:1033C0006091140F7091150F8091160F9091170F47
:1033D0000E94E74C8111B7CF35CE10923E0F0130DD
:1033E000110509F056C040902E0E50902F0E60909F
:1033F000300E7090310E80914D0F81110DC081E023
:1034000080934D0F81E090E0A0E0B0E023C0809178
:103410003E0F811166CEE3CF2091180F3091190F26
:1034200040911A0F50911B0F80913A0F90913B0FD2
:10343000A0913C0FB0913D0F0197A105B10599F402
:10344000C301B2010E94E74C882399F082E090E02A
:10345000A0E0B0E080933A0F90933B0FA0933C0F15
:10346000B0933D0F06C0C301B2010E94E74C811129
:10347000C9CF40928A0E50928B0E60928C0E709241
:103480008D0E4092180F5092190F60921A0F709281
:103490001B0FEA94EF2829F080918804882309F40F
:1034A00020CE8091460F882359F0833029F481E0A3
:1034B00090E08093460F15CE082E000C990BF9CFA3
:1034C00082E090E0F6CF8091320F9091330FA0917F
:1034D000340FB091350F83309105A105B10509F482
:1034E00021C108F05BC081309105A105B10509F447
:1034F00095C00297A105B10509F4BBC080903A0EB2
:1035000090903B0EA0903C0EB0903D0E20E030E03D
:1035100040E251E4C501B4010E94D74E18160CF4E4
:103520001DC220E030E040E251E46091320E709123
:10353000330E8091340E9091350E0E94E74C181690
:103540000CF010C14090360E5090370E6090380E3F
:103550007090390E20E030E040E251E4C301B20146
:103560000E94E74C18160CF4EDC385E090E0A0E053
:10357000B0E08093320F9093330FA093340FB09349
:10358000350FC090080FD090090FE0900A0FF0900F
:103590000B0FA5019401C301B201A4C385309105AD
:1035A000A105B10509F409C308F49CC10697A1055A
:1035B000B10509F0A3CF8090360E9090370EA09001
:1035C000380EB090390E20E030E040E251E4C50101
:1035D000B4010E94D74E18160CF4C0C140903A0EA8
:1035E00050903B0E60903C0E70903D0E20E030E01D
:1035F00040E251E4C301B2010E94E74C18160CF4FA
:1036000080C385E090E0A0E0B0E08093320F90931B
:10361000330FA093340FB093350F58C320E030E040
:1036200040E85FE36091860E7091870E8091880E6E
:103630009091890E0E94E74C8111E9CD82E090E0E3
:10364000A0E0B0E08093320F9093330FA093340F3B
:10365000B093350FC0927A0ED0927B0EE0927C0E22
:10366000F0927D0EA701960160E070E080E893E49F
:1036700081C220E030E0A9016091860E7091870E32
:103680008091880E9091890E0E94E74C811109C0AB
:103690001092820E1092830E1092840E1092850E5C
:1036A000AACD20E030E040E85FE360918A0E70919F
:1036B0008B0E80918C0E90918D0E0E94E74C8111A3
:1036C000C9CF80E090E0A0E0B3E48093080F90932E
:1036D000090FA0930A0FB0930B0F1092820E109255
:1036E000830E1092840E1092850E43E050E060E04D
:1036F00070E04093320F5093330F6093340F709308
:10370000350F80937A0E90937B0EA0937C0EB0932E
:103710007D0E80937E0E90937F0EA093800EB093CB
:10372000810E9DCD20E030E0A90160918A0E70915C
:103730008B0E80918C0E90918D0E0E94E74C882309
:1037400009F47CCF20E030E040E251E46091320E99
:103750007091330E8091340E9091350E0E94E74C9B
:1037600018164CF184E090E0A0E0B0E08093320FB6
:103770009093330FA093340FB093350F10927A0EBD
:1037800010927B0E10927C0E10927D0E10927E0E87
:1037900010927F0E1092800E1092810E80E090E0C9
:1037A000A0E8BFE38093820E9093830EA093840ED3
:1037B000B093850E54CD80903A0E90903B0EA09021
:1037C0003C0EB0903D0EC090080FD090090FE090D5
:1037D0000A0FF0900B0F20E030E040E251E4C50109
:1037E000B4010E94E74C1816ACF187E090E0A0E02D
:1037F000B0E08093320F9093330FA093340FB093C7
:10380000350FA501940160E070E080E291E40E9430
:10381000824C2091040F3091050F4091060F50917A
:10382000070F0E94114F4B015C01AC019B01C701C6
:10383000B6010E94824C60937A0E70937B0E809347
:103840007C0E90937D0EA7019601C501B4010E94E4
:10385000834C92C18090360E9090370EA090380E17
:10386000B090390E20E030E040E251E4C501B401EF
:103870000E94E74C18162CF186E090E0A0E0B0E042
:103880008093320F9093330FA093340FB093350F82
:10389000A501940160E070E080E291E40E94824C16
:1038A0002091040F3091050F4091060F5091070FA2
:1038B0000E94114F4B015C01A7019601C501B401A3
:1038C0004BC1C0927A0ED0927B0EE0927C0EF092A9
:1038D0007D0EC0927E0ED0927F0EE092800EF0920E
:1038E000810EBDCC8090360E9090370EA090380E91
:1038F000B090390E40903A0E50903B0E60903C0EC6
:1039000070903D0E20E030E040E251E4C501B4018A
:103910000E94D74E1816BCF520E030E040E251E49A
:10392000C301B2010E94D74E18166CF520E030E0BA
:1039300040E251E46091320E7091330E8091340E6A
:103940009091350E0E94D74E1816ECF41092820E0C
:103950001092830E1092840E1092850E83E090E0F8
:10396000A0E0B0E08093320F9093330FA093340F18
:10397000B093350F8091080F9091090FA0910A0F15
:10398000B0910B0FBECE20E030E040E251E4C50123
:10399000B4010E94E74C20E030E040E251E4181608
:1039A0000CF459C0C301B2010E94E74C18160CF484
:1039B0008EC020E030E040E251E46091320E709120
:1039C000330E8091340E9091350E0E94D74E18160A
:1039D0000CF047C01092820E1092830E1092840E4B
:1039E0001092850E85E090E0A0E0B0E08093320F69
:1039F0009093330FA093340FB093350FA30192012E
:103A0000C501B4010E94824C2091040F3091050F32
:103A10004091060F5091070F0E94114F4B015C011E
:103A2000C090080FD090090FE0900A0FF0900B0F94
:103A3000A5019401C701B6010E94824C60937A0EE1
:103A400070937B0E80937C0E90937D0EA501940164
:103A5000C701B601FCCEC301B2010E94E74C1816A3
:103A60005CF120E030E040E251E46091320E709170
:103A7000330E8091340E9091350E0E94D74E181659
:103A8000DCF41092820E1092830E1092840E10922B
:103A9000850E87E090E0A0E0B0E08093320F909335
:103AA000330FA093340FB093350FA301920160E060
:103AB00070E080E291E4A6CF20E030E040E251E403
:103AC000C501B4010E94E74C18160CF45EC020E05A
:103AD00030E040E251E46091320E7091330E8091FB
:103AE000340E9091350E0E94D74E18160CF04DC032
:103AF0001092820E1092830E1092840E1092850EF8
:103B000086E090E0A0E0B0E08093320F9093330F16
:103B1000A093340FB093350FA501940160E070E0DD
:103B200080E291E40E94824C2091040F3091050FB5
:103B30004091060F5091070F0E94114F4B015C01FD
:103B4000C090080FD090090FE0900A0FF0900B0F73
:103B5000AC019B01C701B6010E94834C60937A0EB1
:103B600070937B0E80937C0E90937D0EA501940143
:103B7000C701B6010E94824C60937E0E70937F0E47
:103B80008093800E9093810E6ACB20E030E0A901F3
:103B900060918A0E70918B0E80918C0E90918D0E9B
:103BA0000E94E74C8111EACD1092820E1092830E92
:103BB0001092840E1092850E41CD20E030E040E25C
:103BC00051E46091320E7091330E8091340E9091D9
:103BD000350E0E94E74C18160CF0C4CD40903A0EFA
:103BE00050903B0E60903C0E70903D0E8090360ED3
:103BF0009090370EA090380EB090390E20E030E053
:103C000040E251E4C301B2010E94D74E18164CF5B0
:103C100086E090E0A0E0B0E08093320F9093330F05
:103C2000A093340FB093350FA501940160E070E0CC
:103C300080E291E40E94824C2091040F3091050FA4
:103C40004091060F5091070F0E94114F4B015C01EC
:103C5000C090080FD090090FE0900A0FF0900B0F62
:103C60002BCE20E030E040E251E4C501B4010E94D7
:103C7000D74E1816DCF487E090E0A0E0B0E0809327
:103C8000320F9093330FA093340FB093350FC09041
:103C9000080FD090090FE0900A0FF0900B0FA301CE
:103CA000920160E070E080E291E41CC020E030E02E
:103CB000A90160918A0E70918B0E80918C0E90916B
:103CC0008D0E0E94E74C882309F4B8CCC090080FF1
:103CD000D090090FE0900A0FF0900B0FA301920112
:103CE000C501B4010E94824C2091040F3091050F50
:103CF0004091060F5091070F0E94114F4B015C013C
:103D000097CE20E030E040E251E46091320E7091B5
:103D1000330E8091340E9091350E0E94E74C1816A8
:103D20000CF020CD20E030E0A90160918A0E709166
:103D30008B0E80918C0E90918D0E0E94E74C81111C
:103D400073CF7CCC20E030E0A90160918A0E7091A5
:103D50008B0E80918C0E90918D0E0E94E74C8823E3
:103D600009F46CCCC090080FD090090FE0900A0FB6
:103D7000F0900B0FA501940194CF80912E0F90919C
:103D80002F0FA091300FB091310F81309105A10517
:103D9000B105A9F10297A105B10509F423C120E0FD
:103DA00030E040E251E4C501B4010E94D74E18163C
:103DB0000CF058C182E090E0A0E0B0E080932E0FBC
:103DC00090932F0FA093300FB093310FC092720ECB
:103DD000D092730EE092740EF092750E80917E0E6A
:103DE00090917F0EA091800EB091810E8093760EFF
:103DF0009093770EA093780EB093790E34C0809094
:103E00007E0E90907F0EA090800EB090810E20E0EC
:103E100030E040E85FE360918A0E70918B0E8091F4
:103E20008C0E90918D0E0E94E74C81110CC082E0A7
:103E300090E0A0E0B0E080932E0F90932F0FA0931E
:103E4000300FB093310FC092720ED092730EE09289
:103E5000740EF092750E8092760E9092770EA0926C
:103E6000780EB092790E10921A0E10921B0E1092CC
:103E70001C0E10921D0E10921E0E10921F0E10920C
:103E8000200E1092210E8091200290912102A0918B
:103E90002202B091230289879A87AB87BC878091E1
:103EA000220F9091230FA091240FB091250F8983A9
:103EB0009A83AB83BC83F2E0EF2EF12C0AE11EE083
:103EC00021E030E0AE014F5F5F4F61E070E0CE0176
:103ED00009960E949707C090720ED090730EE090E2
:103EE000740EF090750E50E040E062E070E0C801A2
:103EF0000E942B0A20E030E040E05FE20E94114F78
:103F00009B01AC01C701B6010E94824C69AB7AAB40
:103F10008BAB9CAB9B01AC016091080270910902D4
:103F200080910A0290910B020E94114F6093460EFD
:103F30007093470E8093480E9093490E29A93AA991
:103F40004BA95CA96091000270910102809102026C
:103F5000909103020E94114F60934A0E70934B0E92
:103F600080934C0E90934D0EE0910805F091090559
:103F7000C080D180E280F3801091F00E0091F10EAC
:103F80003090F20E2090F30E4090F80E5090F90E03
:103F90006090FA0E7090FB0EA7019601612F702FB2
:103FA000832D922D0E94D74E87FD6CC0A7019601EC
:103FB000B201C3010E94D74E87FF2DC2212F302F9F
:103FC000432D522DB201C3010E94D74E18160CF496
:103FD00063C08090FC0E9090FD0EA090FE0EB090FD
:103FE000FF0E6EC020E030E0A90160918A0E709152
:103FF0008B0E80918C0E90918D0E0E94E74C882341
:1040000009F44CC920E030E040E251E4C501B401BC
:104010000E94E74C18160CF4D9CE83E090E0A0E0A3
:10402000B0E080932E0F90932F0FA093300FB0939A
:10403000310F2AE939E949E95FE3C701B6010E9476
:10404000114F6093720E7093730E8093740E909361
:10405000750E6093760E7093770E8093780E909322
:10406000790E01CF20E030E0A90160918A0E7091B5
:104070008B0E80918C0E90918D0E0E94E74C8111D9
:10408000D8CF0CC9212F302F432D522DB201C3019F
:104090000E94D74E181644F4A7019601B201C3013D
:1040A0000E94E74C87FD95CF8090F40E9090F50E1E
:1040B000A090F60EB090F70E412E502E632C722C6D
:1040C0009201A301C701B6010E94824C6B017C01E1
:1040D000A501940160914A0E70914B0E80914C0E97
:1040E00090914D0E0E94824CA70196010E94EB4CCC
:1040F0006B017C012091460E3091470E4091480E95
:104100005091490E69AD7AAD8BAD9CAD0E94834C48
:10411000A70196010E94834C6B017C01C0924E0E58
:10412000D0924F0EE092500EF092510E809080028D
:1041300090908102A0908202B0908302A501940128
:104140000E94D74E18160CF06AC18092520E9092BF
:10415000530EA092540EB092550E20910C02309145
:104160000D0240910E0250910F0260E070E08FE767
:1041700093E40E94EB4C2091520E3091530E4091EB
:10418000540E5091550E0E94114F0E94C14D6B016B
:104190007C010E94960781115BC1C701B6010E9494
:1041A0005107811155C120E030E040E853E4C701D8
:1041B000B6010E94DB4D6B017C0120E030E0A901DB
:1041C0000E94E74C87FF47C1C701B60190580E9483
:1041D000584D619560939A0E70E090E080E00E94E7
:1041E000844D6093560E7093570E8093580E9093A3
:1041F000590E20910505309106052130310581F4D5
:1042000010925A0E10925B0E10925C0E10925D0E80
:1042100060935E0E70935F0E8093600E9093610EBC
:104220006BE070E080E090E00E9489038C01909345
:10423000DF0E8093DE0E60919A0E70E090E080E0D9
:104240000E94844DAB01BC01C8010E9452038091C1
:10425000050590910605019709F0BEC129A93AA963
:104260004BA95CA96091040270910502809106023D
:10427000909107020E94114F6093620E7093630E3B
:104280008093640E9093650E8091820E9091830EC0
:10429000A091840EB091850E80934E0F90934F0F96
:1042A000A093500FB093510F1092660E1092670EAC
:1042B0001092680E1092690E8091490F8111D0C042
:1042C00081E08093490F82E090E0A0E0B0E080932D
:1042D0002A0F90932B0FA0932C0FB0932D0F1092B9
:1042E0006E0E10926F0E1092700E1092710E109250
:1042F000000F1092010F1092020F1092030FC09046
:104300002802D0902902E0902A02F0902B02A70107
:1043100096016091C00E7091C10E8091C20E909175
:10432000C30E0E94E74C882341F0C092C00ED09289
:10433000C10EE092C20EF092C30E67E370E080E01F
:1043400090E00E9449019093BF0E8093BE0E43E01F
:1043500050E0BE01675E7F4F0E943801E0910D047E
:10436000F0910E04008111810130110529F0809136
:104370008804882309F4D3C4C0906E0ED0906F0EC9
:10438000E090700EF090710E20E030E0A901C701BE
:10439000B6010E94E74C882309F49CC420E030E079
:1043A00040E85FE3C701B6010E94E74C882309F4A7
:1043B0004BC420E030E040E050E4C701B6010E9469
:1043C000E74C8111DAC082E080933F0F8091880230
:1043D00090918902A0918A02B0918B0280936A0E1B
:1043E00090936B0EA0936C0EB0936D0E013011057F
:1043F00029F080918804882309F4C2C08091410F7C
:10440000882309F4D2C4833009F0CBC481E090E062
:104410008093410FB5C0C12CD12C76016BCE80901A
:10442000840290908502A0908602B0908702A50138
:104430009401C701B6010E94E74C87FD86CEC09269
:10444000520ED092530EE092540EF092550E85CE3D
:10445000C12CD12C7601C701B6010E94584DBACEAD
:104460006091000F7091010F8091020F9091030FE6
:1044700000912A0F10912B0F20912C0F30912D0FAE
:104480000130110521053105F1F00230110521053A
:10449000310509F441C020E030E0A9010E94E74C59
:1044A0008823A9F120E030E040E85FE36091860EC8
:1044B0007091870E8091880E9091890E0E94E74C32
:1044C000811125C000CF20E030E0A9010E94E74C17
:1044D000882309F445C020E030E040E85FE36091C4
:1044E000860E7091870E8091880E9091890E0E94A1
:1044F000E74C811135C083E090E0A0E0B0E080930C
:104500002A0F90932B0FA0932C0FB0932D0F80E0C8
:1045100090E0A0E0B0E428C020E030E0A9010E94D3
:10452000E74C882309F4DBCE20E030E040E85FE38D
:104530006091860E7091870E8091880E9091890E01
:104540000E94E74C8111CBCE81E090E0A0E0B0E08A
:1045500080932A0F90932B0FA0932C0FB0932D0FC5
:1045600080E090E0A0E8BFE380936E0E90936F0E22
:10457000A093700EB093710EBACE8FEF80933F0F61
:1045800069E070E080E090E00E9489038C019093E4
:10459000D70E8093D60EC0906A0ED0906B0EE0902E
:1045A0006C0EF0906D0E20E030E04FE753E4C70151
:1045B000B6010E94E74C18160CF4FAC320E030E074
:1045C000A901C701B6010E94D74E87FDF8C3B70104
:1045D000A601C8010E945203C0905002D09051021F
:1045E000E0905202F0905302A70196016091A70E4D
:1045F0007091A80E8091A90E9091AA0E0E94E74C8E
:10460000882341F0C092A70ED092A80EE092A90E86
:10461000F092AA0E8091A60E81111092A60EBE01F4
:104620006F5E7F4F8091AB0E0E9430038091050535
:1046300090910605019709F071C089899A89AB8923
:10464000BC898DAB9EABAFABB8AF80911802909197
:104650001902A0911A02B0911B0289879A87AB8731
:10466000BC878091260F9091270FA091280FB091C1
:10467000290F2DA93EA94FA958AD281B390B4A0B6C
:104680005B0BDA01C90189839A83AB83BC8352E057
:10469000E52EF12C02E11EE021E030E0AE014F5F9B
:1046A0005F4F61E070E0CE0109960E94970764E0D9
:1046B000E62EF12C06E91DE022E030E042E15EE06A
:1046C00062E070E084E992E00E94970706EC1DE04A
:1046D00022E030E044EF52E062E070E082E19EE0F0
:1046E0000E94970704E010E026EB3DE04FE150E028
:1046F00064E070E086EC9DE00E94D70A8091B60DE0
:104700009091B70DA091B80DB091B90D8093960E10
:104710009093970EA093980EB093990E80910505F3
:1047200090910605019709F001C180916E0E90915C
:104730006F0EA091700EB091710E8093E00E909369
:10474000E10EA093E20EB093E30E80918A0E909159
:104750008B0EA0918C0EB0918D0E8093E40E9093F1
:10476000E50EA093E60EB093E70E6091960E709161
:10477000970E8091980E9091990E22E030E0AE0154
:10478000475F5F4F0E94030D02E010E09E012F5D26
:104790003F4F4EE150E062E070E0CE0109960E948A
:1047A000E90B8091140290911502A0911602B0912C
:1047B00017028DA79EA7AFA7B8AB8091220F90914B
:1047C000230FA091240FB091250F89A79AA7ABA71B
:1047D000BCA742E0E42EF12C8E01075F1F4F21E0C1
:1047E00030E0AE01475D5F4F61E070E0CE018D9635
:1047F0000E94970722E030E0AE01475E5F4FB801AC
:10480000CE0181960E94190D8091100290911102A3
:10481000A0911202B0911302892B8A2B8B2B09F0E5
:10482000DFC242E050E06CEE72E0CE0149960E9499
:104830001D15882309F4C7C288E0E4EEF2E0DE012A
:10484000519601900D928A95E1F702E010E09E01E9
:104850002F5F3F4F4EE150E062E070E0CE014196A5
:104860000E94D70A89819A81AB81BC818093220FF3
:104870009093230FA093240FB093250F8091F00EF7
:104880009091F10EA091F20EB091F30E89AB9AAB1C
:10489000ABABBCAB4090860D5090870D6090880DFF
:1048A0007090890DA3019201BC01CD010E94E74CDB
:1048B000E0910805F09109058111EAC2808191819A
:1048C000A281B3818093F00E9093F10EA093F20E2B
:1048D000B093F30EE4EFFEE080914A0E90914B0E00
:1048E000A0914C0EB0914D0E80839183A283B3832F
:1048F0008091050590910605019761F42DA93EA9C7
:104900004FA958AD2093260F3093270F4093280FBF
:104910005093290F4091CC045091CD046091CE0466
:104920007091CF0481E090E00E946B0640910505F4
:104930005091060521965FAF4EAF2197413051054A
:1049400009F026C3E0914704F09148040190F081FA
:10495000E02D80819181A281B38189AF9AAFABAF05
:10496000BCAF209117043091180440911904509164
:104970001A0425962CAF3DAF4EAF5FAF2597E0915F
:104980001B04F0911C04C080D180E280F380E09190
:104990004B04F0914C04408151815AAB49ABE091FA
:1049A0000F04F091100420803180028113818481F2
:1049B00095819EAB8DABA681B781BEAFADAFE091C7
:1049C0000D04F0910E041182108284E0FA01D101ED
:1049D00001900D928A95E1F7E0914504F09146042B
:1049E000118300830E94401720E030E040E05FE345
:1049F000C701B6010E94114F2B013C01F801208133
:104A00003181428153810E94114FD1012D913D91FD
:104A10004D915C910E94834CE9A9FAA9608371834E
:104A200082839383E0914704F0914804A080B18091
:104A3000A301920169AD7AAD8BAD9CAD0E94834C10
:104A4000D5016D937D938D939C931397E0914504CD
:104A5000F09146042DA93EA9318320830E9451176D
:104A60000E94401720E030E040E45FE3C701B60158
:104A70000E94114F2B013C0120E030E0A901C70149
:104A8000B6010E94114FD8012D913D914D915C913D
:104A90000E94114F4B015C01EDA9FEA920813181DB
:104AA00042815381C301B2010E94114F9B01AC01AD
:104AB000C501B4010E94834CD1012D913D914D91CE
:104AC0005C910E94834CE9A9FAA960837183828377
:104AD0009383E0914704F0914804A080B180A30142
:104AE000920169AD7AAD8BAD9CAD0E94834CD5012E
:104AF0006D937D938D939C931397E0914504F09172
:104B000046042DAD3EAD318320830E9451170E9493
:104B1000401729E33EE843E65EE3C701B6010E9481
:104B2000114FD8012D913D914D915C910E94114FF3
:104B30004B015C012BEA3AEA4AEA5EE3C701B6019F
:104B40000E94114FEDA9FEA920813181428153813C
:104B50000E94114F9B01AC01C501B4010E94834C1E
:104B60004B015C0129E33EE843EE5EE3C701B60179
:104B70000E94114FADADBEAD2D913D914D915C9117
:104B80000E94114F9B01AC01C501B4010E94834CEE
:104B9000F10120813181428153810E94834CA9A976
:104BA000BAA96D937D938D939C931397E0914704DD
:104BB000F09148040190F081E02D25962CAD3DAD9B
:104BC0004EAD5FAD25972083318342835383E091BF
:104BD0000D04F0910E0421964EAD5FAD21975183E7
:104BE00040838091CC049091CD04A091CE04B091EB
:104BF000CF040196A11DB11D8093CC049093CD04E8
:104C0000A093CE04B093CF044091170450911804A0
:104C10006091190470911A04E0910805F09109055A
:104C200040835183628373832091E004222309F43B
:104C300061C1213009F462C121E03091E2043323E3
:104C400009F459C120E057C181E080933F0F2091C2
:104C5000A2023091A302A98DBA8D0E941158E1E100
:104C60009695879577956795EA95D1F7673908F016
:104C70006FC08091540290915502A0915602B0915C
:104C8000570280936A0E90936B0EA0936C0EB093B4
:104C90006D0E8091440F882309F457C0833009F0CA
:104CA00050C081E090E08093440F0130110529F05D
:104CB00080918804882309F463CC8091420F882373
:104CC00009F46CC0833009F065C081E090E0809306
:104CD000420F56CC10923F0F80918C0290918D0222
:104CE000A0918E02B0918F0280936A0E90936B0E0A
:104CF000A0936C0EB0936D0E0130110529F08091D8
:104D00008804882309F43CCC8091450F8823B1F0B6
:104D1000833081F481E090E08093450F31CC809125
:104D20003F0F813009F493CF823009F44FCB8111CA
:104D300027CCD2CF082E000C990BEECF82E090E06A
:104D4000EBCF082E000C990BAECF82E090E0ABCFFA
:104D50008091580290915902A0915A02B0915B0241
:104D600080936A0E90936B0EA0936C0EB0936D0EB1
:104D70008091430F882359F0833029F481E090E03B
:104D80008093430F92CF082E000C990BF9CF82E04D
:104D900090E0F6CF082E000C990B99CF82E090E0BE
:104DA00096CF082E000C990B33CB82E090E030CBED
:104DB000C12CD12C7FE7E72E73E4F72E08CCC12C51
:104DC000D12C760104CC198A1A8A1B8A1C8A80E0AD
:104DD00090E0A0E0B0E88D8B9E8BAF8BB88F35CD87
:104DE00023E030E042EE5DE062E070E0CE01499603
:104DF0000E947E0D03E010E026ED3DE04EE150E024
:104E000063E070E082EE9DE00E94E90B6091100289
:104E100070911102809112029091130223E030E010
:104E200042EE5DE00E94030D1F9283E08F9326E027
:104E30003EE03F932F931F928F938AEF882E8DE051
:104E4000982E93E0A92EB12C2EEEC22E2DE0D22E5C
:104E500034E0E32EF12C06EA1DE023E030E042EEE0
:104E60005DE063E070E086ED9DE00E949D1322E02E
:104E700030E0AE014F5E5F4F64E070E0C8010E9419
:104E80007E0D0F900F900F900F900F900F90DDCC34
:104E90008090F80E9090F90EA090FA0EB090FB0E54
:104EA000C080D180E280F380A5019401C301B201EA
:104EB0000E94E74C81110BC0C092F80ED092F90EFF
:104EC000E092FA0EF092FB0EECEFFEE005CDA501AC
:104ED000940169A97AA98BA99CA90E94E74C87FF34
:104EE000EBCFC092F00ED092F10EE092F20EF09263
:104EF000F30EF0CC21E02093E10402C01092E10413
:104F00002091E10454E0259FF0011124ED51FB4F65
:104F100080839183A283B3832093E2042FEF2093B5
:104F2000E1042091EF04222349F0213059F021E0DF
:104F30003091F104332319F020E001C021E02093E7
:104F4000F00402C01092F0042091F00434E0239F9A
:104F5000F0011124EE50FB4F80839183A283B38331
:104F60002093F1048FEF8093F0048091D40490910A
:104F7000D504A091D604B091D7040196A11DB11D0E
:104F80008093D4049093D504A093D604B093D7040F
:104F9000CC5BDF4F0FB6F894DEBF0FBECDBFDF9105
:104FA000CF911F910F91FF90EF90DF90CF90BF9026
:104FB000AF909F908F907F906F905F904F903F90B9
:104FC0002F900895CF92DF92EF92FF92C0902C0223
:104FD000D0902D02E0902E02F0902F02A7019601B2
:104FE0006091CC0E7091CD0E8091CE0E9091CF0E2F
:104FF0000E94E74C882341F0C092CC0ED092CD0E97
:10500000E092CE0EF092CF0E80E20E94C30180911A
:10501000D8049091D904A091DA04B091DB040196F0
:10502000A11DB11D8093D8049093D904A093DA04F4
:10503000B093DB04FF90EF90DF90CF9008958F92B4
:105040009F92AF92BF92EF92FF920F931F93CF93D5
:1050500084E090E00E941A0787E094E025E035E0C4
:1050600030930E0420930D0428E035E0309348047B
:105070002093470420ED34E030931C0420931B045C
:1050800025E934E030934604209345042FE834E0CA
:1050900030934C0420934B0424EC34E030934A04C6
:1050A0002093490426EC34E030934E0420934D04C1
:1050B00021E934E03093500420934F0423E934E095
:1050C000309352042093510427E934E030938E0446
:1050D00020938D04909372048093710490930C0438
:1050E00080930B0481E090E0909306058093050582
:1050F0008CE994E09093AD048093AC0480EA94E052
:105100009093AF048093AE0484EA94E09093B1044A
:105110008093B00488EA94E09093B3048093B2043F
:105120008CE99EE09093900480938F048BE99EE03D
:1051300090939804809397041092FD041092FE04BB
:105140001092FF04109200058CEA94E090931004F2
:1051500080930F04109288048EED92E090931204D5
:10516000809311042AE035E0309309052093080567
:1051700080E090E0A0E8BFEB8093010590930205EA
:10518000A0930305B09304058AE097EDA3E2BCE386
:105190008093D0049093D104A093D204B093D3040D
:1051A0008DEA9BECA4E2BCE28093B4049093B50436
:1051B000A093B604B093B70483E59DE7A0E8B2E9F5
:1051C0008093B8049093B904A093BA04B093BB043D
:1051D00083E59BE1A6E3B0E98093BC049093BD0412
:1051E000A093BE04B093BF0487E59BE7ACEEBAE49E
:1051F0008093C0049093C104A093C204B093C304ED
:105200008BEF93E090930A048093090481ED93E07F
:105210009093FC038093FB0383EE92E09093D20380
:105220008093D1039093D4038093D3039093D603B8
:105230008093D50346E45FE05093D8034093D703AF
:105240005093DA034093D90347E45FE05093DC03C3
:105250004093DB039093DE038093DD0348E45FE03B
:105260005093E0034093DF039093E2038093E103C4
:105270009093E4038093E3039093E6038093E50324
:105280009093E8038093E70340E45FE05093EA03E0
:105290004093E9039093EC038093EB0345E45FE0D4
:1052A0005093EE034093ED0344E45FE05093F0032A
:1052B0004093EF0343E45FE05093F2034093F10324
:1052C00042E45FE05093F4034093F30341E45FE072
:1052D0005093F6034093F5039093F8038093F703FC
:1052E0009093FA038093F9038AEC94E0909300047E
:1052F0008093FF0384EB94E09093FE038093FD037F
:1053000030930204209301048FEF8093E104109204
:10531000E2048093EF048093F0041092F1048093F0
:105320003E0F409170025091710260917202709133
:1053300073024093320E5093330E6093340E709389
:10534000350E409174025091750260917602709111
:1053500077024093360E5093370E6093380E709359
:10536000390E409178025091790260917A027091E1
:105370007B0240933A0E50933B0E60933C0E709329
:105380003D0E40917C0250917D0260917E027091B1
:105390007F024093420E5093430E6093440E7093ED
:1053A000450E80933F0F40916402509165026091D9
:1053B00066027091670240939C0E50939D0E60931D
:1053C0009E0E70939F0E4091680250916902609109
:1053D0006A0270916B024093E00E5093E10E60936D
:1053E000E20E7093E30E40916C0250916D02609159
:1053F0006E0270916F024093E40E5093E50E60933D
:10540000E60E7093E70E40919C0250919D026091D0
:105410009E0270919F024093220F5093230F60933E
:10542000240F7093250F4091860D5091870D609148
:10543000880D7091890D4093F00E5093F10E60939A
:10544000F20E7093F30E4093F80E5093F90E6093A2
:10545000FA0E7093FB0E4091240250912502609148
:105460002602709127024093260F5093270F6093D6
:10547000280F7093290F4091E3045091E404609148
:10548000E5047091E6044093DC045093DD046093DE
:10549000DE047093DF048093E004809138029091E1
:1054A0003902A0913A02B0913B028093EC0E9093A6
:1054B000ED0EA093EE0EB093EF0E8091300290911E
:1054C0003102A0913202B09133028093920E9093F8
:1054D000930EA093940EB093950E43E050E064E5D4
:1054E00076E183E00E94754F8091F004882329F0D3
:1054F000813039F08091F10401C081E08093EF04A4
:1055000002C01092EF04E091EF0484E0E89FF00104
:105510001124EE50FB4F80819181A281B381809351
:10552000EB049093EC04A093ED04B093EE048FEFA2
:105530008093EF048091480290914902A0914A0221
:10554000B0914B028093E80E9093E90EA093EA0E7F
:10555000B093EB0E8091400290914102A0914202E3
:10556000B091430280938E0E90938F0EA093900E75
:10557000B093910E43E050E06AEC76E182E00E9445
:10558000754F8091900290919102A0919202B091FA
:10559000930280936A0E90936B0EA0936C0EB0935F
:1055A0006D0E1092AC0E8091600290916102A091FC
:1055B0006202B09163028093B40E9093B50EA093F3
:1055C000B60EB093B70E812C912C54018394809227
:1055D000AD0E9092AE0EA092AF0EB092B00E6EE3F2
:1055E00070E080E090E00E948D019093B30E809374
:1055F000B20EC1E0C093B10E1092D80E8092D90EB7
:105600009092DA0EA092DB0EB092DC0EE12CF12C1F
:105610008701A80197016BE070E080E090E00E94B4
:10562000CD039093DF0E8093DE0EC093DD0E1092BB
:10563000B80E8091280290912902A0912A02B0917F
:105640002B028093C00E9093C10EA093C20EB09314
:10565000C30E8092B90E9092BA0EA092BB0EB09279
:10566000BC0E67E370E080E090E00E948D019093B3
:10567000BF0E8093BE0EC093BD0E1092D00E8092CE
:10568000D10E9092D20EA092D30EB092D40EA80159
:10569000970169E070E080E090E00E94CD03909374
:1056A000D70E8093D60EC093D50E1092AB0E1092EB
:1056B000A00E8091500290915102A0915202B0919F
:1056C00053028093A70E9093A80EA093A90EB093B7
:1056D000AA0E8092A10E9092A20EA092A30EB0925A
:1056E000A40E4BEA5EE063E182E10E942702C093D0
:1056F000A50E1092A60E8091AB0E0E94420310924E
:10570000C40E80912C0290912D02A0912E02B09196
:105710002F028093CC0E9093CD0EA093CE0EB0931B
:10572000CF0E8092C50E9092C60EA092C70EB09278
:10573000C80E60E080E20E94BB01C093C90ECF9109
:105740001F910F91FF90EF90BF90AF909F908F901F
:1057500008958091AC0E81111FC081E08093AC0E42
:105760008091AD0E9091AE0EA091AF0EB091B00EA3
:105770000197A105B10581F48091B10E882361F0F4
:105780006EE370E080E090E00E9449019093B30ED8
:105790008093B20E0E94B0018091D80E81112EC06C
:1057A00081E08093D80E8091D90E9091DA0EA0916D
:1057B000DB0EB091DC0E0197A105B105F9F48091E3
:1057C000DD0E8823D9F06BE070E080E090E00E946D
:1057D00089039093DF0E8093DE0E40E050E0BA0123
:1057E0000E9452036BE070E080E090E00E94890329
:1057F0009093DF0E8093DE0E0E941E048091B80EFF
:1058000081111FC081E08093B80E8091B90E9091F4
:10581000BA0EA091BB0EB091BC0E0197A105B105C7
:1058200081F48091BD0E882361F067E370E080E031
:1058300090E00E9449019093BF0E8093BE0E0E949B
:10584000B0018091D00E81112EC081E08093D00EE6
:105850008091D10E9091D20EA091D30EB091D40E22
:105860000197A105B105F9F48091D50E8823D9F0EF
:1058700069E070E080E090E00E9489039093D70E89
:105880008093D60E40E050E0BA010E94520369E0D6
:1058900070E080E090E00E9489039093D70E80939F
:1058A000D60E0E941E048091A00E811114C081E0CA
:1058B0008093A00E8091A10E9091A20EA091A30EB4
:1058C000B091A40E0197A105B10529F48091A50E10
:1058D00081110E944F038091C40E811103C081E0A9
:1058E0008093C40E08954F925F926F927F928F9231
:1058F0009F92AF92BF92CF92DF92EF92FF920F935F
:105900001F93F89440902A0550902B0560902C0529
:1059100070902D05C0901E05D0901F05E0902005C9
:10592000F09021054130510509F0A4C09B01AC0164
:10593000241935094609570929013A01009126051C
:10594000109127052091280530912905480159011A
:10595000840C951CA61CB71C80169106A206B306E3
:10596000A0F4009122051091230520912405309187
:1059700025050F5F1F4F2F4F3F4F009322051093B8
:1059800023052093240530932505809226059092C7
:105990002705A0922805B0922905009122051091B3
:1059A0002305209124053091250580922E059092A3
:1059B0002F05A0923005B092310500933205109367
:1059C0003305209334053093350560932A05709391
:1059D0002B0580932C0590932D05A0E1B7E2A30140
:1059E00092010E9420586C0D7D1D8E1D9F1D60939D
:1059F0001E0570931F05809320059093210500914B
:105A0000A4021091A5022091A6023091A7020F3F97
:105A10001F4F2F4F3F4FF1F00091A4021091A502AC
:105A20002091A6023091A7020E3F1F4F2F4F3F4FEC
:105A300089F0C090A402D090A502E090A602F09058
:105A4000A70221E08C149D04AE04BF0408F420E0FA
:105A500020933A0578941F910F91FF90EF90DF907B
:105A6000CF90BF90AF909F908F907F906F905F90FE
:105A70004F9008954B015C0184189508A608B7085B
:105A8000A3019201261B370B480B590B64157505B2
:105A900086059705D0F082169306A406B50640F455
:105AA00020E030E0A90181149104A104B10491F433
:105AB000A0E1B7E20E942058A7019601261B370BF0
:105AC000480B590BCA01B901C5CF82169306A4062B
:105AD000B50670F7A0E1B7E2A50194010E94205835
