:1000000005C100000C94D8390C94033A0C942E3A94
:100010000C94593A0C94843A0C94AF3A0C94DA3A12
:100020000C94053B24C1000022C1000020C1000047
:100030001EC100001CC100001AC1000018C1000050
:1000400016C1000014C1000012C1000010C1000060
:100050000EC100000CC100000AC100000C94303B2E
:1000600006C100000C94043F0C943A3F00C100000C
:10007000FEC00000FCC00000FAC00000F8C0000094
:10008000F6C00000F4C00000F2C00000F0C00000A4
:100090000C94903F0C94C63FEAC00000E8C00000FA
:1000A000E6C00000E4C00000E2C00000E0C00000C4
:1000B000DEC00000DCC00000DAC00000D8C00000D4
:1000C000D6C00000D4C00000D2C000000C941C4078
:1000D0000C945240CCC000000C94A8400C94DE401C
:1000E000C6C0000000000A0B02090C0D0E08070331
:1000F00004010000000000000000000000000000FB
:1001000000000000000000000000000000000000EF
:1001100012111000000000000000000000000000AC
:100120000000000000000000000001021020200874
:100130000810204010204080020102010804020142
:1001400001020408102040808040201008040201B1
:10015000800402018040201008040201080402010A
:100160000102040810204080010204081020408091
:1001700005050505070508080808020202020A0A23
:100180000808040404040101010101010101030341
:10019000030303030303040707070C0C0C0C0C0CEC
:1001A0000C0C0202020206060606060606060B0BE9
:1001B0000B0B0B0B0B0B000020002300260029006B
:1001C0002C002F003200000100000301060109018C
:1001D00000002200250028002B002E0031003400F2
:1001E00002010000050108010B01000021002400AC
:1001F00027002A002D003000330001010000040117
:1002000007010A01633FEF3F7B40074111241FBEF6
:10021000CFEFD1E2DEBFCDBF00E00CBF13E0A0E026
:10022000B2E0E4EBF3E800E00BBF02C007900D92F0
:10023000AA32B107D9F72AE0AAE2B3E001C01D92C1
:10024000A135B207E1F711E0C6E0D1E000E006C059
:1002500021970109802FFE010E94A741C230D107DA
:1002600080E00807A9F70E94DF360C94D841C8CE79
:10027000CF92DF92EF92FF92CF93882351F16A01E0
:100280007B01CFEFC80F20E030E0A901CB01B60120
:100290000E946E3718168CF0C701B60190580E9464
:1002A00077379B01AC016C2F70E090E080E0CF913C
:1002B000FF90EF90DF90CF90B2C0C701B6010E94CF
:1002C00072378C2FCF91FF90EF90DF90CF900C94EE
:1002D000373CCF91FF90EF90DF90CF9008950F9330
:1002E0001F938B019C0183E0369527951795079501
:1002F0008A95D1F7065D1C4F462F477021E030E00C
:10030000F90102C0EE0FFF1F4A95E2F7AF01F801B5
:1003100020812423CB010196211102C090E080E0CE
:100320001F910F9108950F931F938B019C0183E000
:1003300036952795179507958A95D1F7677081E0CF
:1003400090E001C0880F6A95EAF7F801E65DFC4F7E
:100350002081452B31F48095822380831F910F915A
:100360000895822BFACF2F923F924F925F926F9215
:100370007F928F929F92AF92BF92CF92DF92EF9235
:10038000FF920F931F93CF93DF93D62EC72E782E15
:10039000692E49015A01280161E08D2D0E94713DAD
:1003A000CD2DDC2D8E010F5F1F4FA8016D2D7C2DF3
:1003B000872D962DB8DF20E030E0A901C201B701FA
:1003C0000E94DF38181664F4C201B7010E94773723
:1003D0002B01C501B4010E947737A201CE0123D0C1
:1003E000C801DF91CF911F910F91FF90EF90DF90A7
:1003F000CF90BF90AF909F908F907F906F905F90C5
:100400004F903F902F900895882341F08150682F9E
:1004100070E090E080E050E040E085CF0895862FC6
:10042000B9010C94373C9C01FC01EC51FF4FE49165
:10043000E150E231E0F4F0E08827EE5DFD4F8F4FB0
:100440000C94A74134023B023E0255026A02370275
:100450007F028B028F02A602BB02D002E702FC02DF
:100460003702110328033D0384B5806884BD60E032
:10047000822F0C94AD3D84B58062F8CF80918000CE
:100480008C7F82608093800080918100807E80617B
:10049000682B609381005093870040938600809181
:1004A0008000806880938000E2CF809180008C7F04
:1004B00082608093800080918100807E8061682BC3
:1004C0006093810050938700409386008091800064
:1004D0008062E8CF809180008C7F82608093800072
:1004E00080918100807E8061682B609381005093B1
:1004F000870040938600809180008860D3CF8091F0
:10050000B00080688093B0008091B100887F682B34
:100510006093B100ACCF8091B0008062F3CF809146
:1005200090008C7F82608093900080919100807E0B
:100530008061682B609391005093970040939600E0
:100540008091900080688093900091CF809190007E
:100550008C7F82608093900080919100807E80618A
:10056000682B609391005093970040939600809180
:1005700090008062E8CF809190008C7F82608093B1
:10058000900080919100807E8061682B6093910043
:100590005093970040939600809190008860D3CF4D
:1005A0008091A0008C7F82608093A0008091A10048
:1005B000807E8061682B6093A1005093A7004093D8
:1005C000A6008091A00080688093A00050CF809109
:1005D000A0008C7F82608093A0008091A100807E2B
:1005E0008061682B6093A1005093A7004093A60000
:1005F0008091A0008062E8CF8091A0008C7F826013
:100600008093A0008091A100807E8061682B609320
:10061000A1005093A7004093A6008091A00088609D
:10062000D3CF809120018C7F8260809320018091C4
:100630002101807E8061682B609321015093270106
:1006400040932601809120018068809320010FCF84
:10065000809120018C7F8260809320018091210114
:10066000807E8061682B6093210150932701409325
:100670002601809120018062E8CF809120018C7F4B
:1006800082608093200180912101807E8061682BAF
:10069000609321015093270140932601809120010E
:1006A0008860D3CFFC01A781B0858C919185892387
:1006B000A481B5819C9140815181628173812681A1
:1006C000922359F081110BC04F5F5F4F6F4F7F4FE7
:1006D000408351836283738308958111F5CF415024
:1006E000510961097109F4CF84E393E0DBCF8FE313
:1006F00093E0D8CF8AE493E0D5CF85E593E0D2CFDD
:10070000FC01A481B5818C9196818923A781B08554
:100710009C9140815181628173812185922359F09E
:10072000882359F04F5F5F4F6F4F7F4F4083518356
:100730006283738308958823A9F3415051096109A5
:100740007109F4CF84E393E0DBCF8FE393E0D8CF5C
:100750008AE493E0D5CF85E593E0D2CF0F931F9342
:10076000CF93DF93D82FC62F8A01A09133038BE05C
:10077000A89FD0011124AC5CBC4F1D921D921D920C
:100780001C92139781E01A968C931A978D2F90E004
:10079000FC01E65DFE4FE4911696EC931697FC0182
:1007A000E059FE4FE491F0E0EE0FFF1FEA54FE4FD8
:1007B0008591949115969C938E931497862F90E033
:1007C000FC01E65DFE4FE4911996EC931997FC014C
:1007D000E059FE4FE491F0E0EE0FFF1FEA54FE4FA8
:1007E0008591949118969C938E93179760E08D2F26
:1007F0000E94713D60E08C2F0E94713D8091330317
:10080000813009F43FC0A8F0823009F462C083301F
:1008100009F486C08091330391E0980F90933303DD
:10082000F801808390E080E0DF91CF911F910F91DC
:10083000089580E0D23049F081E0D33031F08EEE7F
:100840008D0F8430D8F487E18D1B41E050E064E7E0
:1008500073E00E945E3980E0C23049F081E0C3302D
:1008600031F08EEE8C0F843058F487E18C1B41E020
:1008700050E062EA73E00E945E39CCCF8FEFE5CFA3
:100880008FEFF5CF80E0D23049F081E0D33031F006
:100890008EEE8D0F8430C8F487E18D1B41E050E06F
:1008A00067E773E00E945E3980E0C23049F081E082
:1008B000C33031F08EEE8C0F843048F487E18C1B0E
:1008C00041E050E065EA73E0D6CF8FEFE7CF8FEFDE
:1008D000F7CF80E0D23049F081E0D33031F08EEEB6
:1008E0008D0F8430C8F487E18D1B41E050E06AE74A
:1008F00073E00E945E3980E0C23049F081E0C3308D
:1009000031F08EEE8C0F843048F487E18C1B41E08F
:1009100050E068EA73E0AFCF8FEFE7CF8FEFF7CF0C
:1009200080E0D23049F081E0D33031F08EEE8D0F8F
:100930008430C8F487E18D1B41E050E06DE773E03F
:100940000E945E3980E0C23049F081E0C33031F06E
:100950008EEE8C0F843048F487E18C1B41E050E030
:100960006BEA73E088CF8FEFE7CF8FEFF7CF9BE095
:10097000899FF0011124EC5CFC4F80819181A28160
:10098000B381FB0180839183A283B38390E080E0F5
:1009900008959BE0899FF0011124EC5CFC4F1082CC
:1009A00011821282138290E080E0089590E080E04E
:1009B000089590E080E008950F931F93009709F445
:1009C00089C06115710509F485C000913402109148
:1009D000350220913602309137020E3F1F4F2F4FC4
:1009E0003F4F09F068C04FEF5FEFBA014093340208
:1009F000509335026093360270933702409134026F
:100A0000509135026091360270913702DC011296E6
:100A1000ED91FC9180819181A281B38180935A04F0
:100A200090935B04A0935C04B0935D0484819581F2
:100A3000A681B7818093560490935704A0935804DD
:100A4000B093590480859185A285B3858093520423
:100A500090935304A0935404B093550484859585D2
:100A6000A685B78580934E0490934F04A0935004BD
:100A7000B093510410924A0410924B0410924C040B
:100A800010924D040E94D9198EEF99E19093610361
:100A90008093600390936303809362030E94C8185D
:100AA000009731F421E030E030935F0420935E043E
:100AB0001F910F91089500913402109135022091F9
:100AC000360230913702DB010D931D932D933C9339
:100AD000139794CF8FEF9FEFEBCF8F929F92AF92B0
:100AE000BF92CF92DF92EF92FF921F93CF93DF934B
:100AF0004B015C011091610482E090E090935F04EF
:100B000080935E0481149104A104B10441F48091A6
:100B10006104811104C080916004C1E08111C0E0D2
:100B2000C12CD12C760180916104811106C0809185
:100B30006004811102C0CC23D9F083E090E090934F
:100B40005F0480935E04CC2381F1CCE9DFEF1111C7
:100B500002C00E94631DCE01DF91CF911F91FF90D3
:100B6000EF90DF90CF90BF90AF909F908F900895BF
:100B70006AE070E080E090E00E949F3B80E1C80E58
:100B800087E2D81EE11CF11C8FEF88169806A80694
:100B9000B80631F0C1E08C149D04AE04BF0408F027
:100BA000C0E080E00E94FC18BECFD0E0C0E0CFCF14
:100BB000CF92DF92EF92FF920F931F93CF93DF9329
:100BC0008F3F910511F008F051C020915E043091E3
:100BD0005F042330310539F020915E0430915F04C9
:100BE0002130310531F424E030E030935F0420936C
:100BF0005E046A017B01EC0182309105A8F011E0EE
:100C0000AE01C701B6010E94C718AB01BC01CE01FD
:100C10001123F9F0DF91CF911F910F91FF90EF9089
:100C2000DF90CF900C948C1F8C01000F111F005A85
:100C30001C4FD8018D919C91892B09F30E94961F1E
:100C40000297E9F6D801ED91FC91CE011995182F84
:100C5000D7CF0E94AE1F90E080E0DF91CF911F912F
:100C60000F91FF90EF90DF90CF9008958FEF9FEF5F
:100C7000F4CF80E00C94FC18CF93DF9386E090E0F3
:100C800090935F0480935E040E945519EC01E0E6A6
:100C9000F3E084E0DF011D928A95E9F70E94FB1CD6
:100CA00010925F0410925E04CE01DF91CF910895FF
:100CB00080916004089580914904089560933402FE
:100CC00070933502809336029093370290E080E073
:100CD00008952F923F924F925F926F927F928F92E0
:100CE0009F92AF92BF92CF92DF92EF92FF920F93BB
:100CF0001F93CF93DF93CDB7DEB7CB54D1090FB697
:100D0000F894DEBF0FBECDBF26967FAF6EAF26979D
:100D100028965FAF4EAF28973E8B2D8B2C96FFAE5B
:100D2000EEAE2C97FB01E150F04CEE0FFF1FEE0FE3
:100D3000FF1FE80FF91F80809180A280B3808F8A07
:100D4000988EA98EBA8EB501A401442777FD4395EC
:100D500055276627772729964FAF2997F901E15044
:100D6000F04CEE0FFF1FEE0FFF1F2896AEACBFAC8E
:100D70002897EA0DFB1DC080D180E280F380CB8EE6
:100D8000DC8EED8EFE8EB701A601442777FD4395DC
:100D90005527662777272A964FAF2A97188B0F87F4
:100DA000F80130E020E02C96EEACFFAC2C972E152D
:100DB0003F050CF43FC022969FAF8EAF22971A8B4F
:100DC000098B312C212C812C912C540183948D8200
:100DD0009E82AF82B88626968EAC9FAC269728144A
:100DE00039047CF129969FAC29972A96AFAC2A97B3
:100DF00030E020E041E050E060E070E09A10F5C1A2
:100E0000C55BDF4F0FB6F894DEBF0FBECDBFDF91DD
:100E1000CF911F910F91FF90EF90DF90CF90BF90F7
:100E2000AF909F908F907F906F905F904F903F908A
:100E30002F90089511921192119211922F5F3F4FAE
:100E4000B2CF2296EEADFFAD229781919191A19103
:100E5000B1912296FFAFEEAF22978F88988CA98C24
:100E6000BA8CB7FE23C04D815E816F817885415079
:100E70005109610971095A016B01A81AB90ACA0A14
:100E8000DB0AD601C50121E0CD80DE80EF80F88449
:100E90008C159D05AE05BF0508F020E0822E912C33
:100EA000B12CA12C8D829E82AF82B8865D01CC24AC
:100EB000DD24A8A2B9A2CAA2DBA29C01AD014427ED
:100EC00055272CA33DA34EA35FA32C96EEADFFADFB
:100ED0002C97E219F3098D889E888E169F060CF4D4
:100EE000F4012896AEACBFAC28972496BFAEAEAE48
:100EF0002497C988DA88DC8ACB8A1E861D86812CD5
:100F0000912C5401839489869A86AB86BC86812C69
:100F1000912C5401CD84DE84CE16DF0604F1F7FF58
:100F200002C0F0E0E0E0E20DF31D2C96EEACFFAC69
:100F30002C97EE15FF0554F4EE0FFF1FEE0FFF1F69
:100F4000E00FF11F80829182A282B3822FEF221ADA
:100F5000320AE989FA893496FA8BE98B3CCF2496D8
:100F6000AEADBFAD2497CD90DD90ED90FD90249671
:100F7000BFAFAEAF24972B8D3C8D4D8D5E8D57FF4F
:100F800022C089859A85AB85BC850197A109B109E5
:100F9000AC01BD014C195D096E097F096A017B0135
:100FA00081E029853A854B855C85C216D306E40627
:100FB000F50608F080E0482F50E070E060E04987D7
:100FC0005A876B877C87B7018827992768A779A7F5
:100FD0008AA79BA7EE24FF2428A139A14AA15BA1DF
:100FE000C701B6010E9462412B013C012CA13DA129
:100FF0004EA15FA168A579A58AA59BA50E94624123
:101000006CA77DA78EA79FA7AB89BC894D915D91E9
:101010006D917D91BC8BAB8BDB01CA01880D991D55
:10102000AA1DBB1D89839A83AB83BC8391E09F8FEC
:1010300029813A814B815C81281539054A055B0578
:1010400008F01F8E2CA13DA14EA15FA1C701B601E2
:101050000E9462416B017C0189809A80AB80BC80D8
:101060008C0C9D1CAE1CBF1C89829A82AB82BC82F8
:1010700052019924882488AA99AAAAAABBAA2981DC
:101080003A814B815C81280D391D4A1D5B1D2CABBB
:101090003DAB4EAB5FAB8CA49DA4AEA4BFA45401EA
:1010A0009924882488AE99AEAAAEBBAE280D391D0E
:1010B0004A1D5B1D2CAF3DAF4EAF5FAFAB89BC8906
:1010C00014972D933D934D935C93139728A139A1C9
:1010D0004AA15BA168A579A58AA59BA50E9462414A
:1010E0009F8C690D711D811D911D2301662477243C
:1010F000460E571E681E791E2CA53DA54EA55FA560
:101100004A01AA24BB24840C951CA61CB71C81E0B0
:1011100090E0A0E0B0E049815A816B817C814C1560
:101120005D056E057F0518F080E090E0DC01880D1C
:10113000991DAA1DBB1D41E050E060E070E088A849
:1011400099A8AAA8BBA8CCA8DDA8EEA8FFA8C81497
:10115000D904EA04FB0418F040E050E0BA01840F1F
:10116000951FA61FB71F812C912C54018394C8ACE6
:10117000D9ACEAACFBAC2CAD3DAD4EAD5FAD2C15A2
:101180003D054E055F0518F0812C912C5401880E09
:10119000991EAA1EBB1E4D855E854F5F5F4F5E8701
:1011A0004D87B8CEEF85F889C190D190E190F1904C
:1011B000F88BEF87DB01CA010197A109B1098C19EE
:1011C0009D09AE09BF09349780839183A283B383BD
:1011D000E1E084179507A607B70708F0E0E04E2F77
:1011E00050E070E060E02F5F3F4F2C968EAC9FACDC
:1011F0002C9728153905B4F203CE2F923F924F92C7
:101200005F926F927F928F929F92AF92BF92CF9296
:10121000DF92EF92FF920F931F93CF93DF93CDB79F
:10122000DEB72E970FB6F894DEBF0FBECDBF9E87F8
:101230008D873C872B871801FA0125E0F695E79505
:101240002A95E1F7DB01A150B04CAA0FBB1FAA0FF2
:10125000BB1FA80FB91FCD90DD90ED90FC90FF0C47
:10126000CC08DC2C7601E617F7070CF0D5C0DF01BF
:10127000A00FB11F9B01A617B7070CF49D018A01AF
:101280000F711127DF01AA0FBB1FAA0FBB1F01158A
:101290001105F1F40D851E850A0F1B1F8B859C859A
:1012A00050E040E0BA016E0F7F1F621773070CF029
:1012B0005DC0D8018D909D90AD90BD908D01DC01F9
:1012C0008D929D92AD92BD92CD014F5F5F4FEACF5F
:1012D0006D847E846A0E7B1E7C826B82D3014D906E
:1012E0005D906D907C90AB84BC84BA82A98250E002
:1012F00040E0A0E2B0E0CD01801B910B9E838D8386
:1013000053014201002E04C0B694A7949794879489
:101310000A94D2F74F5F5F4FDF01A40FB51FA217EA
:10132000B30784F1D701C601261737076CF4220FE3
:10133000331F220F331FED85FE852E0F3F1FF9014E
:1013400080819181A281B3810D8004C0880F991F93
:10135000AA1FBB1F0A94D2F788299929AA29BB2959
:10136000E981FA8180839183A283B3839A01220F5A
:10137000331F220F331F6B847C84620E731E7A82AC
:1013800069822EC0DA01AA0FBB1FAA0FBB1F6B8098
:101390007C80A60DB71D4D905D906D907C90D30123
:1013A000C2010D8004C0880F991FAA1FBB1F0A9499
:1013B000D2F7882A992AAA2ABB2AA981BA818D92B2
:1013C0009D92AD92BD92BA83A9839ACFE981FA81A9
:1013D000C192D192E192F192FA83E9834F5F5F4F1C
:1013E000421553059CF32E960FB6F894DEBF0FBE40
:1013F000CDBFDF91CF911F910F91FF90EF90DF90C4
:10140000CF90BF90AF909F908F907F906F905F90A4
:101410004F903F902F90089550E040E0A7CF2F923B
:101420003F924F925F926F927F928F929F92AF9274
:10143000BF92CF92DF92EF92FF920F931F93CF93C1
:10144000DF9300D000D0CDB7DEB7DA01E5E0B69586
:10145000A795EA95E1F7FB01E150F04CEE0FFF1F75
:10146000EE0FFF1FE80FF91F80809180A280B380EC
:10147000BB0C8808982C54013D010A171B070CF47B
:1014800038017901D12CC12CC614D70464F1F301C1
:1014900077FE02C0F0E0E0E0A017B1070CF075C0E5
:1014A0004F715527A60FB71FB801A017B1070CF44D
:1014B000BD016E1B7F0BDF01AA0FBB1FAA0FBB1F55
:1014C00041155105D1F43D01620E731E50E040E01C
:1014D000461757070CF48DC077FF02C070E060E03C
:1014E000E60FF71F52C0F70111921192119211925B
:1014F0007F01FFEFCF1ADF0AC7CF1C0129014A0E77
:101500005B1E5A8249821E821D82C12CD12C76011B
:1015100080E290E03C01641A750A7C826B82AD81A6
:10152000BE81A617B707CCF177FF02C070E060E07C
:10153000E60FF71FE017F1070CF072C0DF01AA0FEA
:10154000BB1FAA0FBB1FA20FB31F80E290E0841B3A
:10155000950B04C0F694E794D794C7948A95D2F774
:101560002401350104C0440C551C661C771C4A95A7
:10157000D2F7B301A201C428D52AE628F72ACD92D2
:10158000DD92ED92FC9213973196DF01AA0FBB1FFB
:10159000AA0FBB1FA20FB31F40C0260137010B804B
:1015A00004C076946794579447940A94D2F7D10173
:1015B000CD90DD90ED90FD901D01D701C601042E68
:1015C00004C0880F991FAA1FBB1F0A94D2F7482A8C
:1015D000592A6A2A7B2AA981BA814D925D926D921D
:1015E0007D92BA83A9838D819E8101969E838D838E
:1015F00096CFDC01CD90DD90ED90FD90CD01D30133
:10160000CD92DD92ED92FD923D014F5F5F4F60CF35
:101610008D929D92AD92BD923196E017F107C4F381
:1016200026960FB6F894DEBF0FBECDBFDF91CF91E7
:101630001F910F91FF90EF90DF90CF90BF90AF90F0
:101640009F908F907F906F905F904F903F902F90E2
:101650000895FA016193719381939193990F660BA9
:10166000762FCB0141E050E0421753070CF008956C
:1016700061937193819391934F5F5F4FF5CF2F9259
:101680003F924F925F926F927F928F929F92AF9212
:10169000BF92CF92DF92EF92FF920F931F93CF935F
:1016A000DF9379011B01DA01D0E0C0E040E050E0B7
:1016B000BA01CE15DF059CF0DF91CF911F910F91FC
:1016C000FF90EF90DF90CF90BF90AF909F908F9062
:1016D0007F906F905F904F903F902F900895FC0106
:1016E00081909190A190B190CF01F1010191119160
:1016F000219131911F0124013501401A510A620ADA
:10170000730A93018201041B150B260B370B0D93F3
:101710001D932D933D9366246394712CC12CD12C81
:10172000452B462B472B39F0081519052A053B0593
:1017300038F4612C05C080169106A206B306C8F7DE
:10174000A301B6012196B5CF8F929F92AF92BF921F
:10175000CF92DF92EF92FF92CF93DF93F90162175E
:1017600073070CF4FB016C017A01B0E0A0E0AE1746
:10177000BF074CF162177307DCF46150704C660FC1
:10178000771F660F771F680F791FDB01CD90DD9003
:10179000ED90FC90FF0CCC08DC2C7601DF01AA0F49
:1017A000BB1FAA0FBB1FA40FB51FE217F307CCF096
:1017B000DF91CF91FF90EF90DF90CF90BF90AF90EF
:1017C0009F908F900895E60189909990A990B99083
:1017D0006E01E70189929992A992B9927E011196C0
:1017E000C6CFCD92DD92ED92FD923196DECF8F92F3
:1017F0009F92AF92BF92CF92DF92EF92FF920F93A0
:101800001F93FB0170E060E0C12CD12C7601C394E2
:10181000641775075CF01F910F91FF90EF90DF90B8
:10182000CF90BF90AF909F908F900895DC018D90E6
:101830009D90AD90BD90CD01970186010150110999
:1018400021093109081919092A093B090193119342
:1018500021933193A1E00C151D052E053F0508F0DD
:10186000A0E0CA2ED12CF12CE12C6F5F7F4FD0CF9E
:10187000AB0141505109FC0130E020E0241735074D
:1018800094F06150704C660F771F660F771F680FDA
:10189000791F80E090E0A0E0B0E8FB0180839183B5
:1018A000A283B383089511921192119211922F5F26
:1018B0003F4FE4CFCF92DF92EF92FF92AB014150C6
:1018C0005109FC0130E020E0CC24CA94DC2C7601E4
:1018D00024173507B4F06150704C660F771F660F00
:1018E000771F680F791F8FEF9FEFAFEFBFE7FB0107
:1018F00080839183A283B383FF90EF90DF90CF909A
:101900000895C192D192E192F1922F5F3F4FE0CFC3
:10191000CF92DF92EF92FF92FB0130E020E0C12CEA
:10192000D12C7601C3942E173F072CF0FF90EF9037
:10193000DF90CF900895DC014D915D916D917D9187
:10194000CD014C0D5D1D6E1D7F1D14974D935D9354
:101950006D937C931397A1E04C155D056E057F0593
:1019600008F0A0E0CA2ED12CF12CE12C2F5F3F4FC4
:10197000DACFCF92DF92EF92FF92FC0180E030E06D
:1019800020E02617370714F4882329F0FF90EF9002
:10199000DF90CF900895C190D190E190F1902F5FAA
:1019A0003F4F81E0CD28CE28CF2859F780E0E9CFFE
:1019B0002F923F924F925F926F927F928F929F925F
:1019C000AF92BF92CF92DF92EF92FF920F931F934D
:1019D000CF93DF93CDB7DEB7A8970FB6F894DEBFED
:1019E0000FBECDBF9EA38DA31B015E834D833A83A3
:1019F00029831A8F098FDA8AC98AF901EE0FFF1F2E
:101A0000EE0FFF1FE40FF51F49815A8114161506CA
:101A10000CF0A0C4B291A29192918291892B8A2B51
:101A20008B2B11F1E98DFA8D90E080E08E159F05EA
:101A300014F1F101EE0FFF1FEE0FFF1F8DA19EA10C
:101A4000E80FF91F1214130404F1ADA1BEA1BA836B
:101A5000A983E989FA8930E020E02A153B050CF4D6
:101A60006AC485E090E04FC029813A812150310954
:101A70003A832983C9CF1192119211921192019642
:101A8000D5CF91E0291A3108DDCFB291A291929180
:101A90008291892B8A2B8B2BA1F3E981FA812E1657
:101AA0003F069CF249885A885A864986F20190E09E
:101AB00080E005C0119211921192119201968A153F
:101AC0009B05C4F3B1E02B163104B1F5EDA1FEA1E5
:101AD0006081718182819381AD81BE812D913D9123
:101AE0004D915C910E948541E98DFA8D208331836F
:101AF00042835383A989BA896D937D938D939C9377
:101B0000139787E090E0A8960FB6F894DEBF0FBE5B
:101B1000CDBFDF91CF911F910F91FF90EF90DF909C
:101B2000CF90BF90AF909F908F907F906F905F907D
:101B30004F903F902F900895E981FA81E150F04C49
:101B4000EE0FFF1FEE0FFF1F4D805E804E0E5F1EDB
:101B50005C8A4B8AD201CD90DD90ED90FC90D7014C
:101B6000C601B695A7959795879501E010E01C836F
:101B70000B830097A105B10589F5D101A150B04CA7
:101B8000AA0FBB1FAA0FBB1F8DA19EA1A80FB91F33
:101B90004D915D916D917C9176956795579547959F
:101BA00081E090E0411551056105710511F5A981AC
:101BB000BA81A215B3051CF14B805C808415950594
:101BC000F0F46DA07EA07A82698230E020E02A15D0
:101BD0003B050CF49DC386E090E095CF2B813C81C2
:101BE0002F5F3F4F3C832B83B695A795979587959D
:101BF000C0CF01967695679557954795D3CF2981A4
:101C00003A8121503109388B2F87910121503109B8
:101C1000890175E0000F111F7A95E1F7080F191F70
:101C20004F855889A5E0440F551FAA95E1F76B81B0
:101C30007C81640F751F7E876D87AB81BC81A0326C
:101C4000B10509F498C134964D805E80E40DF51D10
:101C500070E060E040E250E04A1B5B0B4601570138
:101C6000042E04C0880C991CAA1CBB1C0A94D2F731
:101C70006F5F7F4F69807A806616770609F062C1D0
:101C8000AD81BE818D929D92AD92BC921397CC2472
:101C9000CA94DC2C76012601370104C0440C551C83
:101CA000661C771C4A95D2F74D8A5E8A6F8A788EB9
:101CB00049815A814130510509F066C14D885E88DD
:101CC0006F88788C4D8E5E8E6F8E78A269817A8156
:101CD000615071094FEF5FE3649F4001659F900C75
:101CE000749F900C11249AA289A21C861B86AD8435
:101CF000BE84A094B094BCA2ABA2A901440F551F0E
:101D0000440F551FADA1BEA1A40FB51FB887AF8367
:101D10008032910509F440C0CD90DD90ED90FC90AB
:101D200013974B855C85405E5F4FFA01E81BF90B0A
:101D3000FC87EB87FD01A90160E270E0681B790B6D
:101D400026013701062E04C0440C551C661C771C66
:101D50000A94D2F7141615060CF41FC1A90137FF17
:101D600002C050E040E088248A94FFE39F2E489D03
:101D7000F001499DF00D589DF00D1124E20FF31F65
:101D8000EE0FFF1FEE0FFF1F8DA19EA1E80FF91FA1
:101D90004082518262827382EF81F88580819181D5
:101DA000A281B381EB89FC89408151816281738179
:101DB000CD8CDE8CEF8CF8A0C822D922EA22FB223F
:101DC000C416D506E606F70609F067C14F805884A9
:101DD00058A64FA26B887C887C8E6B8EB2014F8593
:101DE00058894115510509F0F1C06D857E85061BA6
:101DF000170B8F859889009709F09DC1E9A1FAA179
:101E0000E20FF31FEE0FFF1FEE0FFF1F2DA13EA1EC
:101E10002E0F3F1FF90180819181A281B381ED8155
:101E2000FE814081518162817381841B950BA60BD9
:101E3000B70BF90180839183A283B383F80195E006
:101E4000F695E7959A95E1F7EE0FFF1FEE0FFF1F4E
:101E5000698C7A8CE60DF71D0F71112741E050E077
:101E600060E070E004C0440F551F661F771F0A959D
:101E7000D2F780819181A281B381842B952BA62BEF
:101E8000B72B80839183A283B383EF81F8851214EB
:101E900013040CF062C280819181A281B38191010F
:101EA000215031093497892B8A2B8B2B09F47FC160
:101EB00069807A80261437040CF07BC1910121508F
:101EC000310984E090E06B857C8545E076956795E7
:101ED0004A95E1F74B855C854F715527FB01EE0F65
:101EE000FF1FEE0FFF1F4115510509F497C12DA0EB
:101EF0003EA02E0E3F1ED101CD90DD90ED90FC90C6
:101F0000B0E0A0E0E0E2F0E02F01441A550A5A8266
:101F1000498246015701042E04C0B694A7949794B1
:101F200087940A94D2F76F5F7F4F1496261737076E
:101F30000CF0B6C1A985BA858D929D92AD92BC92E6
:101F4000139785C1DF011897CD90DD90ED90FC903F
:101F5000260137010B8004C0769467945794479408
:101F60000A94D2F784289528A628B728B292A2927C
:101F70009292829273CE66246A94762C43016D8A83
:101F80007E8A8F8A988E94CE66246A94762C43013A
:101F90006D8E7E8E8F8E98A299CEF290E290D29026
:101FA000C29046015701082E04C0B694A794979496
:101FB00087940A94D2F784289528A628B728848283
:101FC0009582A682B78241505109BACEFB01729028
:101FD000629052904290BF0141505109EB8DFC8DAF
:101FE000B290A29092908290FC8FEB8FCC24CA94F6
:101FF000DC2C76014115510521F4CD88DE88EF886F
:10200000F88CC420D520E620F720C814D904EA04AF
:10201000FB0409F4E6CE84149504A604B70408F47E
:1020200085C0AD84BE84A016B10608F0A9C1EF81B9
:10203000F885A9016C017D01CC0CDD1CEE1CFF1C98
:10204000141615060CF483C0A90137FF02C050E036
:1020500040E044244A946FE3562E449DF001459D90
:10206000F00D549DF00D1124E20FF31FEE0FFF1F32
:10207000EE0FFF1F6DA07EA0E60DF71DC082D1827E
:10208000E282F3824B855C854F5F5F4F5C874B87B5
:102090006BA17CA1060F171F0AC0481759076A07D2
:1020A0007B0708F0BECF8D849E8408191909F901B9
:1020B00089819A81E81BF90B3196EE0FFF1FEE0F15
:1020C000FF1FADA1BEA1EA0FFB1F4D805E805C8E9D
:1020D0004B8E90E080E040E050E0BA01819091901A
:1020E000A190B190AB8DBC8DCD90DD90ED90FD9029
:1020F000BC8FAB8F240135014C185D086E087F083A
:1021000073016201C41AD50AE60AF70A66246394C9
:10211000712C30E020E0452B462B472B79F1C81479
:10212000D904EA04FB0478F5612C2DC04D855E8549
:10213000041B150BBCCFAFA1B8A51D921D921D921B
:102140001C92139701971497B8A7AFA354CEB291DE
:10215000A291929182914C015D018824B7FC8394F5
:102160009924AA24BB24C828D928EA28FB28C48299
:10217000D582E682F782415051095CCF8C149D04D0
:10218000AE04BF0488F6A301632F722F9F01245071
:102190003109D901CD92DD92ED92FC92139701960F
:1021A00049805A80841595050CF498CF47CE1901C3
:1021B0006ECEF101E150F04CEE0FFF1FEE0FFF1F4E
:1021C0008DA09EA0E80DF91D40815181628173812F
:1021D000769567955795479581E090E041155105B3
:1021E00061057105A9F48901B5E0000F111FBA95C9
:1021F000E1F7AB84BC840A191B09080F191F4D8530
:102200005E850417150708F078CD82E090E05BCE7C
:1022100001967695679557954795E0CFADA1BEA1FC
:10222000EA0FFB1F30E020E04191519161917191E3
:10223000A985BA854D935D936D937D93BA87A987E0
:102240002F5F3F4F4F845888421653066CF7EB813F
:10225000FC81B09709F457CCAD81BE81CD90DD9063
:10226000ED90FC901397FD0130E020E040E250E05B
:102270004B805C804419550926013701042E04C0A7
:1022800076946794579447940A94D2F78F849888E9
:102290002815390524F1408251826282738233CC41
:1022A00081010A0F1B1FF801C080D180E280F380FA
:1022B00026013701098004C0440C551C661C771C9C
:1022C0000A94D2F784289528A628B728E985FA85A4
:1022D00081929192A192B192FA87E9871ACEC48035
:1022E000D580E680F780460157010B8004C0880C3A
:1022F000991CAA1CBB1C0A94D2F784289528A628EE
:10230000B72881929192A192B1922F5F3F4FB4CFA3
:10231000E981FA8181919191A191B191FA83E98347
:10232000E985FA8581939193A193B193FA87E9871F
:102330002F5F3F4F4CCCA981BA814D915D916D913A
:102340007D91BA83A98341935193619371932F5FD8
:102350003F4F83CB8FEF9FEFD6CB2114310409F091
:10236000ADCDEDA1FEA180819181A281B381E989EA
:10237000FA8980839183A283B38381E090E067CF61
:1023800083E090E0A0CD2F923F924F925F926F92A8
:102390007F928F929F92AF92BF92CF92DF92EF92F5
:1023A000FF920F931F93CF93DF93CDB7DEB7649760
:1023B0000FB6F894DEBF0FBECDBF2A013E832D833A
:1023C00038011701DE86CD86B88AAF862AA53BA5DF
:1023D0003A8B298B4CA55DA558874F83AEA5BFA529
:1023E000BC8BAB8BFB01E150F04CEE0FFF1FEE0FEF
:1023F000FF1FE80FF91F208131814281538129831A
:102400003A834B835C83ED81FE81E150F04CEE0F0B
:10241000FF1FEE0FFF1FE40DF51D2081318142816A
:10242000538129873A874B875C8729813A814B8181
:102430005C8157FF40C0AB01B401D9D989859A8529
:10244000AB85BC85B7FF3CC04D815E816F817885CF
:10245000C201CDD9AF84B888CD84DE8471018301F7
:102460002B893C894F81588569897A89C401A0DA12
:1024700097FF48C029813A814B815C81B101C3013A
:1024800057FF27C064960FB6F894DEBF0FBECDBFCE
:10249000DF91CF911F910F91FF90EF90DF90CF9040
:1024A000BF90AF909F908F907F906F905F904F9074
:1024B0003F902F90DDC929893A89A40145D9BECF23
:1024C0002B893C894F8158856D817E81C2013CD921
:1024D000C1CF64960FB6F894DEBF0FBECDBFDF91BB
:1024E000CF911F910F91FF90EF90DF90CF90BF9011
:1024F000AF909F908F907F906F905F904F903F90A4
:102500002F90D8C989819A81AB81BC818827B7FD7A
:1025100083959927AA27BB2749855A856B857C8592
:10252000442777FD4395552766277727841731F190
:102530006F8578898D859E851CDA882319F0B10115
:10254000C301E6D9A101B301C30164960FB6F894A3
:10255000DEBF0FBECDBFDF91CF911F910F91FF90D6
:10256000EF90DF90CF90BF90AF909F908F907F9033
:102570006F905F904F903F902F9039C964960FB63F
:10258000F894DEBF0FBECDBFDF91CF911F910F91A9
:10259000FF90EF90DF90CF90BF90AF909F908F9083
:1025A0007F906F905F904F903F902F9008954F9243
:1025B0005F926F927F928F929F92AF92BF92CF92D3
:1025C000DF92EF92FF92CF93DF939A012150304C2C
:1025D000220F331F220F331FFC01E20FF31F8080F5
:1025E0009180A280B380FB01E20FF31FC080D180F5
:1025F000E280F380CC24DD24EE24E0E8FE222401F6
:102600003501442455246624E0E87E22C414D50410
:10261000E604F70499F52C5F3F4FFC01E20FF31F2E
:10262000EB01C20FD31F141615068CF090E080E06A
:10263000DF91CF91FF90EF90DF90CF90BF90AF9060
:102640009F908F907F906F905F904F900895415032
:102650005109F290E290D290C290BA91AA919A91C7
:102660008A91C816D906EA06FB06E9F28C159D0583
:10267000AE05BF0528F481E090E0DACFB7FEFBCFCE
:102680008FEF9FEFD5CF93DF892F8095881F882705
:10269000881F08958F929F92AF92BF92CF92DF9240
:1026A000EF92FF920F931F93CF93DF93CDB7DEB7D7
:1026B000CC54D1090FB6F894DEBF0FBECDBFE09168
:1026C0002304F091240420912002309121024091B2
:1026D00022025091230260817181828193810E9444
:1026E0006E3787FF0FC2609124027091250280919E
:1026F0002602909127020E94E0376B017C0144D4AE
:10270000811109C2C701B601FAD3811104C220E0C8
:1027100030E040E853E4C701B6010E94FA376B018C
:102720007C0120E030E0A9010E946E3787FFF6C1EE
:10273000C701B60190580E94773761956093160AD9
:102740006BE070E080E090E00E946F017C0190936C
:102750002A0A8093290A6091160A70E090E080E0CE
:102760000E94A337AB01BC01C7010E943801C09091
:102770001C02D0901D02E0901E02F0901F02A701E3
:10278000960160911E0A70911F0A8091200A909113
:10279000210A0E946E37882341F0C0921E0AD0920F
:1027A0001F0AE092200AF092210A80911D0A8111ED
:1027B00010921D0ABE01675B7F4F8091220A0E9422
:1027C000B70480910C0290910D02A0910E02B0917D
:1027D0000F0289A79AA7ABA7BCA72D968CAD9DAD7C
:1027E000AEADBFAD2D974091330A5091340A609140
:1027F000350A7091360A841B950BA60BB70B89A37B
:102800009AA3ABA3BCA342E0E42EF12C02E01AE0B1
:1028100021E030E0AE014F5D5F4F61E070E0CE013E
:1028200089960E94690654E0E52EF12C02EB19E02E
:1028300022E030E042E05AE062E070E088E292E0BC
:102840000E946906CE0101966C018C0122E030E005
:1028500040E952E062E070E082E09AE00E9469069E
:1028600004E010E09E012F5E3F4F4FE150E064E036
:1028700070E0C6010E94FD0889899A89AB89BC89EC
:102880008093120A9093130AA093140AB093150A26
:1028900010920A0A10920B0A10920C0A10920D0A5A
:1028A00010920E0A10920F0A1092100A1092110A3A
:1028B0008091140290911502A0911602B091170216
:1028C00089A79AA7ABA7BCA780912F0A9091300A3D
:1028D000A091310AB091320A89A39AA3ABA3BCA3F9
:1028E00062E0E62EF12C0AE01AE021E030E0AE01D1
:1028F0004F5D5F4F61E070E0CE0189960E946906EE
:102900002D968CAD9DADAEADBFAD2D978093330AA6
:102910009093340AA093350AB093360A6091120A54
:102920007091130A8091140A9091150A22E030E008
:10293000AE014F5D5F4F0E94290B02E010E09E0147
:10294000275C3F4F4EE150E062E070E0CE0181969F
:102950000E940F0A8091080290910902A0910A0238
:10296000B0910B0229968CAF9DAFAEAFBFAF299748
:1029700080912F0A9091300AA091310AB091320AC9
:1029800025968CAF9DAFAEAFBFAF25978E010F5D83
:102990001F4F21E030E0AE014F5B5F4F61E070E020
:1029A000CE018B5B9F4F0E94690622E030E0AE01B2
:1029B0004F5C5F4FB801CE01C9960E943F0B8091DA
:1029C000040290910502A0910602B0910702892BA2
:1029D0008A2B8B2B09F0B4C042E050E068E872E02B
:1029E000CE01C19650DE882309F49DC088E0E0E85E
:1029F000F2E0DE01999601900D928A95E1F702E0EE
:102A000010E09E012F5E3F4F4EE150E062E070E02B
:102A1000CE0189960E94FD0889899A89AB89BC8973
:102A200080932F0A9093300AA093310AB093320A10
:102A3000409110045091110460911204709113049C
:102A400090E080E00E94D80540911804509119044C
:102A500060911A0470911B0481E090E00E94D805F7
:102A600060911004709111048091120490911304EC
:102A70006F5F7F4F8F4F9F4F6093100470931104CF
:102A80008093120490931304E0902304F0902404A4
:102A90000E94A3379B01AC0160911404709115044E
:102AA00080911604909117040E94E338F701608327
:102AB0007183828393838091180490911904A0916B
:102AC0001A04B0911B040196A11DB11D8093180436
:102AD00090931904A0931A04B0931B04C45BDF4FB6
:102AE0000FB6F894DEBF0FBECDBFDF91CF911F911F
:102AF0000F91FF90EF90DF90CF90BF90AF909F909D
:102B00008F900895609100027091010280910202FD
:102B100090910302F0CDC12CD12C7601C701B601F2
:102B20000E9477370BCE19A61AA61BA61CA680E01A
:102B300090E0A0E0B0E88DA79EA7AFA7B8AB5FCFAD
:102B400023E030E04EED59E062E070E0CE01C19646
:102B50000E94A40B03E010E022ED39E04EE150E0CA
:102B600063E070E08EED99E00E940F0A609104022C
:102B700070910502809106029091070223E030E0F7
:102B80004EED59E00E94290B1F9283E08F93DF9254
:102B9000CF921F928F9386EF882E89E0982E93E034
:102BA000A92EB12C2AEEC22E29E0D22E34E0E32E3B
:102BB000F12C02EC19E023E030E04EED59E063E047
:102BC00070E082ED99E0DFDB22E030E0AE01475DAE
:102BD0005F4F64E070E0C8010E94A40B0F900F905B
:102BE0000F900F900F900F900ACF8F929F92AF92FD
:102BF000BF92CF92DF92EF92FF920F931F93CF93EA
:102C0000DF9384E090E044D1E6E7F3E080E294E0F3
:102C100097838683C3E2D4E0D093B703C093B6030F
:102C200004E114E0158B048BF093E103E093E003DF
:102C3000F583E48321E030E0DC012D933C938DE6C5
:102C400092E09387828725E234E03983288340E04D
:102C500050E060E87FEB40931C0450931D046093A8
:102C60001E0470931F044AE057ED63E27CE3D80131
:102C70004D935D936D937C931397CEEFD3E08FE1EB
:102C800092E5ACE2B3ED88839983AA83BB8381E6A6
:102C900090E9A7E7B4E68093020490930304A0931D
:102CA0000404B093050480E192EEA6E3B4E58093BA
:102CB000060490930704A0930804B093090487ECDA
:102CC0009BEAA8ECBCE180930A0490930B04A093C8
:102CD0000C04B0930D04AAE6B3E0B383A283E4E648
:102CE000F3E01196FC93EE938FE792E0918380835B
:102CF00093838283958384838EE094E015969C93DE
:102D00008E9314971396DC93CE93129717963C9359
:102D10002E931697C7E1DAE080E0C82E82E0D82E25
:102D2000F601808D918DA28DB38D8C8F9D8FAE8F8E
:102D3000BF8F80A991A9A2A9B3A9888F998FAA8FC3
:102D4000BB8F1C86812C912C540183948D869E868A
:102D5000AF86B88AE12CF12C8701A80197016BE0BE
:102D600070E080E090E00E94B3019B8B8A8B11E0C1
:102D7000198B1B861882F601848D958DA68DB78DD3
:102D80008F839887A987BA8789829A82AB82BC820F
:102D900042E25AE063E182E10E94AE031D831E829B
:102DA0008B85DF91CF911F910F91FF90EF90DF9076
:102DB000CF90BF90AF909F908F900C94C90480915A
:102DC000230A81112EC081E08093230A8091240A76
:102DD0009091250AA091260AB091270A0197A10592
:102DE000B105F9F48091280A8823D9F06BE070E0EE
:102DF00080E090E00E946F0190932A0A8093290A54
:102E000040E050E0BA010E9438016BE070E080E0E1
:102E100090E00E946F0190932A0A8093290A0E94F1
:102E200004028091170A811114C081E08093170A6F
:102E30008091180A9091190AA0911A0AB0911B0A60
:102E40000197A105B10529F480911C0A81110C9408
:102E5000D604089560E070E080E89FE7089560E0A0
:102E600070E080E89FE7089560E070E080E89FEF01
:102E7000089560E070E080E89FEF089560E070E002
:102E800080EC9FEF089560E070E080EC9FEF089584
:102E9000F5DF6093430A7093440A8093450A909348
:102EA000460AF1DF6093370A7093380A8093390A33
:102EB00090933A0ACFDF60933F0A7093400A809361
:102EC000410A9093420ACBDF60933B0A70933C0A1D
:102ED00080933D0A90933E0AC7DF6093470A709340
:102EE000480A8093490A90934A0AC3DF60934B0AC9
:102EF00070934C0A80934D0A90934E0A0895CF9296
:102F0000DF92EF92FF92CF936B017C01AC019B01AA
:102F100060913F0A7091400A8091410A9091420A63
:102F20000E946E37C1E0882371F0A701960160917D
:102F3000470A7091480A8091490A90914A0A0E9472
:102F40006E378111C0E08C2FCF91FF90EF90DF9012
:102F5000CF9008950F931F938B019C010027112799
:102F600020783F770115110520483F4749F4AB0110
:102F7000BC016F77772781E0452B462B472B09F45F
:102F800080E01F910F910895E5CF4F925F926F926D
:102F90007F928F929F92AF92BF92CF92DF92EF92E9
:102FA000FF920F931F93F8944090390450903A0485
:102FB00060903B0470903C04C0902D04D0902E048F
:102FC000E0902F04F09030044130510509F0A4C086
:102FD0009B01AC01241935094609570929013A0119
:102FE0000091350410913604209137043091380453
:102FF00048015901840C951CA61CB71C801691062B
:10300000A206B306A0F4009131041091320420917D
:103010003304309134040F5F1F4F2F4F3F4F009305
:10302000310410933204209333043093340480929B
:10303000350490923604A0923704B092380400917F
:103040003104109132042091330430913404809281
:103050003D0490923E04A0923F04B092400400933D
:10306000410410934204209343043093440460933A
:10307000390470933A0480933B0490933C04A0E19C
:10308000B7E2A30192010E94AF416C0D7D1D8E1D20
:103090009F1D60932D0470932E0480932F049093B2
:1030A00030040091340210913502209136023091A3
:1030B00037020F3F1F4F2F4F3F4FF1F00091340267
:1030C0001091350220913602309137020E3F1F4F8A
:1030D0002F4F3F4F89F0C0903402D0903502E090DE
:1030E0003602F090370221E08C149D04AE04BF0438
:1030F00008F420E02093490478941F910F91FF90E9
:10310000EF90DF90CF90BF90AF909F908F907F9087
:103110006F905F904F9008954B015C018418950863
:10312000A608B708A3019201261B370B480B590BC1
:103130006415750586059705D0F082169306A406DA
:10314000B50640F420E030E0A90181149104A10407
:10315000B10491F4A0E1B7E20E94AF41A70196014A
:10316000261B370B480B590BCA01B901C5CF821674
:103170009306A406B50670F7A0E1B7E2A501940195
:103180000E94AF416C0D7D1D8E1D9F1DB5CFFDCEE4
:10319000CF93DF9300D01F92CDB7DEB71C821B8286
:1031A0001A82198210924504109246041092470424
:1031B00010924804BE016F5F7F4FCE0103960E94BC
:1031C000C53569817A818B819C810E94B32E0097DD
:1031D00061F4BE016F5F7F4FCE0103960E94D1352F
:1031E00069817A818B819C812FD50F900F900F90F0
:1031F0000F90DF91CF910895FF920F931F93CF937C
:10320000DF93082F60E070E0CB010E949F3BFF241A
:10321000F3940E949C2DEC01892B89F010E0CE3FA5
:103220008FEFD80769F0002361F160E070E0CB0117
:103230000E949F3B81E090E0892B59F322C011E06E
:1032400026D5EC01892B21F0CE3F8FEFD80759F717
:1032500011111EC011E0229609F410E00E944C2DBD
:10326000EC01892B21F0CE3F8FEFD807E1F6111149
:1032700011C011E0CE3F8FEFD80709F410E0011123
:103280000BC0CE01DF91CF911F910F91FF90089558
:1032900011E0E4CF11E0F3CF60E070E0CB010E94D9
:1032A0009F3B1F25812F90E0C7CFCF93DF93809165
:1032B0004904882321F060E070E0CB014DD636D67A
:1032C000D0E0C0E0892B71F06AE070E080E090E02F
:1032D0000E949F3B81E090DF29D62196C03D27E0E8
:1032E000D20781F728D60E94072F1092610410920E
:1032F000600410925A0410925B0410925C041092C5
:103300005D041092560410925704109258041092C3
:1033100059041092520410925304109254041092C3
:10332000550410924E0410924F04109250041092C3
:10333000510410924A0410924B0410924C041092C3
:103340004D044EEF5FEF6FEF7FEF409334025093E9
:103350003502609336027093370210924904EDE310
:10336000F4E028E0DF011D922A95E9F71092390474
:1033700010923A0410923B0410923C0410923504CF
:1033800010923604109237041092380410923104CF
:1033900010923204109233041092340410922D04CF
:1033A00010922E0410922F0410923004DF91CF91CE
:1033B000089510926D0410926E0410926F04109292
:1033C000700410926C04809175049091760490932F
:1033D0006B0480936A04109269041092680410923E
:1033E00064041092650410926604109267041092AF
:1033F00072041092710490E080E00895CF92DF9201
:10340000EF92FF920F931F93CF938C01019709F0D6
:1034100055C0209175043091760480916A04909192
:103420006B04409175045091760450936B04409363
:103430006A042817390781F0109269041092680411
:10344000109264041092650410926604109267044E
:103450001092720410927104809175049091760418
:10346000019761F58091710490917204892B21F488
:1034700080913802811112C0809171049091720480
:103480000197E1F48091640490916504A091660431
:10349000B09167040197A105B10581F4109264040D
:1034A000109265041092660410926704109238021C
:1034B00082E090E09093720480937104809175048F
:1034C00090917604019709F01CC180918B04909132
:1034D0008C048017910709F014C1809187049091A2
:1034E0008804A0918904B0918A04009709F409C165
:1034F0002091860421110DC04091870450918804C9
:103500006091890470918A04452B462B472B09F45E
:10351000F8C020917104309172042230310509F015
:10352000F0C0209168042111ECC0FC01C080D18062
:10353000E280F38080916C04882309F4D3C08091E9
:10354000780490917904892B09F4FEC020917804C5
:103550003091790481E02230310509F080E020913A
:10356000780430917904C1E02130310549F020918F
:10357000780430917904C1E02230310509F0C0E0CF
:10358000882309F456C0209182043091830440912D
:10359000840450918504C701B6010E94DF3887FD7D
:1035A00014C020918204309183044091840450918E
:1035B000850460916D0470916E0480916F04909108
:1035C00070040E946E3787FD22C0209182043091E2
:1035D00083044091840450918504C701B6010E9480
:1035E000DF38181634F5209182043091830440911D
:1035F00084045091850460916D0470916E048091F3
:103600006F04909170040E946E37811112C08091F6
:103610007A0490917B04A0917C04B0917D04892B65
:103620008A2B8B2B19F481E08093690481E08093CD
:103630006804CC2309F456C020918204309183049D
:103640004091840450918504C701B6010E946E37F1
:1036500087FF14C020918204309183044091840438
:103660005091850460916D0470916E0480916F0497
:10367000909170040E94DF3887FF22C0209182045D
:10368000309183044091840450918504C701B601B0
:103690000E946E37811126C02091820430918304EC
:1036A000409184045091850460916D0470916E0482
:1036B00080916F04909170040E94DF38181694F482
:1036C00080917A0490917B04A0917C04B0917D0458
:1036D000892B8A2B8B2B19F481E08093690481E07C
:1036E0008093680481E090916804911180E0809358
:1036F0006C04C0926D04D0926E04E0926F04F0925C
:1037000070040130110509F067C180917104909136
:103710007204892BD9F41092770410926804809176
:103720003802882379F082E090E0909372048093CD
:10373000710410923802209175043091760481E072
:10374000232BE9F080E01BC081E009CF1092380202
:1037500080917704882349F01092690410927204D2
:103760001092710410927704EDCF809175049091BE
:103770007604892BE1F0809168041092680420910E
:103780007104309172042230310509F45EC088F46E
:103790002115310509F448C02130310509F4F3C081
:1037A00010926904109268041092770438C081E086
:1037B000E6CF2330310509F4B1C02430310581F75B
:1037C00040916404509165046091660470916704AF
:1037D000411551056105710561F0415051096109BB
:1037E0007109409364045093650460936604709378
:1037F000670440916404509165046091660470917F
:103800006704452B462B472BD9F420917304309144
:1038100074042130310509F046C0109269041092F9
:103820007204109271040CC080913802882341F018
:1038300082E090E0909372048093710410923802B9
:103840001092620480916904CEC08823C9F38091EC
:103850007A0490917B04A0917C04B0917D041816A9
:1038600019061A061B060CF07DC080917504909114
:103870007604019709F076C080917A0490917B04D8
:10388000A0917C04B0917D048093640490936504BE
:10389000A0936604B093670483E090E09093720471
:1038A00080937104CDCF40917E0450917F0460914C
:1038B000800470918104452B462B472BA9F0109270
:1038C000690480917E0490917F04A0918004B0915E
:1038D00081048093640490936504A0936604B0937C
:1038E000670481E090E0DACF882399F08091390273
:1038F00090913A02A0913B02B0913C028093640403
:1039000090936504A0936604B093670484E090E00C
:10391000C5CF1092690482E090E0C0CF809164042A
:1039200090916504A0916604B09167040097A10589
:10393000B10559F00197A109B109809364049093EE
:103940006504A0936604B093670480916404909129
:103950006504A0916604B0916704892B8A2B8B2B98
:1039600009F06ECF8091390290913A02A0913B020A
:10397000B0913C02892B8A2B8B2B09F44ECF81E02E
:1039800080936904B3CF40916404509165046091C1
:10399000660470916704411551056105710561F078
:1039A00041505109610971094093640450936504C1
:1039B00060936604709367044091640450916504B9
:1039C0006091660470916704452B462B472B09F0E4
:1039D00037CF8111C7CF9FCF80916204882309F42C
:1039E00031CF80916304CF911F910F91FF90EF90A1
:1039F000DF90CF90089510926D0410926E04109293
:103A00006F041092700410926C0410927204109261
:103A1000710410926B0410926A0410928C0410923C
:103A20008B0410926904109268041092640410923E
:103A30006504109266041092670410926304109259
:103A400062041092870410928804109289041092E4
:103A50008A041092860410928204109283041092B9
:103A600084041092850488EE93E0A0E0B0E0809397
:103A7000390290933A02A0933B02B0933C02109219
:103A80007E0410927F0410928004109281041092A0
:103A90007A0410927B0410927C0410927D041092A0
:103AA00079041092780481E08093380210927704B0
:103AB000109276041092750410927404109273049C
:103AC00090E080E008958091750490917604892BB0
:103AD00019F580913802882351F080917704811183
:103AE00006C081E08093630480936204089520916E
:103AF00077043091380281E090E0332311F090E0B8
:103B000080E030E082239323892B21F0109263041C
:103B100081E0EACF10926204089582E090E0FA0119
:103B2000918380838FEF9FEF0895CF93DF93EA0116
:103B3000009711F00E9427301982188290E080E0EF
:103B4000DF91CF910895DB01009719F48FEF8C93EB
:103B500008952EEF2C93FC013F96EF30F10508F00D
:103B600034C08827E954F24E8F4F0C94A741E31DCF
:103B7000E11DDF1DDD1DDB1DD71DD91DD51DD31D8D
:103B8000D11DCE1DCA1DC61DCC1DE51D80E311969D
:103B90008C93089589E2FBCF82E2F9CF11961C92B3
:103BA000089583E2F4CF81E2F2CF81E1F0CF87E2A2
:103BB000EECF8AE2ECCF80E1EACF84E2E8CF88E280
:103BC000E6CF86E2E4CF81E3E2CF80E2E0CF8091EE
:103BD000990490919A04089590939A04809399047B
:103BE000089580919804089590919804892B80936A
:103BF00098040895982F9095809198048923809334
:103C00009804089580919704089580919504909167
:103C1000960408956115710559F0FB0130E020E02C
:103C200070E060E02417350719F06115710511F097
:103C3000CB010895A081B181A817B90709F4BF018C
:103C40002F5F3F4F3696EECF80919B0481111CC0B1
:103C500060D266D290938E0480938D040E942528B2
:103C60000E94372890939204809391040E94B42C70
:103C70000E94BB2C9093900480938F0481E08093EA
:103C80009B0490E080E0089584EF9FEF08958F9269
:103C90009F92AF92BF92CF92DF92EF92FF920F93DB
:103CA0001F93CF93DF9300D000D000D01F92CDB7E9
:103CB000DEB71A86198618861F821E821D821C8214
:103CC0001B821A82198280919B0407EF1FEF8823C1
:103CD00009F49CC08E010D5F1F4F9E012B5F3F4F6B
:103CE000AE01495F5F4FBE01675F7F4F90E080E0AC
:103CF0000E94382E8C01009721F00596029708F05B
:103D0000DBC029853A852115310509F402C1ED8012
:103D1000FE804B815C81B701640F751F8F81988590
:103D20008617970708F4F5C0E20EF31ED7019C91A1
:103D3000903C09F07FC04230510508F47BC01196D9
:103D40008C914091990450919A04452B09F49CC0A0
:103D5000913F08F071C02CE1290F2D3008F48BC081
:103D60002DE2290F203108F489C0903C21F48150C4
:103D7000823008F483C088E3890F8B3008F481C057
:103D800093EAC92E9DE1D92EEDE8FDE16D817E819A
:103D9000AE014F5F5F4F89859A8519955C01C1140B
:103DA000D104A1F189809A808114910479F18B81E9
:103DB0009C818815990508F487C010E000E04B81CC
:103DC0005C8170E060E0C7010E94D14101151105DE
:103DD000E9F449815A8169857A858D819E81680FD0
:103DE000791FC501F6011995E980FA800D811E81C0
:103DF0002F81388549855A856FEF7FEF81E090E00C
:103E00000E94D32D8C01892B09F056C0C8012A9637
:103E10000FB6F894DEBF0FBECDBFDF91CF911F91DB
:103E20000F91FF90EF90DF90CF90BF90AF909F9059
:103E30008F90089580E085CF30E020E0220F331F7F
:103E4000F901E357FB4F0190F081E02D309709F421
:103E500097CF892F90E01995009709F491CFDC0155
:103E60001296ED91FC9113971496CD90DC903097BB
:103E700009F08CCF1FC021E030E0E0CF22E030E03D
:103E8000DDCF23E030E0DACFD12CC12CE5E9FDE134
:103E90009F3F09F07BCFE0918D04F0918E04309725
:103EA00021F4C90104EF1FEF0CC08FEF90E01995CA
:103EB0000097A9F604EF1FEF89859A85009709F40A
:103EC000A5CF0E942730A2CF0E94022F8C018985A6
:103ED0009A850E94273070E060E0C4010E949B2E0A
:103EE00098878F830E94D02D9E838D836F817885E4
:103EF0006115710559F0C8010E94B3319A8789870D
:103F000006EF1FEF892B09F058CF59CF08EF1FEFAD
:103F100056CF08EF1FEFD0CF20919B04222319F03A
:103F200020E00C943C2887EF9FEF0895809199043E
:103F300090919A0408950E94C02C0E941A2CF5D0EA
:103F4000EDE8F4E088E0DF011D928A95E9F7109230
:103F50009B0490E080E008950C94782A21E040E0F2
:103F600050E0BA010C943C2886E090E0FA0191837D
:103F7000808390E080E0089547E050E06AE972E0D5
:103F800049CEDF92EF92FF920F931F93CF93DF936F
:103F90008A01EC01C60FD71FE0909F04F090A004A7
:103FA000D9800E94EA2ED816190678F082E090E0B7
:103FB000F801918380838EEF9FEFDF91CF911F9166
:103FC0000F91FF90EF90DF900895EF2841F482E089
:103FD00090E0F8019183808384EF9FEFEECF898199
:103FE00080939E0490E00196F8019183808390E095
:103FF00080E0E3CFCF93DF93EA010E94292B88234F
:1040000021F00E94F72E0E942A2B82E090E09983F3
:1040100088838BEF9FEFDF91CF910895CF93DF934C
:10402000EB0186E0FB0111928A95E9F78FEF888317
:10403000D8DD8983E7DD8A83E8DD9D838C83DF918A
:10404000CF910895CF93DF93EA010E942C2B811129
:1040500009C082E090E09983888385EF9FEFDF912C
:10406000CF91089590E080E0B7DD81E090E0998302
:10407000888390E080E0F3CF0F931F93CF93DF937B
:10408000EA018C01060F171F0E942C2B81110BC017
:1040900082E090E09983888385EF9FEFDF91CF9155
:1040A0001F910F910895F8018181823038F082E0EC
:1040B00090E0998388838EEF9FEFF0CF81E090E0CE
:1040C0008BDD88E090E09983888390E080E0E6CF04
:1040D000CF93DF930097D1F4EB01FB01329686E09A
:1040E000DF011D928A95E9F78FEF888385E0898348
:1040F0001A820E94EA2E8B830E94E92E9D838C8374
:1041000081E08E838F83DF91CF910895DF91CF91EE
:104110001ACD8CEB9FE190939D0480939C040895AD
:1041200080919C0490919D04089510929D0410929A
:104130009C04089580919F049091A00408954111DA
:1041400005C0611571058105910561F060939F04BB
:104150007093A0048093A1049093A2044093A304BD
:1041600081E0089580E00895FF920F931F93CF930D
:10417000DF938A01EC01C60FD71FF9800E94EA2E57
:10418000F816190668F082E090E0F80191838083C8
:104190008EEF9FEFDF91CF911F910F91FF900895C8
:1041A0006C817D818E819F814B81C9DF811108C027
:1041B00082E090E0F8019183808384EF9FEFEACF63
:1041C000898180939E0490E00196F8019183808319
:1041D00090E080E0DFCFCF93DF93EA01FC01E60FB0
:1041E000F71F64817581868197814381A8DF8111E2
:1041F00009C082E090E09983888384EF9FEFDF918C
:10420000CF91089581E090E09983888390E080E0E9
:10421000F6CFEFE9F4E04081518162817381480F6C
:10422000511D611D711D4083518362837383089505
:10423000CF93C0919E044C2F50E060919F047091E9
:10424000A00401960E94C8418C2FE3DF10929E04C7
:10425000CF910895009799F480919F049091A004C4
:104260002FEFFB012083892B59F020919E0430E031
:104270002F5F3F4F2417350719F4CB01D9CF63CCFB
:104280000895009799F480919F049091A0042FEFD6
:10429000FB012083892B59F020919E0430E02F5F91
:1042A0003F4F2417350719F4CB01C2CF4CCC0895EA
:1042B00023E1AC01249FC001259F900D1124E091C2
:1042C000A804F091A904E80FF91F2381348122503A
:1042D000310981E02230310508F080E008950F9324
:1042E0001F93CF93DF930091AA041091AB04D0E009
:1042F000C0E080E00C171D0749F491E0811190E0C7
:10430000892FDF91CF911F910F9108958111F5CFE2
:10431000CE01CEDF2196EECFA091A804B091A904E2
:10432000109729F12091AA043091AB0482179307CA
:10433000F0F453E1589F9001599F300D1124A20FC2
:10434000B31FED91FC911197309789F012968C91E3
:10435000681768F48DE0689FE00DF11D11248081DD
:104360009181892B21F081E09281491708F080E04A
:1043700008959C0143E1429FC001439F900D112489
:10438000E091A804F091A904E80FF91F8385823019
:1043900091F481E090E06581768140913D025091F9
:1043A0003E026417750711F490E080E0892B19F044
:1043B00081E0232B09F080E00895FC01A081B18108
:1043C0008DE0689FA00DB11D112413964D915C9155
:1043D00085859685489F9001499F300D589F300DE7
:1043E0001124C9010196611103C0478144FD04965F
:1043F0000895EF92FF920F931F93CF93DF93EA01FB
:10440000FC01E60FF71F02811381E480F5804F2D38
:104410006E2DC80181DF81110DC082E090E099838B
:1044200088838EEF9FEFDF91CF911F910F91FF90C7
:10443000EF900895C8013CDF882339F082E090E0D6
:104440009983888388EF9FEFEECF10934402009307
:104450004302E0924502F092460281E090E09983A7
:10446000888390E080E0DFCFCF92DF92EF92FF92DF
:104470000F931F93CF93DF937A01EC01C60FD71FE1
:10448000C0904302D0904402009145021091460230
:10449000412F602FC60140DF811110C082E090E003
:1044A000F701918380838AEF9FEFDF91CF911F9176
:1044B0000F91FF90EF90DF90CF900895C601F8DE46
:1044C000882341F082E090E0F7019183808388EFB8
:1044D0009FEFEBCF4C815D816E817F819A818981D5
:1044E0008F3F41F082E090E0F701918380838EEF6F
:1044F0009FEFDBCFE3E1EC9D9001ED9D300D1124AA
:10450000E091A804F091A904E20FF31F0190F0815B
:10451000E02D2DE0029FE00DF11D11240190F081AE
:10452000E02D27E0129FE00DF11D1124808391837F
:104530008B81828343835483658376831F5F1093CB
:10454000460281E090E0F7019183808390E080E073
:10455000ACCFEF92FF920F931F93CF93DF937A012B
:104560008C01060F171FC091A804D091A9042097B1
:1045700081F021E030E0F801828193814091AA042A
:104580005091AB048417950710F030E020E0232B06
:1045900071F482E090E0F701918380838EEF9FEFCA
:1045A000DF91CF911F910F91FF90EF90089543E11C
:1045B000489F9001499F300D1124C20FD31F78DE10
:1045C000882341F082E090E0F7019183808388EFB7
:1045D0009FEFE6CFF8012481358120383105C8F6F8
:1045E00087818111D6CF4181842F90E08F7E009703
:1045F00041F082E090E0F7019183808386EF9FEFA6
:10460000CFCF4F833E832D83268128871986223082
:1046100010F421E0288721E030E0F7013183208386
:10462000BFCF88E090E0FA019183808390E080E042
:104630000895FB018FEF808381E181838FEF9FEFEE
:104640009383828380E890E0958384831682178227
:104650000895FB018FEF808391E0918382839383A0
:10466000848384E3858381E090E097838683089543
:10467000DF92EF92FF920F931F93CF93DF93EA01A4
:10468000FC01E60FF71F8181813071F082E090E03C
:10469000998388838FEF9FEFDF91CF911F910F91C7
:1046A000FF90EF90DF90089582819381D4802581DF
:1046B000E680F7800091A8041091A9040115110566
:1046C00039F482E090E0998388838CEF9FEFE4CF08
:1046D0004091AA045091AB048417950738F082E00A
:1046E00090E0998388838EEF9FEFD6CF892B39F0A6
:1046F00082E090E09983888386EF9FEFCDCF8D2D68
:104700008D7FB1F72130A1F781E0D11006C091E093
:10471000E916F10431F080E004C0E2E0EE16F104A5
:10472000D0F3882329F390E080E0C2DD882339F0BC
:1047300082E090E09983888388EF9FEFADCFF80106
:10474000D38681E08487F686E586108A178681E025
:1047500090E09983888390E080E09ECF4CE050E029
:1047600064EC72E057CA8F929F92BF92CF92DF9211
:10477000EF92FF920F931F93CF93DF93EA01FC0117
:10478000E60FF71F828193810481B580E091A80430
:10479000F091A904309791F482E090E099838883A6
:1047A0008CEF9FEFDF91CF911F910F91FF90EF90D2
:1047B000DF90CF90BF909F908F9008952091AA0492
:1047C0003091AB048217930738F082E090E0998330
:1047D00088838EEF9FEFE6CF23E1289F6001299F1A
:1047E000D00C1124EC0DFD1DE080F180E114F104EA
:1047F00099F28281081748F78DE0089F8001112403
:10480000E00EF11EF70180819181892B29F6BB20F2
:10481000E1F2F7E0BF9E40011124C4010E94EE2F97
:10482000F70191838083E091A804F091A904EC0D35
:10483000FD1D0190F081E02DE00FF11F808191813D
:10484000009739F482E090E0998388838DEF9FEFA1
:10485000A9CFA40170E060E00E94D1418091A8043A
:104860009091A904C80ED91EF60180819181080F8C
:10487000191FF801B28281E090E09983888390E06B
:1048800080E090CFAF92BF92CF92DF92FF920F93D2
:104890001F93CF93DF93EA01FC01E60FF71F82819C
:1048A0009381F4800091A8041091A90401151105C9
:1048B00081F482E090E0998388838CEF9FEFDF9111
:1048C000CF911F910F91FF90DF90CF90BF90AF904D
:1048D00008952091AA043091AB048217930738F011
:1048E00082E090E0998388838EEF9FEFE8CF2FEFEF
:1048F0002F0D2C3FA8F723E1289F6001299FD00CA2
:1049000011240C0D1D1DF80180819181892B89F6E0
:10491000FDE0FF9E50011124C5010E94EE2FF80119
:1049200091838083E091A804F091A904EC0DFD1D12
:1049300080819181009739F482E090E099838883A7
:104940008DEF9FEFBCCFA50170E060E00E94D141E8
:10495000E091A804F091A904EC0DFD1DF28281E024
:1049600090E09983888390E080E0A9CFCF92DF9296
:10497000EF92FF920F931F93CF93DF93860F971FB2
:10498000FC01028113818091A8049091A904892BD4
:1049900081F082E090E0FA01918380838CEF9FEFB9
:1049A000DF91CF911F910F91FF90EF90DF90CF900B
:1049B0000895C801B0E0A0E00197A109B1098F3FB7
:1049C0009F4FA105B10540F082E090E0FA0191838C
:1049D00080838EEF9FEFE4CF7A0183E1809F6001B7
:1049E000819FD00C1124C6010E94EE2FEC0100978C
:1049F00041F482E090E0F701918380838DEF9FEF97
:104A0000CFCFA60170E060E00E94D141D093A9040D
:104A1000C093A8041093AB040093AA0490E080E034
:104A20002FEF3FEF41E061E070E08017910741F424
:104A300081E090E0F7019183808390E080E0B0CF47
:104A40003A8B298B1B864C877E876D87188A1F8639
:104A500001966396EACFEF92FF921F93CF93DF9375
:104A6000EC0110E0F12CE12C6A811617B0F083E024
:104A7000689FB0011124AE014F5E5F4FC7010E94D5
:104A80005330009721F02FEF3FEF3A8B298BDF91C6
:104A9000CF911F91FF90EF900895612FCE018DDC93
:104AA00061E070E00E949B2EE816F90608F47C0194
:104AB0001F5FDACFF8942091A6043091A70481E01B
:104AC0002115310509F080E0232B09F07894089531
:104AD0002F923F924F925F926F927F928F929F920E
:104AE000AF92BF92CF92DF92EF92FF920F931F93FC
:104AF000CF93DF933C01660E771EF3018281938191
:104B00004C01B12CA12CC091A804D091A9042097EC
:104B100069F021E030E06091AA047091AB0486173F
:104B2000970710F030E020E0232BD1F482E090E0F2
:104B3000FA01918380838EEF9FEFDF91CF911F91D8
:104B40000F91FF90EF90DF90CF90BF90AF909F902C
:104B50008F907F906F905F904F903F902F9008952F
:104B60008092470290924802A0924902B0924A0273
:104B700063E1689F9001699F300D1124C20FD31F1C
:104B8000F3018181833040F082E090E0FA0191836B
:104B9000808386EF9FEFD1CF2A012B813C81232B8D
:104BA000F1F4288139819F8191FF2EC0232B09F4D4
:104BB0006FC02091AD049A81422F490F5527551F90
:104BC000BA0141E050E06138710514F050E040E076
:104BD000452B09F45DC02A87920F9093AD04815054
:104BE000823008F481C066DF882309F4D8C0F3015D
:104BF0008181813009F48DC008F47BC0823009F4D2
:104C0000C6C090E080E0ADC0232B09F441C02091E4
:104C1000AC049A81E22FE90FFF27FF1F41E050E02B
:104C2000ED3FF10514F050E040E0452B89F12A8773
:104C3000920F9093AC04D3CFA081B181A20FB31F88
:104C400011966C91060F111D0196295F3F4F841735
:104C5000950794F38D859E85089F1001099F300C60
:104C6000189F300C1124C114D104D1F48F8184FF1A
:104C700017C00E94E92EF5E02F0E311C21E08215AD
:104C8000930508F420E0A701435F5F4F21110EC098
:104C900082E090E0F2019183808387EF9FEF4DCF18
:104CA0000E94E92E2FEF221A320AE8CF88819981DB
:104CB000E80EF91EF70114830383FFEFCF1ADF0A12
:104CC0007A018A818C151D0409F00CF48CCFE881DF
:104CD000F981EE0DFF1D428150E030E020E010E050
:104CE00000E090E080E0B3CFF12CE12CD12CC12C7E
:104CF000E8CF81E090E09C838B83F1DA882309F48C
:104D000080CF81E090E00E94EC1D80E40E94FA1DBB
:104D100078CF89899A89019661F083E090E09C833D
:104D20008B8382E090E00E94EC1D80E40E94F41DE1
:104D300068CF8D819E8120913D0230913E02821785
:104D40009307D1F46091410270914202AE014F5E2F
:104D50005F4F80913F02909140020E947231009714
:104D6000E1F2789422E030E0F20131832083892B54
:104D700099F08DEF9FEFE1CE89288A288B2869F67C
:104D8000029758F6CE0167DE188A1F86E8CF82E0C8
:104D900090E09C838B8335CF90E080E0CECE82E0A4
:104DA00090E0F2019183808385EF9FEFC6CE8F92D2
:104DB0009F92AF92BF92CF92DF92EF92FF920F93AA
:104DC0001F93CF93DF93EA018C01060F171FF801A1
:104DD0008181833098F082E090E09983888386EF28
:104DE0009FEFDF91CF911F910F91FF90EF90DF9098
:104DF000CF90BF90AF909F908F9008958091A8041E
:104E00009091A904892B61F081E090E02091AA049F
:104E10003091AB04232B11F490E080E0892B39F41E
:104E200082E090E0998388838EEF9FEFDACF42DEB5
:104E3000882309F4E0C0F8018181813009F496C02B
:104E4000E8F0823099F42091AA043091AB04E0910B
:104E5000A804F091A90490E080E041E050E0281718
:104E6000390709F0BEC03BDA811117C0789481E0A0
:104E700090E09983888390E080E0B3CF2091AA04EA
:104E80003091AB04E091A804F091A90490E080E097
:104E900041E050E02817390741F481E090E00E949A
:104EA000EC1D80E40E94FA1DE1CF63817481672BC1
:104EB00011F05483438301967396ECCFE091A804DC
:104EC000F091A904E00FF11F2381348122303105D4
:104ED000D9F4218932892F3F3F4FB1F425813681A2
:104EE00040913D0250913E022417350761F5AF0114
:104EF0004F5E5F4F609141027091420280913F028C
:104F0000909140020E947231EFEFCE1ADE0AEE0A53
:104F1000FE0A0D5E1F4F4091AA045091AB0470E051
:104F200060E0C416D506E606F70644F5009731F2B0
:104F30007894892B09F49BCF82E090E09983888351
:104F40008DEF9FEF4ECFC114D104E104F104E1F6DF
:104F500022303105C8F6CF017EDDE091A804F09142
:104F6000A904E00FF11F108A1786CECF10E000E0F1
:104F700090E080E0C12CD12C7601CDCF0097C1F616
:104F800010E000E0812C912C540183E0E82EF12CFC
:104F90001AC0E091A804F091A904E00FF11F8381E9
:104FA0009481029749F4F482E38282E090E00E94C7
:104FB000EC1D80E40E94F41DFFEF8F1A9F0AAF0AD8
:104FC000BF0A0D5E1F4F8091AA049091AB04B0E020
:104FD000A0E088169906AA06BB06DCF290E080E005
:104FE000A7CF638174816230710511F454834383C8
:104FF0000196739634CF82E090E09983888385EFA1
:105000009FEFEFCE0097B9F48FEFFB0180832091E3
:1050100047023091480243E1429FC001439F900DF7
:105020001124E091A804F091A904E80FF91F8285EA
:10503000FB01818308950C94A31D88E090E0FA01A0
:105040009183808390E080E008951092A7041092ED
:10505000A604E8EAF4E086E0DF011D928A95E9F70C
:105060008EEA93E29093A5048093A404089580911E
:10507000A4049091A50408952F923F924F925F92BD
:105080006F927F928F929F92AF92BF92CF92DF9258
:10509000EF92FF920F931F93CF93DF93CDB7DEB7BD
:1050A0002F970FB6F894DEBF0FBECDBFF894E091F6
:1050B000A604F091A7043196F093A704E093A60408
:1050C00078944090A8045090A9044114510409F424
:1050D0000CC2E091AA04F091AB04EF2B09F405C2D5
:1050E0002D8749875A876B877C8798878F83120122
:1050F000B12CA12C10E000E08091AA049091AB04A7
:10510000A816B90618F40115110529F1F894809133
:10511000A6049091A70401979093A7048093A604F6
:105120007894C8012F960FB6F894DEBF0FBECDBF9E
:10513000DF91CF911F910F91FF90EF90DF90CF9073
:10514000BF90AF909F908F907F906F905F904F90A7
:105150003F902F9008957101E418F508D10117963A
:105160008C91179781FD54C013968D919C91149743
:10517000039709F04DC015968D919C91EF81F885AC
:105180008E179F0709F044C0B50190E080E07FD4FE
:105190008A832091A8043091A9043D832C833D8506
:1051A000332309F44CC04C815D81452B09F49AC12D
:1051B0008091AA049091AB04A816B90608F092C198
:1051C000C501D7D88823E9F06C817D816E0D7F1DE4
:1051D0007D836C83DB011F968D919C91892B89F0D7
:1051E000D12CC12CF12CE12CAC81BD8112968C917B
:1051F00012978E151F0409F094F450961C921E927B
:105200001F972A81222321F0B50190E080E041D44C
:105210003FEFA31AB30A43E1240E311C6DCFAC81DA
:10522000BD81ED91FC91EC0DFD1D858196810FD71F
:10523000BFEFEB1AFB0AEDE0CE0ED11CD5CFEC810F
:10524000FD81309709F44EC18091AA049091AB047E
:10525000A816B90608F046C1EE0DFF1DFF87EE87C0
:10526000C50187D88B83882339F1AE85BF851F960A
:105270008D919C915097019621E01D964D915C91E6
:105280008417950709F020E02E831982712C10E015
:1052900000E0AE85BF8512968C91781608F45DC04B
:1052A000EE85FF85878590890196658576850E94C4
:1052B0007141908B8787A5CFB1E0BE83E6CF99245B
:1052C00093946BC08BD6F6019683858382C0D601FA
:1052D000ED90FC90B7E06B9EE00CF11C1124F701FF
:1052E0006381748180818F3F61F121E030E002C0F1
:1052F000220F331F8A95E2F7C901092E000CAA0B71
:10530000BB0BFB0140815181628173818423952312
:10531000A623B72321E0892B8A2B8B2B09F420E0CD
:10532000D4012C93D70111968C91F60123853485F5
:10533000820F932F911D880E991E148613866394F5
:105340009BC0418150E0C4010E94C841EBCF9982CB
:1053500006EF1FEFC5C01982C3C0F981F111A0CFBC
:10536000EDE07E9E70011124AE85BF85CD90DC906E
:10537000CE0CDF1C15D49D838C83BB81BB2309F429
:105380009ECF81E0EE85FF8527853089232B09F0AC
:1053900080E0982E882309F458C0672D8E859F855C
:1053A0000CD8D60118969C938E93179761E070E005
:1053B000C2D4EE85FF85218932892F3F320709F457
:1053C00081CFBC01C901CFD7D60116969C938E938D
:1053D0001597D60115968D919C911697009709F413
:1053E000B6CFEC81FD818E0F9F1F1A969C938E93F2
:1053F0001997AE85BF85ED91FC911197EE0EFF1EBA
:10540000F70121853285148613861A968C91870DB3
:10541000D9018D93711016C0EE85FF85878184FFB9
:1054200011C049855A856B857C85F901418352837A
:1054300063837483F701838594850496A80FB91F4D
:1054400014861386F701B287A187D60115968D9130
:105450009C911697892B09F443C0EE85FF85258121
:10546000368180913D0290913E022817390779F0EC
:1054700019968D909C90612CD60112968C91129762
:10548000681608F424CF1A969C928E921997BE81C2
:10549000BB2309F460CF61E070E0F601878190855D
:1054A0004AD4D6011796ED90FC90189715964D9119
:1054B0005C91E1E0F0E0BA81BB2311F0F0E0E0E0C4
:1054C0000C811D819C01B501882799278E1B9F0B9C
:1054D0006AD38C01892B21F0F60185819681B7D59D
:1054E0007394D7CE0FEF1FEF8CCE10E000E00ECEFE
:1054F0002F923F924F925F926F927F928F929F92E4
:10550000AF92BF92CF92DF92EF92FF920F931F93D1
:10551000CF93DF938091A8049091A90410E000E05C
:10552000892BA9F0C7DA0AEF1FEF882381F02090BA
:10553000AA043090AB04C091A804D091A904D12C46
:10554000C12C10E000E02C143D04A9F47894C801AB
:10555000DF91CF911F910F91FF90EF90DF90CF904F
:10556000BF90AF909F908F907F906F905F904F9083
:105570003F902F900895C6010E94B921882309F118
:105580008B819C810397E9F48F859889892BC9F0D9
:10559000B60190E080E07BD221E030E0882311F07A
:1055A00030E020E044245524421A530AB12CA12CA7
:1055B000912C812C8A818815190409F038F4188AF5
:1055C0001F864FEFC41AD40A6396BDCFE881F981D4
:1055D000EA0DFB1D85819681892BA1F161E070E0C8
:1055E00087819085A8D33C01DBD28C01E881F981C9
:1055F000EA0DFB1D8185928525813681200F311FA3
:10560000AC01421B530B9A0147815085421B530B3F
:1056100070E060E00E94D141E881F981EA0DFB1D54
:10562000E780F084458156819301B601C201BBD267
:105630008C01892B39F0E881F981EA0DFB1D858108
:10564000968105D55FEF851A950A8DE0A80EB11CED
:10565000B1CF30CA789408952F923F924F925F92C3
:105660006F927F929F92AF92BF92CF92DF92EF9212
:10567000FF920F931F93CF93DF9300D000D0CDB74D
:10568000DEB70091A8041091A90499249394011500
:10569000110509F43EC0A090AA04B090AB040ADA48
:1056A000982E8823B1F11092A9041092A8041092A8
:1056B000AB041092AA041092AC041092AD048FEFC8
:1056C0009FEFDC018093470290934802A093490228
:1056D000B0934A0278947FD31E830D83C12CD12CC2
:1056E0007601C501B0E0A0E089839A83AB83BC83D7
:1056F00022242A94322C89819A81AB81BC81C816DC
:10570000D906EA06FB06F4F0C801A1D480E40E94A1
:10571000FA1D892D26960FB6F894DEBF0FBECDBFB9
:10572000DF91CF911F910F91FF90EF90DF90CF907D
:10573000BF90AF909F907F906F905F904F903F9001
:105740002F900895AD81BE8115968D919C911697ED
:1057500020913D0230913E0282179307D1F4519679
:105760008D919C91EED5ED81FE8180819181B12C4E
:10577000A12C412C512C3201892B89F5BFEFCB1A7A
:10578000DB0AEB0AFB0AED81FE817396FE83ED8353
:10579000B2CFC114D104E104F10429F7029718F73C
:1057A000ED81FE81818992898F3F980709F029D583
:1057B000AD81BE8152963C922E925197D4CF8A0DE4
:1057C0009B1DDC018D919C91009709F040D4BFEFA7
:1057D0004B1A5B0A6B0A7B0AEDE0AE0EB11CAD8181
:1057E000BE818D919C91119712964C9150E070E082
:1057F00060E044165506660677060CF328D4BECF43
:10580000CF93DF93EA0128DF811109C082E090E0A5
:105810009983888385EF9FEFDF91CF91089581E091
:1058200090E00E94EC1D81E090E09983888390E0F5
:1058300080E0F2CF11DF1092A5041092A404089525
:1058400042E050E06CE073E00C940A1EFF920F936C
:105850001F93CF93DF938A01EC01C60FD71FF98006
:10586000B9D20897F816190671F068F082E090E056
:10587000F801918380838EEF9FEFDF91CF911F918D
:105880000F91FF9008956C817D818E819F814B8166
:105890000E949F20811108C082E090E0F80191836E
:1058A000808384EF9FEFE9CFF9800E949A204F2DEB
:1058B00050E0BE01685F7F4F0E94C84189810E940D
:1058C000092181E090E0F8019183808390E080E0FD
:1058D000D4CFDF92EF92FF920F931F93CF93DF937A
:1058E0008A01EC01C60FD71F0E949A207C01D98043
:1058F00071D2DD2059F0029721E030E0D816190668
:1059000019F010F030E020E0232B79F482E090E0F1
:10591000F801918380838EEF9FEFDF91CF911F91EC
:105920000F91FF90EF90DF900895EF2841F482E00F
:1059300090E0F8019183808384EF9FEFEECFF980B0
:105940000E949A204F2D50E0BE016E5F7F4F0E9453
:10595000C84189810E94092181E090E0F80191838A
:10596000808390E080E0D9CF80E29CE29093AF0406
:105970008093AE0408958091AE049091AF04089591
:105980000895FC0111821082938382830895DB01C4
:105990001D921C92DC011296ED91FC91139771837C
:1059A000608313967C936E9312970895FC01808117
:1059B0009181DB018D939C93A081B181109741F07F
:1059C0008D919C9191838083892B11F4F383E283E1
:1059D0000895FC0180819181DB018D939C93892B3B
:1059E00011F473836283718360830895FC011182D3
:1059F0001082938382830895CF93DF931F921F9227
:105A0000CDB7DEB71A821982F894BE016F5F7F4F5F
:105A100085EB94E0CBDF89819A81009709F017D359
:105A200089819A81892B89F7BE016F5F7F4F89EB4E
:105A300094E0BCDF89819A81009709F008D38981BD
:105A40009A81892B89F778940F900F90DF91CF91ED
:105A50000895CF93DF931F921F92CDB7DEB71A82BE
:105A60001982F894BE016F5F7F4F81EB94E09EDF57
:105A700089819A81009709F0EAD289819A81892BDC
:105A800089F778940F900F90DF91CF91089581E07E
:105A9000089590E080E00895EF92FF920F931F9396
:105AA000CF93DF931F921F92CDB7DEB71A82198270
:105AB0008091B00407EF1FEF8823A1F1F894BE0195
:105AC0006F5F7F4F89EB94E071DF789489819A81D1
:105AD000EE24E394F12C892B51F4F894BE016F5F0E
