:1000000005C100000C94A14B0C94CC4B0C94F74B05
:100010000C94224C0C944D4C0C94784C0C94A34CA6
:100020000C94CE4C24C1000022C1000020C100006D
:100030001EC100001CC100001AC1000018C1000050
:1000400016C1000014C1000012C1000010C1000060
:100050000EC100000CC100000AC100000C94F94C54
:1000600006C100000C9418510C944E5100C10000C0
:10007000FEC00000FCC00000FAC00000F8C0000094
:10008000F6C00000F4C00000F2C00000F0C00000A4
:100090000C94A4510C94DA51EAC00000E8C00000AE
:1000A000E6C00000E4C00000E2C00000E0C00000C4
:1000B000DEC00000DCC00000DAC00000D8C00000D4
:1000C000D6C00000D4C000000C9458460C943052A6
:1000D0000C946652CCC000000C94BC520C94F252AA
:1000E000C6C0000000000A0B02090C0D0E08070331
:1000F00004010000000000000000000000000000FB
:1001000000000000000000000000000000000000EF
:1001100012111000000000000000000000000000AC
:100120000000000000000000000001021020200874
:100130000810204010204080020102010804020142
:1001400001020408102040808040201008040201B1
:10015000800402018040201008040201080402010A
:100160000102040810204080010204081020408091
:1001700005050505070508080808020202020A0A23
:100180000808040404040101010101010101030341
:10019000030303030303040707070C0C0C0C0C0CEC
:1001A0000C0C0202020206060606060606060B0BE9
:1001B0000B0B0B0B0B0B000020002300260029006B
:1001C0002C002F003200000100000301060109018C
:1001D00000002200250028002B002E0031003400F2
:1001E00002010000050108010B01000021002400AC
:1001F00027002A002D003000330001010000040117
:1002000007010A01775103528F521B5311241FBE5D
:10021000CFEFD1E2DEBFCDBF00E00CBF13E0A0E026
:10022000B2E0ECEDF7EA00E00BBF02C007900D92E0
:10023000AC35B107D9F72FE0ACE5B3E001C01D92B2
:10024000AB39B207E1F711E0C6E0D1E000E006C04B
:1002500021970109802FFE010E94BB53C230D107B4
:1002600080E00807A9F70E94A7470C94EC53C8CE7A
:10027000CF92DF92EF92FF920F931F93E82FF92F07
:1002800005C0015011092109310961F190819623BE
:100290009417B9F305C0015011092109310911F171
:1002A000908196239413F7CFC12CD12CE12CF12C03
:1002B0000AC08FEFC81AD80AE80AF80A0C151D05FB
:1002C0002E053F0579F080818623841791F36C2DEC
:1002D0007D2D8E2D9F2D1F910F91FF90EF90DF9020
:1002E000CF90089560E070E080E090E01F910F9162
:1002F000FF90EF90DF90CF900895FC01A781B0852B
:100300008C9191858923A481B5819C9140815181F3
:10031000628173812681922359F081110BC04F5F56
:100320005F4F6F4F7F4F4083518362837383089584
:100330008111F5CF4150510961097109F4CF8DE563
:1003400093E0DBCF88E693E0D8CF83E793E0D5CF87
:100350008EE793E0D2CFFC01A481B5818C91968188
:100360008923A781B0859C914081518162817381ED
:100370002185922359F0882359F04F5F5F4F6F4FCB
:100380007F4F408351836283738308958823A9F349
:100390004150510961097109F4CF8DE593E0DBCF3C
:1003A00088E693E0D8CF83E793E0D5CF8EE793E05C
:1003B000D2CF0F931F93CF93DF93D82FC62F8A01ED
:1003C000A0915C038BE0A89FD0011124A35ABC4FDD
:1003D0001D921D921D921C92139781E01A968C9388
:1003E0001A978D2F90E0FC01E65DFE4FE491169682
:1003F000EC931697FC01E059FE4FE491F0E0EE0F0C
:10040000FF1FEA54FE4F8591949115969C938E930D
:100410001497862F90E0FC01E65DFE4FE49119965B
:10042000EC931997FC01E059FE4FE491F0E0EE0FD8
:10043000FF1FEA54FE4F8591949118969C938E93DA
:10044000179760E08D2F0E945D4F60E08C2F0E9417
:100450005D4F80915C03813009F43FC0A8F0823089
:1004600009F462C0833009F486C080915C0391E096
:10047000980F90935C03F801808390E080E0DF9117
:10048000CF911F910F91089580E0D23049F081E023
:10049000D33031F08EEE8D0F8430D8F487E18D1B90
:1004A00041E050E06FE971E00E94274B80E0C230EC
:1004B00049F081E0C33031F08EEE8C0F843058F477
:1004C00087E18C1B41E050E06DEC71E00E94274B0E
:1004D000CCCF8FEFE5CF8FEFF5CF80E0D23049F072
:1004E00081E0D33031F08EEE8D0F8430C8F487E197
:1004F0008D1B41E050E062EA71E00E94274B80E0F2
:10050000C23049F081E0C33031F08EEE8C0F843080
:1005100048F487E18C1B41E050E060ED71E0D6CFFC
:100520008FEFE7CF8FEFF7CF80E0D23049F081E057
:10053000D33031F08EEE8D0F8430C8F487E18D1BFF
:1005400041E050E065EA71E00E94274B80E0C23054
:1005500049F081E0C33031F08EEE8C0F843048F4E6
:1005600087E18C1B41E050E063ED71E0AFCF8FEF8E
:10057000E7CF8FEFF7CF80E0D23049F081E0D33082
:1005800031F08EEE8D0F8430C8F487E18D1B41E091
:1005900050E068EA71E00E94274B80E0C23049F0E9
:1005A00081E0C33031F08EEE8C0F843048F487E167
:1005B0008C1B41E050E066ED71E088CF8FEFE7CF14
:1005C0008FEFF7CF9BE0899FF0011124E35AFC4F96
:1005D00080819181A281B381FB0180839183A28379
:1005E000B38390E080E008959BE0899FF00111249F
:1005F000E35AFC4F108211821282138290E080E055
:10060000089590E080E00895CF92DF92EF92FF92FC
:10061000CF93882351F16A017B01CFEFC80F20E00F
:1006200030E0A901CB01B6010E94994818168CF060
:10063000C701B60190580E940A499B01AC016C2F7A
:1006400070E090E080E0CF91FF90EF90DF90CF904E
:10065000B2C0C701B6010E9405498C2FCF91FF900F
:10066000EF90DF90CF900C94234ECF91FF90EF90BE
:10067000DF90CF9008950F931F938B019C0183E02F
:1006800036952795179507958A95D1F707571C4FEB
:10069000462F477021E030E0F90102C0EE0FFF1F46
:1006A0004A95E2F7AF01F80120812423CB0101969E
:1006B000211102C090E080E01F910F9108950F93E7
:1006C0001F938B019C0183E036952795179507951D
:1006D0008A95D1F7677081E090E001C0880F6A9534
:1006E000EAF7F801E757FC4F2081452B31F480955C
:1006F000822380831F910F910895822BFACF2F922E
:100700003F924F925F926F927F928F929F92AF92A1
:10071000BF92CF92DF92EF92FF920F931F93CF93EE
:10072000DF93D62EC72E782E692E49015A01280153
:1007300061E08D2D0E945D4FCD2DDC2D8E010F5F70
:100740001F4FA8016D2D7C2D872D962DB8DF20E041
:1007500030E0A901C201B7010E94894A181664F469
:10076000C201B7010E940A492B01C501B4010E94D0
:100770000A49A201CE0123D0C801DF91CF911F9178
:100780000F91FF90EF90DF90CF90BF90AF909F9030
:100790008F907F906F905F904F903F902F90089533
:1007A000882341F08150682F70E090E080E050E0B5
:1007B00040E085CF0895862FB9010C94234E9C010B
:1007C000FC01EC51FF4FE491E150E231E0F4F0E044
:1007D0008827E251FC4F8F4F0C94BB530004070451
:1007E0000A042104360403044B0457045B04720416
:1007F00087049C04B304C8040304DD04F40409055D
:1008000084B5806884BD60E0822F0C94994F84B5D4
:100810008062F8CF809180008C7F8260809380001E
:1008200080918100807E8061682B6093810050936D
:1008300087004093860080918000806880938000CC
:10084000E2CF809180008C7F8260809380008091D5
:100850008100807E8061682B6093810050938700C7
:1008600040938600809180008062E8CF8091800074
:100870008C7F82608093800080918100807E806187
:10088000682B60938100509387004093860080918D
:1008900080008860D3CF8091B00080688093B000E2
:1008A0008091B100887F682B6093B100ACCF8091BC
:1008B000B0008062F3CF809190008C7F8260809343
:1008C000900080919100807E8061682B6093910000
:1008D0005093970040939600809190008068809399
:1008E000900091CF809190008C7F826080939000E7
:1008F00080919100807E8061682B6093910050937D
:10090000970040939600809190008062E8CF80919C
:1009100090008C7F82608093900080919100807E17
:100920008061682B609391005093970040939600EC
:10093000809190008860D3CF8091A0008C7F8260EE
:100940008093A0008091A100807E8061682B6093DD
:10095000A1005093A7004093A6008091A00080685A
:100960008093A00050CF8091A0008C7F8260809304
:10097000A0008091A100807E8061682B6093A1001F
:100980005093A7004093A6008091A0008062E8CF1A
:100990008091A0008C7F82608093A0008091A10054
:1009A000807E8061682B6093A1005093A7004093E4
:1009B000A6008091A0008860D3CF809120018C7F19
:1009C00082608093200180912101807E8061682B6C
:1009D00060932101509327014093260180912001CB
:1009E0008068809320010FCF809120018C7F8260EE
:1009F0008093200180912101807E8061682B60932B
:100A000021015093270140932601809120018062AB
:100A1000E8CF809120018C7F8260809320018091BB
:100A20002101807E8061682B609321015093270112
:100A300040932601809120018860D3CFCF93DF932C
:100A4000882349F0EB0181500E94004E99838883EE
:100A5000DF91CF910895FB0111821082F9CF0F939E
:100A60001F938B019C0183E0369527951795079579
:100A70008A95D1F70E561C4F462F477021E030E083
:100A8000F90102C0EE0FFF1F4A95E2F7AF01F8012E
:100A900020812423CB010196211102C090E080E047
:100AA0001F910F9108950F931F938B019C0183E079
:100AB00036952795179507958A95D1F7677081E048
:100AC00090E001C0880F6A95EAF7F801EE56FC4FF6
:100AD0002081452B31F48095822380831F910F91D3
:100AE0000895822BFACFCF92DF92EF92FF92CF93AD
:100AF000DF936B017C0160E086E3C816D104E1045A
:100B0000F10490F486E38C0D0E945D4FE60121967E
:100B1000AE01C701B601C7DFCE01DF91CF91FF90D3
:100B2000EF90DF90CF9008958C2DEECF882341F089
:100B30008150682F70E090E080E050E040E0B3CF5B
:100B40000895CF93C62F61E00E945D4F60E08C2F27
:100B5000CF910C945D4F4F925F926F927F92AF92C4
:100B6000BF92CF92DF92EF92FF920F931F93CF939A
:100B7000DF935C01162FC42FD22F611104C061E0F6
:100B8000842F0E945D4F60E08C2F0E94994F0E943D
:100B9000434D2B013C010E94434D641975098609A0
:100BA00097096630710581059105A8F361E08C2FE6
:100BB0000E94994F0E94434D2B013C01C02ED12C25
:100BC000F12CE12C0E94434D64197509860997099F
:100BD000C616D706E806F906A8F760E08C2F0E9433
:100BE000994F111104C060E08D2F0E945D4F20E4E9
:100BF00032E44FE050E061E08D2F0E94C64FF501D6
:100C00006083718382839383DF91CF911F910F91D2
:100C1000FF90EF90DF90CF90BF90AF907F906F905C
:100C20005F904F90089590E080E008950F931F9398
:100C3000009709F491C06115710509F48DC0009108
:100C40007A0210917B0220917C0230917D020E3F4E
:100C50001F4F2F4F3F4F09F070C04FEF5FEFBA01AA
:100C600040937A0250937B0260937C0270937D02E2
:100C700040917A0250917B0260917C0270917D02DA
:100C8000DC011296ED91FC9180819181A281B3816A
:100C900080930B0590930C05A0930D05B0930E0562
:100CA00084819581A681B78180930705909308057B
:100CB000A0930905B0930A0580859185A285B38527
:100CC0008093030590930405A0930505B093060552
:100CD00084859585A685B7858093FF04909300054C
:100CE000A0930105B09302051092FB041092FC043E
:100CF0001092FD041092FE040E945A2A8FE79AE295
:100D000090939C0380939B0390939E0380939D03F9
:100D10009093A00380939F039093A2038093A103D9
:100D20000E944929009731F421E030E0309310050A
:100D300020930F051F910F91089500917A02109151
:100D40007B0220917C0230917D02DB010D931D938B
:100D50002D933C9313978CCF8FEF9FEFEBCF8F9218
:100D60009F92AF92BF92CF92DF92EF92FF921F932A
:100D7000CF93DF934B015C011091120582E090E06C
:100D80009093100580930F0581149104A104B10480
:100D900041F480911205811104C080911105C1E0D8
:100DA0008111C0E0C12CD12C7601809112058111F6
:100DB00006C080911105811102C0CC23D9F083E0D7
:100DC00090E09093100580930F05CC2381F1CCE93E
:100DD000DFEF111102C00E94E42DCE01DF91CF910F
:100DE0001F91FF90EF90DF90CF90BF90AF909F90BA
:100DF0008F9008956AE070E080E090E00E94684D76
:100E000080E1C80E87E2D81EE11CF11C8FEF881626
:100E10009806A806B80631F0C1E08C149D04AE0413
:100E2000BF0408F0C0E080E00E947D29BECFD0E082
:100E3000C0E0CFCFCF92DF92EF92FF920F931F933C
:100E4000CF93DF938F3F910511F008F051C02091AF
:100E50000F05309110052330310539F020910F0531
:100E6000309110052130310531F424E030E0309329
:100E7000100520930F056A017B01EC018430910578
:100E8000A8F011E0AE01C701B6010E944829AB01EC
:100E9000BC01CE011123F9F0DF91CF911F910F9189
:100EA000FF90EF90DF90CF900C940D308C01000FED
:100EB000111F05561C4FD8018D919C91892B09F368
:100EC0000E9417300297E9F6D801ED91FC91CE010E
:100ED0001995182FD7CF0E942F3090E080E0DF9136
:100EE000CF911F910F91FF90EF90DF90CF900895D9
:100EF0008FEF9FEFF4CF80E00C947D29CF93DF93A9
:100F000086E090E09093100580930F050E94D6290B
:100F1000EC01EBE9F3E088E0DF011D928A95E9F747
:100F20000E947C2D1092100510920F05CE01DF91CA
:100F3000CF9108958091110508958091FA04089544
:100F400060937A0270937B0280937C0290937D027F
:100F500090E080E00895CF92DF92EF92FF9280912F
:100F6000A104882329F0813039F08091A20401C0C6
:100F700081E08093A00402C01092A004E091A0043C
:100F800084E0E89FF0011124ED55FB4FC080D18033
:100F9000E280F380C0929C04D0929D04E0929E0473
:100FA000F0929F048FEF8093A00420910C0F30915A
:100FB0000D0F40910E0F50910F0F60912402709110
:100FC000250280912602909127020E943448609366
:100FD000D60E7093D70E8093D80E9093D90E60934F
:100FE0000C0F70930D0F80930E0F90930F0F24E052
:100FF00020937A0F20916E0F222349F0213059F06F
:1010000030916F0F21E0332319F020E001C021E07F
:1010100020936D0F02C010926D0F20916D0F22234F
:10102000E1F060931C0F70931D0F80931E0F90933F
:101030001F0F20916D0F20936F0F2FEF20936D0FD7
:101040002091770F222391F02130A1F03091780F79
:1010500021E0332361F020E00AC06093180F709301
:10106000190F80931A0F90931B0FE3CF21E0209369
:10107000760F02C01092760F2091760F222321F175
:101080006093340F7093350F8093360F9093370F22
:101090008091760F8093780F8FEF8093760FC70142
:1010A000B6010E9436492AE037ED43E25CE30E9434
:1010B000C34A0E940A49AB01BC0183E090E0FF9063
:1010C000EF90DF90CF90B6CE6093300F7093310FDA
:1010D0008093320F9093330FDBCFCF92DF92EF925A
:1010E000FF928091B004882329F0813039F08091FB
:1010F000B10401C081E08093AF0402C01092AF043C
:10110000E091AF0484E0E89FF0011124EE54FB4F1E
:10111000C080D180E280F380C092AB04D092AC0456
:10112000E092AD04F092AE048FEF8093AF04209173
:10113000080F3091090F40910A0F50910B0F6091E9
:1011400030027091310280913202909133020E94FC
:1011500034486093D20E7093D30E8093D40E909344
:10116000D50E6093080F7093090F80930A0F909328
:101170000B0F24E02093790F20916B0F222349F06D
:10118000213059F030916C0F21E0332319F020E029
:1011900001C021E020936A0F02C010926A0F2091D3
:1011A0006A0F2223E1F06093140F7093150F809360
:1011B000160F9093170F20916A0F20936C0F2FEF4B
:1011C00020936A0F2091710F222391F02130A1F01A
:1011D0003091720F21E0332361F020E00AC0609368
:1011E000100F7093110F8093120F9093130FE3CF92
:1011F00021E02093700F02C01092700F2091700FA9
:101200002223E1F06093240F7093250F8093260F23
:101210009093270F2091700F2093720F2FEF209340
:10122000700F2091740F222391F02130A1F03091A2
:10123000750F21E0332361F020E00AC06093200F96
:101240007093210F8093220F9093230FE3CF21E01F
:101250002093730F02C01092730F2091730F2223FB
:1012600021F160932C0F70932D0F80932E0F90938C
:101270002F0F8091730F8093750F8FEF8093730FF3
:10128000C701B6010E9436492AE037ED43E25CE32C
:101290000E94C34A0E940A49AB01BC0184E090E06D
:1012A000FF90EF90DF90CF90C5CD6093280F7093A3
:1012B000290F80932A0F90932B0FDBCF2F923F9211
:1012C0004F925F926F927F928F929F92AF92BF9256
:1012D000CF92DF92EF92FF920F931F93CF93DF9302
:1012E000CDB7DEB7CB54D1090FB6F894DEBF0FBE31
:1012F000CDBF26967FAF6EAF269728965FAF4EAFD5
:1013000028973E8B2D8B2C96FFAEEEAE2C97FB01D3
:10131000E150F04CEE0FFF1FEE0FFF1FE80FF91F1B
:1013200080809180A280B3808F8A988EA98EBA8E99
:10133000B501A401442777FD4395552766277727F4
:1013400029964FAF2997F901E150F04CEE0FFF1F9E
:10135000EE0FFF1F2896AEACBFAC2897EA0DFB1D21
:10136000C080D180E280F380CB8EDC8EED8EFE8E4D
:10137000B701A601442777FD4395552766277727B0
:101380002A964FAF2A97188B0F87F80130E020E09C
:101390002C96EEACFFAC2C972E153F050CF43FC0FD
:1013A00022969FAF8EAF22971A8B098B312C212C5E
:1013B000812C912C540183948D829E82AF82B886B9
:1013C00026968EAC9FAC2697281439047CF129967A
:1013D0009FAC29972A96AFAC2A9730E020E041E0F5
:1013E00050E060E070E09A10F5C1C55BDF4F0FB6CA
:1013F000F894DEBF0FBECDBFDF91CF911F910F914B
:10140000FF90EF90DF90CF90BF90AF909F908F9024
:101410007F906F905F904F903F902F900895119222
:101420001192119211922F5F3F4FB2CF2296EEADE3
:10143000FFAD229781919191A191B1912296FFAF39
:10144000EEAF22978F88988CA98CBA8CB7FE23C0F8
:101450004D815E816F817885415051096109710923
:101460005A016B01A81AB90ACA0ADB0AD601C501DA
:1014700021E0CD80DE80EF80F8848C159D05AE05DF
:10148000BF0508F020E0822E912CB12CA12C8D827A
:101490009E82AF82B8865D01CC24DD24A8A2B9A2C9
:1014A000CAA2DBA29C01AD01442755272CA33DA372
:1014B0004EA35FA32C96EEADFFAD2C97E219F30976
:1014C0008D889E888E169F060CF4F4012896AEAC8B
:1014D000BFAC28972496BFAEAEAE2497C988DA88F1
:1014E000DC8ACB8A1E861D86812C912C5401839424
:1014F00089869A86AB86BC86812C912C5401CD843A
:10150000DE84CE16DF0604F1F7FF02C0F0E0E0E073
:10151000E20DF31D2C96EEACFFAC2C97EE15FF05FB
:1015200054F4EE0FFF1FEE0FFF1FE00FF11F80823C
:101530009182A282B3822FEF221A320AE989FA89B4
:101540003496FA8BE98B3CCF2496AEADBFAD249791
:10155000CD90DD90ED90FD902496BFAFAEAF249777
:101560002B8D3C8D4D8D5E8D57FF22C089859A85D0
:10157000AB85BC850197A109B109AC01BD014C192E
:101580005D096E097F096A017B0181E029853A8541
:101590004B855C85C216D306E406F50608F080E0AC
:1015A000482F50E070E060E049875A876B877C875E
:1015B000B7018827992768A779A78AA79BA7EE2450
:1015C000FF2428A139A14AA15BA1C701B6010E944D
:1015D00076532B013C012CA13DA14EA15FA168A532
:1015E00079A58AA59BA50E9476536CA77DA78EA797
:1015F0009FA7AB89BC894D915D916D917D91BC8B0D
:10160000AB8BDB01CA01880D991DAA1DBB1D898307
:101610009A83AB83BC8391E09F8F29813A814B8170
:101620005C81281539054A055B0508F01F8E2CA141
:101630003DA14EA15FA1C701B6010E9476536B0187
:101640007C0189809A80AB80BC808C0C9D1CAE1C78
:10165000BF1C89829A82AB82BC8252019924882461
:1016600088AA99AAAAAABBAA29813A814B815C813E
:10167000280D391D4A1D5B1D2CAB3DAB4EAB5FAB3E
:101680008CA49DA4AEA4BFA454019924882488AE40
:1016900099AEAAAEBBAE280D391D4A1D5B1D2CAFFD
:1016A0003DAF4EAF5FAFAB89BC8914972D933D938F
:1016B0004D935C93139728A139A14AA15BA168A51A
:1016C00079A58AA59BA50E9476539F8C690D711DF3
:1016D000811D911D230166247724460E571E681E26
:1016E000791E2CA53DA54EA55FA54A01AA24BB24C1
:1016F000840C951CA61CB71C81E090E0A0E0B0E033
:1017000049815A816B817C814C155D056E057F0591
:1017100018F080E090E0DC01880D991DAA1DBB1D2A
:1017200041E050E060E070E088A899A8AAA8BBA8B2
:10173000CCA8DDA8EEA8FFA8C814D904EA04FB04CD
:1017400018F040E050E0BA01840F951FA61FB71FA4
:10175000812C912C54018394C8ACD9ACEAACFBAC7D
:101760002CAD3DAD4EAD5FAD2C153D054E055F0575
:1017700018F0812C912C5401880E991EAA1EBB1EB4
:101780004D855E854F5F5F4F5E874D87B8CEEF8595
:10179000F889C190D190E190F190F88BEF87DB014F
:1017A000CA010197A109B1098C199D09AE09BF09A8
:1017B000349780839183A283B383E1E084179507F4
:1017C000A607B70708F0E0E04E2F50E070E060E0B9
:1017D0002F5F3F4F2C968EAC9FAC2C972815390568
:1017E000B4F203CE2F923F924F925F926F927F920C
:1017F0008F929F92AF92BF92CF92DF92EF92FF9221
:101800000F931F93CF93DF9300D01F92CDB7DEB716
:101810008B015C834B83FB01E150F04CEE0FFF1F0B
:10182000EE0FFF1FE80FF91F408151816281738124
:1018300077FD27C04C01B12CA12CC12CD12C7601F5
:10184000A016B10664F5F4016191719181919191B5
:101850004F010E9436494B815C810E948F4A9B0157
:10186000AC01C701B6010E9435486B017C012B8198
:101870003C81205E3F4F3C832B833FEFA31AB30A8A
:10188000DFCF9A838983312C212C81E090E0A0E086
:10189000B0E0C12CD12C760120163106CCF0C70166
:1018A000B6010F900F900F900F90DF91CF911F9185
:1018B0000F91FF90EF90DF90CF90BF90AF909F90EF
:1018C0008F907F906F905F904F903F902F900895F2
:1018D000E981FA814190519061907190FA83E98396
:1018E000409450946094709453014201880E991E64
:1018F000AA1EBB1EC501B4010E9436494B815C8102
:101900000E948F4A9B01AC01C701B6010E94344876
:101910006B017C0181E084149504A604B70408F0EF
:1019200080E090E0B0E0A0E02B813C81205E3F4F62
:101930003C832B833FEF231A330AAECF2F923F9283
:101940004F925F926F927F928F929F92AF92BF92CF
:10195000CF92DF92EF92FF920F931F93CF93DF937B
:1019600000D000D0CDB7DEB7DA01E5E0B695A79597
:10197000EA95E1F7FB01E150F04CEE0FFF1FEE0F8F
:10198000FF1FE80FF91F80809180A280B380BB0CFD
:101990008808982C54013D010A171B070CF43801E4
:1019A0007901D12CC12CC614D70464F1F30177FE60
:1019B00002C0F0E0E0E0A017B1070CF075C04F7175
:1019C0005527A60FB71FB801A017B1070CF4BD012A
:1019D0006E1B7F0BDF01AA0FBB1FAA0FBB1F411598
:1019E0005105D1F43D01620E731E50E040E04617F0
:1019F00057070CF48DC077FF02C070E060E0E60F7F
:101A0000F71F52C0F70111921192119211927F01AA
:101A1000FFEFCF1ADF0AC7CF1C0129014A0E5B1E58
:101A20005A8249821E821D82C12CD12C760180E20D
:101A300090E03C01641A750A7C826B82AD81BE81A4
:101A4000A617B707CCF177FF02C070E060E0E60FA1
:101A5000F71FE017F1070CF072C0DF01AA0FBB1FE0
:101A6000AA0FBB1FA20FB31F80E290E0841B950B4F
:101A700004C0F694E794D794C7948A95D2F72401CA
:101A8000350104C0440C551C661C771C4A95D2F7DE
:101A9000B301A201C428D52AE628F72ACD92DD9207
:101AA000ED92FC9213973196DF01AA0FBB1FAA0F8C
:101AB000BB1FA20FB31F40C0260137010B8004C01B
:101AC00076946794579447940A94D2F7D101CD90B5
:101AD000DD90ED90FD901D01D701C601042E04C0DC
:101AE000880F991FAA1FBB1F0A94D2F7482A592AA8
:101AF0006A2A7B2AA981BA814D925D926D927D926C
:101B0000BA83A9838D819E8101969E838D8396CF12
:101B1000DC01CD90DD90ED90FD90CD01D301CD9213
:101B2000DD92ED92FD923D014F5F5F4F60CF8D9250
:101B30009D92AD92BD923196E017F107C4F32696BF
:101B40000FB6F894DEBF0FBECDBFDF91CF911F91CE
:101B50000F91FF90EF90DF90CF90BF90AF909F904C
:101B60008F907F906F905F904F903F902F9008954F
:101B7000FA016193719381939193990F660B762F7C
:101B8000CB0141E050E0421753070CF008956193F8
:101B90007193819391934F5F5F4FF5CF2F923F9257
:101BA0004F925F926F927F928F929F92AF92BF926D
:101BB000CF92DF92EF92FF920F931F93CF93DF9319
:101BC00079011B01DA01D0E0C0E040E050E0BA0149
:101BD000CE15DF059CF0DF91CF911F910F91FF9003
:101BE000EF90DF90CF90BF90AF909F908F907F90BD
:101BF0006F905F904F903F902F900895FC018190DF
:101C00009190A190B190CF01F10101911191219199
:101C100031911F0124013501401A510A620A730AE9
:101C200093018201041B150B260B370B0D931D939B
:101C30002D933D9366246394712CC12CD12C452B9C
:101C4000462B472B39F0081519052A053B0538F4B2
:101C5000612C05C080169106A206B306C8F7A30141
:101C6000B6012196B5CF8F929F92AF92BF92CF923D
:101C7000DF92EF92FF92CF93DF93F9016217730720
:101C80000CF4FB016C017A01B0E0A0E0AE17BF07D5
:101C90004CF162177307DCF46150704C660F771FCC
:101CA000660F771F680F791FDB01CD90DD90ED90F7
:101CB000FC90FF0CCC08DC2C7601DF01AA0FBB1FC7
:101CC000AA0FBB1FA40FB51FE217F307CCF0DF91DB
:101CD000CF91FF90EF90DF90CF90BF90AF909F900B
:101CE0008F900895E60189909990A990B9906E011E
:101CF000E70189929992A992B9927E011196C6CF75
:101D0000CD92DD92ED92FD923196DECF8F929F9231
:101D1000AF92BF92CF92DF92EF92FF920F931F93F9
:101D2000FB0170E060E0C12CD12C7601C3946417F4
:101D300075075CF01F910F91FF90EF90DF90CF90AF
:101D4000BF90AF909F908F900895DC018D909D90F3
:101D5000AD90BD90CD019701860101501109210977
:101D60003109081919092A093B0901931193219393
:101D70003193A1E00C151D052E053F0508F0A0E0EC
:101D8000CA2ED12CF12CE12C6F5F7F4FD0CFAB014D
:101D900041505109FC0130E020E02417350794F050
:101DA0006150704C660F771F660F771F680F791FA1
:101DB00080E090E0A0E0B0E8FB0180839183A28303
:101DC000B383089511921192119211922F5F3F4F98
:101DD000E4CFCF92DF92EF92FF92AB0141505109D5
:101DE000FC0130E020E0CC24CA94DC2C76012417DE
:101DF0003507B4F06150704C660F771F660F771F80
:101E0000680F791F8FEF9FEFAFEFBFE7FB01808374
:101E10009183A283B383FF90EF90DF90CF900895DA
:101E2000C192D192E192F1922F5F3F4FE0CFCF92DA
:101E3000DF92EF92FF92FB0130E020E0C12CD12C29
:101E40007601C3942E173F072CF0FF90EF90DF90A0
:101E5000CF900895DC014D915D916D917D91CD0103
:101E60004C0D5D1D6E1D7F1D14974D935D936D93FD
:101E70007C931397A1E04C155D056E057F0508F076
:101E8000A0E0CA2ED12CF12CE12C2F5F3F4FDACFEE
:101E9000CF92DF92EF92FF92FC0180E030E020E0F1
:101EA0002617370714F4882329F0FF90EF90DF906E
:101EB000CF900895C190D190E190F1902F5F3F4F66
:101EC00081E0CD28CE28CF2859F780E0E9CF2F92A6
:101ED0003F924F925F926F927F928F929F92AF92BA
:101EE000BF92CF92DF92EF92FF920F931F93CF9307
:101EF000DF93CDB7DEB7A8970FB6F894DEBF0FBE5D
:101F0000CDBF9EA38DA31B015E834D833A8329839E
:101F10001A8F098FDA8AC98AF901EE0FFF1FEE0FB7
:101F2000FF1FE40FF51F49815A81141615060CF0A6
:101F3000A0C4B291A29192918291892B8A2B8B2B72
:101F400011F1E98DFA8D90E080E08E159F0514F176
:101F5000F101EE0FFF1FEE0FFF1F8DA19EA1E80FF5
:101F6000F91F1214130404F1ADA1BEA1BA83A98311
:101F7000E989FA8930E020E02A153B050CF46AC4AF
:101F800085E090E04FC029813A81215031093A83A0
:101F90002983C9CF11921192119211920196D5CF36
:101FA00091E0291A3108DDCFB291A29192918291EC
:101FB000892B8A2B8B2BA1F3E981FA812E163F0600
:101FC0009CF249885A885A864986F20190E080E05E
:101FD00005C0119211921192119201968A159B05DA
:101FE000C4F3B1E02B163104B1F5EDA1FEA160817F
:101FF000718182819381AD81BE812D913D914D9101
:102000005C910E949953E98DFA8D2083318342833C
:102010005383A989BA896D937D938D939C9313976C
:1020200087E090E0A8960FB6F894DEBF0FBECDBF54
:10203000DF91CF911F910F91FF90EF90DF90CF90A4
:10204000BF90AF909F908F907F906F905F904F90D8
:102050003F902F900895E981FA81E150F04CEE0F06
:10206000FF1FEE0FFF1F4D805E804E0E5F1E5C8ACD
:102070004B8AD201CD90DD90ED90FC90D701C60146
:10208000B695A7959795879501E010E01C830B8383
:102090000097A105B10589F5D101A150B04CAA0F57
:1020A000BB1FAA0FBB1F8DA19EA1A80FB91F4D91E9
:1020B0005D916D917C91769567955795479581E0F7
:1020C00090E0411551056105710511F5A981BA81AD
:1020D000A215B3051CF14B805C8084159505F0F4C6
:1020E0006DA07EA07A82698230E020E02A153B054F
:1020F0000CF49DC386E090E095CF2B813C812F5F4F
:102100003F4F3C832B83B695A79597958795C0CF76
:1021100001967695679557954795D3CF29813A8152
:1021200021503109388B2F879101215031098901C4
:1021300075E0000F111F7A95E1F7080F191F4F8501
:102140005889A5E0440F551FAA95E1F76B817C8162
:10215000640F751F7E876D87AB81BC81A032B1058E
:1021600009F498C134964D805E80E40DF51D70E051
:1021700060E040E250E04A1B5B0B46015701042E31
:1021800004C0880C991CAA1CBB1C0A94D2F76F5F70
:102190007F4F69807A806616770609F062C1AD814B
:1021A000BE818D929D92AD92BC921397CC24CA941D
:1021B000DC2C76012601370104C0440C551C661C3A
:1021C000771C4A95D2F74D8A5E8A6F8A788E49814C
:1021D0005A814130510509F066C14D885E886F888B
:1021E000788C4D8E5E8E6F8E78A269817A81615077
:1021F00071094FEF5FE3649F4001659F900C749FEE
:10220000900C11249AA289A21C861B86AD84BE84E0
:10221000A094B094BCA2ABA2A901440F551F440FD7
:10222000551FADA1BEA1A40FB51FB887AF838032E3
:10223000910509F440C0CD90DD90ED90FC9013978E
:102240004B855C85405E5F4FFA01E81BF90BFC870C
:10225000EB87FD01A90160E270E0681B790B2601A4
:102260003701062E04C0440C551C661C771C0A94CA
:10227000D2F7141615060CF41FC1A90137FF02C0CE
:1022800050E040E088248A94FFE39F2E489DF001AF
:10229000499DF00D589DF00D1124E20FF31FEE0F34
:1022A000FF1FEE0FFF1F8DA19EA1E80FF91F4082B7
:1022B000518262827382EF81F88580819181A2814F
:1022C000B381EB89FC894081518162817381CD8C1E
:1022D000DE8CEF8CF8A0C822D922EA22FB22C41699
:1022E000D506E606F70609F067C14F80588458A660
:1022F0004FA26B887C887C8E6B8EB2014F8558898B
:102300004115510509F0F1C06D857E85061B170B3F
:102310008F859889009709F09DC1E9A1FAA1E20F84
:10232000F31FEE0FFF1FEE0FFF1F2DA13EA12E0F7B
:102330003F1FF90180819181A281B381ED81FE81EE
:102340004081518162817381841B950BA60BB70B71
:10235000F90180839183A283B383F80195E0F69518
:10236000E7959A95E1F7EE0FFF1FEE0FFF1F698CBF
:102370007A8CE60DF71D0F71112741E050E060E007
:1023800070E004C0440F551F661F771F0A95D2F7EF
:1023900080819181A281B381842B952BA62BB72BB1
:1023A00080839183A283B383EF81F8851214130491
:1023B0000CF062C280819181A281B3819101215090
:1023C00031093497892B8A2B8B2B09F47FC16980C3
:1023D0007A80261437040CF07BC191012150310919
:1023E00084E090E06B857C8545E0769567954A951D
:1023F000E1F74B855C854F715527FB01EE0FFF1F01
:10240000EE0FFF1F4115510509F497C12DA03EA005
:102410002E0E3F1ED101CD90DD90ED90FC90B0E0EE
:10242000A0E0E0E2F0E02F01441A550A5A82498206
:1024300046015701042E04C0B694A794979487943C
:102440000A94D2F76F5F7F4F1496261737070CF068
:10245000B6C1A985BA858D929D92AD92BC92139713
:1024600085C1DF011897CD90DD90ED90FC9026019D
:1024700037010B8004C076946794579447940A946C
:10248000D2F784289528A628B728B292A2929292D1
:10249000829273CE66246A94762C43016D8A7E8A7A
:1024A0008F8A988E94CE66246A94762C43016D8E22
:1024B0007E8E8F8E98A299CEF290E290D290C290AA
:1024C00046015701082E04C0B694A79497948794A8
:1024D0000A94D2F784289528A628B7288482958262
:1024E000A682B78241505109BACEFB017290629028
:1024F00052904290BF0141505109EB8DFC8DB2903A
:10250000A29092908290FC8FEB8FCC24CA94DC2C0A
:1025100076014115510521F4CD88DE88EF88F88CCD
:10252000C420D520E620F720C814D904EA04FB040F
:1025300009F4E6CE84149504A604B70408F485C013
:10254000AD84BE84A016B10608F0A9C1EF81F8855C
:10255000A9016C017D01CC0CDD1CEE1CFF1C1416C6
:1025600015060CF483C0A90137FF02C050E040E01B
:1025700044244A946FE3562E449DF001459DF00D8E
:10258000549DF00D1124E20FF31FEE0FFF1FEE0F0D
:10259000FF1F6DA07EA0E60DF71DC082D182E282F2
:1025A000F3824B855C854F5F5F4F5C874B876BA1E8
:1025B0007CA1060F171F0AC0481759076A077B0737
:1025C00008F0BECF8D849E8408191909F90189810C
:1025D0009A81E81BF90B3196EE0FFF1FEE0FFF1FDC
:1025E000ADA1BEA1EA0FFB1F4D805E805C8E4B8EBD
:1025F00090E080E040E050E0BA0181909190A1909D
:10260000B190AB8DBC8DCD90DD90ED90FD90BC8FE9
:10261000AB8F240135014C185D086E087F087301EB
:102620006201C41AD50AE60AF70A66246394712C7B
:1026300030E020E0452B462B472B79F1C814D90414
:10264000EA04FB0478F5612C2DC04D855E85041BE2
:10265000150BBCCFAFA1B8A51D921D921D921C9267
:10266000139701971497B8A7AFA354CEB291A29134
:10267000929182914C015D018824B7FC8394992446
:10268000AA24BB24C828D928EA28FB28C482D582DA
:10269000E682F782415051095CCF8C149D04AE0450
:1026A000BF0488F6A301632F722F9F0124503109C4
:1026B000D901CD92DD92ED92FC921397019649805B
:1026C0005A80841595050CF498CF47CE19016ECE2B
:1026D000F101E150F04CEE0FFF1FEE0FFF1F8DA038
:1026E0009EA0E80DF91D408151816281738176952C
:1026F00067955795479581E090E041155105610533
:102700007105A9F48901B5E0000F111FBA95E1F731
:10271000AB84BC840A191B09080F191F4D855E85FF
:102720000417150708F078CD82E090E05BCE0196A3
:102730007695679557954795E0CFADA1BEA1EA0F75
:10274000FB1F30E020E04191519161917191A98589
:10275000BA854D935D936D937D93BA87A9872F5F5B
:102760003F4F4F845888421653066CF7EB81FC812B
:10277000B09709F457CCAD81BE81CD90DD90ED903E
:10278000FC901397FD0130E020E040E250E04B80E8
:102790005C804419550926013701042E04C0769443
:1027A0006794579447940A94D2F78F849888281591
:1027B000390524F1408251826282738233CC8101D7
:1027C0000A0F1B1FF801C080D180E280F380260130
:1027D0003701098004C0440C551C661C771C0A9400
:1027E000D2F784289528A628B728E985FA8581920A
:1027F0009192A192B192FA87E9871ACEC480D580CE
:10280000E680F780460157010B8004C0880C991CB4
:10281000AA1CBB1C0A94D2F784289528A628B7289E
:1028200081929192A192B1922F5F3F4FB4CFE981F3
:10283000FA8181919191A191B191FA83E983E9851E
:10284000FA8581939193A193B193FA87E9872F5FDA
:102850003F4F4CCCA981BA814D915D916D917D9195
:10286000BA83A98341935193619371932F5F3F4F33
:1028700083CB8FEF9FEFD6CB2114310409F0ADCD80
:10288000EDA1FEA180819181A281B381E989FA89BC
:1028900080839183A283B38381E090E067CF83E05C
:1028A00090E0A0CD2F923F924F925F926F927F92D5
:1028B0008F929F92AF92BF92CF92DF92EF92FF9250
:1028C0000F931F93CF93DF93CDB7DEB764970FB607
:1028D000F894DEBF0FBECDBF2A013E832D833801A1
:1028E0001701DE86CD86B88AAF862AA53BA53A8B2E
:1028F000298B4CA55DA558874F83AEA5BFA5BC8B82
:10290000AB8BFB01E150F04CEE0FFF1FEE0FFF1FF2
:10291000E80FF91F208131814281538129833A8355
:102920004B835C83ED81FE81E150F04CEE0FFF1F85
:10293000EE0FFF1FE40DF51D20813181428153818F
:1029400029873A874B875C8729813A814B815C8153
:1029500057FF40C0AB01B401D9D989859A85AB85B1
:10296000BC85B7FF3CC04D815E816F817885C20117
:10297000CDD9AF84B888CD84DE84710183012B89E1
:102980003C894F81588569897A89C401A0DA97FF0B
:1029900048C029813A814B815C81B101C30157FF55
:1029A00027C064960FB6F894DEBF0FBECDBFDF918F
:1029B000CF911F910F91FF90EF90DF90CF90BF903C
:1029C000AF909F908F907F906F905F904F903F90CF
:1029D0002F90DDC929893A89A40145D9BECF2B8919
:1029E0003C894F8158856D817E81C2013CD9C1CF20
:1029F00064960FB6F894DEBF0FBECDBFDF91CF91C6
:102A00001F910F91FF90EF90DF90CF90BF90AF900C
:102A10009F908F907F906F905F904F903F902F90FE
:102A2000D8C989819A81AB81BC818827B7FD8395FC
:102A30009927AA27BB2749855A856B857C8544271A
:102A400077FD4395552766277727841731F16F85E2
:102A500078898D859E851CDA882319F0B101C30120
:102A6000E6D9A101B301C30164960FB6F894DEBFA5
:102A70000FBECDBFDF91CF911F910F91FF90EF90CF
:102A8000DF90CF90BF90AF909F908F907F906F908E
:102A90005F904F903F902F9039C964960FB6F8948D
:102AA000DEBF0FBECDBFDF91CF911F910F91FF9081
:102AB000EF90DF90CF90BF90AF909F908F907F90DE
:102AC0006F905F904F903F902F9008954F925F923C
:102AD0006F927F928F929F92AF92BF92CF92DF922E
:102AE000EF92FF92CF93DF939A012150304C220F47
:102AF000331F220F331FFC01E20FF31F80809180F0
:102B0000A280B380FB01E20FF31FC080D180E2807E
:102B1000F380CC24DD24EE24E0E8FE2224013501FC
:102B2000442455246624E0E87E22C414D504E60437
:102B3000F70499F52C5F3F4FFC01E20FF31FEB0107
:102B4000C20FD31F141615068CF090E080E0DF91C1
:102B5000CF91FF90EF90DF90CF90BF90AF909F907C
:102B60008F907F906F905F904F90089541505109E2
:102B7000F290E290D290C290BA91AA919A918A91E1
:102B8000C816D906EA06FB06E9F28C159D05AE05C6
:102B9000BF0528F481E090E0DACFB7FEFBCF8FEFDE
:102BA0009FEFD5CF93DF892F8095881F8827881FB7
:102BB00008952F923F924F925F926F927F928F92E1
:102BC0009F92AF92BF92CF92DF92EF92FF920F93BC
:102BD0001F93CF93DF93CDB7DEB72E970FB6F89440
:102BE000DEBF0FBECDBF9E878D873C872B87180128
:102BF000FA0125E0F695E7952A95E1F7DB01A1506A
:102C0000B04CAA0FBB1FAA0FBB1FA80FB91FCD90B6
:102C1000DD90ED90FC90FF0CCC08DC2C7601E617E3
:102C2000F7070CF0D5C0DF01A00FB11F9B01A6175D
:102C3000B7070CF49D018A010F711127DF01AA0F5C
:102C4000BB1FAA0FBB1F01151105F1F40D851E85D1
:102C50000A0F1B1F8B859C8550E040E0BA016E0F68
:102C60007F1F621773070CF05DC0D8018D909D9097
:102C7000AD90BD908D01DC018D929D92AD92BD9283
:102C8000CD014F5F5F4FEACF6D847E846A0E7B1E5D
:102C90007C826B82D3014D905D906D907C90AB8473
:102CA000BC84BA82A98250E040E0A0E2B0E0CD014D
:102CB000801B910B9E838D8353014201002E04C023
:102CC000B694A794979487940A94D2F74F5F5F4F76
:102CD000DF01A40FB51FA217B30784F1D701C60106
:102CE000261737076CF4220F331F220F331FED8591
:102CF000FE852E0F3F1FF90180819181A281B38152
:102D00000D8004C0880F991FAA1FBB1F0A94D2F719
:102D100088299929AA29BB29E981FA81808391838D
:102D2000A283B3839A01220F331F220F331F6B84B8
:102D30007C84620E731E7A8269822EC0DA01AA0F29
:102D4000BB1FAA0FBB1F6B807C80A60DB71D4D90CB
:102D50005D906D907C90D301C2010D8004C0880FFE
:102D6000991FAA1FBB1F0A94D2F7882A992AAA2A58
:102D7000BB2AA981BA818D929D92AD92BD92BA83F0
:102D8000A9839ACFE981FA81C192D192E192F1921D
:102D9000FA83E9834F5F5F4F421553059CF32E96EC
:102DA0000FB6F894DEBF0FBECDBFDF91CF911F915C
:102DB0000F91FF90EF90DF90CF90BF90AF909F90DA
:102DC0008F907F906F905F904F903F902F900895DD
:102DD00050E040E0A7CFFC0191E08091BC0481115C
:102DE00090E092830895E0915504F091560480910B
:102DF000B20E9091B30EA091B40EB091B50E808337
:102E00009183A283B38308952F923F924F925F9252
:102E10006F927F928F929F92AF92BF92CF92DF92EA
:102E2000EF92FF920F931F93CF93DF93CDB7DEB74F
:102E3000C055D1090FB6F894DEBF0FBECDBFE090EC
:102E4000C504F090C60421E0E216F10409F002C1C5
:102E500060918C0470918D0480918E0490918F0408
:102E60006F5F7F4F8F4F9F4F0E9436492091900494
:102E70003091910440919204509193040E94C34A6E
:102E80006093D7037093D8038093D9039093DA03A8
:102E90008091BC048F5F8A30D8F48093BC04809109
:102EA0007D0F90917E0FA0917F0FB091800F2196A2
:102EB0008CAF9DAFAEAFBFAF219780916A0F8823D3
:102EC00009F4E1C0813009F4E2C080916C0FDCC0EC
:102ED0001092BC0420917D0F30917E0F40917F0FA6
:102EE0005091800F21962CAF3DAF4EAF5FAF219731
:102EF000EA94EF2811F3C0903C02D0903D02E0909C
:102F00003E02F0903F02A70196016091FC0E709185
:102F1000FD0E8091FE0E9091FF0E0E94994888232D
:102F200041F0C092FC0ED092FD0EE092FE0EF092A7
:102F3000FF0E66E370E080E090E00E942F05909322
:102F4000FB0E8093FA0E43E050E0BE01635E7F4FBC
:102F50000E941E052091780230917902AD8DBE8DC0
:102F60000E94C3530E94364920E030E040E057E31E
:102F70000E94C34A6B017C01C0928E0ED0928F0ECC
:102F8000E092900EF092910E8091C5049091C6044B
:102F9000019709F067C680917C0F81112AC181E0F9
:102FA00080937C0F81E090E0A0E0B0E08093660F1A
:102FB0009093670FA093680FB093690F1092C60E9D
:102FC0001092C70E1092C80E1092C90E1092CA0E1F
:102FD0001092CB0E1092CC0E1092CD0E8DEC9CEC7C
:102FE000ACE4B1E48093380F9093390FA0933A0F7B
:102FF000B0933B0F80E090E0A0E0B3E480933C0FFF
:1030000090933D0FA0933E0FB0933F0F80905C02D2
:1030100090905D02A0905E02B0905F028092920E4E
:103020009092930EA092940EB092950EC090C60E00
:10303000D090C70EE090C80EF090C90E80917B0F23
:10304000811131C581E080937B0F81E090E0A0E0A9
:10305000B0E04AC5E114F10411F00C948E23E09124
:103060000704F09108040190F081E02D80819181A6
:10307000A281B381E091C804F091C9048083918357
:10308000A283B38327CF81E080936B0F02C010929D
:103090006B0F80916B0F8823E1F08091140F90915A
:1030A000150FA091160FB091170F8093760E909385
:1030B000770EA093780EB093790E8FEF80936B0FFD
:1030C00080916D0F882371F0813081F080916F0FB6
:1030D0000AC08091100F9091110FA091120FB09122
:1030E000130FE3CF81E080936E0F02C010926E0F3A
:1030F00080916E0F8823E1F080911C0F90911D0F3D
:10310000A0911E0FB0911F0F80937A0E90937B0EAB
:10311000A0937C0EB0937D0E8FEF80936E0F809105
:10312000700F882371F0813081F08091720F0AC096
:103130008091180F9091190FA0911A0FB0911B0F49
:10314000E3CF81E08093710F02C01092710F8091E4
:10315000710F882309F444C08091240F9091250FAA
:10316000A091260FB091270F80937E0E90937F0E33
:10317000A093800EB093810E8FEF8093710F80919A
:10318000500290915102A0915202B091530280934B
:10319000820E9093830EA093840EB093850E80913F
:1031A000540290915502A0915602B091570280931B
:1031B000860E9093870EA093880EB093890E80910F
:1031C000580290915902A0915A02B0915B028093EB
:1031D0008A0E90938B0EA0938C0EB0938D0E8BCE97
:1031E0008091200F9091210FA091220FB091230F79
:1031F000BBCF8091660F9091670FA091680FB0913F
:10320000690F83309105A105B10509F421C108F0CA
:103210005BC081309105A105B10509F495C0029705
:10322000A105B10509F4BBC080908A0E90908B0E69
:10323000A0908C0EB0908D0E20E030E040E251E482
:10324000C501B4010E94894A18160CF41DC220E081
:1032500030E040E251E46091820E7091830E8091E3
:10326000840E9091850E0E94994818160CF010C19A
:103270004090860E5090870E6090880E7090890E58
:1032800020E030E040E251E4C301B2010E949948DD
:1032900018160CF4EDC385E090E0A0E0B0E0809358
:1032A000660F9093670FA093680FB093690FC0905B
:1032B0003C0FD0903D0FE0903E0FF0903F0FA501E6
:1032C0009401C301B201A4C385309105A105B105E4
:1032D00009F409C308F49CC10697A105B10509F0DA
:1032E000A3CF8090860E9090870EA090880EB0900D
:1032F000890E20E030E040E251E4C501B4010E94B3
:10330000894A18160CF4C0C140908A0E50908B0E5A
:1033100060908C0E70908D0E20E030E040E251E421
:10332000C301B2010E94994818160CF480C385E0CD
:1033300090E0A0E0B0E08093660F9093670FA093B9
:10334000680FB093690F58C320E030E040E85FE3B6
:1033500060917A0E70917B0E80917C0E90917D0E23
:103360000E94994881112ACE82E090E0A0E0B0E06E
:103370008093660F9093670FA093680FB093690FC7
:10338000C092C60ED092C70EE092C80EF092C90E3F
:10339000A701960160E070E080E893E481C220E03C
:1033A00030E0A90160917A0E70917B0E80917C0EC5
:1033B00090917D0E0E949948811109C01092CE0E05
:1033C0001092CF0E1092D00E1092D10EEBCD20E0C5
:1033D00030E040E85FE360917E0E70917F0E809157
:1033E000800E9091810E0E9499488111C9CF80E092
:1033F00090E0A0E0B3E480933C0F90933D0FA09346
:103400003E0FB0933F0F1092CE0E1092CF0E10923F
:10341000D00E1092D10E43E050E060E070E0409397
:10342000660F5093670F6093680F7093690F8093D6
:10343000C60E9093C70EA093C80EB093C90E80938A
:10344000CA0E9093CB0EA093CC0EB093CD0EDECDD2
:1034500020E030E0A90160917E0E70917F0E809196
:10346000800E9091810E0E949948882309F47CCFA8
:1034700020E030E040E251E46091820E7091830ED2
:103480008091840E9091850E0E94994818164CF1F7
:1034900084E090E0A0E0B0E08093660F9093670F27
:1034A000A093680FB093690F1092C60E1092C70ECA
:1034B0001092C80E1092C90E1092CA0E1092CB0E26
:1034C0001092CC0E1092CD0E80E090E0A0E8BFE309
:1034D0008093CE0E9093CF0EA093D00EB093D10ECA
:1034E00095CD80908A0E90908B0EA0908C0EB0900F
:1034F0008D0EC0903C0FD0903D0FE0903E0FF090AD
:103500003F0F20E030E040E251E4C501B4010E94E9
:1035100099481816ACF187E090E0A0E0B0E0809305
:10352000660F9093670FA093680FB093690FA50182
:10353000940160E070E080E291E40E9434482091C0
:10354000380F3091390F40913A0F50913B0F0E9444
:10355000C34A4B015C01AC019B01C701B6010E944B
:1035600034486093C60E7093C70E8093C80E909334
:10357000C90EA7019601C501B4010E94354892C148
:103580008090860E9090870EA090880EB090890E45
:1035900020E030E040E251E4C501B4010E949948C6
:1035A00018162CF186E090E0A0E0B0E08093660F62
:1035B0009093670FA093680FB093690FA5019401D2
:1035C00060E070E080E291E40E9434482091380F7E
:1035D0003091390F40913A0F50913B0F0E94C34AEE
:1035E0004B015C01A7019601C501B4014BC1C0921A
:1035F000C60ED092C70EE092C80EF092C90EC092CD
:10360000CA0ED092CB0EE092CC0EF092CD0EFECC34
:103610008090860E9090870EA090880EB090890EB4
:1036200040908A0E50908B0E60908C0E70908D0E94
:1036300020E030E040E251E4C501B4010E94894A33
:103640001816BCF520E030E040E251E4C301B201BD
:103650000E94894A18166CF520E030E040E251E4FF
:103660006091820E7091830E8091840E9091850EF0
:103670000E94894A1816ECF41092CE0E1092CF0ECA
:103680001092D00E1092D10E83E090E0A0E0B0E056
:103690008093660F9093670FA093680FB093690FA4
:1036A00080913C0F90913D0FA0913E0FB0913F0F44
:1036B000BECE20E030E040E251E4C501B4010E94FA
:1036C000994820E030E040E251E418160CF459C06B
:1036D000C301B2010E94994818160CF48EC020E074
:1036E00030E040E251E46091820E7091830E80914F
:1036F000840E9091850E0E94894A18160CF047C0DE
:103700001092CE0E1092CF0E1092D00E1092D10EBB
:1037100085E090E0A0E0B0E08093660F9093670FA3
:10372000A093680FB093690FA3019201C501B40182
:103730000E9434482091380F3091390F40913A0F50
:1037400050913B0F0E94C34A4B015C01C0903C0F5B
:10375000D0903D0FE0903E0FF0903F0FA5019401F7
:10376000C701B6010E9434486093C60E7093C70E1D
:103770008093C80E9093C90EA5019401C701B601AC
:10378000FCCEC301B2010E94994818165CF120E0FA
:1037900030E040E251E46091820E7091830E80919E
:1037A000840E9091850E0E94894A1816DCF41092BE
:1037B000CE0E1092CF0E1092D00E1092D10E87E046
:1037C00090E0A0E0B0E08093660F9093670FA09325
:1037D000680FB093690FA301920160E070E080E28E
:1037E00091E4A6CF20E030E040E251E4C501B4010D
:1037F0000E94994818160CF45EC020E030E040E2C8
:1038000051E46091820E7091830E8091840E9091AC
:10381000850E0E94894A18160CF04DC01092CE0EEB
:103820001092CF0E1092D00E1092D10E86E090E042
:10383000A0E0B0E08093660F9093670FA093680FAD
:10384000B093690FA501940160E070E080E291E41B
:103850000E9434482091380F3091390F40913A0F2F
:1038600050913B0F0E94C34A4B015C01C0903C0F3A
:10387000D0903D0FE0903E0FF0903F0FAC019B01C8
:10388000C701B6010E9435486093C60E7093C70EFB
:103890008093C80E9093C90EA5019401C701B6018B
:1038A0000E9434486093CA0E7093CB0E8093CC0E66
:1038B0009093CD0EABCB20E030E0A90160917E0E5D
:1038C00070917F0E8091800E9091810E0E94994898
:1038D0008111EACD1092CE0E1092CF0E1092D00E22
:1038E0001092D10E41CD20E030E040E251E46091F1
:1038F000820E7091830E8091840E9091850E0E94AD
:10390000994818160CF0C4CD40908A0E50908B0E3A
:1039100060908C0E70908D0E8090860E9090870E29
:10392000A090880EB090890E20E030E040E251E493
:10393000C301B2010E94894A18164CF586E090E056
:10394000A0E0B0E08093660F9093670FA093680F9C
:10395000B093690FA501940160E070E080E291E40A
:103960000E9434482091380F3091390F40913A0F1E
:1039700050913B0F0E94C34A4B015C01C0903C0F29
:10398000D0903D0FE0903E0FF0903F0F2BCE20E007
:1039900030E040E251E4C501B4010E94894A1816A2
:1039A000DCF487E090E0A0E0B0E08093660F9093B5
:1039B000670FA093680FB093690FC0903C0FD09031
:1039C0003D0FE0903E0FF0903F0FA301920160E0A9
:1039D00070E080E291E41CC020E030E0A901609139
:1039E0007E0E70917F0E8091800E9091810E0E94CC
:1039F0009948882309F4B8CCC0903C0FD0903D0F73
:103A0000E0903E0FF0903F0FA3019201C501B40179
:103A10000E9434482091380F3091390F40913A0F6D
:103A200050913B0F0E94C34A4B015C0197CE20E0AE
:103A300030E040E251E46091820E7091830E8091FB
:103A4000840E9091850E0E94994818160CF020CD96
:103A500020E030E0A90160917E0E70917F0E809190
:103A6000800E9091810E0E949948811173CF7CCC79
:103A700020E030E0A90160917E0E70917F0E809170
:103A8000800E9091810E0E949948882309F46CCC95
:103A9000C0903C0FD0903D0FE0903E0FF0903F0F54
:103AA000A501940194CF8091620F9091630FA09132
:103AB000640FB091650F81309105A105B105A9F1A1
:103AC0000297A105B10509F4BEC120E030E040E253
:103AD00051E4C501B4010E94894A18160CF0F3C1E3
:103AE00082E090E0A0E0B0E08093620F9093630FDB
:103AF000A093640FB093650FC092960ED092970E6C
:103B0000E092980EF092990E8091CA0E9091CB0E91
:103B1000A091CC0EB091CD0E8093C20E9093C30EA7
:103B2000A093C40EB093C50E34C08090CA0E90907E
:103B3000CB0EA090CC0EB090CD0E20E030E040E84F
:103B40005FE36091760E7091770E8091780E909180
:103B5000790E0E94994881110CC082E090E0A0E0AB
:103B6000B0E08093620F9093630FA093640FB093C3
:103B7000650FC092960ED092970EE092980EF0923A
:103B8000990E8092C20E9092C30EA092C40EB09273
:103B9000C50E10926E0E10926F0E1092700E109253
:103BA000710E1092720E1092730E1092740E10928B
:103BB000750E8091180290911902A0911A02B0918D
:103BC0001B028D879E87AF87B88B80915A0F90918B
:103BD0005B0FA0915C0FB0915D0F89839A83AB83DB
:103BE000BC8362E0E62EF12C0EE61EE021E030E020
:103BF000AE014F5F5F4F61E070E0CE010D960E9415
:103C00005E09C090960ED090970EE090980EF090BE
:103C1000990E50E040E062E070E0C8010E94F20BB3
:103C200020E030E040E05FE20E94C34A9B01AC012B
:103C3000C701B6010E9434484B015C01AC019B01F5
:103C40006091040270910502809106029091070232
:103C50000E94C34A60939A0E70939B0E80939C0EB1
:103C600090939D0E20919A0E30919B0E40919C0E48
:103C700050919D0E21966CAD7DAD8EAD9FAD21977F
:103C80000E9435486B017C01C0929E0ED0929F0E1F
:103C9000E092A00EF092A10E40906002509061025E
:103CA0006090620270906302A30192010E94894AAF
:103CB00018160CF018C14092A20E5092A30E6092FA
:103CC000A40E7092A50E2091080230910902409135
:103CD0000A0250910B0260E070E08FE793E40E94CB
:103CE0009D482091A20E3091A30E4091A40E5091B8
:103CF000A50E0E94C34A0E9473496B017C010E9479
:103D00004528811109C1C701B6010E94002881110F
:103D100003C120E030E040E853E4C701B6010E944F
:103D20008D496B017C0120E030E0A9010E94994897
:103D300087FFF5C0C701B60190580E940A496195F6
:103D40006093E20E70E090E080E00E94364960935C
:103D5000A60E7093A70E8093A80E9093A90E2091A3
:103D6000C5043091C6042130310581F41092AA0EA9
:103D70001092AB0E1092AC0E1092AD0E6093AE0E80
:103D80007093AF0E8093B00E9093B10E6BE070E025
:103D900080E090E00E943B038C019093070F80939A
:103DA000060F6091E20E70E090E080E00E943649DC
:103DB000AB01BC01C8010E9404038091C50490912D
:103DC000C604019709F0FDC0A501940160910002AD
:103DD0007091010280910202909103020E94C34AF5
:103DE0006093B20E7093B30E8093B40E9093B50EA1
:103DF0008091C20E9091C30EA091C40EB091C50ED9
:103E00008093B60E9093B70EA093B80EB093B90EF0
:103E10008091CE0E9091CF0EA091D00EB091D10E88
:103E20008093E30E9093E40EA093E50EB093E60E1C
:103E30008091730F882309F477C0813009F478C02A
:103E40008091750F72C020E030E0A9016091760E7C
:103E50007091770E8091780E9091790E0E9499481A
:103E6000882309F4F2C820E030E040E251E4C501C3
:103E7000B4010E94994818160CF43ECE83E090E0FD
:103E8000A0E0B0E08093620F9093630FA093640F63
:103E9000B093650F2AE939E949E95FE3C701B60143
:103EA0000E94C34A6093960E7093970E8093980E6B
:103EB0009093990E6093C20E7093C30E8093C40EBC
:103EC0009093C50E66CE20E030E0A9016091760E99
:103ED0007091770E8091780E9091790E0E9499489A
:103EE0008111D8CFB2C840906402509065026090B2
:103EF000660270906702A3019201C701B6010E9499
:103F0000994887FDD8CEC092A20ED092A30EE0921F
:103F1000A40EF092A50ED7CEC12CD12C7601C701EC
:103F2000B6010E940A490CCF81E08093740F02C051
:103F30001092740F8091740F8823E1F080912C0F00
:103F400090912D0FA0912E0FB0912F0F8093BA0E4C
:103F50009093BB0EA093BC0EB093BD0E8FEF8093D9
:103F6000740F8091760F882371F0813081F08091F9
:103F7000780F0AC08091280F9091290FA0912A0FE5
:103F8000B0912B0FE3CF81E08093770F02C01092A6
:103F9000770F8091770F882309F4E9C28091340F5D
:103FA0009091350FA091360FB091370F8093BE0ED0
:103FB0009093BF0EA093C00EB093C10E8FEF80936D
:103FC000770FC0903802D0903902E0903A02F0901A
:103FD0003B02A70196016091EF0E7091F00E809167
:103FE000F10E9091F20E0E949948882341F0C09200
:103FF000EF0ED092F00EE092F10EF092F20E809160
:10400000EE0E81111092EE0EBE016B5E7F4F80911D
:10401000F30E0E94E2028091C5049091C6040197BC
:1040200009F05AC08D899E89AF89B88D25968CAFCD
:104030009DAFAEAFBFAF259780915E0F90915F0FA0
:10404000A091600FB091610F25962CAD3DAD4EADA6
:104050005FAD2597281B390B4A0B5B0BDA01C901B1
:104060008093DA0E9093DB0EA093DC0EB093DD0EFE
:1040700040917402509175026091760270917702BE
:104080004D875E876F87788B89839A83AB83BC83E8
:1040900052E0E52EF12C06E61EE021E030E0AE0114
:1040A0004F5F5F4F61E070E0CE010D960E945E09A8
:1040B0002091DA0E3091DB0E4091DC0E5091DD0E36
:1040C000A4E6B0E00E94D2536093DE0E7093DF0E40
:1040D0008093E00E9093E10E8091C5049091C60408
:1040E000019709F0A3C06091DE0E7091DF0E809100
:1040F000E00E9091E10E22E030E0AE014B5E5F4FAA
:104100000E94B80D02E010E09E01235D3F4F4EE19A
:1041100050E062E070E0CE0145960E949E0C8091D6
:10412000100290911102A0911202B091130289AF76
:104130009AAFABAFBCAF80915A0F90915B0FA0913B
:104140005C0FB0915D0F8DAB9EABAFABB8AF42E0F3
:10415000E42EF12C8E010B5E1F4F21E030E0AE010A
:104160004B5C5F4F61E070E0CE01C9960E945E0932
:1041700022E030E0AE014B5D5F4FB801CE018D967D
:104180000E94CE0D80910C0290910D02A0910E0222
:10419000B0910F02892B8A2B8B2B09F0FEC142E0D4
:1041A00050E062EC72E0CE0185960E94D215882321
:1041B00009F4E6C188E0EAEBF2E0DE015D960190E9
:1041C0000D928A95E1F702E010E09E01235F3F4FD8
:1041D0004EE150E062E070E0CE014D960E94D915AC
:1041E0008D859E85AF85B88980935A0F90935B0F1C
:1041F000A0935C0FB0935D0F25968CAD9DADAEADD9
:10420000BFAD259780935E0F90935F0FA093600FD3
:10421000B093610F40918C0450918D0460918E0495
:1042200070918F0481E090E00E941A07A091C5046C
:10423000B091C6042D96BFAFAEAF2D97119709F080
:1042400053C2E0910704F09108040190F081E02D41
:10425000208131814281538129962CAF3DAF4EAFF1
:104260005FAF29978091D7039091D803A091D9038C
:10427000B091DA0361968CAF9DAFAEAFBFAF6197DF
:10428000E091DB03F091DC03C080D180E280F38019
:10429000E0910B04F0910C04A081B181BEAFADAFF1
:1042A000E091CF03F091D00320803180028113810F
:1042B0002481358123963FAF2EAF239746815781C6
:1042C0002B965FAF4EAF2B97E091CD03F091CE03CD
:1042D0001182108284E0FD01D10101900D928A9536
:1042E000E1F7E0910504F0910604118300830E9438
:1042F000F31620E030E040E05FE3C701B6010E9422
:10430000C34A2B013C01D8012D913D914D915C9107
:104310000E94C34AF10120813181428153810E9470
:104320003548ADADBEAD6D937D938D939C93139742
:10433000E0910704F0910804A080B180A3019201EC
:1043400029966CAD7DAD8EAD9FAD29970E94354805
:10435000F5016083718382839383E0910504F0917A
:10436000060423962EAD3FAD2397318320830E9410
:1043700004170E94F31620E030E040E45FE3C70139
:10438000B6010E94C34A2B013C0120E030E0A901A4
:10439000C701B6010E94C34AD8012D913D914D91AC
:1043A0005C910E94C34A4B015C012396EEADFFADC8
:1043B00023972081318142815381C301B2010E9440
:1043C000C34A9B01AC01C501B4010E943548D1012B
:1043D0002D913D914D915C910E943548EDADFEAD22
:1043E0006083718382839383E0910704F0910804D2
:1043F000A080B180A301920129966CAD7DAD8EADF8
:104400009FAD29970E943548D5016D937D938D937B
:104410009C931397E0910504F09106042B962EAD22
:104420003FAD2B97318320830E9404170E94F3161F
:1044300029E33EE843E65EE3C701B6010E94C34AB2
:10444000D8012D913D914D915C910E94C34A4B0141
:104450005C012BEA3AEA4AEA5EE3C701B6010E9430
:10446000C34A2396EEADFFAD23972081318142816F
:1044700053810E94C34A9B01AC01C501B4010E9453
:1044800035484B015C0129E33EE843EE5EE3C7019A
:10449000B6010E94C34A2B96AEADBFAD2B972D91AE
:1044A0003D914D915C910E94C34A9B01AC01C501B5
:1044B000B4010E943548F10120813181428153814C
:1044C0000E943548ADADBEAD6D937D938D939C93A9
:1044D0001397E0910704F09108040190F081E02D1A
:1044E00061962CAD3DAD4EAD5FAD619720833183BC
:1044F00042835383E091CD03F091CE032D964EADD0
:104500005FAD2D975183408380918C0490918D04F1
:10451000A0918E04B0918F040196A11DB11D8093CE
:104520008C0490938D04A0938E04B0938F044091DB
:10453000D7035091D8036091D9037091DA03E091C9
:10454000C804F091C904408351836283738320912E
:10455000A004222309F47AC0213009F47BC021E0B1
:104560003091A204332309F472C020E070C080911E
:10457000300F9091310FA091320FB091330F16CDC3
:104580001D8E1E8E1F8E18A280E090E0A0E0B0E885
:1045900089A39AA3ABA3BCA316CE23E030E042E4E8
:1045A0005EE062E070E0CE0185960E94330E03E08B
:1045B00010E026E33EE04EE150E063E070E082E48C
:1045C0009EE00E949E0C60910C0270910D02809101
:1045D0000E0290910F0223E030E042E45EE00E9480
:1045E000B80D1F9283E08F939E012F5F3F4F3F9343
:1045F0002F931F928F938AE5882E8EE0982E93E05A
:10460000A92EB12C2EE4C22E2EE0D22E34E0E32EC1
:10461000F12C06E21EE023E030E042E45EE063E0DD
:1046200070E086E39EE00E94521422E030E0AE018A
:10463000435E5F4F64E070E0C8010E94330E0F904C
:104640000F900F900F900F900F90BDCD21E0209311
:10465000A10402C01092A1042091A10454E0259F5E
:10466000F0011124ED55FB4F80839183A283B38326
:104670002093A2042FEF2093A1042091AF042223C2
:1046800049F0213059F021E03091B104332319F081
:1046900020E001C021E02093B00402C01092B004D9
:1046A0002091B00434E0239FF0011124EE54FB4F1D
:1046B00080839183A283B3832093B1048FEF80938F
:1046C000B0048091940490919504A0919604B091C7
:1046D00097040196A11DB11D8093940490939504B5
:1046E000A0939604B0939704C05BDF4F0FB6F89485
:1046F000DEBF0FBECDBFDF91CF911F910F91FF9015
:10470000EF90DF90CF90BF90AF909F908F907F9071
:104710006F905F904F903F902F90089580917D0F04
:1047200090917E0FA0917F0FB091800F21968CAF5A
:104730009DAFAEAFBFAF21970C947B170F93CF9374
:10474000DF9300D01F92CDB7DEB78091530F811158
:104750001092530F0AE025E344E361E0CE01019695
:104760000E94AB0580914E0F811110924E0F0AE00E
:104770002FE24EE261E0CE0101960E94AB058091EE
:10478000490F81111092490F0AE023E342E361E0EF
:10479000CE0101960E94AB058091440F81111092C9
:1047A000440F0AE021E340E361E0CE0101960E945C
:1047B000AB058091980490919904A0919A04B091CE
:1047C0009B040196A11DB11D8093980490939904B8
:1047D000A0939A04B0939B040F900F900F900F90AA
:1047E000DF91CF910F9108958F929F92AF92BF92D8
:1047F000EF92FF920F931F93CF9384E090E0C9D381
:1048000087EC93E025EC34E03093CE032093CD0386
:1048100028EC34E0309308042093070420E934E0C6
:104820003093DC032093DB0325E534E0309306046A
:10483000209305042FE434E030930C0420930B0400
:1048400024E834E030930A042093090426E834E095
:1048500030930E0420930D0421E534E030931004CE
:1048600020930F0423E534E03093120420931104C5
:1048700027E534E030934E0420934D0490933204A6
:10488000809331049093CC038093CB0381E090E03C
:104890009093C6048093C5048CE594E090936D04D6
:1048A00080936C0480E694E090936F0480936E0490
:1048B00084E694E0909371048093700488E694E019
:1048C00090937304809372048DE79FE0909350045B
:1048D00080934F0487EE9EE0909358048093570492
:1048E0001092BD041092BE041092BF041092C00436
:1048F0008CE694E09093D0038093CF031092480409
:1049000084EB92E09093D2038093D1032AEC34E0BD
:104910003093C9042093C80480E090E0A0E8BFEB86
:104920008093C1049093C204A093C304B093C404C1
:104930008AE097EDA3E2BCE3809390049093910406
:10494000A0939204B093930485EF93E2A7EABDE1AC
:104950008093740490937504A0937604B0937704C5
:1049600085E996EBA5EEBFEB8093780490937904EC
:10497000A0937A04B0937B0481E39DECA3E4B2E6B8
:1049800080937C0490937D04A0937E04B0937F0475
:104990008EE195E1A1EEBAE48093800490938104C6
:1049A000A0938204B09383048BEB93E09093CA03AB
:1049B0008093C90383EA93E09093BC038093BB0385
:1049C00089EB92E09093A4038093A3034AE75FE00E
:1049D0005093A6034093A50349E75FE05093A803D3
:1049E0004093A7039093AA038093A9039093AC03E9
:1049F0008093AB039093AE038093AD039093B00389
:104A00008093AF039093B2038093B1039093B40368
:104A10008093B3039093B6038093B5039093B80348
:104A20008093B7039093BA038093B9038AE894E024
:104A30009093C0038093BF0384E794E09093BE03F8
:104A40008093BD033093C2032093C1038FEF809303
:104A5000A1041092A2048093AF048093B00410923A
:104A6000B1044091500250915102609152027091F4
:104A700053024093820E5093830E6093840E709382
:104A8000850E4091540250915502609156027091EA
:104A900057024093860E5093870E6093880E709352
:104AA000890E409158025091590260915A027091BA
:104AB0005B0240938A0E50938B0E60938C0E709322
:104AC0008D0E40915C0250915D0260915E0270918A
:104AD0005F024093920E5093930E6093940E7093E6
:104AE000950E4091400250914102609142027091B6
:104AF000430240937D0F50937E0F60937F0F70931E
:104B0000800F40914402509145026091460270919D
:104B100047024093100F5093110F6093120F709340
:104B2000130F80936A0F80936B0F4091480250914E
:104B3000490260914A0270914B024093180F5093C2
:104B4000190F60931A0F70931B0F80936D0F809352
:104B50006E0F40914C0250914D0260914E02709147
:104B60004F024093200F5093210F6093220F7093B8
:104B7000230F8093700F8093710F409170025091BA
:104B80007102609172027091730240935A0F5093B8
:104B90005B0F60935C0F70935D0F409168025091C2
:104BA000690260916A0270916B024093280F5093E2
:104BB000290F60932A0F70932B0F8093730F8093AC
:104BC000740F40916C0250916D0260916E02709171
:104BD0006F024093300F5093310F6093320F7093F8
:104BE000330F8093760F8093770F40911C02509182
:104BF0001D0260911E0270911F0240935E0F509340
:104C00005F0F6093600F7093610F4091A304509108
:104C1000A4046091A5047091A60440939C04509351
:104C20009D0460939E0470939F048093A0048091E0
:104C3000280290912902A0912A02B0912B02809320
:104C40000C0F90930D0FA0930E0FB0930F0F809148
:104C5000200290912102A0912202B0912302809320
:104C6000D60E9093D70EA093D80EB093D90E43E0F2
:104C700050E06BEA77E080E00E94274B8091B0041F
:104C8000882329F0813039F08091B10401C081E09E
:104C90008093AF0402C01092AF04E091AF0484E0AF
:104CA000E89FF0011124EE54FB4F80819181A28195
:104CB000B3818093AB049093AC04A093AD04B09304
:104CC000AE048FEF8093AF0480913402909135024F
:104CD000A0913602B09137028093080F9093090F8C
:104CE000A0930A0FB0930B0F80912C0290912D028C
:104CF000A0912E02B0912F028093D20E9093D30EEA
:104D0000A093D40EB093D50E43E050E06DE678E06A
:104D100081E00E94274B1092F40E80913C0290910A
:104D20003D02A0913E02B0913F028093FC0E909311
:104D3000FD0EA093FE0EB093FF0E812C912C54011A
:104D400083948092F50E9092F60EA092F70EB09298
:104D5000F80E66E370E080E090E00E9473059093A7
:104D6000FB0E8093FA0EC1E0C093F90E1092000F73
:104D70008092010F9092020FA092030FB092040F45
:104D8000E12CF12C8701A80197016BE070E080E035
:104D900090E00E947F039093070F8093060FC093CB
:104DA000050F1092F30E1092E80E80913802909148
:104DB0003902A0913A02B0913B028093EF0E90939A
:104DC000F00EA093F10EB093F20E8092E90E909245
:104DD000EA0EA092EB0EB092EC0E43EF5EE065E1BE
:104DE00084E10E94D901C093ED0E1092EE0E8091E5
:104DF000F30E0E94F40280924F0F9092500FA092F7
:104E0000510FB092520F65E384E30E94A105109206
:104E1000530F80924A0F90924B0FA0924C0FB0927A
:104E20004D0F6FE28EE20E94A10510924E0F80920C
:104E3000450F9092460FA092470FB092480F63E340
:104E400082E30E94A1051092490F8092400F909238
:104E5000410FA092420FB092430F61E380E30E94A2
:104E6000A1051092440FCF911F910F91FF90EF90E9
:104E7000BF90AF909F908F9008958091F40E811114
:104E80001FC081E08093F40E8091F50E9091F60E94
:104E9000A091F70EB091F80E0197A105B10581F42C
:104EA0008091F90E882361F066E370E080E090E085
:104EB0000E942F059093FB0E8093FA0E0E94960598
:104EC0008091000F81112EC081E08093000F8091AE
:104ED000010F9091020FA091030FB091040F019761
:104EE000A105B105F9F48091050F8823D9F06BE095
:104EF00070E080E090E00E943B039093070F809366
:104F0000060F40E050E0BA010E9404036BE070E03D
:104F100080E090E00E943B039093070F8093060F80
:104F20000E94D0038091E80E811114C081E080932B
:104F3000E80E8091E90E9091EA0EA091EB0EB091EF
:104F4000EC0E0197A105B10529F48091ED0E8111B8
:104F50000C940103089560E070E080E89FE70895F5
:104F600060E070E080E89FE7089560E070E080E82E
:104F70009FEF089560E070E080E89FEF089560E0A3
:104F800070E080EC9FEF089560E070E080EC9FEFB0
:104F90000895F5DF60938D0F70938E0F80938F0FC0
:104FA0009093900FF1DF6093810F7093820F809345
:104FB000830F9093840FCFDF6093890F70938A0FD4
:104FC00080938B0F90938C0FCBDF6093850F709342
:104FD000860F8093870F9093880FC7DF6093910FA0
:104FE0007093920F8093930F9093940FC3DF60930D
:104FF000950F7093960F8093970F9093980F089545
:10500000CF92DF92EF92FF92CF936B017C01AC01C4
:105010009B016091890F70918A0F80918B0F909105
:105020008C0F0E949948C1E0882371F0A701960176
:105030006091910F7091920F8091930F9091940FC6
:105040000E9499488111C0E08C2FCF91FF90EF9082
:10505000DF90CF9008950F931F938B019C01002741
:10506000112720783F770115110520483F4749F463
:10507000AB01BC016F77772781E0452B462B472B8F
:1050800009F480E01F910F910895E5CF4F925F9250
:105090006F927F928F929F92AF92BF92CF92DF9248
:1050A000EF92FF920F931F93F8944090EA04509070
:1050B000EB046090EC047090ED04C090DE04D0909E
:1050C000DF04E090E004F090E1044130510509F084
:1050D000A4C09B01AC0124193509460957092901CF
:1050E0003A010091E6041091E7042091E804309120
:1050F000E90448015901840C951CA61CB71C8016B4
:105100009106A206B306A0F40091E2041091E30414
:105110002091E4043091E5040F5F1F4F2F4F3F4F64
:105120000093E2041093E3042093E4043093E50435
:105130008092E6049092E704A092E804B092E90419
:105140000091E2041091E3042091E4043091E5041D
:105150008092EE049092EF04A092F004B092F104D9
:105160000093F2041093F3042093F4043093F504B5
:105170006093EA047093EB048093EC049093ED0445
:10518000A0E1B7E2A30192010E94D2536C0D7D1DF4
:105190008E1D9F1D6093DE047093DF048093E004F6
:1051A0009093E10400917A0210917B0220917C029D
:1051B00030917D020F3F1F4F2F4F3F4FF1F0009175
:1051C0007A0210917B0220917C0230917D020E3F89
:1051D0001F4F2F4F3F4F89F0C0907A02D0907B0233
:1051E000E0907C02F0907D0221E08C149D04AE04DE
:1051F000BF0408F420E02093FA0478941F910F91E3
:10520000FF90EF90DF90CF90BF90AF909F908F90E6
:105210007F906F905F904F9008954B015C018418D0
:105220009508A608B708A3019201261B370B480B67
:10523000590B6415750586059705D0F082169306FF
:10524000A406B50640F420E030E0A90181149104E1
:10525000A104B10491F4A0E1B7E20E94D253A701E6
:105260009601261B370B480B590BCA01B901C5CF54
:1052700082169306A406B50670F7A0E1B7E2A50171
:1052800094010E94D2536C0D7D1D8E1D9F1DB5CFC4
:10529000FDCECF93DF9300D01F92CDB7DEB71C8237
:1052A0001B821A8219821092F6041092F70410924F
:1052B000F8041092F904BE016F5F7F4FCE01039690
:1052C0000E94284669817A818B819C810E94463F99
:1052D000009761F4BE016F5F7F4FCE0103960E947D
:1052E000344669817A818B819C812FD50F900F90F4
:1052F0000F900F90DF91CF910895FF920F931F931E
:10530000CF93DF93082F60E070E0CB010E94684DDF
:10531000FF24F3940E942F3EEC01892B89F010E0CA
:10532000CE3F8FEFD80769F0002361F160E070E0B5
:10533000CB010E94684D81E090E0892B59F322C097
:1053400011E026D5EC01892B21F0CE3F8FEFD80755
:1053500059F711111EC011E0229609F410E00E94C5
:10536000DF3DEC01892B21F0CE3F8FEFD807E1F62E
:10537000111111C011E0CE3F8FEFD80709F410E0F2
:1053800001110BC0CE01DF91CF911F910F91FF90C2
:10539000089511E0E4CF11E0F3CF60E070E0CB01BD
:1053A0000E94684D1F25812F90E0C7CFCF93DF93D8
:1053B0008091FA04882321F060E070E0CB014DD6A3
:1053C00036D6D0E0C0E0892B71F06AE070E080E072
:1053D00090E00E94684D81E090DF29D62196C03D83
:1053E00027E0D20781F728D60E949A3F1092120533
:1053F0001092110510920B0510920C0510920D05DC
:1054000010920E05109207051092080510920905DA
:1054100010920A05109203051092040510920505DA
:10542000109206051092FF041092000510920105DB
:10543000109202051092FB041092FC041092FD04DD
:105440001092FE044EEF5FEF6FEF7FEF40937A0212
:1054500050937B0260937C0270937D021092FA0459
:10546000EEEEF4E028E0DF011D922A95E9F71092B4
:10547000EA041092EB041092EC041092ED041092E6
:10548000E6041092E7041092E8041092E9041092E6
:10549000E2041092E3041092E4041092E5041092E6
:1054A000DE041092DF041092E0041092E104DF9118
:1054B000CF91089510921E0510921F05109220059D
:1054C0001092210510921D058091260590912705C7
:1054D00090931C0580931B0510921A0510921905D4
:1054E00010921505109216051092170510921805C6
:1054F000109223051092220590E080E00895CF924B
:10550000DF92EF92FF920F931F93CF938C0101973D
:1055100009F055C0209126053091270580911B0583
:1055200090911C05409126055091270550931C052C
:1055300040931B052817390781F010921A05109225
:105540001905109215051092160510921705109264
:10555000180510922305109222058091260590913E
:105560002705019761F58091220590912305892BEC
:1055700021F480917E02811112C0809122059091C8
:1055800023050197E1F48091150590911605A091EE
:105590001705B09118050197A105B10581F4109286
:1055A0001505109216051092170510921805109205
:1055B0007E0282E090E09093230580932205809103
:1055C000260590912705019709F01CC180913C05A3
:1055D00090913D058017910709F014C1809138051D
:1055E00090913905A0913A05B0913B05009709F4D7
:1055F00009C12091370521110DC040913805509106
:10560000390560913A0570913B05452B462B472B98
:1056100009F4F8C02091220530912305223031058C
:1056200009F0F0C0209119052111ECC0FC01C080E7
:10563000D180E280F38080911D05882309F4D3C0D6
:105640008091290590912A05892B09F4FEC02091AB
:10565000290530912A0581E02230310509F080E0EA
:105660002091290530912A05C1E02130310549F00A
:105670002091290530912A05C1E02230310509F039
:10568000C0E0882309F456C02091330530913405D9
:105690004091350550913605C701B6010E94894AEF
:1056A00087FD14C0209133053091340540913505B4
:1056B0005091360560911E0570911F05809120055F
:1056C000909121050E94994887FD22C020913305C1
:1056D000309134054091350550913605C701B6012A
:1056E0000E94894A181634F520913305309134050B
:1056F000409135055091360560911E0570911F054A
:1057000080912005909121050E949948811112C035
:1057100080912B0590912C05A0912D05B0912E051F
:10572000892B8A2B8B2B19F481E080931A0581E059
:1057300080931905CC2309F456C02091330530918C
:1057400034054091350550913605C701B6010E94D8
:10575000994887FF14C0209133053091340540915A
:1057600035055091360560911E0570911F05809199
:105770002005909121050E94894A87FF22C020912F
:105780003305309134054091350550913605C701F8
:10579000B6010E949948811126C0209133053091AD
:1057A0003405409135055091360560911E05709184
:1057B0001F0580912005909121050E94894A1816A5
:1057C00094F480912B0590912C05A0912D05B0911A
:1057D0002E05892B8A2B8B2B19F481E080931A05D7
:1057E00081E08093190581E090911905911180E085
:1057F00080931D05C0921E05D0921F05E0922005E2
:10580000F09221050130110509F067C18091220550
:1058100090912305892BD9F410922805109219052F
:1058200080917E02882379F082E090E090932305B6
:105830008093220510927E02209126053091270543
:1058400081E0232BE9F080E01BC081E009CF1092BA
:105850007E0280912805882349F010921A05109243
:1058600023051092220510922805EDCF8091260580
:1058700090912705892BE1F0809119051092190567
:1058800020912205309123052230310509F45EC0B4
:1058900088F42115310509F448C02130310509F497
:1058A000F3C010921A05109219051092280538C0FD
:1058B00081E0E6CF2330310509F4B1C02430310551
:1058C00081F740911505509116056091170570916B
:1058D0001805411551056105710561F041505109E7
:1058E00061097109409315055093160560931705DA
:1058F0007093180540911505509116056091170594
:1059000070911805452B462B472BD9F4209124057F
:10591000309125052130310509F046C010921A0555
:1059200010922305109222050CC080917E028823DC
:1059300041F082E090E0909323058093220510923D
:105940007E021092130580911A05CEC08823C9F3F8
:1059500080912B0590912C05A0912D05B0912E05DD
:10596000181619061A061B060CF07DC08091260534
:1059700090912705019709F076C080912B059091B1
:105980002C05A0912D05B0912E05809315059093BF
:105990001605A0931705B093180583E090E0909347
:1059A000230580932205CDCF40912F0550913005DE
:1059B0006091310570913205452B462B472BA9F09C
:1059C00010921A0580912F0590913005A091310514
:1059D000B09132058093150590931605A093170595
:1059E000B093180581E090E0DACF882399F0809198
:1059F0007F0290918002A0918102B09182028093F7
:105A0000150590931605A0931705B093180584E02B
:105A100090E0C5CF10921A0582E090E0C0CF80914F
:105A2000150590911605A0911705B09118050097DE
:105A3000A105B10559F00197A109B1098093150598
:105A400090931605A0931705B0931805809115053E
:105A500090911605A0911705B0911805892B8A2BF6
:105A60008B2B09F06ECF80917F0290918002A091E4
:105A70008102B0918202892B8A2B8B2B09F44ECFA5
:105A800081E080931A05B3CF40911505509116051A
:105A90006091170570911805411551056105710553
:105AA00061F0415051096109710940931505509306
:105AB00016056093170570931805409115055091D0
:105AC00016056091170570911805452B462B472B3D
:105AD00009F037CF8111C7CF9FCF8091130588235D
