:1000000005C100000C944B4F0C94764F0C94A14FFB
:100010000C94CC4F0C94F74F0C9422500C944D50F0
:100020000C94785024C1000022C1000020C10000BF
:100030001EC100001CC100001AC1000018C1000050
:1000400016C1000014C1000012C1000010C1000060
:100050000EC100000CC100000AC100000C94A350A6
:1000600006C100000C949A540C94D05400C10000B6
:10007000FEC00000FCC00000FAC00000F8C0000094
:10008000F6C00000F4C00000F2C00000F0C00000A4
:100090000C9426550C945C55EAC00000E8C00000A2
:1000A000E6C00000E4C00000E2C00000E0C00000C4
:1000B000DEC00000DCC00000DAC00000D8C00000D4
:1000C000D6C00000D4C000000C945C4A0C94B25519
:1000D0000C94E855CCC000000C943E560C94745619
:1000E000C6C0000000000A0B02090C0D0E08070331
:1000F00004010000000000000000000000000000FB
:1001000000000000000000000000000000000000EF
:1001100012111000000000000000000000000000AC
:100120000000000000000000000001021020200874
:100130000810204010204080020102010804020142
:1001400001020408102040808040201008040201B1
:10015000800402018040201008040201080402010A
:100160000102040810204080010204081020408091
:1001700005050505070508080808020202020A0A23
:100180000808040404040101010101010101030341
:10019000030303030303040707070C0C0C0C0C0CEC
:1001A0000C0C0202020206060606060606060B0BE9
:1001B0000B0B0B0B0B0B000020002300260029006B
:1001C0002C002F003200000100000301060109018C
:1001D00000002200250028002B002E0031003400F2
:1001E00002010000050108010B01000021002400AC
:1001F00027002A002D003000330001010000040117
:1002000007010A01F954855511569D5611241FBE48
:10021000CFEFD1E2DEBFCDBF00E00CBF13E0A0E026
:10022000B2E0E0EEFEEA00E00BBF02C007900D92E4
:10023000A838B107D9F721E1A8E8B3E001C01D92C1
:10024000A93BB207E1F711E0C6E0D1E000E006C04B
:1002500021970109802FFE010E943D57C230D1072E
:1002600080E00807A9F70E944E4B0C946E57C8CE49
:10027000CF92DF92EF92FF92CF93882351F16A01E0
:100280007B01CFEFC80F20E030E0A901CB01B60120
:100290000E94434C18168CF0C701B60190580E947A
:1002A000B44C9B01AC016C2F70E090E080E0CF91EA
:1002B000FF90EF90DF90CF90B2C0C701B6010E94CF
:1002C000AF4C8C2FCF91FF90EF90DF90CF900C949C
:1002D000CD51CF91FF90EF90DF90CF9008950F9385
:1002E0001F938B019C0183E0369527951795079501
:1002F0008A95D1F708571C4F462F477021E030E010
:10030000F90102C0EE0FFF1F4A95E2F7AF01F801B5
:1003100020812423CB010196211102C090E080E0CE
:100320001F910F9108950F931F938B019C0183E000
:1003300036952795179507958A95D1F7677081E0CF
:1003400090E001C0880F6A95EAF7F801E857FC4F82
:100350002081452B31F48095822380831F910F915A
:100360000895822BFACF2F923F924F925F926F9215
:100370007F928F929F92AF92BF92CF92DF92EF9235
:10038000FF920F931F93CF93DF93D62EC72E782E15
:10039000692E49015A01280161E08D2D0E94075301
:1003A000CD2DDC2D8E010F5F1F4FA8016D2D7C2DF3
:1003B000872D962DB8DF20E030E0A901C201B701FA
:1003C0000E94334E181664F4C201B7010E94B44C67
:1003D0002B01C501B4010E94B44CA201CE0123D06F
:1003E000C801DF91CF911F910F91FF90EF90DF90A7
:1003F000CF90BF90AF909F908F907F906F905F90C5
:100400004F903F902F900895882341F08150682F9E
:1004100070E090E080E050E040E085CF0895862FC6
:10042000B9010C94CD519C01FC01EC51FF4FE491BA
:10043000E150E231E0F4F0E08827EE5DFD4F8F4FB0
:100440000C943D5734023B023E0255026A023702C9
:100450007F028B028F02A602BB02D002E702FC02DF
:100460003702110328033D0384B5806884BD60E032
:10047000822F0C94435384B58062F8CF8091800022
:100480008C7F82608093800080918100807E80617B
:10049000682B609381005093870040938600809181
:1004A0008000806880938000E2CF809180008C7F04
:1004B00082608093800080918100807E8061682BC3
:1004C0006093810050938700409386008091800064
:1004D0008062E8CF809180008C7F82608093800072
:1004E00080918100807E8061682B609381005093B1
:1004F000870040938600809180008860D3CF8091F0
:10050000B00080688093B0008091B100887F682B34
:100510006093B100ACCF8091B0008062F3CF809146
:1005200090008C7F82608093900080919100807E0B
:100530008061682B609391005093970040939600E0
:100540008091900080688093900091CF809190007E
:100550008C7F82608093900080919100807E80618A
:10056000682B609391005093970040939600809180
:1005700090008062E8CF809190008C7F82608093B1
:10058000900080919100807E8061682B6093910043
:100590005093970040939600809190008860D3CF4D
:1005A0008091A0008C7F82608093A0008091A10048
:1005B000807E8061682B6093A1005093A7004093D8
:1005C000A6008091A00080688093A00050CF809109
:1005D000A0008C7F82608093A0008091A100807E2B
:1005E0008061682B6093A1005093A7004093A60000
:1005F0008091A0008062E8CF8091A0008C7F826013
:100600008093A0008091A100807E8061682B609320
:10061000A1005093A7004093A6008091A00088609D
:10062000D3CF809120018C7F8260809320018091C4
:100630002101807E8061682B609321015093270106
:1006400040932601809120018068809320010FCF84
:10065000809120018C7F8260809320018091210114
:10066000807E8061682B6093210150932701409325
:100670002601809120018062E8CF809120018C7F4B
:1006800082608093200180912101807E8061682BAF
:10069000609321015093270140932601809120010E
:1006A0008860D3CFFC01A781B0858C919185892387
:1006B000A481B5819C9140815181628173812681A1
:1006C000922359F081110BC04F5F5F4F6F4F7F4FE7
:1006D000408351836283738308958111F5CF415024
:1006E000510961097109F4CF8BE993E0DBCF86EA08
:1006F00093E0D8CF81EB93E0D5CF8CEB93E0D2CFD2
:10070000FC01A481B5818C9196818923A781B08554
:100710009C9140815181628173812185922359F09E
:10072000882359F04F5F5F4F6F4F7F4F4083518356
:100730006283738308958823A9F3415051096109A5
:100740007109F4CF8BE993E0DBCF86EA93E0D8CF51
:1007500081EB93E0D5CF8CEB93E0D2CF0F931F9337
:10076000CF93DF93D82FC62F8A01A0919A038BE0F5
:10077000A89FD0011124A556BC4F1D921D921D9219
:100780001C92139781E01A968C931A978D2F90E004
:10079000FC01E65DFE4FE4911696EC931697FC0182
:1007A000E059FE4FE491F0E0EE0FFF1FEA54FE4FD8
:1007B0008591949115969C938E931497862F90E033
:1007C000FC01E65DFE4FE4911996EC931997FC014C
:1007D000E059FE4FE491F0E0EE0FFF1FEA54FE4FA8
:1007E0008591949118969C938E93179760E08D2F26
:1007F0000E94075360E08C2F0E94075380919A0358
:10080000813009F43FC0A8F0823009F462C083301F
:1008100009F486C080919A0391E0980F90939A030F
:10082000F801808390E080E0DF91CF911F910F91DC
:10083000089580E0D23049F081E0D33031F08EEE7F
:100840008D0F8430D8F487E18D1B41E050E064E7E0
:1008500073E00E94D14E80E0C23049F081E0C330A5
:1008600031F08EEE8C0F843058F487E18C1B41E020
:1008700050E062EA73E00E94D14ECCCF8FEFE5CF1B
:100880008FEFF5CF80E0D23049F081E0D33031F006
:100890008EEE8D0F8430C8F487E18D1B41E050E06F
:1008A00067E773E00E94D14E80E0C23049F081E0FA
:1008B000C33031F08EEE8C0F843048F487E18C1B0E
:1008C00041E050E065EA73E0D6CF8FEFE7CF8FEFDE
:1008D000F7CF80E0D23049F081E0D33031F08EEEB6
:1008E0008D0F8430C8F487E18D1B41E050E06AE74A
:1008F00073E00E94D14E80E0C23049F081E0C33005
:1009000031F08EEE8C0F843048F487E18C1B41E08F
:1009100050E068EA73E0AFCF8FEFE7CF8FEFF7CF0C
:1009200080E0D23049F081E0D33031F08EEE8D0F8F
:100930008430C8F487E18D1B41E050E06DE773E03F
:100940000E94D14E80E0C23049F081E0C33031F0E6
:100950008EEE8C0F843048F487E18C1B41E050E030
:100960006BEA73E088CF8FEFE7CF8FEFF7CF9BE095
:10097000899FF0011124E556FC4F80819181A2816D
:10098000B381FB0180839183A283B38390E080E0F5
:1009900008959BE0899FF0011124E556FC4F1082D9
:1009A00011821282138290E080E0089590E080E04E
:1009B0000895CF93DF93882349F0EB0181500E9483
:1009C000AA5199838883DF91CF910895FB01118209
:1009D0001082F9CF0F931F938B019C0183E0369512
:1009E0002795179507958A95D1F70F561C4F462FD7
:1009F000477021E030E0F90102C0EE0FFF1F4A9579
:100A0000E2F7AF01F80120812423CB0101962111E7
:100A100002C090E080E01F910F9108950F931F9303
:100A20008B019C0183E036952795179507958A954C
:100A3000D1F7677081E090E001C0880F6A95EAF70E
:100A4000F801EF56FC4F2081452B31F4809582232D
:100A500080831F910F910895822BFACFCF92DF925E
:100A6000EF92FF92CF93DF936B017C0160E086E30E
:100A7000C816D104E104F10490F486E38C0D0E94C1
:100A80000753E6012196AE01C701B601C7DFCE01CB
:100A9000DF91CF91FF90EF90DF90CF9008958C2D54
:100AA000EECF882341F08150682F70E090E080E025
:100AB00050E040E0B3CF089590E080E008950F93B8
:100AC0001F93009709F48DC06115710509F489C061
:100AD00000919E0210919F022091A0023091A102EC
:100AE0000E3F1F4F2F4F3F4F09F06CC04FEF5FEF8E
:100AF000BA0140939E0250939F026093A0027093AC
:100B0000A10240919E0250919F026091A0027091BB
:100B1000A102DC011296ED91FC9180819181A2816C
:100B2000B3818093290590932A05A0932B05B09358
:100B30002C0584819581A681B781809325059093AA
:100B40002605A0932705B093280580859185A28569
:100B5000B3858093210590932205A0932305B0933C
:100B6000240584859585A685B78580931D0590937A
:100B70001E05A0931F05B093200510921905109231
:100B80001A0510921B0510921C050E945E2E83E828
:100B90009EE29093C8038093C7039093CA03809307
:100BA000C9039093CC038093CB030E944D2D0097F3
:100BB00031F421E030E030932E0520932D051F9174
:100BC0000F91089500919E0210919F022091A00222
:100BD0003091A102DB010D931D932D933C9313974C
:100BE00090CF8FEF9FEFEBCF8F929F92AF92BF92FC
:100BF000CF92DF92EF92FF921F93CF93DF934B013F
:100C00005C011091300582E090E090932E05809376
:100C10002D0581149104A104B10441F480913005A3
:100C2000811104C080912F05C1E08111C0E0C12C69
:100C3000D12C760180913005811106C080912F055D
:100C4000811102C0CC23D9F083E090E090932E056F
:100C500080932D05CC2381F1CCE9DFEF111102C087
:100C60000E94E831CE01DF91CF911F91FF90EF906C
:100C7000DF90CF90BF90AF909F908F9008956AE0E3
:100C800070E080E090E00E94125180E1C80E87E29F
:100C9000D81EE11CF11C8FEF88169806A806B8062E
:100CA00031F0C1E08C149D04AE04BF0408F0C0E034
:100CB00080E00E94812DBECFD0E0C0E0CFCFCF92A8
:100CC000DF92EF92FF920F931F93CF93DF938F3FAB
:100CD000910511F008F051C020912D0530912E059D
:100CE0002330310539F020912D0530912E0521302A
:100CF000310531F424E030E030932E0520932D05AA
:100D00006A017B01EC0183309105A8F011E0AE018E
:100D1000C701B6010E944C2DAB01BC01CE011123CD
:100D2000F9F0DF91CF911F910F91FF90EF90DF903D
:100D3000CF900C9411348C01000F111F09531C4FDC
:100D4000D8018D919C91892B09F30E941B34029745
:100D5000E9F6D801ED91FC91CE011995182FD7CF66
:100D60000E94333490E080E0DF91CF911F910F918A
:100D7000FF90EF90DF90CF9008958FEF9FEFF4CF2B
:100D800080E00C94812DCF93DF9386E090E09093E8
:100D90002E0580932D050E94DA2DEC01E7ECF3E09F
:100DA00086E0DF011D928A95E9F70E94803110925A
:100DB0002E0510922D05CE01DF91CF9108958091DF
:100DC0002F05089580911805089560939E027093F1
:100DD0009F028093A0029093A10290E080E008958A
:100DE000CF92DF92EF92FF928091D904882329F06D
:100DF000813039F08091DA0401C081E08093D80419
:100E000002C01092D804E091D80484E0E89FF00179
:100E10001124E552FB4FC080D180E280F380C09264
:100E2000D404D092D504E092D604F092D7048FEF88
:100E30008093D804209122113091231140912411E4
:100E400050912511609140027091410280914202BF
:100E5000909143020E94DE4B60939A1070939B1016
:100E600080939C1090939D10609322117093231196
:100E7000809324119093251124E0209394112091C4
:100E80008B11222349F0213059F030918C1121E04F
:100E9000332319F020E001C021E020938A1102C021
:100EA00010928A1120918A112223E1F060932A1175
:100EB00070932B1180932C1190932D1120918A11F6
:100EC00020938C112FEF20938A11209191112223CE
:100ED00091F02130A1F03091921121E0332361F0A3
:100EE00020E00AC060932611709327118093281187
:100EF00090932911E3CF21E02093901102C010922A
:100F00009011209190112223E1F060935A11709377
:100F10005B1180935C1190935D112091901120934F
:100F200092112FEF2093901120918E11222391F096
:100F30002130A1F030918F1121E0332361F020E0C6
:100F40000AC0609356117093571180935811909373
:100F50005911E3CF21E020938D1102C010928D1121
:100F600020918D11222321F160935211709353111E
:100F7000809354119093551180918D1180938F110E
:100F80008FEF80938D11C701B6010E94E04C2AE0DB
:100F900037ED43E25CE30E946D4E0E94B44CAB011E
:100FA000BC0182E090E0FF90EF90DF90CF9087CE81
:100FB00060934E1170934F11809350119093511183
:100FC000DBCF2F923F924F925F926F927F928F92E0
:100FD0009F92AF92BF92CF92DF92EF92FF920F93C8
:100FE0001F93CF93DF93CDB7DEB7CB54D1090FB6A4
:100FF000F894DEBF0FBECDBF26967FAF6EAF2697AB
:1010000028965FAF4EAF28973E8B2D8B2C96FFAE68
:10101000EEAE2C97FB01E150F04CEE0FFF1FEE0FF0
:10102000FF1FE80FF91F80809180A280B3808F8A14
:10103000988EA98EBA8EB501A401442777FD4395F9
:1010400055276627772729964FAF2997F901E15051
:10105000F04CEE0FFF1FEE0FFF1F2896AEACBFAC9B
:101060002897EA0DFB1DC080D180E280F380CB8EF3
:10107000DC8EED8EFE8EB701A601442777FD4395E9
:101080005527662777272A964FAF2A97188B0F8701
:10109000F80130E020E02C96EEACFFAC2C972E153A
:1010A0003F050CF43FC022969FAF8EAF22971A8B5C
:1010B000098B312C212C812C912C540183948D820D
:1010C0009E82AF82B88626968EAC9FAC2697281457
:1010D00039047CF129969FAC29972A96AFAC2A97C0
:1010E00030E020E041E050E060E070E09A10F5C1AF
:1010F000C55BDF4F0FB6F894DEBF0FBECDBFDF91EB
:10110000CF911F910F91FF90EF90DF90CF90BF9004
:10111000AF909F908F907F906F905F904F903F9097
:101120002F90089511921192119211922F5F3F4FBB
:10113000B2CF2296EEADFFAD229781919191A19110
:10114000B1912296FFAFEEAF22978F88988CA98C31
:10115000BA8CB7FE23C04D815E816F817885415086
:101160005109610971095A016B01A81AB90ACA0A21
:10117000DB0AD601C50121E0CD80DE80EF80F88456
:101180008C159D05AE05BF0508F020E0822E912C40
:10119000B12CA12C8D829E82AF82B8865D01CC24B9
:1011A000DD24A8A2B9A2CAA2DBA29C01AD014427FA
:1011B00055272CA33DA34EA35FA32C96EEADFFAD08
:1011C0002C97E219F3098D889E888E169F060CF4E1
:1011D000F4012896AEACBFAC28972496BFAEAEAE55
:1011E0002497C988DA88DC8ACB8A1E861D86812CE2
:1011F000912C5401839489869A86AB86BC86812C77
:10120000912C5401CD84DE84CE16DF0604F1F7FF65
:1012100002C0F0E0E0E0E20DF31D2C96EEACFFAC76
:101220002C97EE15FF0554F4EE0FFF1FEE0FFF1F76
:10123000E00FF11F80829182A282B3822FEF221AE7
:10124000320AE989FA893496FA8BE98B3CCF2496E5
:10125000AEADBFAD2497CD90DD90ED90FD9024967E
:10126000BFAFAEAF24972B8D3C8D4D8D5E8D57FF5C
:1012700022C089859A85AB85BC850197A109B109F2
:10128000AC01BD014C195D096E097F096A017B0142
:1012900081E029853A854B855C85C216D306E40634
:1012A000F50608F080E0482F50E070E060E04987E4
:1012B0005A876B877C87B7018827992768A779A702
:1012C0008AA79BA7EE24FF2428A139A14AA15BA1EC
:1012D000C701B6010E94F8562B013C012CA13DA18B
:1012E0004EA15FA168A579A58AA59BA50E94F85685
:1012F0006CA77DA78EA79FA7AB89BC894D915D91F7
:101300006D917D91BC8BAB8BDB01CA01880D991D62
:10131000AA1DBB1D89839A83AB83BC8391E09F8FF9
:1013200029813A814B815C81281539054A055B0585
:1013300008F01F8E2CA13DA14EA15FA1C701B601EF
:101340000E94F8566B017C0189809A80AB80BC803A
:101350008C0C9D1CAE1CBF1C89829A82AB82BC8205
:1013600052019924882488AA99AAAAAABBAA2981E9
:101370003A814B815C81280D391D4A1D5B1D2CABC8
:101380003DAB4EAB5FAB8CA49DA4AEA4BFA45401F7
:101390009924882488AE99AEAAAEBBAE280D391D1B
:1013A0004A1D5B1D2CAF3DAF4EAF5FAFAB89BC8913
:1013B00014972D933D934D935C93139728A139A1D6
:1013C0004AA15BA168A579A58AA59BA50E94F856AC
:1013D0009F8C690D711D811D911D23016624772449
:1013E000460E571E681E791E2CA53DA54EA55FA56D
:1013F0004A01AA24BB24840C951CA61CB71C81E0BE
:1014000090E0A0E0B0E049815A816B817C814C156D
:101410005D056E057F0518F080E090E0DC01880D29
:10142000991DAA1DBB1D41E050E060E070E088A856
:1014300099A8AAA8BBA8CCA8DDA8EEA8FFA8C814A4
:10144000D904EA04FB0418F040E050E0BA01840F2C
:10145000951FA61FB71F812C912C54018394C8ACF3
:10146000D9ACEAACFBAC2CAD3DAD4EAD5FAD2C15AF
:101470003D054E055F0518F0812C912C5401880E16
:10148000991EAA1EBB1E4D855E854F5F5F4F5E870E
:101490004D87B8CEEF85F889C190D190E190F19059
:1014A000F88BEF87DB01CA010197A109B1098C19FB
:1014B0009D09AE09BF09349780839183A283B383CA
:1014C000E1E084179507A607B70708F0E0E04E2F84
:1014D00050E070E060E02F5F3F4F2C968EAC9FACE9
:1014E0002C9728153905B4F203CE2F923F924F92D4
:1014F0005F926F927F928F929F92AF92BF92CF92A4
:10150000DF92EF92FF920F931F93CF93DF9300D060
:101510001F92CDB7DEB78B015C834B83FB01E1509B
:10152000F04CEE0FFF1FEE0FFF1FE80FF91F408179
:1015300051816281738177FD27C04C01B12CA12CB0
:10154000C12CD12C7601A016B10664F5F40161918D
:101550007191819191914F010E94E04C4B815C818E
:101560000E94394E9B01AC01C701B6010E94DF4BBE
:101570006B017C012B813C81205E3F4F3C832B83A0
:101580003FEFA31AB30ADFCF9A838983312C212C32
:1015900081E090E0A0E0B0E0C12CD12C76012016D3
:1015A0003106CCF0C701B6010F900F900F900F904D
:1015B000DF91CF911F910F91FF90EF90DF90CF902F
:1015C000BF90AF909F908F907F906F905F904F9063
:1015D0003F902F900895E981FA8141905190619058
:1015E0007190FA83E983409450946094709453010D
:1015F0004201880E991EAA1EBB1EC501B4010E949D
:10160000E04C4B815C810E94394E9B01AC01C701CB
:10161000B6010E94DE4B6B017C0181E084149504CD
:10162000A604B70408F080E090E0B0E0A0E02B81D1
:101630003C81205E3F4F3C832B833FEF231A330ACC
:10164000AECF2F923F924F925F926F927F928F9286
:101650009F92AF92BF92CF92DF92EF92FF920F9341
:101660001F93CF93DF93CDB7DEB72E970FB6F894C5
:10167000DEBF0FBECDBF9E878D873C872B871801AD
:10168000FA0125E0F695E7952A95E1F7DB01A150EF
:10169000B04CAA0FBB1FAA0FBB1FA80FB91FCD903C
:1016A000DD90ED90FC90FF0CCC08DC2C7601E61769
:1016B000F7070CF0D5C0DF01A00FB11F9B01A617E3
:1016C000B7070CF49D018A010F711127DF01AA0FE2
:1016D000BB1FAA0FBB1F01151105F1F40D851E8557
:1016E0000A0F1B1F8B859C8550E040E0BA016E0FEE
:1016F0007F1F621773070CF05DC0D8018D909D901D
:10170000AD90BD908D01DC018D929D92AD92BD9208
:10171000CD014F5F5F4FEACF6D847E846A0E7B1EE2
:101720007C826B82D3014D905D906D907C90AB84F8
:10173000BC84BA82A98250E040E0A0E2B0E0CD01D2
:10174000801B910B9E838D8353014201002E04C0A8
:10175000B694A794979487940A94D2F74F5F5F4FFB
:10176000DF01A40FB51FA217B30784F1D701C6018B
:10177000261737076CF4220F331F220F331FED8516
:10178000FE852E0F3F1FF90180819181A281B381D7
:101790000D8004C0880F991FAA1FBB1F0A94D2F79F
:1017A00088299929AA29BB29E981FA818083918313
:1017B000A283B3839A01220F331F220F331F6B843E
:1017C0007C84620E731E7A8269822EC0DA01AA0FAF
:1017D000BB1FAA0FBB1F6B807C80A60DB71D4D9051
:1017E0005D906D907C90D301C2010D8004C0880F84
:1017F000991FAA1FBB1F0A94D2F7882A992AAA2ADE
:10180000BB2AA981BA818D929D92AD92BD92BA8375
:10181000A9839ACFE981FA81C192D192E192F192A2
:10182000FA83E9834F5F5F4F421553059CF32E9671
:101830000FB6F894DEBF0FBECDBFDF91CF911F91E1
:101840000F91FF90EF90DF90CF90BF90AF909F905F
:101850008F907F906F905F904F903F902F90089562
:1018600050E040E0A7CF2F923F924F925F926F924D
:101870007F928F929F92AF92BF92CF92DF92EF9220
:10188000FF920F931F93CF93DF9300D000D0CDB77B
:10189000DEB7DA01E5E0B695A795EA95E1F7FB0139
:1018A000E150F04CEE0FFF1FEE0FFF1FE80FF91F86
:1018B00080809180A280B380BB0C8808982C540152
:1018C0003D010A171B070CF438017901D12CC12CFA
:1018D000C614D70464F1F30177FE02C0F0E0E0E043
:1018E000A017B1070CF075C04F715527A60FB71F91
:1018F000B801A017B1070CF4BD016E1B7F0BDF010F
:10190000AA0FBB1FAA0FBB1F41155105D1F43D0102
:10191000620E731E50E040E0461757070CF48DC06E
:1019200077FF02C070E060E0E60FF71F52C0F701DA
:1019300011921192119211927F01FFEFCF1ADF0ADB
:10194000C7CF1C0129014A0E5B1E5A8249821E82A2
:101950001D82C12CD12C760180E290E03C01641AFA
:10196000750A7C826B82AD81BE81A617B707CCF168
:1019700077FF02C070E060E0E60FF71FE017F107A5
:101980000CF072C0DF01AA0FBB1FAA0FBB1FA20F72
:10199000B31F80E290E0841B950B04C0F694E7949B
:1019A000D794C7948A95D2F72401350104C0440C1A
:1019B000551C661C771C4A95D2F7B301A201C428B6
:1019C000D52AE628F72ACD92DD92ED92FC92139764
:1019D0003196DF01AA0FBB1FAA0FBB1FA20FB31FB7
:1019E00040C0260137010B8004C076946794579459
:1019F00047940A94D2F7D101CD90DD90ED90FD90FF
:101A00001D01D701C601042E04C0880F991FAA1F0B
:101A1000BB1F0A94D2F7482A592A6A2A7B2AA9812D
:101A2000BA814D925D926D927D92BA83A9838D8128
:101A30009E8101969E838D8396CFDC01CD90DD90B3
:101A4000ED90FD90CD01D301CD92DD92ED92FD920E
:101A50003D014F5F5F4F60CF8D929D92AD92BD92E1
:101A60003196E017F107C4F326960FB6F894DEBF5F
:101A70000FBECDBFDF91CF911F910F91FF90EF90DF
:101A8000DF90CF90BF90AF909F908F907F906F909E
:101A90005F904F903F902F900895FA01619371935A
:101AA00081939193990F660B762FCB0141E050E023
:101AB000421753070CF008956193719381939193AA
:101AC0004F5F5F4FF5CF2F923F924F925F926F9291
:101AD0007F928F929F92AF92BF92CF92DF92EF92BE
:101AE000FF920F931F93CF93DF9379011B01DA01CC
:101AF000D0E0C0E040E050E0BA01CE15DF059CF038
:101B0000DF91CF911F910F91FF90EF90DF90CF90D9
:101B1000BF90AF909F908F907F906F905F904F900D
:101B20003F902F900895FC0181909190A190B190E9
:101B3000CF01F10101911191219131911F012401F6
:101B40003501401A510A620A730A93018201041B8B
:101B5000150B260B370B0D931D932D933D93662488
:101B60006394712CC12CD12C452B462B472B39F07B
:101B7000081519052A053B0538F4612C05C08016A7
:101B80009106A206B306C8F7A301B6012196B5CF08
:101B90008F929F92AF92BF92CF92DF92EF92FF927D
:101BA000CF93DF93F901621773070CF4FB016C010B
:101BB0007A01B0E0A0E0AE17BF074CF162177307DF
:101BC000DCF46150704C660F771F660F771F680F4B
:101BD000791FDB01CD90DD90ED90FC90FF0CCC08DF
:101BE000DC2C7601DF01AA0FBB1FAA0FBB1FA40FBD
:101BF000B51FE217F307CCF0DF91CF91FF90EF9084
:101C0000DF90CF90BF90AF909F908F900895E601A6
:101C100089909990A990B9906E01E7018992999263
:101C2000A992B9927E011196C6CFCD92DD92ED9226
:101C3000FD923196DECF8F929F92AF92BF92CF925C
:101C4000DF92EF92FF920F931F93FB0170E060E031
:101C5000C12CD12C7601C394641775075CF01F91D9
:101C60000F91FF90EF90DF90CF90BF90AF909F903B
:101C70008F900895DC018D909D90AD90BD90CD0129
:101C80009701860101501109210931090819190923
:101C90002A093B090193119321933193A1E00C157B
:101CA0001D052E053F0508F0A0E0CA2ED12CF12C11
:101CB000E12C6F5F7F4FD0CFAB0141505109FC0148
:101CC00030E020E02417350794F06150704C660F27
:101CD000771F660F771F680F791F80E090E0A0E004
:101CE000B0E8FB0180839183A283B38308951192AE
:101CF0001192119211922F5F3F4FE4CFCF92DF925A
:101D0000EF92FF92AB0141505109FC0130E020E01D
:101D1000CC24CA94DC2C760124173507B4F061502A
:101D2000704C660F771F660F771F680F791F8FEF54
:101D30009FEFAFEFBFE7FB0180839183A283B38363
:101D4000FF90EF90DF90CF900895C192D192E192F1
:101D5000F1922F5F3F4FE0CFCF92DF92EF92FF9251
:101D6000FB0130E020E0C12CD12C7601C3942E176A
:101D70003F072CF0FF90EF90DF90CF900895DC01AB
:101D80004D915D916D917D91CD014C0D5D1D6E1D4F
:101D90007F1D14974D935D936D937C931397A1E0F2
:101DA0004C155D056E057F0508F0A0E0CA2ED12C0C
:101DB000F12CE12C2F5F3F4FDACFCF92DF92EF92E1
:101DC000FF92FC0180E030E020E02617370714F492
:101DD000882329F0FF90EF90DF90CF900895C19075
:101DE000D190E190F1902F5F3F4F81E0CD28CE2838
:101DF000CF2859F780E0E9CF2F923F924F925F9220
:101E00006F927F928F929F92AF92BF92CF92DF920A
:101E1000EF92FF920F931F93CF93DF93CDB7DEB76F
:101E2000A8970FB6F894DEBF0FBECDBF9EA38DA3BB
:101E30001B015E834D833A8329831A8F098FDA8AC7
:101E4000C98AF901EE0FFF1FEE0FFF1FE40FF51F08
:101E500049815A81141615060CF0A0C4B291A291C2
:101E600092918291892B8A2B8B2B11F1E98DFA8D1E
:101E700090E080E08E159F0514F1F101EE0FFF1F39
:101E8000EE0FFF1F8DA19EA1E80FF91F121413047E
:101E900004F1ADA1BEA1BA83A983E989FA8930E032
:101EA00020E02A153B050CF46AC485E090E04FC0A1
:101EB00029813A81215031093A832983C9CF11926E
:101EC0001192119211920196D5CF91E0291A310801
:101ED000DDCFB291A29192918291892B8A2B8B2B8B
:101EE000A1F3E981FA812E163F069CF249885A88AF
:101EF0005A864986F20190E080E005C01192119265
:101F00001192119201968A159B05C4F3B1E02B162C
:101F10003104B1F5EDA1FEA16081718182819381CF
:101F2000AD81BE812D913D914D915C910E941B57D9
:101F3000E98DFA8D2083318342835383A989BA893D
:101F40006D937D938D939C93139787E090E0A89673
:101F50000FB6F894DEBF0FBECDBFDF91CF911F91BA
:101F60000F91FF90EF90DF90CF90BF90AF909F9038
:101F70008F907F906F905F904F903F902F9008953B
:101F8000E981FA81E150F04CEE0FFF1FEE0FFF1FC9
:101F90004D805E804E0E5F1E5C8A4B8AD201CD90D2
:101FA000DD90ED90FC90D701C601B695A795979569
:101FB000879501E010E01C830B830097A105B10514
:101FC00089F5D101A150B04CAA0FBB1FAA0FBB1FAE
:101FD0008DA19EA1A80FB91F4D915D916D917C912E
:101FE000769567955795479581E090E041155105A5
:101FF0006105710511F5A981BA81A215B3051CF11E
:102000004B805C8084159505F0F46DA07EA07A82EB
:10201000698230E020E02A153B050CF49DC386E080
:1020200090E095CF2B813C812F5F3F4F3C832B83EA
:10203000B695A79597958795C0CF019676956795A4
:1020400057954795D3CF29813A8121503109388B53
:102050002F87910121503109890175E0000F111F6F
:102060007A95E1F7080F191F4F855889A5E0440FAD
:10207000551FAA95E1F76B817C81640F751F7E87E0
:102080006D87AB81BC81A032B10509F498C134964B
:102090004D805E80E40DF51D70E060E040E250E0B0
:1020A0004A1B5B0B46015701042E04C0880C991C87
:1020B000AA1CBB1C0A94D2F76F5F7F4F69807A809D
:1020C0006616770609F062C1AD81BE818D929D9240
:1020D000AD92BC921397CC24CA94DC2C76012601D5
:1020E000370104C0440C551C661C771C4A95D2F776
:1020F0004D8A5E8A6F8A788E49815A8141305105B6
:1021000009F066C14D885E886F88788C4D8E5E8E32
:102110006F8E78A269817A81615071094FEF5FE318
:10212000649F4001659F900C749F900C11249AA2AB
:1021300089A21C861B86AD84BE84A094B094BCA2E8
:10214000ABA2A901440F551F440F551FADA1BEA15D
:10215000A40FB51FB887AF838032910509F440C042
:10216000CD90DD90ED90FC9013974B855C85405EA3
:102170005F4FFA01E81BF90BFC87EB87FD01A90112
:1021800060E270E0681B790B26013701062E04C05F
:10219000440C551C661C771C0A94D2F714161506BD
:1021A0000CF41FC1A90137FF02C050E040E08824B1
:1021B0008A94FFE39F2E489DF001499DF00D589DA4
:1021C000F00D1124E20FF31FEE0FFF1FEE0FFF1FA4
:1021D0008DA19EA1E80FF91F408251826282738215
:1021E000EF81F88580819181A281B381EB89FC899F
:1021F0004081518162817381CD8CDE8CEF8CF8A09F
:10220000C822D922EA22FB22C416D506E606F70622
:1022100009F067C14F80588458A64FA26B887C880C
:102220007C8E6B8EB2014F8558894115510509F09E
:10223000F1C06D857E85061B170B8F8598890097E9
:1022400009F09DC1E9A1FAA1E20FF31FEE0FFF1FF4
:10225000EE0FFF1F2DA13EA12E0F3F1FF901808120
:102260009181A281B381ED81FE81408151816281A2
:102270007381841B950BA60BB70BF90180839183A7
:10228000A283B383F80195E0F695E7959A95E1F777
:10229000EE0FFF1FEE0FFF1F698C7A8CE60DF71D06
:1022A0000F71112741E050E060E070E004C0440F7E
:1022B000551F661F771F0A95D2F780819181A281F1
:1022C000B381842B952BA62BB72B80839183A2837C
:1022D000B383EF81F885121413040CF062C280817D
:1022E0009181A281B3819101215031093497892BC9
:1022F0008A2B8B2B09F47FC169807A8026143704DE
:102300000CF07BC191012150310984E090E06B8594
:102310007C8545E0769567954A95E1F74B855C8528
:102320004F715527FB01EE0FFF1FEE0FFF1F4115E9
:10233000510509F497C12DA03EA02E0E3F1ED101DC
:10234000CD90DD90ED90FC90B0E0A0E0E0E2F0E018
:102350002F01441A550A5A82498246015701042E18
:1023600004C0B694A794979487940A94D2F76F5FA9
:102370007F4F1496261737070CF0B6C1A985BA858A
:102380008D929D92AD92BC92139785C1DF011897F3
:10239000CD90DD90ED90FC90260137010B8004C0BC
:1023A00076946794579447940A94D2F78428952892
:1023B000A628B728B292A2929292829273CE6624F5
:1023C0006A94762C43016D8A7E8A8F8A988E94CE89
:1023D00066246A94762C43016D8E7E8E8F8E98A231
:1023E00099CEF290E290D290C29046015701082E09
:1023F00004C0B694A794979487940A94D2F784283B
:102400009528A628B72884829582A682B782415053
:102410005109BACEFB017290629052904290BF0176
:1024200041505109EB8DFC8DB290A2909290829018
:10243000FC8FEB8FCC24CA94DC2C7601411551051E
:1024400021F4CD88DE88EF88F88CC420D520E620E2
:10245000F720C814D904EA04FB0409F4E6CE841476
:102460009504A604B70408F485C0AD84BE84A01604
:10247000B10608F0A9C1EF81F885A9016C017D01C1
:10248000CC0CDD1CEE1CFF1C141615060CF483C0CE
:10249000A90137FF02C050E040E044244A946FE3B2
:1024A000562E449DF001459DF00D549DF00D1124D4
:1024B000E20FF31FEE0FFF1FEE0FFF1F6DA07EA0B8
:1024C000E60DF71DC082D182E282F3824B855C85E6
:1024D0004F5F5F4F5C874B876BA17CA1060F171F77
:1024E0000AC0481759076A077B0708F0BECF8D84DA
:1024F0009E8408191909F90189819A81E81BF90B51
:102500003196EE0FFF1FEE0FFF1FADA1BEA1EA0F28
:10251000FB1F4D805E805C8E4B8E90E080E040E043
:1025200050E0BA0181909190A190B190AB8DBC8D9B
:10253000CD90DD90ED90FD90BC8FAB8F24013501E7
:102540004C185D086E087F0873016201C41AD50A31
:10255000E60AF70A66246394712C30E020E0452BEC
:10256000462B472B79F1C814D904EA04FB0478F50B
:10257000612C2DC04D855E85041B150BBCCFAFA112
:10258000B8A51D921D921D921C9213970197149746
:10259000B8A7AFA354CEB291A291929182914C016F
:1025A0005D018824B7FC83949924AA24BB24C828FD
:1025B000D928EA28FB28C482D582E682F7824150D6
:1025C00051095CCF8C149D04AE04BF0488F6A301AE
:1025D000632F722F9F0124503109D901CD92DD92D2
:1025E000ED92FC921397019649805A8084159505C7
:1025F0000CF498CF47CE19016ECEF101E150F04CAA
:10260000EE0FFF1FEE0FFF1F8DA09EA0E80DF91D1E
:102610004081518162817381769567955795479581
:1026200081E090E04115510561057105A9F489012A
:10263000B5E0000F111FBA95E1F7AB84BC840A190D
:102640001B09080F191F4D855E850417150708F033
:1026500078CD82E090E05BCE0196769567955795B0
:102660004795E0CFADA1BEA1EA0FFB1F30E020E00F
:102670004191519161917191A985BA854D935D9375
:102680006D937D93BA87A9872F5F3F4F4F845888FA
:10269000421653066CF7EB81FC81B09709F457CCD6
:1026A000AD81BE81CD90DD90ED90FC901397FD0142
:1026B00030E020E040E250E04B805C804419550956
:1026C00026013701042E04C07694679457944794EA
:1026D0000A94D2F78F8498882815390524F140820E
:1026E00051826282738233CC81010A0F1B1FF80171
:1026F000C080D180E280F38026013701098004C0C8
:10270000440C551C661C771C0A94D2F78428952823
:10271000A628B728E985FA8581929192A192B19273
:10272000FA87E9871ACEC480D580E680F780460113
:1027300057010B8004C0880C991CAA1CBB1C0A946E
:10274000D2F784289528A628B72881929192A19241
:10275000B1922F5F3F4FB4CFE981FA81819191917E
:10276000A191B191FA83E983E985FA8581939193E7
:10277000A193B193FA87E9872F5F3F4F4CCCA98192
:10278000BA814D915D916D917D91BA83A9834193F9
:102790005193619371932F5F3F4F83CB8FEF9FEFE7
:1027A000D6CB2114310409F0ADCDEDA1FEA180817D
:1027B0009181A281B381E989FA8980839183A2837F
:1027C000B38381E090E067CF83E090E0A0CD2F92CB
:1027D0003F924F925F926F927F928F929F92AF92B1
:1027E000BF92CF92DF92EF92FF920F931F93CF93FE
:1027F000DF93CDB7DEB764970FB6F894DEBF0FBE98
:10280000CDBF2A013E832D8338011701DE86CD8698
:10281000B88AAF862AA53BA53A8B298B4CA55DA526
:1028200058874F83AEA5BFA5BC8BAB8BFB01E15096
:10283000F04CEE0FFF1FEE0FFF1FE80FF91F208176
:1028400031814281538129833A834B835C83ED81BB
:10285000FE81E150F04CEE0FFF1FEE0FFF1FE40D65
:10286000F51D208131814281538129873A874B8729
:102870005C8729813A814B815C8157FF40C0AB0165
:10288000B401D9D989859A85AB85BC85B7FF3CC091
:102890004D815E816F817885C201CDD9AF84B888C2
:1028A000CD84DE84710183012B893C894F81588559
:1028B00069897A89C401A0DA97FF48C029813A81E1
:1028C0004B815C81B101C30157FF27C064960FB6ED
:1028D000F894DEBF0FBECDBFDF91CF911F910F9156
:1028E000FF90EF90DF90CF90BF90AF909F908F9030
:1028F0007F906F905F904F903F902F90DDC9298916
:102900003A89A40145D9BECF2B893C894F8158858E
:102910006D817E81C2013CD9C1CF64960FB6F89417
:10292000DEBF0FBECDBFDF91CF911F910F91FF9002
:10293000EF90DF90CF90BF90AF909F908F907F905F
:102940006F905F904F903F902F90D8C989819A8166
:10295000AB81BC818827B7FD83959927AA27BB2720
:1029600049855A856B857C85442777FD4395552796
:1029700066277727841731F16F8578898D859E8545
:102980001CDA882319F0B101C301E6D9A101B30112
:10299000C30164960FB6F894DEBF0FBECDBFDF91C2
:1029A000CF911F910F91FF90EF90DF90CF90BF904C
:1029B000AF909F908F907F906F905F904F903F90DF
:1029C0002F9039C964960FB6F894DEBF0FBECDBF05
:1029D000DF91CF911F910F91FF90EF90DF90CF90FB
:1029E000BF90AF909F908F907F906F905F904F902F
:1029F0003F902F9008954F925F926F927F928F92A7
:102A00009F92AF92BF92CF92DF92EF92FF92CF93BD
:102A1000DF939A012150304C220F331F220F331FB6
:102A2000FC01E20FF31F80809180A280B380FB0144
:102A3000E20FF31FC080D180E280F380CC24DD243C
:102A4000EE24E0E8FE2224013501442455246624C6
:102A5000E0E87E22C414D504E604F70499F52C5F5F
:102A60003F4FFC01E20FF31FEB01C20FD31F1416FF
:102A700015068CF090E080E0DF91CF91FF90EF9011
:102A8000DF90CF90BF90AF909F908F907F906F908E
:102A90005F904F90089541505109F290E290D2908A
:102AA000C290BA91AA919A918A91C816D906EA065B
:102AB000FB06E9F28C159D05AE05BF0528F481E003
:102AC00090E0DACFB7FEFBCF8FEF9FEFD5CF93DF4C
:102AD000892F8095881F8827881F0895809150022C
:102AE00090915102A0915202B091530280938210B2
:102AF00090938310A0938410B09385100895E09173
:102B00008104F09182048091721090917310A091D1
:102B10007410B091751080839183A283B3838091E8
:102B20006E1090916F10A0917010B091711084830D
:102B30009583A683B78308952F923F924F925F9219
:102B40006F927F928F929F92AF92BF92CF92DF92BD
:102B5000EF92FF920F931F93CF93DF93CDB7DEB722
:102B6000C255D1090FB6F894DEBF0FBECDBF00919C
:102B7000EB041091EC0401301105E9F56091C804F3
:102B80007091C9048091CA049091CB046F5F7F4F0C
:102B90008F4F9F4F0E94E04C2091CC043091CD0488
:102BA0004091CE045091CF040E946D4E6093030477
:102BB0007093040480930504909306048091971108
:102BC00090919811A0919911B0919A1180939E10B3
:102BD00090939F10A093A010B093A1100130110505
:102BE00009F05EC080918A118823E1F08130F1F014
:102BF00080918C1118C00115110501F7E091330483
:102C0000F09134040190F081E02D80819181A281C6
:102C1000B381E091EE04F091EF0480839183A2836D
:102C2000B383CCCF81E080938B1102C010928B11C3
:102C300080918B11882309F4B3C480912A1190915B
:102C40002B11A0912C11B0912D11809322109093F3
:102C50002310A0932410B09325108FEF80938B1135
:102C60008091140290911502A0911602B091170262
:102C70008093261090932710A0932810B0932910CA
:102C800080911C0290911D02A0911E02B0911F0222
:102C900080932A1090932B10A0932C10B0932D109A
:102CA000C0905C02D0905D02E0905E02F0905F0206
:102CB000A70196016091F6107091F7108091F810BD
:102CC0009091F9100E94434C882341F0C092F61075
:102CD000D092F710E092F810F092F9106EE370E0E5
:102CE00080E090E00E94EA049093F5108093F41045
:102CF00043E050E0BE016F5D7F4F0E94D9042091F8
:102D00009C0230919D02A9A1BAA10E9445570E9440
:102D1000E04C20E030E040E057E30E946D4E6B0154
:102D20007C01C0922E10D0922F10E0923010F092C1
:102D300031108091EB049091EC04019709F0FFC0F1
:102D400080919611811135C481E08093961181E0C4
:102D500090E0A0E0B0E08093861190938711A0935B
:102D60008811B093891110928E1010928F101092CA
:102D70009010109291101092921010929310109245
:102D80009410109295108AE097EDA3EABCE380932B
:102D90005E1190935F11A0936011B093611180E078
:102DA00090E0A4EBB3E48093621190936311A0933D
:102DB0006411B09365114090100250901102609020
:102DC00012027090130240923210509233106092AF
:102DD00034107092351080908E1090908F10A090CB
:102DE0009010B0909110C0909210D0909310E090FD
:102DF0009410F09095108091951181117EC781E01B
:102E00008093951181E090E0A0E0B0E08093821182
:102E100090938311A0938411B093851180928610B2
:102E200090928710A0928810B0928910C0928A1058
:102E3000D0928B10E0928C10F0928D1010921210A4
:102E40001092131010921410109215101092161068
:102E500010921710109218101092191080913002D1
:102E600090913102A0913202B0913302898B9A8BFA
:102E7000AB8BBC8B8091721190917311A0917411E6
:102E8000B091751189879A87AB87BC8742E0E42EA1
:102E9000F12C02E110E121E030E0AE01475F5F4F2D
:102EA00061E070E0CE0141960E94E107C09086107B
:102EB000D0908710E0908810F090891050E040E0AA
:102EC00062E070E0C8010E94750A20E030E040E056
:102ED0005FE20E946D4E9B01AC01C701B6010E94EA
:102EE000DE4B69AB7AAB8BAB9CAB9B01AC016091C9
:102EF00008027091090280910A0290910B020E94CF
:102F00006D4E609336107093371080933810909305
:102F1000391029A93AA94BA95CA9609100027091C6
:102F2000010280910202909103020E946D4E609313
:102F30003A1070933B1080933C1090933D10E091B9
:102F4000EE04F091EF0480809180A280B380C09065
:102F50002E11D0902F11E0903011F090311140904F
:102F60003611509037116090381170903911A501C9
:102F70009401C701B6010E94334E87FD46C7A301E5
:102F80009201C501B4010E94434C18160CF43DC7D0
:102F90001092A2101092A3101092A4101092A510DB
:102FA00020913610309137104091381050913910DF
:102FB00060919E1070919F108091A0109091A1102F
:102FC0000E94DF4B2091A2103091A3104091A410D9
:102FD0005091A5100E94DF4B6B017C01C0923E1006
:102FE000D0923F10E0924010F09241104090680261
:102FF0005090690260906A0270906B02A301920186
:103000000E94334E18160CF058C74092421050924E
:103010004310609244107092451020910C02309140
:103020000D0240910E0250910F0260E070E08FE7B8
:1030300093E40E94474C20914210309143104091FC
:103040004410509145100E946D4E0E941D4D60939A
:103050009E1070939F108093A0109093A1100E94D7
:10306000492C882309F442C710929E1010929F1099
:103070001092A0101092A110C0909E10D0909F109E
:10308000E090A010F090A11020E030E0A901C7016D
:10309000B6010E94434C87FF4CC7C701B601905848
:1030A0000E94B44C61956093CE1070E090E080E097
:1030B0000E94E04C60934610709347108093481034
:1030C000909349102091EB043091EC0421303105AC
:1030D00009F091C010924A1010924B1010924C10AF
:1030E00010924D1060934E1070934F1080935010BB
:1030F0009093511010921A1010921B1010921C10E5
:1031000010921D1010921E1010921F10109220107D
:10311000109221108091300290913102A0913202E0
:10312000B0913302898B9A8BAB8BBC8B80917611DB
:1031300090917711A0917811B091791189879A8730
:10314000AB87BC8732E0E32EF12C0AE110E121E0ED
:1031500030E0AE01475F5F4F61E070E0CE01419625
:103160000E94E107C0908A10D0908B10E0908C10E4
:10317000F0908D1050E040E062E070E0C8010E94E5
:10318000750A20E030E040E05FE20E946D4E9B0156
:10319000AC01C701B6010E94DE4B6DAB7EAB8FABBD
:1031A00098AF9B01AC016091080270910902809177
:1031B0000A0290910B020E946D4E60935210709320
:1031C000531080935410909355102DA93EA94FA9E8
:1031D00058AD6091000270910102809102029091BD
:1031E00003020E946D4E60935610709357108093A7
:1031F000581090935910C0903E11D0903F11E0901C
:103200004011F0904111409046115090471160904C
:10321000481170904911A5019401C701B6010E949F
:10322000334E87FD8BC6A3019201C501B4010E94F4
:10323000434C18160CF482C610929E1010929F10E8
:103240001092A0101092A1102091521030915310A2
:10325000409154105091551060919B1170919C11A8
:1032600080919D1190919E110E94DF4B20919E10A4
:1032700030919F104091A0105091A1100E94DF4BFF
:103280006B017C01C0925A10D0925B10E0925C10EE
:10329000F0925D108090740290907502A09076027A
:1032A000B0907702A50194010E94334E18160CF0DD
:1032B0009DC680925E1090925F10A0926010B092B6
:1032C000611020910C0230910D0240910E0250913C
:1032D0000F0260E070E08FE793E40E94474C20917A
:1032E0005E1030915F1040916010509161100E940B
:1032F0006D4E0E941D4D6B017C010E94492C811175
:103300008EC6C701B6010E94042C811188C620E038
:1033100030E040E853E4C701B6010E94374D6B012D
:103320007C0120E030E0A9010E94434C87FF7AC66F
:10333000C701B60190580E94B44C61956093CF10BC
:1033400070E090E080E00E94E04C60936210709327
:10335000631080936410909365102091EB0430917A
:10336000EC042130310581F4109266101092671040
:10337000109268101092691060936A1070936B102D
:1033800080936C1090936D1063E070E080E090E0AB
:103390000E946F018C019093011180930011609144
:1033A000CF1070E090E080E00E94E04CAB01BC01E7
:1033B000C8010E9438018091EB049091EC040197C0
:1033C000B1F42DA93EA94FA958AD609104027091A6
:1033D000050280910602909107020E946D4E609353
:1033E0006E1070936F1080937010909371106BE05B
:1033F00070E080E090E00E946F018C0190930911D1
:10340000809308116091CE1070E090E080E00E94FF
:10341000E04CAB01BC01C8010E9438018091EB0473
:103420009091EC04019731F529A93AA94BA95CA91F
:10343000609104027091050280910602909107024A
:103440000E946D4E6093721070937310809374108D
:10345000909375108091961090919710A09198106C
:10346000B09199108093D0109093D110A093D21066
:10347000B093D31069E070E080E090E00E946F01AB
:103480008C019093211180932011C0902E10D09028
:103490002F10E0903010F090311020E030E04FE736
:1034A00053E4C701B6010E94434C18160CF4BFC583
:1034B00020E030E0A901C701B6010E94334E87FD2C
:1034C000BDC5B701A601C8010E9438016AE070E0DD
:1034D00080E090E00E946F018C019093191180931D
:1034E0001811C0902E10D0902F10E0903010F09056
:1034F000311020E030E04FE753E4C701B6010E94ED
:10350000434C18160CF49EC520E030E0A901C70119
:10351000B6010E94334E87FD9CC5B701A601C801C4
:103520000E94380164E070E080E090E00E946F014A
:103530008C019093111180931011C0902E10D09097
:103540002F10E0903010F090311020E030E04FE785
:1035500053E4C701B6010E94434C18160CF47DC514
:1035600020E030E0A901C701B6010E94334E87FD7B
:103570007BC5B701A601C8010E9438018091EB0408
:103580009091EC04019709F0C0C580918D118823BA
:1035900009F46EC5813009F46FC580918F1169C53A
:1035A0008091261190912711A0912811B091291195
:1035B0004CCB8091861190918711A0918811B09188
:1035C000891183309105A105B10509F44AC108F0BC
:1035D00043C081309105A105B10509F48AC0029765
:1035E000A105B10509F4E8C0C0902A10D0902B10B5
:1035F000E0902C10F0902D1020E030E040E251E4FB
:10360000C701B6010E94334E18160CF056C383E072
:1036100090E0A0E0B0E08093861190938711A09392
:103620008811B09389118091621190916311A091DA
:103630006411B091651180938E1090938F10A093B8
:103640009010B09391108093921090939310A09348
:103650009410B0939510AFCB85309105A105B105BD
:1036600009F471C280902A1090902B10A0902C1019
:10367000B0902D1085309105A105B10508F4C8C1A1
:103680000697A105B10509F0AFCF20E030E040E298
:1036900051E4C501B4010E94434C18160CF0DCC182
:1036A00020E030E040E251E4609126107091271054
:1036B00080912810909129100E94434C18160CF00C
:1036C000F0C08090621190906311A0906411B0904E
:1036D000651120E030E0A9016091821070918310A3
:1036E00080918410909185100E94434C811162C298
:1036F0009BC220E030E040E85FE3609122107091CF
:10370000231080912410909125100E94434C811128
:103710002ACB82E090E0A0E0B0E080938611909305
:103720008711A0938811B0938911809062119090B5
:103730006311A0906411B090651120E030E040E08A
:1037400053E4C701B6010E94DE4B2DEC3CEC4CEC7F
:1037500050E40E94474C20E030E048EC52E40E94E4
:10376000474C20E030E040E85FE30E94DF4BA501DA
:1037700094010E946D4E60938E1070938F10809311
:10378000901090939110A701960160E070E080E0A6
:1037900093E40E94DE4B2DEC3CEC4CEC50E40E9498
:1037A000474C20E030E048EC52E40E94474C20E0D7
:1037B00030E040E85FE372C220E030E0A9016091B0
:1037C00022107091231080912410909125100E9456
:1037D000434C811109C010929610109297101092CC
:1037E000981010929910B3CA809062119090631152
:1037F000A0906411B090651120E030E040E85FE3F4
:103800006091821070918310809184109091851046
:103810000E94434C811191CF1092961010929710F4
:10382000109298101092991083E090E0A0E0B0E020
:103830008093861190938711A0938811B09389117A
:1038400080928E1090928F10A0929010B092911052
:103850008092921090929310A0929410B092951032
:10386000AACA20E030E0A901609182107091831013
:1038700080918410909185100E94434C882309F414
:1038800048CF20E030E040E251E460912610709192
:10389000271080912810909129100E94434C1816EF
:1038A0004CF184E090E0A0E0B0E08093861190932A
:1038B0008711A0938811B093891110928E101092E5
:1038C0008F101092901010929110109292101092EE
:1038D0009310109294101092951080E090E0A0E860
:1038E000BFE38093961090939710A0939810B09395
:1038F000991061CA40902A1050902B1060902C10A3
:1039000070902D1080905E1190905F11A0906011CA
:10391000B0906111C0906211D0906311E090641179
:10392000F090651120E030E040E251E4C301B201C3
:103930000E94434C1816BCF187E090E0A0E0B0E094
:103940008093861190938711A0938811B093891169
:10395000A301920160E070E080E291E40E94DE4BFE
:10396000A50194010E946D4E4B015C01A5019401DB
:1039700060E070E080E89FE30E94DE4BA7019601C3
:103980000E946D4E60938E1070938F1080939010F4
:103990009093911020E030E040E85FE3C501B4016E
:1039A0000E94DF4B32C086E090E0A0E0B0E0809360
:1039B000861190938711A0938811B093891120E00C
:1039C00030E040E251E4C501B4010E946D4E4B016C
:1039D0005C0120E030E040E85FE3C501B4010E94F3
:1039E000DF4BA70196010E946D4E60938E1070937D
:1039F0008F108093901090939110A501940160E036
:103A000070E080E89FE30E94DE4BA70196014AC167
:103A10004090261050902710609028107090291028
:103A200020E030E040E251E4C501B4010E94434C83
:103A30001816D4F120E030E040E251E4C301B201B5
:103A40000E94334E181684F510929610109297101B
:103A5000109298101092991085E090E0A0E0B0E0EC
:103A60008093861190938711A0938811B093891148
:103A7000A501940160E070E0CB010E94DE4B209133
:103A80005E1130915F1140916011509161110E945F
:103A90006D4E4B015C01C0906211D0906311E090BB
:103AA0006411F090651162CF20E030E040E251E413
:103AB000C301B2010E94334E18166CF51092961095
:103AC00010929710109298101092991086E090E042
:103AD000A0E0B0E08093861190938711A0938811A5
:103AE000B093891120E030E040E251E460915E1132
:103AF00070915F1180916011909161110E946D4EE3
:103B00004B015C01C0906211D0906311E090641190
:103B1000F09065115ECF20E030E0A9016091821045
:103B20007091831080918410909185100E94434C75
:103B30008111C3CE10929610109297101092981087
:103B400010929910E6CD20E030E040E251E460911F
:103B500026107091271080912810909129100E94B2
:103B6000434C18160CF09DCE40902A1050902B100C
:103B700060902C1070902D108090621190906311C5
:103B8000A0906411B090651120E030E040E251E473
:103B9000C301B2010E94334E1816BCF586E090E0D6
:103BA000A0E0B0E08093861190938711A0938811D4
:103BB000B093891120E030E040E251E460915E1161
:103BC00070915F1180916011909161110E946D4E12
:103BD0006B017C0120E030E040E85FE30E94DF4BB6
:103BE000A50194010E946D4E60938E1070938F100A
:103BF0008093901090939110A701960160E070E07F
:103C000080E89FE30E94DE4B4BC020E030E0A9013A
:103C10006091821070918310809184109091851032
:103C20000E94434C81110DC082E090E0A0E0B0E022
:103C30008093861190938711A0938811B093891176
:103C40007CCDA301920160E070E0CB010E94DE4BCD
:103C500020915E1130915F1140916011509161117E
:103C60000E946D4E6B017C01AC019B0160E070E035
:103C700080E89FE30E94DE4BA50194010E946D4EF7
:103C800060938E1070938F1080939010909391108A
:103C900020E030E040E85FE3C701B6010E94DF4B5F
:103CA000A50194010E946D4E609392107093931041
:103CB00080939410909395107EC820E030E040E20D
:103CC00051E46091261070912710809128109091F6
:103CD00029100E94434C18160CF0E3CD85E090E0CB
:103CE000A0E0B0E08093861190938711A093881193
:103CF000B0938911A7019601BDCE80918211909158
:103D00008311A0918411B091851181309105A10595
:103D1000B105F1F00297A105B10579F120E030E09D
:103D200040E251E4C301B2010E94334E181604F17F
:103D300020E030E0A90160918210709183108091A1
:103D40008410909185100E94434C81113DC05AC847
:103D500020E030E040E85FE36091821070918310D2
:103D600080918410909185100E94434C811156C817
:103D700082E090E0A0E0B0E049C820E030E0A90196
:103D800060918210709183108091841090918510C1
:103D90000E94434C882309F435C820E030E040E21B
:103DA00051E4C301B2010E94434C18160CF436C80A
:103DB00083E090E0A0E0B0E08093821190938311C3
:103DC000A0938411B09385112AE939E949E95FE3A9
:103DD000C501B4010E946D4E6093861070938710E8
:103DE00080938810909389102AE939E949E95FE3C3
:103DF000C701B6010E946D4E60938A1070938B10BC
:103E000080938C1090938D1019C8C092A210D092FC
:103E1000A310E092A410F092A510A3019201C70193
:103E2000B6010E94434C87FF3DC0A3019201C5012A
:103E3000B4010E94334E1816ECF54092A210509235
:103E4000A3106092A4107092A510EAE3F1E1208122
:103E500031814281538160913A1070913B10809181
:103E60003C1090913D100E94DE4B6B017C01209133
:103E7000A2103091A3104091A4105091A510C5013B
:103E8000B4010E94DE4B9B01AC01C701B6010E9448
:103E9000474C6093A2107093A3108093A41090934A
:103EA000A5107EC8A5019401C701B6010E94334E3A
:103EB00087FFC3CFE2E3F1E1CACF40906C0250909C
:103EC0006D0260906E0270906F02A3019201C701B3
:103ED000B6010E94434C87FD98C8C0924210D09210
:103EE0004310E0924410F092451097C860919E10E4
:103EF00070919F108091A0109091A1100E94042CAD
:103F00008111B2C860919E1070919F108091A01095
:103F10009091A11020E030E040E853E40E94374D3A
:103F200060939E1070939F108093A0109093A110A7
:103F3000A3C8C701B6010E94B44CB5C8C092A21074
:103F4000D092A310E092A410F092A510A3019201C8
:103F5000C701B6010E94434C87FF3DC0A3019201F7
:103F6000C501B4010E94334E1816ECF54092A21020
:103F70005092A3106092A4107092A510EAE4F1E1AF
:103F80002081318142815381609156107091571088
:103F900080915810909159100E94DE4B6B017C016A
:103FA0002091A2103091A3104091A4105091A5101F
:103FB000C501B4010E94DE4B9B01AC01C701B601F3
:103FC0000E94474C60939E1070939F108093A010A6
:103FD0009093A11039C9A5019401C701B6010E94AF
:103FE000334E87FFC3CFE2E4F1E1CACF809078027D
:103FF00090907902A0907A02B0907B02A501940182
:10400000C701B6010E94434C87FD53C9C0925E10A0
:10401000D0925F10E0926010F092611052C9C12CF2
:10402000D12C7601C701B6010E94B44C87C9C12CBE
:10403000D12C2FE7E22E23E4F22E43CAC12CD12C3F
:1040400076013FCAC12CD12C9FE7E92E93E4F92ECB
:1040500064CAC12CD12C760160CAC12CD12C8FE747
:10406000E82E83E4F82E85CAC12CD12C760181CAB2
:1040700081E080938E1102C010928E1180918E117A
:104080008823E1F08091521190915311A091541125
:10409000B09155118093761090937710A09378107B
:1040A000B09379108FEF80938E11809190118823B7
:1040B00071F0813081F0809192110AC080914E118F
:1040C00090914F11A0915011B0915111E3CF81E027
:1040D0008093911102C010929111809191118823C7
:1040E00009F497C580915A1190915B11A0915C11D0
:1040F000B0915D1180937A1090937B10A0937C1007
:10410000B0937D108FEF80939111C0904802D090B2
:104110004902E0904A02F0904B02A701960160919B
:10412000E9107091EA108091EB109091EC100E94D0
:10413000434C882341F0C092E910D092EA10E092FB
:10414000EB10F092EC108091E81081111092E810C1
:10415000BE01675E7F4F8091ED100E94B704809191
:10416000EB049091EC04019709F076C0298D3A8D0B
:104170004B8D5C8D29AF3AAF4BAF5CAF809128027D
:1041800090912902A0912A02B0912B02898B9A8BDF
:10419000AB8BBC8B80917A1190917B11A0917C119B
:1041A000B0917D11281B390B4A0B5B0BDA01C90159
:1041B00089879A87AB87BC8712E0E12EF12C02E059
:1041C00010E121E030E0AE01475F5F4F61E070E059
:1041D000CE0141960E94E10704E0E02EF12C06E5B5
:1041E0001FE022E030E042E050E162E070E084E86D
:1041F00092E00E94E10788E0E2E0F0E1DE01119642
:1042000001900D928A95E1F706E91FE022E030E087
:104210004EEE52E062E070E082E090E10E94E10741
:1042200004E010E026E83FE04FE150E064E070E099
:1042300086E99FE00E94210B8091860F9091870F65
:10424000A091880FB091890F8093C6109093C710EA
:10425000A093C810B093C910C0904C02D0904D02EA
:10426000E0904E02F0904F02A70196016091DD10A0
:104270007091DE108091DF109091E0100E94434C0D
:10428000882341F0C092DD10D092DE10E092DF1062
:10429000F092E0108091DC1081111092DC10BE01D0
:1042A000675E7F4F8091E1100E94B7048091EB041C
:1042B0009091EC04019709F096C0898D9A8DAB8D91
:1042C000BC8D21968CAF9DAFAEAFBFAF21978091D3
:1042D000280290912902A0912A02B0912B02898B89
:1042E0009A8BAB8BBC8B80917E1190917F11A091AA
:1042F0008011B091811121962CAD3DAD4EAD5FADD9
:104300002197281B390B4A0B5B0BDA01C9018987FE
:104310009A87AB87BC87A2E0EA2EF12C8E010F5F53
:104320001F4F21E030E0AE01475F5F4F61E070E07A
:10433000CE0141960E94E10788E0F801AAE0B0E1D1
:1043400001900D928A95E1F7B4E0EB2EF12C06E98D
:104350001FE022E030E04AE050E162E070E08CE8EB
:1043600092E00E94E10780E1F801A6E6BFE001903B
:104370000D928A95E1F706EB1FE022E030E04EEE69
:1043800052E062E070E08AE090E10E94E10704E020
:1043900010E026EA3FE04FE150E064E070E086EB99
:1043A0009FE00E94210B8091A60F9091A70FA091F2
:1043B000A80FB091A90F8093CA109093CB10A0932F
:1043C000CC10B093CD108091180290911902A09159
:1043D0001A02B0911B0280937E1090937F10A093DD
:1043E0008010B09381108091EB049091EC040197C0
:1043F00009F0D2C16091C6107091C7108091C810A9
:104400009091C91022E030E04EEB50E10E944D0D3A
:1044100002E010E026EA30E14EE150E062E070E0B8
:104420008EEB90E10E94330C809124029091250242
:10443000A0912602B09127028DA79EA7AFA7B8AB87
:104440008091721190917311A0917411B0917511B6
:1044500089A79AA7ABA7BCA7F2E0EF2EF12C0EEB31
:1044600010E121E030E0AE01475D5F4F61E070E0B8
:10447000CE018D960E94E10722E030E0AE014F5D53
:104480005F4FB80186EA90E10E94630D88E0FE016B
:10449000B196A6EAB0E101900D928A95E1F780917C
:1044A000200290912102A0912202B0912302892B37
:1044B0008A2B8B2B09F0CBC342E050E066EE72E012
:1044C00086EA90E10E946715882309F4ABC388E06F
:1044D000EEEDF2E0A6EBB0E101900D928A95E1F7E6
:1044E00002E010E09E012F5E3F4F4EE150E062E09F
:1044F00070E086EB90E10E94210B89899A89AB8953
:10450000BC898093721190937311A0937411B0932E
:10451000751180912E1190912F11A0913011B091B1
:10452000311189AB9AABABABBCAB4090A7115090AB
:10453000A8116090A9117090AA11A3019201BC0169
:10454000CD010E94434CE091EE04F091EF04811103
:10455000D5C380819181A281B38180932E119093E4
:104560002F11A0933011B0933111E2E3F1E180916A
:104570003A1090913B10A0913C10B0913D10808377
:104580009183A283B3838091EB049091EC04019713
:1045900009F088C06091CA107091CB108091CC1046
:1045A0009091CD1022E030E0AE01475F5F4F0E9456
:1045B0004D0D02E010E026EA30E14EE150E062E00D
:1045C00070E0CE0109960E94330C809124029091F4
:1045D0002502A0912602B09127028DA79EA7AFA722
:1045E000B8AB8091761190917711A0917811B0912C
:1045F000791189A79AA7ABA7BCA742E0E42EF12CBA
:104600008E01075F1F4F21E030E0AE01475D5F4F35
:1046100061E070E0CE018D960E94E10722E030E07B
:10462000AE01475E5F4FB80186EA90E10E94630DDC
:104630008091200290912102A0912202B091230248
:10464000892B8A2B8B2B09F0A0C342E050E066EE49
:1046500072E0CE0149960E946715882309F480C351
:1046600088E0EEEDF2E0AEEAB0E101900D928A95BD
:10467000E1F702E010E09E012F5F3F4F4EE150E076
:1046800062E070E08EEA90E10E94210B89819A81BC
:10469000AB81BC818093761190937711A0937811B0
:1046A000B093791120913E1130913F11409140110A
:1046B0005091411129AB3AAB4BAB5CAB4090A71189
:1046C0005090A8116090A9117090AA11E091EE0489
:1046D000F091EF04C080D180E280F380A3019201C9
:1046E00069A97AA98BA99CA90E94434C8111A4C3F2
:1046F000C0923E11D0923F11E0924011F0924111D0
:10470000E2E4F1E18091561090915710A091581079
:10471000B091591080839183A283B3838091EB047D
:104720009091EC040197D1F489AD9AADABADBCADDD
:1047300080937A1190937B11A0937C11B0937D119B
:1047400021962CAD3DAD4EAD5FAD219720937E11EE
:1047500030937F1140938011509381114091C80490
:104760005091C9046091CA047091CB0490E080E03C
:104770000E945F068091EB049091EC04019761F434
:104780004091D0045091D1046091D2047091D3042F
:1047900081E090E00E945F068091EB049091EC0430
:1047A000019709F086C3E0913304F091340401903D
:1047B000F081E02D80819181A281B38189AF9AAF90
:1047C000ABAFBCAF209103043091040440910504C9
:1047D000509106042B962CAF3DAF4EAF5FAF2B9799
:1047E000E0910704F0910804C080D180E280F3805A
:1047F000E0913704F091380400811181E091FB03CE
:10480000F091FC0320803180428153815AAB49AB47
:10481000848195819EAB8DAB96819DAFA7812296B9
:10482000AFAF2297E091F903F091FA031182108261
:1048300088E0F801D10101900D928A95E1F7E091AD
:104840003104F0913204518340830E947F1520E0AF
:1048500030E040E05FE3C701B6010E946D4E2B01DE
:104860003C01E9A9FAA920813181428153810E944A
:104870006D4ED1012D913D914D915C910E94DF4B88
:10488000F8016083718382839383A9A9BAA91496DE
:104890002D913D914D915C911797C301B2010E94FA
:1048A0006D4EF10124813581468157810E94DF4B95
:1048B000D80114966D937D938D939C931797E091F7
:1048C0003304F0913404A080B180A301920169AD5A
:1048D0007AAD8BAD9CAD0E94DF4BF5016083718397
:1048E00082839383E0913104F09132042DA93EA993
:1048F000318320830E949C150E947F1520E030E0C8
:10490000A901C701B6010E946D4E4B015C0120E078
:1049100030E040E45FE3C701B6010E946D4E2B0119
:104920003C01ADA9BEA92D913D914D915C910E9494
:104930006D4E27966CAF7DAF8EAF9FAF2797E9A9DD
:10494000FAA92081318142815381C501B4010E94BD
:104950006D4E9B01AC0127966CAD7DAD8EAD9FADCC
:1049600027970E94DF4BD1012D913D914D915C9194
:104970000E94DF4BF8016083718382839383A9A92E
:10498000BAA914962D913D914D915C911797C5014F
:10499000B4010E946D4E4B015C01EDA9FEA924817A
:1049A000358146815781C301B2010E946D4E9B0142
:1049B000AC01C501B4010E94DF4BD10114962D91C9
:1049C0003D914D915C9117970E94DF4BF8016483F4
:1049D000758386839783E0913304F0913404A0803B
:1049E000B180A301920169AD7AAD8BAD9CAD0E94FF
:1049F000DF4BD5016D937D938D939C931397E0913D
:104A00003104F0913204BDADB08322962FAD2297D0
:104A100021830E949C150E947F1529E33EE843E60E
:104A20005EE3C701B6010E946D4E27966CAF7DAF65
:104A30008EAF9FAF27972BEA3AEA4AEA5EE3C701B7
:104A4000B6010E946D4E2F966CAF7DAF8EAF9FAFBB
:104A50002F9729E33EE843EE5EE3C701B6010E94CB
:104A60006D4E63966CAF7DAF8EAF9FAF63973DADDC
:104A700039AF22964FAD22974AAFC10108962396CF
:104A80009FAF8EAF2397D1012D913D914D915D91B7
:104A90001D0121962CAF3DAF4EAF5FAF2197E9A925
:104AA000FAA96191719181919191FAABE9ABADA9AC
:104AB000BEA94D905D906D907D90BEABADABE9AD64
:104AC000FAADC190D190E190F190FAAFE9AF27969D
:104AD0002CAD3DAD4EAD5FAD27970E946D4E4B01A5
:104AE0005C012F962CAD3DAD4EAD5FAD2F97C30150
:104AF000B2010E946D4E9B01AC01C501B4010E9440
:104B0000DF4B4B015C0163962CAD3DAD4EAD5FAD0F
:104B10006397C701B6010E946D4E9B01AC01C501B0
:104B2000B4010E94DF4B21962CAD3DAD4EAD5FAD83
:104B300021970E94DF4BD8016D937D938D939D93B8
:104B40008D012396EEADFFAD23972E163F0609F09B
:104B50009ACFE0913304F09134040190F081E02D7C
:104B60002B962CAD3DAD4EAD5FAD2B9720833183A1
:104B700042835383E091F903F091FA0381E090E0DE
:104B8000918380838091C8049091C904A091CA0444
:104B9000B091CB040196A11DB11D8093C8049093E0
:104BA000C904A093CA04B093CB044091030450916C
:104BB00004046091050470910604E091EE04F09104
:104BC000EF0440835183628373834091D0045091FA
:104BD000D1046091D2047091D3044F5F5F4F6F4F47
:104BE0007F4F4093D0045093D1046093D2047093CC
:104BF000D3042091D804222309F444C1213009F4BC
:104C000045C121E03091DA04332309F43CC120E0AE
:104C10003AC18091561190915711A0915811B091BD
:104C2000591168CA1092B6101092B7101092B810AD
:104C30001092B91080E090E0A0E0B0E88093BA1044
:104C40009093BB10A093BC10B093BD1049CC23E04F
:104C500030E042ED5FE062E070E086EA90E10E94C1
:104C6000C80D03E010E026EC3FE04EE150E063E0C9
:104C700070E082ED9FE00E94330C60912002709101
:104C80002102809122029091230223E030E042ED44
:104C90005FE00E944D0D1F9283E08F9326EF3FE06F
:104CA0003F932F931F928F935AEE852E5FE0952EA0
:104CB00063E0A62EB12C7EEDC72E7FE0D72EE4E078
:104CC000EE2EF12C06E71FE023E030E042ED5FE03E
:104CD00063E070E086EC9FE00E94E71322E030E0A2
:104CE00046EB50E164E070E0C8010E94C80D0F90EF
:104CF0000F900F900F900F900F90F2CB8090361185
:104D000090903711A0903811B0903911C080D180A7
:104D1000E280F380A5019401C301B2010E94434CDB
:104D200081110BC0C0923611D0923711E092381128
:104D3000F0923911EAE3F1E11ACCA501940169A9D5
:104D40007AA98BA99CA90E94434C87FFEBCFC09204
:104D50002E11D0922F11E0923011F092311105CC2A
:104D60001092AE101092AF101092B0101092B110BD
:104D700080E090E0A0E0B0E88093B2109093B31090
:104D8000A093B410B093B51074CC23E030E042EDA2
:104D90005FE062E070E0CE0149960E94C80D03E03A
:104DA00010E026EC3FE04EE150E063E070E082ED81
:104DB0009FE00E94330C609120027091210280914B
:104DC00022029091230223E030E042ED5FE00E9456
:104DD0004D0D1F9283E08F9326EF3FE03F932F937B
:104DE0001F928F938AEE882E8FE0982E93E0A92E43
:104DF000B12C2EEDC22E2FE0D22E34E0E32EF12C7A
:104E000006E71FE023E030E042ED5FE063E070E0A2
:104E100086EC9FE00E94E71322E030E04EEA50E18A
:104E200064E070E0C8010E94C80D0F900F900F90D1
:104E30000F900F900F901DCC8090461190904711CD
:104E4000A0904811B0904911A5019401C301B2018D
:104E50000E94434C81110BC0C0924611D092471161
:104E6000E0924811F0924911EAE4F1E14BCCA5013E
:104E7000940169A97AA98BA99CA90E94434C87FF38
:104E8000EBCF36CC21E02093D90402C01092D90494
:104E90002091D90434E0239FF0011124E552FB4F07
:104EA00080839183A283B3832093DA048FEF80936E
:104EB000D904CE5ADF4F0FB6F894DEBF0FBECDBF78
:104EC000DF91CF911F910F91FF90EF90DF90CF90E6
:104ED000BF90AF909F908F907F906F905F904F901A
:104EE0003F902F9008958F929F92AF92BF92DF9242
:104EF000EF92FF920F931F93CF93DF9384E090E0A4
:104F00004CD4E3EFF3E08BEE94E097838683CEEE10
:104F1000D4E0D0933404C09333040CEC14E0158B2C
:104F2000048B21E834E037AF26AF6BE774E0709371
:104F300038046093370420EC34E030933604209337
:104F4000350422EC34E030933A04209339042DE701
:104F500034E030933C0420933B042FE734E030935B
:104F60003E0420933D0443E854E050937A04409378
:104F70007904F0935E04E0935D04F583E48321E01B
:104F800030E0DC012D933C9388EA94E028E834E09B
:104F9000DC012D933C9320E934E03093AB04209363
:104FA000AA0428E934E03093AD042093AC0420EA4D
:104FB00034E03093AF042093AE0427E931E1DB0104
:104FC0002D933C9364ED70E1DA016D937C93109224
:104FD000E3041092E4041092E5041092E604918731
:104FE00080871092740488ED92E09387828740EF67
:104FF00054E059834883812C912C80E8A82E8FEBB4
:10500000B82E8092E7049092E804A092E904B0924E
:10501000EA049AE0892E97ED992E93E2A92E9CE35B
:10502000B92ED8018D929D92AD92BC921397C0EB90
:10503000D4E084EA9CE3AAE0BAEB88839983AA834C
:10504000BB838EEA9BEAADEAB2E98093B404909305
:10505000B504A093B604B093B70483E392E7ADEE32
:10506000B0E58093B8049093B904A093BA04B093C8
:10507000BB0482E899E5A5EEBEE88093BC0490935A
:10508000BD04A093BE04B093BF04A7EEB3E0B38306
:10509000A283EDECF3E01196FC93EE938DED92E09C
:1050A0009183808364E971E17383628363E971E1D1
:1050B00075836483978386839187808793878287AC
:1050C0009587848797878687918B808B938B828B3C
:1050D000958B848B978B868B918F808F86EC94E059
:1050E00015969C938E9314971396DC93CE931297F8
:1050F00017965C934E9316978FEF8093D904109276
:10510000DA04E0E0F2E044895589668977894093C2
:105110002610509327106093281070932910448D07
:10512000558D668D778D40932A1050932B10609388
:105130002C1070932D104089518962897389409396
:1051400032105093331060933410709335104091A7
:105150006002509161026091620270916302D90114
:105160004D935D936D937C9313974091640250919E
:1051700065026091660270916702C6EDD0E14093CE
:105180002611509327116093281170932911809351
:105190008A1180938B1140919402509195026091F5
:1051A000960270919702409372115093731160931D
:1051B0007411709375114091A7115091A8116091CD
:1051C000A9117091AA1140932E1150932F11609341
:1051D0003011709331114093361150933711609311
:1051E0003811709339118090700290907102A090E4
:1051F0007202B090730214968D929D92AD92BC9201
:1052000017978090980290909902A0909A02B0907F
:105210009B028092761190927711A0927811B092B1
:10522000791140933E1150933F1160934011709358
:105230004111409346115093471160934811709368
:10524000491140917C0250917D0260917E027091E3
:105250007F0240934E1150934F1160935011709301
:10526000511180938D1180938E1140918002509145
:105270008102609182027091830240935611509393
:105280005711609358117093591180939011809326
:10529000911144A955A966A977A940937A11509311
:1052A0007B1160937C1170937D1140AD51AD62AD67
:1052B00073AD40937E1150937F1160938011709372
:1052C00081114091DB045091DC046091DD04709108
:1052D000DE044093D4045093D5046093D6047093B5
:1052E000D7048093D8048091440290914502A09104
:1052F0004602B09147028093221190932311A0930C
:105300002411B093251184AD95ADA6ADB7AD8093B2
:105310009A1090939B10A0939C10B0939D1043E023
:1053200050E060EF76E080E00E94D14E0E946E1562
:10533000188E80915C0290915D02A0915E02B09106
:105340005F0288A399A3AAA3BBA3812C912C54012B
:105350008394898E9A8EAB8EBC8E6EE370E080E073
:1053600090E00E942E059F8F8E8FDD24D394DD8EDA
:105370001CA28DA29EA2AFA2B8A6E12CF12C87019F
:10538000A801970163E070E080E090E00E94B30123
:105390009BA78AA7D9A61CA68DA69EA6AFA6B8AA2B
:1053A000A80197016BE070E080E090E00E94B301FB
:1053B0009BAB8AABD9AA10921A1180921B119092C2
:1053C0001C11A0921D11B0921E11A801970169E055
:1053D00070E080E090E00E94B301909321118093EF
:1053E0002011D0921F111CAE8092131190921411B3
:1053F000A0921511B0921611A80197016AE070E011
:1054000080E090E00E94B3019093191180931811ED
:10541000D09217111CAA8DAA9EAAAFAAB8AEA80155
:10542000970164E070E080E090E00E94B3019BAFE0
:105430008AAFD9AE1F8A1C8680914802909149029A
:10544000A0914A02B0914B028B8B9C8BAD8BBE8B93
:105450008D869E86AF86B88A4DEE50E163E182E18B
:105460000E94AE03D98A1A8A8F890E94C9041B86BA
:10547000188280914C0290914D02A0914E02B09101
:105480004F028F839887A987BA8789829A82AB82D5
:10549000BC8241EE50E165E184E10E94AE03DD8211
:1054A0001E828B850E94C904DF91CF911F910F91BD
:1054B000FF90EF90DF90BF90AF909F908F900C94F3
:1054C0006E158091EE1081111FC081E08093EE1067
:1054D0008091EF109091F010A091F110B091F21026
:1054E0000197A105B10581F48091F310882361F043
:1054F0006EE370E080E090E00E94EA049093F51083
:105500008093F4100E9451058091FA1081112EC0F1
:1055100081E08093FA108091FB109091FC10A09193
:10552000FD10B091FE100197A105B105F9F480912D
:10553000FF108823D9F063E070E080E090E00E94E3
:105540006F01909301118093001140E050E0BA0187
:105550000E94380163E070E080E090E00E946F01FB
:1055600090930111809300110E9404028091021116
:1055700081112EC081E080930211809103119091DE
:105580000411A0910511B09106110197A105B10573
:10559000F9F4809107118823D9F06BE070E080E086
:1055A00090E00E946F01909309118093081140E0F0
:1055B00050E0BA010E9438016BE070E080E090E0BA
:1055C0000E946F0190930911809308110E940402B8
:1055D00080911A1181112EC081E080931A1180915F
:1055E0001B1190911C11A0911D11B0911E110197DA
:1055F000A105B105F9F480911F118823D9F069E064
:1056000070E080E090E00E946F0190932111809300
:10561000201140E050E0BA010E94380169E070E0DA
:1056200080E090E00E946F019093211180932011FF
:105630000E9404028091121181112EC081E080939A
:1056400012118091131190911411A0911511B09124
:1056500016110197A105B105F9F48091171188235E
:10566000D9F06AE070E080E090E00E946F019093D2
:1056700019118093181140E050E0BA010E943801DE
:105680006AE070E080E090E00E946F019093191151
:10569000809318110E94040280910A1181112EC07A
:1056A00081E080930A1180910B1190910C11A091CF
:1056B0000D11B0910E110197A105B105F9F480917A
:1056C0000F118823D9F064E070E080E090E00E9440
:1056D0006F01909311118093101140E050E0BA01D6
:1056E0000E94380164E070E080E090E00E946F0169
:1056F00090931111809310110E9404028091E21086
:10570000811114C081E08093E2108091E3109091A8
:10571000E410A091E510B091E6100197A105B10544
:1057200029F48091E71081110E94D6048091D6104F
:10573000811114C081E08093D6108091D710909190
:10574000D810A091D910B091DA100197A105B10538
:1057500029F48091DB1081110C94D604089560E047
:1057600070E080E89FE7089560E070E080E89FE7E0
:10577000089560E070E080E89FEF089560E070E0D9
:1057800080E89FEF089560E070E080EC9FEF08955F
:1057900060E070E080EC9FEF0895F5DF6093AB115F
:1057A0007093AC118093AD119093AE11F1DF6093C3
:1057B0009F117093A0118093A1119093A211CFDF3C
:1057C0006093A7117093A8118093A9119093AA11C7
:1057D000CBDF6093A3117093A4118093A5119093D4
:1057E000A611C7DF6093AF117093B0118093B11110
:1057F0009093B211C3DF6093B3117093B41180938F
:10580000B5119093B6110895CF92DF92EF92FF9267
:10581000CF936B017C01AC019B016091A71170914A
:10582000A8118091A9119091AA110E94434CC1E046
:10583000882371F0A70196016091AF117091B011AA
:105840008091B1119091B2110E94434C8111C0E03E
:105850008C2FCF91FF90EF90DF90CF9008950F9312
:105860001F938B019C010027112720783F7701159A
:10587000110520483F4749F4AB01BC016F777727FA
:1058800081E0452B462B472B09F480E01F910F91B7
:105890000895E5CF4F925F926F927F928F929F9281
:1058A000AF92BF92CF92DF92EF92FF920F931F932E
:1058B000F894409008055090090560900A05709092
:1058C0000B05C090FC04D090FD04E090FE04F09025
:1058D000FF044130510509F0A4C09B01AC0124191B
:1058E00035094609570929013A010091040510912B
:1058F0000505209106053091070548015901840CE2
:10590000951CA61CB71C80169106A206B306A0F42F
:1059100000910005109101052091020530910305C9
:105920000F5F1F4F2F4F3F4F00930005109301054E
:10593000209302053093030580920405909205059B
:10594000A0920605B092070500910005109101058F
:10595000209102053091030580920C0590920D056F
:10596000A0920E05B0920F0500931005109311053B
:105970002093120530931305609308057093090571
:1059800080930A0590930B05A0E1B7E2A301920171
:105990000E9454576C0D7D1D8E1D9F1D6093FC044D
:1059A0007093FD048093FE049093FF0400919E0287
:1059B00010919F022091A0023091A1020F3F1F4F32
:1059C0002F4F3F4FF1F000919E0210919F022091C6
:1059D000A0023091A1020E3F1F4F2F4F3F4F89F081
:1059E000C0909E02D0909F02E090A002F090A10291
:1059F00021E08C149D04AE04BF0408F420E0209341
:105A0000180578941F910F91FF90EF90DF90CF9041
:105A1000BF90AF909F908F907F906F905F904F90CE
:105A200008954B015C0184189508A608B708A301E6
:105A30009201261B370B480B590B6415750586051B
:105A40009705D0F082169306A406B50640F420E030
:105A500030E0A90181149104A104B10491F4A0E102
:105A6000B7E20E945457A7019601261B370B480B3B
:105A7000590BCA01B901C5CF82169306A406B50613
:105A800070F7A0E1B7E2A50194010E9454576C0D94
:105A90007D1D8E1D9F1DB5CFFDCECF93DF9300D012
:105AA0001F92CDB7DEB71C821B821A821982109218
:105AB0001405109215051092160510921705BE01D7
:105AC0006F5F7F4FCE0103960E942C4A69817A81D5
:105AD0008B819C810E944A43009761F4BE016F5FF5
