:1000000005C100000C94CF590C94FA590C94255A50
:100010000C94505A0C947B5A0C94A65A0C94D15AB6
:100020000C94FC5A24C1000022C1000020C1000031
:100030001EC100001CC100001AC1000018C1000050
:1000400016C1000014C1000012C1000010C1000060
:100050000EC100000CC100000AC100000C94275B17
:1000600006C100000C946E5F0C94A45F00C10000F8
:10007000FEC00000FCC00000FAC00000F8C0000094
:10008000F6C00000F4C00000F2C000000C947054F0
:100090000C94FA5F0C943060EAC00000E8C00000E5
:1000A000E6C00000E4C00000E2C00000E0C00000C4
:1000B000DEC00000DCC00000DAC00000D8C00000D4
:1000C000D6C00000D4C00000D2C000000C948660EE
:1000D0000C94BC60CCC000000C9412610C9448617C
:1000E000C6C0000000000A0B02090C0D0E08070331
:1000F00004010000000000000000000000000000FB
:1001000000000000000000000000000000000000EF
:1001100012111000000000000000000000000000AC
:100120000000000000000000000001021020200874
:100130000810204010204080020102010804020142
:1001400001020408102040808040201008040201B1
:10015000800402018040201008040201080402010A
:100160000102040810204080010204081020408091
:1001700005050505070508080808020202020A0A23
:100180000808040404040101010101010101030341
:10019000030303030303040707070C0C0C0C0C0CEC
:1001A0000C0C0202020206060606060606060B0BE9
:1001B0000B0B0B0B0B0B000020002300260029006B
:1001C0002C002F003200000100000301060109018C
:1001D00000002200250028002B002E0031003400F2
:1001E00002010000050108010B01000021002400AC
:1001F00027002A002D003000330001010000040117
:1002000007010A01CD5F5960E560716111241FBECD
:10021000CFEFD1E2DEBFCDBF00E00CBF13E0A0E026
:10022000B2E0E8E8F4EC00E00BBF02C007900D92EA
:10023000A23DB107D9F723E1A2EDB3E001C01D92C1
:10024000AA3AB207E1F711E0C6E0D1E000E006C04B
:1002500021970109802FFE010E941162C230D1074F
:1002600080E00807A9F70E94BF550C944262C8CEEF
:10027000CF92DF92EF92FF920F931F93E82FF92F07
:1002800005C0015011092109310961F190819623BE
:100290009417B9F305C0015011092109310911F171
:1002A000908196239413F7CFC12CD12CE12CF12C03
:1002B0000AC08FEFC81AD80AE80AF80A0C151D05FB
:1002C0002E053F0579F080818623841791F36C2DEC
:1002D0007D2D8E2D9F2D1F910F91FF90EF90DF9020
:1002E000CF90089560E070E080E090E01F910F9162
:1002F000FF90EF90DF90CF900895CF93DF93882306
:1003000049F0EB0181500E942E5C99838883DF9134
:10031000CF910895FB0111821082F9CF0F931F93A3
:100320008B019C0183E036952795179507958A9553
:10033000D1F705521C4F462F477021E030E0F901FC
:1003400002C0EE0FFF1F4A95E2F7AF01F8012081CE
:100350002423CB010196211102C090E080E01F917F
:100360000F9108950F931F938B019C0183E03695A5
:100370002795179507958A95D1F7677081E090E0EA
:1003800001C0880F6A95EAF7F801E552FC4F208119
:10039000452B31F48095822380831F910F9108951E
:1003A000822BFACFCF92DF92EF92FF92CF93DF931F
:1003B0006B017C0160E086E3C816D104E104F1041E
:1003C00090F486E38C0D0E948B5DE6012196AE01D0
:1003D000C701B601C7DFCE01DF91CF91FF90EF904B
:1003E000DF90CF9008958C2DEECF882341F081507F
:1003F000682F70E090E080E050E040E0B3CF0895D7
:10040000611102C00C948B5D6130E1F362E0FACFC0
:10041000662319F061E00C94C75D60E0FCCF0E9498
:10042000F45D21E0019709F020E0822F0895FC019E
:10043000A781B0858C9191858923A481B5819C91F8
:1004400040815181628173812681922359F081110B
:100450000BC04F5F5F4F6F4F7F4F4083518362836D
:10046000738308958111F5CF4150510961097109D4
:10047000F4CF85EE93E0DBCF80EF93E0D8CF8BEF26
:1004800093E0D5CF86E094E0D2CFFC01A481B58182
:100490008C9196818923A781B0859C91408151815F
:1004A000628173812185922359F0882359F04F5F2F
:1004B0005F4F6F4F7F4F40835183628373830895F3
:1004C0008823A9F34150510961097109F4CF85EEE0
:1004D00093E0DBCF80EF93E0D8CF8BEF93E0D5CFE5
:1004E00086E094E0D2CF0F931F93CF93DF93D82F62
:1004F000C62F8A01A091E4038BE0A89FD0011124AC
:10050000AB51BC4F1D921D921D921C92139781E01E
:100510001A968C931A978D2F90E0FC01E65DFE4FA2
:10052000E4911696EC931697FC01E059FE4FE49186
:10053000F0E0EE0FFF1FEA54FE4F8591949115965F
:100540009C938E931497862F90E0FC01E65DFE4FFE
:10055000E4911996EC931997FC01E059FE4FE49150
:10056000F0E0EE0FFF1FEA54FE4F8591949118962C
:100570009C938E93179760E08D2F0E948B5D60E0B7
:100580008C2F0E948B5D8091E403813009F43FC081
:10059000A8F0823009F462C0833009F486C08091EB
:1005A000E40391E0980F9093E403F801808390E0D6
:1005B00080E0DF91CF911F910F91089580E0D230BC
:1005C00049F081E0D33031F08EEE8D0F8430D8F4D5
:1005D00087E18D1B41E050E069E372E00E945559CC
:1005E00080E0C23049F081E0C33031F08EEE8C0FF4
:1005F000843058F487E18C1B41E050E067E672E0FC
:100600000E945559CCCF8FEFE5CF8FEFF5CF80E02B
:10061000D23049F081E0D33031F08EEE8D0F84304E
:10062000C8F487E18D1B41E050E06CE372E00E946A
:10063000555980E0C23049F081E0C33031F08EEE90
:100640008C0F843048F487E18C1B41E050E06AE66F
:1006500072E0D6CF8FEFE7CF8FEFF7CF80E0D230C9
:1006600049F081E0D33031F08EEE8D0F8430C8F444
:1006700087E18D1B41E050E06FE372E00E94555925
:1006800080E0C23049F081E0C33031F08EEE8C0F53
:10069000843048F487E18C1B41E050E06DE672E065
:1006A000AFCF8FEFE7CF8FEFF7CF80E0D23049F0B9
:1006B00081E0D33031F08EEE8D0F8430C8F487E1C5
:1006C0008D1B41E050E062E472E00E94555980E0E9
:1006D000C23049F081E0C33031F08EEE8C0F8430AF
:1006E00048F487E18C1B41E050E060E772E088CF7E
:1006F0008FEFE7CF8FEFF7CF9BE0899FF0011124B9
:10070000EB51FC4F80819181A281B381FB018083F9
:100710009183A283B38390E080E008959BE0899F5A
:10072000F0011124EB51FC4F1082118212821382CE
:1007300090E080E0089590E080E00895CF92DF920D
:10074000EF92FF92CF93882351F16A017B01CFEFA3
:10075000C80F20E030E0A901CB01B6010E94C756C6
:1007600018168CF0C701B60190580E9438579B01AB
:10077000AC016C2F70E090E080E0CF91FF90EF90A3
:10078000DF90CF90B2C0C701B6010E9433578C2FC3
:10079000CF91FF90EF90DF90CF900C94515CCF9170
:1007A000FF90EF90DF90CF9008950F931F938B01F0
:1007B0009C0183E036952795179507958A95D1F783
:1007C0000E521C4F462F477021E030E0F90102C065
:1007D000EE0FFF1F4A95E2F7AF01F80120812423B5
:1007E000CB010196211102C090E080E01F910F9192
:1007F00008950F931F938B019C0183E036952795F5
:10080000179507958A95D1F7677081E090E001C050
:10081000880F6A95EAF7F801EE52FC4F2081452BCC
:1008200031F48095822380831F910F910895822B4C
:10083000FACF2F923F924F925F926F927F928F9258
:100840009F92AF92BF92CF92DF92EF92FF920F935F
:100850001F93CF93DF93D62EC72E782E692E490192
:100860005A01280161E08D2D0E948B5DCD2DDC2D7C
:100870008E010F5F1F4FA8016D2D7C2D872D962DAA
:10088000B8DF20E030E0A901C201B7010E94B758EB
:10089000181664F4C201B7010E9438572B01C50134
:1008A000B4010E943857A201CE0123D0C801DF91C4
:1008B000CF911F910F91FF90EF90DF90CF90BF905D
:1008C000AF909F908F907F906F905F904F903F90F0
:1008D0002F900895882341F08150682F70E090E0B8
:1008E00080E050E040E085CF0895862FB9010C9458
:1008F000515C9C01FC01EC51FF4FE491E150E2316D
:10090000E0F4F0E08827E857FB4F8F4F0C9411621A
:100910009A04A104A404BB04D0049D04E504F104DA
:10092000F5040C05210536054D0562059D04770586
:100930008E05A30584B5806884BD60E0822F0C9489
:10094000C75D84B58062F8CF809180008C7F826023
:100950008093800080918100807E8061682B60930D
:1009600081005093870040938600809180008068CA
:1009700080938000E2CF809180008C7F82608093A2
:10098000800080918100807E8061682B609381006F
:100990005093870040938600809180008062E8CF6A
:1009A000809180008C7F82608093800080918100A4
:1009B000807E8061682B6093810050938700409314
:1009C0008600809180008860D3CF8091B0008068DD
:1009D0008093B0008091B100887F682B6093B10054
:1009E000ACCF8091B0008062F3CF809190008C7F7B
:1009F00082608093900080919100807E8061682B5E
:100A000060939100509397004093960080919000DE
:100A100080688093900091CF809190008C7F82605D
:100A20008093900080919100807E8061682B60931C
:100A300091005093970040939600809190008062BF
:100A4000E8CF809190008C7F8260809390008091AD
:100A50009100807E8061682B609391005093970095
:100A600040939600809190008860D3CF8091A00041
:100A70008C7F82608093A0008091A100807E806145
:100A8000682B6093A1005093A7004093A60080912B
:100A9000A00080688093A00050CF8091A0008C7F40
:100AA00082608093A0008091A100807E8061682B8D
:100AB0006093A1005093A7004093A6008091A000EE
:100AC0008062E8CF8091A0008C7F82608093A0003C
:100AD0008091A100807E8061682B6093A10050937B
:100AE000A7004093A6008091A0008860D3CF80919A
:100AF00020018C7F82608093200180912101807E83
:100B00008061682B60932101509327014093260157
:100B1000809120018068809320010FCF8091200177
:100B20008C7F82608093200180912101807E806192
:100B3000682B6093210150932701409326018091F7
:100B400020018062E8CF809120018C7F82608093B9
:100B5000200180912101807E8061682B60932101BA
:100B60005093270140932601809120018860D3CFC4
:100B7000CF93C62F61E00E948B5D60E08C2FCF91F8
:100B80000C948B5D4F925F926F927F92AF92BF9267
:100B9000CF92DF92EF92FF920F931F93CF93DF9349
:100BA0005C01162FC42FD22F611104C061E0842F85
:100BB0000E948B5D60E08C2F0E94C75D0E94715B7C
:100BC0002B013C010E94715B641975098609970924
:100BD0006630710581059105A8F361E08C2F0E94B4
:100BE000C75D0E94715B2B013C01C02ED12CF12C02
:100BF000E12C0E94715B6419750986099709C61674
:100C0000D706E806F906A8F760E08C2F0E94C75DBA
:100C1000111104C060E08D2F0E948B5D20E432E44E
:100C20004FE050E061E08D2F0E941C5EF501608373
:100C3000718382839383DF91CF911F910F91FF90F6
:100C4000EF90DF90CF90BF90AF907F906F905F90CC
:100C50004F90089590E080E008950F931F930097C0
:100C600009F48DC06115710509F489C00091E8028D
:100C70001091E9022091EA023091EB020E3F1F4FE2
:100C80002F4F3F4F09F06CC04FEF5FEFBA01409319
:100C9000E8025093E9026093EA027093EB024091FC
:100CA000E8025091E9026091EA027091EB02DC01E6
:100CB0001296ED91FC9180819181A281B381809304
:100CC000BA059093BB05A093BC05B093BD05848184
:100CD0009581A681B7818093B6059093B705A093BF
:100CE000B805B093B90580859185A285B3858093B9
:100CF000B2059093B305A093B405B093B505848570
:100D00009585A685B7858093AE059093AF05A09392
:100D1000B005B093B1051092AA051092AB051092E0
:100D2000AC051092AD050E94723887E998E3909364
:100D300012048093110490931404809313049093ED
:100D40001604809315040E946137009731F421E066
:100D500030E03093BF052093BE051F910F91089599
:100D60000091E8021091E9022091EA023091EB0231
:100D7000DB010D931D932D933C93139790CF8FEF31
:100D80009FEFEBCF8F929F92AF92BF92CF92DF9265
:100D9000EF92FF921F93CF93DF934B015C01109171
:100DA000C10582E090E09093BF058093BE05811459
:100DB0009104A104B10441F48091C105811104C0E2
:100DC0008091C005C1E08111C0E0C12CD12C760119
:100DD0008091C105811106C08091C005811102C0BA
:100DE000CC23D9F083E090E09093BF058093BE05BB
:100DF000CC2381F1CCE9DFEF111102C00E94FC3B52
:100E0000CE01DF91CF911F91FF90EF90DF90CF90B7
:100E1000BF90AF909F908F9008956AE070E080E05F
:100E200090E00E94965B80E1C80E87E2D81EE11C2C
:100E3000F11C8FEF88169806A806B80631F0C1E0BD
:100E40008C149D04AE04BF0408F0C0E080E00E9452
:100E50009537BECFD0E0C0E0CFCFCF92DF92EF92F8
:100E6000FF920F931F93CF93DF938F3F910511F064
:100E700008F051C02091BE053091BF0523303105E7
:100E800039F02091BE053091BF052130310531F494
:100E900024E030E03093BF052093BE056A017B015A
:100EA000EC0183309105A8F011E0AE01C701B60155
:100EB0000E946037AB01BC01CE011123F9F0DF9134
:100EC000CF911F910F91FF90EF90DF90CF900C94F6
:100ED000253E8C01000F111F0F5E1B4FD8018D9115
:100EE0009C91892B09F30E942F3E0297E9F6D801C5
:100EF000ED91FC91CE011995182FD7CF0E94473E56
:100F000090E080E0DF91CF911F910F91FF90EF90E3
:100F1000DF90CF9008958FEF9FEFF4CF80E00C9497
:100F20009537CF93DF9386E090E09093BF05809351
:100F3000BE050E94EE37EC01E1E1F4E086E0DF015E
:100F40001D928A95E9F70E94943B1092BF0510927A
:100F5000BE05CE01DF91CF9108958091C00508951F
:100F60008091A90508956093E8027093E902809347
:100F7000EA029093EB0290E080E0089560E070E078
:100F800080E89FE7089560E070E080E89FE70895BB
:100F900060E070E080E89FEF089560E070E080E836
:100FA0009FEF089560E070E080EC9FEF089560E0AF
:100FB00070E080EC9FEF0895F5DF6093DE10709392
:100FC000DF108093E0109093E110F1DF6093D21076
:100FD0007093D3108093D4109093D510CFDF60938B
:100FE000DA107093DB108093DC109093DD10CBDF70
:100FF0006093D6107093D7108093D8109093D91027
:10100000C7DF6093E2107093E3108093E410909335
:10101000E510C3DF6093E6107093E7108093E8104B
:101020009093E9100895CF92DF92EF92FF92CF93C1
:101030006B017C01AC019B016091DA107091DB10B7
:101040008091DC109091DD100E94C756C1E088238A
:1010500071F0A70196016091E2107091E310809108
:10106000E4109091E5100E94C7568111C0E08C2FCA
:10107000CF91FF90EF90DF90CF9008950F931F9343
:101080008B019C010027112720783F77011511055E
:1010900020483F4749F4AB01BC016F77772781E0D7
:1010A000452B462B472B09F480E01F910F910895A3
:1010B000E5CF2F923F924F925F926F927F928F92E5
:1010C0009F92AF92BF92CF92DF92EF92FF920F93D7
:1010D0001F93CF93DF93CDB7DEB7CB54D1090FB6B3
:1010E000F894DEBF0FBECDBF26967FAF6EAF2697BA
:1010F00028965FAF4EAF28973E8B2D8B2C96FFAE78
:10110000EEAE2C97FB01E150F04CEE0FFF1FEE0FFF
:10111000FF1FE80FF91F80809180A280B3808F8A23
:10112000988EA98EBA8EB501A401442777FD439508
:1011300055276627772729964FAF2997F901E15060
:10114000F04CEE0FFF1FEE0FFF1F2896AEACBFACAA
:101150002897EA0DFB1DC080D180E280F380CB8E02
:10116000DC8EED8EFE8EB701A601442777FD4395F8
:101170005527662777272A964FAF2A97188B0F8710
:10118000F80130E020E02C96EEACFFAC2C972E1549
:101190003F050CF43FC022969FAF8EAF22971A8B6B
:1011A000098B312C212C812C912C540183948D821C
:1011B0009E82AF82B88626968EAC9FAC2697281466
:1011C00039047CF129969FAC29972A96AFAC2A97CF
:1011D00030E020E041E050E060E070E09A10F5C1BE
:1011E000C55BDF4F0FB6F894DEBF0FBECDBFDF91FA
:1011F000CF911F910F91FF90EF90DF90CF90BF9014
:10120000AF909F908F907F906F905F904F903F90A6
:101210002F90089511921192119211922F5F3F4FCA
:10122000B2CF2296EEADFFAD229781919191A1911F
:10123000B1912296FFAFEEAF22978F88988CA98C40
:10124000BA8CB7FE23C04D815E816F817885415095
:101250005109610971095A016B01A81AB90ACA0A30
:10126000DB0AD601C50121E0CD80DE80EF80F88465
:101270008C159D05AE05BF0508F020E0822E912C4F
:10128000B12CA12C8D829E82AF82B8865D01CC24C8
:10129000DD24A8A2B9A2CAA2DBA29C01AD01442709
:1012A00055272CA33DA34EA35FA32C96EEADFFAD17
:1012B0002C97E219F3098D889E888E169F060CF4F0
:1012C000F4012896AEACBFAC28972496BFAEAEAE64
:1012D0002497C988DA88DC8ACB8A1E861D86812CF1
:1012E000912C5401839489869A86AB86BC86812C86
:1012F000912C5401CD84DE84CE16DF0604F1F7FF75
:1013000002C0F0E0E0E0E20DF31D2C96EEACFFAC85
:101310002C97EE15FF0554F4EE0FFF1FEE0FFF1F85
:10132000E00FF11F80829182A282B3822FEF221AF6
:10133000320AE989FA893496FA8BE98B3CCF2496F4
:10134000AEADBFAD2497CD90DD90ED90FD9024968D
:10135000BFAFAEAF24972B8D3C8D4D8D5E8D57FF6B
:1013600022C089859A85AB85BC850197A109B10901
:10137000AC01BD014C195D096E097F096A017B0151
:1013800081E029853A854B855C85C216D306E40643
:10139000F50608F080E0482F50E070E060E04987F3
:1013A0005A876B877C87B7018827992768A779A711
:1013B0008AA79BA7EE24FF2428A139A14AA15BA1FB
:1013C000C701B6010E94CC612B013C012CA13DA1BB
:1013D0004EA15FA168A579A58AA59BA50E94CC61B5
:1013E0006CA77DA78EA79FA7AB89BC894D915D9106
:1013F0006D917D91BC8BAB8BDB01CA01880D991D72
:10140000AA1DBB1D89839A83AB83BC8391E09F8F08
:1014100029813A814B815C81281539054A055B0594
:1014200008F01F8E2CA13DA14EA15FA1C701B601FE
:101430000E94CC616B017C0189809A80AB80BC806A
:101440008C0C9D1CAE1CBF1C89829A82AB82BC8214
:1014500052019924882488AA99AAAAAABBAA2981F8
:101460003A814B815C81280D391D4A1D5B1D2CABD7
:101470003DAB4EAB5FAB8CA49DA4AEA4BFA4540106
:101480009924882488AE99AEAAAEBBAE280D391D2A
:101490004A1D5B1D2CAF3DAF4EAF5FAFAB89BC8922
:1014A00014972D933D934D935C93139728A139A1E5
:1014B0004AA15BA168A579A58AA59BA50E94CC61DC
:1014C0009F8C690D711D811D911D23016624772458
:1014D000460E571E681E791E2CA53DA54EA55FA57C
:1014E0004A01AA24BB24840C951CA61CB71C81E0CD
:1014F00090E0A0E0B0E049815A816B817C814C157D
:101500005D056E057F0518F080E090E0DC01880D38
:10151000991DAA1DBB1D41E050E060E070E088A865
:1015200099A8AAA8BBA8CCA8DDA8EEA8FFA8C814B3
:10153000D904EA04FB0418F040E050E0BA01840F3B
:10154000951FA61FB71F812C912C54018394C8AC02
:10155000D9ACEAACFBAC2CAD3DAD4EAD5FAD2C15BE
:101560003D054E055F0518F0812C912C5401880E25
:10157000991EAA1EBB1E4D855E854F5F5F4F5E871D
:101580004D87B8CEEF85F889C190D190E190F19068
:10159000F88BEF87DB01CA010197A109B1098C190A
:1015A0009D09AE09BF09349780839183A283B383D9
:1015B000E1E084179507A607B70708F0E0E04E2F93
:1015C00050E070E060E02F5F3F4F2C968EAC9FACF8
:1015D0002C9728153905B4F203CE2F923F924F92E3
:1015E0005F926F927F928F929F92AF92BF92CF92B3
:1015F000DF92EF92FF920F931F93CF93DF9300D070
:101600001F92CDB7DEB78B015C834B83FB01E150AA
:10161000F04CEE0FFF1FEE0FFF1FE80FF91F408188
:1016200051816281738177FD27C04C01B12CA12CBF
:10163000C12CD12C7601A016B10664F5F40161919C
:101640007191819191914F010E9464574B815C810E
:101650000E94BD589B01AC01C701B6010E945056C3
:101660006B017C012B813C81205E3F4F3C832B83AF
:101670003FEFA31AB30ADFCF9A838983312C212C41
:1016800081E090E0A0E0B0E0C12CD12C76012016E2
:101690003106CCF0C701B6010F900F900F900F905C
:1016A000DF91CF911F910F91FF90EF90DF90CF903E
:1016B000BF90AF909F908F907F906F905F904F9072
:1016C0003F902F900895E981FA8141905190619067
:1016D0007190FA83E983409450946094709453011C
:1016E0004201880E991EAA1EBB1EC501B4010E94AC
:1016F00064574B815C810E94BD589B01AC01C701BE
:10170000B6010E944F566B017C0181E08414950460
:10171000A604B70408F080E090E0B0E0A0E02B81E0
:101720003C81205E3F4F3C832B833FEF231A330ADB
:10173000AECF2F923F924F925F926F927F928F9295
:101740009F92AF92BF92CF92DF92EF92FF920F9350
:101750001F93CF93DF93CDB7DEB72E970FB6F894D4
:10176000DEBF0FBECDBF9E878D873C872B871801BC
:10177000FA0125E0F695E7952A95E1F7DB01A150FE
:10178000B04CAA0FBB1FAA0FBB1FA80FB91FCD904B
:10179000DD90ED90FC90FF0CCC08DC2C7601E61778
:1017A000F7070CF0D5C0DF01A00FB11F9B01A617F2
:1017B000B7070CF49D018A010F711127DF01AA0FF1
:1017C000BB1FAA0FBB1F01151105F1F40D851E8566
:1017D0000A0F1B1F8B859C8550E040E0BA016E0FFD
:1017E0007F1F621773070CF05DC0D8018D909D902C
:1017F000AD90BD908D01DC018D929D92AD92BD9218
:10180000CD014F5F5F4FEACF6D847E846A0E7B1EF1
:101810007C826B82D3014D905D906D907C90AB8407
:10182000BC84BA82A98250E040E0A0E2B0E0CD01E1
:10183000801B910B9E838D8353014201002E04C0B7
:10184000B694A794979487940A94D2F74F5F5F4F0A
:10185000DF01A40FB51FA217B30784F1D701C6019A
:10186000261737076CF4220F331F220F331FED8525
:10187000FE852E0F3F1FF90180819181A281B381E6
:101880000D8004C0880F991FAA1FBB1F0A94D2F7AE
:1018900088299929AA29BB29E981FA818083918322
:1018A000A283B3839A01220F331F220F331F6B844D
:1018B0007C84620E731E7A8269822EC0DA01AA0FBE
:1018C000BB1FAA0FBB1F6B807C80A60DB71D4D9060
:1018D0005D906D907C90D301C2010D8004C0880F93
:1018E000991FAA1FBB1F0A94D2F7882A992AAA2AED
:1018F000BB2AA981BA818D929D92AD92BD92BA8385
:10190000A9839ACFE981FA81C192D192E192F192B1
:10191000FA83E9834F5F5F4F421553059CF32E9680
:101920000FB6F894DEBF0FBECDBFDF91CF911F91F0
:101930000F91FF90EF90DF90CF90BF90AF909F906E
:101940008F907F906F905F904F903F902F90089571
:1019500050E040E0A7CF2F923F924F925F926F925C
:101960007F928F929F92AF92BF92CF92DF92EF922F
:10197000FF920F931F93CF93DF9300D000D0CDB78A
:10198000DEB7DA01E5E0B695A795EA95E1F7FB0148
:10199000E150F04CEE0FFF1FEE0FFF1FE80FF91F95
:1019A00080809180A280B380BB0C8808982C540161
:1019B0003D010A171B070CF438017901D12CC12C09
:1019C000C614D70464F1F30177FE02C0F0E0E0E052
:1019D000A017B1070CF075C04F715527A60FB71FA0
:1019E000B801A017B1070CF4BD016E1B7F0BDF011E
:1019F000AA0FBB1FAA0FBB1F41155105D1F43D0112
:101A0000620E731E50E040E0461757070CF48DC07D
:101A100077FF02C070E060E0E60FF71F52C0F701E9
:101A200011921192119211927F01FFEFCF1ADF0AEA
:101A3000C7CF1C0129014A0E5B1E5A8249821E82B1
:101A40001D82C12CD12C760180E290E03C01641A09
:101A5000750A7C826B82AD81BE81A617B707CCF177
:101A600077FF02C070E060E0E60FF71FE017F107B4
:101A70000CF072C0DF01AA0FBB1FAA0FBB1FA20F81
:101A8000B31F80E290E0841B950B04C0F694E794AA
:101A9000D794C7948A95D2F72401350104C0440C29
:101AA000551C661C771C4A95D2F7B301A201C428C5
:101AB000D52AE628F72ACD92DD92ED92FC92139773
:101AC0003196DF01AA0FBB1FAA0FBB1FA20FB31FC6
:101AD00040C0260137010B8004C076946794579468
:101AE00047940A94D2F7D101CD90DD90ED90FD900E
:101AF0001D01D701C601042E04C0880F991FAA1F1B
:101B0000BB1F0A94D2F7482A592A6A2A7B2AA9813C
:101B1000BA814D925D926D927D92BA83A9838D8137
:101B20009E8101969E838D8396CFDC01CD90DD90C2
:101B3000ED90FD90CD01D301CD92DD92ED92FD921D
:101B40003D014F5F5F4F60CF8D929D92AD92BD92F0
:101B50003196E017F107C4F326960FB6F894DEBF6E
:101B60000FBECDBFDF91CF911F910F91FF90EF90EE
:101B7000DF90CF90BF90AF909F908F907F906F90AD
:101B80005F904F903F902F900895FA016193719369
:101B900081939193990F660B762FCB0141E050E032
:101BA000421753070CF008956193719381939193B9
:101BB0004F5F5F4FF5CF2F923F924F925F926F92A0
:101BC0007F928F929F92AF92BF92CF92DF92EF92CD
:101BD000FF920F931F93CF93DF9379011B01DA01DB
:101BE000D0E0C0E040E050E0BA01CE15DF059CF047
:101BF000DF91CF911F910F91FF90EF90DF90CF90E9
:101C0000BF90AF909F908F907F906F905F904F901C
:101C10003F902F900895FC0181909190A190B190F8
:101C2000CF01F10101911191219131911F01240105
:101C30003501401A510A620A730A93018201041B9A
:101C4000150B260B370B0D931D932D933D93662497
:101C50006394712CC12CD12C452B462B472B39F08A
:101C6000081519052A053B0538F4612C05C08016B6
:101C70009106A206B306C8F7A301B6012196B5CF17
:101C80008F929F92AF92BF92CF92DF92EF92FF928C
:101C9000CF93DF93F901621773070CF4FB016C011A
:101CA0007A01B0E0A0E0AE17BF074CF162177307EE
:101CB000DCF46150704C660F771F660F771F680F5A
:101CC000791FDB01CD90DD90ED90FC90FF0CCC08EE
:101CD000DC2C7601DF01AA0FBB1FAA0FBB1FA40FCC
:101CE000B51FE217F307CCF0DF91CF91FF90EF9093
:101CF000DF90CF90BF90AF909F908F900895E601B6
:101D000089909990A990B9906E01E7018992999272
:101D1000A992B9927E011196C6CFCD92DD92ED9235
:101D2000FD923196DECF8F929F92AF92BF92CF926B
:101D3000DF92EF92FF920F931F93FB0170E060E040
:101D4000C12CD12C7601C394641775075CF01F91E8
:101D50000F91FF90EF90DF90CF90BF90AF909F904A
:101D60008F900895DC018D909D90AD90BD90CD0138
:101D70009701860101501109210931090819190932
:101D80002A093B090193119321933193A1E00C158A
:101D90001D052E053F0508F0A0E0CA2ED12CF12C20
:101DA000E12C6F5F7F4FD0CFAB0141505109FC0157
:101DB00030E020E02417350794F06150704C660F36
:101DC000771F660F771F680F791F80E090E0A0E013
:101DD000B0E8FB0180839183A283B38308951192BD
:101DE0001192119211922F5F3F4FE4CFCF92DF9269
:101DF000EF92FF92AB0141505109FC0130E020E02D
:101E0000CC24CA94DC2C760124173507B4F0615039
:101E1000704C660F771F660F771F680F791F8FEF63
:101E20009FEFAFEFBFE7FB0180839183A283B38372
:101E3000FF90EF90DF90CF900895C192D192E19200
:101E4000F1922F5F3F4FE0CFCF92DF92EF92FF9260
:101E5000FB0130E020E0C12CD12C7601C3942E1779
:101E60003F072CF0FF90EF90DF90CF900895DC01BA
:101E70004D915D916D917D91CD014C0D5D1D6E1D5E
:101E80007F1D14974D935D936D937C931397A1E001
:101E90004C155D056E057F0508F0A0E0CA2ED12C1B
:101EA000F12CE12C2F5F3F4FDACFCF92DF92EF92F0
:101EB000FF92FC0180E030E020E02617370714F4A1
:101EC000882329F0FF90EF90DF90CF900895C19084
:101ED000D190E190F1902F5F3F4F81E0CD28CE2847
:101EE000CF2859F780E0E9CF2F923F924F925F922F
:101EF0006F927F928F929F92AF92BF92CF92DF921A
:101F0000EF92FF920F931F93CF93DF93CDB7DEB77E
:101F1000A8970FB6F894DEBF0FBECDBF9EA38DA3CA
:101F20001B015E834D833A8329831A8F098FDA8AD6
:101F3000C98AF901EE0FFF1FEE0FFF1FE40FF51F17
:101F400049815A81141615060CF0A0C4B291A291D1
:101F500092918291892B8A2B8B2B11F1E98DFA8D2D
:101F600090E080E08E159F0514F1F101EE0FFF1F48
:101F7000EE0FFF1F8DA19EA1E80FF91F121413048D
:101F800004F1ADA1BEA1BA83A983E989FA8930E041
:101F900020E02A153B050CF46AC485E090E04FC0B0
:101FA00029813A81215031093A832983C9CF11927D
:101FB0001192119211920196D5CF91E0291A310810
:101FC000DDCFB291A29192918291892B8A2B8B2B9A
:101FD000A1F3E981FA812E163F069CF249885A88BE
:101FE0005A864986F20190E080E005C01192119274
:101FF0001192119201968A159B05C4F3B1E02B163C
:102000003104B1F5EDA1FEA16081718182819381DE
:10201000AD81BE812D913D914D915C910E94EF610A
:10202000E98DFA8D2083318342835383A989BA894C
:102030006D937D938D939C93139787E090E0A89682
:102040000FB6F894DEBF0FBECDBFDF91CF911F91C9
:102050000F91FF90EF90DF90CF90BF90AF909F9047
:102060008F907F906F905F904F903F902F9008954A
:10207000E981FA81E150F04CEE0FFF1FEE0FFF1FD8
:102080004D805E804E0E5F1E5C8A4B8AD201CD90E1
:10209000DD90ED90FC90D701C601B695A795979578
:1020A000879501E010E01C830B830097A105B10523
:1020B00089F5D101A150B04CAA0FBB1FAA0FBB1FBD
:1020C0008DA19EA1A80FB91F4D915D916D917C913D
:1020D000769567955795479581E090E041155105B4
:1020E0006105710511F5A981BA81A215B3051CF12D
:1020F0004B805C8084159505F0F46DA07EA07A82FB
:10210000698230E020E02A153B050CF49DC386E08F
:1021100090E095CF2B813C812F5F3F4F3C832B83F9
:10212000B695A79597958795C0CF019676956795B3
:1021300057954795D3CF29813A8121503109388B62
:102140002F87910121503109890175E0000F111F7E
:102150007A95E1F7080F191F4F855889A5E0440FBC
:10216000551FAA95E1F76B817C81640F751F7E87EF
:102170006D87AB81BC81A032B10509F498C134965A
:102180004D805E80E40DF51D70E060E040E250E0BF
:102190004A1B5B0B46015701042E04C0880C991C96
:1021A000AA1CBB1C0A94D2F76F5F7F4F69807A80AC
:1021B0006616770609F062C1AD81BE818D929D924F
:1021C000AD92BC921397CC24CA94DC2C76012601E4
:1021D000370104C0440C551C661C771C4A95D2F785
:1021E0004D8A5E8A6F8A788E49815A8141305105C5
:1021F00009F066C14D885E886F88788C4D8E5E8E42
:102200006F8E78A269817A81615071094FEF5FE327
:10221000649F4001659F900C749F900C11249AA2BA
:1022200089A21C861B86AD84BE84A094B094BCA2F7
:10223000ABA2A901440F551F440F551FADA1BEA16C
:10224000A40FB51FB887AF838032910509F440C051
:10225000CD90DD90ED90FC9013974B855C85405EB2
:102260005F4FFA01E81BF90BFC87EB87FD01A90121
:1022700060E270E0681B790B26013701062E04C06E
:10228000440C551C661C771C0A94D2F714161506CC
:102290000CF41FC1A90137FF02C050E040E08824C0
:1022A0008A94FFE39F2E489DF001499DF00D589DB3
:1022B000F00D1124E20FF31FEE0FFF1FEE0FFF1FB3
:1022C0008DA19EA1E80FF91F408251826282738224
:1022D000EF81F88580819181A281B381EB89FC89AE
:1022E0004081518162817381CD8CDE8CEF8CF8A0AE
:1022F000C822D922EA22FB22C416D506E606F70632
:1023000009F067C14F80588458A64FA26B887C881B
:102310007C8E6B8EB2014F8558894115510509F0AD
:10232000F1C06D857E85061B170B8F8598890097F8
:1023300009F09DC1E9A1FAA1E20FF31FEE0FFF1F03
:10234000EE0FFF1F2DA13EA12E0F3F1FF90180812F
:102350009181A281B381ED81FE81408151816281B1
:102360007381841B950BA60BB70BF90180839183B6
:10237000A283B383F80195E0F695E7959A95E1F786
:10238000EE0FFF1FEE0FFF1F698C7A8CE60DF71D15
:102390000F71112741E050E060E070E004C0440F8D
:1023A000551F661F771F0A95D2F780819181A28100
:1023B000B381842B952BA62BB72B80839183A2838B
:1023C000B383EF81F885121413040CF062C280818C
:1023D0009181A281B3819101215031093497892BD8
:1023E0008A2B8B2B09F47FC169807A8026143704ED
:1023F0000CF07BC191012150310984E090E06B85A4
:102400007C8545E0769567954A95E1F74B855C8537
:102410004F715527FB01EE0FFF1FEE0FFF1F4115F8
:10242000510509F497C12DA03EA02E0E3F1ED101EB
:10243000CD90DD90ED90FC90B0E0A0E0E0E2F0E027
:102440002F01441A550A5A82498246015701042E27
:1024500004C0B694A794979487940A94D2F76F5FB8
:102460007F4F1496261737070CF0B6C1A985BA8599
:102470008D929D92AD92BC92139785C1DF01189702
:10248000CD90DD90ED90FC90260137010B8004C0CB
:1024900076946794579447940A94D2F784289528A1
:1024A000A628B728B292A2929292829273CE662404
:1024B0006A94762C43016D8A7E8A8F8A988E94CE98
:1024C00066246A94762C43016D8E7E8E8F8E98A240
:1024D00099CEF290E290D290C29046015701082E18
:1024E00004C0B694A794979487940A94D2F784284A
:1024F0009528A628B72884829582A682B782415063
:102500005109BACEFB017290629052904290BF0185
:1025100041505109EB8DFC8DB290A2909290829027
:10252000FC8FEB8FCC24CA94DC2C7601411551052D
:1025300021F4CD88DE88EF88F88CC420D520E620F1
:10254000F720C814D904EA04FB0409F4E6CE841485
:102550009504A604B70408F485C0AD84BE84A01613
:10256000B10608F0A9C1EF81F885A9016C017D01D0
:10257000CC0CDD1CEE1CFF1C141615060CF483C0DD
:10258000A90137FF02C050E040E044244A946FE3C1
:10259000562E449DF001459DF00D549DF00D1124E3
:1025A000E20FF31FEE0FFF1FEE0FFF1F6DA07EA0C7
:1025B000E60DF71DC082D182E282F3824B855C85F5
:1025C0004F5F5F4F5C874B876BA17CA1060F171F86
:1025D0000AC0481759076A077B0708F0BECF8D84E9
:1025E0009E8408191909F90189819A81E81BF90B60
:1025F0003196EE0FFF1FEE0FFF1FADA1BEA1EA0F38
:10260000FB1F4D805E805C8E4B8E90E080E040E052
:1026100050E0BA0181909190A190B190AB8DBC8DAA
:10262000CD90DD90ED90FD90BC8FAB8F24013501F6
:102630004C185D086E087F0873016201C41AD50A40
:10264000E60AF70A66246394712C30E020E0452BFB
:10265000462B472B79F1C814D904EA04FB0478F51A
:10266000612C2DC04D855E85041B150BBCCFAFA121
:10267000B8A51D921D921D921C9213970197149755
:10268000B8A7AFA354CEB291A291929182914C017E
:102690005D018824B7FC83949924AA24BB24C8280C
:1026A000D928EA28FB28C482D582E682F7824150E5
:1026B00051095CCF8C149D04AE04BF0488F6A301BD
:1026C000632F722F9F0124503109D901CD92DD92E1
:1026D000ED92FC921397019649805A8084159505D6
:1026E0000CF498CF47CE19016ECEF101E150F04CB9
:1026F000EE0FFF1FEE0FFF1F8DA09EA0E80DF91D2E
:102700004081518162817381769567955795479590
:1027100081E090E04115510561057105A9F4890139
:10272000B5E0000F111FBA95E1F7AB84BC840A191C
:102730001B09080F191F4D855E850417150708F042
:1027400078CD82E090E05BCE0196769567955795BF
:102750004795E0CFADA1BEA1EA0FFB1F30E020E01E
:102760004191519161917191A985BA854D935D9384
:102770006D937D93BA87A9872F5F3F4F4F84588809
:10278000421653066CF7EB81FC81B09709F457CCE5
:10279000AD81BE81CD90DD90ED90FC901397FD0151
:1027A00030E020E040E250E04B805C804419550965
:1027B00026013701042E04C07694679457944794F9
:1027C0000A94D2F78F8498882815390524F140821D
:1027D00051826282738233CC81010A0F1B1FF80180
:1027E000C080D180E280F38026013701098004C0D7
:1027F000440C551C661C771C0A94D2F78428952833
:10280000A628B728E985FA8581929192A192B19282
:10281000FA87E9871ACEC480D580E680F780460122
:1028200057010B8004C0880C991CAA1CBB1C0A947D
:10283000D2F784289528A628B72881929192A19250
:10284000B1922F5F3F4FB4CFE981FA81819191918D
:10285000A191B191FA83E983E985FA8581939193F6
:10286000A193B193FA87E9872F5F3F4F4CCCA981A1
:10287000BA814D915D916D917D91BA83A983419308
:102880005193619371932F5F3F4F83CB8FEF9FEFF6
:10289000D6CB2114310409F0ADCDEDA1FEA180818C
:1028A0009181A281B381E989FA8980839183A2838E
:1028B000B38381E090E067CF83E090E0A0CD2F92DA
:1028C0003F924F925F926F927F928F929F92AF92C0
:1028D000BF92CF92DF92EF92FF920F931F93CF930D
:1028E000DF93CDB7DEB764970FB6F894DEBF0FBEA7
:1028F000CDBF2A013E832D8338011701DE86CD86A8
:10290000B88AAF862AA53BA53A8B298B4CA55DA535
:1029100058874F83AEA5BFA5BC8BAB8BFB01E150A5
:10292000F04CEE0FFF1FEE0FFF1FE80FF91F208185
:1029300031814281538129833A834B835C83ED81CA
:10294000FE81E150F04CEE0FFF1FEE0FFF1FE40D74
:10295000F51D208131814281538129873A874B8738
:102960005C8729813A814B815C8157FF40C0AB0174
:10297000B401D9D989859A85AB85BC85B7FF3CC0A0
:102980004D815E816F817885C201CDD9AF84B888D1
:10299000CD84DE84710183012B893C894F81588568
:1029A00069897A89C401A0DA97FF48C029813A81F0
:1029B0004B815C81B101C30157FF27C064960FB6FC
:1029C000F894DEBF0FBECDBFDF91CF911F910F9165
:1029D000FF90EF90DF90CF90BF90AF909F908F903F
:1029E0007F906F905F904F903F902F90DDC9298925
:1029F0003A89A40145D9BECF2B893C894F8158859E
:102A00006D817E81C2013CD9C1CF64960FB6F89426
:102A1000DEBF0FBECDBFDF91CF911F910F91FF9011
:102A2000EF90DF90CF90BF90AF909F908F907F906E
:102A30006F905F904F903F902F90D8C989819A8175
:102A4000AB81BC818827B7FD83959927AA27BB272F
:102A500049855A856B857C85442777FD43955527A5
:102A600066277727841731F16F8578898D859E8554
:102A70001CDA882319F0B101C301E6D9A101B30121
:102A8000C30164960FB6F894DEBF0FBECDBFDF91D1
:102A9000CF911F910F91FF90EF90DF90CF90BF905B
:102AA000AF909F908F907F906F905F904F903F90EE
:102AB0002F9039C964960FB6F894DEBF0FBECDBF14
:102AC000DF91CF911F910F91FF90EF90DF90CF900A
:102AD000BF90AF909F908F907F906F905F904F903E
:102AE0003F902F9008954F925F926F927F928F92B6
:102AF0009F92AF92BF92CF92DF92EF92FF92CF93CD
:102B0000DF939A012150304C220F331F220F331FC5
:102B1000FC01E20FF31F80809180A280B380FB0153
:102B2000E20FF31FC080D180E280F380CC24DD244B
:102B3000EE24E0E8FE2224013501442455246624D5
:102B4000E0E87E22C414D504E604F70499F52C5F6E
:102B50003F4FFC01E20FF31FEB01C20FD31F14160E
:102B600015068CF090E080E0DF91CF91FF90EF9020
:102B7000DF90CF90BF90AF909F908F907F906F909D
:102B80005F904F90089541505109F290E290D29099
:102B9000C290BA91AA919A918A91C816D906EA066A
:102BA000FB06E9F28C159D05AE05BF0528F481E012
:102BB00090E0DACFB7FEFBCF8FEF9FEFD5CF93DF5B
:102BC000892F8095881F8827881F0895FC0191E030
:102BD00080916A05811190E0928308952F923F922F
:102BE0006F927F928F929F92AF92BF92CF92DF921D
:102BF000EF92FF920F931F93CF93DF9300D000D0FB
:102C0000CDB7DEB71B013C0189014E835D8320E017
:102C100030E0A901B8018E819D810E94C7568111C3
:102C200025C020E030E0A901B101C3010E94C756D0
:102C3000882309F46BC061017301B601C7012696B0
:102C40000FB6F894DEBF0FBECDBFDF91CF911F91BD
:102C50000F91FF90EF90DF90CF90BF90AF909F903B
:102C60008F907F906F903F902F900895B101C30196
:102C70000E945808882349F0C090DE10D090DF10E1
:102C8000E090E010F090E110D8CFB8018E819D81E6
:102C90000E9458088111F0CFB101C3010E941308AE
:102CA0008111EACF20E030E0A901B101C3010E9407
:102CB000C75681110BC098014E815D8160E070E0C4
:102CC000CB010E94CB566B017C01B7CFB8018E813E
:102CD0009D810E9413088823E9F020E030E0A901DB
:102CE000B8018E819D810E94C756F82EFF1CFF24DB
:102CF000FF1C20E030E0A901B101C3010E94C756CA
:102D0000881F8827881FF81609F495CF6801EE8080
:102D1000FD8093CF98014E815D81B101C3010E9476
:102D2000BB576B017C01BB24B39420E030E0A901C8
:102D30000E94C7568111B12C20E030E0A901B601F4
:102D4000C7010E94C756882309F447C0B8018E8185
:102D50009D810E94A1579B01AC01B8018E819D818C
:102D60000E94B7581816CCF598014E815D81B101CB
:102D7000C3010E94CB564B015C01E894B7F820E0F8
:102D800030E040E05FE3C501B4010E9450560E946C
:102D9000A1579B01AC01C501B4010E944F569B0194
:102DA000AC015F7729833A834B835C8320E030E07A
:102DB00040E054E3C501B4010E94F1589B01AC010D
:102DC000BB24B39469817A818B819C810E94B7581E
:102DD00018160CF0B12C81E0B82620E030E0A901F3
:102DE000BB2031F0B8018E819D810E94F1586BCFDC
:102DF000B101C3010E94C756B82EBB1CBB24BB1C2B
:102E000020E030E0A901B8018E819D810E94C75663
:102E1000881F8827881FB81609F40FCF98014E81A4
:102E20005D81B601C7010E9450564DCF80919C1321
:102E30008150823060F483E080939C1380914F0531
:102E4000882339F0813049F08091500503C080E03B
:102E5000F3CF81E080934E0502C010924E05E091C1
:102E60004E0584E0E89FF0011124EF5AFA4F80816B
:102E70009181A281B38180934A0590934B05A093E1
:102E80004C05B0934D058FEF80934E05209138028D
:102E90003091390240913A0250913B026091FE120A
:102EA0007091FF1280910013909101130E9450566F
:102EB0006093FE127093FF1280930013909301139E
:102EC00020914002309141024091420250914302D0
:102ED00085DE60934E1270934F1280935012909340
:102EE000511284E080939C1360914A0570914B05C8
:102EF00080914C0590914D050E9464572AE037ED72
:102F000043E25CE30E94F1580E943857AB01BC01D8
:102F100083E090E00C942D0780919B1381508230C8
:102F200060F483E080939B1380915E05882339F0E1
:102F3000813049F080915F0503C080E0F3CF81E0EC
:102F400080935D0502C010925D05E0915D0584E00F
:102F5000E89FF0011124E05AFA4F80819181A2810B
:102F6000B3818093590590935A05A0935B05B09364
:102F70005C058FEF80935D052091480230914902F6
:102F800040914A0250914B026091FA127091FB12EB
:102F90008091FC129091FD120E9450566093FA129B
:102FA0007093FB128093FC129093FD1220915002BB
:102FB0003091510240915202509153020FDE6093C2
:102FC0004A1270934B1280934C1290934D1284E0EE
:102FD00080939B136091590570915A0580915B0510
:102FE00090915C050E9464572AE037ED43E25CE370
:102FF0000E94F1580E943857AB01BC0184E090E078
:103000000C942D07CF92DF92EF92FF926B017C011F
:103010009F7720E030E040E859E50E94C75687FFDF
:103020002BC020E030E040E05FE3C701B6010E9422
:10303000B75887FD0EC020E030E040E05FE3C701F5
:10304000B6010E945056FF90EF90DF90CF900C9405
:10305000A15720E030E040E05FEBC701B6010E94DD
:10306000B758181684F420E030E0A901C701B60172
:103070000E94F1586B017C01C701B601FF90EF90EF
:10308000DF90CF90089520E030E040E05FE3C7019B
:10309000B6010E944F56FF90EF90DF90CF900C94B6
:1030A000B456E091F304F091F404809116129091DB
:1030B0001712A0911812B091191280839183A283E4
:1030C000B3838091121290911312A0911412B091B7
:1030D000151284839583A683B78308952F923F9218
:1030E0004F925F926F927F928F929F92AF92BF9218
:1030F000CF92DF92EF92FF920F931F93CF93DF93C4
:10310000CDB7DEB7C255D1090FB6F894DEBF0FBEFA
:10311000CDBF00917405109175050130110509F0BE
:103120000FC260913A0570913B0580913C059091EA
:103130003D056F5F7F4F8F4F9F4F0E9464572091D7
:103140003E0530913F0540914005509141050E9458
:10315000F15860937504709376048093770490938C
:10316000780480916A0590916905911105C091E0FC
:10317000811190E090936B058F5F8A3008F0DDC17C
:1031800080936A0580919A138150823008F4F0C1CF
:1031900080E080939A13809199138150823008F4D3
:1031A000E9C180E0809399138091A313815082300C
:1031B00008F4E2C180E08093A313809198138150BA
:1031C000823008F4DBC180E08093981380919713DC
:1031D0008150823008F4D4C180E0809397138091AD
:1031E00096138150823008F4CDC180E0809396130D
:1031F000809195138150823008F4C6C180E080939D
:103200009513809194138150823008F4BFC180E0FF
:1032100080939413809193138150823008F4B8C145
:1032200080E080939313809192138150823008F450
:10323000B1C180E0809392138091861290918712A1
:10324000A0918812B09189128093521290935312D8
:10325000A0935412B09355120130110509F063C0C8
:10326000C0904E12D0904F12E0905012F090511238
:10327000C092B611D092B711E092B811F092B91184
:103280004090F2125090F3126090F4127090F51288
:103290004092BA115092BB116092BC117092BD1154
:1032A0008090F6129090F712A090F812B090F91258
:1032B0008092BE119092BF11A092C011B092C11124
:1032C0008091A013811168C181E08093A01381E0F7
:1032D00090E0A0E0B0E08093861390938713A093D2
:1032E0008813B093891310924212109243121092D5
:1032F000441210924512C0923613D0923713E092C6
:103300003813F092391380914A1290914B12A09188
:103310004C12B0914D128093C2119093C311A0939F
:10332000C411B093C511E0916B04F0916C04E0807E
:10333000F18021E0E216F10429F08091E60488236F
:1033400009F4B5C120E030E040E85FE3609142124B
:103350007091431280914412909145120E94C75679
:10336000882309F48AC18FEF80938E1301301105F1
:1033700009F044C080916B05882301F1809102130C
:1033800090910313A0910413B09105138093C6117B
:103390009093C711A093C811B093C91180910613DF
:1033A00090910713A0910813B09109138093CA114B
:1033B0009093CB11A093CC11B093CD11809180024A
:1033C00090918102A0918202B09183028093CE11EC
:1033D0009093CF11A093D011B093D111809184021A
:1033E00090918502A0918602B09187028093D211BC
:1033F0009093D311A093D411B093D511C0906802CB
:10340000D0906902E0906A02F0906B02A7019601E9
:103410006091AE127091AF128091B0129091B11282
:103420000E94C756882341F0C092AE12D092AF12CC
:10343000E092B012F092B11266E370E080E090E0AA
:103440000E948E019093AD128093AC1243E050E045
:10345000BE016F5D7F4F0E947D012091DC023091A3
:10346000DD02A9A1BAA10E9419620E94645720E05E
:1034700030E040E057E30E94F1586B017C01C092BC
:10348000D611D092D711E092D811F092D911809133
:10349000740590917505019709F093C680919F136B
:1034A000811161C181E080939F1381E090E0A0E0F1
:1034B000B0E08093821390938313A0938413B0930E
:1034C0008513109236121092371210923812109201
:1034D000391210923A1210923B1210923C12109232
:1034E0003D128DEC9CECACE4B1E480932E139093F0
:1034F0002F13A0933013B093311380E090E0A0E03D
:10350000B3E48093321390933313A0933413B093A6
:103510003513C0903612D0903712E0903812F090E8
:10352000391280919E1381114FC581E080939E13C3
:1035300081E090E0A0E0B0E06EC510926A0522CE76
:103540000115110509F01ECEE091A504F091A60425
:103550000190F081E02D80819181A281B381E09181
:103560007705F091780580839183A283B3830ACE97
:1035700083E00FCE83E016CE83E01DCE83E024CE21
:1035800083E02BCE83E032CE83E039CE83E040CEA1
:1035900083E047CE83E04ECE20913613309137132F
:1035A000409138135091391380918613909187136D
:1035B000A0918813B09189130197A105B105C1F5B8
:1035C000C701B6010E94C756882309F48CCE82E059
:1035D00090E0A0E0B0E08093861390938713A093CF
:1035E0008813B093891380E090E0A0E8BFE3809354
:1035F000421290934312A0934412B0934512C0928A
:103600003613D0923713E0923813F0923913809228
:103610003A1390923B13A0923C13B0923D13409208
:103620003E1350923F1360924013709241136BCE41
:10363000C701B6010E94C7568823A9F220E030E0F6
:10364000A90160913A1370913B1380913C139091C2
:103650003D130E94C7568111C6CF20E030E0A9017A
:1036600060913E1370913F138091401390914113EC
:103670000E94C7568111B7CF2ACE10928E13013007
:10368000110509F056C08090C2119090C311A0900E
:10369000C411B090C5118091A11381110DC081E0BA
:1036A0008093A11381E090E0A0E0B0E023C080917E
:1036B0008E1381115BCEE3CF2091421330914313DF
:1036C000409144135091451380918A1390918B132C
:1036D000A0918C13B0918D130197A105B10599F4B8
:1036E000C501B4010E94C756882399F082E090E09A
:1036F000A0E0B0E080938A1390938B13A0938C1377
:10370000B0938D1306C0C501B4010E94C756811144
:10371000C9CF8092461290924712A0924812B0925E
:1037200049128092421390924313A0924413B09294
:103730004513EA94EF2829F08091E604882309F4E0
:1037400015CE80919813882359F0833029F481E0B5
:1037500090E0809398130ACE082E000C990BF9CFB5
:1037600082E090E0F6CF8091821390918313A09134
:103770008413B091851383309105A105B10509F437
:1037800021C108F05BC081309105A105B10509F4A4
:1037900095C00297A105B10509F4BBC08090D21174
:1037A0009090D311A090D411B090D51120E030E0CA
:1037B00040E251E4C501B4010E94B75818160CF458
:1037C00035C220E030E040E251E46091CE117091CA
:1037D000CF118091D0119091D1110E94C756181627
:1037E0000CF010C14090CA115090CB116090CC11D8
:1037F0007090CD1120E030E040E251E4C301B2010D
:103800000E94C75618160CF4C4C385E090E0A0E0EF
:10381000B0E08093821390938313A0938413B093AA
:103820008513C0903213D0903313E0903413F0908E
:103830003513A5019401C301B20177C38530910509
:10384000A105B10509F404C308F4B4C10697A105A4
:10385000B10509F0A3CF8090CA119090CB11A09030
:10386000CC11B090CD1120E030E040E251E4C50130
:10387000B4010E94B75818160CF4D8C14090D21168
:103880005090D3116090D4117090D51120E030E0A9
:1038900040E251E4C301B2010E94C75618160CF46D
:1038A00057C385E090E0A0E0B0E08093821390934E
:1038B0008313A0938413B09385132BC320E030E0CF
:1038C00040E85FE36091421270914312809144128C
:1038D000909145120E94C7568111F3CD82E090E08D
:1038E000A0E0B0E08093821390938313A09384139D
:1038F000B0938513C0923612D0923712E0923812EC
:10390000F0923912A701960160E070E080E893E43C
:1039100035C120E030E0A90160914212709143125C
:1039200080914412909145120E94C756811109C09E
:1039300010923E1210923F121092401210924112B9
:10394000B4CD20E030E040E85FE360914612709132
:10395000471280914812909149120E94C7568111D6
:10396000C9CF80E090E0A0E0B3E48093321390935D
:103970003313A0933413B093351310923E12109268
:103980003F12109240121092411243E050E060E06A
:1039900070E0409382135093831360938413709369
:1039A00085138093361290933712A0933812B093F8
:1039B000391280933A1290933B12A0933C12B09329
:1039C0003D12A7CD20E030E0A90160914612709130
:1039D000471280914812909149120E94C75688233D
:1039E00009F47CCF20E030E040E251E46091CE1158
:1039F0007091CF118091D0119091D1110E94C75632
:103A000018164CF184E090E0A0E0B0E080938213BF
:103A100090938313A0938413B0938513109236125E
:103A200010923712109238121092391210923A12E4
:103A300010923B1210923C1210923D1280E090E0E6
:103A4000A0E8BFE380933E1290933F12A0934012F0
:103A5000B09341125ECD8090D2119090D311A0907E
:103A6000D411B090D511C0903213D0903313E090A0
:103A70003413F090351320E030E040E251E4C5010A
:103A8000B4010E94C7561816ACF187E090E0A0E0A0
:103A9000B0E08093821390938313A0938413B09328
:103AA0008513A501940160E070E080E291E40E943A
:103AB0004F5620912E1330912F1340913013509177
:103AC00031130E94F1584B015C01AC019B01C7010D
:103AD000B6010E944F56609336127093371280934E
:103AE000381290933912A7019601C501B4010E94C2
:103AF000505646C08090CA119090CB11A090CC1126
:103B0000B090CD1120E030E040E251E4C501B401B5
:103B10000E94C7561816ECF186E090E0A0E0B0E0F5
:103B20008093821390938313A0938413B09385138F
:103B3000A501940160E070E080E291E40E944F569C
:103B400020912E1330912F13409130135091311347
:103B50000E94F1584B015C01A7019601C501B40117
:103B60000E94505660933612709337128093381229
:103B700090933912A5019401C701B6010E944F56D6
:103B800060933A1270933B1280933C1290933D12D3
:103B9000C0CCC0923612D0923712E0923812F09216
:103BA0003912C0923A12D0923B12E0923C12F0923B
:103BB0003D12AFCC8090CA119090CB11A090CC1147
:103BC000B090CD114090D2115090D3116090D4118B
:103BD0007090D51120E030E040E251E4C501B4011D
:103BE0000E94B7581816BCF520E030E040E251E4DE
:103BF000C301B2010E94B75818166CF520E030E0FE
:103C000040E251E46091CE117091CF118091D011BA
:103C10009091D1110E94B7581816ECF410923E12F0
:103C200010923F12109240121092411283E090E0E5
:103C3000A0E0B0E08093821390938313A093841349
:103C4000B09385138091321390913313A091341364
:103C5000B0913513A6CE20E030E040E251E4C5013A
:103C6000B4010E94C75620E030E040E251E418164B
:103C70000CF459C0C301B2010E94C75618160CF4C7
:103C80008EC020E030E040E251E46091CE117091AE
:103C9000CF118091D0119091D1110E94B758181670
:103CA0000CF047C010923E1210923F121092401238
:103CB0001092411285E090E0A0E0B0E08093821382
:103CC00090938313A0938413B0938513A30192015F
:103CD000C501B4010E944F5620912E1330912F132D
:103CE00040913013509131130E94F1586B017C01C7
:103CF0008090321390903313A0903413B09035130A
:103D0000AC019B01C501B4010E944F56609336126D
:103D1000709337128093381290933912A501940151
:103D2000C701B601E4CEC301B2010E94C7561816FE
:103D30005CF120E030E040E251E46091CE117091FE
:103D4000CF118091D0119091D1110E94B7581816BF
:103D5000DCF410923E1210923F1210924012109218
:103D6000411287E090E0A0E0B0E08093821390934E
:103D70008313A0938413B0938513A301920160E091
:103D800070E080E291E4A6CF20E030E040E251E430
:103D9000C501B4010E94C75618160CF441C020E0BA
:103DA00030E040E251E46091CE117091CF118091EA
:103DB000D0119091D1110E94B75818168CF510921D
:103DC0003E1210923F12109240121092411286E061
:103DD00090E0A0E0B0E08093821390938313A093CF
:103DE0008413B0938513A501940160E070E080E234
:103DF00091E40E944F5620912E1330912F13409141
:103E00003013509131130E94F1584B015C01C09066
:103E10003213D0903313E0903413F09035139CCECE
:103E200020E030E0A9016091461270914712809124
:103E30004812909149120E94C7568111EFCD1092FD
:103E40003E1210923F12109240121092411246CD33
:103E500020E030E040E251E46091CE117091CF114A
:103E60008091D0119091D1110E94C75618160CF074
:103E7000C9CD4090D2115090D3116090D411709060
:103E8000D5118090CA119090CB11A090CC11B09018
:103E9000CD1120E030E040E251E4C301B2010E94C4
:103EA000B75818160CF493CF20E030E040E251E40C
:103EB000C501B4010E94B7581816DCF487E090E001
:103EC000A0E0B0E08093821390938313A0938413B7
:103ED000B0938513C0903213D0903313E090341315
:103EE000F0903513A301920160E070E080E291E46C
:103EF0001CC020E030E0A901609146127091471289
:103F000080914812909149120E94C756882309F463
:103F1000E5CCC0903213D0903313E0903413F0907E
:103F20003513A3019201C501B4010E944F5620919F
:103F30002E1330912F1340913013509131130E9462
:103F4000F1584B015C01AC019B01C701B601DCCE0D
:103F500020E030E040E251E46091CE117091CF1149
:103F60008091D0119091D1110E94C75618160CF073
:103F700049CD20E030E0A9016091461270914712CE
:103F800080914812909149120E94C75681112BCFFF
:103F9000A5CC20E030E0A901609146127091471253
:103FA00080914812909149120E94C756882309F4C3
:103FB00095CCC0903213D0903313E0903413F0902E
:103FC0003513A501940190CF80917E1390917F13BA
:103FD000A0918013B091811381309105A105B105A5
:103FE000D9F10297A105B10509F40BC520E030E035
:103FF00040E251E46091C6117091C7118091C811DF
:104000009091C9110E94B75818160CF041C582E072
:1040100090E0A0E0B0E080937E1390937F13A09394
:104020008013B0938113C0922E12D0922F12E0927F
:104030003012F092311280913A1290913B12A0917D
:104040003C12B0913D128093321290933312A093A0
:104050003412B093351234C080903A1290903B12D3
:10406000A0903C12B0903D1220E030E040E85FE3C9
:1040700060914612709147128091481290914912B6
:104080000E94C75681110CC082E090E0A0E0B0E031
:1040900080937E1390937F13A0938013B09381132A
:1040A000C0922E12D0922F12E0923012F092311262
:1040B0008092321290923312A0923412B092351242
:1040C0001092A6111092A7111092A8111092A91186
:1040D0001092AA111092AB111092AC111092AD1166
:1040E0008091200290912102A0912202B09123029E
:1040F000898B9A8BAB8BBC8B8091661390916713E5
:10410000A0916813B091691389879A87AB87BC87A0
:1041100042E0E42EF12C06EA11E121E030E0AE01AC
:10412000475F5F4F61E070E0CE0141960E94590801
:10413000C0903212D0903312E0903412F0903512C9
:1041400050E040E062E070E0C8010E94ED0A20E02B
:1041500030E040E05FE20E94F1589B01AC01C701F2
:10416000B6010E944F5669AB7AAB8BAB9CAB9B01FF
:10417000AC01609108027091090280910A0290914D
:104180000B020E94F1586093DA117093DB11809357
:10419000DC119093DD1129A93AA94BA95CA9609182
:1041A00000027091010280910202909103020E942C
:1041B000F1586093DE117093DF118093E0119093BA
:1041C000E111E0917705F091780580809180A280DF
:1041D000B38040900A1350900B1360900C137090B2
:1041E0000D13C0901213D0901313E0901413F0909D
:1041F0001513A3019201C501B4010E94C7561816F8
:104200000CF457C4A7019601C501B4010E94C7561A
:1042100018160CF44EC410925612109257121092A7
:104220005812109259122091DA113091DB114091FD
:10423000DC115091DD1160915212709153128091F6
:104240005412909155120E9450562091561230915E
:10425000571240915812509159120E9450566B01BA
:104260007C01C092E211D092E311E092E411F0924D
:10427000E511409088025090890260908A02709007
:104280008B02A30192010E94B75818160CF069C462
:104290004092E6115092E7116092E8117092E91194
:1042A00020910C0230910D0240910E0250910F02AC
:1042B00060E070E08FE793E40E94CB562091E61116
:1042C0003091E7114091E8115091E9110E94F158A5
:1042D0000E94A1576093521270935312809354120C
:1042E000909355120E945808882309F453C41092E1
:1042F0005212109253121092541210925512C090F2
:104300005212D0905312E0905412F090551220E0C7
:1043100030E0A901C701B6010E94C75687FF5DC4FE
:10432000C701B60190580E94385761956093821278
:1043300070E090E080E00E9464576093EA1170930F
:10434000EB118093EC119093ED1120917405309155
:1043500075052130310509F091C01092EE111092CF
:10436000EF111092F0111092F1116093F21170930D
:10437000F3118093F4119093F5111092AE111092F5
:10438000AF111092B0111092B1111092B21110929F
:10439000B3111092B4111092B51180912002909136
:1043A0002102A0912202B0912302898B9A8BAB8BC0
:1043B000BC8B80916A1390916B13A0916C13B09198
:1043C0006D1389879A87AB87BC8732E0E32EF12C87
:1043D0000EEA11E121E030E0AE01475F5F4F61E09E
:1043E00070E0CE0141960E945908C0902E12D090E4
:1043F0002F12E0903012F090311250E040E062E075
:1044000070E0C8010E94ED0A20E030E040E05FE289
:104410000E94F1589B01AC01C701B6010E944F56A2
:104420006DAB7EAB8FAB98AF9B01AC016091080286
:104430007091090280910A0290910B020E94F1583A
:104440006093F6117093F7118093F8119093F9111E
:104450002DA93EA94FA958AD6091000270910102AB
:1044600080910202909103020E94F1586093FA1128
:104470007093FB118093FC119093FD1140901A13DF
:1044800050901B1360901C1370901D13C09022134A
:10449000D0902313E0902413F0902513A3019201F0
:1044A000C501B4010E94C75618160CF49BC3A7019E
:1044B0009601C501B4010E94C75618160CF492C3A8
:1044C00010925212109253121092541210925512CE
:1044D0002091F6113091F7114091F8115091F91196
:1044E00060918A1270918B1280918C1290918D1232
:1044F0000E94505620915212309153124091541202
:10450000509155120E9450566B017C01C092FE11D1
:10451000D092FF11E0920012F0920112809094026A
:1045200090909502A0909602B0909702A5019401F8
:104530000E94B75818160CF0ADC3809202129092E8
:104540000312A0920412B092051220910C02309135
:104550000D0240910E0250910F0260E070E08FE773
:1045600093E40E94CB5620910212309103124091A5
:104570000412509105120E94F1580E94A1576B013C
:104580007C010E94580881119EC3C701B6010E9498
:104590001308811198C320E030E040E853E4C701DC
:1045A000B6010E94BB576B017C0120E030E0A901FD
:1045B0000E94C75687FF8AC3C701B60190580E9460
:1045C000385761956093831270E090E080E00E941C
:1045D00064576093061270930712809308129093A9
:1045E000091220917405309175052130310581F44F
:1045F00010920A1210920B1210920C1210920D12BD
:1046000060930E1270930F128093101290931112F8
:104610006BE070E080E090E00E94D5038C01909305
:10462000E9128093E8126091831270E090E080E0DC
:104630000E946457AB01BC01C8010E949E03809197
:104640007405909175050197B1F42DA93EA94FA964
:1046500058AD60910402709105028091060290911C
:1046600007020E94F1586093121270931312809304
:104670001412909315126CE270E080E090E00E94BA
:10468000D5038C019093F1128093F0126091821205
:1046900070E090E080E00E946457AB01BC01C8016B
:1046A0000E949E038091740590917505019709F011
:1046B0008EC429A93AA94BA95CA960910402709102
:1046C000050280910602909107020E94F1586093C2
:1046D00016127093171280931812909319128091EA
:1046E0003E1290913F12A0914012B09141128093DE
:1046F000A4139093A513A093A613B093A713C090EF
:104700007613D0907713E0907813F0907913C70167
:10471000B6010E9466574B015C012091A4023091C2
:10472000A5024091A6025091A7020E94C75687FF9A
:10473000D2C2F7FCD0C240909C0250909D02609083
:104740009E0270909F0220E030E040E85FE36091BD
:10475000A0027091A1028091A2029091A3020E94F6
:104760004F569B01AC01C501B4010E94B75887FDAB
:10477000B6C210927613109277131092781310929B
:104780007913E0916B04F0916C0400811181013088
:10479000110521F08091E6048823A9F0FF24F39409
:1047A00020E030E040E85FE36091461270914712EC
:1047B00080914812909149120E94C756811101C000
:1047C000F12CF0928F138090421290904312A0909F
:1047D0004412B090451280918F13811195C220919F
:1047E000AC023091AD024091AE025091AF02C501D2
:1047F000B4010E94F1586B017C010130110521F0D8
:104800008091E604882379F080919A13882309F433
:1048100078C2833009F071C281E090E080939A13EE
:104820000130110521F08091E604882379F0772486
:10483000739420E030E040E85FE3C501B4010E94DA
:10484000C756811101C0712C709290138091901302
:10485000811183C28090E4029090E502A090E6026C
:10486000B090E7020130110521F08091E604882321
:1048700061F08091A313882309F46CC2833009F09E
:1048800065C281E090E08093A31310921A121092F7
:104890001B1210921C1210921D1280919D138111F7
:1048A0007EC281E080939D1382E090E0A0E0B0E0C2
:1048B00080937A1390937B13A0937C13B0937D1312
:1048C00010922A1210922B1210922C1210922D126A
:1048D00010922A1310922B1310922C1310922D1356
:1048E00040902C0250902D0260902E0270902F026A
:1048F000A30192016091BA127091BB128091BC1217
:104900009091BD120E94C756882341F04092BA127E
:104910005092BB126092BC127092BD1267E370E0BD
:1049200080E090E00E948E019093B9128093B812BB
:1049300043E050E0BE016F5D7F4F0E947D01E0913A
:104940006B04F0916C04008111810130110531F08C
:104950008091E604882311F40C94C42D40902A120F
:1049600050902B1260902C1270902D1220E030E0AD
:10497000A901C301B2010E94C756882311F40C9407
:104980009F2D20E030E040E85FE3C301B2010E94C8
:10499000C756882311F40C94592D20E030E040E0F4
:1049A00050E4C301B2010E94C756811185C282E062
:1049B000809391138091B0029091B102A091B202C4
:1049C000B091B30280931E1290931F12A0932012F5
:1049D000B09321120130110529F08091E60488235B
:1049E00009F46DC280919313882311F40C940C2E5A
:1049F000833011F00C94072E81E090E080939313A4
:104A00005EC220E030E0A901609146127091471229
:104A100080914812909149120E94C756882311F440
:104A20000C94981A20E030E040E251E46091C61105
:104A30007091C7118091C8119091C9110E94C756F9
:104A400018160CF4F0CA83E090E0A0E0B0E0809388
:104A50007E1390937F13A0938013B09381132AE960
:104A600039E949E95FE3C701B6010E94F158609353
:104A70002E1270932F128093301290933112609304
:104A8000321270933312809334129093351218CBF4
:104A900020E030E0A90160914612709147128091A8
:104AA0004812909149120E94C7568111D8CF0C9498
:104AB000981A409256125092571260925812709261
:104AC0005912A7019601C301B2010E94C75687FF80
:104AD0003DC0A7019601C501B4010E94B758181640
:104AE000ECF5C0925612D0925712E0925812F09202
:104AF0005912E6E1F3E120813181428153816091D5
:104B0000DE117091DF118091E0119091E1110E940E
:104B10004F566B017C0120915612309157124091F3
:104B2000581250915912C501B4010E944F569B0171
:104B3000AC01C701B6010E94CB5660935612709328
:104B4000571280935812909359126DCBA301920182
:104B5000C501B4010E94C75618161CF6EEE0F3E139
:104B6000CACF40908C0250908D0260908E0270905F
:104B70008F02A3019201C701B6010E94C75687FDAB
:104B800087CBC092E611D092E711E092E811F09243
:104B9000E91186CB60915212709153128091541298
:104BA000909155120E9413088111A1CB609152126D
:104BB00070915312809154129091551220E030E080
:104BC00040E853E40E94BB57609352127093531213
:104BD000809354129093551292CBC701B6010E9454
:104BE0003857A4CB409256125092571260925812E6
:104BF00070925912A7019601C301B2010E94C756D3
:104C000087FF3DC0A7019601C501B4010E94B758B6
:104C10001816ECF5C0925612D0925712E092581224
:104C2000F0925912E6E2F3E1208131814281538111
:104C30006091FA117091FB118091FC119091FD111E
:104C40000E944F566B017C012091561230915712F1
:104C50004091581250915912C501B4010E944F560B
:104C60009B01AC01C701B6010E94CB566093521262
:104C700070935312809354129093551229CCA30130
:104C80009201C501B4010E94C75618161CF6EEE148
:104C9000F3E1CACF8090980290909902A0909A0276
:104CA000B0909B02A5019401C701B6010E94C756AE
:104CB00087FD43CCC0920212D0920312E0920412FC
:104CC000F092051242CCC12CD12C7601C701B6015D
:104CD0000E94385777CC412C512C320134CD4FEF04
:104CE000C41AD40AE40AF40AC0927613D092771355
:104CF000E0927813F092791344CD082E000C990BB2
:104D00008DCD82E090E08ACDA5019401C301B2016E
:104D10000E94F1586B017C010130110529F080914E
:104D2000E604882309F47FCD80919913882359F0F4
:104D3000833029F481E090E08093991371CD082E9F
:104D4000000C990BF9CF82E090E0F6CF082E000C12
:104D5000990B99CD82E090E096CD8090E002909002
:104D6000E102A090E202B090E3020130110529F0C7
:104D70008091E604882309F488CD8091A2138823CA
:104D800059F0833029F481E090E08093A2137DCD27
:104D9000082E000C990BF9CF82E090E0F6CF6091DD
:104DA0002A1370912B1380912C1390912D13009145
:104DB0007A1310917B1320917C1330917D13013075
:104DC000110521053105F1F00230110521053105EC
:104DD00009F441C020E030E0A9010E94C7568823B1
:104DE000A9F120E030E040E85FE360914212709169
:104DF000431280914412909145120E94C75681112E
:104E000025C052CD20E030E0A9010E94C75688237A
:104E100009F445C020E030E040E85FE360914212D1
:104E20007091431280914412909145120E94C7568E
:104E3000811135C083E090E0A0E0B0E080937A1368
:104E400090937B13A0937C13B0937D1380E090E04C
:104E5000A0E0B0E428C020E030E0A9010E94C756DD
:104E6000882309F42DCD20E030E040E85FE3609135
:104E700042127091431280914412909145120E9407
:104E8000C75681111DCD81E090E0A0E0B0E0809395
:104E90007A1390937B13A0937C13B0937D1380E0DF
:104EA00090E0A0E8BFE380932A1290932B12A09386
:104EB0002C12B0932D120CCD8FEF8093911369E0DB
:104EC00070E080E090E00E94D5038C019093E112A5
:104ED0008093E01240901E1250901F12609020129A
:104EE0007090211220E030E04FE753E4C301B2019B
:104EF0000E94C75618160CF493C640925212509254
:104F00005312609254127092551220E030E0A901C1
:104F100060915212709153128091541290915512D7
:104F20000E94B75887FF08C0109252121092531275
:104F300010925412109255124091521250915312E5
:104F40006091541270915512C8010E949E03C501D0
:104F5000B4010E9402184B015C0120E030E040E8FF
:104F600053E40E94C7566FEF87FF0EC020E030E089
:104F7000A901C501B4010E94B75860E087FD04C0D3
:104F8000C501B4010E9438578AE20E940802C70195
:104F9000B6010E9402186B017C0120E030E040E87D
:104FA00053E40E94C7566FEF87FF0EC020E030E049
:104FB000A901C701B6010E94B75860E087FD04C08F
:104FC000C701B6010E9438578BE20E940802C090C8
:104FD0005402D0905502E0905602F0905702A7017B
:104FE00096016091A1127091A2128091A3129091EA
:104FF000A4120E94C756882341F0C092A112D092F9
:10500000A212E092A312F092A4128091A012811138
:105010001092A012BE01675E7F4F8091A5120E9480
:105020007C038091740590917505019709F07AC011
:10503000898D9A8DAB8DBC8D89AF9AAFABAFBCAF6C
:105040008091180290911902A0911A02B0911B024E
:10505000898B9A8BAB8BBC8B80916E1390916F1365
:10506000A0917013B091711329AD3AAD4BAD5CAD09
:10507000281B390B4A0B5B0BDA01C90189879A8718
:10508000AB87BC8712E0E12EF12C06E911E121E0AB
:1050900030E0AE01475F5F4F61E070E0CE014196C6
:1050A0000E94590804E0E02EF12C0AEE10E122E003
:1050B00030E046E951E162E070E084EC92E00E9469
:1050C000590888E0E6E9F1E1DE01119601900D92C0
:1050D0008A95E1F70AE211E122E030E048E353E08B
:1050E00062E070E086E991E10E94590804E010E076
:1050F0002AE131E14FE150E064E070E08AE291E1C1
:105100000E94990B80911A1190911B11A0911C1172
:10511000B0911D1180937A1290937B12A0937C1210
:10512000B0937D12C0905802D0905902E0905A027C
:10513000F0905B02A7019601609195127091961212
:1051400080919712909198120E94C756882341F03F
:10515000C0929512D0929612E0929712F092981205
:1051600080919412811110929412BE01675E7F4F5C
:10517000809199120E947C0380917405909175052D
:10518000019709F086C0898D9A8DAB8DBC8D2196D3
:105190008CAF9DAFAEAFBFAF2197809118029091B9
:1051A0001902A0911A02B0911B02898B9A8BAB8BCA
:1051B000BC8B8091721390917313A0917413B09172
:1051C000751321962CAD3DAD4EAD5FAD2197281BDB
:1051D000390B4A0B5B0BDA01C90189879A87AB87C8
:1051E000BC87A2E0EA2EF12C8E010F5F1F4F21E059
:1051F00030E0AE01475F5F4F61E070E0CE01419665
:105200000E94590888E0F801AEE9B1E101900D92E1
:105210008A95E1F7B4E0EB2EF12C0AE211E122E0ED
:1052200030E04EE951E162E070E08CEC92E00E94E7
:10523000590880E1F801AAEFB0E101900D928A953A
:10524000E1F70AE411E122E030E048E353E062E0F4
:1052500070E08EE991E10E94590804E010E02AE331
:1052600031E14FE150E064E070E08AE491E10E94B6
:10527000990B80913A1190913B11A0913C11B09102
:105280003D1180937E1290937F12A0938012B09371
:1052900081128091740590917505019709F0E0C124
:1052A00080912A1290912B12A0912C12B0912D1264
:1052B0008093F2129093F312A093F412B093F5122C
:1052C0008091461290914712A0914812B0914912D4
:1052D0008093F6129093F712A093F812B093F912FC
:1052E00060917A1270917B1280917C1290917D1264
:1052F00022E030E042E752E10E94C50D02E010E0FA
:105300002AE532E14EE150E062E070E082E792E1AE
:105310000E94AB0C8091140290911502A09116028C
:10532000B09117028DA79EA7AFA7B8AB8091661367
:1053300090916713A0916813B091691389A79AA7F8
:10534000ABA7BCA7F2E0EF2EF12C02E712E121E0BF
:1053500030E0AE01475D5F4F61E070E0CE018D96B9
:105360000E94590822E030E0AE014F5D5F4FB80166
:105370008AE592E10E94DB0D88E0FE01B196AAE584
:10538000B2E101900D928A95E1F78091100290911F
:105390001102A0911202B0911302892B8A2B8B2B40
:1053A00009F060C442E050E060E373E08AE592E116
:1053B0000E94DF15882309F440C488E0E8E2F3E0A6
:1053C000AAE6B2E101900D928A95E1F702E010E0C1
:1053D0009E012F5E3F4F4EE150E062E070E08AE6B2
:1053E00092E10E94990B89899A89AB89BC89809343
:1053F000661390936713A0936813B0936913809119
:105400000A1390910B13A0910C13B0910D1389AB5B
:105410009AABABABBCAB4090DA105090DB10609015
:10542000DC107090DD10A3019201BC01CD010E943F
:10543000C756E0917705F091780581116AC48081A3
:105440009181A281B38180930A1390930B13A0934F
:105450000C13B0930D13EEE0F3E18091DE11909107
:10546000DF11A091E011B091E11180839183A283BB
:10547000B3838091740590917505019709F088C0F8
:1054800060917E1270917F128091801290918112B2
:1054900022E030E0AE01475F5F4F0E94C50D02E0A1
:1054A00010E02AE532E14EE150E062E070E0CE012A
:1054B00009960E94AB0C8091140290911502A09164
:1054C0001602B09117028DA79EA7AFA7B8AB809127
:1054D0006A1390916B13A0916C13B0916D1389A70F
:1054E0009AA7ABA7BCA742E0E42EF12C8E01075F80
:1054F0001F4F21E030E0AE01475D5F4F61E070E09B
:10550000CE018D960E94590822E030E0AE01475E40
:105510005F4FB8018AE592E10E94DB0D8091100295
:1055200090911102A0911202B0911302892B8A2B43
:105530008B2B09F035C442E050E060E373E0CE010C
:1055400049960E94DF15882309F415C488E0E8E233
:10555000F3E0A2E6B2E101900D928A95E1F702E054
:1055600010E09E012F5F3F4F4EE150E062E070E09F
:1055700082E692E10E94990B89819A81AB81BC817C
:1055800080936A1390936B13A0936C13B0936D1375
:1055900020911A1330911B1340911C1350911D132D
:1055A00029AB3AAB4BAB5CAB4090DA105090DB10C0
:1055B0006090DC107090DD10E0917705F091780537
:1055C000C080D180E280F380A301920169A97AA909
:1055D0008BA99CA90E94C756811139C4C0921A1385
:1055E000D0921B13E0921C13F0921D13EEE1F3E135
:1055F0008091FA119091FB11A091FC11B091FD11D5
:1056000080839183A283B383809174059091750503
:105610000197D1F489AD9AADABADBCAD80936E135B
:1056200090936F13A0937013B093711321962CADC8
:105630003DAD4EAD5FAD2197209372133093731340
:10564000409374135093751340913A0550913B0564
:1056500060913C0570913D0581E090E00E942D072E
:105660008091740590917505019709F064C4E091EB
:10567000A504F091A6040190F081E02D8081918134
:10568000A281B38189AF9AAFABAFBCAF2091750453
:105690003091760440917704509178042B962CAF8A
:1056A0003DAF4EAF5FAF2B97E0917904F0917A0454
:1056B000C080D180E280F380E091A904F091AA0437
:1056C00000811181E0916D04F0916E0420803180A1
:1056D000428153815AAB49AB848195819EAB8DAB9E
:1056E00096819DAFA7812296AFAF2297E0916B0480
:1056F000F0916C041182108288E0F801D1010190D0
:105700000D928A95E1F7E091A304F091A4045183EE
:1057100040830E94511820E030E040E05FE3C70181
:10572000B6010E94F1582B013C01E9A9FAA9208198
:105730003181428153810E94F158D1012D913D91D7
:105740004D915C910E945056F80160837183828371
:105750009383A9A9BAA914962D913D914D915C917D
:105760001797C301B2010E94F158F10124813581DC
:10577000468157810E945056D80114966D937D93AF
:105780008D939C931797E091A504F091A604A080B7
:10579000B180A301920169AD7AAD8BAD9CAD0E9441
:1057A0005056F5016083718382839383E091A30453
:1057B000F091A4042DA93EA9318320830E946E1884
:1057C0000E94511820E030E0A901C701B6010E94F3
:1057D000F1584B015C0120E030E040E45FE3C70199
:1057E000B6010E94F1582B013C01ADA9BEA92D9133
:1057F0003D914D915C910E94F15827966CAF7DAF21
:105800008EAF9FAF2797E9A9FAA920813181428104
:105810005381C501B4010E94F1589B01AC01279648
:105820006CAD7DAD8EAD9FAD27970E945056D101D6
:105830002D913D914D915C910E945056F8016083ED
:10584000718382839383A9A9BAA914962D913D915E
:105850004D915C911797C501B4010E94F1584B011D
:105860005C01EDA9FEA92481358146815781C301E0
:10587000B2010E94F1589B01AC01C501B4010E9424
:105880005056D10114962D913D914D915C911797F1
:105890000E945056F8016483758386839783E09154
:1058A000A504F091A604A080B180A301920169AD86
:1058B0007AAD8BAD9CAD0E945056D5016D937D9312
:1058C0008D939C931397E091A304F091A404BDAD34
:1058D000B08322962FAD229721830E946E180E94DA
:1058E000511829E33EE843E65EE3C701B6010E9492
:1058F000F15827966CAF7DAF8EAF9FAF27972BEAFD
:105900003AEA4AEA5EE3C701B6010E94F1582F96CF
:105910006CAF7DAF8EAF9FAF2F9729E33EE843EE8C
:105920005EE3C701B6010E94F15863966CAF7DAF8C
:105930008EAF9FAF63973DAD39AF22964FAD2297A3
:105940004AAFC101089623969FAF8EAF2397D1012E
:105950002D913D914D915D911D0121962CAF3DAF53
:105960004EAF5FAF2197E9A9FAA961917191819139
:105970009191FAABE9ABADA9BEA94D905D906D9048
:105980007D90BEABADABE9ADFAADC190D190E190E9
:10599000F190FAAFE9AF27962CAD3DAD4EAD5FADBE
:1059A00027970E94F1584B015C012F962CAD3DAD1D
:1059B0004EAD5FAD2F97C301B2010E94F1589B011C
:1059C000AC01C501B4010E9450564B015C016396C5
:1059D0002CAD3DAD4EAD5FAD6397C701B6010E94E2
:1059E000F1589B01AC01C501B4010E9450562196AB
:1059F0002CAD3DAD4EAD5FAD21970E945056D80104
:105A00006D937D938D939D938D012396EEADFFADA8
:105A100023972E163F0609F09ACFE091A504F09146
:105A2000A6040190F081E02D2B962CAD3DAD4EAD3E
:105A30005FAD2B972083318342835383E0916B04C6
:105A4000F0916C0481E090E09183808380913A052D
:105A500090913B05A0913C05B0913D050196A11D9B
:105A6000B11D80933A0590933B05A0933C05B093FC
:105A70003D054091750450917604609177047091D2
:105A80007804E0917705F091780540835183628333
:105A9000738320914E05222309F4FFC1213009F4BC
:105AA00000C221E030915005332309F4F7C120E012
:105AB000F5C181E0809391132091DE023091DF02E5
:105AC000A9A1BAA10E94196221E1969587957795BF
:105AD00067952A95D1F7673908F070C080915C020C
