:1000000005C100000C94BF5B0C94EA5B0C94155C7A
:100010000C94405C0C946B5C0C94965C0C94C15CEE
:100020000C94EC5C24C1000022C1000020C100003F
:100030001EC100001CC100001AC1000018C1000050
:1000400016C1000014C1000012C1000010C1000060
:100050000EC100000CC100000AC100000C94175D25
:1000600006C100000C9436610C946C6100C1000064
:10007000FEC00000FCC00000FAC00000F8C0000094
:10008000F6C00000F4C00000F2C00000F0C00000A4
:100090000C94C2610C94F861EAC00000E8C0000052
:1000A000E6C00000E4C00000E2C00000E0C00000C4
:1000B000DEC00000DCC00000DAC00000D8C00000D4
:1000C000D6C00000D4C00000D2C000000C944E6224
:1000D0000C948462CCC000000C94DA620C9410631F
:1000E000C6C0000000000A0B02090C0D0E08070331
:1000F00004010000000000000000000000000000FB
:1001000000000000000000000000000000000000EF
:1001100012111000000000000000000000000000AC
:100120000000000000000000000001021020200874
:100130000810204010204080020102010804020142
:1001400001020408102040808040201008040201B1
:10015000800402018040201008040201080402010A
:100160000102040810204080010204081020408091
:1001700005050505070508080808020202020A0A23
:100180000808040404040101010101010101030341
:10019000030303030303040707070C0C0C0C0C0CEC
:1001A0000C0C0202020206060606060606060B0BE9
:1001B0000B0B0B0B0B0B000020002300260029006B
:1001C0002C002F003200000100000301060109018C
:1001D00000002200250028002B002E0031003400F2
:1001E00002010000050108010B01000021002400AC
:1001F00027002A002D003000330001010000040117
:1002000007010A0195612162AD62396311241FBEA5
:10021000CFEFD1E2DEBFCDBF00E00CBF14E0A0E025
:10022000B2E0E8E1F8EC00E00BBF02C007900D92ED
:10023000A238B107D9F724E1A2E8B4E001C01D92C9
:10024000A134B207E1F711E0C6E0D1E000E006C05A
:1002500021970109802FFE010E94D963C230D10786
:1002600080E00807A9F70E94B1570C940A64C8CE31
:10027000CF93DF93882349F0EB0181500E941E5EEB
:1002800099838883DF91CF910895FB0111821082B9
:10029000F9CF0F931F938B019C0183E0369527952F
:1002A000179507958A95D1F705571B4F462F47702D
:1002B00021E030E0F90102C0EE0FFF1F4A95E2F79E
:1002C000AF01F80120812423CB010196211102C046
:1002D00090E080E01F910F9108950F931F938B0181
:1002E0009C0183E036952795179507958A95D1F758
:1002F000677081E090E001C0880F6A95EAF7F80125
:10030000E557FB4F2081452B31F480958223808374
:100310001F910F910895822BFACFCF92DF92EF9227
:10032000FF92CF93DF936B017C0160E086E3C816F8
:10033000D104E104F10490F486E38C0D0E947B5F0C
:10034000E6012196AE01C701B601C7DFCE01DF91FC
:10035000CF91FF90EF90DF90CF9008958C2DEECF4E
:10036000882341F08150682F70E090E080E050E0F9
:1003700040E0B3CF0895611102C00C947B5F6130FF
:10038000E1F362E0FACF662319F061E00C94B75F05
:1003900060E0FCCF0E94E45F21E0019709F020E0DB
:1003A000822F0895FC01A781B0858C9191858923C6
:1003B000A481B5819C9140815181628173812681A4
:1003C000922359F081110BC04F5F5F4F6F4F7F4FEA
:1003D000408351836283738308958111F5CF415027
:1003E000510961097109F4CF85E994E0DBCF80EA16
:1003F00094E0D8CF8BEA94E0D5CF86EB94E0D2CFCF
:10040000FC01A481B5818C9196818923A781B08557
:100410009C9140815181628173812185922359F0A1
:10042000882359F04F5F5F4F6F4F7F4F4083518359
:100430006283738308958823A9F3415051096109A8
:100440007109F4CF85E994E0DBCF80EA94E0D8CF5E
:100450008BEA94E0D5CF86EB94E0D2CF0F931F9335
:10046000CF93DF93D82FC62F8A01A09194048BE0FD
:10047000A89FD0011124AB56BB4F1D921D921D9217
:100480001C92139781E01A968C931A978D2F90E007
:10049000FC01E65DFE4FE4911696EC931697FC0185
:1004A000E059FE4FE491F0E0EE0FFF1FEA54FE4FDB
:1004B0008591949115969C938E931497862F90E036
:1004C000FC01E65DFE4FE4911996EC931997FC014F
:1004D000E059FE4FE491F0E0EE0FFF1FEA54FE4FAB
:1004E0008591949118969C938E93179760E08D2F29
:1004F0000E947B5F60E08C2F0E947B5F8091940460
:10050000813009F43FC0A8F0823009F462C0833022
:1005100009F486C08091940491E0980F909394041C
:10052000F801808390E080E0DF91CF911F910F91DF
:10053000089580E0D23049F081E0D33031F08EEE82
:100540008D0F8430D8F487E18D1B41E050E064EFDB
:1005500071E00E94455B80E0C23049F081E0C33029
:1005600031F08EEE8C0F843058F487E18C1B41E023
:1005700050E062E272E00E94455BCCCF8FEFE5CFA6
:100580008FEFF5CF80E0D23049F081E0D33031F009
:100590008EEE8D0F8430C8F487E18D1B41E050E072
:1005A00067EF71E00E94455B80E0C23049F081E076
:1005B000C33031F08EEE8C0F843048F487E18C1B11
:1005C00041E050E065E272E0D6CF8FEFE7CF8FEFEA
:1005D000F7CF80E0D23049F081E0D33031F08EEEB9
:1005E0008D0F8430C8F487E18D1B41E050E06AEF45
:1005F00071E00E94455B80E0C23049F081E0C33089
:1006000031F08EEE8C0F843048F487E18C1B41E092
:1006100050E068E272E0AFCF8FEFE7CF8FEFF7CF18
:1006200080E0D23049F081E0D33031F08EEE8D0F92
:100630008430C8F487E18D1B41E050E06DEF71E03C
:100640000E94455B80E0C23049F081E0C33031F068
:100650008EEE8C0F843048F487E18C1B41E050E033
:100660006BE272E088CF8FEFE7CF8FEFF7CF9BE0A1
:10067000899FF0011124EB56FB4F80819181A2816B
:10068000B381FB0180839183A283B38390E080E0F8
:1006900008959BE0899FF0011124EB56FB4F1082D7
:1006A00011821282138290E080E0089590E080E051
:1006B0000895CF92DF92EF92FF92CF93882351F16A
:1006C0006A017B01CFEFC80F20E030E0A901CB0128
:1006D000B6010E94B75818168CF0C701B6019058A1
:1006E0000E9428599B01AC016C2F70E090E080E0E3
:1006F000CF91FF90EF90DF90CF90B2C0C701B601CD
:100700000E9423598C2FCF91FF90EF90DF90CF90D4
:100710000C94415ECF91FF90EF90DF90CF900895C1
:100720000F931F938B019C0183E0369527951795B6
:1007300007958A95D1F70E571B4F462F477021E03A
:1007400030E0F90102C0EE0FFF1F4A95E2F7AF015A
:10075000F80120812423CB010196211102C090E0F1
:1007600080E01F910F9108950F931F938B019C01BF
:1007700083E036952795179507958A95D1F7677089
:1007800081E090E001C0880F6A95EAF7F801EE5722
:10079000FB4F2081452B31F48095822380831F916C
:1007A0000F910895822BFACF2F923F924F925F9232
:1007B0006F927F928F929F92AF92BF92CF92DF9271
:1007C000EF92FF920F931F93CF93DF93D62EC72EF6
:1007D000782E692E49015A01280161E08D2D0E9471
:1007E0007B5FCD2DDC2D8E010F5F1F4FA8016D2D7E
:1007F0007C2D872D962DB8DF20E030E0A901C201C5
:10080000B7010E94A75A181664F4C201B7010E94EA
:1008100028592B01C501B4010E942859A201CE011B
:1008200023D0C801DF91CF911F910F91FF90EF90DE
:10083000DF90CF90BF90AF909F908F907F906F9000
:100840005F904F903F902F900895882341F0815002
:10085000682F70E090E080E050E040E085CF0895A0
:10086000862FB9010C94415E9C01FC01EC51FF4FB5
:10087000E491E150E231E0F4F0E08827ED5BFB4FDA
:100880008F4F0C94D96355045C045F0476048B0489
:100890005804A004AC04B004C704DC04F104080547
:1008A0001D055804320549055E0584B5806884BD80
:1008B00060E0822F0C94B75F84B58062F8CF80919E
:1008C00080008C7F82608093800080918100807E98
:1008D0008061682B6093810050938700409386006D
:1008E00080918000806880938000E2CF80918000BA
:1008F0008C7F82608093800080918100807E806107
:10090000682B60938100509387004093860080910C
:1009100080008062E8CF809180008C7F826080932D
:10092000800080918100807E8061682B60938100CF
:100930005093870040938600809180008860D3CFD9
:100940008091B00080688093B0008091B100887F72
:10095000682B6093B100ACCF8091B0008062F3CF80
:10096000809190008C7F82608093900080919100B4
:10097000807E8061682B6093910050939700409334
:1009800096008091900080688093900091CF809134
:1009900090008C7F82608093900080919100807E97
:1009A0008061682B6093910050939700409396006C
:1009B000809190008062E8CF809190008C7F82606F
:1009C0008093900080919100807E8061682B60937D
:1009D000910050939700409396008091900088601A
:1009E000D3CF8091A0008C7F82608093A000809103
:1009F000A100807E8061682B6093A1005093A700C6
:100A00004093A6008091A00080688093A00050CF02
:100A10008091A0008C7F82608093A0008091A100D3
:100A2000807E8061682B6093A1005093A700409363
:100A3000A6008091A0008062E8CF8091A0008C7F0A
:100A400082608093A0008091A100807E8061682BED
:100A50006093A1005093A7004093A6008091A0004E
:100A60008860D3CF809120018C7F826080932001A9
:100A700080912101807E8061682B609321015093D9
:100A800027014093260180912001806880932001F6
:100A90000FCF809120018C7F826080932001809114
:100AA0002101807E8061682B609321015093270192
:100AB00040932601809120018062E8CF809120013F
:100AC0008C7F82608093200180912101807E8061F3
:100AD000682B609321015093270140932601809158
:100AE00020018860D3CF90E080E008950F931F939A
:100AF000009709F48DC06115710509F489C0009152
:100B000098031091990320919A0330919B030E3F13
:100B10001F4F2F4F3F4F09F06CC04FEF5FEFBA01EF
:100B2000409398035093990360939A0370939B03A7
:100B3000409198035091990360919A0370919B039F
:100B4000DC011296ED91FC9180819181A281B381AB
:100B500080937B0690937C06A0937D06B0937E06DF
:100B600084819581A681B7818093770690937806DA
:100B7000A0937906B0937A0680859185A285B38586
:100B80008093730690937406A0937506B0937606CF
:100B900084859585A685B78580936F0690937006AA
:100BA000A0937106B093720610926B0610926C06B9
:100BB00010926D0610926E060E94C43A89EE9AE376
:100BC0009093C2048093C1049093C4048093C3049F
:100BD0009093C6048093C5040E94B339009731F402
:100BE00021E030E03093800620937F061F910F9123
:100BF0000895009198031091990320919A033091E0
:100C00009B03DB010D931D932D933C93139790CF82
:100C10008FEF9FEFEBCF8F929F92AF92BF92CF92C9
:100C2000DF92EF92FF921F93CF93DF934B015C0112
:100C30001091820682E090E09093800680937F0678
:100C400081149104A104B10441F4809182068111C0
:100C500004C080918106C1E08111C0E0C12CD12C7B
:100C6000760180918206811106C0809181068111F2
:100C700002C0CC23D9F083E090E09093800680936B
:100C80007F06CC2381F1CCE9DFEF111102C00E9475
:100C90004E3ECE01DF91CF911F91FF90EF90DF90FC
:100CA000CF90BF90AF909F908F9008956AE070E0D2
:100CB00080E090E00E94865D80E1C80E87E2D81E49
:100CC000E11CF11C8FEF88169806A806B80631F0D3
:100CD000C1E08C149D04AE04BF0408F0C0E080E0C5
:100CE0000E94E739BECFD0E0C0E0CFCFCF92DF92F5
:100CF000EF92FF920F931F93CF93DF938F3F910556
:100D000011F008F051C020917F0630918006233009
:100D1000310539F020917F06309180062130310570
:100D200031F424E030E03093800620937F066A019E
:100D30007B01EC0183309105A8F011E0AE01C70101
:100D4000B6010E94B239AB01BC01CE011123F9F00A
:100D5000DF91CF911F910F91FF90EF90DF90CF9097
:100D60000C9477408C01000F111F0F531B4FD801BB
:100D70008D919C91892B09F30E9481400297E9F69D
:100D8000D801ED91FC91CE011995182FD7CF0E9473
:100D9000994090E080E0DF91CF911F910F91FF90FB
:100DA000EF90DF90CF9008958FEF9FEFF4CF80E02A
:100DB0000C94E739CF93DF9386E090E09093800620
:100DC00080937F060E94403AEC01E1ECF4E086E07B
:100DD000DF011D928A95E9F70E94E63D1092800698
:100DE00010927F06CE01DF91CF9108958091810608
:100DF000089580916A06089560939803709399030B
:100E000080939A0390939B0390E080E00895CF92A3
:100E1000DF92EF92FF92809121148150823020F571
:100E200083E0809321148091201481508230F0F46B
:100E300083E08093201480911F1481508230C0F48D
:100E400083E080931F1480911E148150823090F4AF
:100E500083E080931E1480911F06882369F08130FF
:100E600079F08091200609C080E0DBCF80E0E1CFFF
:100E700080E0E7CF80E0EDCF81E080931E0602C0E6
:100E800010921E06E0911E0684E0E89FF0011124F6
:100E9000EF5DF94F80819181A281B38180931A0621
:100EA00090931B06A0931C06B0931D068FEF8093B2
:100EB0001E06C090AF13D090B013E090B113F09025
:100EC000B21320E030E0A901C701B6010E94B75873
:100ED000811141C08091580290915902A0915A020B
:100EE000B0915B028093D6129093D712A093D81240
:100EF000B093D91284E0809321148091D6129091FE
:100F0000D712A091D812B091D9128093AF139093B9
:100F1000B013A093B113B093B21384E080931D1467
:100F200060911A0670911B0680911C0690911D0617
:100F30000E9454592AE037ED43E25CE30E94E15AF3
:100F40000E942859AB01BC0184E090E0FF90EF9033
:100F5000DF90CF90CBCE20E030E040E85FE3C701E8
:100F6000B6010E94B7588111C8CF20E030E0A90136
:100F70006091721270917312809174129091751237
:100F80000E94B758811126C020E030E0A90160918D
:100F90006E1270916F1280917012909171120E9476
:100FA000B758811117C08091500290915102A091C1
:100FB0005202B09153028093D6129093D712A0930D
:100FC000D812B093D91284E08093201484E08093E7
:100FD0001E1493CF8091540290915502A091560215
:100FE000B09157028093D6129093D712A093D81243
:100FF000B093D91284E080931F14E8CF2F923F92D0
:101000004F925F926F927F928F929F92AF92BF9218
:10101000CF92DF92EF92FF920F931F93CF93DF93C4
:10102000CDB7DEB7CB54D1090FB6F894DEBF0FBEF3
:10103000CDBF26967FAF6EAF269728965FAF4EAF97
:1010400028973E8B2D8B2C96FFAEEEAE2C97FB0196
:10105000E150F04CEE0FFF1FEE0FFF1FE80FF91FDE
:1010600080809180A280B3808F8A988EA98EBA8E5C
:10107000B501A401442777FD4395552766277727B7
:1010800029964FAF2997F901E150F04CEE0FFF1F61
:10109000EE0FFF1F2896AEACBFAC2897EA0DFB1DE4
:1010A000C080D180E280F380CB8EDC8EED8EFE8E10
:1010B000B701A601442777FD439555276627772773
:1010C0002A964FAF2A97188B0F87F80130E020E05F
:1010D0002C96EEACFFAC2C972E153F050CF43FC0C0
:1010E00022969FAF8EAF22971A8B098B312C212C21
:1010F000812C912C540183948D829E82AF82B8867C
:1011000026968EAC9FAC2697281439047CF129963C
:101110009FAC29972A96AFAC2A9730E020E041E0B7
:1011200050E060E070E09A10F5C1C55BDF4F0FB68C
:10113000F894DEBF0FBECDBFDF91CF911F910F910D
:10114000FF90EF90DF90CF90BF90AF909F908F90E7
:101150007F906F905F904F903F902F9008951192E5
:101160001192119211922F5F3F4FB2CF2296EEADA6
:10117000FFAD229781919191A191B1912296FFAFFC
:10118000EEAF22978F88988CA98CBA8CB7FE23C0BB
:101190004D815E816F8178854150510961097109E6
:1011A0005A016B01A81AB90ACA0ADB0AD601C5019D
:1011B00021E0CD80DE80EF80F8848C159D05AE05A2
:1011C000BF0508F020E0822E912CB12CA12C8D823D
:1011D0009E82AF82B8865D01CC24DD24A8A2B9A28C
:1011E000CAA2DBA29C01AD01442755272CA33DA335
:1011F0004EA35FA32C96EEADFFAD2C97E219F30939
:101200008D889E888E169F060CF4F4012896AEAC4D
:10121000BFAC28972496BFAEAEAE2497C988DA88B3
:10122000DC8ACB8A1E861D86812C912C54018394E6
:1012300089869A86AB86BC86812C912C5401CD84FC
:10124000DE84CE16DF0604F1F7FF02C0F0E0E0E036
:10125000E20DF31D2C96EEACFFAC2C97EE15FF05BE
:1012600054F4EE0FFF1FEE0FFF1FE00FF11F8082FF
:101270009182A282B3822FEF221A320AE989FA8977
:101280003496FA8BE98B3CCF2496AEADBFAD249754
:10129000CD90DD90ED90FD902496BFAFAEAF24973A
:1012A0002B8D3C8D4D8D5E8D57FF22C089859A8593
:1012B000AB85BC850197A109B109AC01BD014C19F1
:1012C0005D096E097F096A017B0181E029853A8504
:1012D0004B855C85C216D306E406F50608F080E06F
:1012E000482F50E070E060E049875A876B877C8721
:1012F000B7018827992768A779A78AA79BA7EE2413
:10130000FF2428A139A14AA15BA1C701B6010E940F
:1013100094632B013C012CA13DA14EA15FA168A5C6
:1013200079A58AA59BA50E9494636CA77DA78EA72B
:101330009FA7AB89BC894D915D916D917D91BC8BCF
:10134000AB8BDB01CA01880D991DAA1DBB1D8983CA
:101350009A83AB83BC8391E09F8F29813A814B8133
:101360005C81281539054A055B0508F01F8E2CA104
:101370003DA14EA15FA1C701B6010E9494636B011C
:101380007C0189809A80AB80BC808C0C9D1CAE1C3B
:10139000BF1C89829A82AB82BC8252019924882424
:1013A00088AA99AAAAAABBAA29813A814B815C8101
:1013B000280D391D4A1D5B1D2CAB3DAB4EAB5FAB01
:1013C0008CA49DA4AEA4BFA454019924882488AE03
:1013D00099AEAAAEBBAE280D391D4A1D5B1D2CAFC0
:1013E0003DAF4EAF5FAFAB89BC8914972D933D9352
:1013F0004D935C93139728A139A14AA15BA168A5DD
:1014000079A58AA59BA50E9494639F8C690D711D87
:10141000811D911D230166247724460E571E681EE8
:10142000791E2CA53DA54EA55FA54A01AA24BB2483
:10143000840C951CA61CB71C81E090E0A0E0B0E0F5
:1014400049815A816B817C814C155D056E057F0554
:1014500018F080E090E0DC01880D991DAA1DBB1DED
:1014600041E050E060E070E088A899A8AAA8BBA875
:10147000CCA8DDA8EEA8FFA8C814D904EA04FB0490
:1014800018F040E050E0BA01840F951FA61FB71F67
:10149000812C912C54018394C8ACD9ACEAACFBAC40
:1014A0002CAD3DAD4EAD5FAD2C153D054E055F0538
:1014B00018F0812C912C5401880E991EAA1EBB1E77
:1014C0004D855E854F5F5F4F5E874D87B8CEEF8558
:1014D000F889C190D190E190F190F88BEF87DB0112
:1014E000CA010197A109B1098C199D09AE09BF096B
:1014F000349780839183A283B383E1E084179507B7
:10150000A607B70708F0E0E04E2F50E070E060E07B
:101510002F5F3F4F2C968EAC9FAC2C97281539052A
:10152000B4F203CE2F923F924F925F926F927F92CE
:101530008F929F92AF92BF92CF92DF92EF92FF92E3
:101540000F931F93CF93DF9300D01F92CDB7DEB7D9
:101550008B015C834B83FB01E150F04CEE0FFF1FCE
:10156000EE0FFF1FE80FF91F4081518162817381E7
:1015700077FD27C04C01B12CA12CC12CD12C7601B8
:10158000A016B10664F5F401619171918191919178
:101590004F010E9454594B815C810E94AD5A9B01BE
:1015A000AC01C701B6010E9440586B017C012B8140
:1015B0003C81205E3F4F3C832B833FEFA31AB30A4D
:1015C000DFCF9A838983312C212C81E090E0A0E049
:1015D000B0E0C12CD12C760120163106CCF0C70129
:1015E000B6010F900F900F900F90DF91CF911F9148
:1015F0000F91FF90EF90DF90CF90BF90AF909F90B2
:101600008F907F906F905F904F903F902F900895B4
:10161000E981FA814190519061907190FA83E98358
:10162000409450946094709453014201880E991E26
:10163000AA1EBB1EC501B4010E9454594B815C8196
:101640000E94AD5A9B01AC01C701B6010E943F58F0
:101650006B017C0181E084149504A604B70408F0B2
:1016600080E090E0B0E0A0E02B813C81205E3F4F25
:101670003C832B833FEF231A330AAECF2F923F9246
:101680004F925F926F927F928F929F92AF92BF9292
:10169000CF92DF92EF92FF920F931F93CF93DF933E
:1016A000CDB7DEB7E5970FB6F894DEBF0FBECDBF5E
:1016B0007FA76EA748AB59AB3DA72CA71DAB0CABC2
:1016C000FE86ED861BAB0AABD80130E020E08D84AE
:1016D0009E842815390514F18F83988710E000E067
:1016E0008EA49FA40815190504F1E5960FB6F89489
:1016F000DEBF0FBECDBFDF91CF911F910F91FF9045
:10170000EF90DF90CF90BF90AF909F908F907F90A1
:101710006F905F904F903F902F9008951D921D9273
:101720001D921D922F5F3F4FD2CFEF81F88581919F
:101730009191A191B191F887EF834D01AA24BB2427
:10174000888A998AAA8ABB8A9C01AD0144275527B9
:101750002C8B3D8B4E8B5F8B2D843E84201A310A5F
:10176000ECA5FDA5E215F3050CF41F01F8A9FD8316
:1017700089A88E82AAA8BBA8BC86AB861A861986C1
:10178000C12CD12C760189849A848214930404F1AB
:1017900037FE02C0312C212C200E311EAD84BE84B8
:1017A0002A143B046CF4220C331C220C331CACA90D
:1017B000BDA9A20DB31DCD92DD92ED92FC921397BF
:1017C0000F5F1F4FEAA9FBA93496FBABEAAB88CFAA
:1017D000ED81FE814190519061907190FE83ED8387
:1017E0004301AA24BB24888E998EAA8EBB8E6624C0
:1017F0007724288939894A895B89C301B2010E940B
:1018000094634B015C012C893D894E895F89688D09
:10181000798D8A8D9B8D0E9494636C8F7D8F8E8FC6
:101820009F8FEB85FC8581919191A191B191FC876E
:10183000EB879C01AD012C0D3D1D4E1D5F1D2983C5
:101840003A834B835C83E1E02C153D054E055F0533
:1018500008F0E0E02C893D894E895F89C301B2011F
:101860000E9494632B013C0189819A81AB81BC81E8
:10187000840D951DA61DB71D89839A83AB83BC83F8
:10188000A4013327222728A339A34AA35BA36C0111
:101890007D01C20ED31EE41EF51E8C8D9D8DAE8D76
:1018A000BF8DDC01992788278CA39DA3AEA3BFA37E
:1018B0008C0D9D1DAE1DBF1D88A799A7AAA7BBA70C
:1018C000AB85BC85149728A539A54AA55BA52D93A2
:1018D0003D934D935C9313974501AA24BB248E0E30
:1018E000911CA11CB11C288939894A895B89688DA2
:1018F000798D8A8D9B8D0E949463860E971EA81EFB
:10190000B91E2C8D3D8D4E8D5F8DCA01AA27BB2738
:10191000880E991EAA1EBB1E81E090E0A0E0B0E0F8
:1019200029813A814B815C8124153505460557058F
:1019300018F080E090E0DC01880D991DAA1DBB1D08
:1019400041E050E060E070E088A099A0AAA0BBA0B0
:10195000C814D904EA04FB0418F040E050E0BA01CE
:10196000840F951FA61FB71FC12CD12C7601C394DD
:101970008CA09DA0AEA0BFA028A539A54AA55BA5B7
:10198000281539054A055B0518F0C12CD12C7601C4
:10199000C80ED91EEA1EFB1EE985FA853196FA8724
:1019A000E987F1CE2F923F924F925F926F927F9292
:1019B0008F929F92AF92BF92CF92DF92EF92FF925F
:1019C0000F931F93CF93DF9300D000D000D01F92CE
:1019D000CDB7DEB718015A0115E0B694A7941A9551
:1019E000E1F7B886AF82F0E0E0E0A616B7060CF0AB
:1019F00081C0F501E20DF31D7A876987E617F707C5
:101A000014F4FA87E9874F715527EF81F885EE0FB7
:101A1000FF1FEE0FFF1F41155105E9F48E0F9F1FA9
:101A2000A901F0E0E0E06F8178856E0F7F1FA98447
:101A3000BA846A157B050CF05DC0DC01CD90DD90A9
:101A4000ED90FD90CD01DA01CD92DD92ED92FD9207
:101A5000AD013196E8CF7C01EE0EFF1EFC82EB82D9
:101A6000D7018D909D90AD90BC903A832983F0E092
:101A7000E0E000E210E07801E41AF50AFE82ED826F
:101A800075016401042E04C0F694E794D794C794BA
:101A90000A94D2F731960F8118850E0F1F1FA98463
:101AA000BA840A151B0574F1A616B706E4F4D5012D
:101AB000AA0FBB1FAA0FBB1FA80FB91F80E290E09F
:101AC0008C01041B150B8D919D910D90BC91A02D47
:101AD00004C0880F991FAA1FBB1F0A95D2F7C82AF6
:101AE000D92AEA2AFB2AA981BA81CD92DD92ED9208
:101AF000FC921397DF01AA0FBB1FAA0FBB1FA20FF7
:101B0000B31F2AC08F01000F111F000F111FAB81DF
:101B1000BC810A0F1B1FD8018D909D90AD90BC9089
:101B2000240135010D8004C0440C551C661C771C33
:101B30000A94D2F7C428D528E628F728A981BA81C3
:101B4000CD92DD92ED92FD92BA83A98399CF1D9239
:101B50001D921D921D923196E215F305C4F32A964B
:101B60000FB6F894DEBF0FBECDBFDF91CF911F91AE
:101B70000F91FF90EF90DF90CF90BF90AF909F902C
:101B80008F907F906F905F904F903F902F9008952F
:101B90002F923F924F925F926F927F928F929F927D
:101BA000AF92BF92CF92DF92EF92FF920F931F936B
:101BB000CF93DF93CDB7DEB72E970FB6F894DEBF85
:101BC0000FBECDBF9E878D873C872B871801FA01FA
:101BD00025E0F695E7952A95E1F7DB01A150B04C99
:101BE000AA0FBB1FAA0FBB1FA80FB91FCD90DD9076
:101BF000ED90FC90FF0CCC08DC2C7601E617F70783
:101C00000CF0D5C0DF01A00FB11F9B01A617B707CD
:101C10000CF49D018A010F711127DF01AA0FBB1F70
:101C2000AA0FBB1F01151105F1F40D851E850A0FC2
:101C30001B1F8B859C8550E040E0BA016E0F7F1F13
:101C4000621773070CF05DC0D8018D909D90AD9028
:101C5000BD908D01DC018D929D92AD92BD92CD0122
:101C60004F5F5F4FEACF6D847E846A0E7B1E7C825D
:101C70006B82D3014D905D906D907C90AB84BC8461
:101C8000BA82A98250E040E0A0E2B0E0CD01801B22
:101C9000910B9E838D8353014201002E04C0B694A4
:101CA000A794979487940A94D2F74F5F5F4FDF0110
:101CB000A40FB51FA217B30784F1D701C6012617D9
:101CC00037076CF4220F331F220F331FED85FE857B
:101CD0002E0F3F1FF90180819181A281B3810D8078
:101CE00004C0880F991FAA1FBB1F0A94D2F7882926
:101CF0009929AA29BB29E981FA8180839183A2834A
:101D0000B3839A01220F331F220F331F6B847C840D
:101D1000620E731E7A8269822EC0DA01AA0FBB1F7F
:101D2000AA0FBB1F6B807C80A60DB71D4D905D90E8
:101D30006D907C90D301C2010D8004C0880F991F63
:101D4000AA1FBB1F0A94D2F7882A992AAA2ABB2A5B
:101D5000A981BA818D929D92AD92BD92BA83A983D9
:101D60009ACFE981FA81C192D192E192F192FA83FC
:101D7000E9834F5F5F4F421553059CF32E960FB6D4
:101D8000F894DEBF0FBECDBFDF91CF911F910F91B1
:101D9000FF90EF90DF90CF90BF90AF909F908F908B
:101DA0007F906F905F904F903F902F90089550E0FC
:101DB00040E0A7CF2F923F924F925F926F927F9217
:101DC0008F929F92AF92BF92CF92DF92EF92FF924B
:101DD0000F931F93CF93DF9300D000D0CDB7DEB722
:101DE000DA01E5E0B695A795EA95E1F7FB01E15048
:101DF000F04CEE0FFF1FEE0FFF1FE80FF91F808062
:101E00009180A280B380BB0C8808982C54013D01BE
:101E10000A171B070CF438017901D12CC12CC61408
:101E2000D70464F1F30177FE02C0F0E0E0E0A01710
:101E3000B1070CF075C04F715527A60FB71FB80139
:101E4000A017B1070CF4BD016E1B7F0BDF01AA0FB9
:101E5000BB1FAA0FBB1F41155105D1F43D01620EF6
:101E6000731E50E040E0461757070CF48DC077FF13
:101E700002C070E060E0E60FF71F52C0F701119258
:101E80001192119211927F01FFEFCF1ADF0AC7CF93
:101E90001C0129014A0E5B1E5A8249821E821D8244
:101EA000C12CD12C760180E290E03C01641A750AC5
:101EB0007C826B82AD81BE81A617B707CCF177FF1C
:101EC00002C070E060E0E60FF71FE017F1070CF0CA
:101ED00072C0DF01AA0FBB1FAA0FBB1FA20FB31F47
:101EE00080E290E0841B950B04C0F694E794D794AD
:101EF000C7948A95D2F72401350104C0440C551CBF
:101F0000661C771C4A95D2F7B301A201C428D52AD2
:101F1000E628F72ACD92DD92ED92FC921397319646
:101F2000DF01AA0FBB1FAA0FBB1FA20FB31F40C028
:101F3000260137010B8004C0769467945794479428
:101F40000A94D2F7D101CD90DD90ED90FD901D0166
:101F5000D701C601042E04C0880F991FAA1FBB1FFA
:101F60000A94D2F7482A592A6A2A7B2AA981BA8177
:101F70004D925D926D927D92BA83A9838D819E81EF
:101F800001969E838D8396CFDC01CD90DD90ED9000
:101F9000FD90CD01D301CD92DD92ED92FD923D01F8
:101FA0004F5F5F4F60CF8D929D92AD92BD92319603
:101FB000E017F107C4F326960FB6F894DEBF0FBE04
:101FC000CDBFDF91CF911F910F91FF90EF90DF90E8
:101FD000CF90BF90AF909F908F907F906F905F90C9
:101FE0004F903F902F900895FA01619371938193E0
:101FF0009193990F660B762FCB0141E050E0421789
:1020000053070CF0089561937193819391934F5FFF
:102010005F4FF5CF2F923F924F925F926F927F92D8
:102020008F929F92AF92BF92CF92DF92EF92FF92E8
:102030000F931F93CF93DF9379011B01DA01D0E057
:10204000C0E040E050E0BA01CE15DF059CF0DF9122
:10205000CF911F910F91FF90EF90DF90CF90BF90A5
:10206000AF909F908F907F906F905F904F903F9038
:102070002F900895FC0181909190A190B190CF0193
:10208000F10101911191219131911F01240135013B
:10209000401A510A620A730A93018201041B150B4C
:1020A000260B370B0D931D932D933D93662463945C
:1020B000712CC12CD12C452B462B472B39F0081500
:1020C00019052A053B0538F4612C05C080169106D8
:1020D000A206B306C8F7A301B6012196B5CF8F9229
:1020E0009F92AF92BF92CF92DF92EF92FF92CF93E7
:1020F000DF93F901621773070CF4FB016C017A019D
:10210000B0E0A0E0AE17BF074CF162177307DCF434
:102110006150704C660F771F660F771F680F791F2D
:10212000DB01CD90DD90ED90FC90FF0CCC08DC2C19
:102130007601DF01AA0FBB1FAA0FBB1FA40FB51F9B
:10214000E217F307CCF0DF91CF91FF90EF90DF9093
:10215000CF90BF90AF909F908F900895E6018990A7
:102160009990A990B9906E01E70189929992A992EC
:10217000B9927E011196C6CFCD92DD92ED92FD927D
:102180003196DECF8F929F92AF92BF92CF92DF9225
:10219000EF92FF920F931F93FB0170E060E0C12C60
:1021A000D12C7601C394641775075CF01F910F91D1
:1021B000FF90EF90DF90CF90BF90AF909F908F9067
:1021C0000895DC018D909D90AD90BD90CD0197015B
:1021D00086010150110921093109081919092A0933
:1021E0003B090193119321933193A1E00C151D0537
:1021F0002E053F0508F0A0E0CA2ED12CF12CE12CD1
:102200006F5F7F4FD0CFAB0141505109FC0130E0EF
:1022100020E02417350794F06150704C660F771F4B
:10222000660F771F680F791F80E090E0A0E0B0E8AC
:10223000FB0180839183A283B3830895119211924D
:10224000119211922F5F3F4FE4CFCF92DF92EF9226
:10225000FF92AB0141505109FC0130E020E0CC2459
:10226000CA94DC2C760124173507B4F06150704C09
:10227000660F771F660F771F680F791F8FEF9FEF2D
:10228000AFEFBFE7FB0180839183A283B383FF900D
:10229000EF90DF90CF900895C192D192E192F192A8
:1022A0002F5F3F4FE0CFCF92DF92EF92FF92FB0183
:1022B00030E020E0C12CD12C7601C3942E173F07CB
:1022C0002CF0FF90EF90DF90CF900895DC014D91BE
:1022D0005D916D917D91CD014C0D5D1D6E1D7F1D3C
:1022E00014974D935D936D937C931397A1E04C15D8
:1022F0005D056E057F0508F0A0E0CA2ED12CF12CFB
:10230000E12C2F5F3F4FDACFCF92DF92EF92FF9217
:10231000FC0180E030E020E02617370714F4882322
:1023200029F0FF90EF90DF90CF900895C190D19069
:10233000E190F1902F5F3F4F81E0CD28CE28CF284C
:1023400059F780E0E9CF2F923F924F925F926F92C0
:102350007F928F929F92AF92BF92CF92DF92EF9235
:10236000FF920F931F93CF93DF93CDB7DEB7A8975C
:102370000FB6F894DEBF0FBECDBF9EA38DA31B0189
:102380005E834D833A8329831A8F098FDA8AC98A3B
:10239000F901EE0FFF1FEE0FFF1FE40FF51F49813C
:1023A0005A81141615060CF0A0C4B291A291929114
:1023B0008291892B8A2B8B2B11F1E98DFA8D90E07C
:1023C00080E08E159F0514F1F101EE0FFF1FEE0F57
:1023D000FF1F8DA19EA1E80FF91F1214130404F131
:1023E000ADA1BEA1BA83A983E989FA8930E020E0D2
:1023F0002A153B050CF46AC485E090E04FC02981A2
:102400003A81215031093A832983C9CF119211921F
:10241000119211920196D5CF91E0291A3108DDCFA2
:10242000B291A29192918291892B8A2B8B2BA1F34D
:10243000E981FA812E163F069CF249885A885A860D
:102440004986F20190E080E005C01192119211924C
:10245000119201968A159B05C4F3B1E02B16310445
:10246000B1F5EDA1FEA16081718182819381AD8181
:10247000BE812D913D914D915C910E94B763E98D94
:10248000FA8D2083318342835383A989BA896D935E
:102490007D938D939C93139787E090E0A8960FB659
:1024A000F894DEBF0FBECDBFDF91CF911F910F918A
:1024B000FF90EF90DF90CF90BF90AF909F908F9064
:1024C0007F906F905F904F903F902F900895E9819B
:1024D000FA81E150F04CEE0FFF1FEE0FFF1F4D8011
:1024E0005E804E0E5F1E5C8A4B8AD201CD90DD90DD
:1024F000ED90FC90D701C601B695A7959795879565
:1025000001E010E01C830B830097A105B10589F55C
:10251000D101A150B04CAA0FBB1FAA0FBB1F8DA1A8
:102520009EA1A80FB91F4D915D916D917C917695FB
:1025300067955795479581E090E0411551056105F4
:10254000710511F5A981BA81A215B3051CF14B8063
:102550005C8084159505F0F46DA07EA07A82698276
:1025600030E020E02A153B050CF49DC386E090E0A6
:1025700095CF2B813C812F5F3F4F3C832B83B695BA
:10258000A79597958795C0CF0196769567955795AE
:102590004795D3CF29813A8121503109388B2F8734
:1025A000910121503109890175E0000F111F7A95C1
:1025B000E1F7080F191F4F855889A5E0440F551FF3
:1025C000AA95E1F76B817C81640F751F7E876D870B
:1025D000AB81BC81A032B10509F498C134964D801D
:1025E0005E80E40DF51D70E060E040E250E04A1BC3
:1025F0005B0B46015701042E04C0880C991CAA1CD1
:10260000BB1C0A94D2F76F5F7F4F69807A80661691
:10261000770609F062C1AD81BE818D929D92AD9227
:10262000BC921397CC24CA94DC2C76012601370186
:1026300004C0440C551C661C771C4A95D2F74D8A81
:102640005E8A6F8A788E49815A814130510509F03E
:1026500066C14D885E886F88788C4D8E5E8E6F8ED9
:1026600078A269817A81615071094FEF5FE3649FBD
:102670004001659F900C749F900C11249AA289A22E
:102680001C861B86AD84BE84A094B094BCA2ABA271
:10269000A901440F551F440F551FADA1BEA1A40FA2
:1026A000B51FB887AF838032910509F440C0CD9043
:1026B000DD90ED90FC9013974B855C85405E5F4FFD
:1026C000FA01E81BF90BFC87EB87FD01A90160E229
:1026D00070E0681B790B26013701062E04C0440CFC
:1026E000551C661C771C0A94D2F7141615060CF4B8
:1026F0001FC1A90137FF02C050E040E088248A943E
:10270000FFE39F2E489DF001499DF00D589DF00D6F
:102710001124E20FF31FEE0FFF1FEE0FFF1F8DA11D
:102720009EA1E80FF91F4082518262827382EF817D
:10273000F88580819181A281B381EB89FC894081F8
:10274000518162817381CD8CDE8CEF8CF8A0C82220
:10275000D922EA22FB22C416D506E606F70609F0BE
:1027600067C14F80588458A64FA26B887C887C8EA6
:102770006B8EB2014F8558894115510509F0F1C0A2
:102780006D857E85061B170B8F859889009709F04C
:102790009DC1E9A1FAA1E20FF31FEE0FFF1FEE0F9B
:1027A000FF1F2DA13EA12E0F3F1FF90180819181B6
:1027B000A281B381ED81FE8140815181628173816B
:1027C000841B950BA60BB70BF90180839183A28321
:1027D000B383F80195E0F695E7959A95E1F7EE0F4A
:1027E000FF1FEE0FFF1F698C7A8CE60DF71D0F712E
:1027F000112741E050E060E070E004C0440F551F35
:10280000661F771F0A95D2F780819181A281B381DB
:10281000842B952BA62BB72B80839183A283B38324
:10282000EF81F885121413040CF062C2808191814B
:10283000A281B3819101215031093497892B8A2BD0
:102840008B2B09F47FC169807A80261437040CF041
:102850007BC191012150310984E090E06B857C853A
:1028600045E0769567954A95E1F74B855C854F7114
:102870005527FB01EE0FFF1FEE0FFF1F41155105FE
:1028800009F497C12DA03EA02E0E3F1ED101CD9080
:10289000DD90ED90FC90B0E0A0E0E0E2F0E02F01F0
:1028A000441A550A5A82498246015701042E04C02F
:1028B000B694A794979487940A94D2F76F5F7F4F4A
:1028C0001496261737070CF0B6C1A985BA858D92E4
:1028D0009D92AD92BC92139785C1DF011897CD9060
:1028E000DD90ED90FC90260137010B8004C07694BA
:1028F0006794579447940A94D2F784289528A62879
:10290000B728B292A2929292829273CE66246A946F
:10291000762C43016D8A7E8A8F8A988E94CE6624A7
:102920006A94762C43016D8E7E8E8F8E98A299CEFE
:10293000F290E290D290C29046015701082E04C056
:10294000B694A794979487940A94D2F784289528EC
:10295000A628B72884829582A682B7824150510961
:10296000BACEFB017290629052904290BF014150EA
:102970005109EB8DFC8DB290A29092908290FC8FC9
:10298000EB8FCC24CA94DC2C76014115510521F43F
:10299000CD88DE88EF88F88CC420D520E620F7208B
:1029A000C814D904EA04FB0409F4E6CE841495049F
:1029B000A604B70408F485C0AD84BE84A016B10691
:1029C00008F0A9C1EF81F885A9016C017D01CC0C4B
:1029D000DD1CEE1CFF1C141615060CF483C0A901A7
:1029E00037FF02C050E040E044244A946FE3562E83
:1029F000449DF001459DF00D549DF00D1124E20F12
:102A0000F31FEE0FFF1FEE0FFF1F6DA07EA0E60D60
:102A1000F71DC082D182E282F3824B855C854F5FD5
:102A20005F4F5C874B876BA17CA1060F171F0AC005
:102A3000481759076A077B0708F0BECF8D849E842C
:102A400008191909F90189819A81E81BF90B319656
:102A5000EE0FFF1FEE0FFF1FADA1BEA1EA0FFB1F80
:102A60004D805E805C8E4B8E90E080E040E050E0D8
:102A7000BA0181909190A190B190AB8DBC8DCD9019
:102A8000DD90ED90FD90BC8FAB8F240135014C188B
:102A90005D086E087F0873016201C41AD50AE60A50
:102AA000F70A66246394712C30E020E0452B462B16
:102AB000472B79F1C814D904EA04FB0478F5612C9A
:102AC0002DC04D855E85041B150BBCCFAFA1B8A5ED
:102AD0001D921D921D921C92139701971497B8A7EF
:102AE000AFA354CEB291A291929182914C015D011B
:102AF0008824B7FC83949924AA24BB24C828D92805
:102B0000EA28FB28C482D582E682F7824150510927
:102B10005CCF8C149D04AE04BF0488F6A301632F20
:102B2000722F9F0124503109D901CD92DD92ED928F
:102B3000FC921397019649805A80841595050CF4F0
:102B400098CF47CE19016ECEF101E150F04CEE0F57
:102B5000FF1FEE0FFF1F8DA09EA0E80DF91D408105
:102B6000518162817381769567955795479581E08C
:102B700090E04115510561057105A9F48901B5E0A1
:102B8000000F111FBA95E1F7AB84BC840A191B0929
:102B9000080F191F4D855E850417150708F078CDBD
:102BA00082E090E05BCE01967695679557954795C4
:102BB000E0CFADA1BEA1EA0FFB1F30E020E04191C4
:102BC000519161917191A985BA854D935D936D93F2
:102BD0007D93BA87A9872F5F3F4F4F84588842164D
:102BE00053066CF7EB81FC81B09709F457CCAD81AB
:102BF000BE81CD90DD90ED90FC901397FD0130E00B
:102C000020E040E250E04B805C80441955092601E9
:102C10003701042E04C076946794579447940A941D
:102C2000D2F78F8498882815390524F14082518283
:102C30006282738233CC81010A0F1B1FF801C080AE
:102C4000D180E280F38026013701098004C0440C62
:102C5000551C661C771C0A94D2F784289528A62850
:102C6000B728E985FA8581929192A192B192FA876B
:102C7000E9871ACEC480D580E680F78046015701E7
:102C80000B8004C0880C991CAA1CBB1C0A94D2F7A8
:102C900084289528A628B72881929192A192B19272
:102CA0002F5F3F4FB4CFE981FA8181919191A1913A
:102CB000B191FA83E983E985FA8581939193A19390
:102CC000B193FA87E9872F5F3F4F4CCCA981BA8136
:102CD0004D915D916D917D91BA83A98341935193FB
:102CE000619371932F5F3F4F83CB8FEF9FEFD6CBD5
:102CF0002114310409F0ADCDEDA1FEA180819181B7
:102D0000A281B381E989FA8980839183A283B38305
:102D100081E090E067CF83E090E0A0CD2F923F92DA
:102D20004F925F926F927F928F929F92AF92BF92DB
:102D3000CF92DF92EF92FF920F931F93CF93DF9387
:102D4000CDB7DEB764970FB6F894DEBF0FBECDBF28
:102D50002A013E832D8338011701DE86CD86B88A8D
:102D6000AF862AA53BA53A8B298B4CA55DA5588734
:102D70004F83AEA5BFA5BC8BAB8BFB01E150F04CE4
:102D8000EE0FFF1FEE0FFF1FE80FF91F20813181AB
:102D90004281538129833A834B835C83ED81FE8199
:102DA000E150F04CEE0FFF1FEE0FFF1FE40DF51D7D
:102DB000208131814281538129873A874B875C8703
:102DC00029813A814B815C8157FF40C0AB01B4013E
:102DD000D9D989859A85AB85BC85B7FF3CC04D8123
:102DE0005E816F817885C201CDD9AF84B888CD84EA
:102DF000DE84710183012B893C894F815885698963
:102E00007A89C401A0DA97FF48C029813A814B81B1
:102E10005C81B101C30157FF27C064960FB6F894D7
:102E2000DEBF0FBECDBFDF91CF911F910F91FF90FD
:102E3000EF90DF90CF90BF90AF909F908F907F905A
:102E40006F905F904F903F902F90DDC929893A890C
:102E5000A40145D9BECF2B893C894F8158856D810E
:102E60007E81C2013CD9C1CF64960FB6F894DEBF13
:102E70000FBECDBFDF91CF911F910F91FF90EF90CB
:102E8000DF90CF90BF90AF909F908F907F906F908A
:102E90005F904F903F902F90D8C989819A81AB81E4
:102EA000BC818827B7FD83959927AA27BB27498529
:102EB0005A856B857C85442777FD43955527662782
:102EC0007727841731F16F8578898D859E851CDA87
:102ED000882319F0B101C301E6D9A101B301C301EF
:102EE00064960FB6F894DEBF0FBECDBFDF91CF91D1
:102EF0001F910F91FF90EF90DF90CF90BF90AF9018
:102F00009F908F907F906F905F904F903F902F9009
:102F100039C964960FB6F894DEBF0FBECDBFDF91FE
:102F2000CF911F910F91FF90EF90DF90CF90BF90C6
:102F3000AF909F908F907F906F905F904F903F9059
:102F40002F9008954F925F926F927F928F929F92EF
:102F5000AF92BF92CF92DF92EF92FF92CF93DF9327
:102F60009A012150304C220F331F220F331FFC01D6
:102F7000E20FF31F80809180A280B380FB01E20FFB
:102F8000F31FC080D180E280F380CC24DD24EE24C6
:102F9000E0E8FE2224013501442455246624E0E8BB
:102FA0007E22C414D504E604F70499F52C5F3F4F44
:102FB000FC01E20FF31FEB01C20FD31F141615061D
:102FC0008CF090E080E0DF91CF91FF90EF90DF9068
:102FD000CF90BF90AF909F908F907F906F905F90B9
:102FE0004F90089541505109F290E290D290C290D2
:102FF000BA91AA919A918A91C816D906EA06FB0657
:10300000E9F28C159D05AE05BF0528F481E090E03E
:10301000DACFB7FEFBCF8FEF9FEFD5CF93DF892FAE
:103020008095881F8827881F08952F923F926F925E
:103030007F928F929F92AF92BF92CF92DF92EF9248
:10304000FF920F931F93CF93DF9300D000D0CDB7A3
:10305000DEB71B013C0189014E835D8320E030E037
:10306000A901B8018E819D810E94B758811125C0A8
:1030700020E030E0A901B101C3010E94B7588823C4
:1030800009F46BC061017301B601C70126960FB642
:10309000F894DEBF0FBECDBFDF91CF911F910F918E
:1030A000FF90EF90DF90CF90BF90AF909F908F9068
:1030B0007F906F903F902F900895B101C3010E94BF
:1030C000AF38882349F0C0903314D0903414E09086
:1030D0003514F0903614D8CFB8018E819D810E94AE
:1030E000AF388111F0CFB101C3010E946A3881115C
:1030F000EACF20E030E0A901B101C3010E94B75836
:1031000081110BC098014E815D8160E070E0CB01C0
:103110000E94BB586B017C01B7CFB8018E819D81A5
:103120000E946A388823E9F020E030E0A901B80164
:103130008E819D810E94B758F82EFF1CFF24FF1C32
:1031400020E030E0A901B101C3010E94B758881FF7
:103150008827881FF81609F495CF6801EE80FD8056
:1031600093CF98014E815D81B101C3010E94AB599B
:103170006B017C01BB24B39420E030E0A9010E94E4
:10318000B7588111B12C20E030E0A901B601C70188
:103190000E94B758882309F447C0B8018E819D81E9
:1031A0000E9491599B01AC01B8018E819D810E94C2
:1031B000A75A1816CCF598014E815D81B101C30163
:1031C0000E94BB584B015C01E894B7F820E030E066
:1031D00040E05FE3C501B4010E9440580E9491594C
:1031E0009B01AC01C501B4010E943F589B01AC0199
:1031F0005F7729833A834B835C8320E030E040E0B3
:1032000054E3C501B4010E94E15A9B01AC01BB2407
:10321000B39469817A818B819C810E94A75A181688
:103220000CF0B12C81E0B82620E030E0A901BB20F1
:1032300031F0B8018E819D810E94E15A6BCFB101BE
:10324000C3010E94B758B82EBB1CBB24BB1C20E096
:1032500030E0A901B8018E819D810E94B758881F76
:103260008827881FB81609F40FCF98014E815D8119
:10327000B601C7010E9440584DCFCF92DF92EF9226
:10328000FF926B017C019F7720E030E040E859E538
:103290000E94B75887FF2BC020E030E040E05FE39A
:1032A000C701B6010E94A75A87FD0EC020E030E09A
:1032B00040E05FE3C701B6010E944058FF90EF90E5
:1032C000DF90CF900C94915920E030E040E05FEB2C
:1032D000C701B6010E94A75A181684F420E030E016
:1032E000A901C701B6010E94E15A6B017C01C70127
:1032F000B601FF90EF90DF90CF90089520E030E08E
:1033000040E05FE3C701B6010E943F58FF90EF9095
:10331000DF90CF900C94A458E091BF05F091C005C8
:1033200080918E1290918F12A0919012B091911273
:1033300080839183A283B3838091AA129091AB1270
:10334000A091AC12B091AD1284839583A683B7830C
:1033500008952F923F924F925F926F927F928F9239
:103360009F92AF92BF92CF92DF92EF92FF920F9314
:103370001F93CF93DF93CDB7DEB7CA55D1090FB6F0
:10338000F894DEBF0FBECDBF009135061091360612
:103390000130110509F0C7C160910606709107065A
:1033A00080910806909109066F5F7F4F8F4F9F4F66
:1033B0000E94545920910A0630910B0640910C0648
:1033C00050910D060E94E15A6093410570934205A9
:1033D000809343059093440580911C148150823062
:1033E00008F4B9C180E080931C1480911B148150B3
:1033F000823008F4B2C180E080931B1480912614BF
:103400008150823008F4ABC180E080932614809113
:103410001A148150823008F4A4C180E080931A14F9
:10342000809119148150823008F49DC180E080930E
:103430001914809118148150823008F496C180E0EC
:1034400080931814809117148150823008F48FC132
:1034500080E080931714809116148150823008F414
:1034600088C180E0809316148091151481508230B9
:1034700008F481C180E08093151480911414815068
:10348000823008F47AC180E0809314148091131480
:103490008150823008F473C180E0809313148091CE
:1034A00012148150823008F46CC180E080931214B1
:1034B000809111148150823008F465C180E08093BE
:1034C0001114809110148150823008F45EC180E0A4
:1034D0008093101480910F148150823008F457C1EA
:1034E00080E080930F1480910E148150823008F494
:1034F00050C180E080930E1480910D148150823071
:1035000008F449C180E080930D1480910C1481501F
:10351000823008F442C180E080930C1480910B1437
:103520008150823008F43BC180E080930B1480917D
:103530000A148150823008F434C180E080930A1468
:10354000809123148150823008F42DC180E0809353
:103550002314809109148150823008F426C180E040
:1035600080930914809108148150823008F41FC19F
:1035700080E080930814809107148150823008F411
:1035800018C180E0809307140130110539F580914E
:103590002B06811123C0C0904802D0904902E090D0
:1035A0004A02F0904B02A701960160915B13709163
:1035B0005C1380915D1390915E130E94B75888232D
:1035C00041F0C0925B13D0925C13E0925D13F092D5
:1035D0005E1384E20E94CA0180931613809135061F
:1035E00090913606019769F580912A06811110C0E5
:1035F0008091D6129091D712A091D812B091D91281
:1036000080935A1290935B12A0935C12B0935D1258
:1036100080912C06811149C1E0913705F091380560
:1036200080819181019729F08091B205882309F466
:1036300037C180911613882309F4BDC08FEF8093A2
:10364000FF138091350690913606019709F42DC13C
:103650008091350690913606019709F012C280914B
:103660002A06811104C08091151380931413809150
:103670002C068111EDC5E0913705F0913805808168
:103680009181019729F08091B205882309F4DBC567
:10369000809114138111EBC11092001420916802E3
:1036A0003091690240916A0250916B026091AB13B4
:1036B0007091AC138091AD139091AE130E9440585D
:1036C0006093AB137093AC138093AD139093AE13D0
:1036D00020917002309171024091720250917302F8
:1036E000A4DC6093D2127093D3128093D41290937F
:1036F000D512E0913705F0913805808191810197CD
:1037000029F08091B205882309F4B4C180911A147C
:10371000882309F4E9C5833009F0E2C581E090E02F
:1037200080931A14A7C10115110509F055CEE09137
:103730007105F09172050190F081E02D80819181F9
:10374000A281B381E0913806F0913906808391839C
:10375000A283B38341CE83E046CE83E04DCE83E0A7
:1037600054CE83E05BCE83E062CE83E069CE83E01B
:1037700070CE83E077CE83E07ECE83E085CE83E09B
:103780008CCE83E093CE83E09ACE83E0A1CE83E01B
:10379000A8CE83E0AFCE83E0B6CE83E0BDCE83E09B
:1037A000C4CE83E0CBCE83E0D2CE83E0D9CE83E01B
:1037B000E0CE83E0E7CE1092FF1320E030E040E857
:1037C0005FE360915A1270915B1280915C1290914C
:1037D0005D120E94B75881110FC18091E80290914B
:1037E000E902A091EA02B091EB028093E612909375
:1037F000E712A093E812B093E91280910C14882389
:1038000009F4F7C0833009F0F0C081E090E08093C4
:103810000C14C090F002D090F102E090F202F0900F
:10382000F3022091A7133091A8134091A91350914E
:10383000AA136091E6127091E7128091E8129091BC
:10384000E9120E944058A7019601EFDB6093BA127B
:103850007093BB128093BC129093BD126093A71318
:103860007093A8138093A9139093AA13E09137053E
:10387000F091380580819181019729F08091B205FE
:10388000882309F4DECE80910A14882309F4DAC073
:10389000833009F0D3C081E090E080930A14D1CE48
:1038A0008091FF13882309F488CF80912A06811123
:1038B00074C04090F3135090F4136090F51370901F
:1038C000F613C301B2010E9456594B015C012091CD
:1038D0000C0330910D0340910E0350910F030E9491
:1038E000B75887FFB2C077FCB0C0C0900403D09037
:1038F0000503E0900603F0900703C092DA12D0921D
:10390000DB12E092DC12F092DD1220E030E040E8C1
:103910005FE3609108037091090380910A0390911D
:103920000B030E943F589B01AC01C501B4010E94EA
:10393000A75A87FD8EC01092F3131092F4131092C1
:10394000F5131092F61380905A1290905B12A0908B
:103950005C12B0905D12A7019601C501B4010E94EE
:10396000E15A6093DE127093DF128093E01290931D
:10397000E112A501940160911403709115038091E7
:103980001603909117030E94E15A6093E21270931C
:10399000E3128093E4129093E51280912B0681113B
:1039A0005ECEC0904C02D0904D02E0904E02F0905E
:1039B0004F02A701960160914F13709150138091AF
:1039C0005113909152130E94B758882341F0C0922E
:1039D0004F13D0925013E0925113F09252138FE193
:1039E0000E94CA018093151333CE082E000C990B48
:1039F0000ECF82E090E00BCF8091EC029091ED022F
:103A0000A091EE02B091EF028093E6129093E7123C
:103A1000A093E812B093E91280910B14882359F017
:103A2000833029F481E090E080930B14F2CE082ECD
:103A3000000C990BF9CF82E090E0F6CF082E000C35
:103A4000990B2BCF82E090E028CFC12CD12C7601AE
:103A500054CF3FEF431A530A630A730A4092F31399
:103A60005092F4136092F5137092F6136CCF8FEFAF
:103A7000809300148091350690913606019709F4E1
:103A8000E7C3E0913806F0913906C080D180E2802A
:103A9000F380C092DE12D092DF12E092E012F09238
:103AA000E1128090B3139090B413A090B513B0902E
:103AB000B6134090BB135090BC136090BD13709030
:103AC000BE13A5019401C701B6010E94B75818168C
:103AD00014F40C949B26A3019201C701B6010E9425
:103AE000B758181614F40C949B261092E2121092F8
:103AF000E3121092E4121092E51220917A123091A2
:103B00007B1240917C1250917D1260917C117091DA
:103B10007D1180917E1190917F110E9440582091DB
:103B2000E2123091E3124091E4125091E5120E94AA
:103B300040586B017C01C0928212D0928312E092B5
:103B40008412F09285128090240390902503A09017
:103B50002603B0902703A50194010E94A75A1816C6
:103B600014F00C94F5268092861290928712A092FF
:103B70008812B0928912C0908612D0908712E0907D
:103B80008812F090891220913003309131034091D6
:103B9000320350913303C701B6010E94A75A181689
:103BA00014F00C941127C092E212D092E312E0922A
:103BB000E412F092E51220910C0230910D02409136
:103BC0000E0250910F0260E070E08FE793E40E94D4
:103BD000BB582091E2123091E3124091E4125091CF
:103BE000E5120E94E15A0E9491596093E21270938B
:103BF000E3128093E4129093E5120E94AF38882379
:103C000011F40C9423271092E2121092E3121092F6
:103C1000E4121092E512C090E212D090E312E0900C
:103C2000E412F090E51220E030E0A901C701B601EE
:103C30000E94B75887FD02C00C944827C701B601FF
:103C400090580E94285961956093121370E090E09B
:103C500080E00E94545960938A1270938B12809373
:103C60008C1290938D126BE070E080E090E00E94E7
:103C700090038C0190938E1380938D136091121397
:103C800070E090E080E00E945459AB01BC01C80193
:103C90000E9459038091350690913606019709F0EC
:103CA000A3C080912A0681119FC02091DA12309121
:103CB000DB124091DC125091DD1260910402709190
:103CC000050280910602909107020E94E15A6093DA
:103CD0008E1270938F128093901290939112109283
:103CE00052121092531210925412109255121092B6
:103CF0005612109257121092581210925912809127
:103D0000380290913902A0913A02B0913B02898B1E
:103D10009A8BAB8BBC8B8091E7139091E813A091A9
:103D2000E913B091EA1389879A87AB87BC8722E0B1
:103D3000E22EF12C02E512E121E030E0AE01475F16
:103D40005F4F61E070E0CE0141960E94FE07C09097
:103D50009212D0909312E0909412F090951250E04D
:103D600040E062E070E0C8010E94920A20E030E08A
:103D700040E05FE20E94E15A9B01AC01C701B6013D
:103D80000E943F586B017C01C092DA12D092DB1284
:103D9000E092DC12F092DD12AC019B01609108020E
:103DA0007091090280910A0290910B020E94E15ADF
:103DB0006093961270939712809398129093991231
:103DC000A7019601609100027091010280910202A8
:103DD000909103020E94E15A60939A1270939B1291
:103DE00080939C1290939D128090C3139090C41363
:103DF000A090C513B090C613C090DE12D090DF1211
:103E0000E090E012F090E1124090CB135090CC1370
:103E10006090CD137090CE13A7019601C501B40137
:103E20000E94A75A87FF02C00C944E27A30192015B
:103E3000C701B6010E94B758181614F40C944E2707
:103E40001092DE121092DF121092E0121092E11224
:103E50002091961230919712409198125091991298
:103E600060918011709181118091821190918311E4
:103E70000E9440582091DE123091DF124091E012F2
:103E80005091E1120E9440586B017C01C0929E1239
:103E9000D0929F12E092A012F092A112809038036B
:103EA00090903903A0903A03B0903B03A501940190
:103EB0000E94A75A181614F00C94A7278092A212F9
:103EC0009092A312A092A412B092A512C090A21236
:103ED000D090A312E090A412F090A5122091440378
:103EE000309145034091460350914703C701B60105
:103EF0000E94A75A181614F00C94C327C092DE1221
:103F0000D092DF12E092E012F092E11220910C02C6
:103F100030910D0240910E0250910F0260E070E06E
:103F20008FE793E40E94BB582091DE123091DF129C
:103F30004091E0125091E1120E94E15A0E94915981
:103F40006093DE127093DF128093E0129093E1127F
:103F50000E94AF38882311F40C94D5271092DE12FA
:103F60001092DF121092E0121092E112C090DE1255
:103F7000D090DF12E090E012F090E11220E030E00B
:103F8000A901C701B6010E94B75887FD02C00C9471
:103F9000FA27C701B60190580E942859619560938D
:103FA000131370E090E080E00E9454596093A612D1
:103FB0007093A7128093A8129093A91263E070E007
:103FC00080E090E00E9490038C0190939E13809378
:103FD0009D136091131370E090E080E00E945459AB
:103FE000AB01BC01C8010E94590380913506909134
:103FF0003606019711F00C943A2930902A063110B8
:104000000C943A292091DA123091DB124091DC12A3
:104010005091DD12609104027091050280910602B8
:10402000909107020E94E15A6093AA127093AB121A
:104030008093AC129093AD12C0904402D090450290
:10404000E0904602F0904702A70196016091431369
:104050007091441380914513909146130E94B75874
:10406000882341F0C0924313D0924413E092451349
:10407000F092461367E370E080E090E00E9449010F
:10408000909342138093411343E050E0BE01675E7A
:104090007F4F0E94380120918A0330918B03A98DB4
:1040A000BA8D0E94E16369877A878B879C8792E04B
:1040B000E92EF12C02E312E121E030E0AE01475F8E
:1040C0005F4F61E070E084E893E00E943E0B8090D7
:1040D000F7139090F813A090F913B090FA13C5015C
:1040E000B4010E9456596B017C0120915403309118
:1040F000550340915603509157030E94B75887FFCC
:104100007FC7B7FC7DC780914C0390914D03A09170
:104110004E03B0914F038093DA129093DB12A09379
:10412000DC12B093DD1220E030E040E85FE3609104
:1041300050037091510380915203909153030E9458
:104140003F589B01AC01C701B6010E94A75A87FDE9
:104150005BC71092F7131092F8131092F913109294
:10416000FA13C090BA12D090BB12E090BC12F0903B
:10417000BD12C092AE12D092AF12E092B012F09285
:10418000B112E0913705F0913805008111810130BD
:10419000110531F08091B205882311F40C94583048
:1041A00020E030E0A901C701B6010E94B75888237A
:1041B00011F40C94293020E030E040E85FE3C701BF
:1041C000B6010E94B758882311F40C94CD2F20E03B
:1041D00030E040E050E4C701B6010E94B7588111B9
:1041E00021C782E080930414809148039091490391
:1041F000A0914A03B0914B038093B2129093B312F3
:10420000A093B412B093B5128093B6129093B712E4
:10421000A093B812B093B9120130110529F0809122
:10422000B205882309F401C780912214882311F470
:104230000C94A130833011F00C949C3081E090E01C
:1042400080932214F2C680910014882309F426CAB0
:1042500080912A06811115CCE0913705F09138053F
:10426000008111810130110529F08091B205882368
:1042700009F459C020E030E040E85FE360915A1251
:1042800070915B1280915C1290915D120E94B75800
:1042900081112DC0109201148091D2129091D312ED
:1042A000A091D412B091D5128093CE129093CF12D8
:1042B000A093D012B093D1120130110521F080915A
:1042C000B2058823A9F180911914882309F4CEC17D
:1042D000833009F0C7C181E090E0809319140AC0CF
:1042E000082E000C990B1CCA82E090E019CA8FEFCF
:1042F0008093011401301105D9F4FF24F39420E0D8
:1043000030E040E85FE36091CE127091CF1280916F
:10431000D0129091D1120E94B758811101C0F12C96
:10432000F092021409C080910114882309F4B4CFDB
:104330008091B2058111E1CF809102148111A0C159
:104340008091E2129091E312A091E412B091E512F3
:1043500021968CAF9DAFAEAFBFAF21970130110555
:1043600021F08091B205882361F080911C1488238C
:1043700009F483C1833009F07CC181E090E080932F
:104380001C148091100290911102A0911202B09120
:10439000130280935E1290935F12A0936012B09309
:1043A00061128091200290912102A0912202B0918D
:1043B00023028093621290936312A0936412B093CD
:1043C000651280911C0290911D02A0911E02B09175
:1043D0001F028093661290936712A0936812B093A5
:1043E00069128091180290911902A0911A02B0915D
:1043F0001B0280936A1290936B12A0936C12B0937D
:104400006D12C0900003D0900103E0900203F09081
:104410000303A701960160913713709138138091BF
:10442000391390913A130E94B758882341F0C092F3
:104430003713D0923813E0923913F0923A136EE3A7
:1044400070E080E090E00E944901909336138093E1
:10445000351343E050E0BE01675E7F4F0E94380194
:104460002090370530903805D1010D911C91013015
:10447000110521F08091B205882389F020E030E019
:10448000A90160915A1270915B1280915C12909117
:104490005D120E94B75881111BC1109203148091C4
:1044A0000314882309F429C1813009F4FEC120E0F6
:1044B00030E040E251E460916A1270916B12809199
:1044C0006C1290916D120E94A75A18160CF0A1C39D
:1044D0008091C8029091C902A091CA02B091CB020A
:1044E00089AF9AAFABAFBCAF4090661250906712E5
:1044F0006090681270906912C0901402D0901502FA
:10450000E0901602F090170220E030E040E251E423
:10451000C301B2010E94B75880906212909063125A
:10452000A0906412B090651220E030E040E251E4C7
:1045300087FFE2C2C501B4010E94B75887FF66C277
:10454000A5019401C301B2010E943F5820912402A9
:104550003091250240912602509127020E94E15A93
:104560004B015C018092DA129092DB12A092DC1275
:10457000B092DD124090B4025090B5026090B60245
:104580007090B702AC019B01C301B2010E943F5879
:10459000A70196010E94E15A6093761270937712F8
:1045A0008093781290937912A3019201C501B4010E
:1045B0000E944058A70196010E94E15A609392120E
:1045C0007093931280939412909395128091151486
:1045D000882309F418C2833009F011C281E090E009
:1045E0008093151480911114882309F40FC383302C
:1045F00009F008C381E090E08093111420E030E0DE
:1046000040E251E460915E1270915F1280916012FD
:10461000909161120E94A75A18160CF03FC3809126
:104620000F14882309F437C3833009F030C381E0C5
:1046300090E080930F14D1018D919C91019729F006
:104640008091B205882309F487C080910D148823D6
:1046500009F46EC3833009F067C381E090E0809372
:104660000D147AC0082E000C990B37CE82E090E032
:1046700034CE082E000C990B82CE82E090E07FCEE3
:104680008091DE129091DF12A091E012B091E112C0
:1046900021968CAF9DAFAEAFBFAF21970130110512
:1046A00029F08091B205882309F46BCE80911B1408
:1046B000882359F0833029F481E090E080931B1423
:1046C00060CE082E000C990BF9CF82E090E0F6CF77
:1046D00020E030E0A9016091CE127091CF1280915C
:1046E000D0129091D1120E94B758811104C081E07C
:1046F00080930314D4CE82E0FBCF80918C02909102
:104700008D02A0918E02B0918F0289AF9AAFABAFAC
:10471000BCAF8093761290937712A0937812B093E7
:1047200079128093921290939312A0939412B09363
:1047300095120130110521F08091B205882361F0B6
:1047400080911714882309F4ADC0833009F0A6C006
:1047500081E090E08093171480919F139091A013B3
:10476000A091A113B091A21380936E1290936F1237
:10477000A0937012B09371128091A3139091A4131F
:10478000A091A513B091A613809372129093731207
:10479000A0937412B093751210924A1210924B1299
:1047A00010924C1210924D1210924E1210924F1203
:1047B0001092501210925112809138029091390249
:1047C000A0913A02B0913B02898B9A8BAB8BBC8B48
:1047D0008091E3139091E413A091E513B091E61357
:1047E00089879A87AB87BC8732E0E32EF12C0AE4F5
:1047F00012E121E030E0AE01475F5F4F61E070E021
:10480000CE0141960E94FE0750E040E062E070E079
:10481000C8010E94920A20E030E040E05FE20E947E
:10482000E15A20917612309177124091781250918E
:1048300079120E9440586B017C01C092DA12D0922A
:10484000DB12E092DC12F092DD12AC019B01609170
:1048500008027091090280910A0290910B020E9455
:10486000E15A60937A1270937B1280937C1290933A
:104870007D12A70196016091000270910102809162
:104880000202909103020E94E15A60937E1270939B
:104890007F128093801290938112F3C8082E000C2F
:1048A000990B58CF82E090E055CF2091880330914A
:1048B0008903A98DBA8D0E94E1630E94545920E0BA
:1048C00030E040E057E30E94E15A4B015C01C090A8
:1048D0001402D0901502E0901602F0901702209179
:1048E0009C0230919D0240919E0250919F020E9435
:1048F0003F58209198023091990240919A0250912C
:104900009B020E94BB5820919402309195024091E5
:104910009602509197020E94BB58209190023091CC
:10492000910240919202509193020E944058A70137
:1049300096010E94E15A60937612709377128093E9
:10494000781290937912A50194016091AC02709154
:10495000AD028091AE029091AF020E943F5820912B
:10496000A8023091A9024091AA025091AB020E9484
:10497000BB582091A4023091A5024091A60250910B
:10498000A7020E94BB582091A0023091A102409141
:10499000A2025091A3020E944058A70196010E94D2
:1049A000E15A6093921270939312809394129093B1
:1049B00095128091B0029091B102A091B202B09193
:1049C000B30289AF9AAFABAFBCAF0130110529F08C
:1049D0008091B205882309F4BFCE809116148823F4
:1049E00059F0833029F481E090E080931614B4CE1E
:1049F000082E000C990BF9CF82E090E0F6CF082E3C
:104A0000000C990BEDCD82E090E0EACDA30192017C
:104A10006091B8027091B9028091BA029091BB0284
:104A20000E943F586093BE127093BF128093C012D1
:104A30009093C112209124023091250240912602C8
:104A4000509127020E94E15A4B015C018092C212F0
:104A50009092C312A092C412B092C5124090BC02B0
:104A60005090BD026090BE027090BF02AC019B01ED
:104A7000C301B2010E943F58A70196010E94E15A6A
:104A80006093921270939312809394129093951264
:104A9000A3019201C501B4010E9440586093C6125F
:104AA0007093C7128093C8129093C912A701960100
:104AB0000E94E15A6093CA127093CB128093CC1279
:104AC0009093CD1260937612709377128093781240
:104AD0009093791280911414882359F0833029F42B
:104AE00081E090E0809314147DCD082E000C990B8A
:104AF000F9CF82E090E0F6CFC501B4010E94B7582B
:104B000087FF5EC0A50194016091C4027091C50247
:104B10008091C6029091C7020E943F5820912402C2
:104B20003091250240912602509127020E94E15ABD
:104B30004B015C018092DA129092DB12A092DC129F
:104B4000B092DD124090C0025090C1026090C2024B
:104B50007090C302AC019B01C301B2010E943F5897
:104B6000A70196010E94E15A609376127093771222
:104B70008093781290937912A3019201C501B40138
:104B80000E944058A70196010E94E15A6093921238
:104B900070939312809394129093951280911314B2
:104BA000882359F0833029F481E090E08093131436
:104BB00019CD082E000C990BF9CF82E090E0F6CFCA
:104BC000C0927612D0927712E0927812F092791217
:104BD000C0929212D0929312E0929412F092951297
:104BE00080911214882359F0833029F481E090E0F9
:104BF00080931214F7CC082E000C990BF9CF82E0A9
:104C000090E0F6CF082E000C990BF6CC82E090E0F5
:104C1000F3CC8091CC029091CD02A091CE02B091C4
:104C2000CF028093761290937712A0937812B0936C
:104C300079128091D0029091D102A091D202B091CC
:104C4000D3028093921290939312A0939412B093F4
:104C500095128091D4029091D502A091D602B09184
:104C6000D70289AF9AAFABAFBCAF80911014882345
:104C700059F0833029F481E090E080931014BECC89
:104C8000082E000C990BF9CF82E090E0F6CF082EA9
:104C9000000C990BCECC82E090E0CBCC2091D802D6
:104CA0003091D9024091DA025091DB026091761284
:104CB0007091771280917812909179120E94E15A46
:104CC0006093761270937712809378129093791292
:104CD0002091DC023091DD024091DE025091DF0232
:104CE000609192127091931280919412909195120A
:104CF0000E94E15A609392127093931280939412DF
:104D00009093951280910E14882359F0833029F4E2
:104D100081E090E080930E148ECC082E000C990B4D
:104D2000F9CF82E090E0F6CF082E000C990B97CCDB
:104D300082E090E094CC8092E2129092E312A092F2
:104D4000E412B092E512A3019201C501B4010E94E0
:104D5000B75887FF3FC0A3019201C701B6010E9467
:104D6000A75A18160CF03EC04092E2125092E3127D
:104D70006092E4127092E512EFEBF3E12081318151
:104D80004281538160917E1270917F1280918012D6
:104D9000909181120E943F584B015C012091E212D8
:104DA0003091E3124091E4125091E512C701B6012F
:104DB0000E943F589B01AC01C501B4010E94BB5841
:104DC0006093E2127093E3128093E4129093E512E1
:104DD0000C947D1DA5019401C701B6010E94B7582E
:104DE000181614F6E7EBF3E1C9CF809028039090F2
:104DF0002903A0902A03B0902B03A5019401C701B9
:104E0000B6010E94B75887FF02C00C94B31DC09230
:104E10008612D0928712E0928812F09289120C9436
:104E2000BB1D80912C0390912D03A0912E03B09176
:104E30002F038093E2129093E312A093E412B093B5
:104E4000E5120C94DB1D6091E2127091E3128091E7
:104E5000E4129091E5120E946A3881110C94031EAD
:104E60006091E2127091E3128091E4129091E51248
:104E700020E030E040E853E40E94AB596093E21236
:104E80007093E3128093E4129093E5120C940B1E3E
:104E9000C701B6010E9428590C94241E8092E21288
:104EA0009092E312A092E412B092E512A301920153
:104EB000C501B4010E94B75887FF3EC0A30192010B
:104EC000C701B6010E94A75A1816F4F54092E212E3
:104ED0005092E3126092E4127092E512EFECF3E16B
:104EE000208131814281538160919A1270919B128D
:104EF00080919C1290919D120E943F584B015C0141
:104F00002091E2123091E3124091E4125091E512A7
:104F1000C701B6010E943F589B01AC01C501B40115
:104F20000E94BB586093DE127093DF128093E012F0
:104F30009093E1120C94281FA7019601C501B401BA
:104F40000E94A75A87FFC2CFE7ECF3E1C9CF809058
:104F50003C0390903D03A0903E03B0903F03A50119
:104F60009401C701B6010E94B75887FF02C00C9494
:104F70005E1FC092A212D092A312E092A412F092ED
:104F8000A5120C94661F8091400390914103A0915B
:104F90004203B09143038093DE129093DF12A093FB
:104FA000E012B093E1120C94861F6091DE127091B2
:104FB000DF128091E0129091E1120E946A38811113
:104FC0000C94AE1F6091DE127091DF128091E0129E
:104FD0009091E11220E030E040E853E40E94AB59A8
:104FE0006093DE127093DF128093E0129093E112CF
:104FF0000C94B61FC701B6010E9428590C94CF1F0C
:1050000080E090E0DC0187C8BFEF8B1A9B0AAB0AF7
:10501000BB0A8092F7139092F813A092F913B09202
:10502000FA139FC88FEF809304146091B2127091AD
:10503000B3128091B4129091B5120E943D196B0188
:105040007C01C092DE12D092DF12E092E012F09268
:10505000E11220E030E040E853E40E94B7586FEFDF
:1050600087FF0EC020E030E0A901C701B6010E9411
:10507000A75A60E087FD04C0C701B6010E94285905
:105080008CE20E94C3016091B6127091B7128091B8
:10509000B8129091B9120E943D196B017C01C09227
:1050A000DE12D092DF12E092E012F092E11220E0E4
:1050B00030E040E853E40E94B7586FEF87FF0EC01E
:1050C00020E030E0A901C701B6010E94A75A60E0C4
:1050D00087FD04C0C701B6010E9428598DE20E94D5
:1050E000C301E0913705F09138050081118101304D
:1050F000110521F08091B205882389F0FF24F394F3
:1051000020E030E040E85FE369AD7AAD8BAD9CAD67
:105110000E94B758811101C0F12CF09205148091C2
:10512000051481110C94BE304090FB135090FC1379
:105130006090FD137090FE13C301B2010E94565996
:105140004B015C01209184023091850240918602DE
:10515000509187020E94B75887FD01C0F6C777FCBF
:10516000F4C7C0907C02D0907D02E0907E02F09067
:105170007F0220E030E040E85FE3609180027091C0
:10518000810280918202909183020E943F589B018C
:10519000AC01C501B4010E94A75A87FDDAC710927D
:1051A000FB131092FC131092FD131092FE130130AA
:1051B000110521F08091B205882361F080911814C7
:1051C000882309F4D8C7833009F0D1C781E090E083
:1051D0008093181469E070E080E090E00E949003F2
:1051E0005C01909396138093951320E030E04FE795
:1051F00053E4C701B6010E94B75818160CF4E0C773
:1052000020E030E0A901C701B6010E94A75A87FD3E
:10521000DEC7B701A601C5010E94590321966CADF6
:105220007DAD8EAD9FAD21970E943D196B017C0134
:10523000C092DE12D092DF12E092E012F092E11200
:1052400020E030E040E853E40E94B75887FFC3C72E
:1052500020E030E0A901C701B6010E94A75A87FDEE
:1052600005C0C701B6010E942859362E632D8BE276
:105270000E94C3018091350690913606019709F08E
:10528000C0C1D0902A06D110BCC1E0913705F09181
:105290003805008111810130110521F08091B2059E
:1052A0008823A9F0FF24F39420E030E040E85FE396
:1052B00060915A1270915B1280915C1290915D1214
:1052C0000E94B758811101C0F12CF0920614809110
:1052D000061481118AC7609194037091950380919F
:1052E0009603909197030130110521F02091B205AA
:1052F000222361F020912614222309F473C723305E
:1053000009F06CC721E030E0209326140E943D197B
:105310004B015C018092DE129092DF12A092E012AB
:10532000B092E11220E030E040E853E40E94B75828
:105330006FEF87FF0EC020E030E0A901C501B40186
:105340000E94A75A60E087FD04C0C501B4010E9415
:1053500028598AE20E94C3018090E0029090E10205
:10536000A090E202B090E302A501940160911E13A7
:1053700070911F1380912013909121130E94B758B0
:10538000882341F080921E1390921F13A092201345
:10539000B092211380911D13811110921D13BE0133
:1053A0006B5C7F4F809122130E9437038091300203
:1053B00090913102A0913202B0913302898B9A8B85
:1053C000AB8BBC8B8DA99EA9AFA9B8AD4091EB1357
:1053D0005091EC136091ED137091EE13841B950BBB
:1053E000A60BB70B89879A87AB87BC8712E0E12EA3
:1053F000F12C0AE312E121E030E0AE01475F5F4F9C
:1054000061E070E0CE0141960E94FE0704E0E02ECC
:10541000F12C06E811E122E030E04AE352E162E0DB
:1054200070E08CE693E00E94FE0788E0EAE3F2E198
:10543000A2E4B2E101900D928A95E1F706EC11E148
:1054400022E030E048EE53E062E070E08AE392E16F
:105450000E94FE0704E010E026EB31E14FE150E04E
:1054600064E070E086EC91E10E94C80D8091B61175
:105470009091B711A091B811B091B91180930A130E
:1054800090930B13A0930C13B0930D13809078029C
:1054900090907902A0907A02B0907B02A5019401CD
:1054A00060912A1370912B1380912C1390912D13DE
:1054B0000E94B758882341F080922A1390922B13B0
:1054C000A0922C13B0922D13809129138111109268
:1054D0002913BE016F5C7F4F80912E130E9437030A
:1054E00089A99AA9ABA9BCA94091EF135091F013D7
:1054F0006091F1137091F213841B950BA60BB70BFF
:1055000089879A87AB87BC87A2E0EA2EF12C02E458
:1055100012E121E030E0AE01475F5F4F61E070E0F3
:10552000CE0141960E94FE07B4E0EB2EF12C06EC72
:1055300011E122E030E042E452E162E070E084E711
:1055400093E00E94FE0780E1F801A6E9B1E1019035
:105550000D928A95E1F706EE11E122E030E048EE87
:1055600053E062E070E082E492E10E94FE0704E012
:1055700010E026ED31E14FE150E064E070E086EEAE
:1055800091E10E94C80D8091D6119091D711A09100
:10559000D811B091D91180930E1390930F13A0934B
:1055A0001013B09311136091680370916903809197
:1055B0006A0390916B030E943D194B015C0180923C
:1055C000DE129092DF12A092E012B092E11220E07F
:1055D00030E040E853E40E94B75887FF28C620E037
:1055E00030E0A901C501B4010E94A75A87FD05C09A
:1055F000C501B4010E942859D62E6D2D8DE00E9460
:10560000C3018091350690913606019709F036C2A4
:1056100080912A068111AFC08091AE129091AF1295
:10562000A091B012B091B11280939F139093A013E8
:10563000A093A113B093A2138091CE129091CF1298
:10564000A091D012B091D1128093A3139093A41380
:10565000A093A513B093A61360910A1370910B1336
:1056600080910C1390910D1322E030E042E053E161
:105670000E94F40F02E010E02AEE32E14EE150E029
:1056800062E070E082E093E10E94DA0E80912C02E9
:1056900090912D02A0912E02B0912F028DA79EA76E
:1056A000AFA7B8AB8091E3139091E413A091E513F9
:1056B000B091E61389A79AA7ABA7BCA7F2E0EF2E9B
:1056C000F12C02E013E121E030E0AE01475D5F4FD5
:1056D00061E070E0CE018D960E94FE0722E030E08E
:1056E000AE014F5D5F4FB8018AEE92E10E940A1051
:1056F00088E0FE01B196AAEEB2E101900D928A9582
:10570000E1F78091280290912902A0912A02B0919C
:105710002B02892B8A2B8B2B09F0A1C542E050E08C
:1057200060EE73E08AEE92E10E940E18882309F47D
:1057300081C588E0E8EDF3E0AAEFB2E101900D92B7
:105740008A95E1F702E010E09E012F5E3F4F4EE1A7
:1057500050E062E070E08AEF92E10E94C80D898912
:105760009A89AB89BC898093E3139093E413A09347
:10577000E513B093E6138091B3139091B413A09105
:10578000B513B091B61389AF9AAFABAFBCAF409031
:105790002F14509030146090311470903214E091B6
:1057A0003806F0913906C080D180E280F380A301F1
:1057B0009201BC01CD010E94B7588111A7C5C092CA
:1057C000B313D092B413E092B513F092B613E7EB93
:1057D000F3E180917E1290917F12A0918012B0919E
:1057E000811280839183A283B38380913506909147
:1057F0003606019709F08CC080912A06811188C075
:1058000060910E1370910F138091101390911113EA
:1058100022E030E0AE01475F5F4F0E94F40F02E0EC
:1058200010E02AEE32E14EE150E062E070E0CE019D
:1058300009960E94DA0E80912C0290912D02A0917F
:105840002E02B0912F028DA79EA7AFA7B8AB809173
:10585000E7139091E813A091E913B091EA1389A797
:105860009AA7ABA7BCA742E0E42EF12C8E01075FFC
:105870001F4F21E030E0AE01475D5F4F61E070E017
:10588000CE018D960E94FE0722E030E0AE01475E19
:105890005F4FB8018AEE92E10E940A1080912802BF
:1058A00090912902A0912A02B0912B02892B8A2B78
:1058B0008B2B09F066C542E050E060EE73E0CE014C
:1058C00049960E940E18882309F446C588E0E8ED41
:1058D000F3E0A2EFB2E101900D928A95E1F702E0C8
:1058E00010E09E012F5F3F4F4EE150E062E070E01C
:1058F00082EF92E10E94C80D89819A81AB81BC81BF
:105900008093E7139093E813A093E913B093EA13FD
:105910008091C3139091C413A091C513B091C61385
:1059200089AF9AAFABAFBCAF40902F1450903014FA
:105930006090311470903214E0913806F09139067D
:10594000C080D180E280F380A3019201BC01CD012F
:105950000E94B75881116CC5C092C313D092C41372
:10596000E092C513F092C613E7ECF3E180919A122E
:1059700090919B12A0919C12B0919D128083918373
:10598000A283B38380913506909136060197E1F4A6
:1059900080912A06811118C08DA99EA9AFA9B8AD22
:1059A0008093EB139093EC13A093ED13B093EE134D
:1059B00089A99AA9ABA9BCA98093EF139093F0137E
:1059C000A093F113B093F21340910606509107068D
:1059D000609108067091090690E080E00E947606CA
:1059E0008091350690913606019781F480912A06C0
:1059F00081110CC040910E0650910F066091100667
:105A00007091110681E090E00E9476068091350643
:105A1000909136060197B1F480912B06811112C046
:105A200020911206309113064091140650911506EC
:105A3000AAE0B0E00E94F063AB01BC0182E090E01C
:105A40000E94760680913506909136060197B1F452
:105A500080912C06811112C02091160630911706F4
:105A60004091180650911906A4E1B0E00E94F0633D
:105A7000AB01BC0183E090E00E9476068091350680
:105A800090913606019709F01AC5E0917105F091E1
:105A900072050190F081E02D80819181A281B38116
:105AA00025968CAF9DAFAEAFBFAF259780914105D6
:105AB00090914205A0914305B091440563968CAF47
:105AC0009DAFAEAFBFAF6397E0914505F09146053E
:105AD000C080D180E280F380E0917505F091760579
