:1000000005C100000C9407340C9432340C945D3418
:100010000C9488340C94B3340C94DE340C9409356D
:100020000C94343524C1000022C1000020C100001E
:100030001EC100001CC100001AC1000018C1000050
:1000400016C1000014C1000012C1000010C1000060
:100050000EC100000CC100000AC100000C945F3505
:1000600006C100000C947E390C94B43900C1000024
:10007000FEC00000FCC00000FAC00000F8C0000094
:10008000F6C00000F4C00000F2C00000F0C00000A4
:100090000C940A3A0C94403AEAC00000E8C0000010
:1000A000E6C00000E4C00000E2C00000E0C00000C4
:1000B000DEC00000DCC00000DAC00000D8C00000D4
:1000C000D6C00000D4C00000D2C000000C94963A04
:1000D0000C94CC3ACCC000000C94223B0C94583BBE
:1000E000C6C0000000000A0B02090C0D0E08070331
:1000F00004010000000000000000000000000000FB
:1001000000000000000000000000000000000000EF
:1001100012111000000000000000000000000000AC
:100120000000000000000000000001021020200874
:100130000810204010204080020102010804020142
:1001400001020408102040808040201008040201B1
:10015000800402018040201008040201080402010A
:100160000102040810204080010204081020408091
:1001700005050505070508080808020202020A0A23
:100180000808040404040101010101010101030341
:10019000030303030303040707070C0C0C0C0C0CEC
:1001A0000C0C0202020206060606060606060B0BE9
:1001B0000B0B0B0B0B0B000020002300260029006B
:1001C0002C002F003200000100000301060109018C
:1001D00000002200250028002B002E0031003400F2
:1001E00002010000050108010B01000021002400AC
:1001F00027002A002D003000330001010000040117
:1002000007010A01DD39693AF53A813B11241FBE25
:10021000CFEFD1E2DEBFCDBF00E00CBF13E0A0E026
:10022000B2E0EAE8F8E700E00BBF02C007900D92E9
:10023000A834B107D9F72AE0A8E4B3E001C01D92C1
:10024000A738B207E1F711E0C6E0D1E000E006C050
:1002500021970109802FFE010E94123CC230D10774
:1002600080E00807A9F70E942E300C94433CC8CECA
:10027000CF92DF92EF92FF920F931F93E82FF92F07
:1002800005C0015011092109310961F190819623BE
:100290009417B9F305C0015011092109310911F171
:1002A000908196239413F7CFC12CD12CE12CF12C03
:1002B0000AC08FEFC81AD80AE80AF80A0C151D05FB
:1002C0002E053F0579F080818623841791F36C2DEC
:1002D0007D2D8E2D9F2D1F910F91FF90EF90DF9020
:1002E000CF90089560E070E080E090E01F910F9162
:1002F000FF90EF90DF90CF900895CF93DF93882306
:1003000049F0EB0181500E94663699838883DF9122
:10031000CF910895FB0111821082F9CF0F931F93A3
:100320008B019C0183E036952795179507958A9553
:10033000D1F70F5A1C4F462F477021E030E0F901EA
:1003400002C0EE0FFF1F4A95E2F7AF01F8012081CE
:100350002423CB010196211102C090E080E01F917F
:100360000F9108950F931F938B019C0183E03695A5
:100370002795179507958A95D1F7677081E090E0EA
:1003800001C0880F6A95EAF7F801EF5AFC4F208107
:10039000452B31F48095822380831F910F9108951E
:1003A000822BFACFCF92DF92EF92FF92CF93DF931F
:1003B0006B017C0160E086E3C816D104E104F1041E
:1003C00090F486E38C0D0E94C337E6012196AE01BE
:1003D000C701B601C7DFCE01DF91CF91FF90EF904B
:1003E000DF90CF9008958C2DEECF882341F081507F
:1003F000682F70E090E080E050E040E0B3CF0895D7
:10040000611102C00C94C3376130E1F362E0FACFAE
:10041000662319F061E00C94FF3760E0FCCFCF92C7
:10042000DF92EF92FF92CF93882351F16A017B0113
:10043000CFEFC80F20E030E0A901CB01B6010E9448
:10044000353118168CF0C701B60190580E94A631BC
:100450009B01AC016C2F70E090E080E0CF91FF90A9
:10046000EF90DF90CF90B2C0C701B6010E94A131DA
:100470008C2FCF91FF90EF90DF90CF900C94893626
:10048000CF91FF90EF90DF90CF9008950F931F933F
:100490008B019C0183E036952795179507958A95E2
:1004A000D1F7085B1C4F462F477021E030E0F9017F
:1004B00002C0EE0FFF1F4A95E2F7AF01F80120815D
:1004C0002423CB010196211102C090E080E01F910E
:1004D0000F9108950F931F938B019C0183E0369534
:1004E0002795179507958A95D1F7677081E090E079
:1004F00001C0880F6A95EAF7F801E85BFC4F20819C
:10050000452B31F48095822380831F910F910895AC
:10051000822BFACF2F923F924F925F926F927F92EF
:100520008F929F92AF92BF92CF92DF92EF92FF9203
:100530000F931F93CF93DF93D62EC72E782E692E5D
:1005400049015A01280161E08D2D0E94C337CD2D4C
:10055000DC2D8E010F5F1F4FA8016D2D7C2D872D87
:10056000962DB8DF20E030E0A901C201B7010E945A
:100570002533181664F4C201B7010E94A6312B017D
:10058000C501B4010E94A631A201CE0123D0C80149
:10059000DF91CF911F910F91FF90EF90DF90CF905F
:1005A000BF90AF909F908F907F906F905F904F9093
:1005B0003F902F900895882341F08150682F70E07C
:1005C00090E080E050E040E085CF0895862FB901AB
:1005D0000C9489369C01FC01EC51FF4FE491E150F1
:1005E000E231E0F4F0E08827E750FD4F8F4F0C94A4
:1005F000123C0B03120315032C0341030E03560395
:10060000620366037D039203A703BE03D3030E03B5
:10061000E803FF03140484B5806884BD60E0822F82
:100620000C94FF3784B58062F8CF809180008C7F76
:1006300082608093800080918100807E8061682B41
:1006400060938100509387004093860080918000E2
:10065000806880938000E2CF809180008C7F8260F0
:100660008093800080918100807E8061682B609300
:1006700081005093870040938600809180008062C3
:10068000E8CF809180008C7F826080938000809191
:100690008100807E8061682B609381005093870089
:1006A00040938600809180008860D3CF8091B00015
:1006B00080688093B0008091B100887F682B609340
:1006C000B100ACCF8091B0008062F3CF80919000F8
:1006D0008C7F82608093900080919100807E806109
:1006E000682B6093910050939700409396008091FF
:1006F000900080688093900091CF809190008C7FD3
:1007000082608093900080919100807E8061682B50
:1007100060939100509397004093960080919000D1
:100720008062E8CF809190008C7F826080939000FF
:1007300080919100807E8061682B6093910050933E
:10074000970040939600809190008860D3CF80916D
:10075000A0008C7F82608093A0008091A100807EA9
:100760008061682B6093A1005093A7004093A6007E
:100770008091A00080688093A00050CF8091A0005D
:100780008C7F82608093A0008091A100807E806138
:10079000682B6093A1005093A7004093A60080911E
:1007A000A0008062E8CF8091A0008C7F826080935F
:1007B000A0008091A100807E8061682B6093A100E1
:1007C0005093A7004093A6008091A0008860D3CFEB
:1007D000809120018C7F8260809320018091210193
:1007E000807E8061682B60932101509327014093A4
:1007F0002601809120018068809320010FCF809195
:1008000020018C7F82608093200180912101807E75
:100810008061682B6093210150932701409326014A
:10082000809120018062E8CF809120018C7F8260DE
:100830008093200180912101807E8061682B6093EC
:100840002101509327014093260180912001886067
:10085000D3CFCF93C62F61E00E94C33760E08C2FC7
:10086000CF910C94C3374F925F926F927F92AF9269
:10087000BF92CF92DF92EF92FF920F931F93CF938D
:10088000DF935C01162FC42FD22F611104C061E0E9
:10089000842F0E94C33760E08C2F0E94FF370E9494
:1008A000A9352B013C010E94A935641975098609F7
:1008B00097096630710581059105A8F361E08C2FD9
:1008C0000E94FF370E94A9352B013C01C02ED12C7C
:1008D000F12CE12C0E94A935641975098609970944
:1008E000C616D706E806F906A8F760E08C2F0E9426
:1008F000FF37111104C060E08D2F0E94C33720E440
:1009000032E44FE050E061E08D2F0E942C38F50179
:100910006083718382839383DF91CF911F910F91C5
:10092000FF90EF90DF90CF90BF90AF907F906F904F
:100930005F904F90089590E080E008950F931F938B
:10094000009709F48DC06115710509F489C0009103
:100950007A0210917B0220917C0230917D020E3F41
:100960001F4F2F4F3F4F09F06CC04FEF5FEFBA01A1
:1009700040937A0250937B0260937C0270937D02D5
:1009800040917A0250917B0260917C0270917D02CD
:10099000DC011296ED91FC9180819181A281B3815D
:1009A0008093140490931504A0931604B093170435
:1009B00084819581A681B78180931004909311045E
:1009C000A0931204B093130480859185A285B3850A
:1009D00080930C0490930D04A0930E04B0930F0425
:1009E00084859585A685B78580930804909309042E
:1009F000A0930A04B0930B0410920404109205040F
:100A000010920604109207040E9445138AE693E1AF
:100A100090935B0380935A0390935D0380935C03F0
:100A200090935F0380935E030E943412009731F429
:100A300021E030E030931904209318041F910F91A6
:100A4000089500917A0210917B0220917C023091EE
:100A50007D02DB010D931D932D933C93139790CF53
:100A60008FEF9FEFEBCF8F929F92AF92BF92CF927B
:100A7000DF92EF92FF921F93CF93DF934B015C01C4
:100A800010911B0482E090E0909319048093180465
:100A900081149104A104B10441F480911B048111DB
:100AA00004C080911A04C1E08111C0E0C12CD12C96
:100AB000760180911B04811106C080911A04811176
:100AC00002C0CC23D9F083E090E090931904809386
:100AD0001804CC2381F1CCE9DFEF111102C00E9490
:100AE000CE16CE01DF91CF911F91FF90EF90DF9056
:100AF000CF90BF90AF909F908F9008956AE070E084
:100B000080E090E00E94CE3580E1C80E87E2D81EDA
:100B1000E11CF11C8FEF88169806A806B80631F084
:100B2000C1E08C149D04AE04BF0408F0C0E080E076
:100B30000E946812BECFD0E0C0E0CFCFCF92DF924C
:100B4000EF92FF920F931F93CF93DF938F3F910507
:100B500011F008F051C0209118043091190423308D
:100B6000310539F0209118043091190421303105F4
:100B700031F424E030E030931904209318046A0122
:100B80007B01EC0183309105A8F011E0AE01C701B3
:100B9000B6010E943312AB01BC01CE011123F9F062
:100BA000DF91CF911F910F91FF90EF90DF90CF9049
:100BB0000C94F7188C01000F111F065A1C4FD80116
:100BC0008D919C91892B09F30E9401190297E9F6F6
:100BD000D801ED91FC91CE011995182FD7CF0E9425
:100BE000191990E080E0DF91CF911F910F91FF9054
:100BF000EF90DF90CF9008958FEF9FEFF4CF80E0DC
:100C00000C946812CF93DF9386E090E090931904E0
:100C1000809318040E94C112EC01EAE5F3E086E03B
:100C2000DF011D928A95E9F70E9466161092190459
:100C300010921804CE01DF91CF91089580911A048B
:100C4000089580910304089560937A0270937B0263
:100C500080937C0290937D0290E080E00895CF9293
:100C6000DF92EF92FF928091C503882329F08130B3
:100C700039F08091C60301C081E08093C40302C0B3
:100C80001092C403E091C40384E0E89FF0011124B2
:100C9000EE56FC4FC5A8D6A8E7A8F0ACC092C0039A
:100CA000D092C103E092C203F092C3038FEF80930E
:100CB000C4032091690A30916A0A40916B0A5091ED
:100CC0006C0A609108027091090280910A02909169
:100CD0000B020E94BD306093690A70936A0A809388
:100CE0006B0A90936C0A24E020933B0A20912F0A10
:100CF000222349F0213059F03091300A21E033238A
:100D000019F020E001C021E020932E0A02C01092C9
:100D10002E0A20912E0A222321F16093FD0970935F
:100D2000FE098093FF099093000A80912E0A809318
:100D3000300A8FEF80932E0AC701B6010E94D2318C
:100D40002AE037ED43E25CE30E9429330E94A6319A
:100D5000AB01BC0184E090E0FF90EF90DF90CF907A
:100D6000EDCE6093F9097093FA098093FB09909393
:100D7000FC09DBCFCF92DF92EF92FF928091D403F8
:100D8000882329F0813039F08091D50301C081E0BA
:100D90008093D30302C01092D303E091D30384E085
:100DA000E89FF0011124EA52FC4FC080D180E2801C
:100DB000F380C092CF03D092D003E092D103F0929F
:100DC000D2038FEF8093D3032091650A3091660A96
:100DD0004091670A5091680A60911402709115025F
:100DE00080911602909117020E94BD306093650AAF
:100DF0007093660A8093670A9093680A24E02093B0
:100E00003A0A2091320A222349F0213059F03091D8
:100E1000330A21E0332319F020E001C021E02093C0
:100E2000310A02C01092310A2091310A222321F1A5
:100E30006093050A7093060A8093070A9093080A44
:100E40008091310A8093330A8FEF8093310AC70172
:100E5000B6010E94D2312AE037ED43E25CE30E9402
:100E600029330E94A631AB01BC0185E090E0FF90E0
:100E7000EF90DF90CF9062CE6093010A7093020AE8
:100E80008093030A9093040ADBCFCF92DF92EF9214
:100E9000FF926B017C019F7720E030E040E859E54C
:100EA0000E94353187FF2BC020E030E040E05FE357
:100EB000C701B6010E94253387FD0EC020E030E057
:100EC00040E05FE3C701B6010E94BE30FF90EF90A3
:100ED000DF90CF900C940F3220E030E040E05FEBE9
:100EE000C701B6010E942533181684F420E030E0D3
:100EF000A901C701B6010E9429336B017C01C7011A
:100F0000B601FF90EF90DF90CF90089520E030E0A1
:100F100040E05FE3C701B6010E94BD30FF90EF9053
:100F2000DF90CF900C9422314F925F926F927F921C
:100F30008F929F92AF92BF92CF92DF92EF92FF92E9
:100F40000F93CF93DF9300D000D0CDB7DEB7809161
:100F5000390A8150823008F4F4C080E08093390A65
:100F60008091380A8150823008F4EDC080E080938F
:100F7000380A8091370A8150823008F4E6C080E058
:100F80008093370A8091360A8150823008F4DFC09E
:100F900080E08093360A8091350A8150823008F4CF
:100FA000D8C080E08093350A8091340A8150823025
:100FB00008F4D1C080E08093340A8091400A8150C7
:100FC000823008F4CAC080E08093400A8091DF0339
:100FD000811130C08091190A81111092190A0AE01A
:100FE00023E342E361E0CE0101963DDC69817A8131
:100FF0008B819C810E94D2312EEA34ED43EB59E380
:101000000E94293320E030E040E05FE30E94293372
:10101000209124023091250240912602509127020E
:101020000E9429336093410A7093420A8093430AD5
:101030009093440A8091E00381114AC0C0901A0A3B
:10104000D0901B0AE0901C0AF0901D0AC701B6015F
:101050000E94D4312B013C012091340230913502A1
:1010600040913602509137020E94353187FF77C098
:10107000F7FC75C080912C0290912D02A0912E0258
:10108000B0912F028093450A9093460AA093470A95
:10109000B093480A20E030E040E85FE3609130021E
:1010A0007091310280913202909133020E94BD30E2
:1010B0009B01AC01C301B2010E94253387FD53C0DF
:1010C00010921A0A10921B0A10921C0A10921D0A02
:1010D0008091DF0381112AC0C090410AD090420A5A
:1010E000E090430AF090440A20E030E040E251E40E
:1010F000C701B6010E94353187FF43C0809044028A
:1011000090904502A0904602B09047028091400224
:1011100090914102A0914202B09143028093490A0A
:1011200090934A0AA0934B0AB0934C0A80912E0ADE
:10113000882309F455C0813009F456C08091300AE3
:1011400050C083E00BCF83E012CF83E019CF83E060
:1011500020CF83E027CF83E02ECF83E035CF80E020
:1011600090E0DC018FCF2FEFC21AD20AE20AF20A16
:10117000C0921A0AD0921B0AE0921C0AF0921D0A31
:10118000A7CF20E030E048E452E4C701B6010E9456
:10119000353187FF11C080903C0290903D02A090B5
:1011A0003E02B0903F028091450A9091460AA0917C
:1011B000470AB091480AB2CF809128029091290243
:1011C000A0912A02B0912B028093490A90934A0A77
:1011D000A0934B0AB0934C0A812C912C5401A6CFBA
:1011E00081E080932F0A02C010922F0A80912F0A6B
:1011F0008823E1F08091FD099091FE09A091FF09FB
:10120000B091000A80934D0A90934E0AA0934F0A22
:10121000B093500A8FEF80932F0A8091310A882370
:1012200071F0813081F08091330A0AC08091F90910
:101230009091FA09A091FB09B091FC09E3CF81E0FC
:101240008093320A02C01092320A8091320A8823B7
:1012500009F4CBC18091050A9091060AA091070A72
:10126000B091080A8093510A9093520AA093530AAE
:10127000B093540A8FEF8093320AC0904D0AD090F9
:101280004E0AE0904F0AF090500A4090510A509058
:10129000520A6090530A7090540A80913D0A81115D
:1012A000ADC181E080933D0A81E090E0A0E0B0E034
:1012B00080932A0A90932B0AA0932C0AB0932D0AAC
:1012C000C0920D0AD0920E0AE0920F0AF092100A14
:1012D0004092110A5092120A6092130A7092140AF4
:1012E0001092550A1092560A1092570A1092580AF4
:1012F00020E030E0A9016091550A7091560A809172
:10130000570A9091580A0E943531882309F41AC26D
:101310006091490A70914A0A80914B0A90914C0A57
:10132000B4DD6B017C0120E030E040E853E40E9432
:1013300035316FEF87FF0EC020E030E0A901C70113
:10134000B6010E94253360E087FD04C0C701B601E5
:101350000E94A63187E15CD88091E00381114AC0E8
:10136000C0901E0AD0901F0AE090200AF090210A37
:10137000C701B6010E94D4312B013C0120915802D3
:101380003091590240915A0250915B020E943531CE
:1013900087FFE1C1F7FCDFC18091500290915102BB
:1013A000A0915202B09153028093590A90935A0A25
:1013B000A0935B0AB0935C0A20E030E040E85FE372
:1013C000609154027091550280915602909157029B
:1013D0000E94BD309B01AC01C301B2010E942533C4
:1013E00087FDBDC110921E0A10921F0A1092200A9A
:1013F0001092210A8091E10381114AC0C090220A13
:10140000D090230AE090240AF090250AC701B60183
:101410000E94D4312B013C01209168023091690275
:1014200040916A0250916B020E94353187FFA5C13D
:10143000F7FCA3C18091600290916102A0916202C9
:10144000B091630280935D0A90935E0AA0935F0A55
:10145000B093600A20E030E040E85FE3609164020E
:101460007091650280916602909167020E94BD3082
:101470009B01AC01C301B2010E94253387FD81C1EC
:101480001092220A1092230A1092240A1092250A1E
:10149000C090550AD090560AE090570AF090580A2A
:1014A00020E030E040E85FE3C701B6010E9435313B
:1014B00081117CC14091590A50915A0A60915B0A8E
:1014C00070915C0A8091390A882309F46CC18330D9
:1014D00009F065C181E090E08093390ACB01BA013F
:1014E000D4DC6B017C0120E030E040E853E40E9452
:1014F00035316FEF87FF0EC020E030E0A901C70152
:10150000B6010E94253360E087FD04C0C701B60123
:101510000E94A63186E10E940802C0900002D0908D
:101520000102E0900202F0900302A701960160918F
:10153000DD097091DE098091DF099091E0090E9438
:101540003531882341F0C092DD09D092DE09E09266
:10155000DF09F092E0096EE370E080E090E00E9425
:101560008E019093DC098093DB0943E050E0BE01DB
:101570006B5F7F4F0E947D0120917802309179024C
:10158000AD81BE810E941A3C0E94D23120E030E041
:1015900040E057E30E9429336B017C01C092610A4D
:1015A000D092620AE092630AF092640A80913C0A47
:1015B00081113AC181E080933C0A81E090E0A0E093
:1015C000B0E08093260A9093270AA093280AB0934C
:1015D000290AC092090AD0920A0AE0920B0AF092F4
:1015E0000C0AC12CD12C760175C18091010A909111
:1015F000020AA091030AB091040A34CE80912A0A0B
:1016000090912B0AA0912C0AB0912D0A813091055E
:10161000A105B10571F10297A105B10509F459C001
:10162000A30192016091110A7091120A8091130A2C
:101630009091140A0E943531811136CEA70196018E
:1016400060910D0A70910E0A80910F0A9091100A14
:101650000E943531882341F182E090E0A0E0B0E0C3
:1016600080932A0A90932B0AA0932C0AB0932D0AF8
:101670004CC0A701960160910D0A70910E0A8091ED
:101680000F0A9091100A0E943531882309F418CE70
:1016900083E090E0A0E0B0E080932A0A90932B0AC8
:1016A000A0932C0AB0932D0AC0920D0AD0920E0A74
:1016B000E0920F0AF092100A4092110A5092120A18
:1016C0006092130A7092140A80E090E0A0E8BFE3F1
:1016D00030C0A701960160910D0A70910E0A8091A9
:1016E0000F0A9091100A0E9435318111DDCDA301BE
:1016F00092016091110A7091120A8091130A9091DF
:10170000140A0E9435318111CFCDC0920D0AD092BA
:101710000E0AE0920F0AF092100A4092110A5092BB
:10172000120A6092130A7092140A80E090E0A0E01E
:10173000B0E48093550A9093560AA093570AB09349
:10174000580AD6CD609128027091290280912A0210
:1017500090912B02E5CD80E090E0DC0125CE4FEFAB
:10176000C41AD40AE40AF40AC0921E0AD0921F0ACC
:10177000E092200AF092210A3DCE80E090E0DC0168
:1017800061CE8FEFC81AD80AE80AF80AC092220A76
:10179000D092230AE092240AF092250A79CE082EEC
:1017A000000C990B99CE82E090E096CE20E030E0DC
:1017B00040E050E4C701B6010E94353181111AC0E2
:1017C00040911C0250911D0260911E0270911F02F7
:1017D0008091380A882359F0833029F481E090E021
:1017E0008093380A7BCE082E000C990BF9CF82E04B
:1017F00090E0F6CF40915D0A50915E0A60915F0AD9
:101800007091600A8091370A882359F0833029F457
:1018100081E090E08093370A61CE082E000C990B8E
:10182000F9CF82E090E0F6CF6091550A7091560AA8
:101830008091570A9091580A4090260A5090270AA2
:101840006090280A7090290A21E042165104610430
:101850007104D9F042E0441651046104710491F11D
:1018600020E030E040E050E40E943531811121C099
:1018700082E090E0A0E0B0E08093260A9093270AEF
:10188000A093280AB093290A25C020E030E040E860
:101890005FE30E94353181119CCE83E090E0A0E0AF
:1018A000B0E08093260A9093270AA093280AB09369
:1018B000290AC090090AD0900A0AE0900B0AF09019
:1018C0000C0A08C020E030E0A9010E9435318823CD
:1018D00009F473CE8091DF03811160C020E030E015
:1018E00040E85FE3C501B4010E94353181112BC18D
:1018F00020917402309175024091760250917702E6
:10190000C701B6010E9439316B017C018091360A12
:10191000882309F415C1833009F00EC181E090E0FD
:101920008093360A6BE070E080E090E00E9446020F
:101930009093F8098093F709C701B6010E940F320E
:101940006B017C018ED4811134C1C701B60144D42E
:1019500081112FC120E030E040E853E4C701B60117
:101960000E9429326B017C0120E030E0A9010E9435
:10197000353187FF21C1C701B60190580E94A631B9
:10198000619570E090E080E00E94D431AB01BC0131
:101990008091F7099091F8090E940F024091AC03E1
:1019A0005091AD036091AE037091AF0390E080E081
:1019B000C5D88091DF03811111C02091B40330910B
:1019C000B5034091B6035091B703AAE0B0E00E947E
:1019D000293CAB01BC0181E090E0B0D88091E003EC
:1019E000811111C02091B8033091B9034091BA031D
:1019F0005091BB03A4E1B0E00E94293CAB01BC01C3
:101A000082E090E09BD88091E103811111C0209188
:101A1000BC033091BD034091BE035091BF03A4E6C7
:101A2000B0E00E94293CAB01BC0183E090E086D885
:101A3000C090AC03D090AD03E090AE03F090AF0344
:101A40008FEFC81AD80AE80AF80AC092AC03D092FD
:101A5000AD03E092AE03F092AF03C701B6010E945E
:101A6000D2319B01AC016091B0037091B1038091C0
:101A7000B2039091B3030E9429336093A80370933B
:101A8000A9038093AA039093AB032091DF03211154
:101A900013C08091B4039091B503A091B603B091A7
:101AA000B7030196A11DB11D8093B4039093B503B4
:101AB000A093B603B093B7039091E003911114C0C3
:101AC0004091B8035091B9036091BA037091BB0380
:101AD0004F5F5F4F6F4F7F4F4093B8035093B903F1
:101AE0006093BA037093BB038091E103811114C02A
:101AF0004091BC035091BD036091BE037091BF0340
:101B00004F5F5F4F6F4F7F4F4093BC035093BD03B8
:101B10006093BE037093BF033091C403332309F471
:101B200050C0313009F451C031E04091C603442324
:101B300009F448C030E046C0082E000C990BF0CEE6
:101B400082E090E0EDCE20E030E040E050E4C501DE
:101B5000B4010E94353181111AC0C0907002D0903A
:101B60007102E0907202F09073028091350A88232E
:101B700059F0833029F481E090E08093350AD2CE89
:101B8000082E000C990BF9CF82E090E0F6CF8091FF
:101B9000340A882359F0833029F481E090E080935F
:101BA000340AC0CE082E000C990BF9CF82E090E0E9
:101BB000F6CFC12CD12C7601C701B6010E94A63107
:101BC000E0CE31E03093C50302C01092C5033091DE
:101BD000C50344E0349FF0011124EE56FC4FC5AA22
:101BE000D6AAE7AAF0AE3093C6033FEF3093C50301
:101BF0003091D303332349F0313059F031E0409133
:101C0000D503442319F030E001C031E03093D40310
:101C100002C01092D4033091D40344E0349FF00109
:101C20001124EA52FC4FC082D182E282F3823093C7
:101C3000D5033FEF3093D4032F5F2A3010F5209364
:101C4000DF039F5F943100F59093E0038F5F84364C
:101C5000F0F48093E10326960FB6F894DEBF0FBE32
:101C6000CDBFDF91CF910F91FF90EF90DF90CF909C
:101C7000BF90AF909F908F907F906F905F904F90AC
:101C800008951092DF03DDCF1092E003DFCF1092B2
:101C9000E103E1CFCF92DF92EF92FF920F931F9378
:101CA000CF9384E090E061D280E090E0A0E8BFEBC9
:101CB0008093E2039093E303A093E403B093E503DE
:101CC0008AE097EDA3E2BCE38093B0039093B10365
:101CD000A093B203B093B30384E799E5ACE0B8E511
:101CE0008093960390939703A0939803B0939903DE
:101CF0008CE394E3AAE5BCEB80939A0390939B0357
:101D0000A0939C03B0939D0381E096EBA5E2B1E420
:101D100080939E0390939F03A093A003B093A1038D
:101D200082EA95E1AAE7BAEF8093A2039093A30316
:101D3000A093A403B093A50386E893E09093950342
:101D40008093940380E693E09093870380938603C7
:101D500084EB92E09093610380936003909363031C
:101D60008093620390936503809364039093670369
:101D700080936603909369038093680327E33AE0B6
:101D800030936B0320936A0328E33AE030936D03AA
:101D900020936C0329E33AE030936F0320936E03A2
:101DA00090937103809370032BE33AE030937303B5
:101DB000209372032AE33AE030937503209374036F
:101DC000909377038093760326E33AE03093790388
:101DD0002093780325E33AE030937B0320937A0342
:101DE00024E33AE030937D0320937C0320E43AE03F
:101DF00030937F0320937E032FE33AE030938103F7
:101E0000209380032EE33AE03093830320938203F0
:101E1000909385038093840386EA93E090938B03E9
:101E200080938A0386E993E09093890380938803E3
:101E300088EA93E090938D0380938C038FEF8093D7
:101E4000C5031092C6038093D3038093D4031092EA
:101E5000D503409148025091490260914A02709125
:101E60004B024093F9095093FA096093FB09709370
:101E7000FC0980932E0A80932F0A40914C025091C6
:101E80004D0260914E0270914F024093010A5093AF
:101E9000020A6093030A7093040A8093310A8093C4
:101EA000320A4091C7035091C8036091C9037091F1
:101EB000CA034093C0035093C1036093C20370935D
:101EC000C3038093C4038091040290910502A09102
:101ED0000602B09107028093690A90936A0AA09360
:101EE0006B0AB0936C0A42E050E06FE276E083E068
:101EF0000E948D338091D403882329F0813039F0FA
:101F00008091D50301C081E08093D30302C0109279
:101F1000D303E091D30384E0E89FF0011124EA5257
:101F2000FC4F80819181A281B3818093CF039093F4
:101F3000D003A093D103B093D2038FEF8093D30348
:101F40008091100290911102A0911202B09113029F
:101F50008093650A9093660AA093670AB093680A13
:101F600042E050E06AEB76E082E00E948D33C12CC3
:101F7000D12C7601C394C092150AD092160AE09231
:101F8000170AF092180A63E382E30E942904109270
:101F9000190A1092E909C092EA09D092EB09E0927D
:101FA000EC09F092ED0961E087E10E940002C1E0D6
:101FB000C093EE091092E109C092E209D092E309C0
:101FC000E092E409F092E50961E086E10E940002F6
:101FD000C093E6091092D509809100029091010208
:101FE000A0910202B09103028093DD099093DE0973
:101FF000A093DF09B093E009C092D609D092D70927
:10200000E092D809F092D9096EE370E080E090E0A8
:102010000E94D2019093DC098093DB09C093DA0916
:102020001092F109C092F209D092F309E092F409FA
:10203000F092F509E12CF12C8701A80197016BE0E2
:1020400070E080E090E00E948A029093F80980930B
:10205000F709C093F609CF911F910F91FF90EF9070
:10206000DF90CF9008958091E909811103C081E04C
:102070008093E9098091E109811103C081E0809397
:10208000E1098091D50981111FC081E08093D509B4
:102090008091D6099091D709A091D809B091D9091A
:1020A0000197A105B10581F48091DA09882361F0D7
:1020B0006EE370E080E090E00E948E019093DC0976
:1020C0008093DB090E94F5018091F10981112EC0F6
:1020D00081E08093F1098091F2099091F309A09138
:1020E000F409B091F5090197A105B105F9F48091C2
:1020F000F6098823D9F06BE070E080E090E00E9460
:1021000046029093F8098093F70940E050E0BA0145
:102110000E940F026BE070E080E090E00E944602B7
:102120009093F8098093F7090C94DB02089560E01E
:1021300070E080E89FE7089560E070E080E89FE746
:10214000089560E070E080E89FEF089560E070E03F
:1021500080E89FEF089560E070E080EC9FEF0895C5
:1021600060E070E080EC9FEF0895F5DF6093790AFE
:1021700070937A0A80937B0A90937C0AF1DF6093D4
:102180006D0A70936E0A80936F0A9093700ACFDF86
:102190006093750A7093760A8093770A9093780A11
:1021A000CBDF6093710A7093720A8093730A9093E5
:1021B000740AC7DF60937D0A70937E0A80937F0A5A
:1021C0009093800AC3DF6093810A7093820A8093A0
:1021D000830A9093840A0895CF92DF92EF92FF9240
:1021E000CF936B017C01AC019B016091750A7091EA
:1021F000760A8091770A9091780A0E943531C1E081
:10220000882371F0A701960160917D0A70917E0A82
:1022100080917F0A9091800A0E9435318111C0E03F
:102220008C2FCF91FF90EF90DF90CF9008950F9378
:102230001F938B019C010027112720783F77011500
:10224000110520483F4749F4AB01BC016F77772760
:1022500081E0452B462B472B09F480E01F910F911D
:102260000895E5CF4F925F926F927F928F929F92E7
:10227000AF92BF92CF92DF92EF92FF920F931F9394
:10228000F8944090F3035090F4036090F50370903D
:10229000F603C090E703D090E803E090E903F090E4
:1022A000EA03452B09F0A4C09B01AC0124193509B0
:1022B0004609570929013A010091EF031091F003F3
:1022C0002091F1033091F20348015901840C951CCF
:1022D000A61CB71C80169106A206B306A0F40091B6
:1022E000EB031091EC032091ED033091EE030F5FAF
:1022F0001F4F2F4F3F4F0093EB031093EC0320939E
:10230000ED033093EE038092EF039092F003A092DE
:10231000F103B092F2030091EB031091EC032091D2
:10232000ED033091EE038092F7039092F803A092B0
:10233000F903B092FA030093FB031093FC0320937C
:10234000FD033093FE036093F3037093F4038093D3
:10235000F5039093F603A0E1B7E2A30192010E9476
:10236000293C6C0D7D1D8E1D9F1D6093E7037093AE
:10237000E8038093E9039093EA0300917A021091B5
:102380007B0220917C0230917D020F3F1F4F2F4F27
:102390003F4FF1F000917A0210917B0220917C0274
:1023A00030917D020E3F1F4F2F4F3F4F89F0C0905D
:1023B0007A02D0907B02E0907C02F0907D0221E0D6
:1023C0008C149D04AE04BF0408F420E020930304A1
:1023D00078941F910F91FF90EF90DF90CF90BF9076
:1023E000AF909F908F907F906F905F904F900895E7
:1023F0004B015C0184189508A608B708A301920157
:10240000261B370B480B590B641575058605970578
:10241000D0F082169306A406B50640F420E030E022
:10242000A90181149104A104B10491F4A0E1B7E2DF
:102430000E94293CA7019601261B370B480B590B1C
:10244000CA01B901C5CF82169306A406B50670F776
:10245000A0E1B7E2A50194010E94293C6C0D7D1D0D
:102460008E1D9F1DB5CFFECECF93DF9300D01F9260
:10247000CDB7DEB71C821B821A8219821092FF032D
:10248000109200041092010410920204BE016F5FCA
:102490007F4FCE0103960E940F2F69817A818B8135
:1024A0009C810E943028009761F4BE016F5F7F4FCE
:1024B000CE0103960E941B2F69817A818B819C81BA
:1024C0002ED50F900F900F900F90DF91CF91089520
:1024D000FF920F931F93CF93DF93082F60E070E07C
:1024E000CB010E94CE35FF24F3940E941927EC0102
:1024F000892B89F010E0CE3F8FEFD80769F00023D9
:1025000061F160E070E0CB010E94CE3581E090E0A7
:10251000892B59F322C011E025D5EC01892B21F03C
:10252000CE3F8FEFD80759F711111EC011E0229648
:1025300009F410E00E94C926EC01892B21F0CE3F5E
:102540008FEFD807E1F6111111C011E0CE3F8FEFE8
:10255000D80709F410E001110BC0CE01DF91CF9133
:102560001F910F91FF90089511E0E4CF11E0F3CF98
:1025700060E070E0CB010E94CE351F25812F90E0F6
:10258000C7CFCF93DF9380910304882321F060E0CD
:1025900070E0CB014CD635D6D0E0C0E0892B71F08D
:1025A0006AE070E080E090E00E94CE3581E090DF4C
:1025B00028D62196C03D27E0D20781F727D60E9472
:1025C000842810921B0410921A0410921404109282
:1025D0001504109216041092170410921004109211
:1025E0001104109212041092130410920C04109211
:1025F0000D0410920E0410920F0410920804109211
:10260000090410920A0410920B0410920404109210
:10261000050410920604109207044EEF5FEF6FEF6F
:102620007FEF40937A0250937B0260937C02709319
:102630007D0210920304E7EFF3E028E0DF011D9232
:102640002A95E9F71092F3031092F4031092F50320
:102650001092F6031092EF031092F0031092F10320
:102660001092F2031092EB031092EC031092ED0320
:102670001092EE031092E7031092E8031092E90320
:102680001092EA03DF91CF910895109227041092DF
:1026900028041092290410922A0410922604809192
:1026A0002F04909130049093250480932404109279
:1026B00023041092220410921E0410921F04109200
:1026C00020041092210410922C0410922B0490E00C
:1026D00080E00895CF92DF92EF92FF920F931F93C5
:1026E000CF938C01892B09F055C020912F04309194
:1026F0003004809124049091250440912F0450913E
:10270000300450932504409324042817390781F09E
:10271000109223041092220410921E0410921F049F
:10272000109220041092210410922C0410922B0479
:1027300080912F0490913004019761F580912B04D2
:1027400090912C04892B21F480917E02811112C07A
:1027500080912B0490912C040197E1F480911E0448
:1027600090911F04A0912004B09121040197A1052C
:10277000B10581F410921E0410921F0410922004DF
:102780001092210410927E0282E090E090932C043B
:1027900080932B0480912F0490913004019709F0CD
:1027A0001CC180914504909146048017910709F05F
:1027B00014C18091410490914204A0914304B091CE
:1027C0004404009709F409C12091400421110DC06F
:1027D000409141045091420460914304709144043B
:1027E000452B462B472B09F4F8C020912B04309140
:1027F0002C042230310509F0F0C02091220421116F
:10280000ECC0FC01C080D180E280F380809126047E
:10281000882309F4D3C08091320490913304892B2A
:1028200009F4FDC0209132043091330481E022305C
:10283000310509F080E02091320430913304C1E089
:102840002130310549F02091320430913304C1E048
:102850002230310509F0C0E0882309F456C02091E8
:102860003C0430913D0440913E0450913F04C70127
:10287000B6010E94253387FD14C020913C0430919D
:102880003D0440913E0450913F04609127047091B3
:1028900028048091290490912A040E94353187FDF3
:1028A00022C020913C0430913D0440913E0450915F
:1028B0003F04C701B6010E942533181634F5209154
:1028C0003C0430913D0440913E0450913F0460919E
:1028D0002704709128048091290490912A040E9471
:1028E0003531811112C08091340490913504A0914A
:1028F0003604B0913704892B8A2B8B2B19F481E095
:102900008093230481E080932204CC2309F456C0F1
:1029100020913C0430913D0440913E0450913F048D
:10292000C701B6010E94353187FF14C020913C04D5
:1029300030913D0440913E0450913F046091270442
:10294000709128048091290490912A040E942533D3
:1029500087FF22C020913C0430913D0440913E0409
:1029600050913F04C701B6010E943531811126C044
:1029700020913C0430913D0440913E0450913F042D
:1029800060912704709128048091290490912A0471
:102990000E942533181694F48091340490913504E4
:1029A000A0913604B0913704892B8A2B8B2B19F414
:1029B00081E08093230481E08093220481E0909160
:1029C0002204911180E080932604C0922704D092C3
:1029D0002804E0922904F0922A04012B09F067C12F
:1029E00080912B0490912C04892BD9F410923104FE
:1029F0001092220480917E02882379F082E090E098
:102A000090932C0480932B0410927E0220912F042B
:102A10003091300481E0232BE9F080E01BC081E09D
:102A20000ACF10927E0280913104882349F01092DF
:102A3000230410922C0410922B0410923104EDCF39
:102A400080912F0490913004892BE1F08091220431
:102A50001092220420912B0430912C042230310555
:102A600009F45EC088F42115310509F448C021300D
:102A7000310509F4F3C0109223041092220410923D
:102A8000310438C081E0E6CF2330310509F4B1C00C
:102A90002430310581F740911E0450911F0460914C
:102AA000200470912104411551056105710561F003
:102AB000415051096109710940931E0450931F044C
:102AC000609320047093210440911E0450911F04D0
:102AD0006091200470912104452B462B472BD9F49B
:102AE00020912D0430912E042130310509F046C08B
:102AF0001092230410922C0410922B040CC080918D
:102B00007E02882341F082E090E090932C04809331
:102B10002B0410927E0210921C0480912304CEC0DC
:102B20008823C9F38091340490913504A091360430
:102B3000B0913704181619061A061B060CF07DC052
:102B400080912F0490913004019709F076C0809114
:102B5000340490913504A0913604B09137048093E9
:102B60001E0490931F04A0932004B093210483E0DB
:102B700090E090932C0480932B04CDCF40913804A7
:102B80005091390460913A0470913B04452B462BD7
:102B9000472BA9F0109223048091380490913904B6
:102BA000A0913A04B0913B0480931E0490931F04BB
:102BB000A0932004B093210481E090E0DACF882331
:102BC00099F080917F0290918002A0918102B09152
:102BD000820280931E0490931F04A0932004B0935C
:102BE000210484E090E0C5CF1092230482E090E0BD
:102BF000C0CF80911E0490911F04A0912004B09139
:102C000021040097A105B10559F00197A109B10967
:102C100080931E0490931F04A0932004B09321047A
:102C200080911E0490911F04A0912004B091210472
:102C3000892B8A2B8B2B09F06ECF80917F0290918C
:102C40008002A0918102B0918202892B8A2B8B2B6A
:102C500009F44ECF81E080932304B3CF40911E044A
:102C600050911F0460912004709121044115510579
:102C70006105710561F04150510961097109409385
:102C80001E0450931F04609320047093210440910C
:102C90001E0450911F046091200470912104452B63
:102CA000462B472B09F037CF8111C7CF9FCF80919B
:102CB0001C04882309F431CF80911D04CF911F910A
:102CC0000F91FF90EF90DF90CF900895109227041E
:102CD000109228041092290410922A0410922604BB
:102CE00010922C0410922B041092250410922404AC
:102CF000109246041092450410922304109222046C
:102D000010921E0410921F041092200410922104AD
:102D100010921D0410921C0410924104109242045F
:102D200010924304109244041092400410923C0408
:102D300010923D0410923E0410923F0488EE93E0FE
:102D4000A0E0B0E080937F0290938002A093810284
:102D5000B0938202109238041092390410923A040F
:102D600010923B04109234041092350410923604F1
:102D700010923704109233041092320481E0809351
:102D80007E02109231041092300410922F0410929F
:102D90002E0410922D0490E080E0089580912F047D
:102DA00090913004892B19F580917E02882351F08F
:102DB00080913104811106C081E080931D048093CD
:102DC0001C0408952091310430917E0281E090E04E
:102DD000332311F090E080E030E082239323892BAD
:102DE00021F010921D0481E0EACF10921C04089596
:102DF00082E090E0FA01918380838FEF9FEF089546
:102E0000CF93DF93EA01009711F00E949E29198267
:102E1000188290E080E0DF91CF910895DB01009768
:102E200019F48FEF8C9308952EEF2C93FC013F96AD
:102E3000EF30F10508F034C08827EE5DF84E8F4F73
:102E40000C94123C4E174C174A1748174617421756
:102E5000441740173E173C173917351731173717E6
:102E6000501780E311968C93089589E2FBCF82E29C
:102E7000F9CF11961C92089583E2F4CF81E2F2CF4C
:102E800081E1F0CF87E2EECF8AE2ECCF80E1EACFBA
:102E900084E2E8CF88E2E6CF86E2E4CF81E3E2CFC6
:102EA00080E2E0CF80915304909154040895909370
:102EB000540480935304089580915204089590918E
:102EC0005204892B809352040895982F90958091F5
:102ED00052048923809352040895809151040895E7
:102EE00080914F049091500408956115710559F037
:102EF000FB0130E020E070E060E02417350719F0B6
:102F00006115710511F0CB010895A081B181A81759
:102F1000B90709F4BF012F5F3F4F3696EECF80917E
:102F2000550481111CC060D266D2909348048093EE
:102F300047040E94A0210E94B22190934C048093E8
:102F40004B040E9431260E94382690934A048093B5
:102F5000490481E08093550490E080E0089584EF77
:102F60009FEF08958F929F92AF92BF92CF92DF9280
:102F7000EF92FF920F931F93CF93DF9300D000D077
:102F800000D01F92CDB7DEB71A86198618861F8229
:102F90001E821D821C821B821A8219828091550416
:102FA00007EF1FEF882309F49CC08E010D5F1F4FB0
:102FB0009E012B5F3F4FAE01495F5F4FBE01675FD0
:102FC0007F4F90E080E00E94B5278C01009721F0B0
:102FD0000596029708F0DBC029853A852115310551
:102FE00009F402C1ED80FE804B815C81B701640F62
:102FF000751F8F8198858617970708F4F5C0E20E34
:10300000F31ED7019C91903C09F07FC042305105DE
:1030100008F47BC011968C91409153045091540454
:10302000452B09F49CC0913F08F071C02CE1290F99
:103030002D3008F48BC02DE2290F203108F489C00F
:10304000903C21F48150823008F483C088E3890FDA
:103050008B3008F481C09EE0C92E97E1D92EE8EFAD
:10306000F6E16D817E81AE014F5F5F4F89859A8564
:1030700019955C01C114D104A1F189809A80811451
:10308000910479F18B819C818815990508F487C09A
:1030900010E000E04B815C8170E060E0C7010E94BD
:1030A0003C3C01151105E9F449815A8169857A850D
:1030B0008D819E81680F791FC501F6011995E98000
:1030C000FA800D811E812F81388549855A856FEFE1
:1030D0007FEF81E090E00E9450278C01892B09F05E
:1030E00056C0C8012A960FB6F894DEBF0FBECDBFFA
:1030F000DF91CF911F910F91FF90EF90DF90CF90D4
:10310000BF90AF909F908F90089580E085CF30E082
:1031100020E0220F331FF901E95BFB4F0190F081A2
:10312000E02D309709F497CF892F90E019950097FB
:1031300009F491CFDC011296ED91FC91139714964E
:10314000CD90DC90309709F08CCF1FC021E030E0AB
:10315000E0CF22E030E0DDCF23E030E0DACFD12C49
:10316000C12CE0E0F7E19F3F09F07BCFE0914704FD
:10317000F0914804309721F4C90104EF1FEF0CC00F
:103180008FEF90E019950097A9F604EF1FEF89855E
:103190009A85009709F4A5CF0E949E29A2CF0E948C
:1031A0007F288C0189859A850E949E2970E060E0C5
:1031B000C4010E94182898878F830E944D279E8300
:1031C0008D836F8178856115710559F0C8010E9462
:1031D000FD2A9A87898706EF1FEF892B09F058CFC0
:1031E00059CF08EF1FEF56CF08EF1FEFD0CF209138
:1031F0005504222319F020E00C94B72187EF9FEFAC
:103200000895809153049091540408950E943D269E
:103210000E949725F5D0E7E4F4E088E0DF011D92F5
:103220008A95E9F71092550490E080E008950C9497
:10323000F42321E040E050E0BA010C94B72186E08D
:1032400090E0FA019183808390E080E0089547E068
:1032500050E067EB72E049CEDF92EF92FF920F935E
:103260001F93CF93DF938A01EC01C60FD71FE09025
:103270005904F0905A04D9800E946728D81619067C
:1032800078F082E090E0F801918380838EEF9FEFE9
:10329000DF91CF911F910F91FF90EF90DF900895F4
:1032A000EF2841F482E090E0F8019183808384EF7D
:1032B0009FEFEECF89818093580490E00196F8014A
:1032C0009183808390E080E0E3CFCF93DF93EA01A6
:1032D0000E94A524882321F00E9474280E94A6241D
:1032E00082E090E0998388838BEF9FEFDF91CF910D
:1032F0000895CF93DF93EB0186E0FB0111928A954D
:10330000E9F78FEF8883D8DD8983E7DD8A83E8DDFD
:103310009D838C83DF91CF910895CF93DF93EA0152
:103320000E94A824811109C082E090E099838883DB
:1033300085EF9FEFDF91CF91089590E080E0B7DDBA
:1033400081E090E09983888390E080E0F3CF0F9351
:103350001F93CF93DF93EA018C01060F171F0E9482
:10336000A82481110BC082E090E09983888385EFC7
:103370009FEFDF91CF911F910F910895F801818107
:10338000823038F082E090E0998388838EEF9FEF5F
:10339000F0CF81E090E08BDD88E090E09983888336
:1033A00090E080E0E6CFCF93DF930097D1F4EB017C
:1033B000FB01329686E0DF011D928A95E9F78FEFD7
:1033C000888385E089831A820E9467288B830E9404
:1033D00066289D838C8381E08E838F83DF91CF91DC
:1033E0000895DF91CF911ACD87E299E19093570428
:1033F000809356040895809156049091570408953F
:103400001092570410925604089580915904909197
:103410005A040895411105C0611571058105910592
:1034200061F06093590470935A0480935B04909305
:103430005C0440935D0481E0089580E00895FF926C
:103440000F931F93CF93DF938A01EC01C60FD71F11
:10345000F9800E946728F816190668F082E090E06B
:10346000F801918380838EEF9FEFDF91CF911F91C1
:103470000F91FF9008956C817D818E819F814B819A
:10348000C9DF811108C082E090E0F8019183808358
:1034900084EF9FEFEACF89818093580490E00196F2
:1034A000F8019183808390E080E0DFCFCF93DF93BA
:1034B000EA01FC01E60FF71F64817581868197811F
:1034C0004381A8DF811109C082E090E0998388835D
:1034D00084EF9FEFDF91CF91089581E090E0998391
:1034E000888390E080E0F6CFE9E5F4E04081518107
:1034F00062817381480F511D611D711D408351838D
:10350000628373830895CF93C09158044C2F50E089
:103510006091590470915A0401960E94333C8C2F9B
:10352000E3DF10925804CF910895009799F48091A9
:10353000590490915A042FEFFB012083892B59F0F5
:103540002091580430E02F5F3F4F2417350719F4BE
:10355000CB01D9CF63CC0895009799F48091590499
:1035600090915A042FEFFB012083892B59F0209171
:10357000580430E02F5F3F4F2417350719F4CB0173
:10358000C2CF4CCC089523E1AC01249FC001259FFC
:10359000900D1124E0916204F0916304E80FF91F8B
:1035A000238134812250310981E02230310508F035
:1035B00080E008950F931F93CF93DF9300916404ED
:1035C00010916504D0E0C0E080E00C171D0749F4BD
:1035D00091E0811190E0892FDF91CF911F910F91A0
:1035E00008958111F5CFCE01CEDF2196EECFA091C7
:1035F0006204B0916304109729F120916404309122
:10360000650482179307F0F453E1589F9001599F86
:10361000300D1124A20FB31FED91FC91119730973B
:1036200089F012968C91681768F48DE0689FE00D20
:10363000F11D112480819181892B21F081E09281FB
:10364000491708F080E008959C0143E1429FC001C2
:10365000439F900D1124E0916204F0916304E80F00
:10366000F91F8385823099F481E090E0658176814D
:1036700040918302509184026417750711F490E021
:1036800080E0892B21F081E02230310508F080E0D4
:103690000895FC01A081B1818DE0689FA00DB11D4E
:1036A000112413964D915C9185859685489F9001D4
:1036B000499F300D589F300D1124C90101966111A9
:1036C00003C0478144FD04960895EF92FF920F9343
:1036D0001F93CF93DF93EA01FC01E60FF71F0281EE
:1036E0001381E480F5804F2D6E2DC80180DF81119C
:1036F0000DC082E090E0998388838EEF9FEFDF9189
:10370000CF911F910F91FF90EF900895C8013BDF7B
:10371000882339F082E090E09983888388EF9FEFD7
:10372000EECF10938A0200938902E0928B02F0920E
:103730008C0281E090E09983888390E080E0DFCF85
:10374000CF92DF92EF92FF920F931F93CF93DF936D
:103750007A01EC01C60FD71FC0908902D0908A026F
:1037600000918B0210918C02412F602FC6013FDF28
:10377000811110C082E090E0F701918380838AEF8D
:103780009FEFDF91CF911F910F91FF90EF90DF900E
:10379000CF900895C601F7DE882341F082E090E0E3
:1037A000F7019183808388EF9FEFEBCF4C815D81A0
:1037B0006E817F819A8189818F3F41F082E090E024
:1037C000F701918380838EEF9FEFDBCFE3E1EC9DE8
:1037D0009001ED9D300D1124E0916204F09163049D
:1037E000E20FF31F0190F081E02D2DE0029FE00D2C
:1037F000F11D11240190F081E02D27E0129FE00DD2
:10380000F11D1124808391838B81828343835483B0
:10381000658376831F5F10938C0281E090E0F7014F
:103820009183808390E080E0ACCFEF92FF920F9382
:103830001F93CF93DF937A018C01060F171FC0915E
:103840006204D0916304209781F021E030E0F80118
:103850008281938140916404509165048417950797
:1038600010F030E020E0232B71F482E090E0F701CB
:10387000918380838EEF9FEFDF91CF911F910F9106
:10388000FF90EF90089543E1489F9001499F300DCC
:103890001124C20FD31F77DE882341F082E090E02D
:1038A000F7019183808388EF9FEFE6CFF8012481B1
:1038B000358120383105C8F687818111D6CF418105
:1038C000842F90E08F7E009741F082E090E0F70136
:1038D0009183808386EF9FEFCFCF4F833E832D83ED
:1038E000268128871986223010F421E0288721E0DC
:1038F00030E0F70131832083BFCF88E090E0FA0108
:103900009183808390E080E00895FB018FEF8083B6
:1039100081E181838FEF9FEF9383828380E890E042
:1039200095838483168217820895FB018FEF80832D
:1039300091E0918382839383848384E3858381E010
:1039400090E0978386830895BF92CF92DF92EF92A3
:10395000FF920F931F93CF93DF93DA01FC01E60FE1
:10396000F71F8181813081F082E090E08D939C93FC
:103970008FEF9FEFDF91CF911F910F91FF90EF900D
:10398000DF90CF90BF900895C281D381B4808581AC
:1039900006811781E0906204F0906304E114F10461
:1039A00039F482E090E08D939C938CEF9FEFE2CF0F
:1039B0002091640430916504C217D30738F082E087
:1039C00090E08D939C938EEF9FEFD4CFC230D105C2
:1039D00038F082E090E08D939C9386EF9FEFCACF02
:1039E0009B2D9D7FB1F78130A1F7B11005C001304B
:1039F000110531F080E004C081E002301105D0F300
:103A0000882339F36D01CE01BEDD882341F082E0C9
:103A100090E0F6019183808388EF9FEFABCF83E145
:103A20008C9FF0018D9FF00D1124EE0DFF1DB386CC
:103A300081E0848716870587108A178681E090E0E9
:103A4000F6019183808390E080E094CF4CE050E0D9
:103A500061EE72E04ACA8F929F92BF92CF92DF923C
:103A6000EF92FF920F931F93CF93DF93EA01FC0134
:103A7000E60FF71F828193810481B580E091620493
:103A8000F0916304309791F482E090E09983888309
:103A90008CEF9FEFDF91CF911F910F91FF90EF90EF
:103AA000DF90CF90BF909F908F90089520916404F5
:103AB000309165048217930738F082E090E0998393
:103AC00088838EEF9FEFE6CF23E1289F6001299F37
:103AD000D00C1124EC0DFD1DE080F180E114F10407
:103AE00099F28281081748F78DE0089F8001112420
:103AF000E00EF11EF70180819181892B29F6BB2010
:103B0000E1F2F7E0BF9E40011124C4010E94652943
:103B1000F70191838083E0916204F0916304EC0DDE
:103B2000FD1D0190F081E02DE00FF11F808191815A
:103B3000009739F482E090E0998388838DEF9FEFBE
:103B4000A9CFA40170E060E00E943C3C8091620437
:103B500090916304C80ED91EF60180819181080FEF
:103B6000191FF801B28281E090E09983888390E088
:103B700080E090CFAF92BF92CF92DF92FF920F93EF
:103B80001F93CF93DF93EA01FC01E60FF71F8281B9
:103B90009381F48000916204109163040115110572
:103BA00081F482E090E0998388838CEF9FEFDF912E
:103BB000CF911F910F91FF90DF90CF90BF90AF906A
:103BC000089520916404309165048217930738F0BA
:103BD00082E090E0998388838EEF9FEFE8CF2FEF0C
:103BE0002F0D2C3FA8F723E1289F6001299FD00CBF
:103BF00011240C0D1D1DF80180819181892B89F6FE
:103C0000FDE0FF9E50011124C5010E946529F801C5
:103C100091838083E0916204F0916304EC0DFD1DBB
:103C200080819181009739F482E090E099838883C4
:103C30008DEF9FEFBCCFA50170E060E00E943C3C9F
:103C4000E0916204F0916304EC0DFD1DF28281E0CD
:103C500090E09983888390E080E0A9CFCF92DF92B3
:103C6000EF92FF920F931F93CF93DF93860F971FCF
:103C7000FC01028113818091620490916304892B7D
:103C800081F082E090E0FA01918380838CEF9FEFD6
:103C9000DF91CF911F910F91FF90EF90DF90CF9028
:103CA0000895C801B0E0A0E00197A109B1098F3FD4
:103CB0009F4FA105B10540F082E090E0FA019183A9
:103CC00080838EEF9FEFE4CF7A0183E1809F6001D4
:103CD000819FD00C1124C6010E946529EC01009738
:103CE00041F482E090E0F701918380838DEF9FEFB4
:103CF000CFCFA60170E060E00E943C3CD09363040B
:103D0000C0936204109365040093640490E080E023
:103D10002FEF3FEF41E061E070E08017910741F441
:103D200081E090E0F7019183808390E080E0B0CF64
:103D30003A8B298B1B864C877E876D87188A1F8656
:103D400001966396EACFEF92FF921F93CF93DF9392
:103D5000EC0110E0F12CE12C6A811617B0F083E041
:103D6000689FB0011124AE014F5E5F4FC7010E94F2
:103D7000CA29009721F02FEF3FEF3A8B298BDF9173
:103D8000CF911F91FF90EF900895612FCE0181DCBC
:103D900061E070E00E941828E816F90608F47C013A
:103DA0001F5FDACFF894209160043091610481E0C4
:103DB0002115310509F080E0232B09F0789408954E
:103DC0002F923F924F925F926F927F928F929F922B
:103DD000AF92BF92CF92DF92EF92FF920F931F9319
:103DE000CF93DF933C01660E771EF30182819381AE
:103DF0004C01B12CA12CC0916204D0916304209796
:103E000069F021E030E060916404709165048617E8
:103E1000970710F030E020E0232BD1F482E090E00F
:103E2000FA01918380838EEF9FEFDF91CF911F91F5
:103E30000F91FF90EF90DF90CF90BF90AF909F9049
:103E40008F907F906F905F904F903F902F9008954C
:103E500080928D0290928E02A0928F02B092900278
:103E600063E1689F9001699F300D1124C20FD31F39
:103E7000F3018181833040F082E090E0FA01918388
:103E8000808386EF9FEFD1CF2A012B813C81232BAA
:103E9000F1F4288139819F8191FF2EC0232B09F4F1
:103EA0006FC0209167049A81422F490F5527551FF3
:103EB000BA0141E050E06138710514F050E040E093
:103EC000452B09F45DC02A87920F909367048150B7
:103ED000823008F481C066DF882309F4DAC0F30178
:103EE0008181813009F48DC008F47BC0823009F4EF
:103EF000C8C090E080E0ADC0232B09F441C0209100
:103F000066049A81E22FE90FFF27FF1F41E050E08E
:103F1000ED3FF10514F050E040E0452B89F12A8790
:103F2000920F90936604D3CFA081B181A20FB31FEB
:103F300011966C91060F111D0196295F3F4F841752
:103F4000950794F38D859E85089F1001099F300C7D
:103F5000189F300C1124C114D104D1F48F8184FF37
:103F600017C00E946628F5E02F0E311C21E0821553
:103F7000930508F420E0A701435F5F4F21110EC0B5
:103F800082E090E0F2019183808387EF9FEF4DCF35
:103F90000E9466282FEF221A320AE8CF8881998181
:103FA000E80EF91EF70114830383FFEFCF1ADF0A2F
:103FB0007A018A818C151D0409F00CF48CCFE881FC
:103FC000F981EE0DFF1D428150E030E020E010E06D
:103FD00000E090E080E0B3CFF12CE12CD12CC12C9B
:103FE000E8CF81E090E09C838B83E4DA882309F4B6
:103FF00080CF81E090E00E94571780E40E9465170F
:1040000078CF89899A89019661F083E090E09C835A
:104010008B8382E090E00E94571780E40E945F1734
:1040200068CF8D819E812091830230918402821716
:104030009307D1F46091870270918802AE014F5EC0
:104040005F4F80918502909186020E94BC2A009762
:10405000E1F2789422E030E0F20131832083892B71
:10406000A9F08DEF9FEFE1CE22E082169104A1042A
:10407000B1045CF6069748F6CE0165DE188A1F8605
:10408000E6CF82E090E09C838B8333CF90E080E0AA
:10409000CCCE82E090E0F2019183808385EF9FEFA8
:1040A000C4CE8F929F92AF92BF92CF92DF92EF9247
:1040B000FF920F931F93CF93DF93EA018C01060FBA
:1040C000171FF8018181833098F082E090E0998396
:1040D000888386EF9FEFDF91CF911F910F91FF9023
:1040E000EF90DF90CF90BF90AF909F908F9008950A
:1040F0008091620490916304892B61F081E090E0EB
:104100002091640430916504232B11F490E080E049
:10411000892B39F482E090E0998388838EEF9FEFBA
:10412000DACF40DE882309F4E1C0F80181818130D3
:1041300009F497C0E8F0823099F42091640430913A
:104140006504E0916204F091630490E080E041E056
:1041500050E02817390709F0BFC02CDA811117C0C9
:10416000789481E090E09983888390E080E0B3CFF9
:104170002091640430916504E0916204F09163043D
:1041800090E080E041E050E02817390741F481E0F9
:1041900090E00E94571780E40E946517E1CF638189
:1041A0007481672B11F05483438301967396ECCF8F
:1041B000E0916204F0916304E00FF11F23813481E8
:1041C00022303105D9F4218932892F3F3F4FB1F494
:1041D000258136814091830250918402241735074E
:1041E00061F5AF014F5E5F4F609187027091880269
:1041F00080918502909186020E94BC2AEFEFCE1A30
:10420000DE0AEE0AFE0A0D5E1F4F409164045091D3
:10421000650470E060E0C416D506E606F7064CF5C6
:10422000009731F27894892B09F49BCF82E090E0DB
:10423000998388838DEF9FEF4ECF42E0C416D1045F
:10424000E104F104DCF626303105C0F6CF017BDD58
:10425000E0916204F0916304E00FF11F108A178669
:10426000CDCF10E000E090E080E0C12CD12C7601B1
:10427000CCCF0097B9F610E000E0812C912C5401CE
:1042800083E0E82EF12C1AC0E0916204F0916304FF
:10429000E00FF11F83819481029749F4F482E38255
:1042A00082E090E00E94571780E40E945F17FFEFC2
:1042B0008F1A9F0AAF0ABF0A0D5E1F4F80916404D8
:1042C00090916504B0E0A0E088169906AA06BB06A6
:1042D000DCF290E080E0A6CF6381748162307105EA
:1042E00011F4548343830196739633CF82E090E0B8
:1042F0009983888385EF9FEFEECE0097B9F48FEF17
:10430000FB01808320918D0230918E0243E1429F18
:10431000C001439F900D1124E0916204F091630469
:10432000E80FF91F8285FB01818308950C940E1715
:1043300088E090E0FA019183808390E080E0089526
:104340001092610410926004E2E6F4E086E0DF017E
:104350001D928A95E9F786E29DE190935F04809330
:104360005E04089580915E0490915F0408952F92F9
:104370003F924F925F926F927F928F929F92AF92F5
:10438000BF92CF92DF92EF92FF920F931F93CF9342
:10439000DF93CDB7DEB72F970FB6F894DEBF0FBE11
:1043A000CDBFF894E0916004F09161043196F093F0
:1043B0006104E09360047894409062045090630438
:1043C0004114510409F40DC2E0916404F0916504B4
:1043D000EF2B09F406C22D8749875A876B877C87A4
:1043E00098878F831201B12CA12C10E000E08091FE
:1043F000640490916504A816B90618F40115110516
:1044000029F1F89480916004909161040197909350
:104410006104809360047894C8012F960FB6F894D5
:10442000DEBF0FBECDBFDF91CF911F910F91FF90E7
:10443000EF90DF90CF90BF90AF909F908F907F9044
:104440006F905F904F903F902F9008957101E41806
:10445000F508D10117968C91179781FD54C01396DA
:104460008D919C911497039709F04DC015968D91ED
:104470009C91EF81F8858E179F0709F044C0B50124
:1044800090E080E081D48A832091620430916304BB
:104490003D832C833D85332309F44CC04C815D81E1
:1044A000452B09F49BC18091640490916504A81682
:1044B000B90608F093C1C501C7D88823E9F06C811B
:1044C0007D816E0D7F1D7D836C83DB011F968D9139
:1044D0009C91892B89F0D12CC12CF12CE12CAC8141
:1044E000BD8112968C9112978E151F0409F094F4D9
:1044F00050961C921E921F972A81222321F0B5010B
:1045000090E080E043D43FEFA31AB30A43E1240EC6
:10451000311C6DCFAC81BD81ED91FC91EC0DFD1D89
:10452000858196810BD7BFEFEB1AFB0AEDE0CE0E2B
:10453000D11CD5CFEC81FD81309709F44FC180911A
:10454000640490916504A816B90608F047C1EE0D01
:10455000FF1DFF87EE87C50177D88B83882339F14C
:10456000AE85BF851F968D919C915097019621E055
:104570001D964D915C918417950709F020E02E83DC
:104580001982712C10E000E0AE85BF8512968C91E7
:10459000781608F45DC0EE85FF85878590890196C1
:1045A000658576850E94DC3B908B8787A5CFB1E03F
:1045B000BE83E6CF992493946BC087D6F601968389
:1045C000858383C0D601ED90FC90B7E06B9EE00C34
:1045D000F11C1124F7016381748180818F3F61F1A7
:1045E00021E030E002C0220F331F8A95E2F7C901B3
:1045F000092E000CAA0BBB0BFB014081518162818B
:10460000738184239523A623B72321E0892B8A2B4A
:104610008B2B09F420E0D4012C93D70111968C91B7
:10462000F60123853485820F932F911D880E991EE4
:104630001486138663949CC0418150E0C4010E949B
:10464000333CEBCF998206EF1FEFC6C01982C4C07E
:10465000F981F111A0CFEDE07E9E70011124AE85AD
:10466000BF85CD90DC90CE0CDF1C17D49D838C834E
:10467000BB81BB2309F49ECF81E0EE85FF852785B2
:104680003089232B09F080E0982E882309F459C043
:10469000672D8E859F850E94491BD60118969C9395
:1046A0008E93179761E070E0C3D4EE85FF85218972
:1046B00032892F3F320709F480CFBC01C9019DD751
:1046C000D60116969C938E931597D60115968D91CB
:1046D0009C911697009709F4B5CFEC81FD818E0F60
:1046E0009F1F1A969C938E931997AE85BF85ED9167
:1046F000FC911197EE0EFF1EF7012185328514867D
:1047000013861A968C91870DD9018D93711016C05E
:10471000EE85FF85878184FF11C049855A856B85A9
:104720007C85F9014183528363837483F701838518
:1047300094850496A80FB91F14861386F701B287D3
:10474000A187D60115968D919C911697892B09F416
:1047500043C0EE85FF85258136818091830290914B
:1047600084022817390779F019968D909C90612C56
:10477000D60112968C911297681608F423CF1A96D8
:104780009C928E921997BE81BB2309F45FCF61E0A2
:1047900070E0F601878190854BD4D6011796ED9095
:1047A000FC90189715964D915C91E1E0F0E0BA818C
:1047B000BB2311F0F0E0E0E00C811D819C01B5010C
:1047C000882799278E1B9F0B6BD38C01892B21F097
:1047D000F60185819681B2D57394D6CE0FEF1FEF87
:1047E0008BCE10E000E00DCE2F923F924F925F9261
:1047F0006F927F928F929F92AF92BF92CF92DF92F1
:10480000EF92FF920F931F93CF93DF9380916204F7
:104810009091630410E000E0892BA9F0C3DA0AEF5D
:104820001FEF882381F02090640430906504C091CC
:104830006204D0916304D12CC12C10E000E02C1450
:104840003D04A9F47894C801DF91CF911F910F9195
:10485000FF90EF90DF90CF90BF90AF909F908F90A0
:104860007F906F905F904F903F902F900895C6017A
:104870000E94241B882309F18B819C810397E9F412
:104880008F859889892BC9F0B60190E080E07CD2B1
:1048900021E030E0882311F030E020E0442455246A
:1048A000421A530AB12CA12C912C812C8A81881593
:1048B000190409F038F4188A1F864FEFC41AD40A75
:1048C0006396BDCFE881F981EA0DFB1D8581968154
:1048D000892BA1F161E070E087819085A9D33C012B
:1048E000DCD28C01E881F981EA0DFB1D818592857E
:1048F00025813681200F311FAC01421B530B9A01D9
:1049000047815085421B530B70E060E00E943C3CA5
:10491000E881F981EA0DFB1DE780F084458156812D
:104920009301B601C201BCD28C01892B39F0E88118
:10493000F981EA0DFB1D8581968100D55FEF851A0F
:10494000950A8DE0A80EB11CB1CF2CCA78940895B9
:104950002F923F924F925F926F927F929F92AF926F
:10496000BF92CF92DF92EF92FF920F931F93CF935C
:10497000DF9300D000D0CDB7DEB700916204109174
:104980006304992493940115110509F43EC0A09085
:104990006404B090650406DA982E8823B1F1109271
:1049A00063041092620410926504109264041092E1
:1049B0006604109267048FEF9FEFDC0180938D02F5
:1049C00090938E02A0938F02B0939002789480D33C
:1049D0001E830D83C12CD12C7601C501B0E0A0E06F
:1049E00089839A83AB83BC8322242A94322C8981C5
:1049F0009A81AB81BC81C816D906EA06FB06F4F0A1
:104A0000C8019CD480E40E946517892D26960FB6B4
:104A1000F894DEBF0FBECDBFDF91CF911F910F91F4
:104A2000FF90EF90DF90CF90BF90AF909F907F90DE
:104A30006F905F904F903F902F900895AD81BE8111
:104A400015968D919C911697209183023091840246
:104A500082179307D1F451968D919C91BCD5ED812D
:104A6000FE8180819181B12CA12C412C512C3201ED
:104A7000892B91F5BFEFCB1ADB0AEB0AFB0AED811C
:104A8000FE817396FE83ED83B2CFB2E0CB16D104E4
:104A9000E104F10424F7069710F7ED81FE81818986
:104AA00092898F3F980709F011D5AD81BE8152964A
:104AB0003C922E925197D3CF8A0D9B1DDC018D9194
:104AC0009C91009709F03AD4BFEF4B1A5B0A6B0A2E
:104AD0007B0AEDE0AE0EB11CAD81BE818D919C9143
:104AE000119712964C9150E070E060E04416550624
:104AF000660677060CF322D4BDCFCF93DF93EA018D
:104B000027DF811109C082E090E09983888385EFD7
:104B10009FEFDF91CF91089581E090E00E945717B9
:104B200081E090E09983888390E080E0F2CF10DF0D
:104B300010925F0410925E04089542E050E069E232
:104B400073E00C947517FF920F931F93CF93DF932D
:104B50008A01EC01C60FD71FF980B9D20897F81661
:104B6000190671F068F082E090E0F801918380838B
:104B70008EEF9FEFDF91CF911F910F91FF900895DE
:104B80006C817D818E819F814B810E940A1A8111E7
:104B900008C082E090E0F8019183808384EF9FEF6A
:104BA000E9CFF9800E94051A4F2D50E0BE01685FE1
:104BB0007F4F0E94333C89810E94741A81E090E00B
:104BC000F8019183808390E080E0D4CFDF92EF9270
:104BD000FF920F931F93CF93DF938A01EC01C60FCF
:104BE000D71F0E94051A7C01D98071D2DD2059F0AF
:104BF000029721E030E0D816190619F010F030E0E5
:104C000020E0232B79F482E090E0F8019183808307
:104C10008EEF9FEFDF91CF911F910F91FF90EF905B
:104C2000DF900895EF2841F482E090E0F80191834D
:104C3000808384EF9FEFEECFF9800E94051A4F2DFD
:104C400050E0BE016E5F7F4F0E94333C89810E941D
:104C5000741A81E090E0F8019183808390E080E015
:104C6000D9CF8DE995E29093690480936804089503
:104C7000809168049091690408950895FC0111825F
:104C80001082938382830895DB011D921C92DC01C4
:104C90001296ED91FC9113977183608313967C9328
:104CA0006E9312970895FC0180819181DB018D93B1
:104CB0009C93A081B181109741F08D919C9191833B
:104CC0008083892B11F4F383E2830895FC018081B2
:104CD0009181DB018D939C93892B11F47383628303
:104CE000718360830895FC01118210829383828313
:104CF0000895CF93DF931F921F92CDB7DEB71A822C
:104D00001982F894BE016F5F7F4F8FE694E0CBDF8E
:104D100089819A81009709F011D389819A81892B21
:104D200089F7BE016F5F7F4F83E794E0BCDF898125
:104D30009A81009709F002D389819A81892B89F79A
:104D400078940F900F90DF91CF910895CF93DF93D8
:104D50001F921F92CDB7DEB71A821982F894BE0156
:104D60006F5F7F4F8BE694E09EDF89819A81009789
:104D700009F0E4D289819A81892B89F778940F9080
:104D80000F90DF91CF91089581E0089590E080E049
:104D90000895EF92FF920F931F93CF93DF931F928B
:104DA0001F92CDB7DEB71A82198280916A0407EF8D
:104DB0001FEF8823A1F1F894BE016F5F7F4F83E757
:104DC00094E071DF789489819A81EE24E394F12C48
:104DD000892B51F4F894BE016F5F7F4F8FE694E00A
:104DE00062DF7894F12CE12C89819A810EEF1FEF1C
:104DF0000097A9F0FC014281538164E070E043D642
:104E00008C01892B61F0F89469817A81C701880F40
:104E1000991F880F991F81599B4F58DF7894C801BB
:104E20000F900F90DF91CF911F910F91FF90EF9016
:104E300008950F931F93CF93DF9300D01F92CDB7A8
:104E4000DEB71C821B821A82198280916A0407EFE6
:104E50001FEF8823C1F0AE014D5F5F4F64E070E04B
:104E6000CE01019683D68C01892B69F4E981FA8100
:104E70008B819C8193838283F89469817A818BE60C
:104E800094E002DF7894C8010F900F900F900F907C
:104E9000DF91CF911F910F91089588D704960895BF
:104EA0008F929F92AF92BF92CF92DF92EF92FF923A
:104EB0000F931F93CF93DF931F921F92CDB7DEB74F
:104EC0001A821982BC016F5F7F4F6330710598F0C1
:104ED000AA24AA94BA2CC5010F900F90DF91CF910C
:104EE0001F910F91FF90EF90DF90CF90BF90AF9008
:104EF0009F908F9008954115510551F34801590134
:104F00008A016C01CADF8815990511F7E114F104D3
:104F1000F9F28E0D9F1DA816B906D0F280916A0491
:104F20008823F1F0F894B501645071099701AE013E
:104F30004F5F5F4FC8010496AED65C01892B71F4B8
:104F400089819A81F80193838283C601880F991F12
:104F5000880F991FB80181599B4F96DE7894BBCF7B
:104F600087EFA82EBB24BA94B6CFAF92BF92CF9250
:104F7000DF92EF92FF920F931F93CF93DF931F92D5
:104F80001F92CDB7DEB71A821982892B09F047C06C
:104F90006115710509F443C04115510509F43FC07D
:104FA0002115310509F43BC001151105C1F18091AE
:104FB0006A048823B9F179016A015B01F894BE01A2
:104FC0006F5F7F4F8BE694E06EDE789489819A81E3
:104FD000009759F1DC0112966D917C91A80104961D
:104FE00073D68C01E981FA81D501ED93FC9382811E
:104FF00093810496F601918380834FDFD7018D93CF
:105000009C93C8010F900F90DF91CF911F910F914A
:10501000FF90EF90DF90CF90BF90AF9008950FEF8B
:105020001FEFEFCF07EF1FEFECCF0EEF1FEFE9CF32
:10503000CF93DF93EC01672B71F4C1D68C179D07DA
:1050400060F0B4D62496C80FD91FB3D68C0F9D1F1D
:10505000DF91CF910895B0D6F1CF90E080E0F8CF06
:105060000F931F93CF93DF9320916A0421112BC0DC
:105070008B01EC018FE694E001DE83E794E0FEDD36
:105080008BE694E0FBDD97D00097C1F498D670E0F2
:1050900060E0CEDF41E952E062E070E07BD1009752
:1050A00069F480919102909192029BD6B801CE0151
:1050B000D0D4009719F421E020936A04DF91CF91B6
:1050C0001F910F91089584EF9FEFF8CF75C677C6B3
:1050D000CF93DF9377D6EC01892B11F40ADE36DE0D
:1050E000CE01DF91CF910895CF93DF936BD6EC0182
:1050F000892B09F4FEDDCE01DF91CF9108958091D7
:105100009102909192020895CF93DF9380916A0467
:10511000D0E0C0E08823D1F069D6EC01892BB1F44E
:10512000E8DD14DE8091910290919202CFD1B5D248
:10513000EC01892B59F48FE694E0D5DD83E794E008
:10514000D2DD8BE694E0CFDD10926A04CE01DF91D0
:10515000CF910895EF92FF920F931F93CF93DF9318
:10516000EC017A018B010F5F1F4F0E9DA0010F9D77
:10517000500D1E9D500D112470E060E00E943C3CDB
:1051800090E080E0F0E0E0E02FEFE816F90639F477
:10519000DF91CF911F910F91FF90EF9008951A82A8
:1051A00019822883309711F0D283C1830196FE01C2
:1051B000C00FD11FEACFAF92BF92CF92DF92EF9292
:1051C000FF920F931F93CF93DF938FE096E07C01C4
:1051D0002CEFE22243E050E063E972E089E992E0DB
:1051E000E5D383E9C82E82E0D82E99E9A92E92E072
:1051F000B92EC8E0D7E08E01D6014D915D916D01C9
:10520000F501619171915F01D8011196FC92EE92C6
:1052100015965C934E93149713965C934E93129746
:1052200017967C936E9316979B012F5F3F4F249F99
:10523000C001259F900D349F900D112419969C93C9
:105240008E931897E114F10411F0C70183DFF80180
:1052500080859185E80EF91E065F1F4FF9E9CF168C
:10526000F2E0DF0649F6E9E7F4E083E991E0DF01E7
:105270009C011D9221503040E1F710927804109269
:1052800077041F8E1E8E1BA21AA219A218A21DA29D
:105290001CA21FA21EA22A9637E0C632D30789F7A6
:1052A0001092050710920407109207071092060744
:1052B00090E080E0DF91CF911F910F91FF90EF90F0
:1052C000DF90CF90BF90AF9008950097F1F0F894E1
:1052D000A9E9B2E0E8E0F7E030E020E04D915D912F
:1052E00048175907A8F0428153814115510581F0B3
:1052F0008AE0829FF001839FF00D1124E85FF84F50
:1053000080819181009759F4789490E080E008952D
:105310002F5F3F4F3A962330310501F7F5CFDC017F
:1053200011966D917C917183608341505109538333
:105330004283FC012193CF0178940895009749F1AD
:10534000DC018E91863041F4E0910607F091070769
:105350003097F9F0CD0119948630D8F4282F30E039
:10536000F8948FEF8C938AE0829FF001839FF00D79
:105370001124E85FF84F8081918112969C938E935F
:105380001197B183A0838281938101969383828355
:1053900078940895CF92DF92EF92FF920F931F932C
:1053A000CF93DF939C018CE794E08C7F41155105EE
:1053B00009F489C02115310509F485C0611571050D
:1053C00009F481C08A01AB01B9016D5F7F4F6C7F29
:1053D0009B012F5F3F4F249F7001259FF00C349F4E
:1053E000F00C1124F894E8E0F7E023E030E0E90164
:1053F000A6A1B7A1C68CD78CCD2809F058C01097AC
:1054000009F03EC0C0907704D090780420E931E0E4
:105410002C193D092E153F0530F47894CFEFDFEFBE
:1054200086EF9FEF21C02AE02C9FF0012D9FF00D09
:105430001124E85FF84F918380835583448353831D
:10544000428377836683F186E086009709F082DEE7
:10545000EC0CFD1CF0927804E09277047894CF3F36
:10546000DC07F1F290E080E0F801D183C083DF91A6
:10547000CF911F910F91FF90EF90DF90CF90089503
:10548000AE15BF05A0F02AE02C9FF0012D9FF00D76
:105490001124E85FF84F91838083558344835383BD
:1054A0004283778366830097C9F254DED7CF8A0F91
:1054B0009B1F2F5F3F4F3A962630310509F097CF5B
:1054C000CFEFDFEFCBCF8FEF9FEFD1CF9C010397D3
:1054D000039708F04EC0F89485E09AE0482F50E01A
:1054E000241735079CF191E08AE0829FF001839FA9
:1054F000F00D1124E85FF84F11821082158214829A
:1055000013821282178216829923E1F08091770428
:1055100090917804E8E0F7E0268D378D232B49F44D
:1055200026A137A12115310521F0821B930B17A26B
:1055300016A23A9627E0E632F20771F790937804C4
:1055400080937704789490E080E00895949FF00130
:10555000959FF00D1124E85FF84F40815181452B54
:1055600031F440855185452B11F48150B7CF90E03F
:10557000BBCF8FEF9FEF08954115510549F100977B
:1055800039F16115710521F1F894209104073091EA
:105590000507232BB9F42091060730910707232B29
:1055A00089F490930507809304077093070760932D
:1055B0000607789426E030E090E080E0FA0131833D
:1055C0002083089578942FEF3FEF86EF9FEFF6CF7B
:1055D0008FEF9FEF0895069769F4F89410920507EE
:1055E000109204071092070710920607789490E033
:1055F00080E008958FEF9FEF08956115710519F40C
:10560000F0E0E0E011C08630910581F4E0910407FC
:10561000F09105073097A1F3CB01019619950097FA
:1056200079F3FC0186E08193CF0108959C0123501A
:1056300031092330310520F72AE0289FD001299F26
:10564000B00D1124A85FB84F2D913C911197232BD9
:10565000B9F216962D913C9117972617370780F2CD
:10566000F89412962D913C9113972115310529F04C
:10567000ED91FC911197309711F47894C1CF41814D
:10568000528111965C934E932150310913963C93AD
:105690002E93129781937894C7CFECE0F6E088EFD1
:1056A000DF011D928A95E9F7E9E7F4E083E991E0EB
:1056B000DF019C011D9221503040E1F710927804E7
:1056C00010927704E8E0F7E08CE3DF011D928A9501
:1056D000E9F7E4E0F7E084E0DF011D928A95E9F75D
:1056E00090E080E00895CF93DF93C0919F02D09126
:1056F000A002CF3FDC0759F422D49093A0028093FC
:105700009F0297FF09C0D093A002C0939F0284EF2D
:105710009FEFDF91CF91089590E080E0FACF823043
:10572000910528F48093440790E080E008958FEF7E
:105730009FEF08954F925F926F927F92AF92BF92C8
:10574000CF92DF92EF92FF920F931F93CF93DF934D
:105750001F921F92CDB7DEB71A821982009709F403
:1057600079C06115710509F475C020919F023091CF
:10577000A00207EF1FEF2F3F3F4F09F445C06B0119
:105780005C01412C512C3201F12CE12C10E000E0A5
:105790009E012F5F3F4FA6014E195F09B5016E0DA7
:1057A0007F1D80919F029091A0022DD4892B09F03A
:1057B0004BC089819A81009741F4E114F10429F4E6
:1057C00020914407222309F442C0E80EF91EEC148C
:1057D000FD04D0F480E8481684E858068EE1680697
:1057E000710420F560E070E0CB010E94CE352AE024
:1057F000420E511C611C711C0A3F4FEF140721F02F
:10580000043F8FEF1807A1F4C8010F900F90DF91AC
:10581000CF911F910F91FF90EF90DF90CF90BF90AD
:10582000AF907F906F905F904F90089501EF1FEFC2
:1058300081E090E0013F2FEF120711F090E080E04F
:10584000892B09F4A5CFE0CF04EF1FEFDDCF0AEFDE
:105850001FEFDACF0FEF1FEFD7CF4F925F926F920C
:105860007F92AF92BF92CF92DF92EF92FF920F930F
:105870001F93CF93DF931F921F92CDB7DEB71A828B
:105880001982009709F479C06115710509F475C092
:1058900020919F023091A00207EF1FEF2F3F3F4F53
:1058A00009F445C06B015C01412C512C3201F12CF3
:1058B000E12C10E000E09E012F5F3F4FA6014E1942
:1058C0005F09B5016E0D7F1D80919F029091A0022E
:1058D0004DD3892B09F04BC089819A81009741F4FF
:1058E000E114F10429F420914407222309F442C071
:1058F000E80EF91EEC14FD04D0F480E4481682E4AE
:1059000058068FE06806710420F560E070E0CB0176
:105910000E94CE352AE0420E511C611C711C0E3FC4
:105920004FEF140721F0043F8FEF1807A1F4C801CF
:105930000F900F90DF91CF911F910F91FF90EF90FB
:10594000DF90CF90BF90AF907F906F905F904F901F
:10595000089502EF1FEF81E090E0023F2FEF120762
:1059600011F090E080E0892B09F4A5CFE0CF04EF9F
:105970001FEFDDCF0EEF1FEFDACF0FEF1FEFD7CF07
:1059800080919F029091A0028F3F980749F0CFD25B
:10599000892B49F48FEF9FEF9093A00280939F0291
:1059A00090E080E0089584EF9FEF0895CF92DF921A
:1059B000EF92FF920F931F93CF93DF9321E0411556
:1059C000510509F020E04150510921112CC0DC01A2
:1059D000FB01D12CC12C21E022C03FEFC31AD30A16
:1059E0007D010D911D91E701EA80FB80E016F10633
:1059F000A8F420813181E280F380F182E082338358
:105A00002283ED90FC9011979D0122503109E9010C
:105A1000F982E88211961C930E9320E03296C41608
:105A2000D506D8F2D2CFDF91CF911F910F91FF9081
:105A3000EF90DF90CF900895FC01680F791F90E000
:105A400080E0E617F70709F408952191820F911D70
:105A5000F8CF20914507211113C045DE009791F43E
:105A600010924B0710924A0710924907109248076C
:105A7000109247071092460721E0209345070895AA
:105A800084EF9FEF0895AF92BF92CF92DF92EF9293
:105A9000FF920F931F93CF93DF93009709F460C099
:105AA0004630510508F45CC020914507C7EFDFEF91
:105AB000222309F449C08C01060F171FF801C0808A
:105AC000D180C114D10409F44EC096012A5F3F4F22
:105AD0004217530708F447C07C0180914A07909110
