:10000000F8C000000C940D2E0C94382E0C94632E26
:100010000C948E2E0C94B92E0C94E42E0C940F2F6D
:100020000C943A2F17C1000015C1000013C1000045
:1000300011C100000FC100000DC100000BC1000084
:1000400009C1000007C1000005C1000003C1000094
:1000500001C10000FFC00000FDC000000C94652F2E
:10006000F9C000000C9465320C949B32F3C0000080
:10007000F1C00000EFC00000EDC00000EBC00000C8
:10008000E9C00000E7C00000E5C00000E3C00000D8
:100090000C94F1320C942733DDC00000DBC000006B
:1000A000D9C00000D7C00000D5C00000D3C00000F8
:1000B000D1C00000CFC00000CDC00000CBC0000008
:1000C000C9C00000C7C00000C5C000000C947D334B
:1000D0000C94B333BFC000000C9409340C943F342B
:1000E000B9C0000000000A0B02090C0D0E0807033E
:1000F00004010000000000000000000000000000FB
:1001000000000000000000000000000000000000EF
:1001100012111000000000000000000000000000AC
:100120000000000000000000000001021020200874
:100130000810204010204080020102010804020142
:1001400001020408102040808040201008040201B1
:10015000800402018040201008040201080402010A
:100160000102040810204080010204081020408091
:1001700005050505070508080808020202020A0A23
:100180000808040404040101010101010101030341
:10019000030303030303040707070C0C0C0C0C0CEC
:1001A0000C0C0202020206060606060606060B0BE9
:1001B0000B0B0B0B0B0B00002200250028002B0063
:1001C0002E003100340002010000050108010B017E
:1001D00000002100240027002A002D0030003300F9
:1001E00001010000040107010A01C4325033DC336D
:1001F000683411241FBECFEFD1E2DEBFCDBF00E0D7
:100200000CBF13E0A0E0B2E0E8E5FAE600E00BBFC7
:1002100002C007900D92A433B107D9F728E0A4E3F8
:10022000B3E001C01D92AA3DB207E1F710E0C9EFAB
:10023000D0E000E006C021970109802FFE010E9456
:10024000F934C53FD10780E00807A9F70E943A2A90
:100250000C942A35D5CE611102C00C94D230613095
:10026000E1F362E0FACF662319F061E00C940E31FD
:1002700060E0FCCF90E080E008950F931F9300971B
:1002800009F489C06115710509F485C000916802FF
:100290001091690220916A0230916B020E3F1F4F4C
:1002A0002F4F3F4F09F068C04FEF5FEFBA01409307
:1002B00068025093690260936A0270936B024091E6
:1002C00068025091690260916A0270916B02DC01D0
:1002D0001296ED91FC9180819181A281B3818093EE
:1002E000D5039093D603A093D703B093D80384810A
:1002F0009581A681B7818093D1039093D203A09377
:10030000D303B093D40380859185A285B385809370
:10031000CD039093CE03A093CF03B093D0038485F5
:100320009585A685B7858093C9039093CA03A0934A
:10033000CB03B093CC031092C5031092C603109266
:10034000C7031092C8030E94350D8AE59DE0909383
:1003500035038093340390933703809336030E94D0
:10036000240C009731F421E030E03093DA0320933D
:10037000D9031F910F9108950091680210916902AD
:1003800020916A0230916B02DB010D931D932D9336
:100390003C93139794CF8FEF9FEFEBCF8F929F9269
:1003A000AF92BF92CF92DF92EF92FF921F93CF93C3
:1003B000DF934B015C011091DC0382E090E09093AD
:1003C000DA038093D90381149104A104B10441F4A8
:1003D0008091DC03811104C08091DB03C1E08111B5
:1003E000C0E0C12CD12C76018091DC03811106C0C4
:1003F0008091DB03811102C0CC23D9F083E090E02F
:100400009093DA038093D903CC2381F1CCE9DFEF19
:10041000111102C00E94BE10CE01DF91CF911F9139
:10042000FF90EF90DF90CF90BF90AF909F908F9014
:1004300008956AE070E080E090E00E94D42F80E1AF
:10044000C80E87E2D81EE11CF11C8FEF88169806B3
:10045000A806B80631F0C1E08C149D04AE04BF04B8
:1004600008F0C0E080E00E94580CBECFD0E0C0E0B1
:10047000CFCFCF92DF92EF92FF920F931F93CF9344
:10048000DF938F3F910511F008F051C02091D903FF
:100490003091DA032330310539F02091D9033091BE
:1004A000DA032130310531F424E030E03093DA030F
:1004B0002093D9036A017B01EC0182309105A8F0F9
:1004C00011E0AE01C701B6010E94230CAB01BC01D3
:1004D000CE011123F9F0DF91CF911F910F91FF9081
:1004E000EF90DF90CF900C94E7128C01000F111F5A
:1004F0000C5C1C4FD8018D919C91892B09F30E94B3
:10050000F1120297E9F6D801ED91FC91CE0119950F
:10051000182FD7CF0E94091390E080E0DF91CF9190
:100520001F910F91FF90EF90DF90CF9008958FEF84
:100530009FEFF4CF80E00C94580CCF93DF9386E0CC
:1005400090E09093DA038093D9030E94B10CEC0100
:10055000E4E3F3E084E0DF011D928A95E9F70E946D
:1005600056101092DA031092D903CE01DF91CF9189
:1005700008958091DB0308958091C40308956093EA
:1005800068027093690280936A0290936B0290E014
:1005900080E00895CF92DF92EF92FF9280919603D0
:1005A000882329F0813039F08091970301C081E0E0
:1005B0008093950302C010929503E091950384E027
:1005C000E89FF0011124E856FC4F6081718182811F
:1005D000938160939103709392038093930390931C
:1005E00094032FEF20939503C0901402D09015022E
:1005F000E0901602F0901702C092B808D092B908A5
:10060000E092BA08F092BB0824E02093A60820915B
:10061000A008222349F0213059F03091A10821E0AF
:10062000332319F020E001C021E020939F0802C08D
:1006300010929F0820919F08222311F1C0928708F1
:10064000D0928808E0928908F0928A0820919F0849
:100650002093A1082FEF20939F080E94D92B2AE016
:1006600037ED43E25CE30E94302D0E94AD2BAB01DD
:10067000BC0184E090E0FF90EF90DF90CF90F9CE46
:10068000C0928308D0928408E0928508F092860890
:10069000DDCF4F925F926F927F928F929F92AF9237
:1006A000BF92CF92DF92EF92FF92CF93DF9300D071
:1006B0001F92CDB7DEB74B015C0169017A01C1D74A
:1006C0008823E9F08090CC089090CD08A090CE08C7
:1006D000B090CF08C501B4010F900F900F900F900C
:1006E000DF91CF91FF90EF90DF90CF90BF90AF90D0
:1006F0009F908F907F906F905F904F900895C7016B
:10070000B6019FD78111DECFC501B40155D7811144
:10071000D9CFC701B60150D78111DCCF20E030E03E
:10072000A901C701B6010E94412B87FF4CC0C70138
:10073000B6010E942E2B2B013C01A3019201C7019F
:10074000B6010E94412B882309F44CC0A7019601F1
:10075000C501B4010E94452B2B013C01E89477F8B8
:1007600020E030E040E05FE3C301B2010E94CA2A0A
:100770000E94162C9B01AC01C301B2010E94C92A40
:100780009B01AC015F7729833A834B835C8320E034
:1007900030E040E054E3C301B2010E94302D9B01E0
:1007A000AC0169817A818B819C810E942C2D181665
:1007B000CCF020E030E0A901C501B4010E94302D49
:1007C0004B015C0187CFC701B6010E94162C2B019B
:1007D0003C0120E030E0A901C701B6010E94412B95
:1007E0008111ABCFA7019601C501B4010F900F9005
:1007F0000F900F90DF91CF91FF90EF90DF90CF900F
:10080000BF90AF909F908F907F906F905F904F9030
:100810000C94302CCF92DF92EF92FF928091A70838
:100820008150823060F483E08093A7088091870331
:10083000882339F0813049F08091880303C080E03B
:10084000F3CF81E08093860302C010928603E0918B
:10085000860384E0E89FF0011124E85AFC4F81A947
:1008600092A9A3A9B4A98093820390938303A09330
:100870008403B09385038FEF80938603C0900C02AE
:10088000D0900D02E0900E02F0900F0220916F08C0
:100890003091700840917108509172086091040283
:1008A0007091050280910602909107020E94CA2A67
:1008B000A7019601EEDE60936F0870937008809335
:1008C000710890937208C0901002D0901102E090CD
:1008D0001202F0901302C092BC08D092BD08E092C0
:1008E000BE08F092BF0824E02093A70820919A0840
:1008F000222349F0213059F030919B0821E0332325
:1009000019F020E001C021E02093990802C0109264
:100910009908209199082223E1F060937708709359
:1009200078088093790890937A0820919908209309
:100930009B082FEF2093990820919D08222391F086
:100940002130A1F030919E0821E0332361F020E0B6
:100950000AC060937308709374088093750890932D
:100960007608E3CF21E020939C0802C010929C08F7
:1009700020919C08222351F1C0927F08D0928008D8
:10098000E0928108F092820880919C0880939E08F2
:100990008FEF80939C086091820370918303809114
:1009A0008403909185030E94D92B2AE037ED43E21E
:1009B0005CE30E94302D0E94AD2BAB01BC0183E0B3
:1009C00090E0FF90EF90DF90CF9053CDC0927B08E6
:1009D000D0927C08E0927D08F0927E08D5CFCF922D
:1009E000DF92EF92FF926B017C019F7720E030E075
:1009F00040E859E50E94412B87FF2BC020E030E002
:100A000040E05FE3C701B6010E942C2D87FD0EC0B8
:100A100020E030E040E05FE3C701B6010E94CA2A4F
:100A2000FF90EF90DF90CF900C94162C20E030E0F8
:100A300040E05FEBC701B6010E942C2D181684F42C
:100A400020E030E0A901C701B6010E94302D6B0102
:100A50007C01C701B601FF90EF90DF90CF90089521
:100A600020E030E040E05FE3C701B6010E94C92A00
:100A7000FF90EF90DF90CF900C942E2B4F925F92CF
:100A80006F927F928F929F92AF92BF92CF92DF929E
:100A9000EF92FF92CF93DF9300D000D01F921F926E
:100AA000CDB7DEB78091A5088150823020F583E074
:100AB0008093A5088091A40881508230F0F483E0EF
:100AC0008093A4088091A30881508230C0F483E011
:100AD0008093A3088091A2088150823090F483E033
:100AE0008093A20880919908882369F0813079F079
:100AF00080919B0809C080E0DBCF80E0E1CF80E0FF
:100B0000E7CF80E0EDCF81E080939A0802C0109299
:100B10009A0880919A088823A1F0C0907708D09015
:100B20007808E0907908F0907A088FEF80939A081F
:100B300080919C08882371F0813081F080919E081B
:100B40000AC0C0907308D0907408E0907508F090C7
:100B50007608EBCF81E080939D0802C010929D083B
:100B600080919D088823C1F080917F089091800832
:100B7000A0918108B09182088D839E83AF83B8874E
:100B80008FEF80939D0880919F08882371F08130BA
:100B900081F08091A1080AC080917B0890917C0827
:100BA000A0917D08B0917E08E7CF81E08093A008F6
:100BB00002C01092A0088091A008882309F43EC1C9
:100BC0008091870890918808A0918908B0918A083F
:100BD00089839A83AB83BC838FEF8093A008809135
:100BE000A10381114AC080908D0890908E08A0903A
:100BF0008F08B0909008C501B4010E94DB2B2B0137
:100C00003C012091400230914102409142025091BA
:100C100043020E94412B87FF1AC1B7FC18C1809183
:100C2000380290913902A0913A02B0913B02809330
:100C3000A8089093A908A093AA08B093AB0820E055
:100C400030E040E85FE360913C0270913D028091AA
:100C50003E0290913F020E94C92A9B01AC01C30150
:100C6000B2010E942C2D87FDF6C010928D081092C3
:100C70008E0810928F08109290088091A203811123
:100C800094C08090910890909208A0909308B090A2
:100C90009408C501B4010E94DB2B2B013C0120917B
:100CA00050023091510240915202509153020E94E1
:100CB000412B87FFDEC0B7FCDCC0809148029091D9
:100CC0004902A0914A02B0914B028093AC089093E4
:100CD000AD08A093AE08B093AF0820E030E040E844
:100CE0005FE360914C0270914D0280914E029091B1
:100CF0004F020E94C92A9B01AC01C301B2010E94AC
:100D00002C2D87FDBAC01092910810929208109273
:100D10009308109294088090950890909608A0905F
:100D20009708B0909808C501B4010E94DB2B2B01F5
:100D30003C01209160023091610240916202509129
:100D400063020E94412B87FFA6C0B7FCA4C080911C
:100D5000580290915902A0915A02B0915B0280937F
:100D6000B0089093B108A093B208B093B30820E004
:100D700030E040E85FE360915C0270915D02809139
:100D80005E0290915F020E94C92A9B01AC01C301DF
:100D9000B2010E942C2D87FD82C0109295081092FE
:100DA000960810929708109298084090340250903C
:100DB000350260903602709037022D813E814F815E
:100DC000588569817A818B819C810E94CA2AA301FE
:100DD00092015FDC20E030E0A9010E94412B8823D2
:100DE00009F46BC060911C0270911D0280911E027B
:100DF00090911F0220E030E040E85FE30E94412B29
:100E0000811131C18091B0089091B108A091B208D0
:100E1000B091B3088093B4089093B508A093B60836
:100E2000B093B7088091A508882309F44FC0833098
:100E300009F416C1082E000C990B4AC08091830852
:100E400090918408A0918508B0918608C1CE80E079
:100E500090E0DC01ECCED501C4010196A11DB11DCD
:100E600080938D0890938E08A0938F08B09390087C
:100E700004CF80E090E0DC0128CFD501C4010196C9
:100E8000A11DB11D8093910890939208A09393089F
:100E9000B093940840CF80E090E0DC0160CFD501B2
:100EA000C4010196A11DB11D8093950890939608E9
:100EB000A0939708B093980878CF60912002709122
:100EC0002102809122029091230294CF82E090E04F
:100ED0008093A5086091B4087091B5088091B60818
:100EE0009091B7087CDD6B017C0120E030E040E8A8
:100EF00053E40E94412B6FEF87FF0EC020E030E0EB
:100F0000A901C701B6010E942C2D60E087FD04C035
:100F1000C701B6010E94AD2B86E1A5D940917203AD
:100F200050917303609174037091750390E080E0B9
:100F3000A0DA8091A103811111C020917A03309130
:100F40007B0340917C0350917D03A4E1B0E00E94BB
:100F50000135AB01BC0181E090E08BDA8091A20306
:100F6000811111C020917E0330917F034091800355
:100F700050918103A4E6B0E00E940135AB01BC01B1
:100F800082E090E076DAC0907203D0907303E09034
:100F90007403F09075039FEFC91AD90AE90AF90A98
:100FA000C0927203D0927303E0927403F0927503BF
:100FB000C701B6010E94D92B9B01AC016091760359
:100FC0007091770380917803909179030E94302D7E
:100FD00060936E0370936F0380937003909371031B
:100FE0009091A103911114C040917A0350917B0319
:100FF00060917C0370917D034F5F5F4F6F4F7F4F18
:1010000040937A0350937B0360937C0370937D033A
:101010008091A203811114C040917E0350917F03FF
:1010200060918003709181034F5F5F4F6F4F7F4FDF
:1010300040937E0350937F036093800370938103FA
:1010400020918603222309F488C0213009F489C045
:1010500021E030918803332309F480C020E07EC072
:1010600081E090E035CF20E030E040E85FE3C70169
:10107000B6010E94412B811122C08091A808909155
:10108000A908A091AA08B091AB088093B4089093E6
:10109000B508A093B608B093B7088091A408882338
:1010A00031F0833049F0082E000C990B02C082E029
:1010B00090E08093A4080ECF81E090E0FACF20E08A
:1010C00030E040E050E4C701B6010E94412B81119D
:1010D00022C08091180290911902A0911A02B09139
:1010E0001B028093B4089093B508A093B608B09300
:1010F000B7088091A308882331F0833049F0082E87
:10110000000C990B02C082E090E08093A308E2CE2D
:1011100081E090E0FACF8091AC089091AD08A09169
:10112000AE08B091AF088093B4089093B508A0932F
:10113000B608B093B7088091A208882331F08330B5
:1011400049F0082E000C990B02C082E090E08093D9
:10115000A208C0CE81E090E0FACF21E0209387037F
:1011600002C01092870320918703A4E02A9FF00118
:101170001124E85AFC4FC1AAD2AAE3AAF4AA2093E8
:1011800088032FEF2093870320919503222349F0B2
:10119000213059F021E030919703332319F020E0FA
:1011A00001C021E02093960302C010929603209183
:1011B0009603B4E02B9FF0011124E856FC4FC08247
:1011C000D182E282F382209397032FEF209396033C
:1011D0009F5F9431E0F49093A1038F5F8436D0F445
:1011E0008093A20328960FB6F894DEBF0FBECDBF42
:1011F000DF91CF91FF90EF90DF90CF90BF90AF90B5
:101200009F908F907F906F905F904F900895109275
:10121000A103E3CF1092A203E5CF84E090E095D143
:1012200080E090E0A0E8BFEB8093A3039093A40339
:10123000A093A503B093A6038AE097EDA3E2BCE3D5
:101240008093760390937703A0937803B093790308
:101250008DEC9FE8ABEAB7EE80935C0390935D035F
:10126000A0935E03B0935F038CE696EBA6E0BAEB27
:101270008093600390936103A0936203B093630330
:1012800084ED95EBAAE6B3ED809364039093650338
:10129000A0936603B09367038BED92E3A0E8BBEAEB
:1012A0008093680390936903A0936A03B0936B03E0
:1012B0008CE493E090935B0380935A0388E393E07C
:1012C00090934D0380934C0381EA92E0909339030D
:1012D0008093380325EA38E030933B0320933A03A8
:1012E00022EA38E030933D0320933C0323EA38E0C0
:1012F00030933F0320933E0324EA38E030934103C8
:1013000020934003909343038093420327EA38E0FD
:10131000309345032093440326EA38E03093470393
:1013200020934603909349038093480390934B0383
:1013300080934A038CE693E090935103809350038B
:101340008CE593E090934F0380934E038EE693E0F9
:1013500090935303809352038FEF809387031092EF
:10136000880380939503809396031092970340918E
:1013700028025091290260912A0270912B02409319
:10138000730850937408609375087093760880937F
:10139000990880939A0840912C0250912D026091F7
:1013A0002E0270912F0240937B0850937C0860932B
:1013B0007D0870937E0880939C0880939D084091DF
:1013C00030025091310260913202709133024093A9
:1013D00083085093840860938508709386088093EF
:1013E0009F088093A0084091890350918A036091DF
:1013F0008B0370918C03409382035093830360931B
:1014000084037093850380938603809110029091EA
:101410001102A0911202B09113028093BC08909324
:10142000BD08A093BE08B093BF08809100029091C0
:101430000102A0910202B091030280936F08909381
:101440007008A0937108B093720842E050E06AE01F
:1014500074E083E00E94942D80919603882329F004
:10146000813039F08091970301C081E0809395032A
:1014700002C010929503E091950384E0E89FF0018B
:101480001124E856FC4F80819181A281B381809321
:10149000910390939203A0939303B09394038FEFDF
:1014A000809395038091140290911502A0911602E9
:1014B000B09117028093B8089093B908A093BA0826
:1014C000B093BB0842E050E06AEC72E082E00E9418
:1014D000942D1092670881E090E0A0E0B0E0809346
:1014E000680890936908A0936A08B0936B0861E05C
:1014F00086E10E942B0181E080936C080895809121
:101500006708811103C081E080936708089560E057
:1015100070E080E89FE7089560E070E080E89FE772
:10152000089560E070E080E89FEF089560E070E06B
:1015300080E89FEF089560E070E080EC9FEF0895F1
:1015400060E070E080EC9FEF0895F5DF6093CC08D9
:101550007093CD088093CE089093CF08F1DF60930D
:10156000C0087093C1088093C2089093C308CFDF6E
:101570006093C8087093C9088093CA089093CB08F9
:10158000CBDF6093C4087093C5088093C60890931E
:10159000C708C7DF6093D0087093D1088093D20842
:1015A0009093D308C3DF6093D4087093D5088093D9
:1015B000D6089093D7080895CF92DF92EF92FF92CA
:1015C000CF936B017C01AC019B016091C8087091C5
:1015D000C9088091CA089091CB080E94412BC1E0B4
:1015E000882371F0A70196016091D0087091D1080D
:1015F0008091D2089091D3080E94412B8111C0E0C4
:101600008C2FCF91FF90EF90DF90CF9008950F93A4
:101610001F938B019C010027112720783F7701152C
:10162000110520483F4749F4AB01BC016F7777278C
:1016300081E0452B462B472B09F480E01F910F9149
:101640000895E5CF4F925F926F927F928F929F9213
:10165000AF92BF92CF92DF92EF92FF920F931F93C0
:10166000F8944090B4035090B5036090B603709026
:10167000B703C090A803D090A903E090AA03F0900C
:10168000AB03452B09F0A4C09B01AC01241935091B
:101690004609570929013A010091B0031091B1039D
:1016A0002091B2033091B30348015901840C951C79
:1016B000A61CB71C80169106A206B306A0F40091E2
:1016C000AC031091AD032091AE033091AF030F5FD7
:1016D0001F4F2F4F3F4F0093AC031093AD03209348
:1016E000AE033093AF038092B0039092B103A09207
:1016F000B203B092B3030091AC031091AD032091FB
:10170000AE033091AF038092B8039092B903A092D8
:10171000BA03B092BB030093BC031093BD032093A4
:10172000BE033093BF036093B4037093B5038093FB
:10173000B6039093B703A0E1B7E2A30192010E9420
:1017400001356C0D7D1D8E1D9F1D6093A803709348
:10175000A9038093AA039093AB03009168021091B0
:10176000690220916A0230916B020F3F1F4F2F4F89
:101770003F4FF1F0009168021091690220916A02D6
:1017800030916B020E3F1F4F2F4F3F4F89F0C0909B
:101790006802D0906902E0906A02F0906B0221E04A
:1017A0008C149D04AE04BF0408F420E02093C4030D
:1017B00078941F910F91FF90EF90DF90CF90BF90A2
:1017C000AF909F908F907F906F905F904F90089513
:1017D0004B015C0184189508A608B708A301920183
:1017E000261B370B480B590B6415750586059705A5
:1017F000D0F082169306A406B50640F420E030E04F
:10180000A90181149104A104B10491F4A0E1B7E20B
:101810000E940135A7019601261B370B480B590B77
:10182000CA01B901C5CF82169306A406B50670F7A2
:10183000A0E1B7E2A50194010E9401356C0D7D1D68
:101840008E1D9F1DB5CFFECECF93DF9300D01F928C
:10185000CDB7DEB71C821B821A8219821092C00398
:101860001092C1031092C2031092C303BE016F5FB6
:101870007F4FCE0103960E94202969817A818B8156
:101880009C810E940E22009761F4BE016F5F7F4F22
:10189000CE0103960E942C2969817A818B819C81DB
:1018A0002ED50F900F900F900F90DF91CF9108954C
:1018B000FF920F931F93CF93DF93082F60E070E0A8
:1018C000CB010E94D42FFF24F3940E94F720EC0157
:1018D000892B89F010E0CE3F8FEFD80769F0002305
:1018E00061F160E070E0CB010E94D42F81E090E0D4
:1018F000892B59F322C011E025D5EC01892B21F069
:10190000CE3F8FEFD80759F711111EC011E0229674
:1019100009F410E00E94A720EC01892B21F0CE3FB2
:101920008FEFD807E1F6111111C011E0CE3F8FEF14
:10193000D80709F410E001110BC0CE01DF91CF915F
:101940001F910F91FF90089511E0E4CF11E0F3CFC4
:1019500060E070E0CB010E94D42F1F25812F90E022
:10196000C7CFCF93DF938091C403882321F060E039
:1019700070E0CB014CD635D6D0E0C0E0892B71F0B9
:101980006AE070E080E090E00E94D42F81E090DF78
:1019900028D62196C03D27E0D20781F727D60E949E
:1019A00062221092DC031092DB031092D503109296
:1019B000D6031092D7031092D8031092D10310923D
:1019C000D2031092D3031092D4031092CD0310923D
:1019D000CE031092CF031092D0031092C90310923D
:1019E000CA031092CB031092CC031092C50310923D
:1019F000C6031092C7031092C8034EEF5FEF6FEF5C
:101A00007FEF409368025093690260936A0270937B
:101A10006B021092C403E8EBF3E028E0DF011D92B3
:101A20002A95E9F71092B4031092B5031092B60309
:101A30001092B7031092B0031092B1031092B20348
:101A40001092B3031092AC031092AD031092AE0348
:101A50001092AF031092A8031092A9031092AA0348
:101A60001092AB03DF91CF9108951092E80310928A
:101A7000E9031092EA031092EB031092E7038091BE
:101A8000F0039091F1039093E6038093E5031092A5
:101A9000E4031092E3031092DF031092E00310922C
:101AA000E1031092E2031092ED031092EC0390E038
:101AB00080E00895CF92DF92EF92FF920F931F93F1
:101AC000CF938C01892B09F055C02091F003309100
:101AD000F1038091E5039091E6034091F00350916A
:101AE000F1035093E6034093E5032817390781F08B
:101AF0001092E4031092E3031092DF031092E003CC
:101B00001092E1031092E2031092ED031092EC03A5
:101B10008091F0039091F103019761F58091EC03BE
:101B20009091ED03892B21F480916C02811112C0F8
:101B30008091EC039091ED030197E1F48091DF0334
:101B40009091E003A091E103B091E2030197A10518
:101B5000B10581F41092DF031092E0031092E103CB
:101B60001092E20310926C0282E090E09093ED03F9
:101B70008093EC038091F0039091F103019709F0B9
:101B80001CC180910604909107048017910709F009
:101B900014C18091020490910304A0910404B091B7
:101BA0000504009709F409C12091010421110DC019
:101BB0004091020450910304609104047091050463
:101BC000452B462B472B09F4F8C02091EC033091AC
:101BD000ED032230310509F0F0C02091E30321111B
:101BE000ECC0FC01C080D180E280F3808091E703EB
:101BF000882309F4D3C08091F3039091F403892BD7
:101C000009F4FDC02091F3033091F40381E0223008
:101C1000310509F080E02091F3033091F403C1E035
:101C20002130310549F02091F3033091F403C1E0F4
:101C30002230310509F0C0E0882309F456C0209114
:101C4000FD033091FE034091FF0350910004C70152
:101C5000B6010E942C2D87FD14C02091FD03309108
:101C6000FE034091FF03509100046091E8037091DE
:101C7000E9038091EA039091EB030E94412B87FDD9
:101C800022C02091FD033091FE034091FF0350914B
:101C90000004C701B6010E942C2D181634F52091BE
:101CA000FD033091FE034091FF03509100046091C9
:101CB000E8037091E9038091EA039091EB030E949D
:101CC000412B811112C08091F5039091F603A091F0
:101CD000F703B091F803892B8A2B8B2B19F481E041
:101CE0008093E40381E08093E303CC2309F456C09E
:101CF0002091FD033091FE034091FF0350910004B9
:101D0000C701B6010E94412B87FF14C02091FD033B
:101D10003091FE034091FF03509100046091E8036D
:101D20007091E9038091EA039091EB030E942C2DBE
:101D300087FF22C02091FD033091FE034091FF03F5
:101D400050910004C701B6010E94412B811126C0A9
:101D50002091FD033091FE034091FF035091000458
:101D60006091E8037091E9038091EA039091EB039D
:101D70000E942C2D181694F48091F5039091F6038F
:101D8000A091F703B091F803892B8A2B8B2B19F4C0
:101D900081E08093E40381E08093E30381E090910C
:101DA000E303911180E08093E703C092E803D092AF
:101DB000E903E092EA03F092EB03012B09F067C11B
:101DC0008091EC039091ED03892BD9F41092F203EA
:101DD0001092E30380916C02882379F082E090E016
:101DE0009093ED038093EC0310926C022091F0032A
:101DF0003091F10381E0232BE9F080E01BC081E00A
:101E00000ACF10926C028091F203882349F010925D
:101E1000E4031092ED031092EC031092F203EDCF65
:101E20008091F0039091F103892BE1F08091E3031D
:101E30001092E3032091EC033091ED032230310541
:101E400009F45EC088F42115310509F448C0213039
:101E5000310509F4F3C01092E4031092E3031092E9
:101E6000F20338C081E0E6CF2330310509F4B1C078
:101E70002430310581F74091DF035091E0036091F8
:101E8000E1037091E203411551056105710561F0AF
:101E900041505109610971094093DF035093E003F8
:101EA0006093E1037093E2034091DF035091E003FC
:101EB0006091E1037091E203452B462B472BD9F447
:101EC0002091EE033091EF032130310509F046C037
:101ED0001092E4031092ED031092EC030CC0809179
:101EE0006C02882341F082E090E09093ED038093B0
:101EF000EC0310926C021092DD038091E403CEC0DB
:101F00008823C9F38091F5039091F603A091F7031C
:101F1000B091F803181619061A061B060CF07DC0BE
:101F20008091F0039091F103019709F076C08091C0
:101F3000F5039091F603A091F703B091F803809315
:101F4000DF039093E003A093E103B093E20383E007
:101F500090E09093ED038093EC03CDCF4091F90393
:101F60005091FA036091FB037091FC03452B462BC3
:101F7000472BA9F01092E4038091F9039091FA03A2
:101F8000A091FB03B091FC038093DF039093E003E7
:101F9000A093E103B093E20381E090E0DACF8823DD
:101FA00099F080916D0290916E02A0916F02B091B4
:101FB00070028093DF039093E003A093E103B0935A
:101FC000E20384E090E0C5CF1092E40382E090E069
:101FD000C0CF8091DF039091E003A091E103B09125
:101FE000E2030097A105B10559F00197A109B109D4
:101FF0008093DF039093E003A093E103B093E203A7
:102000008091DF039091E003A091E103B091E2039E
:10201000892B8A2B8B2B09F06ECF80916D029091CA
:102020006E02A0916F02B0917002892B8A2B8B2BCC
:1020300009F44ECF81E08093E403B3CF4091DF03F6
:102040005091E0036091E1037091E2034115510565
:102050006105710561F041505109610971094093B1
:10206000DF035093E0036093E1037093E203409138
:10207000DF035091E0036091E1037091E203452B8F
:10208000462B472B09F037CF8111C7CF9FCF8091C7
:10209000DD03882309F431CF8091DE03CF911F91B6
:1020A0000F91FF90EF90DF90CF9008951092E8038A
:1020B0001092E9031092EA031092EB031092E703E7
:1020C0001092ED031092EC031092E6031092E503D8
:1020D00010920704109206041092E4031092E30396
:1020E0001092DF031092E0031092E1031092E203DA
:1020F0001092DE031092DD0310920204109203048A
:102100001092040410920504109201041092FD0331
:102110001092FE031092FF031092000488EE93E0E9
:10212000A0E0B0E080936D0290936E02A0936F02E6
:10213000B09370021092F9031092FA031092FB030D
:102140001092FC031092F5031092F6031092F7031D
:102150001092F8031092F4031092F30381E080933D
:102160006C021092F2031092F1031092F00310929D
:10217000EF031092EE0390E080E008958091F00369
:102180009091F103892B19F580916C02882351F00D
:102190008091F203811106C081E08093DE03809379
:1021A000DD0308952091F20330916C0281E090E00C
:1021B000332311F090E080E030E082239323892BD9
:1021C00021F01092DE0381E0EACF1092DD03089542
:1021D00082E090E0FA01918380838FEF9FEF089572
:1021E000CF93DF93EA01009711F00E9482231982B6
:1021F000188290E080E0DF91CF910895DB01009795
:1022000019F48FEF8C9308952EEF2C93FC013F96D9
:10221000EF30F10508F034C08827EE5EFE4E8F4F98
:102220000C94F9343E113C113A1138113611321127
:10223000341130112E112C112911251121112711C2
:10224000401180E311968C93089589E2FBCF82E2DE
:10225000F9CF11961C92089583E2F4CF81E2F2CF78
:1022600081E1F0CF87E2EECF8AE2ECCF80E1EACFE6
:1022700084E2E8CF88E2E6CF86E2E4CF81E3E2CFF2
:1022800080E2E0CF8091140490911504089590931A
:102290001504809314040895809113040895909177
:1022A0001304892B809313040895982F909580919F
:1022B00013048923809313040895809112040895D0
:1022C000809110049091110408956115710559F0E1
:1022D000FB0130E020E070E060E02417350719F0E2
:1022E0006115710511F0CB010895A081B181A81786
:1022F000B90709F4BF012F5F3F4F3696EECF8091AB
:10230000160481111CC060D266D290930904809398
:1023100008040E94801B0E94921B90930D048093DE
:102320000C040E940F200E94162090930B048093AF
:102330000A0481E08093160490E080E0089584EF21
:102340009FEF08958F929F92AF92BF92CF92DF92AC
:10235000EF92FF920F931F93CF93DF9300D000D0A3
:1023600000D01F92CDB7DEB71A86198618861F8255
:102370001E821D821C821B821A8219828091160481
:1023800007EF1FEF882309F49CC08E010D5F1F4FDC
:102390009E012B5F3F4FAE01495F5F4FBE01675FFC
:1023A0007F4F90E080E00E9493218C01009721F004
:1023B0000596029708F0DBC029853A85211531057D
:1023C00009F402C1ED80FE804B815C81B701640F8E
:1023D000751F8F8198858617970708F4F5C0E20E60
:1023E000F31ED7019C91903C09F07FC0423051050B
:1023F00008F47BC011968C914091140450911504FF
:10240000452B09F49CC0913F08F071C02CE1290FC5
:102410002D3008F48BC02DE2290F203108F489C03B
:10242000903C21F48150823008F483C088E3890F06
:102430008B3008F481C09EEFC92E90E1D92EE8EED2
:10244000F0E16D817E81AE014F5F5F4F89859A8596
:1024500019955C01C114D104A1F189809A8081147D
:10246000910479F18B819C818815990508F487C0C6
:1024700010E000E04B815C8170E060E0C7010E94E9
:10248000233501151105E9F449815A8169857A8559
:102490008D819E81680F791FC501F6011995E9802C
:1024A000FA800D811E812F81388549855A856FEF0D
:1024B0007FEF81E090E00E942E218C01892B09F0B2
:1024C00056C0C8012A960FB6F894DEBF0FBECDBF26
:1024D000DF91CF911F910F91FF90EF90DF90CF9000
:1024E000BF90AF909F908F90089580E085CF30E0AF
:1024F00020E0220F331FF901E85FFB4F0190F081CC
:10250000E02D309709F497CF892F90E01995009727
:1025100009F491CFDC011296ED91FC91139714967A
:10252000CD90DC90309709F08CCF1FC021E030E0D7
:10253000E0CF22E030E0DDCF23E030E0DACFD12C75
:10254000C12CE0EFF0E19F3F09F07BCFE091080460
:10255000F0910904309721F4C90104EF1FEF0CC07A
:102560008FEF90E019950097A9F604EF1FEF89858A
:102570009A85009709F4A5CF0E948223A2CF0E94DA
:102580005D228C0189859A850E94822370E060E03B
:10259000C4010E94F62198878F830E942B219E837D
:1025A0008D836F8178856115710559F0C8010E948E
:1025B0000E259A87898706EF1FEF892B09F058CFE0
:1025C00059CF08EF1FEF56CF08EF1FEFD0CF209164
:1025D0001604222319F020E00C94971B87EF9FEF3D
:1025E0000895809114049091150408950E941B2071
:1025F0000E94751FF5D0E8E0F4E088E0DF011D924D
:102600008A95E9F71092160490E080E008950C9402
:10261000D31D21E040E050E0BA010C94971B86E006
:1026200090E0FA019183808390E080E0089547E094
:1026300050E064EA72E049CEDF92EF92FF920F938E
:102640001F93CF93DF938A01EC01C60FD71FE09051
:102650001A04F0901B04D9800E944522D81619064E
:1026600078F082E090E0F801918380838EEF9FEF15
:10267000DF91CF911F910F91FF90EF90DF90089520
:10268000EF2841F482E090E0F8019183808384EFA9
:102690009FEFEECF89818093190490E00196F801B5
:1026A0009183808390E080E0E3CFCF93DF93EA01D2
:1026B0000E94841E882321F00E9452220E94851EBF
:1026C00082E090E0998388838BEF9FEFDF91CF9139
:1026D0000895CF93DF93EB0186E0FB0111928A9579
:1026E000E9F78FEF8883D8DD8983E7DD8A83E8DD2A
:1026F0009D838C83DF91CF910895CF93DF93EA017F
:102700000E94871E811109C082E090E0998388832E
:1027100085EF9FEFDF91CF91089590E080E0B7DDE6
:1027200081E090E09983888390E080E0F3CF0F937D
:102730001F93CF93DF93EA018C01060F171F0E94AE
:10274000871E81110BC082E090E09983888385EF1A
:102750009FEFDF91CF911F910F910895F801818133
:10276000823038F082E090E0998388838EEF9FEF8B
:10277000F0CF81E090E08BDD88E090E09983888362
:1027800090E080E0E6CFCF93DF930097D1F4EB01A8
:10279000FB01329686E0DF011D928A95E9F78FEF03
:1027A000888385E089831A820E9445228B830E9458
:1027B00044229D838C8381E08E838F83DF91CF9130
:1027C0000895DF91CF911ACD87E193E1909318049A
:1027D0008093170408958091170490911804089528
:1027E0001092180410921704089580911A04909181
:1027F0001B040895411105C06115710581059105FE
:1028000061F060931A0470931B0480931C049093EE
:102810001D0440931E0481E0089580E00895FF9216
:102820000F931F93CF93DF938A01EC01C60FD71F3D
:10283000F9800E944522F816190668F082E090E0BF
:10284000F801918380838EEF9FEFDF91CF911F91ED
:102850000F91FF9008956C817D818E819F814B81C6
:10286000C9DF811108C082E090E0F8019183808384
:1028700084EF9FEFEACF89818093190490E001965D
:10288000F8019183808390E080E0DFCFCF93DF93E6
:10289000EA01FC01E60FF71F64817581868197814B
:1028A0004381A8DF811109C082E090E09983888389
:1028B00084EF9FEFDF91CF91089581E090E09983BD
:1028C000888390E080E0F6CFEAE1F4E04081518136
:1028D00062817381480F511D611D711D40835183B9
:1028E000628373830895CF93C09119044C2F50E0F5
:1028F00060911A0470911B0401960E941A358C2F66
:10290000E3DF10921904CF910895009799F4809114
:102910001A0490911B042FEFFB012083892B59F09F
:102920002091190430E02F5F3F4F2417350719F429
:10293000CB01D9CF63CC0895009799F480911A0404
:1029400090911B042FEFFB012083892B59F02091DC
:10295000190430E02F5F3F4F2417350719F4CB01DE
:10296000C2CF4CCC089523E1AC01249FC001259F28
:10297000900D1124E0912304F0912404E80FF91F35
:10298000238134812250310981E02230310508F061
:1029900080E008950F931F93CF93DF930091250458
:1029A00010912604D0E0C0E080E00C171D0749F428
:1029B00091E0811190E0892FDF91CF911F910F91CC
:1029C00008958111F5CFCE01CEDF2196EECFA091F3
:1029D0002304B0912404109729F12091250430910B
:1029E000260482179307F0F453E1589F9001599FF2
:1029F000300D1124A20FB31FED91FC911197309768
:102A000089F012968C91681768F48DE0689FE00D4C
:102A1000F11D112480819181892B21F081E0928127
:102A2000491708F080E008959C0143E1429FC001EE
:102A3000439F900D1124E0912304F0912404E80FAA
:102A4000F91F8385823091F481E090E06581768181
:102A500040917102509172026417750711F490E071
:102A600080E0892B19F081E0232B09F080E00895A4
:102A7000FC01A081B1818DE0689FA00DB11D1124E2
:102A800013964D915C9185859685489F9001499F4D
:102A9000300D589F300D1124C9010196611103C0FA
:102AA000478144FD04960895EF92FF920F931F9380
:102AB000CF93DF93EA01FC01E60FF71F0281138138
:102AC000E480F5804F2D6E2DC80181DF81110DC08E
:102AD00082E090E0998388838EEF9FEFDF91CF9122
:102AE0001F910F91FF90EF900895C8013CDF88235C
:102AF00039F082E090E09983888388EF9FEFEECFF2
:102B00001093780200937702E0927902F0927A02B1
:102B100081E090E09983888390E080E0DFCFCF92DE
:102B2000DF92EF92FF920F931F93CF93DF937A017F
:102B3000EC01C60FD71FC0907702D09078020091A9
:102B4000790210917A02412F602FC60140DF811176
:102B500010C082E090E0F701918380838AEF9FEFBD
:102B6000DF91CF911F910F91FF90EF90DF90CF9069
:102B70000895C601F8DE882341F082E090E0F70175
:102B80009183808388EF9FEFEBCF4C815D816E81D5
:102B90007F819A8189818F3F41F082E090E0F70147
:102BA000918380838EEF9FEFDBCFE3E1EC9D90017B
:102BB000ED9D300D1124E0912304F0912404E20FE7
:102BC000F31F0190F081E02D2DE0029FE00DF11D3B
:102BD00011240190F081E02D27E0129FE00DF11DFE
:102BE0001124808391838B81828343835483658303
:102BF00076831F5F10937A0281E090E0F701918362
:102C0000808390E080E0ACCFEF92FF920F931F9310
:102C1000CF93DF937A018C01060F171FC091230415
:102C2000D0912404209781F021E030E0F8018281E6
:102C3000938140912504509126048417950710F044
:102C400030E020E0232B71F482E090E0F7019183E3
:102C500080838EEF9FEFDF91CF911F910F91FF90B7
:102C6000EF90089543E1489F9001499F300D112452
:102C7000C20FD31F78DE882341F082E090E0F70195
:102C80009183808388EF9FEFE6CFF801248135811F
:102C900020383105C8F687818111D6CF4181842F34
:102CA00090E08F7E009741F082E090E0F701918301
:102CB000808386EF9FEFCFCF4F833E832D83268186
:102CC00028871986223010F421E0288721E030E09F
:102CD000F70131832083BFCF88E090E0FA01918330
:102CE000808390E080E00895FB018FEF808381E195
:102CF00081838FEF9FEF9383828380E890E09583B9
:102D00008483168217820895FB018FEF808391E000
:102D1000918382839383848384E3858381E090E03D
:102D2000978386830895DF92EF92FF920F931F930C
:102D3000CF93DF93EA01FC01E60FF71F8181813019
:102D400071F082E090E0998388838FEF9FEFDF91AD
:102D5000CF911F910F91FF90EF90DF9008958281A6
:102D60009381D4802581E680F7800091230410911F
:102D700024040115110539F482E090E099838883D9
:102D80008CEF9FEFE4CF40912504509126048417E7
:102D9000950738F082E090E0998388838EEF9FEF6B
:102DA000D6CF892B39F082E090E09983888386EF33
:102DB0009FEFCDCF8D2D8D7FB1F72130A1F781E031
:102DC000D11006C091E0E916F10431F080E004C0B2
:102DD000E2E0EE16F104D0F3882329F390E080E0DE
:102DE000C2DD882339F082E090E09983888388EF00
:102DF0009FEFADCFF801D38681E08487F686E58624
:102E0000108A178681E090E09983888390E080E0C3
:102E10009ECF4CE050E06EEC72E057CA8F929F92CA
:102E2000BF92CF92DF92EF92FF920F931F93CF93B7
:102E3000DF93EA01FC01E60FF71F82819381048191
:102E4000B580E0912304F0912404309791F482E05E
:102E500090E0998388838CEF9FEFDF91CF911F9152
:102E60000F91FF90EF90DF90CF90BF909F908F9049
:102E7000089520912504309126048217930738F095
:102E800082E090E0998388838EEF9FEFE6CF23E185
:102E9000289F6001299FD00C1124EC0DFD1DE080BE
:102EA000F180E114F10499F28281081748F78DE06E
:102EB000089F80011124E00EF11EF70180819181AD
:102EC000892B29F6BB20E1F2F7E0BF9E40011124D7
:102ED000C4010E944923F70191838083E091230478
:102EE000F0912404EC0DFD1D0190F081E02DE00F28
:102EF000F11F80819181009739F482E090E09983FD
:102F000088838DEF9FEFA9CFA40170E060E00E945D
:102F100023358091230490912404C80ED91EF60114
:102F200080819181080F191FF801B28281E090E041
:102F30009983888390E080E090CFAF92BF92CF9248
:102F4000DF92FF920F931F93CF93DF93EA01FC016F
:102F5000E60FF71F82819381F48000912304109182
:102F600024040115110581F482E090E0998388839F
:102F70008CEF9FEFDF91CF911F910F91FF90DF902A
:102F8000CF90BF90AF9008952091250430912604F2
:102F90008217930738F082E090E0998388838EEF60
:102FA0009FEFE8CF2FEF2F0D2C3FA8F723E1289FAD
:102FB0006001299FD00C11240C0D1D1DF80180818A
:102FC0009181892B89F6FDE0FF9E50011124C501F6
:102FD0000E944923F80191838083E0912304F091BA
:102FE0002404EC0DFD1D80819181009739F482E06D
:102FF00090E0998388838DEF9FEFBCCFA50170E0AF
:1030000060E00E942335E0912304F0912404EC0D4C
:10301000FD1DF28281E090E09983888390E080E05A
:10302000A9CFCF92DF92EF92FF920F931F93CF938E
:10303000DF93860F971FFC01028113818091230487
:1030400090912404892B81F082E090E0FA01918331
:1030500080838CEF9FEFDF91CF911F910F91FF90B5
:10306000EF90DF90CF900895C801B0E0A0E0019705
:10307000A109B1098F3F9F4FA105B10540F082E042
:1030800090E0FA01918380838EEF9FEFE4CF7A0185
:1030900083E1809F6001819FD00C1124C6010E94B2
:1030A0004923EC01009741F482E090E0F70191831D
:1030B00080838DEF9FEFCFCFA60170E060E00E948C
:1030C0002335D0932404C093230410932604009343
:1030D000250490E080E02FEF3FEF41E061E070E0F9
:1030E0008017910741F481E090E0F701918380839C
:1030F00090E080E0B0CF3A8B298B1B864C877E878F
:103100006D87188A1F8601966396EACFEF92FF9229
:103110001F93CF93DF93EC0110E0F12CE12C6A8137
:103120001617B0F083E0689FB0011124AE014F5E26
:103130005F4FC7010E94AE23009721F02FEF3FEFB2
:103140003A8B298BDF91CF911F91FF90EF900895DB
:10315000612FCE018DDC61E070E00E94F621E8165F
:10316000F90608F47C011F5FDACFF894209121045E
:103170003091220481E02115310509F080E0232BF4
:1031800009F0789408952F923F924F925F926F9238
:103190007F928F929F92AF92BF92CF92DF92EF92E7
:1031A000FF920F931F93CF93DF933C01660E771E20
:1031B000F301828193814C01B12CA12CC091230495
:1031C000D0912404209769F021E030E0609125043B
:1031D000709126048617970710F030E020E0232B2B
:1031E000D1F482E090E0FA01918380838EEF9FEF2B
:1031F000DF91CF911F910F91FF90EF90DF90CF90D3
:10320000BF90AF909F908F907F906F905F904F9006
:103210003F902F90089580927B0290927C02A09222
:103220007D02B0927E0263E1689F9001699F300D3C
:103230001124C20FD31FF3018181833040F082E05B
:1032400090E0FA019183808386EF9FEFD1CF2A012E
:103250002B813C81232BF1F4288139819F8191FFBF
:103260002EC0232B09F46FC0209128049A81422F8D
:10327000490F5527551FBA0141E050E061387105EB
:1032800014F050E040E0452B09F45DC02A87920F0E
:10329000909328048150823008F481C066DF88232F
:1032A00009F4D8C0F3018181813009F48DC008F49C
:1032B0007BC0823009F4C6C090E080E0ADC0232B13
:1032C00009F441C0209127049A81E22FE90FFF27DA
:1032D000FF1F41E050E0ED3FF10514F050E040E009
:1032E000452B89F12A87920F90932704D3CFA08191
:1032F000B181A20FB31F11966C91060F111D01969B
:10330000295F3F4F8417950794F38D859E85089F0D
:103310001001099F300C189F300C1124C114D104E6
:10332000D1F48F8184FF17C00E944422F5E02F0E54
:10333000311C21E08215930508F420E0A701435FCA
:103340005F4F21110EC082E090E0F20191838083F3
:1033500087EF9FEF4DCF0E9444222FEF221A320AAF
:10336000E8CF88819981E80EF91EF7011483038361
:10337000FFEFCF1ADF0A7A018A818C151D0409F04C
:103380000CF48CCFE881F981EE0DFF1D428150E0F5
:1033900030E020E010E000E090E080E0B3CFF12CDE
:1033A000E12CD12CC12CE8CF81E090E09C838B8371
:1033B000F1DA882309F480CF81E090E00E94471180
:1033C00080E40E94551178CF89899A89019661F02D
:1033D00083E090E09C838B8382E090E00E94471121
:1033E00080E40E944F1168CF8D819E8120917102EF
:1033F0003091720282179307D1F460917502709137
:103400007602AE014F5E5F4F80917302909174021D
:103410000E94CD240097E1F2789422E030E0F2019E
:1034200031832083892B99F08DEF9FEFE1CE89289E
:103430008A288B2869F6059758F6CE0167DE188A28
:103440001F86E8CF82E090E09C838B8335CF90E0AD
:1034500080E0CECE82E090E0F2019183808385EF20
:103460009FEFC6CE8F929F92AF92BF92CF92DF9284
:10347000EF92FF920F931F93CF93DF93EA018C019A
:10348000060F171FF8018181833098F082E090E0E9
:103490009983888386EF9FEFDF91CF911F910F91E2
:1034A000FF90EF90DF90CF90BF90AF909F908F9064
:1034B00008958091230490912404892B61F081E088
:1034C00090E02091250430912604232B11F490E004
:1034D00080E0892B39F482E090E0998388838EEF35
:1034E0009FEFDACF42DE882309F4E0C0F801818142
:1034F000813009F496C0E8F0823099F420912504D7
:1035000030912604E0912304F091240490E080E0BF
:1035100041E050E02817390709F0BEC03BDA8111BD
:1035200017C0789481E090E09983888390E080E0F0
:10353000B3CF2091250430912604E0912304F0912B
:10354000240490E080E041E050E02817390741F47E
:1035500081E090E00E94471180E40E945511E1CF84
:1035600063817481672B11F05483438301967396B2
:10357000ECCFE0912304F0912404E00FF11F2381AC
:10358000348122303105D9F4218932892F3F3F4FD0
:10359000B1F4258136814091710250917202241755
:1035A000350761F5AF014F5E5F4F60917502709115
:1035B000760280917302909174020E94CD24EFEF05
:1035C000CE1ADE0AEE0AFE0A0D5E1F4F4091250458
:1035D0005091260470E060E0C416D506E606F706B2
:1035E00044F5009731F27894892B09F49BCF82E05F
:1035F00090E0998388838DEF9FEF4ECFC114D10463
:10360000E104F104E1F625303105C8F6CF017EDD95
:10361000E0912304F0912404E00FF11F108A178633
:10362000CECF10E000E090E080E0C12CD12C7601FC
:10363000CDCF0097C1F610E000E0812C912C540111
:1036400083E0E82EF12C1AC0E0912304F0912404C9
:10365000E00FF11F83819481029749F4F482E382A1
:1036600082E090E00E94471180E40E944F11FFEF3A
:103670008F1A9F0AAF0ABF0A0D5E1F4F8091250463
:1036800090912604B0E0A0E088169906AA06BB0631
:10369000DCF290E080E0A7CF638174816230710535
:1036A00011F4548343830196739634CF82E090E003
:1036B0009983888385EF9FEFEFCE0097B9F48FEF62
:1036C000FB01808320917B0230917C0243E1429F89
:1036D000C001439F900D1124E0912304F091240434
:1036E000E80FF91F8285FB01818308950C94FE1079
:1036F00088E090E0FA019183808390E080E0089573
:103700001092220410922104E3E2F4E086E0DF014B
:103710001D928A95E9F789E097E1909320048093C0
:103720001F04089580911F049091200408952F9202
:103730003F924F925F926F927F928F929F92AF9241
:10374000BF92CF92DF92EF92FF920F931F93CF938E
:10375000DF93CDB7DEB72F970FB6F894DEBF0FBE5D
:10376000CDBFF894E0912104F09122043196F093BA
:103770002204E09321047894409023045090240480
:103780004114510409F40CC2E0912504F09126047F
:10379000EF2B09F405C22D8749875A876B877C87F1
:1037A00098878F831201B12CA12C10E000E080914A
:1037B000250490912604A816B90618F401151105E0
:1037C00029F1F8948091210490912204019790931B
:1037D0002204809321047894C8012F960FB6F894A0
:1037E000DEBF0FBECDBFDF91CF911F910F91FF9034
:1037F000EF90DF90CF90BF90AF909F908F907F9091
:103800006F905F904F903F902F9008957101E41852
:10381000F508D10117968C91179781FD54C0139626
:103820008D919C911497039709F04DC015968D9139
:103830009C91EF81F8858E179F0709F044C0B50170
:1038400090E080E07FD48A83209123043091240487
:103850003D832C833D85332309F44CC04C815D812D
:10386000452B09F49AC18091250490912604A8164D
:10387000B90608F092C1C501D7D88823E9F06C8158
:103880007D816E0D7F1D7D836C83DB011F968D9185
:103890009C91892B89F0D12CC12CF12CE12CAC818D
:1038A000BD8112968C9112978E151F0409F094F425
:1038B00050961C921E921F972A81222321F0B50157
:1038C00090E080E041D43FEFA31AB30A43E1240E15
:1038D000311C6DCFAC81BD81ED91FC91EC0DFD1DD6
:1038E000858196810FD7BFEFEB1AFB0AEDE0CE0E74
:1038F000D11CD5CFEC81FD81309709F44EC1809168
:10390000250490912604A816B90608F046C1EE0DCC
:10391000FF1DFF87EE87C50187D88B83882339F188
:10392000AE85BF851F968D919C915097019621E0A1
:103930001D964D915C918417950709F020E02E8328
:103940001982712C10E000E0AE85BF8512968C9133
:10395000781608F45DC0EE85FF858785908901960D
:10396000658576850E94C334908B8787A5CFB1E0AB
:10397000BE83E6CF992493946BC08BD6F6019683D1
:10398000858382C0D601ED90FC90B7E06B9EE00C81
:10399000F11C1124F7016381748180818F3F61F1F3
:1039A00021E030E002C0220F331F8A95E2F7C901FF
:1039B000092E000CAA0BBB0BFB01408151816281D7
:1039C000738184239523A623B72321E0892B8A2B97
:1039D0008B2B09F420E0D4012C93D70111968C9104
:1039E000F60123853485820F932F911D880E991E31
:1039F0001486138663949BC0418150E0C4010E94E9
:103A00001A35EBCF998206EF1FEFC5C01982C3C0EC
:103A1000F981F111A0CFEDE07E9E70011124AE85F9
:103A2000BF85CD90DC90CE0CDF1C15D49D838C839C
:103A3000BB81BB2309F49ECF81E0EE85FF852785FE
:103A40003089232B09F080E0982E882309F458C090
:103A5000672D8E859F850CD8D60118969C938E93E2
:103A6000179761E070E0C2D4EE85FF852189328925
:103A70002F3F320709F481CFBC01C901CFD7D6014E
:103A800016969C938E931597D60115968D919C91C1
:103A90001697009709F4B6CFEC81FD818E0F9F1F1A
:103AA0001A969C938E931997AE85BF85ED91FC91E4
:103AB0001197EE0EFF1EF7012185328514861386BD
:103AC0001A968C91870DD9018D93711016C0EE85D1
:103AD000FF85878184FF11C049855A856B857C8568
:103AE000F9014183528363837483F701838594854D
:103AF0000496A80FB91F14861386F701B287A18711
:103B0000D60115968D919C911697892B09F443C087
:103B1000EE85FF8525813681809171029091720238
:103B20002817390779F019968D909C90612CD60151
:103B300012968C911297681608F424CF1A969C92CC
:103B40008E921997BE81BB2309F460CF61E070E0CB
:103B5000F601878190854AD4D6011796ED90FC90A6
:103B6000189715964D915C91E1E0F0E0BA81BB2386
:103B700011F0F0E0E0E00C811D819C01B501882787
:103B800099278E1B9F0B6AD38C01892B21F0F6019C
:103B900085819681B7D57394D7CE0FEF1FEF8CCE6A
:103BA00010E000E00ECE2F923F924F925F926F9204
:103BB0007F928F929F92AF92BF92CF92DF92EF92BD
:103BC000FF920F931F93CF93DF93809123049091E3
:103BD000240410E000E0892BA9F0C7DA0AEF1FEFF8
:103BE000882381F02090250430902604C09123047E
:103BF000D0912404D12CC12C10E000E02C143D0401
:103C0000A9F47894C801DF91CF911F910F91FF9093
:103C1000EF90DF90CF90BF90AF909F908F907F906C
:103C20006F905F904F903F902F900895C6010E9433
:103C30001415882309F18B819C810397E9F48F8502
:103C40009889892BC9F0B60190E080E07BD221E011
:103C500030E0882311F030E020E044245524421A5B
:103C6000530AB12CA12C912C812C8A81881519041E
:103C700009F038F4188A1F864FEFC41AD40A6396E5
:103C8000BDCFE881F981EA0DFB1D85819681892BE5
:103C9000A1F161E070E087819085A8D33C01DBD27F
:103CA0008C01E881F981EA0DFB1D818592852581D2
:103CB0003681200F311FAC01421B530B9A01478103
:103CC0005085421B530B70E060E00E942335E88171
:103CD000F981EA0DFB1DE780F0844581568193014F
:103CE000B601C201BBD28C01892B39F0E881F98180
:103CF000EA0DFB1D8581968105D55FEF851A950A32
:103D00008DE0A80EB11CB1CF30CA789408952F92DF
:103D10003F924F925F926F927F929F92AF92BF922B
:103D2000CF92DF92EF92FF920F931F93CF93DF9387
:103D300000D000D0CDB7DEB7009123041091240449
:103D4000992493940115110509F43EC0A09025040F
:103D5000B09026040ADA982E8823B1F11092240438
:103D60001092230410922604109225041092270426
:103D7000109228048FEF9FEFDC0180937B029093D9
:103D80007C02A0937D02B0937E0278947FD31E8341
:103D90000D83C12CD12C7601C501B0E0A0E0898350
:103DA0009A83AB83BC8322242A94322C89819A8102
:103DB000AB81BC81C816D906EA06FB06F4F0C8013F
:103DC000A1D480E40E945511892D26960FB6F8944F
:103DD000DEBF0FBECDBFDF91CF911F910F91FF903E
:103DE000EF90DF90CF90BF90AF909F907F906F90BB
:103DF0005F904F903F902F900895AD81BE811596B2
:103E00008D919C91169720917102309172028217C8
:103E10009307D1F451968D919C91EED5ED81FE8161
:103E200080819181B12CA12C412C512C3201892B04
:103E300089F5BFEFCB1ADB0AEB0AFB0AED81FE81A5
:103E40007396FE83ED83B2CFC114D104E104F10473
:103E500029F7059718F7ED81FE81818992898F3FB7
:103E6000980709F029D5AD81BE8152963C922E92D9
:103E70005197D4CF8A0D9B1DDC018D919C910097A9
:103E800009F040D4BFEF4B1A5B0A6B0A7B0AEDE0E6
:103E9000AE0EB11CAD81BE818D919C911197129691
:103EA0004C9150E070E060E04416550666067706D7
:103EB0000CF328D4BECFCF93DF93EA0128DF811122
:103EC00009C082E090E09983888385EF9FEFDF91BE
:103ED000CF91089581E090E00E94471181E090E049
:103EE0009983888390E080E0F2CF11DF1092200464
:103EF00010921F04089542E050E066E173E00C94D4
:103F00006511FF920F931F93CF93DF938A01EC010A
:103F1000C60FD71FF980B9D20897F816190671F0A5
:103F200068F082E090E0F801918380838EEF9FEF4C
:103F3000DF91CF911F910F91FF9008956C817D814A
:103F40008E819F814B810E94FA13811108C082E00B
:103F500090E0F8019183808384EF9FEFE9CFF980AF
:103F60000E94F5134F2D50E0BE01685F7F4F0E9405
:103F70001A3589810E94641481E090E0F8019183F0
:103F8000808390E080E0D4CFDF92EF92FF920F9396
:103F90001F93CF93DF938A01EC01C60FD71F0E94B6
:103FA000F5137C01D98071D2DD2059F0029721E010
:103FB00030E0D816190619F010F030E020E0232B7D
:103FC00079F482E090E0F801918380838EEF9FEF97
:103FD000DF91CF911F910F91FF90EF90DF900895A7
:103FE000EF2841F482E090E0F8019183808384EF30
:103FF0009FEFEECFF9800E94F5134F2D50E0BE01E8
:104000006E5F7F4F0E941A3589810E94641481E09F
:1040100090E0F8019183808390E080E0D9CF8BE736
:104020009FE190932A0480932904089580912904A4
:1040300090912A0408950895FC01118210829383BF
:1040400082830895DB011D921C92DC011296ED9192
:10405000FC9113977183608313967C936E931297F0
:104060000895FC0180819181DB018D939C93A08157
:10407000B181109741F08D919C9191838083892B20
:1040800011F4F383E2830895FC0180819181DB01C7
:104090008D939C93892B11F4738362837183608366
:1040A0000895FC0111821082938382830895CF9337
:1040B000DF931F921F92CDB7DEB71A821982F89450
:1040C000BE016F5F7F4F80E394E0CBDF89819A81EF
:1040D000009709F017D389819A81892B89F7BE014E
:1040E0006F5F7F4F84E394E0BCDF89819A81009702
:1040F00009F008D389819A81892B89F778940F90E8
:104100000F90DF91CF910895CF93DF931F921F926D
:10411000CDB7DEB71A821982F894BE016F5F7F4F68
:104120008CE294E09EDF89819A81009709F0EAD2BF
:1041300089819A81892B89F778940F900F90DF916C
:10414000CF91089581E0089590E080E00895EF9286
:10415000FF920F931F93CF93DF931F921F92CDB7C0
:10416000DEB71A82198280912B0407EF1FEF882394
:10417000A1F1F894BE016F5F7F4F84E394E071DF9B
:10418000789489819A81EE24E394F12C892B51F45F
:10419000F894BE016F5F7F4F80E394E062DF789414
:1041A000F12CE12C89819A810EEF1FEF0097A9F085
:1041B000FC014281538164E070E076D68C01892B4A
:1041C00061F0F89469817A81C701880F991F880F7F
:1041D000991F805D9B4F58DF7894C8010F900F9016
:1041E000DF91CF911F910F91FF90EF9008950F9362
:1041F0001F93CF93DF9300D01F92CDB7DEB71C8201
:104200001B821A82198280912B0407EF1FEF8823EB
:10421000C1F0AE014D5F5F4F64E070E0CE010196EA
:10422000B6D68C01892B69F4E981FA818B819C8156
:1042300093838283F89469817A818CE294E002DF2F
:104240007894C8010F900F900F900F90DF91CF914D
:104250001F910F910895BBD7049608958F929F9256
:10426000AF92BF92CF92DF92EF92FF920F931F9384
:10427000CF93DF931F921F92CDB7DEB71A821982B8
:10428000BC016F5F7F4F6330710598F0AA24AA9438
:10429000BA2CC5010F900F90DF91CF911F910F9114
:1042A000FF90EF90DF90CF90BF90AF909F908F9056
:1042B00008954115510551F3480159018A016C01D6
:1042C000CADF8815990511F7E114F104F9F28E0D92
:1042D0009F1DA816B906D0F280912B048823F1F017
:1042E000F894B501645071099701AE014F5F5F4FBB
:1042F000C8010496E1D65C01892B71F489819A8109
:10430000F80193838283C601880F991F880F991F34
:10431000B801805D9B4F96DE7894BBCF87EFA82EC7
:10432000BB24BA94B6CFAF92BF92CF92DF92EF92F6
:10433000FF920F931F93CF93DF931F921F92CDB7DE
:10434000DEB71A821982892B09F047C06115710501
:1043500009F443C04115510509F43FC02115310549
:1043600009F43BC001151105C1F180912B0488238C
:10437000B9F179016A015B01F894BE016F5F7F4F6B
:104380008CE294E06EDE789489819A81009759F1ED
:10439000DC0112966D917C91A8010496A6D68C0141
:1043A000E981FA81D501ED93FC9382819381049692
:1043B000F601918380834FDFD7018D939C93C801D1
:1043C0000F900F90DF91CF911F910F91FF90EF9081
:1043D000DF90CF90BF90AF9008950FEF1FEFEFCF1A
:1043E00007EF1FEFECCF0EEF1FEFE9CFCF93DF9377
:1043F000EC01672B71F4F4D68C179D0760F0E7D6BB
:104400002496C80FD91FE6D68C0F9D1FDF91CF9140
:104410000895E3D6F1CF90E080E0F8CF0F931F939B
:10442000CF93DF9320912B0421112BC08B01EC0142
:1044300080E394E001DE84E394E0FEDD8CE294E02E
:10444000FBDD97D00097C1F4CBD670E060E0CEDF03
:104450004FE752E062E070E081D1009769F480910B
:104460007F0290918002CED6B801CE0103D500978D
:1044700019F421E020932B04DF91CF911F910F912C
:10448000089584EF9FEFF8CFA8C6AAC6CF93DF9315
:10449000AAD6EC01892B11F40ADE36DECE01DF91BB
:1044A000CF910895CF93DF939ED6EC01892B09F429
:1044B000FEDDCE01DF91CF91089580917F02909132
:1044C00080020895CF93DF9380912B04D0E0C0E069
:1044D0008823D1F09CD6EC01892BB1F4E8DD14DE01
:1044E00080917F0290918002E7D1E8D2EC01892B84
:1044F00059F480E394E0D5DD84E394E0D2DD8CE2EE
:1045000094E0CFDD10922B04CE01DF91CF9108957E
:10451000EF92FF920F931F93CF93DF93EC017A01F9
:104520008B010F5F1F4F0E9DA0010F9D500D1E9D13
:10453000500D112470E060E00E94233590E080E08F
:10454000F0E0E0E02FEFE816F90639F4DF91CF91C3
:104550001F910F91FF90EF9008951A82198228837E
:10456000309711F0D283C1830196FE01C00FD11F95
:10457000EACFCF92DF92EF92FF920F931F93CF93E8
:10458000DF930DE315E00C7F43E050E061E872E05B
:1045900087E892E01CD481E8E82E82E0F82E97E8C4
:1045A000C92E92E0D92EC4EAD5E0D7014D915D9194
:1045B0007D01F601619171916F01198308835D831B
:1045C0004C835B834A837F836E839B012F5F3F4FC6
:1045D000249FC001259F900D349F900D1124998731
:1045E00088870115110511F0C80192DF888599852A
:1045F000080F191F2A96F7E8EF16F2E0FF06A9F652
:10460000EAE3F4E080E091E0DF019C011D9221509B
:104610003040E1F710923904109238041092C3052B
:104620001092C2051092C7051092C6051092C505DA
:104630001092C4051092C9051092C8051092CB05BE
:104640001092CA051092CD051092CC051092D1059A
:104650001092D0051092CF051092CE051092D3057E
:104660001092D2051092D5051092D4051092A10592
:104670001092A0051092A3051092A20590E080E090
:10468000DF91CF911F910F91FF90EF90DF90CF902E
:1046900008950097F1F0F894A7E8B2E0E4EAF5E0B5
:1046A00030E020E04D915D9148175907A8F0428114
:1046B00053814115510581F08AE0829FF001839F6B
:1046C000F00D1124EC55FA4F80819181009759F437
:1046D000789490E080E008952F5F3F4F3A96233022
:1046E000310501F7F5CFDC0111966D917C91718355
:1046F00060834150510953834283FC012193CF01D0
:1047000078940895009749F1DC018E91853041F449
:10471000E091A205F091A3053097F9F0CD0119942D
:104720008530D8F4282F30E0F8948FEF8C938AE00E
:10473000829FF001839FF00D1124EC55FA4F808188
:10474000918112969C938E931197B183A08382815D
:10475000938101969383828378940895CF92DF9218
:10476000EF92FF920F931F93CF93DF939C018DE302
:1047700094E08C7F4115510509F49BC0211531054A
:1047800009F497C06115710509F493C07A01AB0172
:10479000B9016D5F7F4F6C7F9B012F5F3F4F249F5F
:1047A0008001259F100D349F100D1124F894209145
:1047B000C2053091C305232B59F42091CA053091CD
:1047C000CB052115310569F12017310708F058C0D4
:1047D0002091CC053091CD05232B91F42091CA0571
:1047E0003091CB05820F931F2091D4053091D505D0
:1047F0002115310509F441C02017310708F056C0D2
:104800007894CFEFDFEF86EF9FEFF701D183C0837E
:10481000DF91CF911F910F91FF90EF90DF90CF909C
:104820000895C3E0D0E0C0903804D09039042DEF53
:1048300030E02C193D092017310710F32AE02C9F96
:10484000F0012D9FF00D1124EC55FA4F91838083D8
:10485000558344835383428377836683118700871C
:10486000009709F055DE0C0D1D1D109339040093BF
:104870003804789490E080E0C8CFC4E0D0E0D3CF93
:10488000C3E0D0E02AE02C9FF0012D9FF00D112411
:10489000EC55FA4F9183808355834483538342833D
:1048A00077836683009729F333DEE3CFC4E0D0E05B
:1048B000E9CF8FEF9FEFACCF9C010397029708F0F1
:1048C00069C0F89484E09AE0482F50E02417350737
:1048D0000CF44DC091E08AE0829FF001839FF00DBF
:1048E0001124EC55FA4F1182108215821482138222
:1048F0001282178216829923B1F18091C20590919C
:10490000C305892BA9F42091CA053091CB05211547
:10491000310571F08091380490913904821B930B1A
:1049200090933904809338041092CB051092CA05F5
:104930008091CC059091CD05892BA9F42091D405C7
:104940003091D5052115310571F080913804909191
:104950003904821B930B909339048093380410928E
:10496000D5051092D405789490E080E00895949F46
:10497000F001959FF00D1124EC55FA4F40815181C3
:10498000452B31F440855185452B11F481509CCF46
:1049900090E0A1CF8FEF9FEF08954115510549F1A8
:1049A000009739F16115710521F1F8942091A00566
:1049B0003091A105232BB9F42091A2053091A305D4
:1049C000232B89F49093A1058093A0057093A305F0
:1049D0006093A205789425E030E090E080E0FA0151
:1049E00031832083089578942FEF3FEF86EF9FEF78
:1049F000F6CF8FEF9FEF0895059769F4F894109222
:104A0000A1051092A0051092A3051092A20578941A
:104A100090E080E008958FEF9FEF08956115710594
:104A200019F4F0E0E0E011C08530910581F4E091E7
:104A3000A005F091A1053097A1F3CB01019619953E
:104A4000009779F3FC0185E08193CF0108959C01E3
:104A5000235031092230310520F72AE0289FD00168
:104A6000299FB00D1124AC55BA4F2D913C9111974F
:104A7000232BB9F216962D913C91179726173707DD
:104A800080F2F89412962D913C91139721153105DF
:104A900029F0ED91FC911197309711F47894C1CFE2
:104AA0004181528111965C934E93215031091396A6
:104AB0003C932E93129781937894C7CFEAE3F5E065
:104AC00086E6DF011D928A95E9F7EAE3F4E080E0EB
:104AD00091E0DF019C011D9221503040E1F71092DE
:104AE000390410923804E4EAF5E082E3DF011D9214
:104AF0008A95E9F7E0EAF5E084E0DF011D928A9506
:104B0000E9F790E080E00895CF93DF93C0918D02A4
:104B1000D0918E02CF3FDC0759F422D490938E02BD
:104B200080938D0297FF09C0D0938E02C0938D02AF
:104B300084EF9FEFDF91CF91089590E080E0FACF6E
:104B40008230910528F48093D60590E080E00895A6
:104B50008FEF9FEF08954F925F926F927F92AF9287
:104B6000BF92CF92DF92EF92FF920F931F93CF935A
:104B7000DF931F921F92CDB7DEB71A82198200977A
:104B800009F479C06115710509F475C020918D0291
:104B900030918E0207EF1FEF2F3F3F4F09F445C0C2
:104BA0006B015C01412C512C3201F12CE12C10E005
:104BB00000E09E012F5F3F4FA6014E195F09B5012E
:104BC0006E0D7F1D80918D0290918E0228D4892BCD
:104BD00009F04BC089819A81009741F4E114F104F6
:104BE00029F42091D605222309F442C0E80EF91ECB
:104BF000EC14FD04D0F480E8481684E858068EE1F1
:104C00006806710420F560E070E0CB010E94D42FAB
:104C10002AE0420E511C611C711C0A3F4FEF140721
:104C200021F0043F8FEF1807A1F4C8010F900F90F7
:104C3000DF91CF911F910F91FF90EF90DF90CF9078
:104C4000BF90AF907F906F905F904F90089501EF6D
:104C50001FEF81E090E0013F2FEF120711F090E08D
:104C600080E0892B09F4A5CFE0CF04EF1FEFDDCF63
:104C70000AEF1FEFDACF0FEF1FEFD7CF4F925F9200
:104C80006F927F92AF92BF92CF92DF92EF92FF929C
:104C90000F931F93CF93DF931F921F92CDB7DEB771
:104CA0001A821982009709F479C06115710509F417
:104CB00075C020918D0230918E0207EF1FEF2F3FBC
:104CC0003F4F09F445C06B015C01412C512C32016E
:104CD000F12CE12C10E000E09E012F5F3F4FA60178
:104CE0004E195F09B5016E0D7F1D80918D02909167
:104CF0008E024BD3892B09F04BC089819A81009792
:104D000041F4E114F10429F42091D605222309F499
:104D100042C0E80EF91EEC14FD04D0F480E44816FD
:104D200082E458068FE06806710420F560E070E0C8
:104D3000CB010E94D42F2AE0420E511C611C711C31
:104D40000E3F4FEF140721F0043F8FEF1807A1F437
:104D5000C8010F900F90DF91CF911F910F91FF909D
:104D6000EF90DF90CF90BF90AF907F906F905F906B
:104D70004F90089502EF1FEF81E090E0023F2FEF88
:104D8000120711F090E080E0892B09F4A5CFE0CF65
:104D900004EF1FEFDDCF0EEF1FEFDACF0FEF1FEFA6
:104DA000D7CF80918D0290918E028F3F980749F066
:104DB000CFD2892B49F48FEF9FEF90938E0280938F
:104DC0008D0290E080E0089584EF9FEF0895CF92E8
:104DD000DF92EF92FF920F931F93CF93DF9321E027
:104DE0004115510509F020E04150510921112CC015
:104DF000DC01FB01D12CC12C21E022C03FEFC31A02
:104E0000D30A7D010D911D91E701EA80FB80E01638
:104E1000F106A8F420813181E280F380F182E08202
:104E200033832283ED90FC9011979D01225031092C
:104E3000E901F982E88211961C930E9320E03296E4
:104E4000C416D506D8F2D2CFDF91CF911F910F9122
:104E5000FF90EF90DF90CF900895FC01680F791FCD
:104E600090E080E0E617F70709F408952191820F9A
:104E7000911DF8CF2091D705211113C045DE009771
:104E800091F41092DD051092DC051092DB05109272
:104E9000DA051092D9051092D80521E02093D705A4
:104EA000089584EF9FEF0895AF92BF92CF92DF9263
:104EB000EF92FF920F931F93CF93DF93009709F424
:104EC00060C04630510508F45CC02091D705C7EF9B
:104ED000DFEF222309F449C08C01060F171FF801E8
:104EE000C080D180C114D10409F44EC096012A5F5C
:104EF0003F4F4217530708F447C07C018091DC05FF
:104F00009091DD0593838283B6016C5F7F4F5801DA
:104F1000A60EB71EC801A1DFF5019183808364E06E
:104F200070E0C80118DEEC01892BF9F481E090E013
:104F300007DEB601C80104960EDEEC01892B91F460
:104F400062E070E0C50107DEEC01892B59F4C7016E
:104F5000D9DB8091DC059091DD0501969093DD050C
:104F60008093DC0590E080E0EBDDCE01DF91CF9116
:104F70001F910F91FF90EF90DF90CF90BF90AF9077
:104F80000895CFEFDFEFF1CFC9EFDFEFEECF6F92F4
:104F90007F928F929F92AF92BF92CF92DF92EF92C9
:104FA000FF920F931F93CF93DF9300D01F92CDB743
:104FB000DEB7009709F47AC04115510509F476C0AF
:104FC0002091D70507EF1FEF222309F44DC03A01C6
:104FD0007B015C0164E070E0CE0101964FDE8C0144
:104FE000892B09F041C009811A810115110509F4C5
:104FF0005AC0480186E0880E911CB701680D791DE2
:1050000080918F029091900209DD6C01009709F464
:1050100050C0A70170E060E00E94233589819A8129
:10502000AB81BC81EC0CFD1CF70181939193A193A2
:10503000B1937F0181E090E083DDB801C7011EDEFE
:10504000892B31F562E070E0C701800F911F16DEF9
:105050008C01892BE9F490E080E072DDF501D182CA
:10506000C082F30191828082C8010F900F900F904F
:105070000F90DF91CF911F910F91FF90EF90DF90F4
:10508000CF90BF90AF909F908F907F906F9008953A
:1050900090E080E055DDF50111821082F30111826C
:1050A0001082C6012FDB09EF1FEFDECF0FEF1FEFDE
:1050B000DBCF06EF1FEFD8CF0097A1F041155105C8
:1050C00089F02115310571F0F90136966E177F07C9
:1050D00048F0DC012D933C93DA01ED93FC9390E0D2
:1050E00080E008958FEF9FEF0895AF92BF92CF9227
:1050F000DF92EF92FF920F931F93CF93DF9300976E
:1051000009F45FC04115510509F45BC065307105B4
:1051100008F457C02091D705C7EFDFEF222391F1A4
:10512000DC01CD90DC9011971296ED91FC919601E7
:105130002A5F3F4FC9EFDFEF2617370719F5C091F8
:10514000D805D091D905209749F521E030E030937A
:10515000D9052093D8057A018C01F093DB05E09303
:10516000DA055601B4E0AB0EB11CB50176DE0A0DCE
:105170001B1DF801208131818217930729F5D70182
:10518000CD92DC92CE01DF91CF911F910F91FF90D4
:10519000EF90DF90CF90BF90AF9008952091DA0507
:1051A0003091DB052F5F3F4FCCEFDFEFE217F307C6
:1051B00090F2CBEFDFEF2E173F0768F2D0E0C0E0B0
:1051C000CACFCFEFDFEFDECFC3EFDFEFDBCF84E07F
:1051D00090E0089582E090E008958CEF9FEF0895AD
:1051E00080E290E008951092DD051092DC051092A7
:1051F000DB051092DA051092D9051092D80590E0DF
:1052000080E008959093900280938F02089580919A
:10521000D705882391F0C5DD009789F41092DD054C
:105220001092DC051092DB051092DA051092D90578
:105230001092D8051092D705089590E080E0089567
:10524000009749F06115710531F0FC01118210825F
:10525000FB01118210820895F3CF26E030E040E890
:1052600055E260E070E090E080E000C081309105A0
:1052700071F01CF4892B39F008958230910551F0BA
:10528000039759F0089583EF95E00C94053280E977
:1052900096E0FBCF8DE297E0F8CF8AEC97E0F5CF70
:1052A000089580E00895CF92DF92EF92FF920F93DE
:1052B0001F9355D66093DE057093DF058093E0055C
:1052C0009093E1050091E2051091E3052091E4053A
:1052D0003091E5056B017C01C01AD10AE20AF30A9C
:1052E00097018601003117422105310508F16093CD
:1052F000E2057093E3058093E4059093E505A3D060
:105300002ED60091E2051091E3052091E40530913D
:10531000E505601B710B820B930B603177428105B1
:10532000910570F081E090E09093E9058093E805A5
:1053300081E01F910F91FF90EF90DF90CF90089543
:105340001092E9051092E805F3CF1092E605089552
:1053500068EE73E080E090E027D690E080E008956A
:1053600026E030E040E050E16EE070E090E080E068
:105370007DDF83EF95E07FD7892B21F083EF95E0E8
:1053800094D7F7CF90E080E00895CF92DF92EF922C
:10539000FF920F931F93CF93DF936B017A01E90183
:1053A0001982188283EF95E066D7892B69F186010F
:1053B000CC24C39482E0D82E8091E605811110C0E0
:1053C00083EF95E072D70297B9F7C092E605F8012E
:1053D000D1928F0188819981019699838883ECCF3E
:1053E000888199818E159F0578F483EF95E05DD7CC
:1053F0008F3F9807A9F3F80181938F0188819981E4
:10540000019699838883ECCF90E080E0DF91CF9183
:105410001F910F91FF90EF90DF90CF9008950F9321
:105420001F93CF93DF93EA01890183EF95E00E94F8
:105430009534F801D183C08390E080E0DF91CF9173
:105440001F910F9108958091E70591E0980F909337
:10545000E705882349F021E030E03093E905209307
:10546000E8058093E70508950E943E058091E705D1
:105470008150F7CF0F931F93CF93DF931092D908EA
:105480001092D808C7D5E9DEC091A202D091A3023C
:10549000198218826FEF7FEFCB010E94BF0270E08C
:1054A00060E090E080E00E943A01009709F041C07E
:1054B0000E940D09F8947894BE01655B7F4F8A8144
:1054C0009B810E943D01892B71F46FEF7FEFCB012F
:1054D0000E94CE010E94B902882329F081E0FE01DA
:1054E000E15BFF4F8083F894DBDE0E94BC028823DF
:1054F00011F080E00BC00E94B9028111FACF81E067
:10550000FE01E15BFF4F90819111F3CF8093D808AA
:105510000E9442118C017894C15BDF4F8091D808C2
:1055200081110CC00E947F0A0E949D02F89490E0B5
:1055300080E0DF91CF911F910F9108950E949A0210
:105540000E94BC028823D9F081E08093D908909111
:10555000D90881E0911180E08093D8088091D90822
:1055600081119FDE0130110529F40E944211892B1F
:1055700009F4EBDE0E9442118C0195DECFCF0E9430
:10558000B9028111E1CF81E098819111DECF80E0F5
:10559000DCCF5058BB27AA270ED00DC2FED130F069
:1055A00003D220F031F49F3F11F41EF4F3C10EF446
:1055B000E095E7FBC0C1E92F0FD280F3BA1762076D
:1055C00073078407950718F071F49EF53EC20EF438
:1055D000E0950B2EBA2FA02D0B01B90190010C0103
:1055E000CA01A0011124FF27591B99F0593F50F41B
:1055F000503E68F11A16F040A22F232F342F442773
:10560000585FF3CF469537952795A795F04053956A
:10561000C9F77EF41F16BA0B620B730B840BBAF03A
:105620009150A1F0FF0FBB1F661F771F881FC2F7A5
:105630000EC0BA0F621F731F841F48F487957795B9
:105640006795B795F7959E3F08F0B3CF9395880F70
:1056500008F09927EE0F979587950895DFD180F090
:105660009F3740F491110EF4F1C160E070E080E8E2
:105670009FE3089526F01B16611D711D811D61C1F8
:105680007BC135D108F481E008950CD094C18CD150
:1056900040F083D130F021F45F3F19F04CC151113B
:1056A000D5C178C199D198F39923C9F35523B1F3A2
:1056B000951B550BBB27AA2762177307840738F081
:1056C0009F5F5F4F220F331F441FAA1FA9F333D0E0
:1056D0000E2E3AF0E0E830D091505040E695001C94
:1056E000CAF729D0FE2F27D0660F771F881FBB1F50
:1056F000261737074807AB07B0E809F0BB0B802D2A
:10570000BF01FF2793585F4F2AF09E3F510568F075
:1057100012C19CC15F3FECF3983EDCF38695779510
:105720006795B795F7959F5FC9F7880F911D969577
:10573000879597F90895E1E0660F771F881FBB1FD3
:10574000621773078407BA0720F0621B730B840B80
:10575000BA0BEE1F88F7E095089546D188F09F5761
:1057600090F0B92F9927B751A0F0D1F0660F771FAD
:10577000881F991F1AF0BA95C9F712C0B13081F08D
:1057800064D1B1E0089561C1672F782F8827B85F91
:1057900039F0B93FCCF3869577956795B395D9F7EE
:1057A0003EF490958095709561957F4F8F4F9F4FF8
:1057B0000895E89409C097FB3EF490958095709504
:1057C00061957F4F8F4F9F4F9923A9F0F92F96E94D
:1057D000BB279395F695879577956795B795F111C2
:1057E000F8CFFAF4BB0F11F460FF1BC06F5F7F4F5F
:1057F0008F4F9F4F16C0882311F096E911C0772371
:1058000021F09EE8872F762F05C0662371F096E879
:10581000862F70E060E02AF09A95660F771F881F48
:10582000DAF7880F9695879597F90895F7D080F065
:105830009F3740F491110EF009C160E070E080E8FC
:105840009FEB089526F41B16611D711D811D79C003
:1058500093C0A3D018F011F0A7D038F49BC0F6C0C5
:10586000E92FBAD0B0F35523C9F3E7FB62177307EA
:1058700084079507A8F199F3E92FFF2788232AF0D9
:105880003197660F771F881FDAF7952F5527442326
:1058900032F091505040220F331F441FD2F7BB27E4
:1058A000E91BF50B621B730B840BB109C1F222F4E7
:1058B000620F731F841FB11D31972AF0660F771F87
:1058C000881FBB1FEFCF915050405AF041F0882302
:1058D00032F0660F771F881F91505040C1F79395A3
:1058E0004BC08695779567959F5FD9F7F8CF990F4D
:1058F0000008550FAA0BE0E8FEEF16161706E8079A
:10590000F907C0F012161306E407F50798F0621BBA
:10591000730B840B950B39F40A2661F0232B242B8F
:10592000252B21F408950A2609F4A140A6958FEFAE
:10593000811D811D089597F99F6780E870E060E000
:105940000895882371F4772321F09850872B762FC0
:1059500007C0662311F499270DC09051862B70E083
:1059600060E02AF09A95660F771F881FDAF7880F94
:105970009695879597F908959F3F31F0915020F4BF
:10598000879577956795B795880F911D969587951B
:1059900097F908959FEF80EC089500240A94161655
:1059A000170618060906089500240A94121613060D
:1059B000140605060895092E0394000C11F488239B
:1059C00052F0BB0F40F4BF2B11F460FF04C06F5FB7
:1059D0007F4F8F4F9F4F089557FD9058440F551F8D
:1059E00059F05F3F71F04795880F97FB991F61F061
:1059F0009F3F79F087950895121613061406551FD8
:105A0000F2CF4695F1DF08C0161617061806991F43
:105A1000F1CF86957105610508940895E5DFA0F042
:105A2000BEE7B91788F4BB279F3860F41616B11D7E
:105A3000672F782F8827985FF7CF8695779567959A
:105A4000B11D93959639C8F30895E894BB2766274E
:105A50007727CB0197F908954ADF08F48FEF08956F
:105A60000BD0A9CF9ADF28F09FDF18F0952309F01B
:105A700062CF90CF1124EACFAFDFA0F3959FD1F38F
:105A8000950F50E0551F629FF001729FBB27F00DEC
:105A9000B11D639FAA27F00DB11DAA1F649F662741
:105AA000B00DA11D661F829F2227B00DA11D621F90
:105AB000739FB00DA11D621F839FA00D611D221F4A
:105AC000749F3327A00D611D231F849F600D211D2E
:105AD000822F762F6A2F11249F5750408AF0E1F0D1
